{
	"contracts/YNPresalePair.sol": {
		"YNPresalePair": {
			"abi": [
				{
					"inputs": [
						{
							"internalType": "uint256",
							"name": "maxAmount",
							"type": "uint256"
						},
						{
							"internalType": "uint256",
							"name": "amountPerETH",
							"type": "uint256"
						}
					],
					"stateMutability": "nonpayable",
					"type": "constructor"
				},
				{
					"anonymous": false,
					"inputs": [
						{
							"indexed": true,
							"internalType": "address",
							"name": "owner",
							"type": "address"
						},
						{
							"indexed": true,
							"internalType": "address",
							"name": "spender",
							"type": "address"
						},
						{
							"indexed": false,
							"internalType": "uint256",
							"name": "value",
							"type": "uint256"
						}
					],
					"name": "Approval",
					"type": "event"
				},
				{
					"anonymous": false,
					"inputs": [
						{
							"indexed": true,
							"internalType": "address",
							"name": "previousOwner",
							"type": "address"
						},
						{
							"indexed": true,
							"internalType": "address",
							"name": "newOwner",
							"type": "address"
						}
					],
					"name": "OwnershipTransferred",
					"type": "event"
				},
				{
					"anonymous": false,
					"inputs": [
						{
							"indexed": true,
							"internalType": "address",
							"name": "from",
							"type": "address"
						},
						{
							"indexed": true,
							"internalType": "address",
							"name": "to",
							"type": "address"
						},
						{
							"indexed": false,
							"internalType": "uint256",
							"name": "value",
							"type": "uint256"
						}
					],
					"name": "Transfer",
					"type": "event"
				},
				{
					"inputs": [
						{
							"internalType": "address",
							"name": "owner",
							"type": "address"
						},
						{
							"internalType": "address",
							"name": "spender",
							"type": "address"
						}
					],
					"name": "allowance",
					"outputs": [
						{
							"internalType": "uint256",
							"name": "",
							"type": "uint256"
						}
					],
					"stateMutability": "view",
					"type": "function"
				},
				{
					"inputs": [
						{
							"internalType": "address",
							"name": "spender",
							"type": "address"
						},
						{
							"internalType": "uint256",
							"name": "amount",
							"type": "uint256"
						}
					],
					"name": "approve",
					"outputs": [
						{
							"internalType": "bool",
							"name": "",
							"type": "bool"
						}
					],
					"stateMutability": "nonpayable",
					"type": "function"
				},
				{
					"inputs": [
						{
							"internalType": "address",
							"name": "account",
							"type": "address"
						}
					],
					"name": "balanceOf",
					"outputs": [
						{
							"internalType": "uint256",
							"name": "",
							"type": "uint256"
						}
					],
					"stateMutability": "view",
					"type": "function"
				},
				{
					"inputs": [],
					"name": "buy",
					"outputs": [],
					"stateMutability": "payable",
					"type": "function"
				},
				{
					"inputs": [],
					"name": "decimals",
					"outputs": [
						{
							"internalType": "uint8",
							"name": "",
							"type": "uint8"
						}
					],
					"stateMutability": "view",
					"type": "function"
				},
				{
					"inputs": [
						{
							"internalType": "address",
							"name": "spender",
							"type": "address"
						},
						{
							"internalType": "uint256",
							"name": "subtractedValue",
							"type": "uint256"
						}
					],
					"name": "decreaseAllowance",
					"outputs": [
						{
							"internalType": "bool",
							"name": "",
							"type": "bool"
						}
					],
					"stateMutability": "nonpayable",
					"type": "function"
				},
				{
					"inputs": [
						{
							"internalType": "address",
							"name": "spender",
							"type": "address"
						},
						{
							"internalType": "uint256",
							"name": "addedValue",
							"type": "uint256"
						}
					],
					"name": "increaseAllowance",
					"outputs": [
						{
							"internalType": "bool",
							"name": "",
							"type": "bool"
						}
					],
					"stateMutability": "nonpayable",
					"type": "function"
				},
				{
					"inputs": [],
					"name": "name",
					"outputs": [
						{
							"internalType": "string",
							"name": "",
							"type": "string"
						}
					],
					"stateMutability": "view",
					"type": "function"
				},
				{
					"inputs": [],
					"name": "owner",
					"outputs": [
						{
							"internalType": "address",
							"name": "",
							"type": "address"
						}
					],
					"stateMutability": "view",
					"type": "function"
				},
				{
					"inputs": [],
					"name": "renounceOwnership",
					"outputs": [],
					"stateMutability": "nonpayable",
					"type": "function"
				},
				{
					"inputs": [],
					"name": "symbol",
					"outputs": [
						{
							"internalType": "string",
							"name": "",
							"type": "string"
						}
					],
					"stateMutability": "view",
					"type": "function"
				},
				{
					"inputs": [],
					"name": "totalSupply",
					"outputs": [
						{
							"internalType": "uint256",
							"name": "",
							"type": "uint256"
						}
					],
					"stateMutability": "view",
					"type": "function"
				},
				{
					"inputs": [
						{
							"internalType": "address",
							"name": "recipient",
							"type": "address"
						},
						{
							"internalType": "uint256",
							"name": "amount",
							"type": "uint256"
						}
					],
					"name": "transfer",
					"outputs": [
						{
							"internalType": "bool",
							"name": "",
							"type": "bool"
						}
					],
					"stateMutability": "nonpayable",
					"type": "function"
				},
				{
					"inputs": [
						{
							"internalType": "address",
							"name": "sender",
							"type": "address"
						},
						{
							"internalType": "address",
							"name": "recipient",
							"type": "address"
						},
						{
							"internalType": "uint256",
							"name": "amount",
							"type": "uint256"
						}
					],
					"name": "transferFrom",
					"outputs": [
						{
							"internalType": "bool",
							"name": "",
							"type": "bool"
						}
					],
					"stateMutability": "nonpayable",
					"type": "function"
				},
				{
					"inputs": [
						{
							"internalType": "address",
							"name": "newOwner",
							"type": "address"
						}
					],
					"name": "transferOwnership",
					"outputs": [],
					"stateMutability": "nonpayable",
					"type": "function"
				},
				{
					"inputs": [
						{
							"internalType": "address",
							"name": "user",
							"type": "address"
						},
						{
							"internalType": "uint256",
							"name": "money",
							"type": "uint256"
						}
					],
					"name": "transferTokenToUser",
					"outputs": [],
					"stateMutability": "nonpayable",
					"type": "function"
				}
			],
			"devdoc": {
				"kind": "dev",
				"methods": {
					"allowance(address,address)": {
						"details": "See {IERC20-allowance}."
					},
					"approve(address,uint256)": {
						"details": "See {IERC20-approve}. Requirements: - `spender` cannot be the zero address."
					},
					"balanceOf(address)": {
						"details": "See {IERC20-balanceOf}."
					},
					"decimals()": {
						"details": "Returns the number of decimals used to get its user representation. For example, if `decimals` equals `2`, a balance of `505` tokens should be displayed to a user as `5.05` (`505 / 10 ** 2`). Tokens usually opt for a value of 18, imitating the relationship between Ether and Wei. This is the value {ERC20} uses, unless this function is overridden; NOTE: This information is only used for _display_ purposes: it in no way affects any of the arithmetic of the contract, including {IERC20-balanceOf} and {IERC20-transfer}."
					},
					"decreaseAllowance(address,uint256)": {
						"details": "Atomically decreases the allowance granted to `spender` by the caller. This is an alternative to {approve} that can be used as a mitigation for problems described in {IERC20-approve}. Emits an {Approval} event indicating the updated allowance. Requirements: - `spender` cannot be the zero address. - `spender` must have allowance for the caller of at least `subtractedValue`."
					},
					"increaseAllowance(address,uint256)": {
						"details": "Atomically increases the allowance granted to `spender` by the caller. This is an alternative to {approve} that can be used as a mitigation for problems described in {IERC20-approve}. Emits an {Approval} event indicating the updated allowance. Requirements: - `spender` cannot be the zero address."
					},
					"name()": {
						"details": "Returns the name of the token."
					},
					"owner()": {
						"details": "Returns the address of the current owner."
					},
					"renounceOwnership()": {
						"details": "Leaves the contract without owner. It will not be possible to call `onlyOwner` functions anymore. Can only be called by the current owner. NOTE: Renouncing ownership will leave the contract without an owner, thereby removing any functionality that is only available to the owner."
					},
					"symbol()": {
						"details": "Returns the symbol of the token, usually a shorter version of the name."
					},
					"totalSupply()": {
						"details": "See {IERC20-totalSupply}."
					},
					"transfer(address,uint256)": {
						"details": "See {IERC20-transfer}. Requirements: - `recipient` cannot be the zero address. - the caller must have a balance of at least `amount`."
					},
					"transferFrom(address,address,uint256)": {
						"details": "See {IERC20-transferFrom}. Emits an {Approval} event indicating the updated allowance. This is not required by the EIP. See the note at the beginning of {ERC20}. Requirements: - `sender` and `recipient` cannot be the zero address. - `sender` must have a balance of at least `amount`. - the caller must have allowance for ``sender``'s tokens of at least `amount`."
					},
					"transferOwnership(address)": {
						"details": "Transfers ownership of the contract to a new account (`newOwner`). Can only be called by the current owner."
					}
				},
				"version": 1
			},
			"evm": {
				"assembly": "    /* \"contracts/YNPresalePair.sol\":256:2340  contract YNPresalePair is ERC20, Ownable {\r... */\n  mstore(0x40, 0x80)\n    /* \"contracts/YNPresalePair.sol\":357:358  0 */\n  0x00\n    /* \"contracts/YNPresalePair.sol\":341:358  uint256 _buyFee=0 */\n  0x06\n  sstore\n    /* \"contracts/YNPresalePair.sol\":382:383  0 */\n  0x00\n    /* \"contracts/YNPresalePair.sol\":365:383  uint256 _saleFee=0 */\n  0x07\n  sstore\n    /* \"contracts/YNPresalePair.sol\":402:414  1 * 10 ** 18 */\n  0x0de0b6b3a7640000\n    /* \"contracts/YNPresalePair.sol\":390:414  uint256 ETH=1 * 10 ** 18 */\n  0x08\n  sstore\n    /* \"contracts/YNPresalePair.sol\":438:450  1 * 10 ** 18 */\n  0x0de0b6b3a7640000\n    /* \"contracts/YNPresalePair.sol\":423:450  uint256 maxBuy=1 * 10 ** 18 */\n  0x09\n  sstore\n    /* \"contracts/YNPresalePair.sol\":473:485  1 * 10 ** 18 */\n  0x0de0b6b3a7640000\n    /* \"contracts/YNPresalePair.sol\":457:485  uint256 maxSale=1 * 10 ** 18 */\n  0x0a\n  sstore\n    /* \"contracts/YNPresalePair.sol\":494:724  constructor(uint256 maxAmount,uint256 amountPerETH) ERC20(\"Yuki Presale Pair\", \"YN-PPs\") {\r... */\n  callvalue\n  dup1\n  iszero\n  tag_1\n  jumpi\n  0x00\n  dup1\n  revert\ntag_1:\n  pop\n  mload(0x40)\n  sub(codesize, bytecodeSize)\n  dup1\n  bytecodeSize\n  dup4\n  codecopy\n  dup2\n  dup2\n  add\n  0x40\n  mstore\n  dup2\n  add\n  swap1\n  tag_2\n  swap2\n  swap1\n  tag_3\n  jump\t// in\ntag_2:\n    /* \"@openzeppelin/contracts/token/ERC20/ERC20.sol\":1963:2076  constructor(string memory name_, string memory symbol_) {... */\n  mload(0x40)\n  dup1\n  0x40\n  add\n  0x40\n  mstore\n  dup1\n  0x11\n  dup2\n  mstore\n  0x20\n  add\n  0x59756b692050726573616c652050616972000000000000000000000000000000\n  dup2\n  mstore\n  pop\n  mload(0x40)\n  dup1\n  0x40\n  add\n  0x40\n  mstore\n  dup1\n  0x06\n  dup2\n  mstore\n  0x20\n  add\n  0x594e2d5050730000000000000000000000000000000000000000000000000000\n  dup2\n  mstore\n  pop\n    /* \"@openzeppelin/contracts/token/ERC20/ERC20.sol\":2037:2042  name_ */\n  dup2\n    /* \"@openzeppelin/contracts/token/ERC20/ERC20.sol\":2029:2034  _name */\n  0x03\n    /* \"@openzeppelin/contracts/token/ERC20/ERC20.sol\":2029:2042  _name = name_ */\n  swap1\n  dup1\n  mload\n  swap1\n  0x20\n  add\n  swap1\n  tag_8\n  swap3\n  swap2\n  swap1\n  tag_9\n  jump\t// in\ntag_8:\n  pop\n    /* \"@openzeppelin/contracts/token/ERC20/ERC20.sol\":2062:2069  symbol_ */\n  dup1\n    /* \"@openzeppelin/contracts/token/ERC20/ERC20.sol\":2052:2059  _symbol */\n  0x04\n    /* \"@openzeppelin/contracts/token/ERC20/ERC20.sol\":2052:2069  _symbol = symbol_ */\n  swap1\n  dup1\n  mload\n  swap1\n  0x20\n  add\n  swap1\n  tag_10\n  swap3\n  swap2\n  swap1\n  tag_9\n  jump\t// in\ntag_10:\n  pop\n    /* \"@openzeppelin/contracts/token/ERC20/ERC20.sol\":1963:2076  constructor(string memory name_, string memory symbol_) {... */\n  pop\n  pop\n    /* \"@openzeppelin/contracts/access/Ownable.sol\":921:953  _transferOwnership(_msgSender()) */\n  tag_12\n    /* \"@openzeppelin/contracts/access/Ownable.sol\":940:952  _msgSender() */\n  tag_13\n    /* \"@openzeppelin/contracts/access/Ownable.sol\":940:950  _msgSender */\n  shl(0x20, tag_14)\n    /* \"@openzeppelin/contracts/access/Ownable.sol\":940:952  _msgSender() */\n  0x20\n  shr\n  jump\t// in\ntag_13:\n    /* \"@openzeppelin/contracts/access/Ownable.sol\":921:939  _transferOwnership */\n  shl(0x20, tag_15)\n    /* \"@openzeppelin/contracts/access/Ownable.sol\":921:953  _transferOwnership(_msgSender()) */\n  0x20\n  shr\n  jump\t// in\ntag_12:\n    /* \"contracts/YNPresalePair.sol\":594:641  _mint(msg.sender, maxAmount * 10 ** decimals()) */\n  tag_17\n    /* \"contracts/YNPresalePair.sol\":600:610  msg.sender */\n  caller\n    /* \"contracts/YNPresalePair.sol\":630:640  decimals() */\n  tag_18\n    /* \"contracts/YNPresalePair.sol\":630:638  decimals */\n  shl(0x20, tag_19)\n    /* \"contracts/YNPresalePair.sol\":630:640  decimals() */\n  0x20\n  shr\n  jump\t// in\ntag_18:\n    /* \"contracts/YNPresalePair.sol\":624:626  10 */\n  0x0a\n    /* \"contracts/YNPresalePair.sol\":624:640  10 ** decimals() */\n  tag_20\n  swap2\n  swap1\n  tag_21\n  jump\t// in\ntag_20:\n    /* \"contracts/YNPresalePair.sol\":612:621  maxAmount */\n  dup5\n    /* \"contracts/YNPresalePair.sol\":612:640  maxAmount * 10 ** decimals() */\n  tag_22\n  swap2\n  swap1\n  tag_23\n  jump\t// in\ntag_22:\n    /* \"contracts/YNPresalePair.sol\":594:599  _mint */\n  shl(0x20, tag_24)\n    /* \"contracts/YNPresalePair.sol\":594:641  _mint(msg.sender, maxAmount * 10 ** decimals()) */\n  0x20\n  shr\n  jump\t// in\ntag_17:\n    /* \"contracts/YNPresalePair.sol\":666:678  amountPerETH */\n  dup1\n    /* \"contracts/YNPresalePair.sol\":660:663  ETH */\n  sload(0x08)\n    /* \"contracts/YNPresalePair.sol\":660:678  ETH / amountPerETH */\n  tag_25\n  swap2\n  swap1\n  tag_26\n  jump\t// in\ntag_25:\n    /* \"contracts/YNPresalePair.sol\":652:659  _buyFee */\n  0x06\n    /* \"contracts/YNPresalePair.sol\":652:678  _buyFee=ETH / amountPerETH */\n  dup2\n  swap1\n  sstore\n  pop\n    /* \"contracts/YNPresalePair.sol\":704:716  amountPerETH */\n  dup1\n    /* \"contracts/YNPresalePair.sol\":698:701  ETH */\n  sload(0x08)\n    /* \"contracts/YNPresalePair.sol\":698:716  ETH / amountPerETH */\n  tag_27\n  swap2\n  swap1\n  tag_26\n  jump\t// in\ntag_27:\n    /* \"contracts/YNPresalePair.sol\":689:697  _saleFee */\n  0x07\n    /* \"contracts/YNPresalePair.sol\":689:716  _saleFee=ETH / amountPerETH */\n  dup2\n  swap1\n  sstore\n  pop\n    /* \"contracts/YNPresalePair.sol\":494:724  constructor(uint256 maxAmount,uint256 amountPerETH) ERC20(\"Yuki Presale Pair\", \"YN-PPs\") {\r... */\n  pop\n  pop\n    /* \"contracts/YNPresalePair.sol\":256:2340  contract YNPresalePair is ERC20, Ownable {\r... */\n  jump(tag_28)\n    /* \"@openzeppelin/contracts/utils/Context.sol\":640:736  function _msgSender() internal view virtual returns (address) {... */\ntag_14:\n    /* \"@openzeppelin/contracts/utils/Context.sol\":693:700  address */\n  0x00\n    /* \"@openzeppelin/contracts/utils/Context.sol\":719:729  msg.sender */\n  caller\n    /* \"@openzeppelin/contracts/utils/Context.sol\":712:729  return msg.sender */\n  swap1\n  pop\n    /* \"@openzeppelin/contracts/utils/Context.sol\":640:736  function _msgSender() internal view virtual returns (address) {... */\n  swap1\n  jump\t// out\n    /* \"@openzeppelin/contracts/access/Ownable.sol\":2270:2457  function _transferOwnership(address newOwner) internal virtual {... */\ntag_15:\n    /* \"@openzeppelin/contracts/access/Ownable.sol\":2343:2359  address oldOwner */\n  0x00\n    /* \"@openzeppelin/contracts/access/Ownable.sol\":2362:2368  _owner */\n  0x05\n  0x00\n  swap1\n  sload\n  swap1\n  0x0100\n  exp\n  swap1\n  div\n  0xffffffffffffffffffffffffffffffffffffffff\n  and\n    /* \"@openzeppelin/contracts/access/Ownable.sol\":2343:2368  address oldOwner = _owner */\n  swap1\n  pop\n    /* \"@openzeppelin/contracts/access/Ownable.sol\":2387:2395  newOwner */\n  dup2\n    /* \"@openzeppelin/contracts/access/Ownable.sol\":2378:2384  _owner */\n  0x05\n  0x00\n    /* \"@openzeppelin/contracts/access/Ownable.sol\":2378:2395  _owner = newOwner */\n  0x0100\n  exp\n  dup2\n  sload\n  dup2\n  0xffffffffffffffffffffffffffffffffffffffff\n  mul\n  not\n  and\n  swap1\n  dup4\n  0xffffffffffffffffffffffffffffffffffffffff\n  and\n  mul\n  or\n  swap1\n  sstore\n  pop\n    /* \"@openzeppelin/contracts/access/Ownable.sol\":2441:2449  newOwner */\n  dup2\n    /* \"@openzeppelin/contracts/access/Ownable.sol\":2410:2450  OwnershipTransferred(oldOwner, newOwner) */\n  0xffffffffffffffffffffffffffffffffffffffff\n  and\n    /* \"@openzeppelin/contracts/access/Ownable.sol\":2431:2439  oldOwner */\n  dup2\n    /* \"@openzeppelin/contracts/access/Ownable.sol\":2410:2450  OwnershipTransferred(oldOwner, newOwner) */\n  0xffffffffffffffffffffffffffffffffffffffff\n  and\n  0x8be0079c531659141344cd1fd0a4f28419497f9722a3daafe3b4186f6b6457e0\n  mload(0x40)\n  mload(0x40)\n  dup1\n  swap2\n  sub\n  swap1\n  log3\n    /* \"@openzeppelin/contracts/access/Ownable.sol\":2333:2457  {... */\n  pop\n    /* \"@openzeppelin/contracts/access/Ownable.sol\":2270:2457  function _transferOwnership(address newOwner) internal virtual {... */\n  pop\n  jump\t// out\n    /* \"@openzeppelin/contracts/token/ERC20/ERC20.sol\":3078:3169  function decimals() public view virtual override returns (uint8) {... */\ntag_19:\n    /* \"@openzeppelin/contracts/token/ERC20/ERC20.sol\":3136:3141  uint8 */\n  0x00\n    /* \"@openzeppelin/contracts/token/ERC20/ERC20.sol\":3160:3162  18 */\n  0x12\n    /* \"@openzeppelin/contracts/token/ERC20/ERC20.sol\":3153:3162  return 18 */\n  swap1\n  pop\n    /* \"@openzeppelin/contracts/token/ERC20/ERC20.sol\":3078:3169  function decimals() public view virtual override returns (uint8) {... */\n  swap1\n  jump\t// out\n    /* \"@openzeppelin/contracts/token/ERC20/ERC20.sol\":8311:8700  function _mint(address account, uint256 amount) internal virtual {... */\ntag_24:\n    /* \"@openzeppelin/contracts/token/ERC20/ERC20.sol\":8413:8414  0 */\n  0x00\n    /* \"@openzeppelin/contracts/token/ERC20/ERC20.sol\":8394:8415  account != address(0) */\n  0xffffffffffffffffffffffffffffffffffffffff\n  and\n    /* \"@openzeppelin/contracts/token/ERC20/ERC20.sol\":8394:8401  account */\n  dup3\n    /* \"@openzeppelin/contracts/token/ERC20/ERC20.sol\":8394:8415  account != address(0) */\n  0xffffffffffffffffffffffffffffffffffffffff\n  and\n  eq\n  iszero\n    /* \"@openzeppelin/contracts/token/ERC20/ERC20.sol\":8386:8451  require(account != address(0), \"ERC20: mint to the zero address\") */\n  tag_33\n  jumpi\n  mload(0x40)\n  0x08c379a000000000000000000000000000000000000000000000000000000000\n  dup2\n  mstore\n  0x04\n  add\n  tag_34\n  swap1\n  tag_35\n  jump\t// in\ntag_34:\n  mload(0x40)\n  dup1\n  swap2\n  sub\n  swap1\n  revert\ntag_33:\n    /* \"@openzeppelin/contracts/token/ERC20/ERC20.sol\":8462:8511  _beforeTokenTransfer(address(0), account, amount) */\n  tag_36\n    /* \"@openzeppelin/contracts/token/ERC20/ERC20.sol\":8491:8492  0 */\n  0x00\n    /* \"@openzeppelin/contracts/token/ERC20/ERC20.sol\":8495:8502  account */\n  dup4\n    /* \"@openzeppelin/contracts/token/ERC20/ERC20.sol\":8504:8510  amount */\n  dup4\n    /* \"@openzeppelin/contracts/token/ERC20/ERC20.sol\":8462:8482  _beforeTokenTransfer */\n  shl(0x20, tag_37)\n    /* \"@openzeppelin/contracts/token/ERC20/ERC20.sol\":8462:8511  _beforeTokenTransfer(address(0), account, amount) */\n  0x20\n  shr\n  jump\t// in\ntag_36:\n    /* \"@openzeppelin/contracts/token/ERC20/ERC20.sol\":8538:8544  amount */\n  dup1\n    /* \"@openzeppelin/contracts/token/ERC20/ERC20.sol\":8522:8534  _totalSupply */\n  0x02\n  0x00\n    /* \"@openzeppelin/contracts/token/ERC20/ERC20.sol\":8522:8544  _totalSupply += amount */\n  dup3\n  dup3\n  sload\n  tag_38\n  swap2\n  swap1\n  tag_39\n  jump\t// in\ntag_38:\n  swap3\n  pop\n  pop\n  dup2\n  swap1\n  sstore\n  pop\n    /* \"@openzeppelin/contracts/token/ERC20/ERC20.sol\":8576:8582  amount */\n  dup1\n    /* \"@openzeppelin/contracts/token/ERC20/ERC20.sol\":8554:8563  _balances */\n  0x00\n    /* \"@openzeppelin/contracts/token/ERC20/ERC20.sol\":8554:8572  _balances[account] */\n  dup1\n    /* \"@openzeppelin/contracts/token/ERC20/ERC20.sol\":8564:8571  account */\n  dup5\n    /* \"@openzeppelin/contracts/token/ERC20/ERC20.sol\":8554:8572  _balances[account] */\n  0xffffffffffffffffffffffffffffffffffffffff\n  and\n  0xffffffffffffffffffffffffffffffffffffffff\n  and\n  dup2\n  mstore\n  0x20\n  add\n  swap1\n  dup2\n  mstore\n  0x20\n  add\n  0x00\n  keccak256\n  0x00\n    /* \"@openzeppelin/contracts/token/ERC20/ERC20.sol\":8554:8582  _balances[account] += amount */\n  dup3\n  dup3\n  sload\n  tag_40\n  swap2\n  swap1\n  tag_39\n  jump\t// in\ntag_40:\n  swap3\n  pop\n  pop\n  dup2\n  swap1\n  sstore\n  pop\n    /* \"@openzeppelin/contracts/token/ERC20/ERC20.sol\":8618:8625  account */\n  dup2\n    /* \"@openzeppelin/contracts/token/ERC20/ERC20.sol\":8597:8634  Transfer(address(0), account, amount) */\n  0xffffffffffffffffffffffffffffffffffffffff\n  and\n    /* \"@openzeppelin/contracts/token/ERC20/ERC20.sol\":8614:8615  0 */\n  0x00\n    /* \"@openzeppelin/contracts/token/ERC20/ERC20.sol\":8597:8634  Transfer(address(0), account, amount) */\n  0xffffffffffffffffffffffffffffffffffffffff\n  and\n  0xddf252ad1be2c89b69c2b068fc378daa952ba7f163c4a11628f55a4df523b3ef\n    /* \"@openzeppelin/contracts/token/ERC20/ERC20.sol\":8627:8633  amount */\n  dup4\n    /* \"@openzeppelin/contracts/token/ERC20/ERC20.sol\":8597:8634  Transfer(address(0), account, amount) */\n  mload(0x40)\n  tag_41\n  swap2\n  swap1\n  tag_42\n  jump\t// in\ntag_41:\n  mload(0x40)\n  dup1\n  swap2\n  sub\n  swap1\n  log3\n    /* \"@openzeppelin/contracts/token/ERC20/ERC20.sol\":8645:8693  _afterTokenTransfer(address(0), account, amount) */\n  tag_43\n    /* \"@openzeppelin/contracts/token/ERC20/ERC20.sol\":8673:8674  0 */\n  0x00\n    /* \"@openzeppelin/contracts/token/ERC20/ERC20.sol\":8677:8684  account */\n  dup4\n    /* \"@openzeppelin/contracts/token/ERC20/ERC20.sol\":8686:8692  amount */\n  dup4\n    /* \"@openzeppelin/contracts/token/ERC20/ERC20.sol\":8645:8664  _afterTokenTransfer */\n  shl(0x20, tag_44)\n    /* \"@openzeppelin/contracts/token/ERC20/ERC20.sol\":8645:8693  _afterTokenTransfer(address(0), account, amount) */\n  0x20\n  shr\n  jump\t// in\ntag_43:\n    /* \"@openzeppelin/contracts/token/ERC20/ERC20.sol\":8311:8700  function _mint(address account, uint256 amount) internal virtual {... */\n  pop\n  pop\n  jump\t// out\n    /* \"@openzeppelin/contracts/token/ERC20/ERC20.sol\":10973:11094  function _beforeTokenTransfer(... */\ntag_37:\n  pop\n  pop\n  pop\n  jump\t// out\n    /* \"@openzeppelin/contracts/token/ERC20/ERC20.sol\":11682:11802  function _afterTokenTransfer(... */\ntag_44:\n  pop\n  pop\n  pop\n  jump\t// out\n    /* \"contracts/YNPresalePair.sol\":256:2340  contract YNPresalePair is ERC20, Ownable {\r... */\ntag_9:\n  dup3\n  dup1\n  sload\n  tag_47\n  swap1\n  tag_48\n  jump\t// in\ntag_47:\n  swap1\n  0x00\n  mstore\n  keccak256(0x00, 0x20)\n  swap1\n  0x1f\n  add\n  0x20\n  swap1\n  div\n  dup2\n  add\n  swap3\n  dup3\n  tag_50\n  jumpi\n  0x00\n  dup6\n  sstore\n  jump(tag_49)\ntag_50:\n  dup3\n  0x1f\n  lt\n  tag_51\n  jumpi\n  dup1\n  mload\n  not(0xff)\n  and\n  dup4\n  dup1\n  add\n  or\n  dup6\n  sstore\n  jump(tag_49)\ntag_51:\n  dup3\n  dup1\n  add\n  0x01\n  add\n  dup6\n  sstore\n  dup3\n  iszero\n  tag_49\n  jumpi\n  swap2\n  dup3\n  add\ntag_52:\n  dup3\n  dup2\n  gt\n  iszero\n  tag_53\n  jumpi\n  dup3\n  mload\n  dup3\n  sstore\n  swap2\n  0x20\n  add\n  swap2\n  swap1\n  0x01\n  add\n  swap1\n  jump(tag_52)\ntag_53:\ntag_49:\n  pop\n  swap1\n  pop\n  tag_54\n  swap2\n  swap1\n  tag_55\n  jump\t// in\ntag_54:\n  pop\n  swap1\n  jump\t// out\ntag_55:\ntag_56:\n  dup1\n  dup3\n  gt\n  iszero\n  tag_57\n  jumpi\n  0x00\n  dup2\n  0x00\n  swap1\n  sstore\n  pop\n  0x01\n  add\n  jump(tag_56)\ntag_57:\n  pop\n  swap1\n  jump\t// out\n    /* \"#utility.yul\":7:150   */\ntag_59:\n    /* \"#utility.yul\":64:69   */\n  0x00\n    /* \"#utility.yul\":95:101   */\n  dup2\n    /* \"#utility.yul\":89:102   */\n  mload\n    /* \"#utility.yul\":80:102   */\n  swap1\n  pop\n    /* \"#utility.yul\":111:144   */\n  tag_61\n    /* \"#utility.yul\":138:143   */\n  dup2\n    /* \"#utility.yul\":111:144   */\n  tag_62\n  jump\t// in\ntag_61:\n    /* \"#utility.yul\":7:150   */\n  swap3\n  swap2\n  pop\n  pop\n  jump\t// out\n    /* \"#utility.yul\":156:663   */\ntag_3:\n    /* \"#utility.yul\":235:241   */\n  0x00\n    /* \"#utility.yul\":243:249   */\n  dup1\n    /* \"#utility.yul\":292:294   */\n  0x40\n    /* \"#utility.yul\":280:289   */\n  dup4\n    /* \"#utility.yul\":271:278   */\n  dup6\n    /* \"#utility.yul\":267:290   */\n  sub\n    /* \"#utility.yul\":263:295   */\n  slt\n    /* \"#utility.yul\":260:379   */\n  iszero\n  tag_64\n  jumpi\n    /* \"#utility.yul\":298:377   */\n  tag_65\n  tag_66\n  jump\t// in\ntag_65:\n    /* \"#utility.yul\":260:379   */\ntag_64:\n    /* \"#utility.yul\":418:419   */\n  0x00\n    /* \"#utility.yul\":443:507   */\n  tag_67\n    /* \"#utility.yul\":499:506   */\n  dup6\n    /* \"#utility.yul\":490:496   */\n  dup3\n    /* \"#utility.yul\":479:488   */\n  dup7\n    /* \"#utility.yul\":475:497   */\n  add\n    /* \"#utility.yul\":443:507   */\n  tag_59\n  jump\t// in\ntag_67:\n    /* \"#utility.yul\":433:507   */\n  swap3\n  pop\n    /* \"#utility.yul\":389:517   */\n  pop\n    /* \"#utility.yul\":556:558   */\n  0x20\n    /* \"#utility.yul\":582:646   */\n  tag_68\n    /* \"#utility.yul\":638:645   */\n  dup6\n    /* \"#utility.yul\":629:635   */\n  dup3\n    /* \"#utility.yul\":618:627   */\n  dup7\n    /* \"#utility.yul\":614:636   */\n  add\n    /* \"#utility.yul\":582:646   */\n  tag_59\n  jump\t// in\ntag_68:\n    /* \"#utility.yul\":572:646   */\n  swap2\n  pop\n    /* \"#utility.yul\":527:656   */\n  pop\n    /* \"#utility.yul\":156:663   */\n  swap3\n  pop\n  swap3\n  swap1\n  pop\n  jump\t// out\n    /* \"#utility.yul\":669:1035   */\ntag_69:\n    /* \"#utility.yul\":811:814   */\n  0x00\n    /* \"#utility.yul\":832:899   */\n  tag_71\n    /* \"#utility.yul\":896:898   */\n  0x1f\n    /* \"#utility.yul\":891:894   */\n  dup4\n    /* \"#utility.yul\":832:899   */\n  tag_72\n  jump\t// in\ntag_71:\n    /* \"#utility.yul\":825:899   */\n  swap2\n  pop\n    /* \"#utility.yul\":908:1001   */\n  tag_73\n    /* \"#utility.yul\":997:1000   */\n  dup3\n    /* \"#utility.yul\":908:1001   */\n  tag_74\n  jump\t// in\ntag_73:\n    /* \"#utility.yul\":1026:1028   */\n  0x20\n    /* \"#utility.yul\":1021:1024   */\n  dup3\n    /* \"#utility.yul\":1017:1029   */\n  add\n    /* \"#utility.yul\":1010:1029   */\n  swap1\n  pop\n    /* \"#utility.yul\":669:1035   */\n  swap2\n  swap1\n  pop\n  jump\t// out\n    /* \"#utility.yul\":1041:1159   */\ntag_75:\n    /* \"#utility.yul\":1128:1152   */\n  tag_77\n    /* \"#utility.yul\":1146:1151   */\n  dup2\n    /* \"#utility.yul\":1128:1152   */\n  tag_78\n  jump\t// in\ntag_77:\n    /* \"#utility.yul\":1123:1126   */\n  dup3\n    /* \"#utility.yul\":1116:1153   */\n  mstore\n    /* \"#utility.yul\":1041:1159   */\n  pop\n  pop\n  jump\t// out\n    /* \"#utility.yul\":1165:1584   */\ntag_35:\n    /* \"#utility.yul\":1331:1335   */\n  0x00\n    /* \"#utility.yul\":1369:1371   */\n  0x20\n    /* \"#utility.yul\":1358:1367   */\n  dup3\n    /* \"#utility.yul\":1354:1372   */\n  add\n    /* \"#utility.yul\":1346:1372   */\n  swap1\n  pop\n    /* \"#utility.yul\":1418:1427   */\n  dup2\n    /* \"#utility.yul\":1412:1416   */\n  dup2\n    /* \"#utility.yul\":1408:1428   */\n  sub\n    /* \"#utility.yul\":1404:1405   */\n  0x00\n    /* \"#utility.yul\":1393:1402   */\n  dup4\n    /* \"#utility.yul\":1389:1406   */\n  add\n    /* \"#utility.yul\":1382:1429   */\n  mstore\n    /* \"#utility.yul\":1446:1577   */\n  tag_80\n    /* \"#utility.yul\":1572:1576   */\n  dup2\n    /* \"#utility.yul\":1446:1577   */\n  tag_69\n  jump\t// in\ntag_80:\n    /* \"#utility.yul\":1438:1577   */\n  swap1\n  pop\n    /* \"#utility.yul\":1165:1584   */\n  swap2\n  swap1\n  pop\n  jump\t// out\n    /* \"#utility.yul\":1590:1812   */\ntag_42:\n    /* \"#utility.yul\":1683:1687   */\n  0x00\n    /* \"#utility.yul\":1721:1723   */\n  0x20\n    /* \"#utility.yul\":1710:1719   */\n  dup3\n    /* \"#utility.yul\":1706:1724   */\n  add\n    /* \"#utility.yul\":1698:1724   */\n  swap1\n  pop\n    /* \"#utility.yul\":1734:1805   */\n  tag_82\n    /* \"#utility.yul\":1802:1803   */\n  0x00\n    /* \"#utility.yul\":1791:1800   */\n  dup4\n    /* \"#utility.yul\":1787:1804   */\n  add\n    /* \"#utility.yul\":1778:1784   */\n  dup5\n    /* \"#utility.yul\":1734:1805   */\n  tag_75\n  jump\t// in\ntag_82:\n    /* \"#utility.yul\":1590:1812   */\n  swap3\n  swap2\n  pop\n  pop\n  jump\t// out\n    /* \"#utility.yul\":1899:2068   */\ntag_72:\n    /* \"#utility.yul\":1983:1994   */\n  0x00\n    /* \"#utility.yul\":2017:2023   */\n  dup3\n    /* \"#utility.yul\":2012:2015   */\n  dup3\n    /* \"#utility.yul\":2005:2024   */\n  mstore\n    /* \"#utility.yul\":2057:2061   */\n  0x20\n    /* \"#utility.yul\":2052:2055   */\n  dup3\n    /* \"#utility.yul\":2048:2062   */\n  add\n    /* \"#utility.yul\":2033:2062   */\n  swap1\n  pop\n    /* \"#utility.yul\":1899:2068   */\n  swap3\n  swap2\n  pop\n  pop\n  jump\t// out\n    /* \"#utility.yul\":2074:2379   */\ntag_39:\n    /* \"#utility.yul\":2114:2117   */\n  0x00\n    /* \"#utility.yul\":2133:2153   */\n  tag_87\n    /* \"#utility.yul\":2151:2152   */\n  dup3\n    /* \"#utility.yul\":2133:2153   */\n  tag_78\n  jump\t// in\ntag_87:\n    /* \"#utility.yul\":2128:2153   */\n  swap2\n  pop\n    /* \"#utility.yul\":2167:2187   */\n  tag_88\n    /* \"#utility.yul\":2185:2186   */\n  dup4\n    /* \"#utility.yul\":2167:2187   */\n  tag_78\n  jump\t// in\ntag_88:\n    /* \"#utility.yul\":2162:2187   */\n  swap3\n  pop\n    /* \"#utility.yul\":2321:2322   */\n  dup3\n    /* \"#utility.yul\":2253:2319   */\n  0xffffffffffffffffffffffffffffffffffffffffffffffffffffffffffffffff\n    /* \"#utility.yul\":2249:2323   */\n  sub\n    /* \"#utility.yul\":2246:2247   */\n  dup3\n    /* \"#utility.yul\":2243:2324   */\n  gt\n    /* \"#utility.yul\":2240:2347   */\n  iszero\n  tag_89\n  jumpi\n    /* \"#utility.yul\":2327:2345   */\n  tag_90\n  tag_91\n  jump\t// in\ntag_90:\n    /* \"#utility.yul\":2240:2347   */\ntag_89:\n    /* \"#utility.yul\":2371:2372   */\n  dup3\n    /* \"#utility.yul\":2368:2369   */\n  dup3\n    /* \"#utility.yul\":2364:2373   */\n  add\n    /* \"#utility.yul\":2357:2373   */\n  swap1\n  pop\n    /* \"#utility.yul\":2074:2379   */\n  swap3\n  swap2\n  pop\n  pop\n  jump\t// out\n    /* \"#utility.yul\":2385:2570   */\ntag_26:\n    /* \"#utility.yul\":2425:2426   */\n  0x00\n    /* \"#utility.yul\":2442:2462   */\n  tag_93\n    /* \"#utility.yul\":2460:2461   */\n  dup3\n    /* \"#utility.yul\":2442:2462   */\n  tag_78\n  jump\t// in\ntag_93:\n    /* \"#utility.yul\":2437:2462   */\n  swap2\n  pop\n    /* \"#utility.yul\":2476:2496   */\n  tag_94\n    /* \"#utility.yul\":2494:2495   */\n  dup4\n    /* \"#utility.yul\":2476:2496   */\n  tag_78\n  jump\t// in\ntag_94:\n    /* \"#utility.yul\":2471:2496   */\n  swap3\n  pop\n    /* \"#utility.yul\":2515:2516   */\n  dup3\n    /* \"#utility.yul\":2505:2540   */\n  tag_95\n  jumpi\n    /* \"#utility.yul\":2520:2538   */\n  tag_96\n  tag_97\n  jump\t// in\ntag_96:\n    /* \"#utility.yul\":2505:2540   */\ntag_95:\n    /* \"#utility.yul\":2562:2563   */\n  dup3\n    /* \"#utility.yul\":2559:2560   */\n  dup3\n    /* \"#utility.yul\":2555:2564   */\n  div\n    /* \"#utility.yul\":2550:2564   */\n  swap1\n  pop\n    /* \"#utility.yul\":2385:2570   */\n  swap3\n  swap2\n  pop\n  pop\n  jump\t// out\n    /* \"#utility.yul\":2576:3424   */\ntag_98:\n    /* \"#utility.yul\":2637:2642   */\n  0x00\n    /* \"#utility.yul\":2644:2648   */\n  dup1\n    /* \"#utility.yul\":2668:2674   */\n  dup3\n    /* \"#utility.yul\":2659:2674   */\n  swap2\n  pop\n    /* \"#utility.yul\":2692:2697   */\n  dup4\n    /* \"#utility.yul\":2683:2697   */\n  swap1\n  pop\n    /* \"#utility.yul\":2706:3418   */\ntag_100:\n    /* \"#utility.yul\":2727:2728   */\n  0x01\n    /* \"#utility.yul\":2717:2725   */\n  dup6\n    /* \"#utility.yul\":2714:2729   */\n  gt\n    /* \"#utility.yul\":2706:3418   */\n  iszero\n  tag_102\n  jumpi\n    /* \"#utility.yul\":2822:2826   */\n  dup1\n    /* \"#utility.yul\":2817:2820   */\n  dup7\n    /* \"#utility.yul\":2813:2827   */\n  div\n    /* \"#utility.yul\":2807:2811   */\n  dup2\n    /* \"#utility.yul\":2804:2828   */\n  gt\n    /* \"#utility.yul\":2801:2851   */\n  iszero\n  tag_103\n  jumpi\n    /* \"#utility.yul\":2831:2849   */\n  tag_104\n  tag_91\n  jump\t// in\ntag_104:\n    /* \"#utility.yul\":2801:2851   */\ntag_103:\n    /* \"#utility.yul\":2881:2882   */\n  0x01\n    /* \"#utility.yul\":2871:2879   */\n  dup6\n    /* \"#utility.yul\":2867:2883   */\n  and\n    /* \"#utility.yul\":2864:3315   */\n  iszero\n  tag_105\n  jumpi\n    /* \"#utility.yul\":3296:3300   */\n  dup1\n    /* \"#utility.yul\":3289:3294   */\n  dup3\n    /* \"#utility.yul\":3285:3301   */\n  mul\n    /* \"#utility.yul\":3276:3301   */\n  swap2\n  pop\n    /* \"#utility.yul\":2864:3315   */\ntag_105:\n    /* \"#utility.yul\":3346:3350   */\n  dup1\n    /* \"#utility.yul\":3340:3344   */\n  dup2\n    /* \"#utility.yul\":3336:3351   */\n  mul\n    /* \"#utility.yul\":3328:3351   */\n  swap1\n  pop\n    /* \"#utility.yul\":3376:3408   */\n  tag_106\n    /* \"#utility.yul\":3399:3407   */\n  dup6\n    /* \"#utility.yul\":3376:3408   */\n  tag_107\n  jump\t// in\ntag_106:\n    /* \"#utility.yul\":3364:3408   */\n  swap5\n  pop\n    /* \"#utility.yul\":2706:3418   */\n  jump(tag_100)\ntag_102:\n    /* \"#utility.yul\":2576:3424   */\n  swap5\n  pop\n  swap5\n  swap3\n  pop\n  pop\n  pop\n  jump\t// out\n    /* \"#utility.yul\":3430:3711   */\ntag_21:\n    /* \"#utility.yul\":3488:3493   */\n  0x00\n    /* \"#utility.yul\":3512:3535   */\n  tag_109\n    /* \"#utility.yul\":3530:3534   */\n  dup3\n    /* \"#utility.yul\":3512:3535   */\n  tag_78\n  jump\t// in\ntag_109:\n    /* \"#utility.yul\":3504:3535   */\n  swap2\n  pop\n    /* \"#utility.yul\":3556:3581   */\n  tag_110\n    /* \"#utility.yul\":3572:3580   */\n  dup4\n    /* \"#utility.yul\":3556:3581   */\n  tag_111\n  jump\t// in\ntag_110:\n    /* \"#utility.yul\":3544:3581   */\n  swap3\n  pop\n    /* \"#utility.yul\":3600:3704   */\n  tag_112\n    /* \"#utility.yul\":3637:3703   */\n  0xffffffffffffffffffffffffffffffffffffffffffffffffffffffffffffffff\n    /* \"#utility.yul\":3627:3635   */\n  dup5\n    /* \"#utility.yul\":3621:3625   */\n  dup5\n    /* \"#utility.yul\":3600:3704   */\n  tag_113\n  jump\t// in\ntag_112:\n    /* \"#utility.yul\":3591:3704   */\n  swap1\n  pop\n    /* \"#utility.yul\":3430:3711   */\n  swap3\n  swap2\n  pop\n  pop\n  jump\t// out\n    /* \"#utility.yul\":3717:4790   */\ntag_113:\n    /* \"#utility.yul\":3771:3776   */\n  0x00\n    /* \"#utility.yul\":3962:3970   */\n  dup3\n    /* \"#utility.yul\":3952:3992   */\n  tag_115\n  jumpi\n    /* \"#utility.yul\":3983:3984   */\n  0x01\n    /* \"#utility.yul\":3974:3984   */\n  swap1\n  pop\n    /* \"#utility.yul\":3985:3990   */\n  jump(tag_114)\n    /* \"#utility.yul\":3952:3992   */\ntag_115:\n    /* \"#utility.yul\":4011:4015   */\n  dup2\n    /* \"#utility.yul\":4001:4037   */\n  tag_116\n  jumpi\n    /* \"#utility.yul\":4028:4029   */\n  0x00\n    /* \"#utility.yul\":4019:4029   */\n  swap1\n  pop\n    /* \"#utility.yul\":4030:4035   */\n  jump(tag_114)\n    /* \"#utility.yul\":4001:4037   */\ntag_116:\n    /* \"#utility.yul\":4097:4101   */\n  dup2\n    /* \"#utility.yul\":4145:4146   */\n  0x01\n    /* \"#utility.yul\":4140:4167   */\n  dup2\n  eq\n  tag_118\n  jumpi\n    /* \"#utility.yul\":4181:4182   */\n  0x02\n    /* \"#utility.yul\":4176:4367   */\n  dup2\n  eq\n  tag_119\n  jumpi\n    /* \"#utility.yul\":4090:4367   */\n  jump(tag_117)\n    /* \"#utility.yul\":4140:4167   */\ntag_118:\n    /* \"#utility.yul\":4158:4159   */\n  0x01\n    /* \"#utility.yul\":4149:4159   */\n  swap2\n  pop\n    /* \"#utility.yul\":4160:4165   */\n  pop\n  jump(tag_114)\n    /* \"#utility.yul\":4176:4367   */\ntag_119:\n    /* \"#utility.yul\":4221:4224   */\n  0xff\n    /* \"#utility.yul\":4211:4219   */\n  dup5\n    /* \"#utility.yul\":4208:4225   */\n  gt\n    /* \"#utility.yul\":4205:4248   */\n  iszero\n  tag_120\n  jumpi\n    /* \"#utility.yul\":4228:4246   */\n  tag_121\n  tag_91\n  jump\t// in\ntag_121:\n    /* \"#utility.yul\":4205:4248   */\ntag_120:\n    /* \"#utility.yul\":4277:4285   */\n  dup4\n    /* \"#utility.yul\":4274:4275   */\n  0x02\n    /* \"#utility.yul\":4270:4286   */\n  exp\n    /* \"#utility.yul\":4261:4286   */\n  swap2\n  pop\n    /* \"#utility.yul\":4312:4315   */\n  dup5\n    /* \"#utility.yul\":4305:4310   */\n  dup3\n    /* \"#utility.yul\":4302:4316   */\n  gt\n    /* \"#utility.yul\":4299:4339   */\n  iszero\n  tag_122\n  jumpi\n    /* \"#utility.yul\":4319:4337   */\n  tag_123\n  tag_91\n  jump\t// in\ntag_123:\n    /* \"#utility.yul\":4299:4339   */\ntag_122:\n    /* \"#utility.yul\":4352:4357   */\n  pop\n  jump(tag_114)\n    /* \"#utility.yul\":4090:4367   */\ntag_117:\n  pop\n    /* \"#utility.yul\":4476:4478   */\n  0x20\n    /* \"#utility.yul\":4466:4474   */\n  dup4\n    /* \"#utility.yul\":4463:4479   */\n  lt\n    /* \"#utility.yul\":4457:4460   */\n  0x0133\n    /* \"#utility.yul\":4451:4455   */\n  dup4\n    /* \"#utility.yul\":4448:4461   */\n  lt\n    /* \"#utility.yul\":4444:4480   */\n  and\n    /* \"#utility.yul\":4426:4428   */\n  0x4e\n    /* \"#utility.yul\":4416:4424   */\n  dup5\n    /* \"#utility.yul\":4413:4429   */\n  lt\n    /* \"#utility.yul\":4408:4410   */\n  0x0b\n    /* \"#utility.yul\":4402:4406   */\n  dup5\n    /* \"#utility.yul\":4399:4411   */\n  lt\n    /* \"#utility.yul\":4395:4430   */\n  and\n    /* \"#utility.yul\":4379:4490   */\n  or\n    /* \"#utility.yul\":4376:4622   */\n  iszero\n  tag_124\n  jumpi\n    /* \"#utility.yul\":4532:4540   */\n  dup3\n    /* \"#utility.yul\":4526:4530   */\n  dup3\n    /* \"#utility.yul\":4522:4541   */\n  exp\n    /* \"#utility.yul\":4513:4541   */\n  swap1\n  pop\n    /* \"#utility.yul\":4567:4570   */\n  dup4\n    /* \"#utility.yul\":4560:4565   */\n  dup2\n    /* \"#utility.yul\":4557:4571   */\n  gt\n    /* \"#utility.yul\":4554:4594   */\n  iszero\n  tag_125\n  jumpi\n    /* \"#utility.yul\":4574:4592   */\n  tag_126\n  tag_91\n  jump\t// in\ntag_126:\n    /* \"#utility.yul\":4554:4594   */\ntag_125:\n    /* \"#utility.yul\":4607:4612   */\n  jump(tag_114)\n    /* \"#utility.yul\":4376:4622   */\ntag_124:\n    /* \"#utility.yul\":4647:4689   */\n  tag_127\n    /* \"#utility.yul\":4685:4688   */\n  dup5\n    /* \"#utility.yul\":4675:4683   */\n  dup5\n    /* \"#utility.yul\":4669:4673   */\n  dup5\n    /* \"#utility.yul\":4666:4667   */\n  0x01\n    /* \"#utility.yul\":4647:4689   */\n  tag_98\n  jump\t// in\ntag_127:\n    /* \"#utility.yul\":4632:4689   */\n  swap3\n  pop\n  swap1\n  pop\n    /* \"#utility.yul\":4721:4725   */\n  dup2\n    /* \"#utility.yul\":4716:4719   */\n  dup5\n    /* \"#utility.yul\":4712:4726   */\n  div\n    /* \"#utility.yul\":4705:4710   */\n  dup2\n    /* \"#utility.yul\":4702:4727   */\n  gt\n    /* \"#utility.yul\":4699:4750   */\n  iszero\n  tag_128\n  jumpi\n    /* \"#utility.yul\":4730:4748   */\n  tag_129\n  tag_91\n  jump\t// in\ntag_129:\n    /* \"#utility.yul\":4699:4750   */\ntag_128:\n    /* \"#utility.yul\":4779:4783   */\n  dup2\n    /* \"#utility.yul\":4772:4777   */\n  dup2\n    /* \"#utility.yul\":4768:4784   */\n  mul\n    /* \"#utility.yul\":4759:4784   */\n  swap1\n  pop\n    /* \"#utility.yul\":3717:4790   */\ntag_114:\n  swap4\n  swap3\n  pop\n  pop\n  pop\n  jump\t// out\n    /* \"#utility.yul\":4796:5144   */\ntag_23:\n    /* \"#utility.yul\":4836:4843   */\n  0x00\n    /* \"#utility.yul\":4859:4879   */\n  tag_131\n    /* \"#utility.yul\":4877:4878   */\n  dup3\n    /* \"#utility.yul\":4859:4879   */\n  tag_78\n  jump\t// in\ntag_131:\n    /* \"#utility.yul\":4854:4879   */\n  swap2\n  pop\n    /* \"#utility.yul\":4893:4913   */\n  tag_132\n    /* \"#utility.yul\":4911:4912   */\n  dup4\n    /* \"#utility.yul\":4893:4913   */\n  tag_78\n  jump\t// in\ntag_132:\n    /* \"#utility.yul\":4888:4913   */\n  swap3\n  pop\n    /* \"#utility.yul\":5081:5082   */\n  dup2\n    /* \"#utility.yul\":5013:5079   */\n  0xffffffffffffffffffffffffffffffffffffffffffffffffffffffffffffffff\n    /* \"#utility.yul\":5009:5083   */\n  div\n    /* \"#utility.yul\":5006:5007   */\n  dup4\n    /* \"#utility.yul\":5003:5084   */\n  gt\n    /* \"#utility.yul\":4998:4999   */\n  dup3\n    /* \"#utility.yul\":4991:5000   */\n  iszero\n    /* \"#utility.yul\":4984:5001   */\n  iszero\n    /* \"#utility.yul\":4980:5085   */\n  and\n    /* \"#utility.yul\":4977:5108   */\n  iszero\n  tag_133\n  jumpi\n    /* \"#utility.yul\":5088:5106   */\n  tag_134\n  tag_91\n  jump\t// in\ntag_134:\n    /* \"#utility.yul\":4977:5108   */\ntag_133:\n    /* \"#utility.yul\":5136:5137   */\n  dup3\n    /* \"#utility.yul\":5133:5134   */\n  dup3\n    /* \"#utility.yul\":5129:5138   */\n  mul\n    /* \"#utility.yul\":5118:5138   */\n  swap1\n  pop\n    /* \"#utility.yul\":4796:5144   */\n  swap3\n  swap2\n  pop\n  pop\n  jump\t// out\n    /* \"#utility.yul\":5150:5227   */\ntag_78:\n    /* \"#utility.yul\":5187:5194   */\n  0x00\n    /* \"#utility.yul\":5216:5221   */\n  dup2\n    /* \"#utility.yul\":5205:5221   */\n  swap1\n  pop\n    /* \"#utility.yul\":5150:5227   */\n  swap2\n  swap1\n  pop\n  jump\t// out\n    /* \"#utility.yul\":5233:5319   */\ntag_111:\n    /* \"#utility.yul\":5268:5275   */\n  0x00\n    /* \"#utility.yul\":5308:5312   */\n  0xff\n    /* \"#utility.yul\":5301:5306   */\n  dup3\n    /* \"#utility.yul\":5297:5313   */\n  and\n    /* \"#utility.yul\":5286:5313   */\n  swap1\n  pop\n    /* \"#utility.yul\":5233:5319   */\n  swap2\n  swap1\n  pop\n  jump\t// out\n    /* \"#utility.yul\":5325:5645   */\ntag_48:\n    /* \"#utility.yul\":5369:5375   */\n  0x00\n    /* \"#utility.yul\":5406:5407   */\n  0x02\n    /* \"#utility.yul\":5400:5404   */\n  dup3\n    /* \"#utility.yul\":5396:5408   */\n  div\n    /* \"#utility.yul\":5386:5408   */\n  swap1\n  pop\n    /* \"#utility.yul\":5453:5454   */\n  0x01\n    /* \"#utility.yul\":5447:5451   */\n  dup3\n    /* \"#utility.yul\":5443:5455   */\n  and\n    /* \"#utility.yul\":5474:5492   */\n  dup1\n    /* \"#utility.yul\":5464:5545   */\n  tag_138\n  jumpi\n    /* \"#utility.yul\":5530:5534   */\n  0x7f\n    /* \"#utility.yul\":5522:5528   */\n  dup3\n    /* \"#utility.yul\":5518:5535   */\n  and\n    /* \"#utility.yul\":5508:5535   */\n  swap2\n  pop\n    /* \"#utility.yul\":5464:5545   */\ntag_138:\n    /* \"#utility.yul\":5592:5594   */\n  0x20\n    /* \"#utility.yul\":5584:5590   */\n  dup3\n    /* \"#utility.yul\":5581:5595   */\n  lt\n    /* \"#utility.yul\":5561:5579   */\n  dup2\n    /* \"#utility.yul\":5558:5596   */\n  eq\n    /* \"#utility.yul\":5555:5639   */\n  iszero\n  tag_139\n  jumpi\n    /* \"#utility.yul\":5611:5629   */\n  tag_140\n  tag_141\n  jump\t// in\ntag_140:\n    /* \"#utility.yul\":5555:5639   */\ntag_139:\n    /* \"#utility.yul\":5376:5645   */\n  pop\n    /* \"#utility.yul\":5325:5645   */\n  swap2\n  swap1\n  pop\n  jump\t// out\n    /* \"#utility.yul\":5651:5831   */\ntag_91:\n    /* \"#utility.yul\":5699:5776   */\n  0x4e487b7100000000000000000000000000000000000000000000000000000000\n    /* \"#utility.yul\":5696:5697   */\n  0x00\n    /* \"#utility.yul\":5689:5777   */\n  mstore\n    /* \"#utility.yul\":5796:5800   */\n  0x11\n    /* \"#utility.yul\":5793:5794   */\n  0x04\n    /* \"#utility.yul\":5786:5801   */\n  mstore\n    /* \"#utility.yul\":5820:5824   */\n  0x24\n    /* \"#utility.yul\":5817:5818   */\n  0x00\n    /* \"#utility.yul\":5810:5825   */\n  revert\n    /* \"#utility.yul\":5837:6017   */\ntag_97:\n    /* \"#utility.yul\":5885:5962   */\n  0x4e487b7100000000000000000000000000000000000000000000000000000000\n    /* \"#utility.yul\":5882:5883   */\n  0x00\n    /* \"#utility.yul\":5875:5963   */\n  mstore\n    /* \"#utility.yul\":5982:5986   */\n  0x12\n    /* \"#utility.yul\":5979:5980   */\n  0x04\n    /* \"#utility.yul\":5972:5987   */\n  mstore\n    /* \"#utility.yul\":6006:6010   */\n  0x24\n    /* \"#utility.yul\":6003:6004   */\n  0x00\n    /* \"#utility.yul\":5996:6011   */\n  revert\n    /* \"#utility.yul\":6023:6203   */\ntag_141:\n    /* \"#utility.yul\":6071:6148   */\n  0x4e487b7100000000000000000000000000000000000000000000000000000000\n    /* \"#utility.yul\":6068:6069   */\n  0x00\n    /* \"#utility.yul\":6061:6149   */\n  mstore\n    /* \"#utility.yul\":6168:6172   */\n  0x22\n    /* \"#utility.yul\":6165:6166   */\n  0x04\n    /* \"#utility.yul\":6158:6173   */\n  mstore\n    /* \"#utility.yul\":6192:6196   */\n  0x24\n    /* \"#utility.yul\":6189:6190   */\n  0x00\n    /* \"#utility.yul\":6182:6197   */\n  revert\n    /* \"#utility.yul\":6332:6449   */\ntag_66:\n    /* \"#utility.yul\":6441:6442   */\n  0x00\n    /* \"#utility.yul\":6438:6439   */\n  dup1\n    /* \"#utility.yul\":6431:6443   */\n  revert\n    /* \"#utility.yul\":6455:6557   */\ntag_107:\n    /* \"#utility.yul\":6497:6505   */\n  0x00\n    /* \"#utility.yul\":6544:6549   */\n  dup2\n    /* \"#utility.yul\":6541:6542   */\n  0x01\n    /* \"#utility.yul\":6537:6550   */\n  shr\n    /* \"#utility.yul\":6516:6550   */\n  swap1\n  pop\n    /* \"#utility.yul\":6455:6557   */\n  swap2\n  swap1\n  pop\n  jump\t// out\n    /* \"#utility.yul\":6563:6744   */\ntag_74:\n    /* \"#utility.yul\":6703:6736   */\n  0x45524332303a206d696e7420746f20746865207a65726f206164647265737300\n    /* \"#utility.yul\":6699:6700   */\n  0x00\n    /* \"#utility.yul\":6691:6697   */\n  dup3\n    /* \"#utility.yul\":6687:6701   */\n  add\n    /* \"#utility.yul\":6680:6737   */\n  mstore\n    /* \"#utility.yul\":6563:6744   */\n  pop\n  jump\t// out\n    /* \"#utility.yul\":6750:6872   */\ntag_62:\n    /* \"#utility.yul\":6823:6847   */\n  tag_151\n    /* \"#utility.yul\":6841:6846   */\n  dup2\n    /* \"#utility.yul\":6823:6847   */\n  tag_78\n  jump\t// in\ntag_151:\n    /* \"#utility.yul\":6816:6821   */\n  dup2\n    /* \"#utility.yul\":6813:6848   */\n  eq\n    /* \"#utility.yul\":6803:6866   */\n  tag_152\n  jumpi\n    /* \"#utility.yul\":6862:6863   */\n  0x00\n    /* \"#utility.yul\":6859:6860   */\n  dup1\n    /* \"#utility.yul\":6852:6864   */\n  revert\n    /* \"#utility.yul\":6803:6866   */\ntag_152:\n    /* \"#utility.yul\":6750:6872   */\n  pop\n  jump\t// out\n    /* \"contracts/YNPresalePair.sol\":256:2340  contract YNPresalePair is ERC20, Ownable {\r... */\ntag_28:\n  dataSize(sub_0)\n  dup1\n  dataOffset(sub_0)\n  0x00\n  codecopy\n  0x00\n  return\nstop\n\nsub_0: assembly {\n        /* \"contracts/YNPresalePair.sol\":256:2340  contract YNPresalePair is ERC20, Ownable {\r... */\n      mstore(0x40, 0x80)\n      jumpi(tag_1, lt(calldatasize, 0x04))\n      shr(0xe0, calldataload(0x00))\n      dup1\n      0x715018a6\n      gt\n      tag_18\n      jumpi\n      dup1\n      0xa6f2ae3a\n      gt\n      tag_19\n      jumpi\n      dup1\n      0xa6f2ae3a\n      eq\n      tag_14\n      jumpi\n      dup1\n      0xa9059cbb\n      eq\n      tag_15\n      jumpi\n      dup1\n      0xdd62ed3e\n      eq\n      tag_16\n      jumpi\n      dup1\n      0xf2fde38b\n      eq\n      tag_17\n      jumpi\n      jump(tag_1)\n    tag_19:\n      dup1\n      0x715018a6\n      eq\n      tag_10\n      jumpi\n      dup1\n      0x8da5cb5b\n      eq\n      tag_11\n      jumpi\n      dup1\n      0x95d89b41\n      eq\n      tag_12\n      jumpi\n      dup1\n      0xa457c2d7\n      eq\n      tag_13\n      jumpi\n      jump(tag_1)\n    tag_18:\n      dup1\n      0x313ce567\n      gt\n      tag_20\n      jumpi\n      dup1\n      0x313ce567\n      eq\n      tag_6\n      jumpi\n      dup1\n      0x39509351\n      eq\n      tag_7\n      jumpi\n      dup1\n      0x4664ffea\n      eq\n      tag_8\n      jumpi\n      dup1\n      0x70a08231\n      eq\n      tag_9\n      jumpi\n      jump(tag_1)\n    tag_20:\n      dup1\n      0x06fdde03\n      eq\n      tag_2\n      jumpi\n      dup1\n      0x095ea7b3\n      eq\n      tag_3\n      jumpi\n      dup1\n      0x18160ddd\n      eq\n      tag_4\n      jumpi\n      dup1\n      0x23b872dd\n      eq\n      tag_5\n      jumpi\n    tag_1:\n      0x00\n      dup1\n      revert\n        /* \"@openzeppelin/contracts/token/ERC20/ERC20.sol\":2141:2239  function name() public view virtual override returns (string memory) {... */\n    tag_2:\n      callvalue\n      dup1\n      iszero\n      tag_21\n      jumpi\n      0x00\n      dup1\n      revert\n    tag_21:\n      pop\n      tag_22\n      tag_23\n      jump\t// in\n    tag_22:\n      mload(0x40)\n      tag_24\n      swap2\n      swap1\n      tag_25\n      jump\t// in\n    tag_24:\n      mload(0x40)\n      dup1\n      swap2\n      sub\n      swap1\n      return\n        /* \"@openzeppelin/contracts/token/ERC20/ERC20.sol\":4238:4404  function approve(address spender, uint256 amount) public virtual override returns (bool) {... */\n    tag_3:\n      callvalue\n      dup1\n      iszero\n      tag_26\n      jumpi\n      0x00\n      dup1\n      revert\n    tag_26:\n      pop\n      tag_27\n      0x04\n      dup1\n      calldatasize\n      sub\n      dup2\n      add\n      swap1\n      tag_28\n      swap2\n      swap1\n      tag_29\n      jump\t// in\n    tag_28:\n      tag_30\n      jump\t// in\n    tag_27:\n      mload(0x40)\n      tag_31\n      swap2\n      swap1\n      tag_32\n      jump\t// in\n    tag_31:\n      mload(0x40)\n      dup1\n      swap2\n      sub\n      swap1\n      return\n        /* \"@openzeppelin/contracts/token/ERC20/ERC20.sol\":3229:3335  function totalSupply() public view virtual override returns (uint256) {... */\n    tag_4:\n      callvalue\n      dup1\n      iszero\n      tag_33\n      jumpi\n      0x00\n      dup1\n      revert\n    tag_33:\n      pop\n      tag_34\n      tag_35\n      jump\t// in\n    tag_34:\n      mload(0x40)\n      tag_36\n      swap2\n      swap1\n      tag_37\n      jump\t// in\n    tag_36:\n      mload(0x40)\n      dup1\n      swap2\n      sub\n      swap1\n      return\n        /* \"@openzeppelin/contracts/token/ERC20/ERC20.sol\":4871:5349  function transferFrom(... */\n    tag_5:\n      callvalue\n      dup1\n      iszero\n      tag_38\n      jumpi\n      0x00\n      dup1\n      revert\n    tag_38:\n      pop\n      tag_39\n      0x04\n      dup1\n      calldatasize\n      sub\n      dup2\n      add\n      swap1\n      tag_40\n      swap2\n      swap1\n      tag_41\n      jump\t// in\n    tag_40:\n      tag_42\n      jump\t// in\n    tag_39:\n      mload(0x40)\n      tag_43\n      swap2\n      swap1\n      tag_32\n      jump\t// in\n    tag_43:\n      mload(0x40)\n      dup1\n      swap2\n      sub\n      swap1\n      return\n        /* \"@openzeppelin/contracts/token/ERC20/ERC20.sol\":3078:3169  function decimals() public view virtual override returns (uint8) {... */\n    tag_6:\n      callvalue\n      dup1\n      iszero\n      tag_44\n      jumpi\n      0x00\n      dup1\n      revert\n    tag_44:\n      pop\n      tag_45\n      tag_46\n      jump\t// in\n    tag_45:\n      mload(0x40)\n      tag_47\n      swap2\n      swap1\n      tag_48\n      jump\t// in\n    tag_47:\n      mload(0x40)\n      dup1\n      swap2\n      sub\n      swap1\n      return\n        /* \"@openzeppelin/contracts/token/ERC20/ERC20.sol\":5744:5956  function increaseAllowance(address spender, uint256 addedValue) public virtual returns (bool) {... */\n    tag_7:\n      callvalue\n      dup1\n      iszero\n      tag_49\n      jumpi\n      0x00\n      dup1\n      revert\n    tag_49:\n      pop\n      tag_50\n      0x04\n      dup1\n      calldatasize\n      sub\n      dup2\n      add\n      swap1\n      tag_51\n      swap2\n      swap1\n      tag_29\n      jump\t// in\n    tag_51:\n      tag_52\n      jump\t// in\n    tag_50:\n      mload(0x40)\n      tag_53\n      swap2\n      swap1\n      tag_32\n      jump\t// in\n    tag_53:\n      mload(0x40)\n      dup1\n      swap2\n      sub\n      swap1\n      return\n        /* \"contracts/YNPresalePair.sol\":732:956  function transferTokenToUser(address user,uint256 money) public onlyOwner {\r... */\n    tag_8:\n      callvalue\n      dup1\n      iszero\n      tag_54\n      jumpi\n      0x00\n      dup1\n      revert\n    tag_54:\n      pop\n      tag_55\n      0x04\n      dup1\n      calldatasize\n      sub\n      dup2\n      add\n      swap1\n      tag_56\n      swap2\n      swap1\n      tag_29\n      jump\t// in\n    tag_56:\n      tag_57\n      jump\t// in\n    tag_55:\n      stop\n        /* \"@openzeppelin/contracts/token/ERC20/ERC20.sol\":3393:3518  function balanceOf(address account) public view virtual override returns (uint256) {... */\n    tag_9:\n      callvalue\n      dup1\n      iszero\n      tag_58\n      jumpi\n      0x00\n      dup1\n      revert\n    tag_58:\n      pop\n      tag_59\n      0x04\n      dup1\n      calldatasize\n      sub\n      dup2\n      add\n      swap1\n      tag_60\n      swap2\n      swap1\n      tag_61\n      jump\t// in\n    tag_60:\n      tag_62\n      jump\t// in\n    tag_59:\n      mload(0x40)\n      tag_63\n      swap2\n      swap1\n      tag_37\n      jump\t// in\n    tag_63:\n      mload(0x40)\n      dup1\n      swap2\n      sub\n      swap1\n      return\n        /* \"@openzeppelin/contracts/access/Ownable.sol\":1668:1769  function renounceOwnership() public virtual onlyOwner {... */\n    tag_10:\n      callvalue\n      dup1\n      iszero\n      tag_64\n      jumpi\n      0x00\n      dup1\n      revert\n    tag_64:\n      pop\n      tag_65\n      tag_66\n      jump\t// in\n    tag_65:\n      stop\n        /* \"@openzeppelin/contracts/access/Ownable.sol\":1036:1121  function owner() public view virtual returns (address) {... */\n    tag_11:\n      callvalue\n      dup1\n      iszero\n      tag_67\n      jumpi\n      0x00\n      dup1\n      revert\n    tag_67:\n      pop\n      tag_68\n      tag_69\n      jump\t// in\n    tag_68:\n      mload(0x40)\n      tag_70\n      swap2\n      swap1\n      tag_71\n      jump\t// in\n    tag_70:\n      mload(0x40)\n      dup1\n      swap2\n      sub\n      swap1\n      return\n        /* \"@openzeppelin/contracts/token/ERC20/ERC20.sol\":2352:2454  function symbol() public view virtual override returns (string memory) {... */\n    tag_12:\n      callvalue\n      dup1\n      iszero\n      tag_72\n      jumpi\n      0x00\n      dup1\n      revert\n    tag_72:\n      pop\n      tag_73\n      tag_74\n      jump\t// in\n    tag_73:\n      mload(0x40)\n      tag_75\n      swap2\n      swap1\n      tag_25\n      jump\t// in\n    tag_75:\n      mload(0x40)\n      dup1\n      swap2\n      sub\n      swap1\n      return\n        /* \"@openzeppelin/contracts/token/ERC20/ERC20.sol\":6443:6848  function decreaseAllowance(address spender, uint256 subtractedValue) public virtual returns (bool) {... */\n    tag_13:\n      callvalue\n      dup1\n      iszero\n      tag_76\n      jumpi\n      0x00\n      dup1\n      revert\n    tag_76:\n      pop\n      tag_77\n      0x04\n      dup1\n      calldatasize\n      sub\n      dup2\n      add\n      swap1\n      tag_78\n      swap2\n      swap1\n      tag_29\n      jump\t// in\n    tag_78:\n      tag_79\n      jump\t// in\n    tag_77:\n      mload(0x40)\n      tag_80\n      swap2\n      swap1\n      tag_32\n      jump\t// in\n    tag_80:\n      mload(0x40)\n      dup1\n      swap2\n      sub\n      swap1\n      return\n        /* \"contracts/YNPresalePair.sol\":964:1561  function buy() external payable{\r... */\n    tag_14:\n      tag_81\n      tag_82\n      jump\t// in\n    tag_81:\n      stop\n        /* \"contracts/YNPresalePair.sol\":1569:2337  function transfer(address recipient, uint256 amount) public virtual override returns (bool) {        \r... */\n    tag_15:\n      callvalue\n      dup1\n      iszero\n      tag_83\n      jumpi\n      0x00\n      dup1\n      revert\n    tag_83:\n      pop\n      tag_84\n      0x04\n      dup1\n      calldatasize\n      sub\n      dup2\n      add\n      swap1\n      tag_85\n      swap2\n      swap1\n      tag_29\n      jump\t// in\n    tag_85:\n      tag_86\n      jump\t// in\n    tag_84:\n      mload(0x40)\n      tag_87\n      swap2\n      swap1\n      tag_32\n      jump\t// in\n    tag_87:\n      mload(0x40)\n      dup1\n      swap2\n      sub\n      swap1\n      return\n        /* \"@openzeppelin/contracts/token/ERC20/ERC20.sol\":3951:4100  function allowance(address owner, address spender) public view virtual override returns (uint256) {... */\n    tag_16:\n      callvalue\n      dup1\n      iszero\n      tag_88\n      jumpi\n      0x00\n      dup1\n      revert\n    tag_88:\n      pop\n      tag_89\n      0x04\n      dup1\n      calldatasize\n      sub\n      dup2\n      add\n      swap1\n      tag_90\n      swap2\n      swap1\n      tag_91\n      jump\t// in\n    tag_90:\n      tag_92\n      jump\t// in\n    tag_89:\n      mload(0x40)\n      tag_93\n      swap2\n      swap1\n      tag_37\n      jump\t// in\n    tag_93:\n      mload(0x40)\n      dup1\n      swap2\n      sub\n      swap1\n      return\n        /* \"@openzeppelin/contracts/access/Ownable.sol\":1918:2116  function transferOwnership(address newOwner) public virtual onlyOwner {... */\n    tag_17:\n      callvalue\n      dup1\n      iszero\n      tag_94\n      jumpi\n      0x00\n      dup1\n      revert\n    tag_94:\n      pop\n      tag_95\n      0x04\n      dup1\n      calldatasize\n      sub\n      dup2\n      add\n      swap1\n      tag_96\n      swap2\n      swap1\n      tag_61\n      jump\t// in\n    tag_96:\n      tag_97\n      jump\t// in\n    tag_95:\n      stop\n        /* \"@openzeppelin/contracts/token/ERC20/ERC20.sol\":2141:2239  function name() public view virtual override returns (string memory) {... */\n    tag_23:\n        /* \"@openzeppelin/contracts/token/ERC20/ERC20.sol\":2195:2208  string memory */\n      0x60\n        /* \"@openzeppelin/contracts/token/ERC20/ERC20.sol\":2227:2232  _name */\n      0x03\n        /* \"@openzeppelin/contracts/token/ERC20/ERC20.sol\":2220:2232  return _name */\n      dup1\n      sload\n      tag_99\n      swap1\n      tag_100\n      jump\t// in\n    tag_99:\n      dup1\n      0x1f\n      add\n      0x20\n      dup1\n      swap2\n      div\n      mul\n      0x20\n      add\n      mload(0x40)\n      swap1\n      dup2\n      add\n      0x40\n      mstore\n      dup1\n      swap3\n      swap2\n      swap1\n      dup2\n      dup2\n      mstore\n      0x20\n      add\n      dup3\n      dup1\n      sload\n      tag_101\n      swap1\n      tag_100\n      jump\t// in\n    tag_101:\n      dup1\n      iszero\n      tag_102\n      jumpi\n      dup1\n      0x1f\n      lt\n      tag_103\n      jumpi\n      0x0100\n      dup1\n      dup4\n      sload\n      div\n      mul\n      dup4\n      mstore\n      swap2\n      0x20\n      add\n      swap2\n      jump(tag_102)\n    tag_103:\n      dup3\n      add\n      swap2\n      swap1\n      0x00\n      mstore\n      keccak256(0x00, 0x20)\n      swap1\n    tag_104:\n      dup2\n      sload\n      dup2\n      mstore\n      swap1\n      0x01\n      add\n      swap1\n      0x20\n      add\n      dup1\n      dup4\n      gt\n      tag_104\n      jumpi\n      dup3\n      swap1\n      sub\n      0x1f\n      and\n      dup3\n      add\n      swap2\n    tag_102:\n      pop\n      pop\n      pop\n      pop\n      pop\n      swap1\n      pop\n        /* \"@openzeppelin/contracts/token/ERC20/ERC20.sol\":2141:2239  function name() public view virtual override returns (string memory) {... */\n      swap1\n      jump\t// out\n        /* \"@openzeppelin/contracts/token/ERC20/ERC20.sol\":4238:4404  function approve(address spender, uint256 amount) public virtual override returns (bool) {... */\n    tag_30:\n        /* \"@openzeppelin/contracts/token/ERC20/ERC20.sol\":4321:4325  bool */\n      0x00\n        /* \"@openzeppelin/contracts/token/ERC20/ERC20.sol\":4337:4376  _approve(_msgSender(), spender, amount) */\n      tag_106\n        /* \"@openzeppelin/contracts/token/ERC20/ERC20.sol\":4346:4358  _msgSender() */\n      tag_107\n        /* \"@openzeppelin/contracts/token/ERC20/ERC20.sol\":4346:4356  _msgSender */\n      tag_108\n        /* \"@openzeppelin/contracts/token/ERC20/ERC20.sol\":4346:4358  _msgSender() */\n      jump\t// in\n    tag_107:\n        /* \"@openzeppelin/contracts/token/ERC20/ERC20.sol\":4360:4367  spender */\n      dup5\n        /* \"@openzeppelin/contracts/token/ERC20/ERC20.sol\":4369:4375  amount */\n      dup5\n        /* \"@openzeppelin/contracts/token/ERC20/ERC20.sol\":4337:4345  _approve */\n      tag_109\n        /* \"@openzeppelin/contracts/token/ERC20/ERC20.sol\":4337:4376  _approve(_msgSender(), spender, amount) */\n      jump\t// in\n    tag_106:\n        /* \"@openzeppelin/contracts/token/ERC20/ERC20.sol\":4393:4397  true */\n      0x01\n        /* \"@openzeppelin/contracts/token/ERC20/ERC20.sol\":4386:4397  return true */\n      swap1\n      pop\n        /* \"@openzeppelin/contracts/token/ERC20/ERC20.sol\":4238:4404  function approve(address spender, uint256 amount) public virtual override returns (bool) {... */\n      swap3\n      swap2\n      pop\n      pop\n      jump\t// out\n        /* \"@openzeppelin/contracts/token/ERC20/ERC20.sol\":3229:3335  function totalSupply() public view virtual override returns (uint256) {... */\n    tag_35:\n        /* \"@openzeppelin/contracts/token/ERC20/ERC20.sol\":3290:3297  uint256 */\n      0x00\n        /* \"@openzeppelin/contracts/token/ERC20/ERC20.sol\":3316:3328  _totalSupply */\n      sload(0x02)\n        /* \"@openzeppelin/contracts/token/ERC20/ERC20.sol\":3309:3328  return _totalSupply */\n      swap1\n      pop\n        /* \"@openzeppelin/contracts/token/ERC20/ERC20.sol\":3229:3335  function totalSupply() public view virtual override returns (uint256) {... */\n      swap1\n      jump\t// out\n        /* \"@openzeppelin/contracts/token/ERC20/ERC20.sol\":4871:5349  function transferFrom(... */\n    tag_42:\n        /* \"@openzeppelin/contracts/token/ERC20/ERC20.sol\":5007:5011  bool */\n      0x00\n        /* \"@openzeppelin/contracts/token/ERC20/ERC20.sol\":5023:5059  _transfer(sender, recipient, amount) */\n      tag_112\n        /* \"@openzeppelin/contracts/token/ERC20/ERC20.sol\":5033:5039  sender */\n      dup5\n        /* \"@openzeppelin/contracts/token/ERC20/ERC20.sol\":5041:5050  recipient */\n      dup5\n        /* \"@openzeppelin/contracts/token/ERC20/ERC20.sol\":5052:5058  amount */\n      dup5\n        /* \"@openzeppelin/contracts/token/ERC20/ERC20.sol\":5023:5032  _transfer */\n      tag_113\n        /* \"@openzeppelin/contracts/token/ERC20/ERC20.sol\":5023:5059  _transfer(sender, recipient, amount) */\n      jump\t// in\n    tag_112:\n        /* \"@openzeppelin/contracts/token/ERC20/ERC20.sol\":5070:5094  uint256 currentAllowance */\n      0x00\n        /* \"@openzeppelin/contracts/token/ERC20/ERC20.sol\":5097:5108  _allowances */\n      0x01\n        /* \"@openzeppelin/contracts/token/ERC20/ERC20.sol\":5097:5116  _allowances[sender] */\n      0x00\n        /* \"@openzeppelin/contracts/token/ERC20/ERC20.sol\":5109:5115  sender */\n      dup7\n        /* \"@openzeppelin/contracts/token/ERC20/ERC20.sol\":5097:5116  _allowances[sender] */\n      0xffffffffffffffffffffffffffffffffffffffff\n      and\n      0xffffffffffffffffffffffffffffffffffffffff\n      and\n      dup2\n      mstore\n      0x20\n      add\n      swap1\n      dup2\n      mstore\n      0x20\n      add\n      0x00\n      keccak256\n        /* \"@openzeppelin/contracts/token/ERC20/ERC20.sol\":5097:5130  _allowances[sender][_msgSender()] */\n      0x00\n        /* \"@openzeppelin/contracts/token/ERC20/ERC20.sol\":5117:5129  _msgSender() */\n      tag_114\n        /* \"@openzeppelin/contracts/token/ERC20/ERC20.sol\":5117:5127  _msgSender */\n      tag_108\n        /* \"@openzeppelin/contracts/token/ERC20/ERC20.sol\":5117:5129  _msgSender() */\n      jump\t// in\n    tag_114:\n        /* \"@openzeppelin/contracts/token/ERC20/ERC20.sol\":5097:5130  _allowances[sender][_msgSender()] */\n      0xffffffffffffffffffffffffffffffffffffffff\n      and\n      0xffffffffffffffffffffffffffffffffffffffff\n      and\n      dup2\n      mstore\n      0x20\n      add\n      swap1\n      dup2\n      mstore\n      0x20\n      add\n      0x00\n      keccak256\n      sload\n        /* \"@openzeppelin/contracts/token/ERC20/ERC20.sol\":5070:5130  uint256 currentAllowance = _allowances[sender][_msgSender()] */\n      swap1\n      pop\n        /* \"@openzeppelin/contracts/token/ERC20/ERC20.sol\":5168:5174  amount */\n      dup3\n        /* \"@openzeppelin/contracts/token/ERC20/ERC20.sol\":5148:5164  currentAllowance */\n      dup2\n        /* \"@openzeppelin/contracts/token/ERC20/ERC20.sol\":5148:5174  currentAllowance >= amount */\n      lt\n      iszero\n        /* \"@openzeppelin/contracts/token/ERC20/ERC20.sol\":5140:5219  require(currentAllowance >= amount, \"ERC20: transfer amount exceeds allowance\") */\n      tag_115\n      jumpi\n      mload(0x40)\n      0x08c379a000000000000000000000000000000000000000000000000000000000\n      dup2\n      mstore\n      0x04\n      add\n      tag_116\n      swap1\n      tag_117\n      jump\t// in\n    tag_116:\n      mload(0x40)\n      dup1\n      swap2\n      sub\n      swap1\n      revert\n    tag_115:\n        /* \"@openzeppelin/contracts/token/ERC20/ERC20.sol\":5253:5310  _approve(sender, _msgSender(), currentAllowance - amount) */\n      tag_118\n        /* \"@openzeppelin/contracts/token/ERC20/ERC20.sol\":5262:5268  sender */\n      dup6\n        /* \"@openzeppelin/contracts/token/ERC20/ERC20.sol\":5270:5282  _msgSender() */\n      tag_119\n        /* \"@openzeppelin/contracts/token/ERC20/ERC20.sol\":5270:5280  _msgSender */\n      tag_108\n        /* \"@openzeppelin/contracts/token/ERC20/ERC20.sol\":5270:5282  _msgSender() */\n      jump\t// in\n    tag_119:\n        /* \"@openzeppelin/contracts/token/ERC20/ERC20.sol\":5303:5309  amount */\n      dup6\n        /* \"@openzeppelin/contracts/token/ERC20/ERC20.sol\":5284:5300  currentAllowance */\n      dup5\n        /* \"@openzeppelin/contracts/token/ERC20/ERC20.sol\":5284:5309  currentAllowance - amount */\n      sub\n        /* \"@openzeppelin/contracts/token/ERC20/ERC20.sol\":5253:5261  _approve */\n      tag_109\n        /* \"@openzeppelin/contracts/token/ERC20/ERC20.sol\":5253:5310  _approve(sender, _msgSender(), currentAllowance - amount) */\n      jump\t// in\n    tag_118:\n        /* \"@openzeppelin/contracts/token/ERC20/ERC20.sol\":5338:5342  true */\n      0x01\n        /* \"@openzeppelin/contracts/token/ERC20/ERC20.sol\":5331:5342  return true */\n      swap2\n      pop\n      pop\n        /* \"@openzeppelin/contracts/token/ERC20/ERC20.sol\":4871:5349  function transferFrom(... */\n      swap4\n      swap3\n      pop\n      pop\n      pop\n      jump\t// out\n        /* \"@openzeppelin/contracts/token/ERC20/ERC20.sol\":3078:3169  function decimals() public view virtual override returns (uint8) {... */\n    tag_46:\n        /* \"@openzeppelin/contracts/token/ERC20/ERC20.sol\":3136:3141  uint8 */\n      0x00\n        /* \"@openzeppelin/contracts/token/ERC20/ERC20.sol\":3160:3162  18 */\n      0x12\n        /* \"@openzeppelin/contracts/token/ERC20/ERC20.sol\":3153:3162  return 18 */\n      swap1\n      pop\n        /* \"@openzeppelin/contracts/token/ERC20/ERC20.sol\":3078:3169  function decimals() public view virtual override returns (uint8) {... */\n      swap1\n      jump\t// out\n        /* \"@openzeppelin/contracts/token/ERC20/ERC20.sol\":5744:5956  function increaseAllowance(address spender, uint256 addedValue) public virtual returns (bool) {... */\n    tag_52:\n        /* \"@openzeppelin/contracts/token/ERC20/ERC20.sol\":5832:5836  bool */\n      0x00\n        /* \"@openzeppelin/contracts/token/ERC20/ERC20.sol\":5848:5928  _approve(_msgSender(), spender, _allowances[_msgSender()][spender] + addedValue) */\n      tag_122\n        /* \"@openzeppelin/contracts/token/ERC20/ERC20.sol\":5857:5869  _msgSender() */\n      tag_123\n        /* \"@openzeppelin/contracts/token/ERC20/ERC20.sol\":5857:5867  _msgSender */\n      tag_108\n        /* \"@openzeppelin/contracts/token/ERC20/ERC20.sol\":5857:5869  _msgSender() */\n      jump\t// in\n    tag_123:\n        /* \"@openzeppelin/contracts/token/ERC20/ERC20.sol\":5871:5878  spender */\n      dup5\n        /* \"@openzeppelin/contracts/token/ERC20/ERC20.sol\":5917:5927  addedValue */\n      dup5\n        /* \"@openzeppelin/contracts/token/ERC20/ERC20.sol\":5880:5891  _allowances */\n      0x01\n        /* \"@openzeppelin/contracts/token/ERC20/ERC20.sol\":5880:5905  _allowances[_msgSender()] */\n      0x00\n        /* \"@openzeppelin/contracts/token/ERC20/ERC20.sol\":5892:5904  _msgSender() */\n      tag_124\n        /* \"@openzeppelin/contracts/token/ERC20/ERC20.sol\":5892:5902  _msgSender */\n      tag_108\n        /* \"@openzeppelin/contracts/token/ERC20/ERC20.sol\":5892:5904  _msgSender() */\n      jump\t// in\n    tag_124:\n        /* \"@openzeppelin/contracts/token/ERC20/ERC20.sol\":5880:5905  _allowances[_msgSender()] */\n      0xffffffffffffffffffffffffffffffffffffffff\n      and\n      0xffffffffffffffffffffffffffffffffffffffff\n      and\n      dup2\n      mstore\n      0x20\n      add\n      swap1\n      dup2\n      mstore\n      0x20\n      add\n      0x00\n      keccak256\n        /* \"@openzeppelin/contracts/token/ERC20/ERC20.sol\":5880:5914  _allowances[_msgSender()][spender] */\n      0x00\n        /* \"@openzeppelin/contracts/token/ERC20/ERC20.sol\":5906:5913  spender */\n      dup9\n        /* \"@openzeppelin/contracts/token/ERC20/ERC20.sol\":5880:5914  _allowances[_msgSender()][spender] */\n      0xffffffffffffffffffffffffffffffffffffffff\n      and\n      0xffffffffffffffffffffffffffffffffffffffff\n      and\n      dup2\n      mstore\n      0x20\n      add\n      swap1\n      dup2\n      mstore\n      0x20\n      add\n      0x00\n      keccak256\n      sload\n        /* \"@openzeppelin/contracts/token/ERC20/ERC20.sol\":5880:5927  _allowances[_msgSender()][spender] + addedValue */\n      tag_125\n      swap2\n      swap1\n      tag_126\n      jump\t// in\n    tag_125:\n        /* \"@openzeppelin/contracts/token/ERC20/ERC20.sol\":5848:5856  _approve */\n      tag_109\n        /* \"@openzeppelin/contracts/token/ERC20/ERC20.sol\":5848:5928  _approve(_msgSender(), spender, _allowances[_msgSender()][spender] + addedValue) */\n      jump\t// in\n    tag_122:\n        /* \"@openzeppelin/contracts/token/ERC20/ERC20.sol\":5945:5949  true */\n      0x01\n        /* \"@openzeppelin/contracts/token/ERC20/ERC20.sol\":5938:5949  return true */\n      swap1\n      pop\n        /* \"@openzeppelin/contracts/token/ERC20/ERC20.sol\":5744:5956  function increaseAllowance(address spender, uint256 addedValue) public virtual returns (bool) {... */\n      swap3\n      swap2\n      pop\n      pop\n      jump\t// out\n        /* \"contracts/YNPresalePair.sol\":732:956  function transferTokenToUser(address user,uint256 money) public onlyOwner {\r... */\n    tag_57:\n        /* \"@openzeppelin/contracts/access/Ownable.sol\":1259:1271  _msgSender() */\n      tag_128\n        /* \"@openzeppelin/contracts/access/Ownable.sol\":1259:1269  _msgSender */\n      tag_108\n        /* \"@openzeppelin/contracts/access/Ownable.sol\":1259:1271  _msgSender() */\n      jump\t// in\n    tag_128:\n        /* \"@openzeppelin/contracts/access/Ownable.sol\":1248:1271  owner() == _msgSender() */\n      0xffffffffffffffffffffffffffffffffffffffff\n      and\n        /* \"@openzeppelin/contracts/access/Ownable.sol\":1248:1255  owner() */\n      tag_129\n        /* \"@openzeppelin/contracts/access/Ownable.sol\":1248:1253  owner */\n      tag_69\n        /* \"@openzeppelin/contracts/access/Ownable.sol\":1248:1255  owner() */\n      jump\t// in\n    tag_129:\n        /* \"@openzeppelin/contracts/access/Ownable.sol\":1248:1271  owner() == _msgSender() */\n      0xffffffffffffffffffffffffffffffffffffffff\n      and\n      eq\n        /* \"@openzeppelin/contracts/access/Ownable.sol\":1240:1308  require(owner() == _msgSender(), \"Ownable: caller is not the owner\") */\n      tag_130\n      jumpi\n      mload(0x40)\n      0x08c379a000000000000000000000000000000000000000000000000000000000\n      dup2\n      mstore\n      0x04\n      add\n      tag_131\n      swap1\n      tag_132\n      jump\t// in\n    tag_131:\n      mload(0x40)\n      dup1\n      swap2\n      sub\n      swap1\n      revert\n    tag_130:\n        /* \"contracts/YNPresalePair.sol\":817:830  YERC20 yerc20 */\n      0x00\n        /* \"contracts/YNPresalePair.sol\":846:850  this */\n      address\n        /* \"contracts/YNPresalePair.sol\":817:852  YERC20 yerc20=YERC20(address(this)) */\n      swap1\n      pop\n        /* \"contracts/YNPresalePair.sol\":878:884  yerc20 */\n      dup1\n        /* \"contracts/YNPresalePair.sol\":878:894  yerc20.balanceOf */\n      0xffffffffffffffffffffffffffffffffffffffff\n      and\n      0x70a08231\n        /* \"contracts/YNPresalePair.sol\":903:907  this */\n      address\n        /* \"contracts/YNPresalePair.sol\":878:909  yerc20.balanceOf(address(this)) */\n      mload(0x40)\n      dup3\n      0xffffffff\n      and\n      0xe0\n      shl\n      dup2\n      mstore\n      0x04\n      add\n      tag_134\n      swap2\n      swap1\n      tag_71\n      jump\t// in\n    tag_134:\n      0x20\n      mload(0x40)\n      dup1\n      dup4\n      sub\n      dup2\n      dup7\n      dup1\n      extcodesize\n      iszero\n      dup1\n      iszero\n      tag_135\n      jumpi\n      0x00\n      dup1\n      revert\n    tag_135:\n      pop\n      gas\n      staticcall\n      iszero\n      dup1\n      iszero\n      tag_137\n      jumpi\n      returndatasize\n      0x00\n      dup1\n      returndatacopy\n      revert(0x00, returndatasize)\n    tag_137:\n      pop\n      pop\n      pop\n      pop\n      mload(0x40)\n      returndatasize\n      not(0x1f)\n      0x1f\n      dup3\n      add\n      and\n      dup3\n      add\n      dup1\n      0x40\n      mstore\n      pop\n      dup2\n      add\n      swap1\n      tag_138\n      swap2\n      swap1\n      tag_139\n      jump\t// in\n    tag_138:\n        /* \"contracts/YNPresalePair.sol\":871:876  money */\n      dup3\n        /* \"contracts/YNPresalePair.sol\":871:909  money<=yerc20.balanceOf(address(this)) */\n      gt\n      iszero\n        /* \"contracts/YNPresalePair.sol\":863:910  require(money<=yerc20.balanceOf(address(this))) */\n      tag_140\n      jumpi\n      0x00\n      dup1\n      revert\n    tag_140:\n        /* \"contracts/YNPresalePair.sol\":921:927  yerc20 */\n      dup1\n        /* \"contracts/YNPresalePair.sol\":921:936  yerc20.transfer */\n      0xffffffffffffffffffffffffffffffffffffffff\n      and\n      0xa9059cbb\n        /* \"contracts/YNPresalePair.sol\":937:941  user */\n      dup5\n        /* \"contracts/YNPresalePair.sol\":942:947  money */\n      dup5\n        /* \"contracts/YNPresalePair.sol\":921:948  yerc20.transfer(user,money) */\n      mload(0x40)\n      dup4\n      0xffffffff\n      and\n      0xe0\n      shl\n      dup2\n      mstore\n      0x04\n      add\n      tag_141\n      swap3\n      swap2\n      swap1\n      tag_142\n      jump\t// in\n    tag_141:\n      0x20\n      mload(0x40)\n      dup1\n      dup4\n      sub\n      dup2\n      0x00\n      dup8\n      dup1\n      extcodesize\n      iszero\n      dup1\n      iszero\n      tag_143\n      jumpi\n      0x00\n      dup1\n      revert\n    tag_143:\n      pop\n      gas\n      call\n      iszero\n      dup1\n      iszero\n      tag_145\n      jumpi\n      returndatasize\n      0x00\n      dup1\n      returndatacopy\n      revert(0x00, returndatasize)\n    tag_145:\n      pop\n      pop\n      pop\n      pop\n      mload(0x40)\n      returndatasize\n      not(0x1f)\n      0x1f\n      dup3\n      add\n      and\n      dup3\n      add\n      dup1\n      0x40\n      mstore\n      pop\n      dup2\n      add\n      swap1\n      tag_146\n      swap2\n      swap1\n      tag_147\n      jump\t// in\n    tag_146:\n      pop\n        /* \"contracts/YNPresalePair.sol\":806:956  {\r... */\n      pop\n        /* \"contracts/YNPresalePair.sol\":732:956  function transferTokenToUser(address user,uint256 money) public onlyOwner {\r... */\n      pop\n      pop\n      jump\t// out\n        /* \"@openzeppelin/contracts/token/ERC20/ERC20.sol\":3393:3518  function balanceOf(address account) public view virtual override returns (uint256) {... */\n    tag_62:\n        /* \"@openzeppelin/contracts/token/ERC20/ERC20.sol\":3467:3474  uint256 */\n      0x00\n        /* \"@openzeppelin/contracts/token/ERC20/ERC20.sol\":3493:3502  _balances */\n      dup1\n        /* \"@openzeppelin/contracts/token/ERC20/ERC20.sol\":3493:3511  _balances[account] */\n      0x00\n        /* \"@openzeppelin/contracts/token/ERC20/ERC20.sol\":3503:3510  account */\n      dup4\n        /* \"@openzeppelin/contracts/token/ERC20/ERC20.sol\":3493:3511  _balances[account] */\n      0xffffffffffffffffffffffffffffffffffffffff\n      and\n      0xffffffffffffffffffffffffffffffffffffffff\n      and\n      dup2\n      mstore\n      0x20\n      add\n      swap1\n      dup2\n      mstore\n      0x20\n      add\n      0x00\n      keccak256\n      sload\n        /* \"@openzeppelin/contracts/token/ERC20/ERC20.sol\":3486:3511  return _balances[account] */\n      swap1\n      pop\n        /* \"@openzeppelin/contracts/token/ERC20/ERC20.sol\":3393:3518  function balanceOf(address account) public view virtual override returns (uint256) {... */\n      swap2\n      swap1\n      pop\n      jump\t// out\n        /* \"@openzeppelin/contracts/access/Ownable.sol\":1668:1769  function renounceOwnership() public virtual onlyOwner {... */\n    tag_66:\n        /* \"@openzeppelin/contracts/access/Ownable.sol\":1259:1271  _msgSender() */\n      tag_150\n        /* \"@openzeppelin/contracts/access/Ownable.sol\":1259:1269  _msgSender */\n      tag_108\n        /* \"@openzeppelin/contracts/access/Ownable.sol\":1259:1271  _msgSender() */\n      jump\t// in\n    tag_150:\n        /* \"@openzeppelin/contracts/access/Ownable.sol\":1248:1271  owner() == _msgSender() */\n      0xffffffffffffffffffffffffffffffffffffffff\n      and\n        /* \"@openzeppelin/contracts/access/Ownable.sol\":1248:1255  owner() */\n      tag_151\n        /* \"@openzeppelin/contracts/access/Ownable.sol\":1248:1253  owner */\n      tag_69\n        /* \"@openzeppelin/contracts/access/Ownable.sol\":1248:1255  owner() */\n      jump\t// in\n    tag_151:\n        /* \"@openzeppelin/contracts/access/Ownable.sol\":1248:1271  owner() == _msgSender() */\n      0xffffffffffffffffffffffffffffffffffffffff\n      and\n      eq\n        /* \"@openzeppelin/contracts/access/Ownable.sol\":1240:1308  require(owner() == _msgSender(), \"Ownable: caller is not the owner\") */\n      tag_152\n      jumpi\n      mload(0x40)\n      0x08c379a000000000000000000000000000000000000000000000000000000000\n      dup2\n      mstore\n      0x04\n      add\n      tag_153\n      swap1\n      tag_132\n      jump\t// in\n    tag_153:\n      mload(0x40)\n      dup1\n      swap2\n      sub\n      swap1\n      revert\n    tag_152:\n        /* \"@openzeppelin/contracts/access/Ownable.sol\":1732:1762  _transferOwnership(address(0)) */\n      tag_155\n        /* \"@openzeppelin/contracts/access/Ownable.sol\":1759:1760  0 */\n      0x00\n        /* \"@openzeppelin/contracts/access/Ownable.sol\":1732:1750  _transferOwnership */\n      tag_156\n        /* \"@openzeppelin/contracts/access/Ownable.sol\":1732:1762  _transferOwnership(address(0)) */\n      jump\t// in\n    tag_155:\n        /* \"@openzeppelin/contracts/access/Ownable.sol\":1668:1769  function renounceOwnership() public virtual onlyOwner {... */\n      jump\t// out\n        /* \"@openzeppelin/contracts/access/Ownable.sol\":1036:1121  function owner() public view virtual returns (address) {... */\n    tag_69:\n        /* \"@openzeppelin/contracts/access/Ownable.sol\":1082:1089  address */\n      0x00\n        /* \"@openzeppelin/contracts/access/Ownable.sol\":1108:1114  _owner */\n      0x05\n      0x00\n      swap1\n      sload\n      swap1\n      0x0100\n      exp\n      swap1\n      div\n      0xffffffffffffffffffffffffffffffffffffffff\n      and\n        /* \"@openzeppelin/contracts/access/Ownable.sol\":1101:1114  return _owner */\n      swap1\n      pop\n        /* \"@openzeppelin/contracts/access/Ownable.sol\":1036:1121  function owner() public view virtual returns (address) {... */\n      swap1\n      jump\t// out\n        /* \"@openzeppelin/contracts/token/ERC20/ERC20.sol\":2352:2454  function symbol() public view virtual override returns (string memory) {... */\n    tag_74:\n        /* \"@openzeppelin/contracts/token/ERC20/ERC20.sol\":2408:2421  string memory */\n      0x60\n        /* \"@openzeppelin/contracts/token/ERC20/ERC20.sol\":2440:2447  _symbol */\n      0x04\n        /* \"@openzeppelin/contracts/token/ERC20/ERC20.sol\":2433:2447  return _symbol */\n      dup1\n      sload\n      tag_159\n      swap1\n      tag_100\n      jump\t// in\n    tag_159:\n      dup1\n      0x1f\n      add\n      0x20\n      dup1\n      swap2\n      div\n      mul\n      0x20\n      add\n      mload(0x40)\n      swap1\n      dup2\n      add\n      0x40\n      mstore\n      dup1\n      swap3\n      swap2\n      swap1\n      dup2\n      dup2\n      mstore\n      0x20\n      add\n      dup3\n      dup1\n      sload\n      tag_160\n      swap1\n      tag_100\n      jump\t// in\n    tag_160:\n      dup1\n      iszero\n      tag_161\n      jumpi\n      dup1\n      0x1f\n      lt\n      tag_162\n      jumpi\n      0x0100\n      dup1\n      dup4\n      sload\n      div\n      mul\n      dup4\n      mstore\n      swap2\n      0x20\n      add\n      swap2\n      jump(tag_161)\n    tag_162:\n      dup3\n      add\n      swap2\n      swap1\n      0x00\n      mstore\n      keccak256(0x00, 0x20)\n      swap1\n    tag_163:\n      dup2\n      sload\n      dup2\n      mstore\n      swap1\n      0x01\n      add\n      swap1\n      0x20\n      add\n      dup1\n      dup4\n      gt\n      tag_163\n      jumpi\n      dup3\n      swap1\n      sub\n      0x1f\n      and\n      dup3\n      add\n      swap2\n    tag_161:\n      pop\n      pop\n      pop\n      pop\n      pop\n      swap1\n      pop\n        /* \"@openzeppelin/contracts/token/ERC20/ERC20.sol\":2352:2454  function symbol() public view virtual override returns (string memory) {... */\n      swap1\n      jump\t// out\n        /* \"@openzeppelin/contracts/token/ERC20/ERC20.sol\":6443:6848  function decreaseAllowance(address spender, uint256 subtractedValue) public virtual returns (bool) {... */\n    tag_79:\n        /* \"@openzeppelin/contracts/token/ERC20/ERC20.sol\":6536:6540  bool */\n      0x00\n        /* \"@openzeppelin/contracts/token/ERC20/ERC20.sol\":6552:6576  uint256 currentAllowance */\n      dup1\n        /* \"@openzeppelin/contracts/token/ERC20/ERC20.sol\":6579:6590  _allowances */\n      0x01\n        /* \"@openzeppelin/contracts/token/ERC20/ERC20.sol\":6579:6604  _allowances[_msgSender()] */\n      0x00\n        /* \"@openzeppelin/contracts/token/ERC20/ERC20.sol\":6591:6603  _msgSender() */\n      tag_165\n        /* \"@openzeppelin/contracts/token/ERC20/ERC20.sol\":6591:6601  _msgSender */\n      tag_108\n        /* \"@openzeppelin/contracts/token/ERC20/ERC20.sol\":6591:6603  _msgSender() */\n      jump\t// in\n    tag_165:\n        /* \"@openzeppelin/contracts/token/ERC20/ERC20.sol\":6579:6604  _allowances[_msgSender()] */\n      0xffffffffffffffffffffffffffffffffffffffff\n      and\n      0xffffffffffffffffffffffffffffffffffffffff\n      and\n      dup2\n      mstore\n      0x20\n      add\n      swap1\n      dup2\n      mstore\n      0x20\n      add\n      0x00\n      keccak256\n        /* \"@openzeppelin/contracts/token/ERC20/ERC20.sol\":6579:6613  _allowances[_msgSender()][spender] */\n      0x00\n        /* \"@openzeppelin/contracts/token/ERC20/ERC20.sol\":6605:6612  spender */\n      dup6\n        /* \"@openzeppelin/contracts/token/ERC20/ERC20.sol\":6579:6613  _allowances[_msgSender()][spender] */\n      0xffffffffffffffffffffffffffffffffffffffff\n      and\n      0xffffffffffffffffffffffffffffffffffffffff\n      and\n      dup2\n      mstore\n      0x20\n      add\n      swap1\n      dup2\n      mstore\n      0x20\n      add\n      0x00\n      keccak256\n      sload\n        /* \"@openzeppelin/contracts/token/ERC20/ERC20.sol\":6552:6613  uint256 currentAllowance = _allowances[_msgSender()][spender] */\n      swap1\n      pop\n        /* \"@openzeppelin/contracts/token/ERC20/ERC20.sol\":6651:6666  subtractedValue */\n      dup3\n        /* \"@openzeppelin/contracts/token/ERC20/ERC20.sol\":6631:6647  currentAllowance */\n      dup2\n        /* \"@openzeppelin/contracts/token/ERC20/ERC20.sol\":6631:6666  currentAllowance >= subtractedValue */\n      lt\n      iszero\n        /* \"@openzeppelin/contracts/token/ERC20/ERC20.sol\":6623:6708  require(currentAllowance >= subtractedValue, \"ERC20: decreased allowance below zero\") */\n      tag_166\n      jumpi\n      mload(0x40)\n      0x08c379a000000000000000000000000000000000000000000000000000000000\n      dup2\n      mstore\n      0x04\n      add\n      tag_167\n      swap1\n      tag_168\n      jump\t// in\n    tag_167:\n      mload(0x40)\n      dup1\n      swap2\n      sub\n      swap1\n      revert\n    tag_166:\n        /* \"@openzeppelin/contracts/token/ERC20/ERC20.sol\":6742:6809  _approve(_msgSender(), spender, currentAllowance - subtractedValue) */\n      tag_169\n        /* \"@openzeppelin/contracts/token/ERC20/ERC20.sol\":6751:6763  _msgSender() */\n      tag_170\n        /* \"@openzeppelin/contracts/token/ERC20/ERC20.sol\":6751:6761  _msgSender */\n      tag_108\n        /* \"@openzeppelin/contracts/token/ERC20/ERC20.sol\":6751:6763  _msgSender() */\n      jump\t// in\n    tag_170:\n        /* \"@openzeppelin/contracts/token/ERC20/ERC20.sol\":6765:6772  spender */\n      dup6\n        /* \"@openzeppelin/contracts/token/ERC20/ERC20.sol\":6793:6808  subtractedValue */\n      dup6\n        /* \"@openzeppelin/contracts/token/ERC20/ERC20.sol\":6774:6790  currentAllowance */\n      dup5\n        /* \"@openzeppelin/contracts/token/ERC20/ERC20.sol\":6774:6808  currentAllowance - subtractedValue */\n      sub\n        /* \"@openzeppelin/contracts/token/ERC20/ERC20.sol\":6742:6750  _approve */\n      tag_109\n        /* \"@openzeppelin/contracts/token/ERC20/ERC20.sol\":6742:6809  _approve(_msgSender(), spender, currentAllowance - subtractedValue) */\n      jump\t// in\n    tag_169:\n        /* \"@openzeppelin/contracts/token/ERC20/ERC20.sol\":6837:6841  true */\n      0x01\n        /* \"@openzeppelin/contracts/token/ERC20/ERC20.sol\":6830:6841  return true */\n      swap2\n      pop\n      pop\n        /* \"@openzeppelin/contracts/token/ERC20/ERC20.sol\":6443:6848  function decreaseAllowance(address spender, uint256 subtractedValue) public virtual returns (bool) {... */\n      swap3\n      swap2\n      pop\n      pop\n      jump\t// out\n        /* \"contracts/YNPresalePair.sol\":964:1561  function buy() external payable{\r... */\n    tag_82:\n        /* \"contracts/YNPresalePair.sol\":1024:1037  YERC20 yerc20 */\n      0x00\n        /* \"contracts/YNPresalePair.sol\":1053:1057  this */\n      address\n        /* \"contracts/YNPresalePair.sol\":1024:1059  YERC20 yerc20=YERC20(address(this)) */\n      swap1\n      pop\n        /* \"contracts/YNPresalePair.sol\":1087:1098  uint256 val */\n      0x00\n        /* \"contracts/YNPresalePair.sol\":1099:1108  msg.value */\n      callvalue\n        /* \"contracts/YNPresalePair.sol\":1087:1108  uint256 val=msg.value */\n      swap1\n      pop\n        /* \"contracts/YNPresalePair.sol\":1128:1144  uint256 tokenGet */\n      0x00\n        /* \"contracts/YNPresalePair.sol\":1145:1187  val.mul(1 * 10 ** decimals()).div(_buyFee) */\n      tag_172\n        /* \"contracts/YNPresalePair.sol\":1179:1186  _buyFee */\n      sload(0x06)\n        /* \"contracts/YNPresalePair.sol\":1145:1174  val.mul(1 * 10 ** decimals()) */\n      tag_173\n        /* \"contracts/YNPresalePair.sol\":1163:1173  decimals() */\n      tag_174\n        /* \"contracts/YNPresalePair.sol\":1163:1171  decimals */\n      tag_46\n        /* \"contracts/YNPresalePair.sol\":1163:1173  decimals() */\n      jump\t// in\n    tag_174:\n        /* \"contracts/YNPresalePair.sol\":1157:1159  10 */\n      0x0a\n        /* \"contracts/YNPresalePair.sol\":1157:1173  10 ** decimals() */\n      tag_175\n      swap2\n      swap1\n      tag_176\n      jump\t// in\n    tag_175:\n        /* \"contracts/YNPresalePair.sol\":1153:1154  1 */\n      0x01\n        /* \"contracts/YNPresalePair.sol\":1153:1173  1 * 10 ** decimals() */\n      tag_177\n      swap2\n      swap1\n      tag_178\n      jump\t// in\n    tag_177:\n        /* \"contracts/YNPresalePair.sol\":1145:1148  val */\n      dup6\n        /* \"contracts/YNPresalePair.sol\":1145:1152  val.mul */\n      tag_179\n      swap1\n        /* \"contracts/YNPresalePair.sol\":1145:1174  val.mul(1 * 10 ** decimals()) */\n      swap2\n      swap1\n      0xffffffff\n      and\n      jump\t// in\n    tag_173:\n        /* \"contracts/YNPresalePair.sol\":1145:1178  val.mul(1 * 10 ** decimals()).div */\n      tag_180\n      swap1\n        /* \"contracts/YNPresalePair.sol\":1145:1187  val.mul(1 * 10 ** decimals()).div(_buyFee) */\n      swap2\n      swap1\n      0xffffffff\n      and\n      jump\t// in\n    tag_172:\n        /* \"contracts/YNPresalePair.sol\":1128:1187  uint256 tokenGet=val.mul(1 * 10 ** decimals()).div(_buyFee) */\n      swap1\n      pop\n        /* \"contracts/YNPresalePair.sol\":1213:1219  maxBuy */\n      sload(0x09)\n        /* \"contracts/YNPresalePair.sol\":1201:1209  tokenGet */\n      dup2\n        /* \"contracts/YNPresalePair.sol\":1201:1219  tokenGet <= maxBuy */\n      gt\n        /* \"contracts/YNPresalePair.sol\":1198:1554  if(tokenGet <= maxBuy){\r... */\n      tag_181\n      jumpi\n        /* \"contracts/YNPresalePair.sol\":1248:1254  yerc20 */\n      dup3\n        /* \"contracts/YNPresalePair.sol\":1248:1264  yerc20.balanceOf */\n      0xffffffffffffffffffffffffffffffffffffffff\n      and\n      0x70a08231\n        /* \"contracts/YNPresalePair.sol\":1273:1277  this */\n      address\n        /* \"contracts/YNPresalePair.sol\":1248:1279  yerc20.balanceOf(address(this)) */\n      mload(0x40)\n      dup3\n      0xffffffff\n      and\n      0xe0\n      shl\n      dup2\n      mstore\n      0x04\n      add\n      tag_182\n      swap2\n      swap1\n      tag_71\n      jump\t// in\n    tag_182:\n      0x20\n      mload(0x40)\n      dup1\n      dup4\n      sub\n      dup2\n      dup7\n      dup1\n      extcodesize\n      iszero\n      dup1\n      iszero\n      tag_183\n      jumpi\n      0x00\n      dup1\n      revert\n    tag_183:\n      pop\n      gas\n      staticcall\n      iszero\n      dup1\n      iszero\n      tag_185\n      jumpi\n      returndatasize\n      0x00\n      dup1\n      returndatacopy\n      revert(0x00, returndatasize)\n    tag_185:\n      pop\n      pop\n      pop\n      pop\n      mload(0x40)\n      returndatasize\n      not(0x1f)\n      0x1f\n      dup3\n      add\n      and\n      dup3\n      add\n      dup1\n      0x40\n      mstore\n      pop\n      dup2\n      add\n      swap1\n      tag_186\n      swap2\n      swap1\n      tag_139\n      jump\t// in\n    tag_186:\n        /* \"contracts/YNPresalePair.sol\":1238:1246  tokenGet */\n      dup2\n        /* \"contracts/YNPresalePair.sol\":1238:1279  tokenGet<=yerc20.balanceOf(address(this)) */\n      gt\n        /* \"contracts/YNPresalePair.sol\":1235:1441  if(tokenGet<=yerc20.balanceOf(address(this))){\r... */\n      tag_187\n      jumpi\n        /* \"contracts/YNPresalePair.sol\":1299:1339  transferTokenToUser(msg.sender,tokenGet) */\n      tag_188\n        /* \"contracts/YNPresalePair.sol\":1319:1329  msg.sender */\n      caller\n        /* \"contracts/YNPresalePair.sol\":1330:1338  tokenGet */\n      dup3\n        /* \"contracts/YNPresalePair.sol\":1299:1318  transferTokenToUser */\n      tag_57\n        /* \"contracts/YNPresalePair.sol\":1299:1339  transferTokenToUser(msg.sender,tokenGet) */\n      jump\t// in\n    tag_188:\n        /* \"contracts/YNPresalePair.sol\":1235:1441  if(tokenGet<=yerc20.balanceOf(address(this))){\r... */\n      jump(tag_189)\n    tag_187:\n        /* \"contracts/YNPresalePair.sol\":1400:1410  msg.sender */\n      caller\n        /* \"contracts/YNPresalePair.sol\":1392:1420  payable(msg.sender).transfer */\n      0xffffffffffffffffffffffffffffffffffffffff\n      and\n        /* \"contracts/YNPresalePair.sol\":1392:1425  payable(msg.sender).transfer(val) */\n      0x08fc\n        /* \"contracts/YNPresalePair.sol\":1421:1424  val */\n      dup4\n        /* \"contracts/YNPresalePair.sol\":1392:1425  payable(msg.sender).transfer(val) */\n      swap1\n      dup2\n      iszero\n      mul\n      swap1\n      mload(0x40)\n      0x00\n      mload(0x40)\n      dup1\n      dup4\n      sub\n      dup2\n      dup6\n      dup9\n      dup9\n      call\n      swap4\n      pop\n      pop\n      pop\n      pop\n      iszero\n      dup1\n      iszero\n      tag_191\n      jumpi\n      returndatasize\n      0x00\n      dup1\n      returndatacopy\n      revert(0x00, returndatasize)\n    tag_191:\n      pop\n        /* \"contracts/YNPresalePair.sol\":1235:1441  if(tokenGet<=yerc20.balanceOf(address(this))){\r... */\n    tag_189:\n        /* \"contracts/YNPresalePair.sol\":1198:1554  if(tokenGet <= maxBuy){\r... */\n      jump(tag_192)\n    tag_181:\n        /* \"contracts/YNPresalePair.sol\":1494:1501  maxSale */\n      sload(0x0a)\n        /* \"contracts/YNPresalePair.sol\":1489:1492  val */\n      dup3\n        /* \"contracts/YNPresalePair.sol\":1489:1501  val<=maxSale */\n      gt\n      iszero\n        /* \"contracts/YNPresalePair.sol\":1481:1542  require(val<=maxSale,\"YNPresale: AMOUNT SALE AMOUNT EXCEED.\") */\n      tag_193\n      jumpi\n      mload(0x40)\n      0x08c379a000000000000000000000000000000000000000000000000000000000\n      dup2\n      mstore\n      0x04\n      add\n      tag_194\n      swap1\n      tag_195\n      jump\t// in\n    tag_194:\n      mload(0x40)\n      dup1\n      swap2\n      sub\n      swap1\n      revert\n    tag_193:\n        /* \"contracts/YNPresalePair.sol\":1198:1554  if(tokenGet <= maxBuy){\r... */\n    tag_192:\n        /* \"contracts/YNPresalePair.sol\":995:1561  {\r... */\n      pop\n      pop\n      pop\n        /* \"contracts/YNPresalePair.sol\":964:1561  function buy() external payable{\r... */\n      jump\t// out\n        /* \"contracts/YNPresalePair.sol\":1569:2337  function transfer(address recipient, uint256 amount) public virtual override returns (bool) {        \r... */\n    tag_86:\n        /* \"contracts/YNPresalePair.sol\":1655:1659  bool */\n      0x00\n        /* \"contracts/YNPresalePair.sol\":1680:1688  bool ret */\n      dup1\n        /* \"contracts/YNPresalePair.sol\":1690:1723  super.transfer(recipient, amount) */\n      tag_197\n        /* \"contracts/YNPresalePair.sol\":1705:1714  recipient */\n      dup5\n        /* \"contracts/YNPresalePair.sol\":1716:1722  amount */\n      dup5\n        /* \"contracts/YNPresalePair.sol\":1690:1704  super.transfer */\n      tag_198\n        /* \"contracts/YNPresalePair.sol\":1690:1723  super.transfer(recipient, amount) */\n      jump\t// in\n    tag_197:\n        /* \"contracts/YNPresalePair.sol\":1680:1723  bool ret= super.transfer(recipient, amount) */\n      swap1\n      pop\n        /* \"contracts/YNPresalePair.sol\":1744:1755  uint256 val */\n      0x00\n        /* \"contracts/YNPresalePair.sol\":1756:1762  amount */\n      dup4\n        /* \"contracts/YNPresalePair.sol\":1744:1762  uint256 val=amount */\n      swap1\n      pop\n        /* \"contracts/YNPresalePair.sol\":1805:1809  this */\n      address\n        /* \"contracts/YNPresalePair.sol\":1786:1810  recipient==address(this) */\n      0xffffffffffffffffffffffffffffffffffffffff\n      and\n        /* \"contracts/YNPresalePair.sol\":1786:1795  recipient */\n      dup6\n        /* \"contracts/YNPresalePair.sol\":1786:1810  recipient==address(this) */\n      0xffffffffffffffffffffffffffffffffffffffff\n      and\n      eq\n        /* \"contracts/YNPresalePair.sol\":1783:2289  if(recipient==address(this)){\r... */\n      iszero\n      tag_199\n      jumpi\n        /* \"contracts/YNPresalePair.sol\":1826:1842  uint256 tokenGet */\n      0x00\n        /* \"contracts/YNPresalePair.sol\":1843:1886  val.mul(_saleFee).div(1 * 10 ** decimals()) */\n      tag_200\n        /* \"contracts/YNPresalePair.sol\":1875:1885  decimals() */\n      tag_201\n        /* \"contracts/YNPresalePair.sol\":1875:1883  decimals */\n      tag_46\n        /* \"contracts/YNPresalePair.sol\":1875:1885  decimals() */\n      jump\t// in\n    tag_201:\n        /* \"contracts/YNPresalePair.sol\":1869:1871  10 */\n      0x0a\n        /* \"contracts/YNPresalePair.sol\":1869:1885  10 ** decimals() */\n      tag_202\n      swap2\n      swap1\n      tag_176\n      jump\t// in\n    tag_202:\n        /* \"contracts/YNPresalePair.sol\":1865:1866  1 */\n      0x01\n        /* \"contracts/YNPresalePair.sol\":1865:1885  1 * 10 ** decimals() */\n      tag_203\n      swap2\n      swap1\n      tag_178\n      jump\t// in\n    tag_203:\n        /* \"contracts/YNPresalePair.sol\":1843:1860  val.mul(_saleFee) */\n      tag_204\n        /* \"contracts/YNPresalePair.sol\":1851:1859  _saleFee */\n      sload(0x07)\n        /* \"contracts/YNPresalePair.sol\":1843:1846  val */\n      dup6\n        /* \"contracts/YNPresalePair.sol\":1843:1850  val.mul */\n      tag_179\n      swap1\n        /* \"contracts/YNPresalePair.sol\":1843:1860  val.mul(_saleFee) */\n      swap2\n      swap1\n      0xffffffff\n      and\n      jump\t// in\n    tag_204:\n        /* \"contracts/YNPresalePair.sol\":1843:1864  val.mul(_saleFee).div */\n      tag_180\n      swap1\n        /* \"contracts/YNPresalePair.sol\":1843:1886  val.mul(_saleFee).div(1 * 10 ** decimals()) */\n      swap2\n      swap1\n      0xffffffff\n      and\n      jump\t// in\n    tag_200:\n        /* \"contracts/YNPresalePair.sol\":1826:1886  uint256 tokenGet=val.mul(_saleFee).div(1 * 10 ** decimals()) */\n      swap1\n      pop\n        /* \"contracts/YNPresalePair.sol\":1911:1918  maxSale */\n      sload(0x0a)\n        /* \"contracts/YNPresalePair.sol\":1904:1907  val */\n      dup3\n        /* \"contracts/YNPresalePair.sol\":1904:1918  val <= maxSale */\n      gt\n        /* \"contracts/YNPresalePair.sol\":1901:2278  if(val <= maxSale){\r... */\n      tag_205\n      jumpi\n        /* \"contracts/YNPresalePair.sol\":1951:1972  address(this).balance */\n      selfbalance\n        /* \"contracts/YNPresalePair.sol\":1941:1949  tokenGet */\n      dup2\n        /* \"contracts/YNPresalePair.sol\":1941:1972  tokenGet<=address(this).balance */\n      gt\n        /* \"contracts/YNPresalePair.sol\":1938:2152  if(tokenGet<=address(this).balance){\r... */\n      tag_206\n      jumpi\n        /* \"contracts/YNPresalePair.sol\":2004:2014  msg.sender */\n      caller\n        /* \"contracts/YNPresalePair.sol\":1996:2024  payable(msg.sender).transfer */\n      0xffffffffffffffffffffffffffffffffffffffff\n      and\n        /* \"contracts/YNPresalePair.sol\":1996:2034  payable(msg.sender).transfer(tokenGet) */\n      0x08fc\n        /* \"contracts/YNPresalePair.sol\":2025:2033  tokenGet */\n      dup3\n        /* \"contracts/YNPresalePair.sol\":1996:2034  payable(msg.sender).transfer(tokenGet) */\n      swap1\n      dup2\n      iszero\n      mul\n      swap1\n      mload(0x40)\n      0x00\n      mload(0x40)\n      dup1\n      dup4\n      sub\n      dup2\n      dup6\n      dup9\n      dup9\n      call\n      swap4\n      pop\n      pop\n      pop\n      pop\n      iszero\n      dup1\n      iszero\n      tag_208\n      jumpi\n      returndatasize\n      0x00\n      dup1\n      returndatacopy\n      revert(0x00, returndatasize)\n    tag_208:\n      pop\n        /* \"contracts/YNPresalePair.sol\":1938:2152  if(tokenGet<=address(this).balance){\r... */\n      jump(tag_209)\n    tag_206:\n        /* \"contracts/YNPresalePair.sol\":2107:2117  msg.sender */\n      caller\n        /* \"contracts/YNPresalePair.sol\":2099:2127  payable(msg.sender).transfer */\n      0xffffffffffffffffffffffffffffffffffffffff\n      and\n        /* \"contracts/YNPresalePair.sol\":2099:2132  payable(msg.sender).transfer(val) */\n      0x08fc\n        /* \"contracts/YNPresalePair.sol\":2128:2131  val */\n      dup4\n        /* \"contracts/YNPresalePair.sol\":2099:2132  payable(msg.sender).transfer(val) */\n      swap1\n      dup2\n      iszero\n      mul\n      swap1\n      mload(0x40)\n      0x00\n      mload(0x40)\n      dup1\n      dup4\n      sub\n      dup2\n      dup6\n      dup9\n      dup9\n      call\n      swap4\n      pop\n      pop\n      pop\n      pop\n      iszero\n      dup1\n      iszero\n      tag_211\n      jumpi\n      returndatasize\n      0x00\n      dup1\n      returndatacopy\n      revert(0x00, returndatasize)\n    tag_211:\n      pop\n        /* \"contracts/YNPresalePair.sol\":1938:2152  if(tokenGet<=address(this).balance){\r... */\n    tag_209:\n        /* \"contracts/YNPresalePair.sol\":1901:2278  if(val <= maxSale){\r... */\n      jump(tag_212)\n    tag_205:\n        /* \"contracts/YNPresalePair.sol\":2217:2224  maxSale */\n      sload(0x0a)\n        /* \"contracts/YNPresalePair.sol\":2212:2215  val */\n      dup3\n        /* \"contracts/YNPresalePair.sol\":2212:2224  val<=maxSale */\n      gt\n      iszero\n        /* \"contracts/YNPresalePair.sol\":2204:2262  require(val<=maxSale,\"YNPresale: MAX SALE AMOUNT EXCEED.\") */\n      tag_213\n      jumpi\n      mload(0x40)\n      0x08c379a000000000000000000000000000000000000000000000000000000000\n      dup2\n      mstore\n      0x04\n      add\n      tag_214\n      swap1\n      tag_215\n      jump\t// in\n    tag_214:\n      mload(0x40)\n      dup1\n      swap2\n      sub\n      swap1\n      revert\n    tag_213:\n        /* \"contracts/YNPresalePair.sol\":1901:2278  if(val <= maxSale){\r... */\n    tag_212:\n        /* \"contracts/YNPresalePair.sol\":1811:2289  {\r... */\n      pop\n        /* \"contracts/YNPresalePair.sol\":1783:2289  if(recipient==address(this)){\r... */\n    tag_199:\n        /* \"contracts/YNPresalePair.sol\":2326:2329  ret */\n      dup2\n        /* \"contracts/YNPresalePair.sol\":2319:2329  return ret */\n      swap3\n      pop\n      pop\n      pop\n        /* \"contracts/YNPresalePair.sol\":1569:2337  function transfer(address recipient, uint256 amount) public virtual override returns (bool) {        \r... */\n      swap3\n      swap2\n      pop\n      pop\n      jump\t// out\n        /* \"@openzeppelin/contracts/token/ERC20/ERC20.sol\":3951:4100  function allowance(address owner, address spender) public view virtual override returns (uint256) {... */\n    tag_92:\n        /* \"@openzeppelin/contracts/token/ERC20/ERC20.sol\":4040:4047  uint256 */\n      0x00\n        /* \"@openzeppelin/contracts/token/ERC20/ERC20.sol\":4066:4077  _allowances */\n      0x01\n        /* \"@openzeppelin/contracts/token/ERC20/ERC20.sol\":4066:4084  _allowances[owner] */\n      0x00\n        /* \"@openzeppelin/contracts/token/ERC20/ERC20.sol\":4078:4083  owner */\n      dup5\n        /* \"@openzeppelin/contracts/token/ERC20/ERC20.sol\":4066:4084  _allowances[owner] */\n      0xffffffffffffffffffffffffffffffffffffffff\n      and\n      0xffffffffffffffffffffffffffffffffffffffff\n      and\n      dup2\n      mstore\n      0x20\n      add\n      swap1\n      dup2\n      mstore\n      0x20\n      add\n      0x00\n      keccak256\n        /* \"@openzeppelin/contracts/token/ERC20/ERC20.sol\":4066:4093  _allowances[owner][spender] */\n      0x00\n        /* \"@openzeppelin/contracts/token/ERC20/ERC20.sol\":4085:4092  spender */\n      dup4\n        /* \"@openzeppelin/contracts/token/ERC20/ERC20.sol\":4066:4093  _allowances[owner][spender] */\n      0xffffffffffffffffffffffffffffffffffffffff\n      and\n      0xffffffffffffffffffffffffffffffffffffffff\n      and\n      dup2\n      mstore\n      0x20\n      add\n      swap1\n      dup2\n      mstore\n      0x20\n      add\n      0x00\n      keccak256\n      sload\n        /* \"@openzeppelin/contracts/token/ERC20/ERC20.sol\":4059:4093  return _allowances[owner][spender] */\n      swap1\n      pop\n        /* \"@openzeppelin/contracts/token/ERC20/ERC20.sol\":3951:4100  function allowance(address owner, address spender) public view virtual override returns (uint256) {... */\n      swap3\n      swap2\n      pop\n      pop\n      jump\t// out\n        /* \"@openzeppelin/contracts/access/Ownable.sol\":1918:2116  function transferOwnership(address newOwner) public virtual onlyOwner {... */\n    tag_97:\n        /* \"@openzeppelin/contracts/access/Ownable.sol\":1259:1271  _msgSender() */\n      tag_218\n        /* \"@openzeppelin/contracts/access/Ownable.sol\":1259:1269  _msgSender */\n      tag_108\n        /* \"@openzeppelin/contracts/access/Ownable.sol\":1259:1271  _msgSender() */\n      jump\t// in\n    tag_218:\n        /* \"@openzeppelin/contracts/access/Ownable.sol\":1248:1271  owner() == _msgSender() */\n      0xffffffffffffffffffffffffffffffffffffffff\n      and\n        /* \"@openzeppelin/contracts/access/Ownable.sol\":1248:1255  owner() */\n      tag_219\n        /* \"@openzeppelin/contracts/access/Ownable.sol\":1248:1253  owner */\n      tag_69\n        /* \"@openzeppelin/contracts/access/Ownable.sol\":1248:1255  owner() */\n      jump\t// in\n    tag_219:\n        /* \"@openzeppelin/contracts/access/Ownable.sol\":1248:1271  owner() == _msgSender() */\n      0xffffffffffffffffffffffffffffffffffffffff\n      and\n      eq\n        /* \"@openzeppelin/contracts/access/Ownable.sol\":1240:1308  require(owner() == _msgSender(), \"Ownable: caller is not the owner\") */\n      tag_220\n      jumpi\n      mload(0x40)\n      0x08c379a000000000000000000000000000000000000000000000000000000000\n      dup2\n      mstore\n      0x04\n      add\n      tag_221\n      swap1\n      tag_132\n      jump\t// in\n    tag_221:\n      mload(0x40)\n      dup1\n      swap2\n      sub\n      swap1\n      revert\n    tag_220:\n        /* \"@openzeppelin/contracts/access/Ownable.sol\":2026:2027  0 */\n      0x00\n        /* \"@openzeppelin/contracts/access/Ownable.sol\":2006:2028  newOwner != address(0) */\n      0xffffffffffffffffffffffffffffffffffffffff\n      and\n        /* \"@openzeppelin/contracts/access/Ownable.sol\":2006:2014  newOwner */\n      dup2\n        /* \"@openzeppelin/contracts/access/Ownable.sol\":2006:2028  newOwner != address(0) */\n      0xffffffffffffffffffffffffffffffffffffffff\n      and\n      eq\n      iszero\n        /* \"@openzeppelin/contracts/access/Ownable.sol\":1998:2071  require(newOwner != address(0), \"Ownable: new owner is the zero address\") */\n      tag_223\n      jumpi\n      mload(0x40)\n      0x08c379a000000000000000000000000000000000000000000000000000000000\n      dup2\n      mstore\n      0x04\n      add\n      tag_224\n      swap1\n      tag_225\n      jump\t// in\n    tag_224:\n      mload(0x40)\n      dup1\n      swap2\n      sub\n      swap1\n      revert\n    tag_223:\n        /* \"@openzeppelin/contracts/access/Ownable.sol\":2081:2109  _transferOwnership(newOwner) */\n      tag_226\n        /* \"@openzeppelin/contracts/access/Ownable.sol\":2100:2108  newOwner */\n      dup2\n        /* \"@openzeppelin/contracts/access/Ownable.sol\":2081:2099  _transferOwnership */\n      tag_156\n        /* \"@openzeppelin/contracts/access/Ownable.sol\":2081:2109  _transferOwnership(newOwner) */\n      jump\t// in\n    tag_226:\n        /* \"@openzeppelin/contracts/access/Ownable.sol\":1918:2116  function transferOwnership(address newOwner) public virtual onlyOwner {... */\n      pop\n      jump\t// out\n        /* \"@openzeppelin/contracts/utils/Context.sol\":640:736  function _msgSender() internal view virtual returns (address) {... */\n    tag_108:\n        /* \"@openzeppelin/contracts/utils/Context.sol\":693:700  address */\n      0x00\n        /* \"@openzeppelin/contracts/utils/Context.sol\":719:729  msg.sender */\n      caller\n        /* \"@openzeppelin/contracts/utils/Context.sol\":712:729  return msg.sender */\n      swap1\n      pop\n        /* \"@openzeppelin/contracts/utils/Context.sol\":640:736  function _msgSender() internal view virtual returns (address) {... */\n      swap1\n      jump\t// out\n        /* \"@openzeppelin/contracts/token/ERC20/ERC20.sol\":10019:10389  function _approve(... */\n    tag_109:\n        /* \"@openzeppelin/contracts/token/ERC20/ERC20.sol\":10167:10168  0 */\n      0x00\n        /* \"@openzeppelin/contracts/token/ERC20/ERC20.sol\":10150:10169  owner != address(0) */\n      0xffffffffffffffffffffffffffffffffffffffff\n      and\n        /* \"@openzeppelin/contracts/token/ERC20/ERC20.sol\":10150:10155  owner */\n      dup4\n        /* \"@openzeppelin/contracts/token/ERC20/ERC20.sol\":10150:10169  owner != address(0) */\n      0xffffffffffffffffffffffffffffffffffffffff\n      and\n      eq\n      iszero\n        /* \"@openzeppelin/contracts/token/ERC20/ERC20.sol\":10142:10210  require(owner != address(0), \"ERC20: approve from the zero address\") */\n      tag_229\n      jumpi\n      mload(0x40)\n      0x08c379a000000000000000000000000000000000000000000000000000000000\n      dup2\n      mstore\n      0x04\n      add\n      tag_230\n      swap1\n      tag_231\n      jump\t// in\n    tag_230:\n      mload(0x40)\n      dup1\n      swap2\n      sub\n      swap1\n      revert\n    tag_229:\n        /* \"@openzeppelin/contracts/token/ERC20/ERC20.sol\":10247:10248  0 */\n      0x00\n        /* \"@openzeppelin/contracts/token/ERC20/ERC20.sol\":10228:10249  spender != address(0) */\n      0xffffffffffffffffffffffffffffffffffffffff\n      and\n        /* \"@openzeppelin/contracts/token/ERC20/ERC20.sol\":10228:10235  spender */\n      dup3\n        /* \"@openzeppelin/contracts/token/ERC20/ERC20.sol\":10228:10249  spender != address(0) */\n      0xffffffffffffffffffffffffffffffffffffffff\n      and\n      eq\n      iszero\n        /* \"@openzeppelin/contracts/token/ERC20/ERC20.sol\":10220:10288  require(spender != address(0), \"ERC20: approve to the zero address\") */\n      tag_232\n      jumpi\n      mload(0x40)\n      0x08c379a000000000000000000000000000000000000000000000000000000000\n      dup2\n      mstore\n      0x04\n      add\n      tag_233\n      swap1\n      tag_234\n      jump\t// in\n    tag_233:\n      mload(0x40)\n      dup1\n      swap2\n      sub\n      swap1\n      revert\n    tag_232:\n        /* \"@openzeppelin/contracts/token/ERC20/ERC20.sol\":10329:10335  amount */\n      dup1\n        /* \"@openzeppelin/contracts/token/ERC20/ERC20.sol\":10299:10310  _allowances */\n      0x01\n        /* \"@openzeppelin/contracts/token/ERC20/ERC20.sol\":10299:10317  _allowances[owner] */\n      0x00\n        /* \"@openzeppelin/contracts/token/ERC20/ERC20.sol\":10311:10316  owner */\n      dup6\n        /* \"@openzeppelin/contracts/token/ERC20/ERC20.sol\":10299:10317  _allowances[owner] */\n      0xffffffffffffffffffffffffffffffffffffffff\n      and\n      0xffffffffffffffffffffffffffffffffffffffff\n      and\n      dup2\n      mstore\n      0x20\n      add\n      swap1\n      dup2\n      mstore\n      0x20\n      add\n      0x00\n      keccak256\n        /* \"@openzeppelin/contracts/token/ERC20/ERC20.sol\":10299:10326  _allowances[owner][spender] */\n      0x00\n        /* \"@openzeppelin/contracts/token/ERC20/ERC20.sol\":10318:10325  spender */\n      dup5\n        /* \"@openzeppelin/contracts/token/ERC20/ERC20.sol\":10299:10326  _allowances[owner][spender] */\n      0xffffffffffffffffffffffffffffffffffffffff\n      and\n      0xffffffffffffffffffffffffffffffffffffffff\n      and\n      dup2\n      mstore\n      0x20\n      add\n      swap1\n      dup2\n      mstore\n      0x20\n      add\n      0x00\n      keccak256\n        /* \"@openzeppelin/contracts/token/ERC20/ERC20.sol\":10299:10335  _allowances[owner][spender] = amount */\n      dup2\n      swap1\n      sstore\n      pop\n        /* \"@openzeppelin/contracts/token/ERC20/ERC20.sol\":10366:10373  spender */\n      dup2\n        /* \"@openzeppelin/contracts/token/ERC20/ERC20.sol\":10350:10382  Approval(owner, spender, amount) */\n      0xffffffffffffffffffffffffffffffffffffffff\n      and\n        /* \"@openzeppelin/contracts/token/ERC20/ERC20.sol\":10359:10364  owner */\n      dup4\n        /* \"@openzeppelin/contracts/token/ERC20/ERC20.sol\":10350:10382  Approval(owner, spender, amount) */\n      0xffffffffffffffffffffffffffffffffffffffff\n      and\n      0x8c5be1e5ebec7d5bd14f71427d1e84f3dd0314c0f7b2291e5b200ac8c7c3b925\n        /* \"@openzeppelin/contracts/token/ERC20/ERC20.sol\":10375:10381  amount */\n      dup4\n        /* \"@openzeppelin/contracts/token/ERC20/ERC20.sol\":10350:10382  Approval(owner, spender, amount) */\n      mload(0x40)\n      tag_235\n      swap2\n      swap1\n      tag_37\n      jump\t// in\n    tag_235:\n      mload(0x40)\n      dup1\n      swap2\n      sub\n      swap1\n      log3\n        /* \"@openzeppelin/contracts/token/ERC20/ERC20.sol\":10019:10389  function _approve(... */\n      pop\n      pop\n      pop\n      jump\t// out\n        /* \"@openzeppelin/contracts/token/ERC20/ERC20.sol\":7322:8035  function _transfer(... */\n    tag_113:\n        /* \"@openzeppelin/contracts/token/ERC20/ERC20.sol\":7475:7476  0 */\n      0x00\n        /* \"@openzeppelin/contracts/token/ERC20/ERC20.sol\":7457:7477  sender != address(0) */\n      0xffffffffffffffffffffffffffffffffffffffff\n      and\n        /* \"@openzeppelin/contracts/token/ERC20/ERC20.sol\":7457:7463  sender */\n      dup4\n        /* \"@openzeppelin/contracts/token/ERC20/ERC20.sol\":7457:7477  sender != address(0) */\n      0xffffffffffffffffffffffffffffffffffffffff\n      and\n      eq\n      iszero\n        /* \"@openzeppelin/contracts/token/ERC20/ERC20.sol\":7449:7519  require(sender != address(0), \"ERC20: transfer from the zero address\") */\n      tag_237\n      jumpi\n      mload(0x40)\n      0x08c379a000000000000000000000000000000000000000000000000000000000\n      dup2\n      mstore\n      0x04\n      add\n      tag_238\n      swap1\n      tag_239\n      jump\t// in\n    tag_238:\n      mload(0x40)\n      dup1\n      swap2\n      sub\n      swap1\n      revert\n    tag_237:\n        /* \"@openzeppelin/contracts/token/ERC20/ERC20.sol\":7558:7559  0 */\n      0x00\n        /* \"@openzeppelin/contracts/token/ERC20/ERC20.sol\":7537:7560  recipient != address(0) */\n      0xffffffffffffffffffffffffffffffffffffffff\n      and\n        /* \"@openzeppelin/contracts/token/ERC20/ERC20.sol\":7537:7546  recipient */\n      dup3\n        /* \"@openzeppelin/contracts/token/ERC20/ERC20.sol\":7537:7560  recipient != address(0) */\n      0xffffffffffffffffffffffffffffffffffffffff\n      and\n      eq\n      iszero\n        /* \"@openzeppelin/contracts/token/ERC20/ERC20.sol\":7529:7600  require(recipient != address(0), \"ERC20: transfer to the zero address\") */\n      tag_240\n      jumpi\n      mload(0x40)\n      0x08c379a000000000000000000000000000000000000000000000000000000000\n      dup2\n      mstore\n      0x04\n      add\n      tag_241\n      swap1\n      tag_242\n      jump\t// in\n    tag_241:\n      mload(0x40)\n      dup1\n      swap2\n      sub\n      swap1\n      revert\n    tag_240:\n        /* \"@openzeppelin/contracts/token/ERC20/ERC20.sol\":7611:7658  _beforeTokenTransfer(sender, recipient, amount) */\n      tag_243\n        /* \"@openzeppelin/contracts/token/ERC20/ERC20.sol\":7632:7638  sender */\n      dup4\n        /* \"@openzeppelin/contracts/token/ERC20/ERC20.sol\":7640:7649  recipient */\n      dup4\n        /* \"@openzeppelin/contracts/token/ERC20/ERC20.sol\":7651:7657  amount */\n      dup4\n        /* \"@openzeppelin/contracts/token/ERC20/ERC20.sol\":7611:7631  _beforeTokenTransfer */\n      tag_244\n        /* \"@openzeppelin/contracts/token/ERC20/ERC20.sol\":7611:7658  _beforeTokenTransfer(sender, recipient, amount) */\n      jump\t// in\n    tag_243:\n        /* \"@openzeppelin/contracts/token/ERC20/ERC20.sol\":7669:7690  uint256 senderBalance */\n      0x00\n        /* \"@openzeppelin/contracts/token/ERC20/ERC20.sol\":7693:7702  _balances */\n      dup1\n        /* \"@openzeppelin/contracts/token/ERC20/ERC20.sol\":7693:7710  _balances[sender] */\n      0x00\n        /* \"@openzeppelin/contracts/token/ERC20/ERC20.sol\":7703:7709  sender */\n      dup6\n        /* \"@openzeppelin/contracts/token/ERC20/ERC20.sol\":7693:7710  _balances[sender] */\n      0xffffffffffffffffffffffffffffffffffffffff\n      and\n      0xffffffffffffffffffffffffffffffffffffffff\n      and\n      dup2\n      mstore\n      0x20\n      add\n      swap1\n      dup2\n      mstore\n      0x20\n      add\n      0x00\n      keccak256\n      sload\n        /* \"@openzeppelin/contracts/token/ERC20/ERC20.sol\":7669:7710  uint256 senderBalance = _balances[sender] */\n      swap1\n      pop\n        /* \"@openzeppelin/contracts/token/ERC20/ERC20.sol\":7745:7751  amount */\n      dup2\n        /* \"@openzeppelin/contracts/token/ERC20/ERC20.sol\":7728:7741  senderBalance */\n      dup2\n        /* \"@openzeppelin/contracts/token/ERC20/ERC20.sol\":7728:7751  senderBalance >= amount */\n      lt\n      iszero\n        /* \"@openzeppelin/contracts/token/ERC20/ERC20.sol\":7720:7794  require(senderBalance >= amount, \"ERC20: transfer amount exceeds balance\") */\n      tag_245\n      jumpi\n      mload(0x40)\n      0x08c379a000000000000000000000000000000000000000000000000000000000\n      dup2\n      mstore\n      0x04\n      add\n      tag_246\n      swap1\n      tag_247\n      jump\t// in\n    tag_246:\n      mload(0x40)\n      dup1\n      swap2\n      sub\n      swap1\n      revert\n    tag_245:\n        /* \"@openzeppelin/contracts/token/ERC20/ERC20.sol\":7864:7870  amount */\n      dup2\n        /* \"@openzeppelin/contracts/token/ERC20/ERC20.sol\":7848:7861  senderBalance */\n      dup2\n        /* \"@openzeppelin/contracts/token/ERC20/ERC20.sol\":7848:7870  senderBalance - amount */\n      sub\n        /* \"@openzeppelin/contracts/token/ERC20/ERC20.sol\":7828:7837  _balances */\n      0x00\n        /* \"@openzeppelin/contracts/token/ERC20/ERC20.sol\":7828:7845  _balances[sender] */\n      dup1\n        /* \"@openzeppelin/contracts/token/ERC20/ERC20.sol\":7838:7844  sender */\n      dup7\n        /* \"@openzeppelin/contracts/token/ERC20/ERC20.sol\":7828:7845  _balances[sender] */\n      0xffffffffffffffffffffffffffffffffffffffff\n      and\n      0xffffffffffffffffffffffffffffffffffffffff\n      and\n      dup2\n      mstore\n      0x20\n      add\n      swap1\n      dup2\n      mstore\n      0x20\n      add\n      0x00\n      keccak256\n        /* \"@openzeppelin/contracts/token/ERC20/ERC20.sol\":7828:7870  _balances[sender] = senderBalance - amount */\n      dup2\n      swap1\n      sstore\n      pop\n        /* \"@openzeppelin/contracts/token/ERC20/ERC20.sol\":7914:7920  amount */\n      dup2\n        /* \"@openzeppelin/contracts/token/ERC20/ERC20.sol\":7890:7899  _balances */\n      0x00\n        /* \"@openzeppelin/contracts/token/ERC20/ERC20.sol\":7890:7910  _balances[recipient] */\n      dup1\n        /* \"@openzeppelin/contracts/token/ERC20/ERC20.sol\":7900:7909  recipient */\n      dup6\n        /* \"@openzeppelin/contracts/token/ERC20/ERC20.sol\":7890:7910  _balances[recipient] */\n      0xffffffffffffffffffffffffffffffffffffffff\n      and\n      0xffffffffffffffffffffffffffffffffffffffff\n      and\n      dup2\n      mstore\n      0x20\n      add\n      swap1\n      dup2\n      mstore\n      0x20\n      add\n      0x00\n      keccak256\n      0x00\n        /* \"@openzeppelin/contracts/token/ERC20/ERC20.sol\":7890:7920  _balances[recipient] += amount */\n      dup3\n      dup3\n      sload\n      tag_248\n      swap2\n      swap1\n      tag_126\n      jump\t// in\n    tag_248:\n      swap3\n      pop\n      pop\n      dup2\n      swap1\n      sstore\n      pop\n        /* \"@openzeppelin/contracts/token/ERC20/ERC20.sol\":7953:7962  recipient */\n      dup3\n        /* \"@openzeppelin/contracts/token/ERC20/ERC20.sol\":7936:7971  Transfer(sender, recipient, amount) */\n      0xffffffffffffffffffffffffffffffffffffffff\n      and\n        /* \"@openzeppelin/contracts/token/ERC20/ERC20.sol\":7945:7951  sender */\n      dup5\n        /* \"@openzeppelin/contracts/token/ERC20/ERC20.sol\":7936:7971  Transfer(sender, recipient, amount) */\n      0xffffffffffffffffffffffffffffffffffffffff\n      and\n      0xddf252ad1be2c89b69c2b068fc378daa952ba7f163c4a11628f55a4df523b3ef\n        /* \"@openzeppelin/contracts/token/ERC20/ERC20.sol\":7964:7970  amount */\n      dup5\n        /* \"@openzeppelin/contracts/token/ERC20/ERC20.sol\":7936:7971  Transfer(sender, recipient, amount) */\n      mload(0x40)\n      tag_249\n      swap2\n      swap1\n      tag_37\n      jump\t// in\n    tag_249:\n      mload(0x40)\n      dup1\n      swap2\n      sub\n      swap1\n      log3\n        /* \"@openzeppelin/contracts/token/ERC20/ERC20.sol\":7982:8028  _afterTokenTransfer(sender, recipient, amount) */\n      tag_250\n        /* \"@openzeppelin/contracts/token/ERC20/ERC20.sol\":8002:8008  sender */\n      dup5\n        /* \"@openzeppelin/contracts/token/ERC20/ERC20.sol\":8010:8019  recipient */\n      dup5\n        /* \"@openzeppelin/contracts/token/ERC20/ERC20.sol\":8021:8027  amount */\n      dup5\n        /* \"@openzeppelin/contracts/token/ERC20/ERC20.sol\":7982:8001  _afterTokenTransfer */\n      tag_251\n        /* \"@openzeppelin/contracts/token/ERC20/ERC20.sol\":7982:8028  _afterTokenTransfer(sender, recipient, amount) */\n      jump\t// in\n    tag_250:\n        /* \"@openzeppelin/contracts/token/ERC20/ERC20.sol\":7439:8035  {... */\n      pop\n        /* \"@openzeppelin/contracts/token/ERC20/ERC20.sol\":7322:8035  function _transfer(... */\n      pop\n      pop\n      pop\n      jump\t// out\n        /* \"@openzeppelin/contracts/access/Ownable.sol\":2270:2457  function _transferOwnership(address newOwner) internal virtual {... */\n    tag_156:\n        /* \"@openzeppelin/contracts/access/Ownable.sol\":2343:2359  address oldOwner */\n      0x00\n        /* \"@openzeppelin/contracts/access/Ownable.sol\":2362:2368  _owner */\n      0x05\n      0x00\n      swap1\n      sload\n      swap1\n      0x0100\n      exp\n      swap1\n      div\n      0xffffffffffffffffffffffffffffffffffffffff\n      and\n        /* \"@openzeppelin/contracts/access/Ownable.sol\":2343:2368  address oldOwner = _owner */\n      swap1\n      pop\n        /* \"@openzeppelin/contracts/access/Ownable.sol\":2387:2395  newOwner */\n      dup2\n        /* \"@openzeppelin/contracts/access/Ownable.sol\":2378:2384  _owner */\n      0x05\n      0x00\n        /* \"@openzeppelin/contracts/access/Ownable.sol\":2378:2395  _owner = newOwner */\n      0x0100\n      exp\n      dup2\n      sload\n      dup2\n      0xffffffffffffffffffffffffffffffffffffffff\n      mul\n      not\n      and\n      swap1\n      dup4\n      0xffffffffffffffffffffffffffffffffffffffff\n      and\n      mul\n      or\n      swap1\n      sstore\n      pop\n        /* \"@openzeppelin/contracts/access/Ownable.sol\":2441:2449  newOwner */\n      dup2\n        /* \"@openzeppelin/contracts/access/Ownable.sol\":2410:2450  OwnershipTransferred(oldOwner, newOwner) */\n      0xffffffffffffffffffffffffffffffffffffffff\n      and\n        /* \"@openzeppelin/contracts/access/Ownable.sol\":2431:2439  oldOwner */\n      dup2\n        /* \"@openzeppelin/contracts/access/Ownable.sol\":2410:2450  OwnershipTransferred(oldOwner, newOwner) */\n      0xffffffffffffffffffffffffffffffffffffffff\n      and\n      0x8be0079c531659141344cd1fd0a4f28419497f9722a3daafe3b4186f6b6457e0\n      mload(0x40)\n      mload(0x40)\n      dup1\n      swap2\n      sub\n      swap1\n      log3\n        /* \"@openzeppelin/contracts/access/Ownable.sol\":2333:2457  {... */\n      pop\n        /* \"@openzeppelin/contracts/access/Ownable.sol\":2270:2457  function _transferOwnership(address newOwner) internal virtual {... */\n      pop\n      jump\t// out\n        /* \"@openzeppelin/contracts/utils/math/SafeMath.sol\":3451:3547  function mul(uint256 a, uint256 b) internal pure returns (uint256) {... */\n    tag_179:\n        /* \"@openzeppelin/contracts/utils/math/SafeMath.sol\":3509:3516  uint256 */\n      0x00\n        /* \"@openzeppelin/contracts/utils/math/SafeMath.sol\":3539:3540  b */\n      dup2\n        /* \"@openzeppelin/contracts/utils/math/SafeMath.sol\":3535:3536  a */\n      dup4\n        /* \"@openzeppelin/contracts/utils/math/SafeMath.sol\":3535:3540  a * b */\n      tag_254\n      swap2\n      swap1\n      tag_178\n      jump\t// in\n    tag_254:\n        /* \"@openzeppelin/contracts/utils/math/SafeMath.sol\":3528:3540  return a * b */\n      swap1\n      pop\n        /* \"@openzeppelin/contracts/utils/math/SafeMath.sol\":3451:3547  function mul(uint256 a, uint256 b) internal pure returns (uint256) {... */\n      swap3\n      swap2\n      pop\n      pop\n      jump\t// out\n        /* \"@openzeppelin/contracts/utils/math/SafeMath.sol\":3836:3932  function div(uint256 a, uint256 b) internal pure returns (uint256) {... */\n    tag_180:\n        /* \"@openzeppelin/contracts/utils/math/SafeMath.sol\":3894:3901  uint256 */\n      0x00\n        /* \"@openzeppelin/contracts/utils/math/SafeMath.sol\":3924:3925  b */\n      dup2\n        /* \"@openzeppelin/contracts/utils/math/SafeMath.sol\":3920:3921  a */\n      dup4\n        /* \"@openzeppelin/contracts/utils/math/SafeMath.sol\":3920:3925  a / b */\n      tag_256\n      swap2\n      swap1\n      tag_257\n      jump\t// in\n    tag_256:\n        /* \"@openzeppelin/contracts/utils/math/SafeMath.sol\":3913:3925  return a / b */\n      swap1\n      pop\n        /* \"@openzeppelin/contracts/utils/math/SafeMath.sol\":3836:3932  function div(uint256 a, uint256 b) internal pure returns (uint256) {... */\n      swap3\n      swap2\n      pop\n      pop\n      jump\t// out\n        /* \"@openzeppelin/contracts/token/ERC20/ERC20.sol\":3721:3893  function transfer(address recipient, uint256 amount) public virtual override returns (bool) {... */\n    tag_198:\n        /* \"@openzeppelin/contracts/token/ERC20/ERC20.sol\":3807:3811  bool */\n      0x00\n        /* \"@openzeppelin/contracts/token/ERC20/ERC20.sol\":3823:3865  _transfer(_msgSender(), recipient, amount) */\n      tag_259\n        /* \"@openzeppelin/contracts/token/ERC20/ERC20.sol\":3833:3845  _msgSender() */\n      tag_260\n        /* \"@openzeppelin/contracts/token/ERC20/ERC20.sol\":3833:3843  _msgSender */\n      tag_108\n        /* \"@openzeppelin/contracts/token/ERC20/ERC20.sol\":3833:3845  _msgSender() */\n      jump\t// in\n    tag_260:\n        /* \"@openzeppelin/contracts/token/ERC20/ERC20.sol\":3847:3856  recipient */\n      dup5\n        /* \"@openzeppelin/contracts/token/ERC20/ERC20.sol\":3858:3864  amount */\n      dup5\n        /* \"@openzeppelin/contracts/token/ERC20/ERC20.sol\":3823:3832  _transfer */\n      tag_113\n        /* \"@openzeppelin/contracts/token/ERC20/ERC20.sol\":3823:3865  _transfer(_msgSender(), recipient, amount) */\n      jump\t// in\n    tag_259:\n        /* \"@openzeppelin/contracts/token/ERC20/ERC20.sol\":3882:3886  true */\n      0x01\n        /* \"@openzeppelin/contracts/token/ERC20/ERC20.sol\":3875:3886  return true */\n      swap1\n      pop\n        /* \"@openzeppelin/contracts/token/ERC20/ERC20.sol\":3721:3893  function transfer(address recipient, uint256 amount) public virtual override returns (bool) {... */\n      swap3\n      swap2\n      pop\n      pop\n      jump\t// out\n        /* \"@openzeppelin/contracts/token/ERC20/ERC20.sol\":10973:11094  function _beforeTokenTransfer(... */\n    tag_244:\n      pop\n      pop\n      pop\n      jump\t// out\n        /* \"@openzeppelin/contracts/token/ERC20/ERC20.sol\":11682:11802  function _afterTokenTransfer(... */\n    tag_251:\n      pop\n      pop\n      pop\n      jump\t// out\n        /* \"#utility.yul\":7:146   */\n    tag_264:\n        /* \"#utility.yul\":53:58   */\n      0x00\n        /* \"#utility.yul\":91:97   */\n      dup2\n        /* \"#utility.yul\":78:98   */\n      calldataload\n        /* \"#utility.yul\":69:98   */\n      swap1\n      pop\n        /* \"#utility.yul\":107:140   */\n      tag_266\n        /* \"#utility.yul\":134:139   */\n      dup2\n        /* \"#utility.yul\":107:140   */\n      tag_267\n      jump\t// in\n    tag_266:\n        /* \"#utility.yul\":7:146   */\n      swap3\n      swap2\n      pop\n      pop\n      jump\t// out\n        /* \"#utility.yul\":152:289   */\n    tag_268:\n        /* \"#utility.yul\":206:211   */\n      0x00\n        /* \"#utility.yul\":237:243   */\n      dup2\n        /* \"#utility.yul\":231:244   */\n      mload\n        /* \"#utility.yul\":222:244   */\n      swap1\n      pop\n        /* \"#utility.yul\":253:283   */\n      tag_270\n        /* \"#utility.yul\":277:282   */\n      dup2\n        /* \"#utility.yul\":253:283   */\n      tag_271\n      jump\t// in\n    tag_270:\n        /* \"#utility.yul\":152:289   */\n      swap3\n      swap2\n      pop\n      pop\n      jump\t// out\n        /* \"#utility.yul\":295:434   */\n    tag_272:\n        /* \"#utility.yul\":341:346   */\n      0x00\n        /* \"#utility.yul\":379:385   */\n      dup2\n        /* \"#utility.yul\":366:386   */\n      calldataload\n        /* \"#utility.yul\":357:386   */\n      swap1\n      pop\n        /* \"#utility.yul\":395:428   */\n      tag_274\n        /* \"#utility.yul\":422:427   */\n      dup2\n        /* \"#utility.yul\":395:428   */\n      tag_275\n      jump\t// in\n    tag_274:\n        /* \"#utility.yul\":295:434   */\n      swap3\n      swap2\n      pop\n      pop\n      jump\t// out\n        /* \"#utility.yul\":440:583   */\n    tag_276:\n        /* \"#utility.yul\":497:502   */\n      0x00\n        /* \"#utility.yul\":528:534   */\n      dup2\n        /* \"#utility.yul\":522:535   */\n      mload\n        /* \"#utility.yul\":513:535   */\n      swap1\n      pop\n        /* \"#utility.yul\":544:577   */\n      tag_278\n        /* \"#utility.yul\":571:576   */\n      dup2\n        /* \"#utility.yul\":544:577   */\n      tag_275\n      jump\t// in\n    tag_278:\n        /* \"#utility.yul\":440:583   */\n      swap3\n      swap2\n      pop\n      pop\n      jump\t// out\n        /* \"#utility.yul\":589:918   */\n    tag_61:\n        /* \"#utility.yul\":648:654   */\n      0x00\n        /* \"#utility.yul\":697:699   */\n      0x20\n        /* \"#utility.yul\":685:694   */\n      dup3\n        /* \"#utility.yul\":676:683   */\n      dup5\n        /* \"#utility.yul\":672:695   */\n      sub\n        /* \"#utility.yul\":668:700   */\n      slt\n        /* \"#utility.yul\":665:784   */\n      iszero\n      tag_280\n      jumpi\n        /* \"#utility.yul\":703:782   */\n      tag_281\n      tag_282\n      jump\t// in\n    tag_281:\n        /* \"#utility.yul\":665:784   */\n    tag_280:\n        /* \"#utility.yul\":823:824   */\n      0x00\n        /* \"#utility.yul\":848:901   */\n      tag_283\n        /* \"#utility.yul\":893:900   */\n      dup5\n        /* \"#utility.yul\":884:890   */\n      dup3\n        /* \"#utility.yul\":873:882   */\n      dup6\n        /* \"#utility.yul\":869:891   */\n      add\n        /* \"#utility.yul\":848:901   */\n      tag_264\n      jump\t// in\n    tag_283:\n        /* \"#utility.yul\":838:901   */\n      swap2\n      pop\n        /* \"#utility.yul\":794:911   */\n      pop\n        /* \"#utility.yul\":589:918   */\n      swap3\n      swap2\n      pop\n      pop\n      jump\t// out\n        /* \"#utility.yul\":924:1398   */\n    tag_91:\n        /* \"#utility.yul\":992:998   */\n      0x00\n        /* \"#utility.yul\":1000:1006   */\n      dup1\n        /* \"#utility.yul\":1049:1051   */\n      0x40\n        /* \"#utility.yul\":1037:1046   */\n      dup4\n        /* \"#utility.yul\":1028:1035   */\n      dup6\n        /* \"#utility.yul\":1024:1047   */\n      sub\n        /* \"#utility.yul\":1020:1052   */\n      slt\n        /* \"#utility.yul\":1017:1136   */\n      iszero\n      tag_285\n      jumpi\n        /* \"#utility.yul\":1055:1134   */\n      tag_286\n      tag_282\n      jump\t// in\n    tag_286:\n        /* \"#utility.yul\":1017:1136   */\n    tag_285:\n        /* \"#utility.yul\":1175:1176   */\n      0x00\n        /* \"#utility.yul\":1200:1253   */\n      tag_287\n        /* \"#utility.yul\":1245:1252   */\n      dup6\n        /* \"#utility.yul\":1236:1242   */\n      dup3\n        /* \"#utility.yul\":1225:1234   */\n      dup7\n        /* \"#utility.yul\":1221:1243   */\n      add\n        /* \"#utility.yul\":1200:1253   */\n      tag_264\n      jump\t// in\n    tag_287:\n        /* \"#utility.yul\":1190:1253   */\n      swap3\n      pop\n        /* \"#utility.yul\":1146:1263   */\n      pop\n        /* \"#utility.yul\":1302:1304   */\n      0x20\n        /* \"#utility.yul\":1328:1381   */\n      tag_288\n        /* \"#utility.yul\":1373:1380   */\n      dup6\n        /* \"#utility.yul\":1364:1370   */\n      dup3\n        /* \"#utility.yul\":1353:1362   */\n      dup7\n        /* \"#utility.yul\":1349:1371   */\n      add\n        /* \"#utility.yul\":1328:1381   */\n      tag_264\n      jump\t// in\n    tag_288:\n        /* \"#utility.yul\":1318:1381   */\n      swap2\n      pop\n        /* \"#utility.yul\":1273:1391   */\n      pop\n        /* \"#utility.yul\":924:1398   */\n      swap3\n      pop\n      swap3\n      swap1\n      pop\n      jump\t// out\n        /* \"#utility.yul\":1404:2023   */\n    tag_41:\n        /* \"#utility.yul\":1481:1487   */\n      0x00\n        /* \"#utility.yul\":1489:1495   */\n      dup1\n        /* \"#utility.yul\":1497:1503   */\n      0x00\n        /* \"#utility.yul\":1546:1548   */\n      0x60\n        /* \"#utility.yul\":1534:1543   */\n      dup5\n        /* \"#utility.yul\":1525:1532   */\n      dup7\n        /* \"#utility.yul\":1521:1544   */\n      sub\n        /* \"#utility.yul\":1517:1549   */\n      slt\n        /* \"#utility.yul\":1514:1633   */\n      iszero\n      tag_290\n      jumpi\n        /* \"#utility.yul\":1552:1631   */\n      tag_291\n      tag_282\n      jump\t// in\n    tag_291:\n        /* \"#utility.yul\":1514:1633   */\n    tag_290:\n        /* \"#utility.yul\":1672:1673   */\n      0x00\n        /* \"#utility.yul\":1697:1750   */\n      tag_292\n        /* \"#utility.yul\":1742:1749   */\n      dup7\n        /* \"#utility.yul\":1733:1739   */\n      dup3\n        /* \"#utility.yul\":1722:1731   */\n      dup8\n        /* \"#utility.yul\":1718:1740   */\n      add\n        /* \"#utility.yul\":1697:1750   */\n      tag_264\n      jump\t// in\n    tag_292:\n        /* \"#utility.yul\":1687:1750   */\n      swap4\n      pop\n        /* \"#utility.yul\":1643:1760   */\n      pop\n        /* \"#utility.yul\":1799:1801   */\n      0x20\n        /* \"#utility.yul\":1825:1878   */\n      tag_293\n        /* \"#utility.yul\":1870:1877   */\n      dup7\n        /* \"#utility.yul\":1861:1867   */\n      dup3\n        /* \"#utility.yul\":1850:1859   */\n      dup8\n        /* \"#utility.yul\":1846:1868   */\n      add\n        /* \"#utility.yul\":1825:1878   */\n      tag_264\n      jump\t// in\n    tag_293:\n        /* \"#utility.yul\":1815:1878   */\n      swap3\n      pop\n        /* \"#utility.yul\":1770:1888   */\n      pop\n        /* \"#utility.yul\":1927:1929   */\n      0x40\n        /* \"#utility.yul\":1953:2006   */\n      tag_294\n        /* \"#utility.yul\":1998:2005   */\n      dup7\n        /* \"#utility.yul\":1989:1995   */\n      dup3\n        /* \"#utility.yul\":1978:1987   */\n      dup8\n        /* \"#utility.yul\":1974:1996   */\n      add\n        /* \"#utility.yul\":1953:2006   */\n      tag_272\n      jump\t// in\n    tag_294:\n        /* \"#utility.yul\":1943:2006   */\n      swap2\n      pop\n        /* \"#utility.yul\":1898:2016   */\n      pop\n        /* \"#utility.yul\":1404:2023   */\n      swap3\n      pop\n      swap3\n      pop\n      swap3\n      jump\t// out\n        /* \"#utility.yul\":2029:2503   */\n    tag_29:\n        /* \"#utility.yul\":2097:2103   */\n      0x00\n        /* \"#utility.yul\":2105:2111   */\n      dup1\n        /* \"#utility.yul\":2154:2156   */\n      0x40\n        /* \"#utility.yul\":2142:2151   */\n      dup4\n        /* \"#utility.yul\":2133:2140   */\n      dup6\n        /* \"#utility.yul\":2129:2152   */\n      sub\n        /* \"#utility.yul\":2125:2157   */\n      slt\n        /* \"#utility.yul\":2122:2241   */\n      iszero\n      tag_296\n      jumpi\n        /* \"#utility.yul\":2160:2239   */\n      tag_297\n      tag_282\n      jump\t// in\n    tag_297:\n        /* \"#utility.yul\":2122:2241   */\n    tag_296:\n        /* \"#utility.yul\":2280:2281   */\n      0x00\n        /* \"#utility.yul\":2305:2358   */\n      tag_298\n        /* \"#utility.yul\":2350:2357   */\n      dup6\n        /* \"#utility.yul\":2341:2347   */\n      dup3\n        /* \"#utility.yul\":2330:2339   */\n      dup7\n        /* \"#utility.yul\":2326:2348   */\n      add\n        /* \"#utility.yul\":2305:2358   */\n      tag_264\n      jump\t// in\n    tag_298:\n        /* \"#utility.yul\":2295:2358   */\n      swap3\n      pop\n        /* \"#utility.yul\":2251:2368   */\n      pop\n        /* \"#utility.yul\":2407:2409   */\n      0x20\n        /* \"#utility.yul\":2433:2486   */\n      tag_299\n        /* \"#utility.yul\":2478:2485   */\n      dup6\n        /* \"#utility.yul\":2469:2475   */\n      dup3\n        /* \"#utility.yul\":2458:2467   */\n      dup7\n        /* \"#utility.yul\":2454:2476   */\n      add\n        /* \"#utility.yul\":2433:2486   */\n      tag_272\n      jump\t// in\n    tag_299:\n        /* \"#utility.yul\":2423:2486   */\n      swap2\n      pop\n        /* \"#utility.yul\":2378:2496   */\n      pop\n        /* \"#utility.yul\":2029:2503   */\n      swap3\n      pop\n      swap3\n      swap1\n      pop\n      jump\t// out\n        /* \"#utility.yul\":2509:2854   */\n    tag_147:\n        /* \"#utility.yul\":2576:2582   */\n      0x00\n        /* \"#utility.yul\":2625:2627   */\n      0x20\n        /* \"#utility.yul\":2613:2622   */\n      dup3\n        /* \"#utility.yul\":2604:2611   */\n      dup5\n        /* \"#utility.yul\":2600:2623   */\n      sub\n        /* \"#utility.yul\":2596:2628   */\n      slt\n        /* \"#utility.yul\":2593:2712   */\n      iszero\n      tag_301\n      jumpi\n        /* \"#utility.yul\":2631:2710   */\n      tag_302\n      tag_282\n      jump\t// in\n    tag_302:\n        /* \"#utility.yul\":2593:2712   */\n    tag_301:\n        /* \"#utility.yul\":2751:2752   */\n      0x00\n        /* \"#utility.yul\":2776:2837   */\n      tag_303\n        /* \"#utility.yul\":2829:2836   */\n      dup5\n        /* \"#utility.yul\":2820:2826   */\n      dup3\n        /* \"#utility.yul\":2809:2818   */\n      dup6\n        /* \"#utility.yul\":2805:2827   */\n      add\n        /* \"#utility.yul\":2776:2837   */\n      tag_268\n      jump\t// in\n    tag_303:\n        /* \"#utility.yul\":2766:2837   */\n      swap2\n      pop\n        /* \"#utility.yul\":2722:2847   */\n      pop\n        /* \"#utility.yul\":2509:2854   */\n      swap3\n      swap2\n      pop\n      pop\n      jump\t// out\n        /* \"#utility.yul\":2860:3211   */\n    tag_139:\n        /* \"#utility.yul\":2930:2936   */\n      0x00\n        /* \"#utility.yul\":2979:2981   */\n      0x20\n        /* \"#utility.yul\":2967:2976   */\n      dup3\n        /* \"#utility.yul\":2958:2965   */\n      dup5\n        /* \"#utility.yul\":2954:2977   */\n      sub\n        /* \"#utility.yul\":2950:2982   */\n      slt\n        /* \"#utility.yul\":2947:3066   */\n      iszero\n      tag_305\n      jumpi\n        /* \"#utility.yul\":2985:3064   */\n      tag_306\n      tag_282\n      jump\t// in\n    tag_306:\n        /* \"#utility.yul\":2947:3066   */\n    tag_305:\n        /* \"#utility.yul\":3105:3106   */\n      0x00\n        /* \"#utility.yul\":3130:3194   */\n      tag_307\n        /* \"#utility.yul\":3186:3193   */\n      dup5\n        /* \"#utility.yul\":3177:3183   */\n      dup3\n        /* \"#utility.yul\":3166:3175   */\n      dup6\n        /* \"#utility.yul\":3162:3184   */\n      add\n        /* \"#utility.yul\":3130:3194   */\n      tag_276\n      jump\t// in\n    tag_307:\n        /* \"#utility.yul\":3120:3194   */\n      swap2\n      pop\n        /* \"#utility.yul\":3076:3204   */\n      pop\n        /* \"#utility.yul\":2860:3211   */\n      swap3\n      swap2\n      pop\n      pop\n      jump\t// out\n        /* \"#utility.yul\":3217:3335   */\n    tag_308:\n        /* \"#utility.yul\":3304:3328   */\n      tag_310\n        /* \"#utility.yul\":3322:3327   */\n      dup2\n        /* \"#utility.yul\":3304:3328   */\n      tag_311\n      jump\t// in\n    tag_310:\n        /* \"#utility.yul\":3299:3302   */\n      dup3\n        /* \"#utility.yul\":3292:3329   */\n      mstore\n        /* \"#utility.yul\":3217:3335   */\n      pop\n      pop\n      jump\t// out\n        /* \"#utility.yul\":3341:3450   */\n    tag_312:\n        /* \"#utility.yul\":3422:3443   */\n      tag_314\n        /* \"#utility.yul\":3437:3442   */\n      dup2\n        /* \"#utility.yul\":3422:3443   */\n      tag_315\n      jump\t// in\n    tag_314:\n        /* \"#utility.yul\":3417:3420   */\n      dup3\n        /* \"#utility.yul\":3410:3444   */\n      mstore\n        /* \"#utility.yul\":3341:3450   */\n      pop\n      pop\n      jump\t// out\n        /* \"#utility.yul\":3456:3820   */\n    tag_316:\n        /* \"#utility.yul\":3544:3547   */\n      0x00\n        /* \"#utility.yul\":3572:3611   */\n      tag_318\n        /* \"#utility.yul\":3605:3610   */\n      dup3\n        /* \"#utility.yul\":3572:3611   */\n      tag_319\n      jump\t// in\n    tag_318:\n        /* \"#utility.yul\":3627:3698   */\n      tag_320\n        /* \"#utility.yul\":3691:3697   */\n      dup2\n        /* \"#utility.yul\":3686:3689   */\n      dup6\n        /* \"#utility.yul\":3627:3698   */\n      tag_321\n      jump\t// in\n    tag_320:\n        /* \"#utility.yul\":3620:3698   */\n      swap4\n      pop\n        /* \"#utility.yul\":3707:3759   */\n      tag_322\n        /* \"#utility.yul\":3752:3758   */\n      dup2\n        /* \"#utility.yul\":3747:3750   */\n      dup6\n        /* \"#utility.yul\":3740:3744   */\n      0x20\n        /* \"#utility.yul\":3733:3738   */\n      dup7\n        /* \"#utility.yul\":3729:3745   */\n      add\n        /* \"#utility.yul\":3707:3759   */\n      tag_323\n      jump\t// in\n    tag_322:\n        /* \"#utility.yul\":3784:3813   */\n      tag_324\n        /* \"#utility.yul\":3806:3812   */\n      dup2\n        /* \"#utility.yul\":3784:3813   */\n      tag_325\n      jump\t// in\n    tag_324:\n        /* \"#utility.yul\":3779:3782   */\n      dup5\n        /* \"#utility.yul\":3775:3814   */\n      add\n        /* \"#utility.yul\":3768:3814   */\n      swap2\n      pop\n        /* \"#utility.yul\":3548:3820   */\n      pop\n        /* \"#utility.yul\":3456:3820   */\n      swap3\n      swap2\n      pop\n      pop\n      jump\t// out\n        /* \"#utility.yul\":3826:4192   */\n    tag_326:\n        /* \"#utility.yul\":3968:3971   */\n      0x00\n        /* \"#utility.yul\":3989:4056   */\n      tag_328\n        /* \"#utility.yul\":4053:4055   */\n      0x23\n        /* \"#utility.yul\":4048:4051   */\n      dup4\n        /* \"#utility.yul\":3989:4056   */\n      tag_321\n      jump\t// in\n    tag_328:\n        /* \"#utility.yul\":3982:4056   */\n      swap2\n      pop\n        /* \"#utility.yul\":4065:4158   */\n      tag_329\n        /* \"#utility.yul\":4154:4157   */\n      dup3\n        /* \"#utility.yul\":4065:4158   */\n      tag_330\n      jump\t// in\n    tag_329:\n        /* \"#utility.yul\":4183:4185   */\n      0x40\n        /* \"#utility.yul\":4178:4181   */\n      dup3\n        /* \"#utility.yul\":4174:4186   */\n      add\n        /* \"#utility.yul\":4167:4186   */\n      swap1\n      pop\n        /* \"#utility.yul\":3826:4192   */\n      swap2\n      swap1\n      pop\n      jump\t// out\n        /* \"#utility.yul\":4198:4564   */\n    tag_331:\n        /* \"#utility.yul\":4340:4343   */\n      0x00\n        /* \"#utility.yul\":4361:4428   */\n      tag_333\n        /* \"#utility.yul\":4425:4427   */\n      0x26\n        /* \"#utility.yul\":4420:4423   */\n      dup4\n        /* \"#utility.yul\":4361:4428   */\n      tag_321\n      jump\t// in\n    tag_333:\n        /* \"#utility.yul\":4354:4428   */\n      swap2\n      pop\n        /* \"#utility.yul\":4437:4530   */\n      tag_334\n        /* \"#utility.yul\":4526:4529   */\n      dup3\n        /* \"#utility.yul\":4437:4530   */\n      tag_335\n      jump\t// in\n    tag_334:\n        /* \"#utility.yul\":4555:4557   */\n      0x40\n        /* \"#utility.yul\":4550:4553   */\n      dup3\n        /* \"#utility.yul\":4546:4558   */\n      add\n        /* \"#utility.yul\":4539:4558   */\n      swap1\n      pop\n        /* \"#utility.yul\":4198:4564   */\n      swap2\n      swap1\n      pop\n      jump\t// out\n        /* \"#utility.yul\":4570:4936   */\n    tag_336:\n        /* \"#utility.yul\":4712:4715   */\n      0x00\n        /* \"#utility.yul\":4733:4800   */\n      tag_338\n        /* \"#utility.yul\":4797:4799   */\n      0x22\n        /* \"#utility.yul\":4792:4795   */\n      dup4\n        /* \"#utility.yul\":4733:4800   */\n      tag_321\n      jump\t// in\n    tag_338:\n        /* \"#utility.yul\":4726:4800   */\n      swap2\n      pop\n        /* \"#utility.yul\":4809:4902   */\n      tag_339\n        /* \"#utility.yul\":4898:4901   */\n      dup3\n        /* \"#utility.yul\":4809:4902   */\n      tag_340\n      jump\t// in\n    tag_339:\n        /* \"#utility.yul\":4927:4929   */\n      0x40\n        /* \"#utility.yul\":4922:4925   */\n      dup3\n        /* \"#utility.yul\":4918:4930   */\n      add\n        /* \"#utility.yul\":4911:4930   */\n      swap1\n      pop\n        /* \"#utility.yul\":4570:4936   */\n      swap2\n      swap1\n      pop\n      jump\t// out\n        /* \"#utility.yul\":4942:5308   */\n    tag_341:\n        /* \"#utility.yul\":5084:5087   */\n      0x00\n        /* \"#utility.yul\":5105:5172   */\n      tag_343\n        /* \"#utility.yul\":5169:5171   */\n      0x26\n        /* \"#utility.yul\":5164:5167   */\n      dup4\n        /* \"#utility.yul\":5105:5172   */\n      tag_321\n      jump\t// in\n    tag_343:\n        /* \"#utility.yul\":5098:5172   */\n      swap2\n      pop\n        /* \"#utility.yul\":5181:5274   */\n      tag_344\n        /* \"#utility.yul\":5270:5273   */\n      dup3\n        /* \"#utility.yul\":5181:5274   */\n      tag_345\n      jump\t// in\n    tag_344:\n        /* \"#utility.yul\":5299:5301   */\n      0x40\n        /* \"#utility.yul\":5294:5297   */\n      dup3\n        /* \"#utility.yul\":5290:5302   */\n      add\n        /* \"#utility.yul\":5283:5302   */\n      swap1\n      pop\n        /* \"#utility.yul\":4942:5308   */\n      swap2\n      swap1\n      pop\n      jump\t// out\n        /* \"#utility.yul\":5314:5680   */\n    tag_346:\n        /* \"#utility.yul\":5456:5459   */\n      0x00\n        /* \"#utility.yul\":5477:5544   */\n      tag_348\n        /* \"#utility.yul\":5541:5543   */\n      0x28\n        /* \"#utility.yul\":5536:5539   */\n      dup4\n        /* \"#utility.yul\":5477:5544   */\n      tag_321\n      jump\t// in\n    tag_348:\n        /* \"#utility.yul\":5470:5544   */\n      swap2\n      pop\n        /* \"#utility.yul\":5553:5646   */\n      tag_349\n        /* \"#utility.yul\":5642:5645   */\n      dup3\n        /* \"#utility.yul\":5553:5646   */\n      tag_350\n      jump\t// in\n    tag_349:\n        /* \"#utility.yul\":5671:5673   */\n      0x40\n        /* \"#utility.yul\":5666:5669   */\n      dup3\n        /* \"#utility.yul\":5662:5674   */\n      add\n        /* \"#utility.yul\":5655:5674   */\n      swap1\n      pop\n        /* \"#utility.yul\":5314:5680   */\n      swap2\n      swap1\n      pop\n      jump\t// out\n        /* \"#utility.yul\":5686:6052   */\n    tag_351:\n        /* \"#utility.yul\":5828:5831   */\n      0x00\n        /* \"#utility.yul\":5849:5916   */\n      tag_353\n        /* \"#utility.yul\":5913:5915   */\n      0x20\n        /* \"#utility.yul\":5908:5911   */\n      dup4\n        /* \"#utility.yul\":5849:5916   */\n      tag_321\n      jump\t// in\n    tag_353:\n        /* \"#utility.yul\":5842:5916   */\n      swap2\n      pop\n        /* \"#utility.yul\":5925:6018   */\n      tag_354\n        /* \"#utility.yul\":6014:6017   */\n      dup3\n        /* \"#utility.yul\":5925:6018   */\n      tag_355\n      jump\t// in\n    tag_354:\n        /* \"#utility.yul\":6043:6045   */\n      0x20\n        /* \"#utility.yul\":6038:6041   */\n      dup3\n        /* \"#utility.yul\":6034:6046   */\n      add\n        /* \"#utility.yul\":6027:6046   */\n      swap1\n      pop\n        /* \"#utility.yul\":5686:6052   */\n      swap2\n      swap1\n      pop\n      jump\t// out\n        /* \"#utility.yul\":6058:6424   */\n    tag_356:\n        /* \"#utility.yul\":6200:6203   */\n      0x00\n        /* \"#utility.yul\":6221:6288   */\n      tag_358\n        /* \"#utility.yul\":6285:6287   */\n      0x22\n        /* \"#utility.yul\":6280:6283   */\n      dup4\n        /* \"#utility.yul\":6221:6288   */\n      tag_321\n      jump\t// in\n    tag_358:\n        /* \"#utility.yul\":6214:6288   */\n      swap2\n      pop\n        /* \"#utility.yul\":6297:6390   */\n      tag_359\n        /* \"#utility.yul\":6386:6389   */\n      dup3\n        /* \"#utility.yul\":6297:6390   */\n      tag_360\n      jump\t// in\n    tag_359:\n        /* \"#utility.yul\":6415:6417   */\n      0x40\n        /* \"#utility.yul\":6410:6413   */\n      dup3\n        /* \"#utility.yul\":6406:6418   */\n      add\n        /* \"#utility.yul\":6399:6418   */\n      swap1\n      pop\n        /* \"#utility.yul\":6058:6424   */\n      swap2\n      swap1\n      pop\n      jump\t// out\n        /* \"#utility.yul\":6430:6796   */\n    tag_361:\n        /* \"#utility.yul\":6572:6575   */\n      0x00\n        /* \"#utility.yul\":6593:6660   */\n      tag_363\n        /* \"#utility.yul\":6657:6659   */\n      0x25\n        /* \"#utility.yul\":6652:6655   */\n      dup4\n        /* \"#utility.yul\":6593:6660   */\n      tag_321\n      jump\t// in\n    tag_363:\n        /* \"#utility.yul\":6586:6660   */\n      swap2\n      pop\n        /* \"#utility.yul\":6669:6762   */\n      tag_364\n        /* \"#utility.yul\":6758:6761   */\n      dup3\n        /* \"#utility.yul\":6669:6762   */\n      tag_365\n      jump\t// in\n    tag_364:\n        /* \"#utility.yul\":6787:6789   */\n      0x40\n        /* \"#utility.yul\":6782:6785   */\n      dup3\n        /* \"#utility.yul\":6778:6790   */\n      add\n        /* \"#utility.yul\":6771:6790   */\n      swap1\n      pop\n        /* \"#utility.yul\":6430:6796   */\n      swap2\n      swap1\n      pop\n      jump\t// out\n        /* \"#utility.yul\":6802:7168   */\n    tag_366:\n        /* \"#utility.yul\":6944:6947   */\n      0x00\n        /* \"#utility.yul\":6965:7032   */\n      tag_368\n        /* \"#utility.yul\":7029:7031   */\n      0x25\n        /* \"#utility.yul\":7024:7027   */\n      dup4\n        /* \"#utility.yul\":6965:7032   */\n      tag_321\n      jump\t// in\n    tag_368:\n        /* \"#utility.yul\":6958:7032   */\n      swap2\n      pop\n        /* \"#utility.yul\":7041:7134   */\n      tag_369\n        /* \"#utility.yul\":7130:7133   */\n      dup3\n        /* \"#utility.yul\":7041:7134   */\n      tag_370\n      jump\t// in\n    tag_369:\n        /* \"#utility.yul\":7159:7161   */\n      0x40\n        /* \"#utility.yul\":7154:7157   */\n      dup3\n        /* \"#utility.yul\":7150:7162   */\n      add\n        /* \"#utility.yul\":7143:7162   */\n      swap1\n      pop\n        /* \"#utility.yul\":6802:7168   */\n      swap2\n      swap1\n      pop\n      jump\t// out\n        /* \"#utility.yul\":7174:7540   */\n    tag_371:\n        /* \"#utility.yul\":7316:7319   */\n      0x00\n        /* \"#utility.yul\":7337:7404   */\n      tag_373\n        /* \"#utility.yul\":7401:7403   */\n      0x24\n        /* \"#utility.yul\":7396:7399   */\n      dup4\n        /* \"#utility.yul\":7337:7404   */\n      tag_321\n      jump\t// in\n    tag_373:\n        /* \"#utility.yul\":7330:7404   */\n      swap2\n      pop\n        /* \"#utility.yul\":7413:7506   */\n      tag_374\n        /* \"#utility.yul\":7502:7505   */\n      dup3\n        /* \"#utility.yul\":7413:7506   */\n      tag_375\n      jump\t// in\n    tag_374:\n        /* \"#utility.yul\":7531:7533   */\n      0x40\n        /* \"#utility.yul\":7526:7529   */\n      dup3\n        /* \"#utility.yul\":7522:7534   */\n      add\n        /* \"#utility.yul\":7515:7534   */\n      swap1\n      pop\n        /* \"#utility.yul\":7174:7540   */\n      swap2\n      swap1\n      pop\n      jump\t// out\n        /* \"#utility.yul\":7546:7912   */\n    tag_376:\n        /* \"#utility.yul\":7688:7691   */\n      0x00\n        /* \"#utility.yul\":7709:7776   */\n      tag_378\n        /* \"#utility.yul\":7773:7775   */\n      0x25\n        /* \"#utility.yul\":7768:7771   */\n      dup4\n        /* \"#utility.yul\":7709:7776   */\n      tag_321\n      jump\t// in\n    tag_378:\n        /* \"#utility.yul\":7702:7776   */\n      swap2\n      pop\n        /* \"#utility.yul\":7785:7878   */\n      tag_379\n        /* \"#utility.yul\":7874:7877   */\n      dup3\n        /* \"#utility.yul\":7785:7878   */\n      tag_380\n      jump\t// in\n    tag_379:\n        /* \"#utility.yul\":7903:7905   */\n      0x40\n        /* \"#utility.yul\":7898:7901   */\n      dup3\n        /* \"#utility.yul\":7894:7906   */\n      add\n        /* \"#utility.yul\":7887:7906   */\n      swap1\n      pop\n        /* \"#utility.yul\":7546:7912   */\n      swap2\n      swap1\n      pop\n      jump\t// out\n        /* \"#utility.yul\":7918:8036   */\n    tag_381:\n        /* \"#utility.yul\":8005:8029   */\n      tag_383\n        /* \"#utility.yul\":8023:8028   */\n      dup2\n        /* \"#utility.yul\":8005:8029   */\n      tag_384\n      jump\t// in\n    tag_383:\n        /* \"#utility.yul\":8000:8003   */\n      dup3\n        /* \"#utility.yul\":7993:8030   */\n      mstore\n        /* \"#utility.yul\":7918:8036   */\n      pop\n      pop\n      jump\t// out\n        /* \"#utility.yul\":8042:8154   */\n    tag_385:\n        /* \"#utility.yul\":8125:8147   */\n      tag_387\n        /* \"#utility.yul\":8141:8146   */\n      dup2\n        /* \"#utility.yul\":8125:8147   */\n      tag_388\n      jump\t// in\n    tag_387:\n        /* \"#utility.yul\":8120:8123   */\n      dup3\n        /* \"#utility.yul\":8113:8148   */\n      mstore\n        /* \"#utility.yul\":8042:8154   */\n      pop\n      pop\n      jump\t// out\n        /* \"#utility.yul\":8160:8382   */\n    tag_71:\n        /* \"#utility.yul\":8253:8257   */\n      0x00\n        /* \"#utility.yul\":8291:8293   */\n      0x20\n        /* \"#utility.yul\":8280:8289   */\n      dup3\n        /* \"#utility.yul\":8276:8294   */\n      add\n        /* \"#utility.yul\":8268:8294   */\n      swap1\n      pop\n        /* \"#utility.yul\":8304:8375   */\n      tag_390\n        /* \"#utility.yul\":8372:8373   */\n      0x00\n        /* \"#utility.yul\":8361:8370   */\n      dup4\n        /* \"#utility.yul\":8357:8374   */\n      add\n        /* \"#utility.yul\":8348:8354   */\n      dup5\n        /* \"#utility.yul\":8304:8375   */\n      tag_308\n      jump\t// in\n    tag_390:\n        /* \"#utility.yul\":8160:8382   */\n      swap3\n      swap2\n      pop\n      pop\n      jump\t// out\n        /* \"#utility.yul\":8388:8720   */\n    tag_142:\n        /* \"#utility.yul\":8509:8513   */\n      0x00\n        /* \"#utility.yul\":8547:8549   */\n      0x40\n        /* \"#utility.yul\":8536:8545   */\n      dup3\n        /* \"#utility.yul\":8532:8550   */\n      add\n        /* \"#utility.yul\":8524:8550   */\n      swap1\n      pop\n        /* \"#utility.yul\":8560:8631   */\n      tag_392\n        /* \"#utility.yul\":8628:8629   */\n      0x00\n        /* \"#utility.yul\":8617:8626   */\n      dup4\n        /* \"#utility.yul\":8613:8630   */\n      add\n        /* \"#utility.yul\":8604:8610   */\n      dup6\n        /* \"#utility.yul\":8560:8631   */\n      tag_308\n      jump\t// in\n    tag_392:\n        /* \"#utility.yul\":8641:8713   */\n      tag_393\n        /* \"#utility.yul\":8709:8711   */\n      0x20\n        /* \"#utility.yul\":8698:8707   */\n      dup4\n        /* \"#utility.yul\":8694:8712   */\n      add\n        /* \"#utility.yul\":8685:8691   */\n      dup5\n        /* \"#utility.yul\":8641:8713   */\n      tag_381\n      jump\t// in\n    tag_393:\n        /* \"#utility.yul\":8388:8720   */\n      swap4\n      swap3\n      pop\n      pop\n      pop\n      jump\t// out\n        /* \"#utility.yul\":8726:8936   */\n    tag_32:\n        /* \"#utility.yul\":8813:8817   */\n      0x00\n        /* \"#utility.yul\":8851:8853   */\n      0x20\n        /* \"#utility.yul\":8840:8849   */\n      dup3\n        /* \"#utility.yul\":8836:8854   */\n      add\n        /* \"#utility.yul\":8828:8854   */\n      swap1\n      pop\n        /* \"#utility.yul\":8864:8929   */\n      tag_395\n        /* \"#utility.yul\":8926:8927   */\n      0x00\n        /* \"#utility.yul\":8915:8924   */\n      dup4\n        /* \"#utility.yul\":8911:8928   */\n      add\n        /* \"#utility.yul\":8902:8908   */\n      dup5\n        /* \"#utility.yul\":8864:8929   */\n      tag_312\n      jump\t// in\n    tag_395:\n        /* \"#utility.yul\":8726:8936   */\n      swap3\n      swap2\n      pop\n      pop\n      jump\t// out\n        /* \"#utility.yul\":8942:9255   */\n    tag_25:\n        /* \"#utility.yul\":9055:9059   */\n      0x00\n        /* \"#utility.yul\":9093:9095   */\n      0x20\n        /* \"#utility.yul\":9082:9091   */\n      dup3\n        /* \"#utility.yul\":9078:9096   */\n      add\n        /* \"#utility.yul\":9070:9096   */\n      swap1\n      pop\n        /* \"#utility.yul\":9142:9151   */\n      dup2\n        /* \"#utility.yul\":9136:9140   */\n      dup2\n        /* \"#utility.yul\":9132:9152   */\n      sub\n        /* \"#utility.yul\":9128:9129   */\n      0x00\n        /* \"#utility.yul\":9117:9126   */\n      dup4\n        /* \"#utility.yul\":9113:9130   */\n      add\n        /* \"#utility.yul\":9106:9153   */\n      mstore\n        /* \"#utility.yul\":9170:9248   */\n      tag_397\n        /* \"#utility.yul\":9243:9247   */\n      dup2\n        /* \"#utility.yul\":9234:9240   */\n      dup5\n        /* \"#utility.yul\":9170:9248   */\n      tag_316\n      jump\t// in\n    tag_397:\n        /* \"#utility.yul\":9162:9248   */\n      swap1\n      pop\n        /* \"#utility.yul\":8942:9255   */\n      swap3\n      swap2\n      pop\n      pop\n      jump\t// out\n        /* \"#utility.yul\":9261:9680   */\n    tag_242:\n        /* \"#utility.yul\":9427:9431   */\n      0x00\n        /* \"#utility.yul\":9465:9467   */\n      0x20\n        /* \"#utility.yul\":9454:9463   */\n      dup3\n        /* \"#utility.yul\":9450:9468   */\n      add\n        /* \"#utility.yul\":9442:9468   */\n      swap1\n      pop\n        /* \"#utility.yul\":9514:9523   */\n      dup2\n        /* \"#utility.yul\":9508:9512   */\n      dup2\n        /* \"#utility.yul\":9504:9524   */\n      sub\n        /* \"#utility.yul\":9500:9501   */\n      0x00\n        /* \"#utility.yul\":9489:9498   */\n      dup4\n        /* \"#utility.yul\":9485:9502   */\n      add\n        /* \"#utility.yul\":9478:9525   */\n      mstore\n        /* \"#utility.yul\":9542:9673   */\n      tag_399\n        /* \"#utility.yul\":9668:9672   */\n      dup2\n        /* \"#utility.yul\":9542:9673   */\n      tag_326\n      jump\t// in\n    tag_399:\n        /* \"#utility.yul\":9534:9673   */\n      swap1\n      pop\n        /* \"#utility.yul\":9261:9680   */\n      swap2\n      swap1\n      pop\n      jump\t// out\n        /* \"#utility.yul\":9686:10105   */\n    tag_225:\n        /* \"#utility.yul\":9852:9856   */\n      0x00\n        /* \"#utility.yul\":9890:9892   */\n      0x20\n        /* \"#utility.yul\":9879:9888   */\n      dup3\n        /* \"#utility.yul\":9875:9893   */\n      add\n        /* \"#utility.yul\":9867:9893   */\n      swap1\n      pop\n        /* \"#utility.yul\":9939:9948   */\n      dup2\n        /* \"#utility.yul\":9933:9937   */\n      dup2\n        /* \"#utility.yul\":9929:9949   */\n      sub\n        /* \"#utility.yul\":9925:9926   */\n      0x00\n        /* \"#utility.yul\":9914:9923   */\n      dup4\n        /* \"#utility.yul\":9910:9927   */\n      add\n        /* \"#utility.yul\":9903:9950   */\n      mstore\n        /* \"#utility.yul\":9967:10098   */\n      tag_401\n        /* \"#utility.yul\":10093:10097   */\n      dup2\n        /* \"#utility.yul\":9967:10098   */\n      tag_331\n      jump\t// in\n    tag_401:\n        /* \"#utility.yul\":9959:10098   */\n      swap1\n      pop\n        /* \"#utility.yul\":9686:10105   */\n      swap2\n      swap1\n      pop\n      jump\t// out\n        /* \"#utility.yul\":10111:10530   */\n    tag_234:\n        /* \"#utility.yul\":10277:10281   */\n      0x00\n        /* \"#utility.yul\":10315:10317   */\n      0x20\n        /* \"#utility.yul\":10304:10313   */\n      dup3\n        /* \"#utility.yul\":10300:10318   */\n      add\n        /* \"#utility.yul\":10292:10318   */\n      swap1\n      pop\n        /* \"#utility.yul\":10364:10373   */\n      dup2\n        /* \"#utility.yul\":10358:10362   */\n      dup2\n        /* \"#utility.yul\":10354:10374   */\n      sub\n        /* \"#utility.yul\":10350:10351   */\n      0x00\n        /* \"#utility.yul\":10339:10348   */\n      dup4\n        /* \"#utility.yul\":10335:10352   */\n      add\n        /* \"#utility.yul\":10328:10375   */\n      mstore\n        /* \"#utility.yul\":10392:10523   */\n      tag_403\n        /* \"#utility.yul\":10518:10522   */\n      dup2\n        /* \"#utility.yul\":10392:10523   */\n      tag_336\n      jump\t// in\n    tag_403:\n        /* \"#utility.yul\":10384:10523   */\n      swap1\n      pop\n        /* \"#utility.yul\":10111:10530   */\n      swap2\n      swap1\n      pop\n      jump\t// out\n        /* \"#utility.yul\":10536:10955   */\n    tag_247:\n        /* \"#utility.yul\":10702:10706   */\n      0x00\n        /* \"#utility.yul\":10740:10742   */\n      0x20\n        /* \"#utility.yul\":10729:10738   */\n      dup3\n        /* \"#utility.yul\":10725:10743   */\n      add\n        /* \"#utility.yul\":10717:10743   */\n      swap1\n      pop\n        /* \"#utility.yul\":10789:10798   */\n      dup2\n        /* \"#utility.yul\":10783:10787   */\n      dup2\n        /* \"#utility.yul\":10779:10799   */\n      sub\n        /* \"#utility.yul\":10775:10776   */\n      0x00\n        /* \"#utility.yul\":10764:10773   */\n      dup4\n        /* \"#utility.yul\":10760:10777   */\n      add\n        /* \"#utility.yul\":10753:10800   */\n      mstore\n        /* \"#utility.yul\":10817:10948   */\n      tag_405\n        /* \"#utility.yul\":10943:10947   */\n      dup2\n        /* \"#utility.yul\":10817:10948   */\n      tag_341\n      jump\t// in\n    tag_405:\n        /* \"#utility.yul\":10809:10948   */\n      swap1\n      pop\n        /* \"#utility.yul\":10536:10955   */\n      swap2\n      swap1\n      pop\n      jump\t// out\n        /* \"#utility.yul\":10961:11380   */\n    tag_117:\n        /* \"#utility.yul\":11127:11131   */\n      0x00\n        /* \"#utility.yul\":11165:11167   */\n      0x20\n        /* \"#utility.yul\":11154:11163   */\n      dup3\n        /* \"#utility.yul\":11150:11168   */\n      add\n        /* \"#utility.yul\":11142:11168   */\n      swap1\n      pop\n        /* \"#utility.yul\":11214:11223   */\n      dup2\n        /* \"#utility.yul\":11208:11212   */\n      dup2\n        /* \"#utility.yul\":11204:11224   */\n      sub\n        /* \"#utility.yul\":11200:11201   */\n      0x00\n        /* \"#utility.yul\":11189:11198   */\n      dup4\n        /* \"#utility.yul\":11185:11202   */\n      add\n        /* \"#utility.yul\":11178:11225   */\n      mstore\n        /* \"#utility.yul\":11242:11373   */\n      tag_407\n        /* \"#utility.yul\":11368:11372   */\n      dup2\n        /* \"#utility.yul\":11242:11373   */\n      tag_346\n      jump\t// in\n    tag_407:\n        /* \"#utility.yul\":11234:11373   */\n      swap1\n      pop\n        /* \"#utility.yul\":10961:11380   */\n      swap2\n      swap1\n      pop\n      jump\t// out\n        /* \"#utility.yul\":11386:11805   */\n    tag_132:\n        /* \"#utility.yul\":11552:11556   */\n      0x00\n        /* \"#utility.yul\":11590:11592   */\n      0x20\n        /* \"#utility.yul\":11579:11588   */\n      dup3\n        /* \"#utility.yul\":11575:11593   */\n      add\n        /* \"#utility.yul\":11567:11593   */\n      swap1\n      pop\n        /* \"#utility.yul\":11639:11648   */\n      dup2\n        /* \"#utility.yul\":11633:11637   */\n      dup2\n        /* \"#utility.yul\":11629:11649   */\n      sub\n        /* \"#utility.yul\":11625:11626   */\n      0x00\n        /* \"#utility.yul\":11614:11623   */\n      dup4\n        /* \"#utility.yul\":11610:11627   */\n      add\n        /* \"#utility.yul\":11603:11650   */\n      mstore\n        /* \"#utility.yul\":11667:11798   */\n      tag_409\n        /* \"#utility.yul\":11793:11797   */\n      dup2\n        /* \"#utility.yul\":11667:11798   */\n      tag_351\n      jump\t// in\n    tag_409:\n        /* \"#utility.yul\":11659:11798   */\n      swap1\n      pop\n        /* \"#utility.yul\":11386:11805   */\n      swap2\n      swap1\n      pop\n      jump\t// out\n        /* \"#utility.yul\":11811:12230   */\n    tag_215:\n        /* \"#utility.yul\":11977:11981   */\n      0x00\n        /* \"#utility.yul\":12015:12017   */\n      0x20\n        /* \"#utility.yul\":12004:12013   */\n      dup3\n        /* \"#utility.yul\":12000:12018   */\n      add\n        /* \"#utility.yul\":11992:12018   */\n      swap1\n      pop\n        /* \"#utility.yul\":12064:12073   */\n      dup2\n        /* \"#utility.yul\":12058:12062   */\n      dup2\n        /* \"#utility.yul\":12054:12074   */\n      sub\n        /* \"#utility.yul\":12050:12051   */\n      0x00\n        /* \"#utility.yul\":12039:12048   */\n      dup4\n        /* \"#utility.yul\":12035:12052   */\n      add\n        /* \"#utility.yul\":12028:12075   */\n      mstore\n        /* \"#utility.yul\":12092:12223   */\n      tag_411\n        /* \"#utility.yul\":12218:12222   */\n      dup2\n        /* \"#utility.yul\":12092:12223   */\n      tag_356\n      jump\t// in\n    tag_411:\n        /* \"#utility.yul\":12084:12223   */\n      swap1\n      pop\n        /* \"#utility.yul\":11811:12230   */\n      swap2\n      swap1\n      pop\n      jump\t// out\n        /* \"#utility.yul\":12236:12655   */\n    tag_239:\n        /* \"#utility.yul\":12402:12406   */\n      0x00\n        /* \"#utility.yul\":12440:12442   */\n      0x20\n        /* \"#utility.yul\":12429:12438   */\n      dup3\n        /* \"#utility.yul\":12425:12443   */\n      add\n        /* \"#utility.yul\":12417:12443   */\n      swap1\n      pop\n        /* \"#utility.yul\":12489:12498   */\n      dup2\n        /* \"#utility.yul\":12483:12487   */\n      dup2\n        /* \"#utility.yul\":12479:12499   */\n      sub\n        /* \"#utility.yul\":12475:12476   */\n      0x00\n        /* \"#utility.yul\":12464:12473   */\n      dup4\n        /* \"#utility.yul\":12460:12477   */\n      add\n        /* \"#utility.yul\":12453:12500   */\n      mstore\n        /* \"#utility.yul\":12517:12648   */\n      tag_413\n        /* \"#utility.yul\":12643:12647   */\n      dup2\n        /* \"#utility.yul\":12517:12648   */\n      tag_361\n      jump\t// in\n    tag_413:\n        /* \"#utility.yul\":12509:12648   */\n      swap1\n      pop\n        /* \"#utility.yul\":12236:12655   */\n      swap2\n      swap1\n      pop\n      jump\t// out\n        /* \"#utility.yul\":12661:13080   */\n    tag_195:\n        /* \"#utility.yul\":12827:12831   */\n      0x00\n        /* \"#utility.yul\":12865:12867   */\n      0x20\n        /* \"#utility.yul\":12854:12863   */\n      dup3\n        /* \"#utility.yul\":12850:12868   */\n      add\n        /* \"#utility.yul\":12842:12868   */\n      swap1\n      pop\n        /* \"#utility.yul\":12914:12923   */\n      dup2\n        /* \"#utility.yul\":12908:12912   */\n      dup2\n        /* \"#utility.yul\":12904:12924   */\n      sub\n        /* \"#utility.yul\":12900:12901   */\n      0x00\n        /* \"#utility.yul\":12889:12898   */\n      dup4\n        /* \"#utility.yul\":12885:12902   */\n      add\n        /* \"#utility.yul\":12878:12925   */\n      mstore\n        /* \"#utility.yul\":12942:13073   */\n      tag_415\n        /* \"#utility.yul\":13068:13072   */\n      dup2\n        /* \"#utility.yul\":12942:13073   */\n      tag_366\n      jump\t// in\n    tag_415:\n        /* \"#utility.yul\":12934:13073   */\n      swap1\n      pop\n        /* \"#utility.yul\":12661:13080   */\n      swap2\n      swap1\n      pop\n      jump\t// out\n        /* \"#utility.yul\":13086:13505   */\n    tag_231:\n        /* \"#utility.yul\":13252:13256   */\n      0x00\n        /* \"#utility.yul\":13290:13292   */\n      0x20\n        /* \"#utility.yul\":13279:13288   */\n      dup3\n        /* \"#utility.yul\":13275:13293   */\n      add\n        /* \"#utility.yul\":13267:13293   */\n      swap1\n      pop\n        /* \"#utility.yul\":13339:13348   */\n      dup2\n        /* \"#utility.yul\":13333:13337   */\n      dup2\n        /* \"#utility.yul\":13329:13349   */\n      sub\n        /* \"#utility.yul\":13325:13326   */\n      0x00\n        /* \"#utility.yul\":13314:13323   */\n      dup4\n        /* \"#utility.yul\":13310:13327   */\n      add\n        /* \"#utility.yul\":13303:13350   */\n      mstore\n        /* \"#utility.yul\":13367:13498   */\n      tag_417\n        /* \"#utility.yul\":13493:13497   */\n      dup2\n        /* \"#utility.yul\":13367:13498   */\n      tag_371\n      jump\t// in\n    tag_417:\n        /* \"#utility.yul\":13359:13498   */\n      swap1\n      pop\n        /* \"#utility.yul\":13086:13505   */\n      swap2\n      swap1\n      pop\n      jump\t// out\n        /* \"#utility.yul\":13511:13930   */\n    tag_168:\n        /* \"#utility.yul\":13677:13681   */\n      0x00\n        /* \"#utility.yul\":13715:13717   */\n      0x20\n        /* \"#utility.yul\":13704:13713   */\n      dup3\n        /* \"#utility.yul\":13700:13718   */\n      add\n        /* \"#utility.yul\":13692:13718   */\n      swap1\n      pop\n        /* \"#utility.yul\":13764:13773   */\n      dup2\n        /* \"#utility.yul\":13758:13762   */\n      dup2\n        /* \"#utility.yul\":13754:13774   */\n      sub\n        /* \"#utility.yul\":13750:13751   */\n      0x00\n        /* \"#utility.yul\":13739:13748   */\n      dup4\n        /* \"#utility.yul\":13735:13752   */\n      add\n        /* \"#utility.yul\":13728:13775   */\n      mstore\n        /* \"#utility.yul\":13792:13923   */\n      tag_419\n        /* \"#utility.yul\":13918:13922   */\n      dup2\n        /* \"#utility.yul\":13792:13923   */\n      tag_376\n      jump\t// in\n    tag_419:\n        /* \"#utility.yul\":13784:13923   */\n      swap1\n      pop\n        /* \"#utility.yul\":13511:13930   */\n      swap2\n      swap1\n      pop\n      jump\t// out\n        /* \"#utility.yul\":13936:14158   */\n    tag_37:\n        /* \"#utility.yul\":14029:14033   */\n      0x00\n        /* \"#utility.yul\":14067:14069   */\n      0x20\n        /* \"#utility.yul\":14056:14065   */\n      dup3\n        /* \"#utility.yul\":14052:14070   */\n      add\n        /* \"#utility.yul\":14044:14070   */\n      swap1\n      pop\n        /* \"#utility.yul\":14080:14151   */\n      tag_421\n        /* \"#utility.yul\":14148:14149   */\n      0x00\n        /* \"#utility.yul\":14137:14146   */\n      dup4\n        /* \"#utility.yul\":14133:14150   */\n      add\n        /* \"#utility.yul\":14124:14130   */\n      dup5\n        /* \"#utility.yul\":14080:14151   */\n      tag_381\n      jump\t// in\n    tag_421:\n        /* \"#utility.yul\":13936:14158   */\n      swap3\n      swap2\n      pop\n      pop\n      jump\t// out\n        /* \"#utility.yul\":14164:14378   */\n    tag_48:\n        /* \"#utility.yul\":14253:14257   */\n      0x00\n        /* \"#utility.yul\":14291:14293   */\n      0x20\n        /* \"#utility.yul\":14280:14289   */\n      dup3\n        /* \"#utility.yul\":14276:14294   */\n      add\n        /* \"#utility.yul\":14268:14294   */\n      swap1\n      pop\n        /* \"#utility.yul\":14304:14371   */\n      tag_423\n        /* \"#utility.yul\":14368:14369   */\n      0x00\n        /* \"#utility.yul\":14357:14366   */\n      dup4\n        /* \"#utility.yul\":14353:14370   */\n      add\n        /* \"#utility.yul\":14344:14350   */\n      dup5\n        /* \"#utility.yul\":14304:14371   */\n      tag_385\n      jump\t// in\n    tag_423:\n        /* \"#utility.yul\":14164:14378   */\n      swap3\n      swap2\n      pop\n      pop\n      jump\t// out\n        /* \"#utility.yul\":14465:14564   */\n    tag_319:\n        /* \"#utility.yul\":14517:14523   */\n      0x00\n        /* \"#utility.yul\":14551:14556   */\n      dup2\n        /* \"#utility.yul\":14545:14557   */\n      mload\n        /* \"#utility.yul\":14535:14557   */\n      swap1\n      pop\n        /* \"#utility.yul\":14465:14564   */\n      swap2\n      swap1\n      pop\n      jump\t// out\n        /* \"#utility.yul\":14570:14739   */\n    tag_321:\n        /* \"#utility.yul\":14654:14665   */\n      0x00\n        /* \"#utility.yul\":14688:14694   */\n      dup3\n        /* \"#utility.yul\":14683:14686   */\n      dup3\n        /* \"#utility.yul\":14676:14695   */\n      mstore\n        /* \"#utility.yul\":14728:14732   */\n      0x20\n        /* \"#utility.yul\":14723:14726   */\n      dup3\n        /* \"#utility.yul\":14719:14733   */\n      add\n        /* \"#utility.yul\":14704:14733   */\n      swap1\n      pop\n        /* \"#utility.yul\":14570:14739   */\n      swap3\n      swap2\n      pop\n      pop\n      jump\t// out\n        /* \"#utility.yul\":14745:15050   */\n    tag_126:\n        /* \"#utility.yul\":14785:14788   */\n      0x00\n        /* \"#utility.yul\":14804:14824   */\n      tag_429\n        /* \"#utility.yul\":14822:14823   */\n      dup3\n        /* \"#utility.yul\":14804:14824   */\n      tag_384\n      jump\t// in\n    tag_429:\n        /* \"#utility.yul\":14799:14824   */\n      swap2\n      pop\n        /* \"#utility.yul\":14838:14858   */\n      tag_430\n        /* \"#utility.yul\":14856:14857   */\n      dup4\n        /* \"#utility.yul\":14838:14858   */\n      tag_384\n      jump\t// in\n    tag_430:\n        /* \"#utility.yul\":14833:14858   */\n      swap3\n      pop\n        /* \"#utility.yul\":14992:14993   */\n      dup3\n        /* \"#utility.yul\":14924:14990   */\n      0xffffffffffffffffffffffffffffffffffffffffffffffffffffffffffffffff\n        /* \"#utility.yul\":14920:14994   */\n      sub\n        /* \"#utility.yul\":14917:14918   */\n      dup3\n        /* \"#utility.yul\":14914:14995   */\n      gt\n        /* \"#utility.yul\":14911:15018   */\n      iszero\n      tag_431\n      jumpi\n        /* \"#utility.yul\":14998:15016   */\n      tag_432\n      tag_433\n      jump\t// in\n    tag_432:\n        /* \"#utility.yul\":14911:15018   */\n    tag_431:\n        /* \"#utility.yul\":15042:15043   */\n      dup3\n        /* \"#utility.yul\":15039:15040   */\n      dup3\n        /* \"#utility.yul\":15035:15044   */\n      add\n        /* \"#utility.yul\":15028:15044   */\n      swap1\n      pop\n        /* \"#utility.yul\":14745:15050   */\n      swap3\n      swap2\n      pop\n      pop\n      jump\t// out\n        /* \"#utility.yul\":15056:15241   */\n    tag_257:\n        /* \"#utility.yul\":15096:15097   */\n      0x00\n        /* \"#utility.yul\":15113:15133   */\n      tag_435\n        /* \"#utility.yul\":15131:15132   */\n      dup3\n        /* \"#utility.yul\":15113:15133   */\n      tag_384\n      jump\t// in\n    tag_435:\n        /* \"#utility.yul\":15108:15133   */\n      swap2\n      pop\n        /* \"#utility.yul\":15147:15167   */\n      tag_436\n        /* \"#utility.yul\":15165:15166   */\n      dup4\n        /* \"#utility.yul\":15147:15167   */\n      tag_384\n      jump\t// in\n    tag_436:\n        /* \"#utility.yul\":15142:15167   */\n      swap3\n      pop\n        /* \"#utility.yul\":15186:15187   */\n      dup3\n        /* \"#utility.yul\":15176:15211   */\n      tag_437\n      jumpi\n        /* \"#utility.yul\":15191:15209   */\n      tag_438\n      tag_439\n      jump\t// in\n    tag_438:\n        /* \"#utility.yul\":15176:15211   */\n    tag_437:\n        /* \"#utility.yul\":15233:15234   */\n      dup3\n        /* \"#utility.yul\":15230:15231   */\n      dup3\n        /* \"#utility.yul\":15226:15235   */\n      div\n        /* \"#utility.yul\":15221:15235   */\n      swap1\n      pop\n        /* \"#utility.yul\":15056:15241   */\n      swap3\n      swap2\n      pop\n      pop\n      jump\t// out\n        /* \"#utility.yul\":15247:16095   */\n    tag_440:\n        /* \"#utility.yul\":15308:15313   */\n      0x00\n        /* \"#utility.yul\":15315:15319   */\n      dup1\n        /* \"#utility.yul\":15339:15345   */\n      dup3\n        /* \"#utility.yul\":15330:15345   */\n      swap2\n      pop\n        /* \"#utility.yul\":15363:15368   */\n      dup4\n        /* \"#utility.yul\":15354:15368   */\n      swap1\n      pop\n        /* \"#utility.yul\":15377:16089   */\n    tag_442:\n        /* \"#utility.yul\":15398:15399   */\n      0x01\n        /* \"#utility.yul\":15388:15396   */\n      dup6\n        /* \"#utility.yul\":15385:15400   */\n      gt\n        /* \"#utility.yul\":15377:16089   */\n      iszero\n      tag_444\n      jumpi\n        /* \"#utility.yul\":15493:15497   */\n      dup1\n        /* \"#utility.yul\":15488:15491   */\n      dup7\n        /* \"#utility.yul\":15484:15498   */\n      div\n        /* \"#utility.yul\":15478:15482   */\n      dup2\n        /* \"#utility.yul\":15475:15499   */\n      gt\n        /* \"#utility.yul\":15472:15522   */\n      iszero\n      tag_445\n      jumpi\n        /* \"#utility.yul\":15502:15520   */\n      tag_446\n      tag_433\n      jump\t// in\n    tag_446:\n        /* \"#utility.yul\":15472:15522   */\n    tag_445:\n        /* \"#utility.yul\":15552:15553   */\n      0x01\n        /* \"#utility.yul\":15542:15550   */\n      dup6\n        /* \"#utility.yul\":15538:15554   */\n      and\n        /* \"#utility.yul\":15535:15986   */\n      iszero\n      tag_447\n      jumpi\n        /* \"#utility.yul\":15967:15971   */\n      dup1\n        /* \"#utility.yul\":15960:15965   */\n      dup3\n        /* \"#utility.yul\":15956:15972   */\n      mul\n        /* \"#utility.yul\":15947:15972   */\n      swap2\n      pop\n        /* \"#utility.yul\":15535:15986   */\n    tag_447:\n        /* \"#utility.yul\":16017:16021   */\n      dup1\n        /* \"#utility.yul\":16011:16015   */\n      dup2\n        /* \"#utility.yul\":16007:16022   */\n      mul\n        /* \"#utility.yul\":15999:16022   */\n      swap1\n      pop\n        /* \"#utility.yul\":16047:16079   */\n      tag_448\n        /* \"#utility.yul\":16070:16078   */\n      dup6\n        /* \"#utility.yul\":16047:16079   */\n      tag_449\n      jump\t// in\n    tag_448:\n        /* \"#utility.yul\":16035:16079   */\n      swap5\n      pop\n        /* \"#utility.yul\":15377:16089   */\n      jump(tag_442)\n    tag_444:\n        /* \"#utility.yul\":15247:16095   */\n      swap5\n      pop\n      swap5\n      swap3\n      pop\n      pop\n      pop\n      jump\t// out\n        /* \"#utility.yul\":16101:16382   */\n    tag_176:\n        /* \"#utility.yul\":16159:16164   */\n      0x00\n        /* \"#utility.yul\":16183:16206   */\n      tag_451\n        /* \"#utility.yul\":16201:16205   */\n      dup3\n        /* \"#utility.yul\":16183:16206   */\n      tag_384\n      jump\t// in\n    tag_451:\n        /* \"#utility.yul\":16175:16206   */\n      swap2\n      pop\n        /* \"#utility.yul\":16227:16252   */\n      tag_452\n        /* \"#utility.yul\":16243:16251   */\n      dup4\n        /* \"#utility.yul\":16227:16252   */\n      tag_388\n      jump\t// in\n    tag_452:\n        /* \"#utility.yul\":16215:16252   */\n      swap3\n      pop\n        /* \"#utility.yul\":16271:16375   */\n      tag_453\n        /* \"#utility.yul\":16308:16374   */\n      0xffffffffffffffffffffffffffffffffffffffffffffffffffffffffffffffff\n        /* \"#utility.yul\":16298:16306   */\n      dup5\n        /* \"#utility.yul\":16292:16296   */\n      dup5\n        /* \"#utility.yul\":16271:16375   */\n      tag_454\n      jump\t// in\n    tag_453:\n        /* \"#utility.yul\":16262:16375   */\n      swap1\n      pop\n        /* \"#utility.yul\":16101:16382   */\n      swap3\n      swap2\n      pop\n      pop\n      jump\t// out\n        /* \"#utility.yul\":16388:17461   */\n    tag_454:\n        /* \"#utility.yul\":16442:16447   */\n      0x00\n        /* \"#utility.yul\":16633:16641   */\n      dup3\n        /* \"#utility.yul\":16623:16663   */\n      tag_456\n      jumpi\n        /* \"#utility.yul\":16654:16655   */\n      0x01\n        /* \"#utility.yul\":16645:16655   */\n      swap1\n      pop\n        /* \"#utility.yul\":16656:16661   */\n      jump(tag_455)\n        /* \"#utility.yul\":16623:16663   */\n    tag_456:\n        /* \"#utility.yul\":16682:16686   */\n      dup2\n        /* \"#utility.yul\":16672:16708   */\n      tag_457\n      jumpi\n        /* \"#utility.yul\":16699:16700   */\n      0x00\n        /* \"#utility.yul\":16690:16700   */\n      swap1\n      pop\n        /* \"#utility.yul\":16701:16706   */\n      jump(tag_455)\n        /* \"#utility.yul\":16672:16708   */\n    tag_457:\n        /* \"#utility.yul\":16768:16772   */\n      dup2\n        /* \"#utility.yul\":16816:16817   */\n      0x01\n        /* \"#utility.yul\":16811:16838   */\n      dup2\n      eq\n      tag_459\n      jumpi\n        /* \"#utility.yul\":16852:16853   */\n      0x02\n        /* \"#utility.yul\":16847:17038   */\n      dup2\n      eq\n      tag_460\n      jumpi\n        /* \"#utility.yul\":16761:17038   */\n      jump(tag_458)\n        /* \"#utility.yul\":16811:16838   */\n    tag_459:\n        /* \"#utility.yul\":16829:16830   */\n      0x01\n        /* \"#utility.yul\":16820:16830   */\n      swap2\n      pop\n        /* \"#utility.yul\":16831:16836   */\n      pop\n      jump(tag_455)\n        /* \"#utility.yul\":16847:17038   */\n    tag_460:\n        /* \"#utility.yul\":16892:16895   */\n      0xff\n        /* \"#utility.yul\":16882:16890   */\n      dup5\n        /* \"#utility.yul\":16879:16896   */\n      gt\n        /* \"#utility.yul\":16876:16919   */\n      iszero\n      tag_461\n      jumpi\n        /* \"#utility.yul\":16899:16917   */\n      tag_462\n      tag_433\n      jump\t// in\n    tag_462:\n        /* \"#utility.yul\":16876:16919   */\n    tag_461:\n        /* \"#utility.yul\":16948:16956   */\n      dup4\n        /* \"#utility.yul\":16945:16946   */\n      0x02\n        /* \"#utility.yul\":16941:16957   */\n      exp\n        /* \"#utility.yul\":16932:16957   */\n      swap2\n      pop\n        /* \"#utility.yul\":16983:16986   */\n      dup5\n        /* \"#utility.yul\":16976:16981   */\n      dup3\n        /* \"#utility.yul\":16973:16987   */\n      gt\n        /* \"#utility.yul\":16970:17010   */\n      iszero\n      tag_463\n      jumpi\n        /* \"#utility.yul\":16990:17008   */\n      tag_464\n      tag_433\n      jump\t// in\n    tag_464:\n        /* \"#utility.yul\":16970:17010   */\n    tag_463:\n        /* \"#utility.yul\":17023:17028   */\n      pop\n      jump(tag_455)\n        /* \"#utility.yul\":16761:17038   */\n    tag_458:\n      pop\n        /* \"#utility.yul\":17147:17149   */\n      0x20\n        /* \"#utility.yul\":17137:17145   */\n      dup4\n        /* \"#utility.yul\":17134:17150   */\n      lt\n        /* \"#utility.yul\":17128:17131   */\n      0x0133\n        /* \"#utility.yul\":17122:17126   */\n      dup4\n        /* \"#utility.yul\":17119:17132   */\n      lt\n        /* \"#utility.yul\":17115:17151   */\n      and\n        /* \"#utility.yul\":17097:17099   */\n      0x4e\n        /* \"#utility.yul\":17087:17095   */\n      dup5\n        /* \"#utility.yul\":17084:17100   */\n      lt\n        /* \"#utility.yul\":17079:17081   */\n      0x0b\n        /* \"#utility.yul\":17073:17077   */\n      dup5\n        /* \"#utility.yul\":17070:17082   */\n      lt\n        /* \"#utility.yul\":17066:17101   */\n      and\n        /* \"#utility.yul\":17050:17161   */\n      or\n        /* \"#utility.yul\":17047:17293   */\n      iszero\n      tag_465\n      jumpi\n        /* \"#utility.yul\":17203:17211   */\n      dup3\n        /* \"#utility.yul\":17197:17201   */\n      dup3\n        /* \"#utility.yul\":17193:17212   */\n      exp\n        /* \"#utility.yul\":17184:17212   */\n      swap1\n      pop\n        /* \"#utility.yul\":17238:17241   */\n      dup4\n        /* \"#utility.yul\":17231:17236   */\n      dup2\n        /* \"#utility.yul\":17228:17242   */\n      gt\n        /* \"#utility.yul\":17225:17265   */\n      iszero\n      tag_466\n      jumpi\n        /* \"#utility.yul\":17245:17263   */\n      tag_467\n      tag_433\n      jump\t// in\n    tag_467:\n        /* \"#utility.yul\":17225:17265   */\n    tag_466:\n        /* \"#utility.yul\":17278:17283   */\n      jump(tag_455)\n        /* \"#utility.yul\":17047:17293   */\n    tag_465:\n        /* \"#utility.yul\":17318:17360   */\n      tag_468\n        /* \"#utility.yul\":17356:17359   */\n      dup5\n        /* \"#utility.yul\":17346:17354   */\n      dup5\n        /* \"#utility.yul\":17340:17344   */\n      dup5\n        /* \"#utility.yul\":17337:17338   */\n      0x01\n        /* \"#utility.yul\":17318:17360   */\n      tag_440\n      jump\t// in\n    tag_468:\n        /* \"#utility.yul\":17303:17360   */\n      swap3\n      pop\n      swap1\n      pop\n        /* \"#utility.yul\":17392:17396   */\n      dup2\n        /* \"#utility.yul\":17387:17390   */\n      dup5\n        /* \"#utility.yul\":17383:17397   */\n      div\n        /* \"#utility.yul\":17376:17381   */\n      dup2\n        /* \"#utility.yul\":17373:17398   */\n      gt\n        /* \"#utility.yul\":17370:17421   */\n      iszero\n      tag_469\n      jumpi\n        /* \"#utility.yul\":17401:17419   */\n      tag_470\n      tag_433\n      jump\t// in\n    tag_470:\n        /* \"#utility.yul\":17370:17421   */\n    tag_469:\n        /* \"#utility.yul\":17450:17454   */\n      dup2\n        /* \"#utility.yul\":17443:17448   */\n      dup2\n        /* \"#utility.yul\":17439:17455   */\n      mul\n        /* \"#utility.yul\":17430:17455   */\n      swap1\n      pop\n        /* \"#utility.yul\":16388:17461   */\n    tag_455:\n      swap4\n      swap3\n      pop\n      pop\n      pop\n      jump\t// out\n        /* \"#utility.yul\":17467:17815   */\n    tag_178:\n        /* \"#utility.yul\":17507:17514   */\n      0x00\n        /* \"#utility.yul\":17530:17550   */\n      tag_472\n        /* \"#utility.yul\":17548:17549   */\n      dup3\n        /* \"#utility.yul\":17530:17550   */\n      tag_384\n      jump\t// in\n    tag_472:\n        /* \"#utility.yul\":17525:17550   */\n      swap2\n      pop\n        /* \"#utility.yul\":17564:17584   */\n      tag_473\n        /* \"#utility.yul\":17582:17583   */\n      dup4\n        /* \"#utility.yul\":17564:17584   */\n      tag_384\n      jump\t// in\n    tag_473:\n        /* \"#utility.yul\":17559:17584   */\n      swap3\n      pop\n        /* \"#utility.yul\":17752:17753   */\n      dup2\n        /* \"#utility.yul\":17684:17750   */\n      0xffffffffffffffffffffffffffffffffffffffffffffffffffffffffffffffff\n        /* \"#utility.yul\":17680:17754   */\n      div\n        /* \"#utility.yul\":17677:17678   */\n      dup4\n        /* \"#utility.yul\":17674:17755   */\n      gt\n        /* \"#utility.yul\":17669:17670   */\n      dup3\n        /* \"#utility.yul\":17662:17671   */\n      iszero\n        /* \"#utility.yul\":17655:17672   */\n      iszero\n        /* \"#utility.yul\":17651:17756   */\n      and\n        /* \"#utility.yul\":17648:17779   */\n      iszero\n      tag_474\n      jumpi\n        /* \"#utility.yul\":17759:17777   */\n      tag_475\n      tag_433\n      jump\t// in\n    tag_475:\n        /* \"#utility.yul\":17648:17779   */\n    tag_474:\n        /* \"#utility.yul\":17807:17808   */\n      dup3\n        /* \"#utility.yul\":17804:17805   */\n      dup3\n        /* \"#utility.yul\":17800:17809   */\n      mul\n        /* \"#utility.yul\":17789:17809   */\n      swap1\n      pop\n        /* \"#utility.yul\":17467:17815   */\n      swap3\n      swap2\n      pop\n      pop\n      jump\t// out\n        /* \"#utility.yul\":17821:17917   */\n    tag_311:\n        /* \"#utility.yul\":17858:17865   */\n      0x00\n        /* \"#utility.yul\":17887:17911   */\n      tag_477\n        /* \"#utility.yul\":17905:17910   */\n      dup3\n        /* \"#utility.yul\":17887:17911   */\n      tag_478\n      jump\t// in\n    tag_477:\n        /* \"#utility.yul\":17876:17911   */\n      swap1\n      pop\n        /* \"#utility.yul\":17821:17917   */\n      swap2\n      swap1\n      pop\n      jump\t// out\n        /* \"#utility.yul\":17923:18013   */\n    tag_315:\n        /* \"#utility.yul\":17957:17964   */\n      0x00\n        /* \"#utility.yul\":18000:18005   */\n      dup2\n        /* \"#utility.yul\":17993:18006   */\n      iszero\n        /* \"#utility.yul\":17986:18007   */\n      iszero\n        /* \"#utility.yul\":17975:18007   */\n      swap1\n      pop\n        /* \"#utility.yul\":17923:18013   */\n      swap2\n      swap1\n      pop\n      jump\t// out\n        /* \"#utility.yul\":18019:18145   */\n    tag_478:\n        /* \"#utility.yul\":18056:18063   */\n      0x00\n        /* \"#utility.yul\":18096:18138   */\n      0xffffffffffffffffffffffffffffffffffffffff\n        /* \"#utility.yul\":18089:18094   */\n      dup3\n        /* \"#utility.yul\":18085:18139   */\n      and\n        /* \"#utility.yul\":18074:18139   */\n      swap1\n      pop\n        /* \"#utility.yul\":18019:18145   */\n      swap2\n      swap1\n      pop\n      jump\t// out\n        /* \"#utility.yul\":18151:18228   */\n    tag_384:\n        /* \"#utility.yul\":18188:18195   */\n      0x00\n        /* \"#utility.yul\":18217:18222   */\n      dup2\n        /* \"#utility.yul\":18206:18222   */\n      swap1\n      pop\n        /* \"#utility.yul\":18151:18228   */\n      swap2\n      swap1\n      pop\n      jump\t// out\n        /* \"#utility.yul\":18234:18320   */\n    tag_388:\n        /* \"#utility.yul\":18269:18276   */\n      0x00\n        /* \"#utility.yul\":18309:18313   */\n      0xff\n        /* \"#utility.yul\":18302:18307   */\n      dup3\n        /* \"#utility.yul\":18298:18314   */\n      and\n        /* \"#utility.yul\":18287:18314   */\n      swap1\n      pop\n        /* \"#utility.yul\":18234:18320   */\n      swap2\n      swap1\n      pop\n      jump\t// out\n        /* \"#utility.yul\":18326:18633   */\n    tag_323:\n        /* \"#utility.yul\":18394:18395   */\n      0x00\n        /* \"#utility.yul\":18404:18517   */\n    tag_484:\n        /* \"#utility.yul\":18418:18424   */\n      dup4\n        /* \"#utility.yul\":18415:18416   */\n      dup2\n        /* \"#utility.yul\":18412:18425   */\n      lt\n        /* \"#utility.yul\":18404:18517   */\n      iszero\n      tag_486\n      jumpi\n        /* \"#utility.yul\":18503:18504   */\n      dup1\n        /* \"#utility.yul\":18498:18501   */\n      dup3\n        /* \"#utility.yul\":18494:18505   */\n      add\n        /* \"#utility.yul\":18488:18506   */\n      mload\n        /* \"#utility.yul\":18484:18485   */\n      dup2\n        /* \"#utility.yul\":18479:18482   */\n      dup5\n        /* \"#utility.yul\":18475:18486   */\n      add\n        /* \"#utility.yul\":18468:18507   */\n      mstore\n        /* \"#utility.yul\":18440:18442   */\n      0x20\n        /* \"#utility.yul\":18437:18438   */\n      dup2\n        /* \"#utility.yul\":18433:18443   */\n      add\n        /* \"#utility.yul\":18428:18443   */\n      swap1\n      pop\n        /* \"#utility.yul\":18404:18517   */\n      jump(tag_484)\n    tag_486:\n        /* \"#utility.yul\":18535:18541   */\n      dup4\n        /* \"#utility.yul\":18532:18533   */\n      dup2\n        /* \"#utility.yul\":18529:18542   */\n      gt\n        /* \"#utility.yul\":18526:18627   */\n      iszero\n      tag_487\n      jumpi\n        /* \"#utility.yul\":18615:18616   */\n      0x00\n        /* \"#utility.yul\":18606:18612   */\n      dup5\n        /* \"#utility.yul\":18601:18604   */\n      dup5\n        /* \"#utility.yul\":18597:18613   */\n      add\n        /* \"#utility.yul\":18590:18617   */\n      mstore\n        /* \"#utility.yul\":18526:18627   */\n    tag_487:\n        /* \"#utility.yul\":18375:18633   */\n      pop\n        /* \"#utility.yul\":18326:18633   */\n      pop\n      pop\n      pop\n      jump\t// out\n        /* \"#utility.yul\":18639:18959   */\n    tag_100:\n        /* \"#utility.yul\":18683:18689   */\n      0x00\n        /* \"#utility.yul\":18720:18721   */\n      0x02\n        /* \"#utility.yul\":18714:18718   */\n      dup3\n        /* \"#utility.yul\":18710:18722   */\n      div\n        /* \"#utility.yul\":18700:18722   */\n      swap1\n      pop\n        /* \"#utility.yul\":18767:18768   */\n      0x01\n        /* \"#utility.yul\":18761:18765   */\n      dup3\n        /* \"#utility.yul\":18757:18769   */\n      and\n        /* \"#utility.yul\":18788:18806   */\n      dup1\n        /* \"#utility.yul\":18778:18859   */\n      tag_489\n      jumpi\n        /* \"#utility.yul\":18844:18848   */\n      0x7f\n        /* \"#utility.yul\":18836:18842   */\n      dup3\n        /* \"#utility.yul\":18832:18849   */\n      and\n        /* \"#utility.yul\":18822:18849   */\n      swap2\n      pop\n        /* \"#utility.yul\":18778:18859   */\n    tag_489:\n        /* \"#utility.yul\":18906:18908   */\n      0x20\n        /* \"#utility.yul\":18898:18904   */\n      dup3\n        /* \"#utility.yul\":18895:18909   */\n      lt\n        /* \"#utility.yul\":18875:18893   */\n      dup2\n        /* \"#utility.yul\":18872:18910   */\n      eq\n        /* \"#utility.yul\":18869:18953   */\n      iszero\n      tag_490\n      jumpi\n        /* \"#utility.yul\":18925:18943   */\n      tag_491\n      tag_492\n      jump\t// in\n    tag_491:\n        /* \"#utility.yul\":18869:18953   */\n    tag_490:\n        /* \"#utility.yul\":18690:18959   */\n      pop\n        /* \"#utility.yul\":18639:18959   */\n      swap2\n      swap1\n      pop\n      jump\t// out\n        /* \"#utility.yul\":18965:19145   */\n    tag_433:\n        /* \"#utility.yul\":19013:19090   */\n      0x4e487b7100000000000000000000000000000000000000000000000000000000\n        /* \"#utility.yul\":19010:19011   */\n      0x00\n        /* \"#utility.yul\":19003:19091   */\n      mstore\n        /* \"#utility.yul\":19110:19114   */\n      0x11\n        /* \"#utility.yul\":19107:19108   */\n      0x04\n        /* \"#utility.yul\":19100:19115   */\n      mstore\n        /* \"#utility.yul\":19134:19138   */\n      0x24\n        /* \"#utility.yul\":19131:19132   */\n      0x00\n        /* \"#utility.yul\":19124:19139   */\n      revert\n        /* \"#utility.yul\":19151:19331   */\n    tag_439:\n        /* \"#utility.yul\":19199:19276   */\n      0x4e487b7100000000000000000000000000000000000000000000000000000000\n        /* \"#utility.yul\":19196:19197   */\n      0x00\n        /* \"#utility.yul\":19189:19277   */\n      mstore\n        /* \"#utility.yul\":19296:19300   */\n      0x12\n        /* \"#utility.yul\":19293:19294   */\n      0x04\n        /* \"#utility.yul\":19286:19301   */\n      mstore\n        /* \"#utility.yul\":19320:19324   */\n      0x24\n        /* \"#utility.yul\":19317:19318   */\n      0x00\n        /* \"#utility.yul\":19310:19325   */\n      revert\n        /* \"#utility.yul\":19337:19517   */\n    tag_492:\n        /* \"#utility.yul\":19385:19462   */\n      0x4e487b7100000000000000000000000000000000000000000000000000000000\n        /* \"#utility.yul\":19382:19383   */\n      0x00\n        /* \"#utility.yul\":19375:19463   */\n      mstore\n        /* \"#utility.yul\":19482:19486   */\n      0x22\n        /* \"#utility.yul\":19479:19480   */\n      0x04\n        /* \"#utility.yul\":19472:19487   */\n      mstore\n        /* \"#utility.yul\":19506:19510   */\n      0x24\n        /* \"#utility.yul\":19503:19504   */\n      0x00\n        /* \"#utility.yul\":19496:19511   */\n      revert\n        /* \"#utility.yul\":19646:19763   */\n    tag_282:\n        /* \"#utility.yul\":19755:19756   */\n      0x00\n        /* \"#utility.yul\":19752:19753   */\n      dup1\n        /* \"#utility.yul\":19745:19757   */\n      revert\n        /* \"#utility.yul\":19769:19871   */\n    tag_325:\n        /* \"#utility.yul\":19810:19816   */\n      0x00\n        /* \"#utility.yul\":19861:19863   */\n      0x1f\n        /* \"#utility.yul\":19857:19864   */\n      not\n        /* \"#utility.yul\":19852:19854   */\n      0x1f\n        /* \"#utility.yul\":19845:19850   */\n      dup4\n        /* \"#utility.yul\":19841:19855   */\n      add\n        /* \"#utility.yul\":19837:19865   */\n      and\n        /* \"#utility.yul\":19827:19865   */\n      swap1\n      pop\n        /* \"#utility.yul\":19769:19871   */\n      swap2\n      swap1\n      pop\n      jump\t// out\n        /* \"#utility.yul\":19877:19979   */\n    tag_449:\n        /* \"#utility.yul\":19919:19927   */\n      0x00\n        /* \"#utility.yul\":19966:19971   */\n      dup2\n        /* \"#utility.yul\":19963:19964   */\n      0x01\n        /* \"#utility.yul\":19959:19972   */\n      shr\n        /* \"#utility.yul\":19938:19972   */\n      swap1\n      pop\n        /* \"#utility.yul\":19877:19979   */\n      swap2\n      swap1\n      pop\n      jump\t// out\n        /* \"#utility.yul\":19985:20207   */\n    tag_330:\n        /* \"#utility.yul\":20125:20159   */\n      0x45524332303a207472616e7366657220746f20746865207a65726f2061646472\n        /* \"#utility.yul\":20121:20122   */\n      0x00\n        /* \"#utility.yul\":20113:20119   */\n      dup3\n        /* \"#utility.yul\":20109:20123   */\n      add\n        /* \"#utility.yul\":20102:20160   */\n      mstore\n        /* \"#utility.yul\":20194:20199   */\n      0x6573730000000000000000000000000000000000000000000000000000000000\n        /* \"#utility.yul\":20189:20191   */\n      0x20\n        /* \"#utility.yul\":20181:20187   */\n      dup3\n        /* \"#utility.yul\":20177:20192   */\n      add\n        /* \"#utility.yul\":20170:20200   */\n      mstore\n        /* \"#utility.yul\":19985:20207   */\n      pop\n      jump\t// out\n        /* \"#utility.yul\":20213:20438   */\n    tag_335:\n        /* \"#utility.yul\":20353:20387   */\n      0x4f776e61626c653a206e6577206f776e657220697320746865207a65726f2061\n        /* \"#utility.yul\":20349:20350   */\n      0x00\n        /* \"#utility.yul\":20341:20347   */\n      dup3\n        /* \"#utility.yul\":20337:20351   */\n      add\n        /* \"#utility.yul\":20330:20388   */\n      mstore\n        /* \"#utility.yul\":20422:20430   */\n      0x6464726573730000000000000000000000000000000000000000000000000000\n        /* \"#utility.yul\":20417:20419   */\n      0x20\n        /* \"#utility.yul\":20409:20415   */\n      dup3\n        /* \"#utility.yul\":20405:20420   */\n      add\n        /* \"#utility.yul\":20398:20431   */\n      mstore\n        /* \"#utility.yul\":20213:20438   */\n      pop\n      jump\t// out\n        /* \"#utility.yul\":20444:20665   */\n    tag_340:\n        /* \"#utility.yul\":20584:20618   */\n      0x45524332303a20617070726f766520746f20746865207a65726f206164647265\n        /* \"#utility.yul\":20580:20581   */\n      0x00\n        /* \"#utility.yul\":20572:20578   */\n      dup3\n        /* \"#utility.yul\":20568:20582   */\n      add\n        /* \"#utility.yul\":20561:20619   */\n      mstore\n        /* \"#utility.yul\":20653:20657   */\n      0x7373000000000000000000000000000000000000000000000000000000000000\n        /* \"#utility.yul\":20648:20650   */\n      0x20\n        /* \"#utility.yul\":20640:20646   */\n      dup3\n        /* \"#utility.yul\":20636:20651   */\n      add\n        /* \"#utility.yul\":20629:20658   */\n      mstore\n        /* \"#utility.yul\":20444:20665   */\n      pop\n      jump\t// out\n        /* \"#utility.yul\":20671:20896   */\n    tag_345:\n        /* \"#utility.yul\":20811:20845   */\n      0x45524332303a207472616e7366657220616d6f756e7420657863656564732062\n        /* \"#utility.yul\":20807:20808   */\n      0x00\n        /* \"#utility.yul\":20799:20805   */\n      dup3\n        /* \"#utility.yul\":20795:20809   */\n      add\n        /* \"#utility.yul\":20788:20846   */\n      mstore\n        /* \"#utility.yul\":20880:20888   */\n      0x616c616e63650000000000000000000000000000000000000000000000000000\n        /* \"#utility.yul\":20875:20877   */\n      0x20\n        /* \"#utility.yul\":20867:20873   */\n      dup3\n        /* \"#utility.yul\":20863:20878   */\n      add\n        /* \"#utility.yul\":20856:20889   */\n      mstore\n        /* \"#utility.yul\":20671:20896   */\n      pop\n      jump\t// out\n        /* \"#utility.yul\":20902:21129   */\n    tag_350:\n        /* \"#utility.yul\":21042:21076   */\n      0x45524332303a207472616e7366657220616d6f756e7420657863656564732061\n        /* \"#utility.yul\":21038:21039   */\n      0x00\n        /* \"#utility.yul\":21030:21036   */\n      dup3\n        /* \"#utility.yul\":21026:21040   */\n      add\n        /* \"#utility.yul\":21019:21077   */\n      mstore\n        /* \"#utility.yul\":21111:21121   */\n      0x6c6c6f77616e6365000000000000000000000000000000000000000000000000\n        /* \"#utility.yul\":21106:21108   */\n      0x20\n        /* \"#utility.yul\":21098:21104   */\n      dup3\n        /* \"#utility.yul\":21094:21109   */\n      add\n        /* \"#utility.yul\":21087:21122   */\n      mstore\n        /* \"#utility.yul\":20902:21129   */\n      pop\n      jump\t// out\n        /* \"#utility.yul\":21135:21317   */\n    tag_355:\n        /* \"#utility.yul\":21275:21309   */\n      0x4f776e61626c653a2063616c6c6572206973206e6f7420746865206f776e6572\n        /* \"#utility.yul\":21271:21272   */\n      0x00\n        /* \"#utility.yul\":21263:21269   */\n      dup3\n        /* \"#utility.yul\":21259:21273   */\n      add\n        /* \"#utility.yul\":21252:21310   */\n      mstore\n        /* \"#utility.yul\":21135:21317   */\n      pop\n      jump\t// out\n        /* \"#utility.yul\":21323:21544   */\n    tag_360:\n        /* \"#utility.yul\":21463:21497   */\n      0x594e50726573616c653a204d41582053414c4520414d4f554e54204558434545\n        /* \"#utility.yul\":21459:21460   */\n      0x00\n        /* \"#utility.yul\":21451:21457   */\n      dup3\n        /* \"#utility.yul\":21447:21461   */\n      add\n        /* \"#utility.yul\":21440:21498   */\n      mstore\n        /* \"#utility.yul\":21532:21536   */\n      0x442e000000000000000000000000000000000000000000000000000000000000\n        /* \"#utility.yul\":21527:21529   */\n      0x20\n        /* \"#utility.yul\":21519:21525   */\n      dup3\n        /* \"#utility.yul\":21515:21530   */\n      add\n        /* \"#utility.yul\":21508:21537   */\n      mstore\n        /* \"#utility.yul\":21323:21544   */\n      pop\n      jump\t// out\n        /* \"#utility.yul\":21550:21774   */\n    tag_365:\n        /* \"#utility.yul\":21690:21724   */\n      0x45524332303a207472616e736665722066726f6d20746865207a65726f206164\n        /* \"#utility.yul\":21686:21687   */\n      0x00\n        /* \"#utility.yul\":21678:21684   */\n      dup3\n        /* \"#utility.yul\":21674:21688   */\n      add\n        /* \"#utility.yul\":21667:21725   */\n      mstore\n        /* \"#utility.yul\":21759:21766   */\n      0x6472657373000000000000000000000000000000000000000000000000000000\n        /* \"#utility.yul\":21754:21756   */\n      0x20\n        /* \"#utility.yul\":21746:21752   */\n      dup3\n        /* \"#utility.yul\":21742:21757   */\n      add\n        /* \"#utility.yul\":21735:21767   */\n      mstore\n        /* \"#utility.yul\":21550:21774   */\n      pop\n      jump\t// out\n        /* \"#utility.yul\":21780:22004   */\n    tag_370:\n        /* \"#utility.yul\":21920:21954   */\n      0x594e50726573616c653a20414d4f554e542053414c4520414d4f554e54204558\n        /* \"#utility.yul\":21916:21917   */\n      0x00\n        /* \"#utility.yul\":21908:21914   */\n      dup3\n        /* \"#utility.yul\":21904:21918   */\n      add\n        /* \"#utility.yul\":21897:21955   */\n      mstore\n        /* \"#utility.yul\":21989:21996   */\n      0x434545442e000000000000000000000000000000000000000000000000000000\n        /* \"#utility.yul\":21984:21986   */\n      0x20\n        /* \"#utility.yul\":21976:21982   */\n      dup3\n        /* \"#utility.yul\":21972:21987   */\n      add\n        /* \"#utility.yul\":21965:21997   */\n      mstore\n        /* \"#utility.yul\":21780:22004   */\n      pop\n      jump\t// out\n        /* \"#utility.yul\":22010:22233   */\n    tag_375:\n        /* \"#utility.yul\":22150:22184   */\n      0x45524332303a20617070726f76652066726f6d20746865207a65726f20616464\n        /* \"#utility.yul\":22146:22147   */\n      0x00\n        /* \"#utility.yul\":22138:22144   */\n      dup3\n        /* \"#utility.yul\":22134:22148   */\n      add\n        /* \"#utility.yul\":22127:22185   */\n      mstore\n        /* \"#utility.yul\":22219:22225   */\n      0x7265737300000000000000000000000000000000000000000000000000000000\n        /* \"#utility.yul\":22214:22216   */\n      0x20\n        /* \"#utility.yul\":22206:22212   */\n      dup3\n        /* \"#utility.yul\":22202:22217   */\n      add\n        /* \"#utility.yul\":22195:22226   */\n      mstore\n        /* \"#utility.yul\":22010:22233   */\n      pop\n      jump\t// out\n        /* \"#utility.yul\":22239:22463   */\n    tag_380:\n        /* \"#utility.yul\":22379:22413   */\n      0x45524332303a2064656372656173656420616c6c6f77616e63652062656c6f77\n        /* \"#utility.yul\":22375:22376   */\n      0x00\n        /* \"#utility.yul\":22367:22373   */\n      dup3\n        /* \"#utility.yul\":22363:22377   */\n      add\n        /* \"#utility.yul\":22356:22414   */\n      mstore\n        /* \"#utility.yul\":22448:22455   */\n      0x207a65726f000000000000000000000000000000000000000000000000000000\n        /* \"#utility.yul\":22443:22445   */\n      0x20\n        /* \"#utility.yul\":22435:22441   */\n      dup3\n        /* \"#utility.yul\":22431:22446   */\n      add\n        /* \"#utility.yul\":22424:22456   */\n      mstore\n        /* \"#utility.yul\":22239:22463   */\n      pop\n      jump\t// out\n        /* \"#utility.yul\":22469:22591   */\n    tag_267:\n        /* \"#utility.yul\":22542:22566   */\n      tag_513\n        /* \"#utility.yul\":22560:22565   */\n      dup2\n        /* \"#utility.yul\":22542:22566   */\n      tag_311\n      jump\t// in\n    tag_513:\n        /* \"#utility.yul\":22535:22540   */\n      dup2\n        /* \"#utility.yul\":22532:22567   */\n      eq\n        /* \"#utility.yul\":22522:22585   */\n      tag_514\n      jumpi\n        /* \"#utility.yul\":22581:22582   */\n      0x00\n        /* \"#utility.yul\":22578:22579   */\n      dup1\n        /* \"#utility.yul\":22571:22583   */\n      revert\n        /* \"#utility.yul\":22522:22585   */\n    tag_514:\n        /* \"#utility.yul\":22469:22591   */\n      pop\n      jump\t// out\n        /* \"#utility.yul\":22597:22713   */\n    tag_271:\n        /* \"#utility.yul\":22667:22688   */\n      tag_516\n        /* \"#utility.yul\":22682:22687   */\n      dup2\n        /* \"#utility.yul\":22667:22688   */\n      tag_315\n      jump\t// in\n    tag_516:\n        /* \"#utility.yul\":22660:22665   */\n      dup2\n        /* \"#utility.yul\":22657:22689   */\n      eq\n        /* \"#utility.yul\":22647:22707   */\n      tag_517\n      jumpi\n        /* \"#utility.yul\":22703:22704   */\n      0x00\n        /* \"#utility.yul\":22700:22701   */\n      dup1\n        /* \"#utility.yul\":22693:22705   */\n      revert\n        /* \"#utility.yul\":22647:22707   */\n    tag_517:\n        /* \"#utility.yul\":22597:22713   */\n      pop\n      jump\t// out\n        /* \"#utility.yul\":22719:22841   */\n    tag_275:\n        /* \"#utility.yul\":22792:22816   */\n      tag_519\n        /* \"#utility.yul\":22810:22815   */\n      dup2\n        /* \"#utility.yul\":22792:22816   */\n      tag_384\n      jump\t// in\n    tag_519:\n        /* \"#utility.yul\":22785:22790   */\n      dup2\n        /* \"#utility.yul\":22782:22817   */\n      eq\n        /* \"#utility.yul\":22772:22835   */\n      tag_520\n      jumpi\n        /* \"#utility.yul\":22831:22832   */\n      0x00\n        /* \"#utility.yul\":22828:22829   */\n      dup1\n        /* \"#utility.yul\":22821:22833   */\n      revert\n        /* \"#utility.yul\":22772:22835   */\n    tag_520:\n        /* \"#utility.yul\":22719:22841   */\n      pop\n      jump\t// out\n\n    auxdata: 0xa264697066735822122031d30db87ba2be713a29ded1588e6cfdc74b6c5e9bbbe22e676cee24eec1d6d764736f6c63430008070033\n}\n",
				"bytecode": {
					"linkReferences": {},
					"object": "608060405260006006556000600755670de0b6b3a7640000600855670de0b6b3a7640000600955670de0b6b3a7640000600a553480156200003f57600080fd5b5060405162002b2138038062002b218339818101604052810190620000659190620004b6565b6040518060400160405280601181526020017f59756b692050726573616c6520506169720000000000000000000000000000008152506040518060400160405280600681526020017f594e2d50507300000000000000000000000000000000000000000000000000008152508160039080519060200190620000e9929190620003ef565b50806004908051906020019062000102929190620003ef565b50505062000125620001196200019560201b60201c565b6200019d60201b60201c565b62000161336200013a6200026360201b60201c565b600a62000148919062000675565b84620001559190620007b2565b6200026c60201b60201c565b80600854620001719190620005e2565b60068190555080600854620001879190620005e2565b600781905550505062000942565b600033905090565b6000600560009054906101000a900473ffffffffffffffffffffffffffffffffffffffff16905081600560006101000a81548173ffffffffffffffffffffffffffffffffffffffff021916908373ffffffffffffffffffffffffffffffffffffffff1602179055508173ffffffffffffffffffffffffffffffffffffffff168173ffffffffffffffffffffffffffffffffffffffff167f8be0079c531659141344cd1fd0a4f28419497f9722a3daafe3b4186f6b6457e060405160405180910390a35050565b60006012905090565b600073ffffffffffffffffffffffffffffffffffffffff168273ffffffffffffffffffffffffffffffffffffffff161415620002df576040517f08c379a0000000000000000000000000000000000000000000000000000000008152600401620002d69062000535565b60405180910390fd5b620002f360008383620003e560201b60201c565b806002600082825462000307919062000585565b92505081905550806000808473ffffffffffffffffffffffffffffffffffffffff1673ffffffffffffffffffffffffffffffffffffffff16815260200190815260200160002060008282546200035e919062000585565b925050819055508173ffffffffffffffffffffffffffffffffffffffff16600073ffffffffffffffffffffffffffffffffffffffff167fddf252ad1be2c89b69c2b068fc378daa952ba7f163c4a11628f55a4df523b3ef83604051620003c5919062000557565b60405180910390a3620003e160008383620003ea60201b60201c565b5050565b505050565b505050565b828054620003fd906200082a565b90600052602060002090601f0160209004810192826200042157600085556200046d565b82601f106200043c57805160ff19168380011785556200046d565b828001600101855582156200046d579182015b828111156200046c5782518255916020019190600101906200044f565b5b5090506200047c919062000480565b5090565b5b808211156200049b57600081600090555060010162000481565b5090565b600081519050620004b08162000928565b92915050565b60008060408385031215620004d057620004cf620008ed565b5b6000620004e0858286016200049f565b9250506020620004f3858286016200049f565b9150509250929050565b60006200050c601f8362000574565b91506200051982620008ff565b602082019050919050565b6200052f8162000813565b82525050565b600060208201905081810360008301526200055081620004fd565b9050919050565b60006020820190506200056e600083018462000524565b92915050565b600082825260208201905092915050565b6000620005928262000813565b91506200059f8362000813565b9250827fffffffffffffffffffffffffffffffffffffffffffffffffffffffffffffffff03821115620005d757620005d662000860565b5b828201905092915050565b6000620005ef8262000813565b9150620005fc8362000813565b9250826200060f576200060e6200088f565b5b828204905092915050565b6000808291508390505b60018511156200066c5780860481111562000644576200064362000860565b5b6001851615620006545780820291505b80810290506200066485620008f2565b945062000624565b94509492505050565b6000620006828262000813565b91506200068f836200081d565b9250620006be7fffffffffffffffffffffffffffffffffffffffffffffffffffffffffffffffff8484620006c6565b905092915050565b600082620006d85760019050620007ab565b81620006e85760009050620007ab565b81600181146200070157600281146200070c5762000742565b6001915050620007ab565b60ff84111562000721576200072062000860565b5b8360020a9150848211156200073b576200073a62000860565b5b50620007ab565b5060208310610133831016604e8410600b84101617156200077c5782820a90508381111562000776576200077562000860565b5b620007ab565b6200078b84848460016200061a565b92509050818404811115620007a557620007a462000860565b5b81810290505b9392505050565b6000620007bf8262000813565b9150620007cc8362000813565b9250817fffffffffffffffffffffffffffffffffffffffffffffffffffffffffffffffff048311821515161562000808576200080762000860565b5b828202905092915050565b6000819050919050565b600060ff82169050919050565b600060028204905060018216806200084357607f821691505b602082108114156200085a5762000859620008be565b5b50919050565b7f4e487b7100000000000000000000000000000000000000000000000000000000600052601160045260246000fd5b7f4e487b7100000000000000000000000000000000000000000000000000000000600052601260045260246000fd5b7f4e487b7100000000000000000000000000000000000000000000000000000000600052602260045260246000fd5b600080fd5b60008160011c9050919050565b7f45524332303a206d696e7420746f20746865207a65726f206164647265737300600082015250565b620009338162000813565b81146200093f57600080fd5b50565b6121cf80620009526000396000f3fe6080604052600436106100f35760003560e01c8063715018a61161008a578063a6f2ae3a11610059578063a6f2ae3a14610340578063a9059cbb1461034a578063dd62ed3e14610387578063f2fde38b146103c4576100f3565b8063715018a6146102965780638da5cb5b146102ad57806395d89b41146102d8578063a457c2d714610303576100f3565b8063313ce567116100c6578063313ce567146101c857806339509351146101f35780634664ffea1461023057806370a0823114610259576100f3565b806306fdde03146100f8578063095ea7b31461012357806318160ddd1461016057806323b872dd1461018b575b600080fd5b34801561010457600080fd5b5061010d6103ed565b60405161011a9190611885565b60405180910390f35b34801561012f57600080fd5b5061014a60048036038101906101459190611596565b61047f565b604051610157919061186a565b60405180910390f35b34801561016c57600080fd5b5061017561049d565b6040516101829190611a07565b60405180910390f35b34801561019757600080fd5b506101b260048036038101906101ad9190611543565b6104a7565b6040516101bf919061186a565b60405180910390f35b3480156101d457600080fd5b506101dd61059f565b6040516101ea9190611a22565b60405180910390f35b3480156101ff57600080fd5b5061021a60048036038101906102159190611596565b6105a8565b604051610227919061186a565b60405180910390f35b34801561023c57600080fd5b5061025760048036038101906102529190611596565b610654565b005b34801561026557600080fd5b50610280600480360381019061027b91906114d6565b6107fd565b60405161028d9190611a07565b60405180910390f35b3480156102a257600080fd5b506102ab610845565b005b3480156102b957600080fd5b506102c26108cd565b6040516102cf9190611826565b60405180910390f35b3480156102e457600080fd5b506102ed6108f7565b6040516102fa9190611885565b60405180910390f35b34801561030f57600080fd5b5061032a60048036038101906103259190611596565b610989565b604051610337919061186a565b60405180910390f35b610348610a74565b005b34801561035657600080fd5b50610371600480360381019061036c9190611596565b610c07565b60405161037e919061186a565b60405180910390f35b34801561039357600080fd5b506103ae60048036038101906103a99190611503565b610d95565b6040516103bb9190611a07565b60405180910390f35b3480156103d057600080fd5b506103eb60048036038101906103e691906114d6565b610e1c565b005b6060600380546103fc90611d33565b80601f016020809104026020016040519081016040528092919081815260200182805461042890611d33565b80156104755780601f1061044a57610100808354040283529160200191610475565b820191906000526020600020905b81548152906001019060200180831161045857829003601f168201915b5050505050905090565b600061049361048c610f14565b8484610f1c565b6001905092915050565b6000600254905090565b60006104b48484846110e7565b6000600160008673ffffffffffffffffffffffffffffffffffffffff1673ffffffffffffffffffffffffffffffffffffffff16815260200190815260200160002060006104ff610f14565b73ffffffffffffffffffffffffffffffffffffffff1673ffffffffffffffffffffffffffffffffffffffff1681526020019081526020016000205490508281101561057f576040517f08c379a000000000000000000000000000000000000000000000000000000000815260040161057690611927565b60405180910390fd5b6105938561058b610f14565b858403610f1c565b60019150509392505050565b60006012905090565b600061064a6105b5610f14565b8484600160006105c3610f14565b73ffffffffffffffffffffffffffffffffffffffff1673ffffffffffffffffffffffffffffffffffffffff16815260200190815260200160002060008873ffffffffffffffffffffffffffffffffffffffff1673ffffffffffffffffffffffffffffffffffffffff168152602001908152602001600020546106459190611a59565b610f1c565b6001905092915050565b61065c610f14565b73ffffffffffffffffffffffffffffffffffffffff1661067a6108cd565b73ffffffffffffffffffffffffffffffffffffffff16146106d0576040517f08c379a00000000000000000000000000000000000000000000000000000000081526004016106c790611947565b60405180910390fd5b60003090508073ffffffffffffffffffffffffffffffffffffffff166370a08231306040518263ffffffff1660e01b815260040161070e9190611826565b60206040518083038186803b15801561072657600080fd5b505afa15801561073a573d6000803e3d6000fd5b505050506040513d601f19601f8201168201806040525081019061075e9190611603565b82111561076a57600080fd5b8073ffffffffffffffffffffffffffffffffffffffff1663a9059cbb84846040518363ffffffff1660e01b81526004016107a5929190611841565b602060405180830381600087803b1580156107bf57600080fd5b505af11580156107d3573d6000803e3d6000fd5b505050506040513d601f19601f820116820180604052508101906107f791906115d6565b50505050565b60008060008373ffffffffffffffffffffffffffffffffffffffff1673ffffffffffffffffffffffffffffffffffffffff168152602001908152602001600020549050919050565b61084d610f14565b73ffffffffffffffffffffffffffffffffffffffff1661086b6108cd565b73ffffffffffffffffffffffffffffffffffffffff16146108c1576040517f08c379a00000000000000000000000000000000000000000000000000000000081526004016108b890611947565b60405180910390fd5b6108cb6000611368565b565b6000600560009054906101000a900473ffffffffffffffffffffffffffffffffffffffff16905090565b60606004805461090690611d33565b80601f016020809104026020016040519081016040528092919081815260200182805461093290611d33565b801561097f5780601f106109545761010080835404028352916020019161097f565b820191906000526020600020905b81548152906001019060200180831161096257829003601f168201915b5050505050905090565b60008060016000610998610f14565b73ffffffffffffffffffffffffffffffffffffffff1673ffffffffffffffffffffffffffffffffffffffff16815260200190815260200160002060008573ffffffffffffffffffffffffffffffffffffffff1673ffffffffffffffffffffffffffffffffffffffff16815260200190815260200160002054905082811015610a55576040517f08c379a0000000000000000000000000000000000000000000000000000000008152600401610a4c906119e7565b60405180910390fd5b610a69610a60610f14565b85858403610f1c565b600191505092915050565b600030905060003490506000610ac6600654610ab8610a9161059f565b600a610a9d9190611b33565b6001610aa99190611c51565b8561142e90919063ffffffff16565b61144490919063ffffffff16565b90506009548111610bbc578273ffffffffffffffffffffffffffffffffffffffff166370a08231306040518263ffffffff1660e01b8152600401610b0a9190611826565b60206040518083038186803b158015610b2257600080fd5b505afa158015610b36573d6000803e3d6000fd5b505050506040513d601f19601f82011682018060405250810190610b5a9190611603565b8111610b6f57610b6a3382610654565b610bb7565b3373ffffffffffffffffffffffffffffffffffffffff166108fc839081150290604051600060405180830381858888f19350505050158015610bb5573d6000803e3d6000fd5b505b610c02565b600a54821115610c01576040517f08c379a0000000000000000000000000000000000000000000000000000000008152600401610bf8906119a7565b60405180910390fd5b5b505050565b600080610c14848461145a565b905060008390503073ffffffffffffffffffffffffffffffffffffffff168573ffffffffffffffffffffffffffffffffffffffff161415610d8a576000610c97610c5c61059f565b600a610c689190611b33565b6001610c749190611c51565b610c896007548561142e90919063ffffffff16565b61144490919063ffffffff16565b9050600a548211610d4257478111610cf5573373ffffffffffffffffffffffffffffffffffffffff166108fc829081150290604051600060405180830381858888f19350505050158015610cef573d6000803e3d6000fd5b50610d3d565b3373ffffffffffffffffffffffffffffffffffffffff166108fc839081150290604051600060405180830381858888f19350505050158015610d3b573d6000803e3d6000fd5b505b610d88565b600a54821115610d87576040517f08c379a0000000000000000000000000000000000000000000000000000000008152600401610d7e90611967565b60405180910390fd5b5b505b819250505092915050565b6000600160008473ffffffffffffffffffffffffffffffffffffffff1673ffffffffffffffffffffffffffffffffffffffff16815260200190815260200160002060008373ffffffffffffffffffffffffffffffffffffffff1673ffffffffffffffffffffffffffffffffffffffff16815260200190815260200160002054905092915050565b610e24610f14565b73ffffffffffffffffffffffffffffffffffffffff16610e426108cd565b73ffffffffffffffffffffffffffffffffffffffff1614610e98576040517f08c379a0000000000000000000000000000000000000000000000000000000008152600401610e8f90611947565b60405180910390fd5b600073ffffffffffffffffffffffffffffffffffffffff168173ffffffffffffffffffffffffffffffffffffffff161415610f08576040517f08c379a0000000000000000000000000000000000000000000000000000000008152600401610eff906118c7565b60405180910390fd5b610f1181611368565b50565b600033905090565b600073ffffffffffffffffffffffffffffffffffffffff168373ffffffffffffffffffffffffffffffffffffffff161415610f8c576040517f08c379a0000000000000000000000000000000000000000000000000000000008152600401610f83906119c7565b60405180910390fd5b600073ffffffffffffffffffffffffffffffffffffffff168273ffffffffffffffffffffffffffffffffffffffff161415610ffc576040517f08c379a0000000000000000000000000000000000000000000000000000000008152600401610ff3906118e7565b60405180910390fd5b80600160008573ffffffffffffffffffffffffffffffffffffffff1673ffffffffffffffffffffffffffffffffffffffff16815260200190815260200160002060008473ffffffffffffffffffffffffffffffffffffffff1673ffffffffffffffffffffffffffffffffffffffff168152602001908152602001600020819055508173ffffffffffffffffffffffffffffffffffffffff168373ffffffffffffffffffffffffffffffffffffffff167f8c5be1e5ebec7d5bd14f71427d1e84f3dd0314c0f7b2291e5b200ac8c7c3b925836040516110da9190611a07565b60405180910390a3505050565b600073ffffffffffffffffffffffffffffffffffffffff168373ffffffffffffffffffffffffffffffffffffffff161415611157576040517f08c379a000000000000000000000000000000000000000000000000000000000815260040161114e90611987565b60405180910390fd5b600073ffffffffffffffffffffffffffffffffffffffff168273ffffffffffffffffffffffffffffffffffffffff1614156111c7576040517f08c379a00000000000000000000000000000000000000000000000000000000081526004016111be906118a7565b60405180910390fd5b6111d2838383611478565b60008060008573ffffffffffffffffffffffffffffffffffffffff1673ffffffffffffffffffffffffffffffffffffffff16815260200190815260200160002054905081811015611258576040517f08c379a000000000000000000000000000000000000000000000000000000000815260040161124f90611907565b60405180910390fd5b8181036000808673ffffffffffffffffffffffffffffffffffffffff1673ffffffffffffffffffffffffffffffffffffffff16815260200190815260200160002081905550816000808573ffffffffffffffffffffffffffffffffffffffff1673ffffffffffffffffffffffffffffffffffffffff16815260200190815260200160002060008282546112eb9190611a59565b925050819055508273ffffffffffffffffffffffffffffffffffffffff168473ffffffffffffffffffffffffffffffffffffffff167fddf252ad1be2c89b69c2b068fc378daa952ba7f163c4a11628f55a4df523b3ef8460405161134f9190611a07565b60405180910390a361136284848461147d565b50505050565b6000600560009054906101000a900473ffffffffffffffffffffffffffffffffffffffff16905081600560006101000a81548173ffffffffffffffffffffffffffffffffffffffff021916908373ffffffffffffffffffffffffffffffffffffffff1602179055508173ffffffffffffffffffffffffffffffffffffffff168173ffffffffffffffffffffffffffffffffffffffff167f8be0079c531659141344cd1fd0a4f28419497f9722a3daafe3b4186f6b6457e060405160405180910390a35050565b6000818361143c9190611c51565b905092915050565b600081836114529190611aaf565b905092915050565b600061146e611467610f14565b84846110e7565b6001905092915050565b505050565b505050565b60008135905061149181612154565b92915050565b6000815190506114a68161216b565b92915050565b6000813590506114bb81612182565b92915050565b6000815190506114d081612182565b92915050565b6000602082840312156114ec576114eb611df2565b5b60006114fa84828501611482565b91505092915050565b6000806040838503121561151a57611519611df2565b5b600061152885828601611482565b925050602061153985828601611482565b9150509250929050565b60008060006060848603121561155c5761155b611df2565b5b600061156a86828701611482565b935050602061157b86828701611482565b925050604061158c868287016114ac565b9150509250925092565b600080604083850312156115ad576115ac611df2565b5b60006115bb85828601611482565b92505060206115cc858286016114ac565b9150509250929050565b6000602082840312156115ec576115eb611df2565b5b60006115fa84828501611497565b91505092915050565b60006020828403121561161957611618611df2565b5b6000611627848285016114c1565b91505092915050565b61163981611cab565b82525050565b61164881611cbd565b82525050565b600061165982611a3d565b6116638185611a48565b9350611673818560208601611d00565b61167c81611df7565b840191505092915050565b6000611694602383611a48565b915061169f82611e15565b604082019050919050565b60006116b7602683611a48565b91506116c282611e64565b604082019050919050565b60006116da602283611a48565b91506116e582611eb3565b604082019050919050565b60006116fd602683611a48565b915061170882611f02565b604082019050919050565b6000611720602883611a48565b915061172b82611f51565b604082019050919050565b6000611743602083611a48565b915061174e82611fa0565b602082019050919050565b6000611766602283611a48565b915061177182611fc9565b604082019050919050565b6000611789602583611a48565b915061179482612018565b604082019050919050565b60006117ac602583611a48565b91506117b782612067565b604082019050919050565b60006117cf602483611a48565b91506117da826120b6565b604082019050919050565b60006117f2602583611a48565b91506117fd82612105565b604082019050919050565b61181181611ce9565b82525050565b61182081611cf3565b82525050565b600060208201905061183b6000830184611630565b92915050565b60006040820190506118566000830185611630565b6118636020830184611808565b9392505050565b600060208201905061187f600083018461163f565b92915050565b6000602082019050818103600083015261189f818461164e565b905092915050565b600060208201905081810360008301526118c081611687565b9050919050565b600060208201905081810360008301526118e0816116aa565b9050919050565b60006020820190508181036000830152611900816116cd565b9050919050565b60006020820190508181036000830152611920816116f0565b9050919050565b6000602082019050818103600083015261194081611713565b9050919050565b6000602082019050818103600083015261196081611736565b9050919050565b6000602082019050818103600083015261198081611759565b9050919050565b600060208201905081810360008301526119a08161177c565b9050919050565b600060208201905081810360008301526119c08161179f565b9050919050565b600060208201905081810360008301526119e0816117c2565b9050919050565b60006020820190508181036000830152611a00816117e5565b9050919050565b6000602082019050611a1c6000830184611808565b92915050565b6000602082019050611a376000830184611817565b92915050565b600081519050919050565b600082825260208201905092915050565b6000611a6482611ce9565b9150611a6f83611ce9565b9250827fffffffffffffffffffffffffffffffffffffffffffffffffffffffffffffffff03821115611aa457611aa3611d65565b5b828201905092915050565b6000611aba82611ce9565b9150611ac583611ce9565b925082611ad557611ad4611d94565b5b828204905092915050565b6000808291508390505b6001851115611b2a57808604811115611b0657611b05611d65565b5b6001851615611b155780820291505b8081029050611b2385611e08565b9450611aea565b94509492505050565b6000611b3e82611ce9565b9150611b4983611cf3565b9250611b767fffffffffffffffffffffffffffffffffffffffffffffffffffffffffffffffff8484611b7e565b905092915050565b600082611b8e5760019050611c4a565b81611b9c5760009050611c4a565b8160018114611bb25760028114611bbc57611beb565b6001915050611c4a565b60ff841115611bce57611bcd611d65565b5b8360020a915084821115611be557611be4611d65565b5b50611c4a565b5060208310610133831016604e8410600b8410161715611c205782820a905083811115611c1b57611c1a611d65565b5b611c4a565b611c2d8484846001611ae0565b92509050818404811115611c4457611c43611d65565b5b81810290505b9392505050565b6000611c5c82611ce9565b9150611c6783611ce9565b9250817fffffffffffffffffffffffffffffffffffffffffffffffffffffffffffffffff0483118215151615611ca057611c9f611d65565b5b828202905092915050565b6000611cb682611cc9565b9050919050565b60008115159050919050565b600073ffffffffffffffffffffffffffffffffffffffff82169050919050565b6000819050919050565b600060ff82169050919050565b60005b83811015611d1e578082015181840152602081019050611d03565b83811115611d2d576000848401525b50505050565b60006002820490506001821680611d4b57607f821691505b60208210811415611d5f57611d5e611dc3565b5b50919050565b7f4e487b7100000000000000000000000000000000000000000000000000000000600052601160045260246000fd5b7f4e487b7100000000000000000000000000000000000000000000000000000000600052601260045260246000fd5b7f4e487b7100000000000000000000000000000000000000000000000000000000600052602260045260246000fd5b600080fd5b6000601f19601f8301169050919050565b60008160011c9050919050565b7f45524332303a207472616e7366657220746f20746865207a65726f206164647260008201527f6573730000000000000000000000000000000000000000000000000000000000602082015250565b7f4f776e61626c653a206e6577206f776e657220697320746865207a65726f206160008201527f6464726573730000000000000000000000000000000000000000000000000000602082015250565b7f45524332303a20617070726f766520746f20746865207a65726f20616464726560008201527f7373000000000000000000000000000000000000000000000000000000000000602082015250565b7f45524332303a207472616e7366657220616d6f756e742065786365656473206260008201527f616c616e63650000000000000000000000000000000000000000000000000000602082015250565b7f45524332303a207472616e7366657220616d6f756e742065786365656473206160008201527f6c6c6f77616e6365000000000000000000000000000000000000000000000000602082015250565b7f4f776e61626c653a2063616c6c6572206973206e6f7420746865206f776e6572600082015250565b7f594e50726573616c653a204d41582053414c4520414d4f554e5420455843454560008201527f442e000000000000000000000000000000000000000000000000000000000000602082015250565b7f45524332303a207472616e736665722066726f6d20746865207a65726f20616460008201527f6472657373000000000000000000000000000000000000000000000000000000602082015250565b7f594e50726573616c653a20414d4f554e542053414c4520414d4f554e5420455860008201527f434545442e000000000000000000000000000000000000000000000000000000602082015250565b7f45524332303a20617070726f76652066726f6d20746865207a65726f2061646460008201527f7265737300000000000000000000000000000000000000000000000000000000602082015250565b7f45524332303a2064656372656173656420616c6c6f77616e63652062656c6f7760008201527f207a65726f000000000000000000000000000000000000000000000000000000602082015250565b61215d81611cab565b811461216857600080fd5b50565b61217481611cbd565b811461217f57600080fd5b50565b61218b81611ce9565b811461219657600080fd5b5056fea264697066735822122031d30db87ba2be713a29ded1588e6cfdc74b6c5e9bbbe22e676cee24eec1d6d764736f6c63430008070033",
					"opcodes": "PUSH1 0x80 PUSH1 0x40 MSTORE PUSH1 0x0 PUSH1 0x6 SSTORE PUSH1 0x0 PUSH1 0x7 SSTORE PUSH8 0xDE0B6B3A7640000 PUSH1 0x8 SSTORE PUSH8 0xDE0B6B3A7640000 PUSH1 0x9 SSTORE PUSH8 0xDE0B6B3A7640000 PUSH1 0xA SSTORE CALLVALUE DUP1 ISZERO PUSH3 0x3F JUMPI PUSH1 0x0 DUP1 REVERT JUMPDEST POP PUSH1 0x40 MLOAD PUSH3 0x2B21 CODESIZE SUB DUP1 PUSH3 0x2B21 DUP4 CODECOPY DUP2 DUP2 ADD PUSH1 0x40 MSTORE DUP2 ADD SWAP1 PUSH3 0x65 SWAP2 SWAP1 PUSH3 0x4B6 JUMP JUMPDEST PUSH1 0x40 MLOAD DUP1 PUSH1 0x40 ADD PUSH1 0x40 MSTORE DUP1 PUSH1 0x11 DUP2 MSTORE PUSH1 0x20 ADD PUSH32 0x59756B692050726573616C652050616972000000000000000000000000000000 DUP2 MSTORE POP PUSH1 0x40 MLOAD DUP1 PUSH1 0x40 ADD PUSH1 0x40 MSTORE DUP1 PUSH1 0x6 DUP2 MSTORE PUSH1 0x20 ADD PUSH32 0x594E2D5050730000000000000000000000000000000000000000000000000000 DUP2 MSTORE POP DUP2 PUSH1 0x3 SWAP1 DUP1 MLOAD SWAP1 PUSH1 0x20 ADD SWAP1 PUSH3 0xE9 SWAP3 SWAP2 SWAP1 PUSH3 0x3EF JUMP JUMPDEST POP DUP1 PUSH1 0x4 SWAP1 DUP1 MLOAD SWAP1 PUSH1 0x20 ADD SWAP1 PUSH3 0x102 SWAP3 SWAP2 SWAP1 PUSH3 0x3EF JUMP JUMPDEST POP POP POP PUSH3 0x125 PUSH3 0x119 PUSH3 0x195 PUSH1 0x20 SHL PUSH1 0x20 SHR JUMP JUMPDEST PUSH3 0x19D PUSH1 0x20 SHL PUSH1 0x20 SHR JUMP JUMPDEST PUSH3 0x161 CALLER PUSH3 0x13A PUSH3 0x263 PUSH1 0x20 SHL PUSH1 0x20 SHR JUMP JUMPDEST PUSH1 0xA PUSH3 0x148 SWAP2 SWAP1 PUSH3 0x675 JUMP JUMPDEST DUP5 PUSH3 0x155 SWAP2 SWAP1 PUSH3 0x7B2 JUMP JUMPDEST PUSH3 0x26C PUSH1 0x20 SHL PUSH1 0x20 SHR JUMP JUMPDEST DUP1 PUSH1 0x8 SLOAD PUSH3 0x171 SWAP2 SWAP1 PUSH3 0x5E2 JUMP JUMPDEST PUSH1 0x6 DUP2 SWAP1 SSTORE POP DUP1 PUSH1 0x8 SLOAD PUSH3 0x187 SWAP2 SWAP1 PUSH3 0x5E2 JUMP JUMPDEST PUSH1 0x7 DUP2 SWAP1 SSTORE POP POP POP PUSH3 0x942 JUMP JUMPDEST PUSH1 0x0 CALLER SWAP1 POP SWAP1 JUMP JUMPDEST PUSH1 0x0 PUSH1 0x5 PUSH1 0x0 SWAP1 SLOAD SWAP1 PUSH2 0x100 EXP SWAP1 DIV PUSH20 0xFFFFFFFFFFFFFFFFFFFFFFFFFFFFFFFFFFFFFFFF AND SWAP1 POP DUP2 PUSH1 0x5 PUSH1 0x0 PUSH2 0x100 EXP DUP2 SLOAD DUP2 PUSH20 0xFFFFFFFFFFFFFFFFFFFFFFFFFFFFFFFFFFFFFFFF MUL NOT AND SWAP1 DUP4 PUSH20 0xFFFFFFFFFFFFFFFFFFFFFFFFFFFFFFFFFFFFFFFF AND MUL OR SWAP1 SSTORE POP DUP2 PUSH20 0xFFFFFFFFFFFFFFFFFFFFFFFFFFFFFFFFFFFFFFFF AND DUP2 PUSH20 0xFFFFFFFFFFFFFFFFFFFFFFFFFFFFFFFFFFFFFFFF AND PUSH32 0x8BE0079C531659141344CD1FD0A4F28419497F9722A3DAAFE3B4186F6B6457E0 PUSH1 0x40 MLOAD PUSH1 0x40 MLOAD DUP1 SWAP2 SUB SWAP1 LOG3 POP POP JUMP JUMPDEST PUSH1 0x0 PUSH1 0x12 SWAP1 POP SWAP1 JUMP JUMPDEST PUSH1 0x0 PUSH20 0xFFFFFFFFFFFFFFFFFFFFFFFFFFFFFFFFFFFFFFFF AND DUP3 PUSH20 0xFFFFFFFFFFFFFFFFFFFFFFFFFFFFFFFFFFFFFFFF AND EQ ISZERO PUSH3 0x2DF JUMPI PUSH1 0x40 MLOAD PUSH32 0x8C379A000000000000000000000000000000000000000000000000000000000 DUP2 MSTORE PUSH1 0x4 ADD PUSH3 0x2D6 SWAP1 PUSH3 0x535 JUMP JUMPDEST PUSH1 0x40 MLOAD DUP1 SWAP2 SUB SWAP1 REVERT JUMPDEST PUSH3 0x2F3 PUSH1 0x0 DUP4 DUP4 PUSH3 0x3E5 PUSH1 0x20 SHL PUSH1 0x20 SHR JUMP JUMPDEST DUP1 PUSH1 0x2 PUSH1 0x0 DUP3 DUP3 SLOAD PUSH3 0x307 SWAP2 SWAP1 PUSH3 0x585 JUMP JUMPDEST SWAP3 POP POP DUP2 SWAP1 SSTORE POP DUP1 PUSH1 0x0 DUP1 DUP5 PUSH20 0xFFFFFFFFFFFFFFFFFFFFFFFFFFFFFFFFFFFFFFFF AND PUSH20 0xFFFFFFFFFFFFFFFFFFFFFFFFFFFFFFFFFFFFFFFF AND DUP2 MSTORE PUSH1 0x20 ADD SWAP1 DUP2 MSTORE PUSH1 0x20 ADD PUSH1 0x0 KECCAK256 PUSH1 0x0 DUP3 DUP3 SLOAD PUSH3 0x35E SWAP2 SWAP1 PUSH3 0x585 JUMP JUMPDEST SWAP3 POP POP DUP2 SWAP1 SSTORE POP DUP2 PUSH20 0xFFFFFFFFFFFFFFFFFFFFFFFFFFFFFFFFFFFFFFFF AND PUSH1 0x0 PUSH20 0xFFFFFFFFFFFFFFFFFFFFFFFFFFFFFFFFFFFFFFFF AND PUSH32 0xDDF252AD1BE2C89B69C2B068FC378DAA952BA7F163C4A11628F55A4DF523B3EF DUP4 PUSH1 0x40 MLOAD PUSH3 0x3C5 SWAP2 SWAP1 PUSH3 0x557 JUMP JUMPDEST PUSH1 0x40 MLOAD DUP1 SWAP2 SUB SWAP1 LOG3 PUSH3 0x3E1 PUSH1 0x0 DUP4 DUP4 PUSH3 0x3EA PUSH1 0x20 SHL PUSH1 0x20 SHR JUMP JUMPDEST POP POP JUMP JUMPDEST POP POP POP JUMP JUMPDEST POP POP POP JUMP JUMPDEST DUP3 DUP1 SLOAD PUSH3 0x3FD SWAP1 PUSH3 0x82A JUMP JUMPDEST SWAP1 PUSH1 0x0 MSTORE PUSH1 0x20 PUSH1 0x0 KECCAK256 SWAP1 PUSH1 0x1F ADD PUSH1 0x20 SWAP1 DIV DUP2 ADD SWAP3 DUP3 PUSH3 0x421 JUMPI PUSH1 0x0 DUP6 SSTORE PUSH3 0x46D JUMP JUMPDEST DUP3 PUSH1 0x1F LT PUSH3 0x43C JUMPI DUP1 MLOAD PUSH1 0xFF NOT AND DUP4 DUP1 ADD OR DUP6 SSTORE PUSH3 0x46D JUMP JUMPDEST DUP3 DUP1 ADD PUSH1 0x1 ADD DUP6 SSTORE DUP3 ISZERO PUSH3 0x46D JUMPI SWAP2 DUP3 ADD JUMPDEST DUP3 DUP2 GT ISZERO PUSH3 0x46C JUMPI DUP3 MLOAD DUP3 SSTORE SWAP2 PUSH1 0x20 ADD SWAP2 SWAP1 PUSH1 0x1 ADD SWAP1 PUSH3 0x44F JUMP JUMPDEST JUMPDEST POP SWAP1 POP PUSH3 0x47C SWAP2 SWAP1 PUSH3 0x480 JUMP JUMPDEST POP SWAP1 JUMP JUMPDEST JUMPDEST DUP1 DUP3 GT ISZERO PUSH3 0x49B JUMPI PUSH1 0x0 DUP2 PUSH1 0x0 SWAP1 SSTORE POP PUSH1 0x1 ADD PUSH3 0x481 JUMP JUMPDEST POP SWAP1 JUMP JUMPDEST PUSH1 0x0 DUP2 MLOAD SWAP1 POP PUSH3 0x4B0 DUP2 PUSH3 0x928 JUMP JUMPDEST SWAP3 SWAP2 POP POP JUMP JUMPDEST PUSH1 0x0 DUP1 PUSH1 0x40 DUP4 DUP6 SUB SLT ISZERO PUSH3 0x4D0 JUMPI PUSH3 0x4CF PUSH3 0x8ED JUMP JUMPDEST JUMPDEST PUSH1 0x0 PUSH3 0x4E0 DUP6 DUP3 DUP7 ADD PUSH3 0x49F JUMP JUMPDEST SWAP3 POP POP PUSH1 0x20 PUSH3 0x4F3 DUP6 DUP3 DUP7 ADD PUSH3 0x49F JUMP JUMPDEST SWAP2 POP POP SWAP3 POP SWAP3 SWAP1 POP JUMP JUMPDEST PUSH1 0x0 PUSH3 0x50C PUSH1 0x1F DUP4 PUSH3 0x574 JUMP JUMPDEST SWAP2 POP PUSH3 0x519 DUP3 PUSH3 0x8FF JUMP JUMPDEST PUSH1 0x20 DUP3 ADD SWAP1 POP SWAP2 SWAP1 POP JUMP JUMPDEST PUSH3 0x52F DUP2 PUSH3 0x813 JUMP JUMPDEST DUP3 MSTORE POP POP JUMP JUMPDEST PUSH1 0x0 PUSH1 0x20 DUP3 ADD SWAP1 POP DUP2 DUP2 SUB PUSH1 0x0 DUP4 ADD MSTORE PUSH3 0x550 DUP2 PUSH3 0x4FD JUMP JUMPDEST SWAP1 POP SWAP2 SWAP1 POP JUMP JUMPDEST PUSH1 0x0 PUSH1 0x20 DUP3 ADD SWAP1 POP PUSH3 0x56E PUSH1 0x0 DUP4 ADD DUP5 PUSH3 0x524 JUMP JUMPDEST SWAP3 SWAP2 POP POP JUMP JUMPDEST PUSH1 0x0 DUP3 DUP3 MSTORE PUSH1 0x20 DUP3 ADD SWAP1 POP SWAP3 SWAP2 POP POP JUMP JUMPDEST PUSH1 0x0 PUSH3 0x592 DUP3 PUSH3 0x813 JUMP JUMPDEST SWAP2 POP PUSH3 0x59F DUP4 PUSH3 0x813 JUMP JUMPDEST SWAP3 POP DUP3 PUSH32 0xFFFFFFFFFFFFFFFFFFFFFFFFFFFFFFFFFFFFFFFFFFFFFFFFFFFFFFFFFFFFFFFF SUB DUP3 GT ISZERO PUSH3 0x5D7 JUMPI PUSH3 0x5D6 PUSH3 0x860 JUMP JUMPDEST JUMPDEST DUP3 DUP3 ADD SWAP1 POP SWAP3 SWAP2 POP POP JUMP JUMPDEST PUSH1 0x0 PUSH3 0x5EF DUP3 PUSH3 0x813 JUMP JUMPDEST SWAP2 POP PUSH3 0x5FC DUP4 PUSH3 0x813 JUMP JUMPDEST SWAP3 POP DUP3 PUSH3 0x60F JUMPI PUSH3 0x60E PUSH3 0x88F JUMP JUMPDEST JUMPDEST DUP3 DUP3 DIV SWAP1 POP SWAP3 SWAP2 POP POP JUMP JUMPDEST PUSH1 0x0 DUP1 DUP3 SWAP2 POP DUP4 SWAP1 POP JUMPDEST PUSH1 0x1 DUP6 GT ISZERO PUSH3 0x66C JUMPI DUP1 DUP7 DIV DUP2 GT ISZERO PUSH3 0x644 JUMPI PUSH3 0x643 PUSH3 0x860 JUMP JUMPDEST JUMPDEST PUSH1 0x1 DUP6 AND ISZERO PUSH3 0x654 JUMPI DUP1 DUP3 MUL SWAP2 POP JUMPDEST DUP1 DUP2 MUL SWAP1 POP PUSH3 0x664 DUP6 PUSH3 0x8F2 JUMP JUMPDEST SWAP5 POP PUSH3 0x624 JUMP JUMPDEST SWAP5 POP SWAP5 SWAP3 POP POP POP JUMP JUMPDEST PUSH1 0x0 PUSH3 0x682 DUP3 PUSH3 0x813 JUMP JUMPDEST SWAP2 POP PUSH3 0x68F DUP4 PUSH3 0x81D JUMP JUMPDEST SWAP3 POP PUSH3 0x6BE PUSH32 0xFFFFFFFFFFFFFFFFFFFFFFFFFFFFFFFFFFFFFFFFFFFFFFFFFFFFFFFFFFFFFFFF DUP5 DUP5 PUSH3 0x6C6 JUMP JUMPDEST SWAP1 POP SWAP3 SWAP2 POP POP JUMP JUMPDEST PUSH1 0x0 DUP3 PUSH3 0x6D8 JUMPI PUSH1 0x1 SWAP1 POP PUSH3 0x7AB JUMP JUMPDEST DUP2 PUSH3 0x6E8 JUMPI PUSH1 0x0 SWAP1 POP PUSH3 0x7AB JUMP JUMPDEST DUP2 PUSH1 0x1 DUP2 EQ PUSH3 0x701 JUMPI PUSH1 0x2 DUP2 EQ PUSH3 0x70C JUMPI PUSH3 0x742 JUMP JUMPDEST PUSH1 0x1 SWAP2 POP POP PUSH3 0x7AB JUMP JUMPDEST PUSH1 0xFF DUP5 GT ISZERO PUSH3 0x721 JUMPI PUSH3 0x720 PUSH3 0x860 JUMP JUMPDEST JUMPDEST DUP4 PUSH1 0x2 EXP SWAP2 POP DUP5 DUP3 GT ISZERO PUSH3 0x73B JUMPI PUSH3 0x73A PUSH3 0x860 JUMP JUMPDEST JUMPDEST POP PUSH3 0x7AB JUMP JUMPDEST POP PUSH1 0x20 DUP4 LT PUSH2 0x133 DUP4 LT AND PUSH1 0x4E DUP5 LT PUSH1 0xB DUP5 LT AND OR ISZERO PUSH3 0x77C JUMPI DUP3 DUP3 EXP SWAP1 POP DUP4 DUP2 GT ISZERO PUSH3 0x776 JUMPI PUSH3 0x775 PUSH3 0x860 JUMP JUMPDEST JUMPDEST PUSH3 0x7AB JUMP JUMPDEST PUSH3 0x78B DUP5 DUP5 DUP5 PUSH1 0x1 PUSH3 0x61A JUMP JUMPDEST SWAP3 POP SWAP1 POP DUP2 DUP5 DIV DUP2 GT ISZERO PUSH3 0x7A5 JUMPI PUSH3 0x7A4 PUSH3 0x860 JUMP JUMPDEST JUMPDEST DUP2 DUP2 MUL SWAP1 POP JUMPDEST SWAP4 SWAP3 POP POP POP JUMP JUMPDEST PUSH1 0x0 PUSH3 0x7BF DUP3 PUSH3 0x813 JUMP JUMPDEST SWAP2 POP PUSH3 0x7CC DUP4 PUSH3 0x813 JUMP JUMPDEST SWAP3 POP DUP2 PUSH32 0xFFFFFFFFFFFFFFFFFFFFFFFFFFFFFFFFFFFFFFFFFFFFFFFFFFFFFFFFFFFFFFFF DIV DUP4 GT DUP3 ISZERO ISZERO AND ISZERO PUSH3 0x808 JUMPI PUSH3 0x807 PUSH3 0x860 JUMP JUMPDEST JUMPDEST DUP3 DUP3 MUL SWAP1 POP SWAP3 SWAP2 POP POP JUMP JUMPDEST PUSH1 0x0 DUP2 SWAP1 POP SWAP2 SWAP1 POP JUMP JUMPDEST PUSH1 0x0 PUSH1 0xFF DUP3 AND SWAP1 POP SWAP2 SWAP1 POP JUMP JUMPDEST PUSH1 0x0 PUSH1 0x2 DUP3 DIV SWAP1 POP PUSH1 0x1 DUP3 AND DUP1 PUSH3 0x843 JUMPI PUSH1 0x7F DUP3 AND SWAP2 POP JUMPDEST PUSH1 0x20 DUP3 LT DUP2 EQ ISZERO PUSH3 0x85A JUMPI PUSH3 0x859 PUSH3 0x8BE JUMP JUMPDEST JUMPDEST POP SWAP2 SWAP1 POP JUMP JUMPDEST PUSH32 0x4E487B7100000000000000000000000000000000000000000000000000000000 PUSH1 0x0 MSTORE PUSH1 0x11 PUSH1 0x4 MSTORE PUSH1 0x24 PUSH1 0x0 REVERT JUMPDEST PUSH32 0x4E487B7100000000000000000000000000000000000000000000000000000000 PUSH1 0x0 MSTORE PUSH1 0x12 PUSH1 0x4 MSTORE PUSH1 0x24 PUSH1 0x0 REVERT JUMPDEST PUSH32 0x4E487B7100000000000000000000000000000000000000000000000000000000 PUSH1 0x0 MSTORE PUSH1 0x22 PUSH1 0x4 MSTORE PUSH1 0x24 PUSH1 0x0 REVERT JUMPDEST PUSH1 0x0 DUP1 REVERT JUMPDEST PUSH1 0x0 DUP2 PUSH1 0x1 SHR SWAP1 POP SWAP2 SWAP1 POP JUMP JUMPDEST PUSH32 0x45524332303A206D696E7420746F20746865207A65726F206164647265737300 PUSH1 0x0 DUP3 ADD MSTORE POP JUMP JUMPDEST PUSH3 0x933 DUP2 PUSH3 0x813 JUMP JUMPDEST DUP2 EQ PUSH3 0x93F JUMPI PUSH1 0x0 DUP1 REVERT JUMPDEST POP JUMP JUMPDEST PUSH2 0x21CF DUP1 PUSH3 0x952 PUSH1 0x0 CODECOPY PUSH1 0x0 RETURN INVALID PUSH1 0x80 PUSH1 0x40 MSTORE PUSH1 0x4 CALLDATASIZE LT PUSH2 0xF3 JUMPI PUSH1 0x0 CALLDATALOAD PUSH1 0xE0 SHR DUP1 PUSH4 0x715018A6 GT PUSH2 0x8A JUMPI DUP1 PUSH4 0xA6F2AE3A GT PUSH2 0x59 JUMPI DUP1 PUSH4 0xA6F2AE3A EQ PUSH2 0x340 JUMPI DUP1 PUSH4 0xA9059CBB EQ PUSH2 0x34A JUMPI DUP1 PUSH4 0xDD62ED3E EQ PUSH2 0x387 JUMPI DUP1 PUSH4 0xF2FDE38B EQ PUSH2 0x3C4 JUMPI PUSH2 0xF3 JUMP JUMPDEST DUP1 PUSH4 0x715018A6 EQ PUSH2 0x296 JUMPI DUP1 PUSH4 0x8DA5CB5B EQ PUSH2 0x2AD JUMPI DUP1 PUSH4 0x95D89B41 EQ PUSH2 0x2D8 JUMPI DUP1 PUSH4 0xA457C2D7 EQ PUSH2 0x303 JUMPI PUSH2 0xF3 JUMP JUMPDEST DUP1 PUSH4 0x313CE567 GT PUSH2 0xC6 JUMPI DUP1 PUSH4 0x313CE567 EQ PUSH2 0x1C8 JUMPI DUP1 PUSH4 0x39509351 EQ PUSH2 0x1F3 JUMPI DUP1 PUSH4 0x4664FFEA EQ PUSH2 0x230 JUMPI DUP1 PUSH4 0x70A08231 EQ PUSH2 0x259 JUMPI PUSH2 0xF3 JUMP JUMPDEST DUP1 PUSH4 0x6FDDE03 EQ PUSH2 0xF8 JUMPI DUP1 PUSH4 0x95EA7B3 EQ PUSH2 0x123 JUMPI DUP1 PUSH4 0x18160DDD EQ PUSH2 0x160 JUMPI DUP1 PUSH4 0x23B872DD EQ PUSH2 0x18B JUMPI JUMPDEST PUSH1 0x0 DUP1 REVERT JUMPDEST CALLVALUE DUP1 ISZERO PUSH2 0x104 JUMPI PUSH1 0x0 DUP1 REVERT JUMPDEST POP PUSH2 0x10D PUSH2 0x3ED JUMP JUMPDEST PUSH1 0x40 MLOAD PUSH2 0x11A SWAP2 SWAP1 PUSH2 0x1885 JUMP JUMPDEST PUSH1 0x40 MLOAD DUP1 SWAP2 SUB SWAP1 RETURN JUMPDEST CALLVALUE DUP1 ISZERO PUSH2 0x12F JUMPI PUSH1 0x0 DUP1 REVERT JUMPDEST POP PUSH2 0x14A PUSH1 0x4 DUP1 CALLDATASIZE SUB DUP2 ADD SWAP1 PUSH2 0x145 SWAP2 SWAP1 PUSH2 0x1596 JUMP JUMPDEST PUSH2 0x47F JUMP JUMPDEST PUSH1 0x40 MLOAD PUSH2 0x157 SWAP2 SWAP1 PUSH2 0x186A JUMP JUMPDEST PUSH1 0x40 MLOAD DUP1 SWAP2 SUB SWAP1 RETURN JUMPDEST CALLVALUE DUP1 ISZERO PUSH2 0x16C JUMPI PUSH1 0x0 DUP1 REVERT JUMPDEST POP PUSH2 0x175 PUSH2 0x49D JUMP JUMPDEST PUSH1 0x40 MLOAD PUSH2 0x182 SWAP2 SWAP1 PUSH2 0x1A07 JUMP JUMPDEST PUSH1 0x40 MLOAD DUP1 SWAP2 SUB SWAP1 RETURN JUMPDEST CALLVALUE DUP1 ISZERO PUSH2 0x197 JUMPI PUSH1 0x0 DUP1 REVERT JUMPDEST POP PUSH2 0x1B2 PUSH1 0x4 DUP1 CALLDATASIZE SUB DUP2 ADD SWAP1 PUSH2 0x1AD SWAP2 SWAP1 PUSH2 0x1543 JUMP JUMPDEST PUSH2 0x4A7 JUMP JUMPDEST PUSH1 0x40 MLOAD PUSH2 0x1BF SWAP2 SWAP1 PUSH2 0x186A JUMP JUMPDEST PUSH1 0x40 MLOAD DUP1 SWAP2 SUB SWAP1 RETURN JUMPDEST CALLVALUE DUP1 ISZERO PUSH2 0x1D4 JUMPI PUSH1 0x0 DUP1 REVERT JUMPDEST POP PUSH2 0x1DD PUSH2 0x59F JUMP JUMPDEST PUSH1 0x40 MLOAD PUSH2 0x1EA SWAP2 SWAP1 PUSH2 0x1A22 JUMP JUMPDEST PUSH1 0x40 MLOAD DUP1 SWAP2 SUB SWAP1 RETURN JUMPDEST CALLVALUE DUP1 ISZERO PUSH2 0x1FF JUMPI PUSH1 0x0 DUP1 REVERT JUMPDEST POP PUSH2 0x21A PUSH1 0x4 DUP1 CALLDATASIZE SUB DUP2 ADD SWAP1 PUSH2 0x215 SWAP2 SWAP1 PUSH2 0x1596 JUMP JUMPDEST PUSH2 0x5A8 JUMP JUMPDEST PUSH1 0x40 MLOAD PUSH2 0x227 SWAP2 SWAP1 PUSH2 0x186A JUMP JUMPDEST PUSH1 0x40 MLOAD DUP1 SWAP2 SUB SWAP1 RETURN JUMPDEST CALLVALUE DUP1 ISZERO PUSH2 0x23C JUMPI PUSH1 0x0 DUP1 REVERT JUMPDEST POP PUSH2 0x257 PUSH1 0x4 DUP1 CALLDATASIZE SUB DUP2 ADD SWAP1 PUSH2 0x252 SWAP2 SWAP1 PUSH2 0x1596 JUMP JUMPDEST PUSH2 0x654 JUMP JUMPDEST STOP JUMPDEST CALLVALUE DUP1 ISZERO PUSH2 0x265 JUMPI PUSH1 0x0 DUP1 REVERT JUMPDEST POP PUSH2 0x280 PUSH1 0x4 DUP1 CALLDATASIZE SUB DUP2 ADD SWAP1 PUSH2 0x27B SWAP2 SWAP1 PUSH2 0x14D6 JUMP JUMPDEST PUSH2 0x7FD JUMP JUMPDEST PUSH1 0x40 MLOAD PUSH2 0x28D SWAP2 SWAP1 PUSH2 0x1A07 JUMP JUMPDEST PUSH1 0x40 MLOAD DUP1 SWAP2 SUB SWAP1 RETURN JUMPDEST CALLVALUE DUP1 ISZERO PUSH2 0x2A2 JUMPI PUSH1 0x0 DUP1 REVERT JUMPDEST POP PUSH2 0x2AB PUSH2 0x845 JUMP JUMPDEST STOP JUMPDEST CALLVALUE DUP1 ISZERO PUSH2 0x2B9 JUMPI PUSH1 0x0 DUP1 REVERT JUMPDEST POP PUSH2 0x2C2 PUSH2 0x8CD JUMP JUMPDEST PUSH1 0x40 MLOAD PUSH2 0x2CF SWAP2 SWAP1 PUSH2 0x1826 JUMP JUMPDEST PUSH1 0x40 MLOAD DUP1 SWAP2 SUB SWAP1 RETURN JUMPDEST CALLVALUE DUP1 ISZERO PUSH2 0x2E4 JUMPI PUSH1 0x0 DUP1 REVERT JUMPDEST POP PUSH2 0x2ED PUSH2 0x8F7 JUMP JUMPDEST PUSH1 0x40 MLOAD PUSH2 0x2FA SWAP2 SWAP1 PUSH2 0x1885 JUMP JUMPDEST PUSH1 0x40 MLOAD DUP1 SWAP2 SUB SWAP1 RETURN JUMPDEST CALLVALUE DUP1 ISZERO PUSH2 0x30F JUMPI PUSH1 0x0 DUP1 REVERT JUMPDEST POP PUSH2 0x32A PUSH1 0x4 DUP1 CALLDATASIZE SUB DUP2 ADD SWAP1 PUSH2 0x325 SWAP2 SWAP1 PUSH2 0x1596 JUMP JUMPDEST PUSH2 0x989 JUMP JUMPDEST PUSH1 0x40 MLOAD PUSH2 0x337 SWAP2 SWAP1 PUSH2 0x186A JUMP JUMPDEST PUSH1 0x40 MLOAD DUP1 SWAP2 SUB SWAP1 RETURN JUMPDEST PUSH2 0x348 PUSH2 0xA74 JUMP JUMPDEST STOP JUMPDEST CALLVALUE DUP1 ISZERO PUSH2 0x356 JUMPI PUSH1 0x0 DUP1 REVERT JUMPDEST POP PUSH2 0x371 PUSH1 0x4 DUP1 CALLDATASIZE SUB DUP2 ADD SWAP1 PUSH2 0x36C SWAP2 SWAP1 PUSH2 0x1596 JUMP JUMPDEST PUSH2 0xC07 JUMP JUMPDEST PUSH1 0x40 MLOAD PUSH2 0x37E SWAP2 SWAP1 PUSH2 0x186A JUMP JUMPDEST PUSH1 0x40 MLOAD DUP1 SWAP2 SUB SWAP1 RETURN JUMPDEST CALLVALUE DUP1 ISZERO PUSH2 0x393 JUMPI PUSH1 0x0 DUP1 REVERT JUMPDEST POP PUSH2 0x3AE PUSH1 0x4 DUP1 CALLDATASIZE SUB DUP2 ADD SWAP1 PUSH2 0x3A9 SWAP2 SWAP1 PUSH2 0x1503 JUMP JUMPDEST PUSH2 0xD95 JUMP JUMPDEST PUSH1 0x40 MLOAD PUSH2 0x3BB SWAP2 SWAP1 PUSH2 0x1A07 JUMP JUMPDEST PUSH1 0x40 MLOAD DUP1 SWAP2 SUB SWAP1 RETURN JUMPDEST CALLVALUE DUP1 ISZERO PUSH2 0x3D0 JUMPI PUSH1 0x0 DUP1 REVERT JUMPDEST POP PUSH2 0x3EB PUSH1 0x4 DUP1 CALLDATASIZE SUB DUP2 ADD SWAP1 PUSH2 0x3E6 SWAP2 SWAP1 PUSH2 0x14D6 JUMP JUMPDEST PUSH2 0xE1C JUMP JUMPDEST STOP JUMPDEST PUSH1 0x60 PUSH1 0x3 DUP1 SLOAD PUSH2 0x3FC SWAP1 PUSH2 0x1D33 JUMP JUMPDEST DUP1 PUSH1 0x1F ADD PUSH1 0x20 DUP1 SWAP2 DIV MUL PUSH1 0x20 ADD PUSH1 0x40 MLOAD SWAP1 DUP2 ADD PUSH1 0x40 MSTORE DUP1 SWAP3 SWAP2 SWAP1 DUP2 DUP2 MSTORE PUSH1 0x20 ADD DUP3 DUP1 SLOAD PUSH2 0x428 SWAP1 PUSH2 0x1D33 JUMP JUMPDEST DUP1 ISZERO PUSH2 0x475 JUMPI DUP1 PUSH1 0x1F LT PUSH2 0x44A JUMPI PUSH2 0x100 DUP1 DUP4 SLOAD DIV MUL DUP4 MSTORE SWAP2 PUSH1 0x20 ADD SWAP2 PUSH2 0x475 JUMP JUMPDEST DUP3 ADD SWAP2 SWAP1 PUSH1 0x0 MSTORE PUSH1 0x20 PUSH1 0x0 KECCAK256 SWAP1 JUMPDEST DUP2 SLOAD DUP2 MSTORE SWAP1 PUSH1 0x1 ADD SWAP1 PUSH1 0x20 ADD DUP1 DUP4 GT PUSH2 0x458 JUMPI DUP3 SWAP1 SUB PUSH1 0x1F AND DUP3 ADD SWAP2 JUMPDEST POP POP POP POP POP SWAP1 POP SWAP1 JUMP JUMPDEST PUSH1 0x0 PUSH2 0x493 PUSH2 0x48C PUSH2 0xF14 JUMP JUMPDEST DUP5 DUP5 PUSH2 0xF1C JUMP JUMPDEST PUSH1 0x1 SWAP1 POP SWAP3 SWAP2 POP POP JUMP JUMPDEST PUSH1 0x0 PUSH1 0x2 SLOAD SWAP1 POP SWAP1 JUMP JUMPDEST PUSH1 0x0 PUSH2 0x4B4 DUP5 DUP5 DUP5 PUSH2 0x10E7 JUMP JUMPDEST PUSH1 0x0 PUSH1 0x1 PUSH1 0x0 DUP7 PUSH20 0xFFFFFFFFFFFFFFFFFFFFFFFFFFFFFFFFFFFFFFFF AND PUSH20 0xFFFFFFFFFFFFFFFFFFFFFFFFFFFFFFFFFFFFFFFF AND DUP2 MSTORE PUSH1 0x20 ADD SWAP1 DUP2 MSTORE PUSH1 0x20 ADD PUSH1 0x0 KECCAK256 PUSH1 0x0 PUSH2 0x4FF PUSH2 0xF14 JUMP JUMPDEST PUSH20 0xFFFFFFFFFFFFFFFFFFFFFFFFFFFFFFFFFFFFFFFF AND PUSH20 0xFFFFFFFFFFFFFFFFFFFFFFFFFFFFFFFFFFFFFFFF AND DUP2 MSTORE PUSH1 0x20 ADD SWAP1 DUP2 MSTORE PUSH1 0x20 ADD PUSH1 0x0 KECCAK256 SLOAD SWAP1 POP DUP3 DUP2 LT ISZERO PUSH2 0x57F JUMPI PUSH1 0x40 MLOAD PUSH32 0x8C379A000000000000000000000000000000000000000000000000000000000 DUP2 MSTORE PUSH1 0x4 ADD PUSH2 0x576 SWAP1 PUSH2 0x1927 JUMP JUMPDEST PUSH1 0x40 MLOAD DUP1 SWAP2 SUB SWAP1 REVERT JUMPDEST PUSH2 0x593 DUP6 PUSH2 0x58B PUSH2 0xF14 JUMP JUMPDEST DUP6 DUP5 SUB PUSH2 0xF1C JUMP JUMPDEST PUSH1 0x1 SWAP2 POP POP SWAP4 SWAP3 POP POP POP JUMP JUMPDEST PUSH1 0x0 PUSH1 0x12 SWAP1 POP SWAP1 JUMP JUMPDEST PUSH1 0x0 PUSH2 0x64A PUSH2 0x5B5 PUSH2 0xF14 JUMP JUMPDEST DUP5 DUP5 PUSH1 0x1 PUSH1 0x0 PUSH2 0x5C3 PUSH2 0xF14 JUMP JUMPDEST PUSH20 0xFFFFFFFFFFFFFFFFFFFFFFFFFFFFFFFFFFFFFFFF AND PUSH20 0xFFFFFFFFFFFFFFFFFFFFFFFFFFFFFFFFFFFFFFFF AND DUP2 MSTORE PUSH1 0x20 ADD SWAP1 DUP2 MSTORE PUSH1 0x20 ADD PUSH1 0x0 KECCAK256 PUSH1 0x0 DUP9 PUSH20 0xFFFFFFFFFFFFFFFFFFFFFFFFFFFFFFFFFFFFFFFF AND PUSH20 0xFFFFFFFFFFFFFFFFFFFFFFFFFFFFFFFFFFFFFFFF AND DUP2 MSTORE PUSH1 0x20 ADD SWAP1 DUP2 MSTORE PUSH1 0x20 ADD PUSH1 0x0 KECCAK256 SLOAD PUSH2 0x645 SWAP2 SWAP1 PUSH2 0x1A59 JUMP JUMPDEST PUSH2 0xF1C JUMP JUMPDEST PUSH1 0x1 SWAP1 POP SWAP3 SWAP2 POP POP JUMP JUMPDEST PUSH2 0x65C PUSH2 0xF14 JUMP JUMPDEST PUSH20 0xFFFFFFFFFFFFFFFFFFFFFFFFFFFFFFFFFFFFFFFF AND PUSH2 0x67A PUSH2 0x8CD JUMP JUMPDEST PUSH20 0xFFFFFFFFFFFFFFFFFFFFFFFFFFFFFFFFFFFFFFFF AND EQ PUSH2 0x6D0 JUMPI PUSH1 0x40 MLOAD PUSH32 0x8C379A000000000000000000000000000000000000000000000000000000000 DUP2 MSTORE PUSH1 0x4 ADD PUSH2 0x6C7 SWAP1 PUSH2 0x1947 JUMP JUMPDEST PUSH1 0x40 MLOAD DUP1 SWAP2 SUB SWAP1 REVERT JUMPDEST PUSH1 0x0 ADDRESS SWAP1 POP DUP1 PUSH20 0xFFFFFFFFFFFFFFFFFFFFFFFFFFFFFFFFFFFFFFFF AND PUSH4 0x70A08231 ADDRESS PUSH1 0x40 MLOAD DUP3 PUSH4 0xFFFFFFFF AND PUSH1 0xE0 SHL DUP2 MSTORE PUSH1 0x4 ADD PUSH2 0x70E SWAP2 SWAP1 PUSH2 0x1826 JUMP JUMPDEST PUSH1 0x20 PUSH1 0x40 MLOAD DUP1 DUP4 SUB DUP2 DUP7 DUP1 EXTCODESIZE ISZERO DUP1 ISZERO PUSH2 0x726 JUMPI PUSH1 0x0 DUP1 REVERT JUMPDEST POP GAS STATICCALL ISZERO DUP1 ISZERO PUSH2 0x73A JUMPI RETURNDATASIZE PUSH1 0x0 DUP1 RETURNDATACOPY RETURNDATASIZE PUSH1 0x0 REVERT JUMPDEST POP POP POP POP PUSH1 0x40 MLOAD RETURNDATASIZE PUSH1 0x1F NOT PUSH1 0x1F DUP3 ADD AND DUP3 ADD DUP1 PUSH1 0x40 MSTORE POP DUP2 ADD SWAP1 PUSH2 0x75E SWAP2 SWAP1 PUSH2 0x1603 JUMP JUMPDEST DUP3 GT ISZERO PUSH2 0x76A JUMPI PUSH1 0x0 DUP1 REVERT JUMPDEST DUP1 PUSH20 0xFFFFFFFFFFFFFFFFFFFFFFFFFFFFFFFFFFFFFFFF AND PUSH4 0xA9059CBB DUP5 DUP5 PUSH1 0x40 MLOAD DUP4 PUSH4 0xFFFFFFFF AND PUSH1 0xE0 SHL DUP2 MSTORE PUSH1 0x4 ADD PUSH2 0x7A5 SWAP3 SWAP2 SWAP1 PUSH2 0x1841 JUMP JUMPDEST PUSH1 0x20 PUSH1 0x40 MLOAD DUP1 DUP4 SUB DUP2 PUSH1 0x0 DUP8 DUP1 EXTCODESIZE ISZERO DUP1 ISZERO PUSH2 0x7BF JUMPI PUSH1 0x0 DUP1 REVERT JUMPDEST POP GAS CALL ISZERO DUP1 ISZERO PUSH2 0x7D3 JUMPI RETURNDATASIZE PUSH1 0x0 DUP1 RETURNDATACOPY RETURNDATASIZE PUSH1 0x0 REVERT JUMPDEST POP POP POP POP PUSH1 0x40 MLOAD RETURNDATASIZE PUSH1 0x1F NOT PUSH1 0x1F DUP3 ADD AND DUP3 ADD DUP1 PUSH1 0x40 MSTORE POP DUP2 ADD SWAP1 PUSH2 0x7F7 SWAP2 SWAP1 PUSH2 0x15D6 JUMP JUMPDEST POP POP POP POP JUMP JUMPDEST PUSH1 0x0 DUP1 PUSH1 0x0 DUP4 PUSH20 0xFFFFFFFFFFFFFFFFFFFFFFFFFFFFFFFFFFFFFFFF AND PUSH20 0xFFFFFFFFFFFFFFFFFFFFFFFFFFFFFFFFFFFFFFFF AND DUP2 MSTORE PUSH1 0x20 ADD SWAP1 DUP2 MSTORE PUSH1 0x20 ADD PUSH1 0x0 KECCAK256 SLOAD SWAP1 POP SWAP2 SWAP1 POP JUMP JUMPDEST PUSH2 0x84D PUSH2 0xF14 JUMP JUMPDEST PUSH20 0xFFFFFFFFFFFFFFFFFFFFFFFFFFFFFFFFFFFFFFFF AND PUSH2 0x86B PUSH2 0x8CD JUMP JUMPDEST PUSH20 0xFFFFFFFFFFFFFFFFFFFFFFFFFFFFFFFFFFFFFFFF AND EQ PUSH2 0x8C1 JUMPI PUSH1 0x40 MLOAD PUSH32 0x8C379A000000000000000000000000000000000000000000000000000000000 DUP2 MSTORE PUSH1 0x4 ADD PUSH2 0x8B8 SWAP1 PUSH2 0x1947 JUMP JUMPDEST PUSH1 0x40 MLOAD DUP1 SWAP2 SUB SWAP1 REVERT JUMPDEST PUSH2 0x8CB PUSH1 0x0 PUSH2 0x1368 JUMP JUMPDEST JUMP JUMPDEST PUSH1 0x0 PUSH1 0x5 PUSH1 0x0 SWAP1 SLOAD SWAP1 PUSH2 0x100 EXP SWAP1 DIV PUSH20 0xFFFFFFFFFFFFFFFFFFFFFFFFFFFFFFFFFFFFFFFF AND SWAP1 POP SWAP1 JUMP JUMPDEST PUSH1 0x60 PUSH1 0x4 DUP1 SLOAD PUSH2 0x906 SWAP1 PUSH2 0x1D33 JUMP JUMPDEST DUP1 PUSH1 0x1F ADD PUSH1 0x20 DUP1 SWAP2 DIV MUL PUSH1 0x20 ADD PUSH1 0x40 MLOAD SWAP1 DUP2 ADD PUSH1 0x40 MSTORE DUP1 SWAP3 SWAP2 SWAP1 DUP2 DUP2 MSTORE PUSH1 0x20 ADD DUP3 DUP1 SLOAD PUSH2 0x932 SWAP1 PUSH2 0x1D33 JUMP JUMPDEST DUP1 ISZERO PUSH2 0x97F JUMPI DUP1 PUSH1 0x1F LT PUSH2 0x954 JUMPI PUSH2 0x100 DUP1 DUP4 SLOAD DIV MUL DUP4 MSTORE SWAP2 PUSH1 0x20 ADD SWAP2 PUSH2 0x97F JUMP JUMPDEST DUP3 ADD SWAP2 SWAP1 PUSH1 0x0 MSTORE PUSH1 0x20 PUSH1 0x0 KECCAK256 SWAP1 JUMPDEST DUP2 SLOAD DUP2 MSTORE SWAP1 PUSH1 0x1 ADD SWAP1 PUSH1 0x20 ADD DUP1 DUP4 GT PUSH2 0x962 JUMPI DUP3 SWAP1 SUB PUSH1 0x1F AND DUP3 ADD SWAP2 JUMPDEST POP POP POP POP POP SWAP1 POP SWAP1 JUMP JUMPDEST PUSH1 0x0 DUP1 PUSH1 0x1 PUSH1 0x0 PUSH2 0x998 PUSH2 0xF14 JUMP JUMPDEST PUSH20 0xFFFFFFFFFFFFFFFFFFFFFFFFFFFFFFFFFFFFFFFF AND PUSH20 0xFFFFFFFFFFFFFFFFFFFFFFFFFFFFFFFFFFFFFFFF AND DUP2 MSTORE PUSH1 0x20 ADD SWAP1 DUP2 MSTORE PUSH1 0x20 ADD PUSH1 0x0 KECCAK256 PUSH1 0x0 DUP6 PUSH20 0xFFFFFFFFFFFFFFFFFFFFFFFFFFFFFFFFFFFFFFFF AND PUSH20 0xFFFFFFFFFFFFFFFFFFFFFFFFFFFFFFFFFFFFFFFF AND DUP2 MSTORE PUSH1 0x20 ADD SWAP1 DUP2 MSTORE PUSH1 0x20 ADD PUSH1 0x0 KECCAK256 SLOAD SWAP1 POP DUP3 DUP2 LT ISZERO PUSH2 0xA55 JUMPI PUSH1 0x40 MLOAD PUSH32 0x8C379A000000000000000000000000000000000000000000000000000000000 DUP2 MSTORE PUSH1 0x4 ADD PUSH2 0xA4C SWAP1 PUSH2 0x19E7 JUMP JUMPDEST PUSH1 0x40 MLOAD DUP1 SWAP2 SUB SWAP1 REVERT JUMPDEST PUSH2 0xA69 PUSH2 0xA60 PUSH2 0xF14 JUMP JUMPDEST DUP6 DUP6 DUP5 SUB PUSH2 0xF1C JUMP JUMPDEST PUSH1 0x1 SWAP2 POP POP SWAP3 SWAP2 POP POP JUMP JUMPDEST PUSH1 0x0 ADDRESS SWAP1 POP PUSH1 0x0 CALLVALUE SWAP1 POP PUSH1 0x0 PUSH2 0xAC6 PUSH1 0x6 SLOAD PUSH2 0xAB8 PUSH2 0xA91 PUSH2 0x59F JUMP JUMPDEST PUSH1 0xA PUSH2 0xA9D SWAP2 SWAP1 PUSH2 0x1B33 JUMP JUMPDEST PUSH1 0x1 PUSH2 0xAA9 SWAP2 SWAP1 PUSH2 0x1C51 JUMP JUMPDEST DUP6 PUSH2 0x142E SWAP1 SWAP2 SWAP1 PUSH4 0xFFFFFFFF AND JUMP JUMPDEST PUSH2 0x1444 SWAP1 SWAP2 SWAP1 PUSH4 0xFFFFFFFF AND JUMP JUMPDEST SWAP1 POP PUSH1 0x9 SLOAD DUP2 GT PUSH2 0xBBC JUMPI DUP3 PUSH20 0xFFFFFFFFFFFFFFFFFFFFFFFFFFFFFFFFFFFFFFFF AND PUSH4 0x70A08231 ADDRESS PUSH1 0x40 MLOAD DUP3 PUSH4 0xFFFFFFFF AND PUSH1 0xE0 SHL DUP2 MSTORE PUSH1 0x4 ADD PUSH2 0xB0A SWAP2 SWAP1 PUSH2 0x1826 JUMP JUMPDEST PUSH1 0x20 PUSH1 0x40 MLOAD DUP1 DUP4 SUB DUP2 DUP7 DUP1 EXTCODESIZE ISZERO DUP1 ISZERO PUSH2 0xB22 JUMPI PUSH1 0x0 DUP1 REVERT JUMPDEST POP GAS STATICCALL ISZERO DUP1 ISZERO PUSH2 0xB36 JUMPI RETURNDATASIZE PUSH1 0x0 DUP1 RETURNDATACOPY RETURNDATASIZE PUSH1 0x0 REVERT JUMPDEST POP POP POP POP PUSH1 0x40 MLOAD RETURNDATASIZE PUSH1 0x1F NOT PUSH1 0x1F DUP3 ADD AND DUP3 ADD DUP1 PUSH1 0x40 MSTORE POP DUP2 ADD SWAP1 PUSH2 0xB5A SWAP2 SWAP1 PUSH2 0x1603 JUMP JUMPDEST DUP2 GT PUSH2 0xB6F JUMPI PUSH2 0xB6A CALLER DUP3 PUSH2 0x654 JUMP JUMPDEST PUSH2 0xBB7 JUMP JUMPDEST CALLER PUSH20 0xFFFFFFFFFFFFFFFFFFFFFFFFFFFFFFFFFFFFFFFF AND PUSH2 0x8FC DUP4 SWAP1 DUP2 ISZERO MUL SWAP1 PUSH1 0x40 MLOAD PUSH1 0x0 PUSH1 0x40 MLOAD DUP1 DUP4 SUB DUP2 DUP6 DUP9 DUP9 CALL SWAP4 POP POP POP POP ISZERO DUP1 ISZERO PUSH2 0xBB5 JUMPI RETURNDATASIZE PUSH1 0x0 DUP1 RETURNDATACOPY RETURNDATASIZE PUSH1 0x0 REVERT JUMPDEST POP JUMPDEST PUSH2 0xC02 JUMP JUMPDEST PUSH1 0xA SLOAD DUP3 GT ISZERO PUSH2 0xC01 JUMPI PUSH1 0x40 MLOAD PUSH32 0x8C379A000000000000000000000000000000000000000000000000000000000 DUP2 MSTORE PUSH1 0x4 ADD PUSH2 0xBF8 SWAP1 PUSH2 0x19A7 JUMP JUMPDEST PUSH1 0x40 MLOAD DUP1 SWAP2 SUB SWAP1 REVERT JUMPDEST JUMPDEST POP POP POP JUMP JUMPDEST PUSH1 0x0 DUP1 PUSH2 0xC14 DUP5 DUP5 PUSH2 0x145A JUMP JUMPDEST SWAP1 POP PUSH1 0x0 DUP4 SWAP1 POP ADDRESS PUSH20 0xFFFFFFFFFFFFFFFFFFFFFFFFFFFFFFFFFFFFFFFF AND DUP6 PUSH20 0xFFFFFFFFFFFFFFFFFFFFFFFFFFFFFFFFFFFFFFFF AND EQ ISZERO PUSH2 0xD8A JUMPI PUSH1 0x0 PUSH2 0xC97 PUSH2 0xC5C PUSH2 0x59F JUMP JUMPDEST PUSH1 0xA PUSH2 0xC68 SWAP2 SWAP1 PUSH2 0x1B33 JUMP JUMPDEST PUSH1 0x1 PUSH2 0xC74 SWAP2 SWAP1 PUSH2 0x1C51 JUMP JUMPDEST PUSH2 0xC89 PUSH1 0x7 SLOAD DUP6 PUSH2 0x142E SWAP1 SWAP2 SWAP1 PUSH4 0xFFFFFFFF AND JUMP JUMPDEST PUSH2 0x1444 SWAP1 SWAP2 SWAP1 PUSH4 0xFFFFFFFF AND JUMP JUMPDEST SWAP1 POP PUSH1 0xA SLOAD DUP3 GT PUSH2 0xD42 JUMPI SELFBALANCE DUP2 GT PUSH2 0xCF5 JUMPI CALLER PUSH20 0xFFFFFFFFFFFFFFFFFFFFFFFFFFFFFFFFFFFFFFFF AND PUSH2 0x8FC DUP3 SWAP1 DUP2 ISZERO MUL SWAP1 PUSH1 0x40 MLOAD PUSH1 0x0 PUSH1 0x40 MLOAD DUP1 DUP4 SUB DUP2 DUP6 DUP9 DUP9 CALL SWAP4 POP POP POP POP ISZERO DUP1 ISZERO PUSH2 0xCEF JUMPI RETURNDATASIZE PUSH1 0x0 DUP1 RETURNDATACOPY RETURNDATASIZE PUSH1 0x0 REVERT JUMPDEST POP PUSH2 0xD3D JUMP JUMPDEST CALLER PUSH20 0xFFFFFFFFFFFFFFFFFFFFFFFFFFFFFFFFFFFFFFFF AND PUSH2 0x8FC DUP4 SWAP1 DUP2 ISZERO MUL SWAP1 PUSH1 0x40 MLOAD PUSH1 0x0 PUSH1 0x40 MLOAD DUP1 DUP4 SUB DUP2 DUP6 DUP9 DUP9 CALL SWAP4 POP POP POP POP ISZERO DUP1 ISZERO PUSH2 0xD3B JUMPI RETURNDATASIZE PUSH1 0x0 DUP1 RETURNDATACOPY RETURNDATASIZE PUSH1 0x0 REVERT JUMPDEST POP JUMPDEST PUSH2 0xD88 JUMP JUMPDEST PUSH1 0xA SLOAD DUP3 GT ISZERO PUSH2 0xD87 JUMPI PUSH1 0x40 MLOAD PUSH32 0x8C379A000000000000000000000000000000000000000000000000000000000 DUP2 MSTORE PUSH1 0x4 ADD PUSH2 0xD7E SWAP1 PUSH2 0x1967 JUMP JUMPDEST PUSH1 0x40 MLOAD DUP1 SWAP2 SUB SWAP1 REVERT JUMPDEST JUMPDEST POP JUMPDEST DUP2 SWAP3 POP POP POP SWAP3 SWAP2 POP POP JUMP JUMPDEST PUSH1 0x0 PUSH1 0x1 PUSH1 0x0 DUP5 PUSH20 0xFFFFFFFFFFFFFFFFFFFFFFFFFFFFFFFFFFFFFFFF AND PUSH20 0xFFFFFFFFFFFFFFFFFFFFFFFFFFFFFFFFFFFFFFFF AND DUP2 MSTORE PUSH1 0x20 ADD SWAP1 DUP2 MSTORE PUSH1 0x20 ADD PUSH1 0x0 KECCAK256 PUSH1 0x0 DUP4 PUSH20 0xFFFFFFFFFFFFFFFFFFFFFFFFFFFFFFFFFFFFFFFF AND PUSH20 0xFFFFFFFFFFFFFFFFFFFFFFFFFFFFFFFFFFFFFFFF AND DUP2 MSTORE PUSH1 0x20 ADD SWAP1 DUP2 MSTORE PUSH1 0x20 ADD PUSH1 0x0 KECCAK256 SLOAD SWAP1 POP SWAP3 SWAP2 POP POP JUMP JUMPDEST PUSH2 0xE24 PUSH2 0xF14 JUMP JUMPDEST PUSH20 0xFFFFFFFFFFFFFFFFFFFFFFFFFFFFFFFFFFFFFFFF AND PUSH2 0xE42 PUSH2 0x8CD JUMP JUMPDEST PUSH20 0xFFFFFFFFFFFFFFFFFFFFFFFFFFFFFFFFFFFFFFFF AND EQ PUSH2 0xE98 JUMPI PUSH1 0x40 MLOAD PUSH32 0x8C379A000000000000000000000000000000000000000000000000000000000 DUP2 MSTORE PUSH1 0x4 ADD PUSH2 0xE8F SWAP1 PUSH2 0x1947 JUMP JUMPDEST PUSH1 0x40 MLOAD DUP1 SWAP2 SUB SWAP1 REVERT JUMPDEST PUSH1 0x0 PUSH20 0xFFFFFFFFFFFFFFFFFFFFFFFFFFFFFFFFFFFFFFFF AND DUP2 PUSH20 0xFFFFFFFFFFFFFFFFFFFFFFFFFFFFFFFFFFFFFFFF AND EQ ISZERO PUSH2 0xF08 JUMPI PUSH1 0x40 MLOAD PUSH32 0x8C379A000000000000000000000000000000000000000000000000000000000 DUP2 MSTORE PUSH1 0x4 ADD PUSH2 0xEFF SWAP1 PUSH2 0x18C7 JUMP JUMPDEST PUSH1 0x40 MLOAD DUP1 SWAP2 SUB SWAP1 REVERT JUMPDEST PUSH2 0xF11 DUP2 PUSH2 0x1368 JUMP JUMPDEST POP JUMP JUMPDEST PUSH1 0x0 CALLER SWAP1 POP SWAP1 JUMP JUMPDEST PUSH1 0x0 PUSH20 0xFFFFFFFFFFFFFFFFFFFFFFFFFFFFFFFFFFFFFFFF AND DUP4 PUSH20 0xFFFFFFFFFFFFFFFFFFFFFFFFFFFFFFFFFFFFFFFF AND EQ ISZERO PUSH2 0xF8C JUMPI PUSH1 0x40 MLOAD PUSH32 0x8C379A000000000000000000000000000000000000000000000000000000000 DUP2 MSTORE PUSH1 0x4 ADD PUSH2 0xF83 SWAP1 PUSH2 0x19C7 JUMP JUMPDEST PUSH1 0x40 MLOAD DUP1 SWAP2 SUB SWAP1 REVERT JUMPDEST PUSH1 0x0 PUSH20 0xFFFFFFFFFFFFFFFFFFFFFFFFFFFFFFFFFFFFFFFF AND DUP3 PUSH20 0xFFFFFFFFFFFFFFFFFFFFFFFFFFFFFFFFFFFFFFFF AND EQ ISZERO PUSH2 0xFFC JUMPI PUSH1 0x40 MLOAD PUSH32 0x8C379A000000000000000000000000000000000000000000000000000000000 DUP2 MSTORE PUSH1 0x4 ADD PUSH2 0xFF3 SWAP1 PUSH2 0x18E7 JUMP JUMPDEST PUSH1 0x40 MLOAD DUP1 SWAP2 SUB SWAP1 REVERT JUMPDEST DUP1 PUSH1 0x1 PUSH1 0x0 DUP6 PUSH20 0xFFFFFFFFFFFFFFFFFFFFFFFFFFFFFFFFFFFFFFFF AND PUSH20 0xFFFFFFFFFFFFFFFFFFFFFFFFFFFFFFFFFFFFFFFF AND DUP2 MSTORE PUSH1 0x20 ADD SWAP1 DUP2 MSTORE PUSH1 0x20 ADD PUSH1 0x0 KECCAK256 PUSH1 0x0 DUP5 PUSH20 0xFFFFFFFFFFFFFFFFFFFFFFFFFFFFFFFFFFFFFFFF AND PUSH20 0xFFFFFFFFFFFFFFFFFFFFFFFFFFFFFFFFFFFFFFFF AND DUP2 MSTORE PUSH1 0x20 ADD SWAP1 DUP2 MSTORE PUSH1 0x20 ADD PUSH1 0x0 KECCAK256 DUP2 SWAP1 SSTORE POP DUP2 PUSH20 0xFFFFFFFFFFFFFFFFFFFFFFFFFFFFFFFFFFFFFFFF AND DUP4 PUSH20 0xFFFFFFFFFFFFFFFFFFFFFFFFFFFFFFFFFFFFFFFF AND PUSH32 0x8C5BE1E5EBEC7D5BD14F71427D1E84F3DD0314C0F7B2291E5B200AC8C7C3B925 DUP4 PUSH1 0x40 MLOAD PUSH2 0x10DA SWAP2 SWAP1 PUSH2 0x1A07 JUMP JUMPDEST PUSH1 0x40 MLOAD DUP1 SWAP2 SUB SWAP1 LOG3 POP POP POP JUMP JUMPDEST PUSH1 0x0 PUSH20 0xFFFFFFFFFFFFFFFFFFFFFFFFFFFFFFFFFFFFFFFF AND DUP4 PUSH20 0xFFFFFFFFFFFFFFFFFFFFFFFFFFFFFFFFFFFFFFFF AND EQ ISZERO PUSH2 0x1157 JUMPI PUSH1 0x40 MLOAD PUSH32 0x8C379A000000000000000000000000000000000000000000000000000000000 DUP2 MSTORE PUSH1 0x4 ADD PUSH2 0x114E SWAP1 PUSH2 0x1987 JUMP JUMPDEST PUSH1 0x40 MLOAD DUP1 SWAP2 SUB SWAP1 REVERT JUMPDEST PUSH1 0x0 PUSH20 0xFFFFFFFFFFFFFFFFFFFFFFFFFFFFFFFFFFFFFFFF AND DUP3 PUSH20 0xFFFFFFFFFFFFFFFFFFFFFFFFFFFFFFFFFFFFFFFF AND EQ ISZERO PUSH2 0x11C7 JUMPI PUSH1 0x40 MLOAD PUSH32 0x8C379A000000000000000000000000000000000000000000000000000000000 DUP2 MSTORE PUSH1 0x4 ADD PUSH2 0x11BE SWAP1 PUSH2 0x18A7 JUMP JUMPDEST PUSH1 0x40 MLOAD DUP1 SWAP2 SUB SWAP1 REVERT JUMPDEST PUSH2 0x11D2 DUP4 DUP4 DUP4 PUSH2 0x1478 JUMP JUMPDEST PUSH1 0x0 DUP1 PUSH1 0x0 DUP6 PUSH20 0xFFFFFFFFFFFFFFFFFFFFFFFFFFFFFFFFFFFFFFFF AND PUSH20 0xFFFFFFFFFFFFFFFFFFFFFFFFFFFFFFFFFFFFFFFF AND DUP2 MSTORE PUSH1 0x20 ADD SWAP1 DUP2 MSTORE PUSH1 0x20 ADD PUSH1 0x0 KECCAK256 SLOAD SWAP1 POP DUP2 DUP2 LT ISZERO PUSH2 0x1258 JUMPI PUSH1 0x40 MLOAD PUSH32 0x8C379A000000000000000000000000000000000000000000000000000000000 DUP2 MSTORE PUSH1 0x4 ADD PUSH2 0x124F SWAP1 PUSH2 0x1907 JUMP JUMPDEST PUSH1 0x40 MLOAD DUP1 SWAP2 SUB SWAP1 REVERT JUMPDEST DUP2 DUP2 SUB PUSH1 0x0 DUP1 DUP7 PUSH20 0xFFFFFFFFFFFFFFFFFFFFFFFFFFFFFFFFFFFFFFFF AND PUSH20 0xFFFFFFFFFFFFFFFFFFFFFFFFFFFFFFFFFFFFFFFF AND DUP2 MSTORE PUSH1 0x20 ADD SWAP1 DUP2 MSTORE PUSH1 0x20 ADD PUSH1 0x0 KECCAK256 DUP2 SWAP1 SSTORE POP DUP2 PUSH1 0x0 DUP1 DUP6 PUSH20 0xFFFFFFFFFFFFFFFFFFFFFFFFFFFFFFFFFFFFFFFF AND PUSH20 0xFFFFFFFFFFFFFFFFFFFFFFFFFFFFFFFFFFFFFFFF AND DUP2 MSTORE PUSH1 0x20 ADD SWAP1 DUP2 MSTORE PUSH1 0x20 ADD PUSH1 0x0 KECCAK256 PUSH1 0x0 DUP3 DUP3 SLOAD PUSH2 0x12EB SWAP2 SWAP1 PUSH2 0x1A59 JUMP JUMPDEST SWAP3 POP POP DUP2 SWAP1 SSTORE POP DUP3 PUSH20 0xFFFFFFFFFFFFFFFFFFFFFFFFFFFFFFFFFFFFFFFF AND DUP5 PUSH20 0xFFFFFFFFFFFFFFFFFFFFFFFFFFFFFFFFFFFFFFFF AND PUSH32 0xDDF252AD1BE2C89B69C2B068FC378DAA952BA7F163C4A11628F55A4DF523B3EF DUP5 PUSH1 0x40 MLOAD PUSH2 0x134F SWAP2 SWAP1 PUSH2 0x1A07 JUMP JUMPDEST PUSH1 0x40 MLOAD DUP1 SWAP2 SUB SWAP1 LOG3 PUSH2 0x1362 DUP5 DUP5 DUP5 PUSH2 0x147D JUMP JUMPDEST POP POP POP POP JUMP JUMPDEST PUSH1 0x0 PUSH1 0x5 PUSH1 0x0 SWAP1 SLOAD SWAP1 PUSH2 0x100 EXP SWAP1 DIV PUSH20 0xFFFFFFFFFFFFFFFFFFFFFFFFFFFFFFFFFFFFFFFF AND SWAP1 POP DUP2 PUSH1 0x5 PUSH1 0x0 PUSH2 0x100 EXP DUP2 SLOAD DUP2 PUSH20 0xFFFFFFFFFFFFFFFFFFFFFFFFFFFFFFFFFFFFFFFF MUL NOT AND SWAP1 DUP4 PUSH20 0xFFFFFFFFFFFFFFFFFFFFFFFFFFFFFFFFFFFFFFFF AND MUL OR SWAP1 SSTORE POP DUP2 PUSH20 0xFFFFFFFFFFFFFFFFFFFFFFFFFFFFFFFFFFFFFFFF AND DUP2 PUSH20 0xFFFFFFFFFFFFFFFFFFFFFFFFFFFFFFFFFFFFFFFF AND PUSH32 0x8BE0079C531659141344CD1FD0A4F28419497F9722A3DAAFE3B4186F6B6457E0 PUSH1 0x40 MLOAD PUSH1 0x40 MLOAD DUP1 SWAP2 SUB SWAP1 LOG3 POP POP JUMP JUMPDEST PUSH1 0x0 DUP2 DUP4 PUSH2 0x143C SWAP2 SWAP1 PUSH2 0x1C51 JUMP JUMPDEST SWAP1 POP SWAP3 SWAP2 POP POP JUMP JUMPDEST PUSH1 0x0 DUP2 DUP4 PUSH2 0x1452 SWAP2 SWAP1 PUSH2 0x1AAF JUMP JUMPDEST SWAP1 POP SWAP3 SWAP2 POP POP JUMP JUMPDEST PUSH1 0x0 PUSH2 0x146E PUSH2 0x1467 PUSH2 0xF14 JUMP JUMPDEST DUP5 DUP5 PUSH2 0x10E7 JUMP JUMPDEST PUSH1 0x1 SWAP1 POP SWAP3 SWAP2 POP POP JUMP JUMPDEST POP POP POP JUMP JUMPDEST POP POP POP JUMP JUMPDEST PUSH1 0x0 DUP2 CALLDATALOAD SWAP1 POP PUSH2 0x1491 DUP2 PUSH2 0x2154 JUMP JUMPDEST SWAP3 SWAP2 POP POP JUMP JUMPDEST PUSH1 0x0 DUP2 MLOAD SWAP1 POP PUSH2 0x14A6 DUP2 PUSH2 0x216B JUMP JUMPDEST SWAP3 SWAP2 POP POP JUMP JUMPDEST PUSH1 0x0 DUP2 CALLDATALOAD SWAP1 POP PUSH2 0x14BB DUP2 PUSH2 0x2182 JUMP JUMPDEST SWAP3 SWAP2 POP POP JUMP JUMPDEST PUSH1 0x0 DUP2 MLOAD SWAP1 POP PUSH2 0x14D0 DUP2 PUSH2 0x2182 JUMP JUMPDEST SWAP3 SWAP2 POP POP JUMP JUMPDEST PUSH1 0x0 PUSH1 0x20 DUP3 DUP5 SUB SLT ISZERO PUSH2 0x14EC JUMPI PUSH2 0x14EB PUSH2 0x1DF2 JUMP JUMPDEST JUMPDEST PUSH1 0x0 PUSH2 0x14FA DUP5 DUP3 DUP6 ADD PUSH2 0x1482 JUMP JUMPDEST SWAP2 POP POP SWAP3 SWAP2 POP POP JUMP JUMPDEST PUSH1 0x0 DUP1 PUSH1 0x40 DUP4 DUP6 SUB SLT ISZERO PUSH2 0x151A JUMPI PUSH2 0x1519 PUSH2 0x1DF2 JUMP JUMPDEST JUMPDEST PUSH1 0x0 PUSH2 0x1528 DUP6 DUP3 DUP7 ADD PUSH2 0x1482 JUMP JUMPDEST SWAP3 POP POP PUSH1 0x20 PUSH2 0x1539 DUP6 DUP3 DUP7 ADD PUSH2 0x1482 JUMP JUMPDEST SWAP2 POP POP SWAP3 POP SWAP3 SWAP1 POP JUMP JUMPDEST PUSH1 0x0 DUP1 PUSH1 0x0 PUSH1 0x60 DUP5 DUP7 SUB SLT ISZERO PUSH2 0x155C JUMPI PUSH2 0x155B PUSH2 0x1DF2 JUMP JUMPDEST JUMPDEST PUSH1 0x0 PUSH2 0x156A DUP7 DUP3 DUP8 ADD PUSH2 0x1482 JUMP JUMPDEST SWAP4 POP POP PUSH1 0x20 PUSH2 0x157B DUP7 DUP3 DUP8 ADD PUSH2 0x1482 JUMP JUMPDEST SWAP3 POP POP PUSH1 0x40 PUSH2 0x158C DUP7 DUP3 DUP8 ADD PUSH2 0x14AC JUMP JUMPDEST SWAP2 POP POP SWAP3 POP SWAP3 POP SWAP3 JUMP JUMPDEST PUSH1 0x0 DUP1 PUSH1 0x40 DUP4 DUP6 SUB SLT ISZERO PUSH2 0x15AD JUMPI PUSH2 0x15AC PUSH2 0x1DF2 JUMP JUMPDEST JUMPDEST PUSH1 0x0 PUSH2 0x15BB DUP6 DUP3 DUP7 ADD PUSH2 0x1482 JUMP JUMPDEST SWAP3 POP POP PUSH1 0x20 PUSH2 0x15CC DUP6 DUP3 DUP7 ADD PUSH2 0x14AC JUMP JUMPDEST SWAP2 POP POP SWAP3 POP SWAP3 SWAP1 POP JUMP JUMPDEST PUSH1 0x0 PUSH1 0x20 DUP3 DUP5 SUB SLT ISZERO PUSH2 0x15EC JUMPI PUSH2 0x15EB PUSH2 0x1DF2 JUMP JUMPDEST JUMPDEST PUSH1 0x0 PUSH2 0x15FA DUP5 DUP3 DUP6 ADD PUSH2 0x1497 JUMP JUMPDEST SWAP2 POP POP SWAP3 SWAP2 POP POP JUMP JUMPDEST PUSH1 0x0 PUSH1 0x20 DUP3 DUP5 SUB SLT ISZERO PUSH2 0x1619 JUMPI PUSH2 0x1618 PUSH2 0x1DF2 JUMP JUMPDEST JUMPDEST PUSH1 0x0 PUSH2 0x1627 DUP5 DUP3 DUP6 ADD PUSH2 0x14C1 JUMP JUMPDEST SWAP2 POP POP SWAP3 SWAP2 POP POP JUMP JUMPDEST PUSH2 0x1639 DUP2 PUSH2 0x1CAB JUMP JUMPDEST DUP3 MSTORE POP POP JUMP JUMPDEST PUSH2 0x1648 DUP2 PUSH2 0x1CBD JUMP JUMPDEST DUP3 MSTORE POP POP JUMP JUMPDEST PUSH1 0x0 PUSH2 0x1659 DUP3 PUSH2 0x1A3D JUMP JUMPDEST PUSH2 0x1663 DUP2 DUP6 PUSH2 0x1A48 JUMP JUMPDEST SWAP4 POP PUSH2 0x1673 DUP2 DUP6 PUSH1 0x20 DUP7 ADD PUSH2 0x1D00 JUMP JUMPDEST PUSH2 0x167C DUP2 PUSH2 0x1DF7 JUMP JUMPDEST DUP5 ADD SWAP2 POP POP SWAP3 SWAP2 POP POP JUMP JUMPDEST PUSH1 0x0 PUSH2 0x1694 PUSH1 0x23 DUP4 PUSH2 0x1A48 JUMP JUMPDEST SWAP2 POP PUSH2 0x169F DUP3 PUSH2 0x1E15 JUMP JUMPDEST PUSH1 0x40 DUP3 ADD SWAP1 POP SWAP2 SWAP1 POP JUMP JUMPDEST PUSH1 0x0 PUSH2 0x16B7 PUSH1 0x26 DUP4 PUSH2 0x1A48 JUMP JUMPDEST SWAP2 POP PUSH2 0x16C2 DUP3 PUSH2 0x1E64 JUMP JUMPDEST PUSH1 0x40 DUP3 ADD SWAP1 POP SWAP2 SWAP1 POP JUMP JUMPDEST PUSH1 0x0 PUSH2 0x16DA PUSH1 0x22 DUP4 PUSH2 0x1A48 JUMP JUMPDEST SWAP2 POP PUSH2 0x16E5 DUP3 PUSH2 0x1EB3 JUMP JUMPDEST PUSH1 0x40 DUP3 ADD SWAP1 POP SWAP2 SWAP1 POP JUMP JUMPDEST PUSH1 0x0 PUSH2 0x16FD PUSH1 0x26 DUP4 PUSH2 0x1A48 JUMP JUMPDEST SWAP2 POP PUSH2 0x1708 DUP3 PUSH2 0x1F02 JUMP JUMPDEST PUSH1 0x40 DUP3 ADD SWAP1 POP SWAP2 SWAP1 POP JUMP JUMPDEST PUSH1 0x0 PUSH2 0x1720 PUSH1 0x28 DUP4 PUSH2 0x1A48 JUMP JUMPDEST SWAP2 POP PUSH2 0x172B DUP3 PUSH2 0x1F51 JUMP JUMPDEST PUSH1 0x40 DUP3 ADD SWAP1 POP SWAP2 SWAP1 POP JUMP JUMPDEST PUSH1 0x0 PUSH2 0x1743 PUSH1 0x20 DUP4 PUSH2 0x1A48 JUMP JUMPDEST SWAP2 POP PUSH2 0x174E DUP3 PUSH2 0x1FA0 JUMP JUMPDEST PUSH1 0x20 DUP3 ADD SWAP1 POP SWAP2 SWAP1 POP JUMP JUMPDEST PUSH1 0x0 PUSH2 0x1766 PUSH1 0x22 DUP4 PUSH2 0x1A48 JUMP JUMPDEST SWAP2 POP PUSH2 0x1771 DUP3 PUSH2 0x1FC9 JUMP JUMPDEST PUSH1 0x40 DUP3 ADD SWAP1 POP SWAP2 SWAP1 POP JUMP JUMPDEST PUSH1 0x0 PUSH2 0x1789 PUSH1 0x25 DUP4 PUSH2 0x1A48 JUMP JUMPDEST SWAP2 POP PUSH2 0x1794 DUP3 PUSH2 0x2018 JUMP JUMPDEST PUSH1 0x40 DUP3 ADD SWAP1 POP SWAP2 SWAP1 POP JUMP JUMPDEST PUSH1 0x0 PUSH2 0x17AC PUSH1 0x25 DUP4 PUSH2 0x1A48 JUMP JUMPDEST SWAP2 POP PUSH2 0x17B7 DUP3 PUSH2 0x2067 JUMP JUMPDEST PUSH1 0x40 DUP3 ADD SWAP1 POP SWAP2 SWAP1 POP JUMP JUMPDEST PUSH1 0x0 PUSH2 0x17CF PUSH1 0x24 DUP4 PUSH2 0x1A48 JUMP JUMPDEST SWAP2 POP PUSH2 0x17DA DUP3 PUSH2 0x20B6 JUMP JUMPDEST PUSH1 0x40 DUP3 ADD SWAP1 POP SWAP2 SWAP1 POP JUMP JUMPDEST PUSH1 0x0 PUSH2 0x17F2 PUSH1 0x25 DUP4 PUSH2 0x1A48 JUMP JUMPDEST SWAP2 POP PUSH2 0x17FD DUP3 PUSH2 0x2105 JUMP JUMPDEST PUSH1 0x40 DUP3 ADD SWAP1 POP SWAP2 SWAP1 POP JUMP JUMPDEST PUSH2 0x1811 DUP2 PUSH2 0x1CE9 JUMP JUMPDEST DUP3 MSTORE POP POP JUMP JUMPDEST PUSH2 0x1820 DUP2 PUSH2 0x1CF3 JUMP JUMPDEST DUP3 MSTORE POP POP JUMP JUMPDEST PUSH1 0x0 PUSH1 0x20 DUP3 ADD SWAP1 POP PUSH2 0x183B PUSH1 0x0 DUP4 ADD DUP5 PUSH2 0x1630 JUMP JUMPDEST SWAP3 SWAP2 POP POP JUMP JUMPDEST PUSH1 0x0 PUSH1 0x40 DUP3 ADD SWAP1 POP PUSH2 0x1856 PUSH1 0x0 DUP4 ADD DUP6 PUSH2 0x1630 JUMP JUMPDEST PUSH2 0x1863 PUSH1 0x20 DUP4 ADD DUP5 PUSH2 0x1808 JUMP JUMPDEST SWAP4 SWAP3 POP POP POP JUMP JUMPDEST PUSH1 0x0 PUSH1 0x20 DUP3 ADD SWAP1 POP PUSH2 0x187F PUSH1 0x0 DUP4 ADD DUP5 PUSH2 0x163F JUMP JUMPDEST SWAP3 SWAP2 POP POP JUMP JUMPDEST PUSH1 0x0 PUSH1 0x20 DUP3 ADD SWAP1 POP DUP2 DUP2 SUB PUSH1 0x0 DUP4 ADD MSTORE PUSH2 0x189F DUP2 DUP5 PUSH2 0x164E JUMP JUMPDEST SWAP1 POP SWAP3 SWAP2 POP POP JUMP JUMPDEST PUSH1 0x0 PUSH1 0x20 DUP3 ADD SWAP1 POP DUP2 DUP2 SUB PUSH1 0x0 DUP4 ADD MSTORE PUSH2 0x18C0 DUP2 PUSH2 0x1687 JUMP JUMPDEST SWAP1 POP SWAP2 SWAP1 POP JUMP JUMPDEST PUSH1 0x0 PUSH1 0x20 DUP3 ADD SWAP1 POP DUP2 DUP2 SUB PUSH1 0x0 DUP4 ADD MSTORE PUSH2 0x18E0 DUP2 PUSH2 0x16AA JUMP JUMPDEST SWAP1 POP SWAP2 SWAP1 POP JUMP JUMPDEST PUSH1 0x0 PUSH1 0x20 DUP3 ADD SWAP1 POP DUP2 DUP2 SUB PUSH1 0x0 DUP4 ADD MSTORE PUSH2 0x1900 DUP2 PUSH2 0x16CD JUMP JUMPDEST SWAP1 POP SWAP2 SWAP1 POP JUMP JUMPDEST PUSH1 0x0 PUSH1 0x20 DUP3 ADD SWAP1 POP DUP2 DUP2 SUB PUSH1 0x0 DUP4 ADD MSTORE PUSH2 0x1920 DUP2 PUSH2 0x16F0 JUMP JUMPDEST SWAP1 POP SWAP2 SWAP1 POP JUMP JUMPDEST PUSH1 0x0 PUSH1 0x20 DUP3 ADD SWAP1 POP DUP2 DUP2 SUB PUSH1 0x0 DUP4 ADD MSTORE PUSH2 0x1940 DUP2 PUSH2 0x1713 JUMP JUMPDEST SWAP1 POP SWAP2 SWAP1 POP JUMP JUMPDEST PUSH1 0x0 PUSH1 0x20 DUP3 ADD SWAP1 POP DUP2 DUP2 SUB PUSH1 0x0 DUP4 ADD MSTORE PUSH2 0x1960 DUP2 PUSH2 0x1736 JUMP JUMPDEST SWAP1 POP SWAP2 SWAP1 POP JUMP JUMPDEST PUSH1 0x0 PUSH1 0x20 DUP3 ADD SWAP1 POP DUP2 DUP2 SUB PUSH1 0x0 DUP4 ADD MSTORE PUSH2 0x1980 DUP2 PUSH2 0x1759 JUMP JUMPDEST SWAP1 POP SWAP2 SWAP1 POP JUMP JUMPDEST PUSH1 0x0 PUSH1 0x20 DUP3 ADD SWAP1 POP DUP2 DUP2 SUB PUSH1 0x0 DUP4 ADD MSTORE PUSH2 0x19A0 DUP2 PUSH2 0x177C JUMP JUMPDEST SWAP1 POP SWAP2 SWAP1 POP JUMP JUMPDEST PUSH1 0x0 PUSH1 0x20 DUP3 ADD SWAP1 POP DUP2 DUP2 SUB PUSH1 0x0 DUP4 ADD MSTORE PUSH2 0x19C0 DUP2 PUSH2 0x179F JUMP JUMPDEST SWAP1 POP SWAP2 SWAP1 POP JUMP JUMPDEST PUSH1 0x0 PUSH1 0x20 DUP3 ADD SWAP1 POP DUP2 DUP2 SUB PUSH1 0x0 DUP4 ADD MSTORE PUSH2 0x19E0 DUP2 PUSH2 0x17C2 JUMP JUMPDEST SWAP1 POP SWAP2 SWAP1 POP JUMP JUMPDEST PUSH1 0x0 PUSH1 0x20 DUP3 ADD SWAP1 POP DUP2 DUP2 SUB PUSH1 0x0 DUP4 ADD MSTORE PUSH2 0x1A00 DUP2 PUSH2 0x17E5 JUMP JUMPDEST SWAP1 POP SWAP2 SWAP1 POP JUMP JUMPDEST PUSH1 0x0 PUSH1 0x20 DUP3 ADD SWAP1 POP PUSH2 0x1A1C PUSH1 0x0 DUP4 ADD DUP5 PUSH2 0x1808 JUMP JUMPDEST SWAP3 SWAP2 POP POP JUMP JUMPDEST PUSH1 0x0 PUSH1 0x20 DUP3 ADD SWAP1 POP PUSH2 0x1A37 PUSH1 0x0 DUP4 ADD DUP5 PUSH2 0x1817 JUMP JUMPDEST SWAP3 SWAP2 POP POP JUMP JUMPDEST PUSH1 0x0 DUP2 MLOAD SWAP1 POP SWAP2 SWAP1 POP JUMP JUMPDEST PUSH1 0x0 DUP3 DUP3 MSTORE PUSH1 0x20 DUP3 ADD SWAP1 POP SWAP3 SWAP2 POP POP JUMP JUMPDEST PUSH1 0x0 PUSH2 0x1A64 DUP3 PUSH2 0x1CE9 JUMP JUMPDEST SWAP2 POP PUSH2 0x1A6F DUP4 PUSH2 0x1CE9 JUMP JUMPDEST SWAP3 POP DUP3 PUSH32 0xFFFFFFFFFFFFFFFFFFFFFFFFFFFFFFFFFFFFFFFFFFFFFFFFFFFFFFFFFFFFFFFF SUB DUP3 GT ISZERO PUSH2 0x1AA4 JUMPI PUSH2 0x1AA3 PUSH2 0x1D65 JUMP JUMPDEST JUMPDEST DUP3 DUP3 ADD SWAP1 POP SWAP3 SWAP2 POP POP JUMP JUMPDEST PUSH1 0x0 PUSH2 0x1ABA DUP3 PUSH2 0x1CE9 JUMP JUMPDEST SWAP2 POP PUSH2 0x1AC5 DUP4 PUSH2 0x1CE9 JUMP JUMPDEST SWAP3 POP DUP3 PUSH2 0x1AD5 JUMPI PUSH2 0x1AD4 PUSH2 0x1D94 JUMP JUMPDEST JUMPDEST DUP3 DUP3 DIV SWAP1 POP SWAP3 SWAP2 POP POP JUMP JUMPDEST PUSH1 0x0 DUP1 DUP3 SWAP2 POP DUP4 SWAP1 POP JUMPDEST PUSH1 0x1 DUP6 GT ISZERO PUSH2 0x1B2A JUMPI DUP1 DUP7 DIV DUP2 GT ISZERO PUSH2 0x1B06 JUMPI PUSH2 0x1B05 PUSH2 0x1D65 JUMP JUMPDEST JUMPDEST PUSH1 0x1 DUP6 AND ISZERO PUSH2 0x1B15 JUMPI DUP1 DUP3 MUL SWAP2 POP JUMPDEST DUP1 DUP2 MUL SWAP1 POP PUSH2 0x1B23 DUP6 PUSH2 0x1E08 JUMP JUMPDEST SWAP5 POP PUSH2 0x1AEA JUMP JUMPDEST SWAP5 POP SWAP5 SWAP3 POP POP POP JUMP JUMPDEST PUSH1 0x0 PUSH2 0x1B3E DUP3 PUSH2 0x1CE9 JUMP JUMPDEST SWAP2 POP PUSH2 0x1B49 DUP4 PUSH2 0x1CF3 JUMP JUMPDEST SWAP3 POP PUSH2 0x1B76 PUSH32 0xFFFFFFFFFFFFFFFFFFFFFFFFFFFFFFFFFFFFFFFFFFFFFFFFFFFFFFFFFFFFFFFF DUP5 DUP5 PUSH2 0x1B7E JUMP JUMPDEST SWAP1 POP SWAP3 SWAP2 POP POP JUMP JUMPDEST PUSH1 0x0 DUP3 PUSH2 0x1B8E JUMPI PUSH1 0x1 SWAP1 POP PUSH2 0x1C4A JUMP JUMPDEST DUP2 PUSH2 0x1B9C JUMPI PUSH1 0x0 SWAP1 POP PUSH2 0x1C4A JUMP JUMPDEST DUP2 PUSH1 0x1 DUP2 EQ PUSH2 0x1BB2 JUMPI PUSH1 0x2 DUP2 EQ PUSH2 0x1BBC JUMPI PUSH2 0x1BEB JUMP JUMPDEST PUSH1 0x1 SWAP2 POP POP PUSH2 0x1C4A JUMP JUMPDEST PUSH1 0xFF DUP5 GT ISZERO PUSH2 0x1BCE JUMPI PUSH2 0x1BCD PUSH2 0x1D65 JUMP JUMPDEST JUMPDEST DUP4 PUSH1 0x2 EXP SWAP2 POP DUP5 DUP3 GT ISZERO PUSH2 0x1BE5 JUMPI PUSH2 0x1BE4 PUSH2 0x1D65 JUMP JUMPDEST JUMPDEST POP PUSH2 0x1C4A JUMP JUMPDEST POP PUSH1 0x20 DUP4 LT PUSH2 0x133 DUP4 LT AND PUSH1 0x4E DUP5 LT PUSH1 0xB DUP5 LT AND OR ISZERO PUSH2 0x1C20 JUMPI DUP3 DUP3 EXP SWAP1 POP DUP4 DUP2 GT ISZERO PUSH2 0x1C1B JUMPI PUSH2 0x1C1A PUSH2 0x1D65 JUMP JUMPDEST JUMPDEST PUSH2 0x1C4A JUMP JUMPDEST PUSH2 0x1C2D DUP5 DUP5 DUP5 PUSH1 0x1 PUSH2 0x1AE0 JUMP JUMPDEST SWAP3 POP SWAP1 POP DUP2 DUP5 DIV DUP2 GT ISZERO PUSH2 0x1C44 JUMPI PUSH2 0x1C43 PUSH2 0x1D65 JUMP JUMPDEST JUMPDEST DUP2 DUP2 MUL SWAP1 POP JUMPDEST SWAP4 SWAP3 POP POP POP JUMP JUMPDEST PUSH1 0x0 PUSH2 0x1C5C DUP3 PUSH2 0x1CE9 JUMP JUMPDEST SWAP2 POP PUSH2 0x1C67 DUP4 PUSH2 0x1CE9 JUMP JUMPDEST SWAP3 POP DUP2 PUSH32 0xFFFFFFFFFFFFFFFFFFFFFFFFFFFFFFFFFFFFFFFFFFFFFFFFFFFFFFFFFFFFFFFF DIV DUP4 GT DUP3 ISZERO ISZERO AND ISZERO PUSH2 0x1CA0 JUMPI PUSH2 0x1C9F PUSH2 0x1D65 JUMP JUMPDEST JUMPDEST DUP3 DUP3 MUL SWAP1 POP SWAP3 SWAP2 POP POP JUMP JUMPDEST PUSH1 0x0 PUSH2 0x1CB6 DUP3 PUSH2 0x1CC9 JUMP JUMPDEST SWAP1 POP SWAP2 SWAP1 POP JUMP JUMPDEST PUSH1 0x0 DUP2 ISZERO ISZERO SWAP1 POP SWAP2 SWAP1 POP JUMP JUMPDEST PUSH1 0x0 PUSH20 0xFFFFFFFFFFFFFFFFFFFFFFFFFFFFFFFFFFFFFFFF DUP3 AND SWAP1 POP SWAP2 SWAP1 POP JUMP JUMPDEST PUSH1 0x0 DUP2 SWAP1 POP SWAP2 SWAP1 POP JUMP JUMPDEST PUSH1 0x0 PUSH1 0xFF DUP3 AND SWAP1 POP SWAP2 SWAP1 POP JUMP JUMPDEST PUSH1 0x0 JUMPDEST DUP4 DUP2 LT ISZERO PUSH2 0x1D1E JUMPI DUP1 DUP3 ADD MLOAD DUP2 DUP5 ADD MSTORE PUSH1 0x20 DUP2 ADD SWAP1 POP PUSH2 0x1D03 JUMP JUMPDEST DUP4 DUP2 GT ISZERO PUSH2 0x1D2D JUMPI PUSH1 0x0 DUP5 DUP5 ADD MSTORE JUMPDEST POP POP POP POP JUMP JUMPDEST PUSH1 0x0 PUSH1 0x2 DUP3 DIV SWAP1 POP PUSH1 0x1 DUP3 AND DUP1 PUSH2 0x1D4B JUMPI PUSH1 0x7F DUP3 AND SWAP2 POP JUMPDEST PUSH1 0x20 DUP3 LT DUP2 EQ ISZERO PUSH2 0x1D5F JUMPI PUSH2 0x1D5E PUSH2 0x1DC3 JUMP JUMPDEST JUMPDEST POP SWAP2 SWAP1 POP JUMP JUMPDEST PUSH32 0x4E487B7100000000000000000000000000000000000000000000000000000000 PUSH1 0x0 MSTORE PUSH1 0x11 PUSH1 0x4 MSTORE PUSH1 0x24 PUSH1 0x0 REVERT JUMPDEST PUSH32 0x4E487B7100000000000000000000000000000000000000000000000000000000 PUSH1 0x0 MSTORE PUSH1 0x12 PUSH1 0x4 MSTORE PUSH1 0x24 PUSH1 0x0 REVERT JUMPDEST PUSH32 0x4E487B7100000000000000000000000000000000000000000000000000000000 PUSH1 0x0 MSTORE PUSH1 0x22 PUSH1 0x4 MSTORE PUSH1 0x24 PUSH1 0x0 REVERT JUMPDEST PUSH1 0x0 DUP1 REVERT JUMPDEST PUSH1 0x0 PUSH1 0x1F NOT PUSH1 0x1F DUP4 ADD AND SWAP1 POP SWAP2 SWAP1 POP JUMP JUMPDEST PUSH1 0x0 DUP2 PUSH1 0x1 SHR SWAP1 POP SWAP2 SWAP1 POP JUMP JUMPDEST PUSH32 0x45524332303A207472616E7366657220746F20746865207A65726F2061646472 PUSH1 0x0 DUP3 ADD MSTORE PUSH32 0x6573730000000000000000000000000000000000000000000000000000000000 PUSH1 0x20 DUP3 ADD MSTORE POP JUMP JUMPDEST PUSH32 0x4F776E61626C653A206E6577206F776E657220697320746865207A65726F2061 PUSH1 0x0 DUP3 ADD MSTORE PUSH32 0x6464726573730000000000000000000000000000000000000000000000000000 PUSH1 0x20 DUP3 ADD MSTORE POP JUMP JUMPDEST PUSH32 0x45524332303A20617070726F766520746F20746865207A65726F206164647265 PUSH1 0x0 DUP3 ADD MSTORE PUSH32 0x7373000000000000000000000000000000000000000000000000000000000000 PUSH1 0x20 DUP3 ADD MSTORE POP JUMP JUMPDEST PUSH32 0x45524332303A207472616E7366657220616D6F756E7420657863656564732062 PUSH1 0x0 DUP3 ADD MSTORE PUSH32 0x616C616E63650000000000000000000000000000000000000000000000000000 PUSH1 0x20 DUP3 ADD MSTORE POP JUMP JUMPDEST PUSH32 0x45524332303A207472616E7366657220616D6F756E7420657863656564732061 PUSH1 0x0 DUP3 ADD MSTORE PUSH32 0x6C6C6F77616E6365000000000000000000000000000000000000000000000000 PUSH1 0x20 DUP3 ADD MSTORE POP JUMP JUMPDEST PUSH32 0x4F776E61626C653A2063616C6C6572206973206E6F7420746865206F776E6572 PUSH1 0x0 DUP3 ADD MSTORE POP JUMP JUMPDEST PUSH32 0x594E50726573616C653A204D41582053414C4520414D4F554E54204558434545 PUSH1 0x0 DUP3 ADD MSTORE PUSH32 0x442E000000000000000000000000000000000000000000000000000000000000 PUSH1 0x20 DUP3 ADD MSTORE POP JUMP JUMPDEST PUSH32 0x45524332303A207472616E736665722066726F6D20746865207A65726F206164 PUSH1 0x0 DUP3 ADD MSTORE PUSH32 0x6472657373000000000000000000000000000000000000000000000000000000 PUSH1 0x20 DUP3 ADD MSTORE POP JUMP JUMPDEST PUSH32 0x594E50726573616C653A20414D4F554E542053414C4520414D4F554E54204558 PUSH1 0x0 DUP3 ADD MSTORE PUSH32 0x434545442E000000000000000000000000000000000000000000000000000000 PUSH1 0x20 DUP3 ADD MSTORE POP JUMP JUMPDEST PUSH32 0x45524332303A20617070726F76652066726F6D20746865207A65726F20616464 PUSH1 0x0 DUP3 ADD MSTORE PUSH32 0x7265737300000000000000000000000000000000000000000000000000000000 PUSH1 0x20 DUP3 ADD MSTORE POP JUMP JUMPDEST PUSH32 0x45524332303A2064656372656173656420616C6C6F77616E63652062656C6F77 PUSH1 0x0 DUP3 ADD MSTORE PUSH32 0x207A65726F000000000000000000000000000000000000000000000000000000 PUSH1 0x20 DUP3 ADD MSTORE POP JUMP JUMPDEST PUSH2 0x215D DUP2 PUSH2 0x1CAB JUMP JUMPDEST DUP2 EQ PUSH2 0x2168 JUMPI PUSH1 0x0 DUP1 REVERT JUMPDEST POP JUMP JUMPDEST PUSH2 0x2174 DUP2 PUSH2 0x1CBD JUMP JUMPDEST DUP2 EQ PUSH2 0x217F JUMPI PUSH1 0x0 DUP1 REVERT JUMPDEST POP JUMP JUMPDEST PUSH2 0x218B DUP2 PUSH2 0x1CE9 JUMP JUMPDEST DUP2 EQ PUSH2 0x2196 JUMPI PUSH1 0x0 DUP1 REVERT JUMPDEST POP JUMP INVALID LOG2 PUSH5 0x6970667358 0x22 SLT KECCAK256 BALANCE 0xD3 0xD 0xB8 PUSH28 0xA2BE713A29DED1588E6CFDC74B6C5E9BBBE22E676CEE24EEC1D6D764 PUSH20 0x6F6C634300080700330000000000000000000000 "
				},
				"gasEstimates": {
					"creation": {
						"codeDepositCost": "1731000",
						"executionCost": "infinite",
						"totalCost": "infinite"
					},
					"external": {
						"allowance(address,address)": "infinite",
						"approve(address,uint256)": "infinite",
						"balanceOf(address)": "2930",
						"buy()": "infinite",
						"decimals()": "366",
						"decreaseAllowance(address,uint256)": "infinite",
						"increaseAllowance(address,uint256)": "infinite",
						"name()": "infinite",
						"owner()": "2567",
						"renounceOwnership()": "30397",
						"symbol()": "infinite",
						"totalSupply()": "2505",
						"transfer(address,uint256)": "infinite",
						"transferFrom(address,address,uint256)": "infinite",
						"transferOwnership(address)": "30811",
						"transferTokenToUser(address,uint256)": "infinite"
					}
				},
				"methodIdentifiers": {
					"allowance(address,address)": "dd62ed3e",
					"approve(address,uint256)": "095ea7b3",
					"balanceOf(address)": "70a08231",
					"buy()": "a6f2ae3a",
					"decimals()": "313ce567",
					"decreaseAllowance(address,uint256)": "a457c2d7",
					"increaseAllowance(address,uint256)": "39509351",
					"name()": "06fdde03",
					"owner()": "8da5cb5b",
					"renounceOwnership()": "715018a6",
					"symbol()": "95d89b41",
					"totalSupply()": "18160ddd",
					"transfer(address,uint256)": "a9059cbb",
					"transferFrom(address,address,uint256)": "23b872dd",
					"transferOwnership(address)": "f2fde38b",
					"transferTokenToUser(address,uint256)": "4664ffea"
				}
			},
			"storageLayout": {
				"storage": [
					{
						"astId": 120,
						"contract": "contracts/YNPresalePair.sol:YNPresalePair",
						"label": "_balances",
						"offset": 0,
						"slot": "0",
						"type": "t_mapping(t_address,t_uint256)"
					},
					{
						"astId": 126,
						"contract": "contracts/YNPresalePair.sol:YNPresalePair",
						"label": "_allowances",
						"offset": 0,
						"slot": "1",
						"type": "t_mapping(t_address,t_mapping(t_address,t_uint256))"
					},
					{
						"astId": 128,
						"contract": "contracts/YNPresalePair.sol:YNPresalePair",
						"label": "_totalSupply",
						"offset": 0,
						"slot": "2",
						"type": "t_uint256"
					},
					{
						"astId": 130,
						"contract": "contracts/YNPresalePair.sol:YNPresalePair",
						"label": "_name",
						"offset": 0,
						"slot": "3",
						"type": "t_string_storage"
					},
					{
						"astId": 132,
						"contract": "contracts/YNPresalePair.sol:YNPresalePair",
						"label": "_symbol",
						"offset": 0,
						"slot": "4",
						"type": "t_string_storage"
					},
					{
						"astId": 7,
						"contract": "contracts/YNPresalePair.sol:YNPresalePair",
						"label": "_owner",
						"offset": 0,
						"slot": "5",
						"type": "t_address"
					},
					{
						"astId": 1204,
						"contract": "contracts/YNPresalePair.sol:YNPresalePair",
						"label": "_buyFee",
						"offset": 0,
						"slot": "6",
						"type": "t_uint256"
					},
					{
						"astId": 1207,
						"contract": "contracts/YNPresalePair.sol:YNPresalePair",
						"label": "_saleFee",
						"offset": 0,
						"slot": "7",
						"type": "t_uint256"
					},
					{
						"astId": 1214,
						"contract": "contracts/YNPresalePair.sol:YNPresalePair",
						"label": "ETH",
						"offset": 0,
						"slot": "8",
						"type": "t_uint256"
					},
					{
						"astId": 1221,
						"contract": "contracts/YNPresalePair.sol:YNPresalePair",
						"label": "maxBuy",
						"offset": 0,
						"slot": "9",
						"type": "t_uint256"
					},
					{
						"astId": 1228,
						"contract": "contracts/YNPresalePair.sol:YNPresalePair",
						"label": "maxSale",
						"offset": 0,
						"slot": "10",
						"type": "t_uint256"
					}
				],
				"types": {
					"t_address": {
						"encoding": "inplace",
						"label": "address",
						"numberOfBytes": "20"
					},
					"t_mapping(t_address,t_mapping(t_address,t_uint256))": {
						"encoding": "mapping",
						"key": "t_address",
						"label": "mapping(address => mapping(address => uint256))",
						"numberOfBytes": "32",
						"value": "t_mapping(t_address,t_uint256)"
					},
					"t_mapping(t_address,t_uint256)": {
						"encoding": "mapping",
						"key": "t_address",
						"label": "mapping(address => uint256)",
						"numberOfBytes": "32",
						"value": "t_uint256"
					},
					"t_string_storage": {
						"encoding": "bytes",
						"label": "string",
						"numberOfBytes": "32"
					},
					"t_uint256": {
						"encoding": "inplace",
						"label": "uint256",
						"numberOfBytes": "32"
					}
				}
			},
			"userdoc": {
				"kind": "user",
				"methods": {},
				"version": 1
			}
		}
	}
}