{
	"contracts/YNPresalePair.sol": {
		"YNPresalePair": {
			"abi": [
				{
					"inputs": [
						{
							"internalType": "address",
							"name": "token",
							"type": "address"
						},
						{
							"internalType": "uint256",
							"name": "maxAmount",
							"type": "uint256"
						},
						{
							"internalType": "uint256",
							"name": "amountPerETH",
							"type": "uint256"
						},
						{
							"internalType": "uint256",
							"name": "maxBuy",
							"type": "uint256"
						},
						{
							"internalType": "uint256",
							"name": "maxSale",
							"type": "uint256"
						}
					],
					"stateMutability": "nonpayable",
					"type": "constructor"
				},
				{
					"anonymous": false,
					"inputs": [
						{
							"indexed": true,
							"internalType": "address",
							"name": "owner",
							"type": "address"
						},
						{
							"indexed": true,
							"internalType": "address",
							"name": "spender",
							"type": "address"
						},
						{
							"indexed": false,
							"internalType": "uint256",
							"name": "value",
							"type": "uint256"
						}
					],
					"name": "Approval",
					"type": "event"
				},
				{
					"anonymous": false,
					"inputs": [
						{
							"indexed": true,
							"internalType": "address",
							"name": "previousOwner",
							"type": "address"
						},
						{
							"indexed": true,
							"internalType": "address",
							"name": "newOwner",
							"type": "address"
						}
					],
					"name": "OwnershipTransferred",
					"type": "event"
				},
				{
					"anonymous": false,
					"inputs": [
						{
							"indexed": true,
							"internalType": "address",
							"name": "from",
							"type": "address"
						},
						{
							"indexed": true,
							"internalType": "address",
							"name": "to",
							"type": "address"
						},
						{
							"indexed": false,
							"internalType": "uint256",
							"name": "value",
							"type": "uint256"
						}
					],
					"name": "Transfer",
					"type": "event"
				},
				{
					"inputs": [
						{
							"internalType": "address",
							"name": "owner",
							"type": "address"
						},
						{
							"internalType": "address",
							"name": "spender",
							"type": "address"
						}
					],
					"name": "allowance",
					"outputs": [
						{
							"internalType": "uint256",
							"name": "",
							"type": "uint256"
						}
					],
					"stateMutability": "view",
					"type": "function"
				},
				{
					"inputs": [
						{
							"internalType": "address",
							"name": "spender",
							"type": "address"
						},
						{
							"internalType": "uint256",
							"name": "amount",
							"type": "uint256"
						}
					],
					"name": "approve",
					"outputs": [
						{
							"internalType": "bool",
							"name": "",
							"type": "bool"
						}
					],
					"stateMutability": "nonpayable",
					"type": "function"
				},
				{
					"inputs": [
						{
							"internalType": "address",
							"name": "account",
							"type": "address"
						}
					],
					"name": "balanceOf",
					"outputs": [
						{
							"internalType": "uint256",
							"name": "",
							"type": "uint256"
						}
					],
					"stateMutability": "view",
					"type": "function"
				},
				{
					"inputs": [],
					"name": "buy",
					"outputs": [],
					"stateMutability": "payable",
					"type": "function"
				},
				{
					"inputs": [],
					"name": "decimals",
					"outputs": [
						{
							"internalType": "uint8",
							"name": "",
							"type": "uint8"
						}
					],
					"stateMutability": "view",
					"type": "function"
				},
				{
					"inputs": [
						{
							"internalType": "address",
							"name": "spender",
							"type": "address"
						},
						{
							"internalType": "uint256",
							"name": "subtractedValue",
							"type": "uint256"
						}
					],
					"name": "decreaseAllowance",
					"outputs": [
						{
							"internalType": "bool",
							"name": "",
							"type": "bool"
						}
					],
					"stateMutability": "nonpayable",
					"type": "function"
				},
				{
					"inputs": [
						{
							"internalType": "address",
							"name": "spender",
							"type": "address"
						},
						{
							"internalType": "uint256",
							"name": "addedValue",
							"type": "uint256"
						}
					],
					"name": "increaseAllowance",
					"outputs": [
						{
							"internalType": "bool",
							"name": "",
							"type": "bool"
						}
					],
					"stateMutability": "nonpayable",
					"type": "function"
				},
				{
					"inputs": [],
					"name": "name",
					"outputs": [
						{
							"internalType": "string",
							"name": "",
							"type": "string"
						}
					],
					"stateMutability": "view",
					"type": "function"
				},
				{
					"inputs": [],
					"name": "owner",
					"outputs": [
						{
							"internalType": "address",
							"name": "",
							"type": "address"
						}
					],
					"stateMutability": "view",
					"type": "function"
				},
				{
					"inputs": [],
					"name": "renounceOwnership",
					"outputs": [],
					"stateMutability": "nonpayable",
					"type": "function"
				},
				{
					"inputs": [],
					"name": "symbol",
					"outputs": [
						{
							"internalType": "string",
							"name": "",
							"type": "string"
						}
					],
					"stateMutability": "view",
					"type": "function"
				},
				{
					"inputs": [],
					"name": "totalSupply",
					"outputs": [
						{
							"internalType": "uint256",
							"name": "",
							"type": "uint256"
						}
					],
					"stateMutability": "view",
					"type": "function"
				},
				{
					"inputs": [
						{
							"internalType": "address",
							"name": "recipient",
							"type": "address"
						},
						{
							"internalType": "uint256",
							"name": "amount",
							"type": "uint256"
						}
					],
					"name": "transfer",
					"outputs": [
						{
							"internalType": "bool",
							"name": "",
							"type": "bool"
						}
					],
					"stateMutability": "nonpayable",
					"type": "function"
				},
				{
					"inputs": [
						{
							"internalType": "address",
							"name": "user",
							"type": "address"
						},
						{
							"internalType": "uint256",
							"name": "money",
							"type": "uint256"
						}
					],
					"name": "transferBalanceToUser",
					"outputs": [],
					"stateMutability": "nonpayable",
					"type": "function"
				},
				{
					"inputs": [
						{
							"internalType": "uint256",
							"name": "money",
							"type": "uint256"
						}
					],
					"name": "transferBalanceToYuki",
					"outputs": [],
					"stateMutability": "nonpayable",
					"type": "function"
				},
				{
					"inputs": [
						{
							"internalType": "address",
							"name": "sender",
							"type": "address"
						},
						{
							"internalType": "address",
							"name": "recipient",
							"type": "address"
						},
						{
							"internalType": "uint256",
							"name": "amount",
							"type": "uint256"
						}
					],
					"name": "transferFrom",
					"outputs": [
						{
							"internalType": "bool",
							"name": "",
							"type": "bool"
						}
					],
					"stateMutability": "nonpayable",
					"type": "function"
				},
				{
					"inputs": [
						{
							"internalType": "address",
							"name": "newOwner",
							"type": "address"
						}
					],
					"name": "transferOwnership",
					"outputs": [],
					"stateMutability": "nonpayable",
					"type": "function"
				},
				{
					"inputs": [
						{
							"internalType": "address",
							"name": "user",
							"type": "address"
						},
						{
							"internalType": "uint256",
							"name": "money",
							"type": "uint256"
						}
					],
					"name": "transferTokenToUser",
					"outputs": [],
					"stateMutability": "nonpayable",
					"type": "function"
				}
			],
			"devdoc": {
				"kind": "dev",
				"methods": {
					"allowance(address,address)": {
						"details": "See {IERC20-allowance}."
					},
					"approve(address,uint256)": {
						"details": "See {IERC20-approve}. Requirements: - `spender` cannot be the zero address."
					},
					"balanceOf(address)": {
						"details": "See {IERC20-balanceOf}."
					},
					"decimals()": {
						"details": "Returns the number of decimals used to get its user representation. For example, if `decimals` equals `2`, a balance of `505` tokens should be displayed to a user as `5.05` (`505 / 10 ** 2`). Tokens usually opt for a value of 18, imitating the relationship between Ether and Wei. This is the value {ERC20} uses, unless this function is overridden; NOTE: This information is only used for _display_ purposes: it in no way affects any of the arithmetic of the contract, including {IERC20-balanceOf} and {IERC20-transfer}."
					},
					"decreaseAllowance(address,uint256)": {
						"details": "Atomically decreases the allowance granted to `spender` by the caller. This is an alternative to {approve} that can be used as a mitigation for problems described in {IERC20-approve}. Emits an {Approval} event indicating the updated allowance. Requirements: - `spender` cannot be the zero address. - `spender` must have allowance for the caller of at least `subtractedValue`."
					},
					"increaseAllowance(address,uint256)": {
						"details": "Atomically increases the allowance granted to `spender` by the caller. This is an alternative to {approve} that can be used as a mitigation for problems described in {IERC20-approve}. Emits an {Approval} event indicating the updated allowance. Requirements: - `spender` cannot be the zero address."
					},
					"name()": {
						"details": "Returns the name of the token."
					},
					"owner()": {
						"details": "Returns the address of the current owner."
					},
					"renounceOwnership()": {
						"details": "Leaves the contract without owner. It will not be possible to call `onlyOwner` functions anymore. Can only be called by the current owner. NOTE: Renouncing ownership will leave the contract without an owner, thereby removing any functionality that is only available to the owner."
					},
					"symbol()": {
						"details": "Returns the symbol of the token, usually a shorter version of the name."
					},
					"totalSupply()": {
						"details": "See {IERC20-totalSupply}."
					},
					"transfer(address,uint256)": {
						"details": "See {IERC20-transfer}. Requirements: - `recipient` cannot be the zero address. - the caller must have a balance of at least `amount`."
					},
					"transferFrom(address,address,uint256)": {
						"details": "See {IERC20-transferFrom}. Emits an {Approval} event indicating the updated allowance. This is not required by the EIP. See the note at the beginning of {ERC20}. Requirements: - `sender` and `recipient` cannot be the zero address. - `sender` must have a balance of at least `amount`. - the caller must have allowance for ``sender``'s tokens of at least `amount`."
					},
					"transferOwnership(address)": {
						"details": "Transfers ownership of the contract to a new account (`newOwner`). Can only be called by the current owner."
					}
				},
				"version": 1
			},
			"evm": {
				"assembly": "    /* \"contracts/YNPresalePair.sol\":256:3063  contract YNPresalePair is ERC20, Ownable {... */\n  mstore(0x40, 0x80)\n    /* \"contracts/YNPresalePair.sol\":357:358  0 */\n  0x00\n    /* \"contracts/YNPresalePair.sol\":341:358  uint256 _buyFee=0 */\n  0x06\n  dup2\n  swap1\n  sstore\n    /* \"contracts/YNPresalePair.sol\":365:383  uint256 _saleFee=0 */\n  0x07\n  dup2\n  swap1\n  sstore\n    /* \"contracts/YNPresalePair.sol\":402:414  1 * 10 ** 18 */\n  0x0de0b6b3a7640000\n    /* \"contracts/YNPresalePair.sol\":390:414  uint256 ETH=1 * 10 ** 18 */\n  0x08\n  sstore\n    /* \"contracts/YNPresalePair.sol\":423:440  uint256 _maxBuy=0 */\n  0x09\n  dup2\n  swap1\n  sstore\n    /* \"contracts/YNPresalePair.sol\":447:465  uint256 _maxSale=0 */\n  0x0a\n  sstore\n    /* \"contracts/YNPresalePair.sol\":472:489  uint8 _decimal=18 */\n  0x0b\n  dup1\n  sload\n  not(0xff)\n  and\n    /* \"contracts/YNPresalePair.sol\":487:489  18 */\n  0x12\n    /* \"contracts/YNPresalePair.sol\":472:489  uint8 _decimal=18 */\n  or\n  swap1\n  sstore\n    /* \"contracts/YNPresalePair.sol\":498:861  constructor(address token,uint256 maxAmount,uint256 amountPerETH,uint maxBuy,uint maxSale) ERC20(\"Yuki Presale Pair\", \"YN-PPs\") {... */\n  callvalue\n  dup1\n  iszero\n  tag_1\n  jumpi\n  0x00\n  dup1\n  revert\ntag_1:\n  pop\n  mload(0x40)\n  sub(codesize, bytecodeSize)\n  dup1\n  bytecodeSize\n  dup4\n  codecopy\n  dup2\n  add\n  0x40\n  dup2\n  swap1\n  mstore\n  tag_2\n  swap2\n  tag_3\n  jump\t// in\ntag_2:\n    /* \"@openzeppelin/contracts/token/ERC20/ERC20.sol\":1963:2076  constructor(string memory name_, string memory symbol_) {... */\n  0x40\n  dup1\n  mload\n  dup1\n  dup3\n  add\n  dup3\n  mstore\n  0x11\n  dup2\n  mstore\n  shl(0x79, 0x2cbab5b490283932b9b0b632902830b4b9)\n  0x20\n  dup1\n  dup4\n  add\n  swap2\n  dup3\n  mstore\n  dup4\n  mload\n  dup1\n  dup6\n  add\n  swap1\n  swap5\n  mstore\n  0x06\n  dup5\n  mstore\n  shl(0xd0, 0x594e2d505073)\n  swap1\n  dup5\n  add\n  mstore\n    /* \"@openzeppelin/contracts/token/ERC20/ERC20.sol\":2029:2042  _name = name_ */\n  dup2\n  mload\n    /* \"@openzeppelin/contracts/token/ERC20/ERC20.sol\":1963:2076  constructor(string memory name_, string memory symbol_) {... */\n  swap2\n  swap3\n  swap2\n    /* \"@openzeppelin/contracts/token/ERC20/ERC20.sol\":2029:2042  _name = name_ */\n  tag_8\n  swap2\n    /* \"@openzeppelin/contracts/token/ERC20/ERC20.sol\":2029:2034  _name */\n  0x03\n  swap2\n    /* \"@openzeppelin/contracts/token/ERC20/ERC20.sol\":2029:2042  _name = name_ */\n  tag_9\n  jump\t// in\ntag_8:\n  pop\n    /* \"@openzeppelin/contracts/token/ERC20/ERC20.sol\":2052:2069  _symbol = symbol_ */\n  dup1\n  mload\n  tag_10\n  swap1\n    /* \"@openzeppelin/contracts/token/ERC20/ERC20.sol\":2052:2059  _symbol */\n  0x04\n  swap1\n    /* \"@openzeppelin/contracts/token/ERC20/ERC20.sol\":2052:2069  _symbol = symbol_ */\n  0x20\n  dup5\n  add\n  swap1\n  tag_9\n  jump\t// in\ntag_10:\n  pop\n    /* \"@openzeppelin/contracts/token/ERC20/ERC20.sol\":1963:2076  constructor(string memory name_, string memory symbol_) {... */\n  pop\n  pop\n    /* \"@openzeppelin/contracts/access/Ownable.sol\":921:953  _transferOwnership(_msgSender()) */\n  tag_12\n    /* \"@openzeppelin/contracts/access/Ownable.sol\":940:952  _msgSender() */\n  tag_13\n    /* \"@openzeppelin/contracts/access/Ownable.sol\":940:950  _msgSender */\n  shl(0x20, tag_14)\n    /* \"@openzeppelin/contracts/access/Ownable.sol\":940:952  _msgSender() */\n  0x20\n  shr\n  jump\t// in\ntag_13:\n    /* \"@openzeppelin/contracts/access/Ownable.sol\":921:939  _transferOwnership */\n  tag_15\n    /* \"@openzeppelin/contracts/access/Ownable.sol\":921:953  _transferOwnership(_msgSender()) */\n  jump\t// in\ntag_12:\n    /* \"contracts/YNPresalePair.sol\":653:658  token */\n  dup5\n  sub(shl(0xa0, 0x01), 0x01)\n    /* \"contracts/YNPresalePair.sol\":646:668  YERC20(token).decimals */\n  and\n  0x313ce567\n    /* \"contracts/YNPresalePair.sol\":646:670  YERC20(token).decimals() */\n  mload(0x40)\n  dup2\n  0xffffffff\n  and\n  0xe0\n  shl\n  dup2\n  mstore\n  0x04\n  add\n  0x20\n  mload(0x40)\n  dup1\n  dup4\n  sub\n  dup2\n  dup7\n  gas\n  staticcall\n  iszero\n  dup1\n  iszero\n  tag_18\n  jumpi\n  returndatasize\n  0x00\n  dup1\n  returndatacopy\n  revert(0x00, returndatasize)\ntag_18:\n  pop\n  pop\n  pop\n  pop\n  mload(0x40)\n  returndatasize\n  not(0x1f)\n  0x1f\n  dup3\n  add\n  and\n  dup3\n  add\n  dup1\n  0x40\n  mstore\n  pop\n  dup2\n  add\n  swap1\n  tag_19\n  swap2\n  swap1\n  tag_20\n  jump\t// in\ntag_19:\n    /* \"contracts/YNPresalePair.sol\":637:645  _decimal */\n  0x0b\n    /* \"contracts/YNPresalePair.sol\":637:670  _decimal=YERC20(token).decimals() */\n  dup1\n  sload\n  not(0xff)\n  and\n  0xff\n  swap3\n  swap1\n  swap3\n  and\n  swap2\n  dup3\n  or\n  swap1\n  sstore\n    /* \"contracts/YNPresalePair.sol\":681:726  _mint(msg.sender, maxAmount * 10 ** _decimal) */\n  tag_21\n  swap1\n    /* \"contracts/YNPresalePair.sol\":687:697  msg.sender */\n  caller\n  swap1\n    /* \"contracts/YNPresalePair.sol\":711:725  10 ** _decimal */\n  tag_22\n  swap1\n    /* \"contracts/YNPresalePair.sol\":711:713  10 */\n  0x0a\n    /* \"contracts/YNPresalePair.sol\":711:725  10 ** _decimal */\n  tag_23\n  jump\t// in\ntag_22:\n    /* \"contracts/YNPresalePair.sol\":699:725  maxAmount * 10 ** _decimal */\n  tag_24\n  swap1\n    /* \"contracts/YNPresalePair.sol\":699:708  maxAmount */\n  dup8\n    /* \"contracts/YNPresalePair.sol\":699:725  maxAmount * 10 ** _decimal */\n  tag_25\n  jump\t// in\ntag_24:\n    /* \"contracts/YNPresalePair.sol\":681:686  _mint */\n  tag_26\n    /* \"contracts/YNPresalePair.sol\":681:726  _mint(msg.sender, maxAmount * 10 ** _decimal) */\n  jump\t// in\ntag_21:\n    /* \"contracts/YNPresalePair.sol\":751:763  amountPerETH */\n  dup3\n    /* \"contracts/YNPresalePair.sol\":745:748  ETH */\n  sload(0x08)\n    /* \"contracts/YNPresalePair.sol\":745:763  ETH / amountPerETH */\n  tag_27\n  swap2\n  swap1\n  tag_28\n  jump\t// in\ntag_27:\n    /* \"contracts/YNPresalePair.sol\":737:744  _buyFee */\n  0x06\n    /* \"contracts/YNPresalePair.sol\":737:763  _buyFee=ETH / amountPerETH */\n  sstore\n    /* \"contracts/YNPresalePair.sol\":783:786  ETH */\n  sload(0x08)\n    /* \"contracts/YNPresalePair.sol\":783:801  ETH / amountPerETH */\n  tag_29\n  swap1\n    /* \"contracts/YNPresalePair.sol\":789:801  amountPerETH */\n  dup5\n  swap1\n    /* \"contracts/YNPresalePair.sol\":783:801  ETH / amountPerETH */\n  tag_28\n  jump\t// in\ntag_29:\n    /* \"contracts/YNPresalePair.sol\":774:782  _saleFee */\n  0x07\n    /* \"contracts/YNPresalePair.sol\":774:801  _saleFee=ETH / amountPerETH */\n  sstore\n    /* \"contracts/YNPresalePair.sol\":812:819  _maxBuy */\n  0x09\n    /* \"contracts/YNPresalePair.sol\":812:826  _maxBuy=maxBuy */\n  swap2\n  swap1\n  swap2\n  sstore\n    /* \"contracts/YNPresalePair.sol\":837:845  _maxSale */\n  0x0a\n    /* \"contracts/YNPresalePair.sol\":837:853  _maxSale=maxSale */\n  sstore\n  pop\n    /* \"contracts/YNPresalePair.sol\":256:3063  contract YNPresalePair is ERC20, Ownable {... */\n  tag_62\n  swap2\n  pop\n  pop\n  jump\n    /* \"@openzeppelin/contracts/utils/Context.sol\":640:736  function _msgSender() internal view virtual returns (address) {... */\ntag_14:\n    /* \"@openzeppelin/contracts/utils/Context.sol\":719:729  msg.sender */\n  caller\n  swap1\n    /* \"@openzeppelin/contracts/utils/Context.sol\":640:736  function _msgSender() internal view virtual returns (address) {... */\n  jump\t// out\n    /* \"@openzeppelin/contracts/access/Ownable.sol\":2270:2457  function _transferOwnership(address newOwner) internal virtual {... */\ntag_15:\n    /* \"@openzeppelin/contracts/access/Ownable.sol\":2362:2368  _owner */\n  0x05\n  dup1\n  sload\n  sub(shl(0xa0, 0x01), 0x01)\n    /* \"@openzeppelin/contracts/access/Ownable.sol\":2378:2395  _owner = newOwner */\n  dup4\n  dup2\n  and\n  not(sub(shl(0xa0, 0x01), 0x01))\n  dup4\n  and\n  dup2\n  or\n  swap1\n  swap4\n  sstore\n    /* \"@openzeppelin/contracts/access/Ownable.sol\":2410:2450  OwnershipTransferred(oldOwner, newOwner) */\n  mload(0x40)\n    /* \"@openzeppelin/contracts/access/Ownable.sol\":2362:2368  _owner */\n  swap2\n  and\n  swap2\n    /* \"@openzeppelin/contracts/access/Ownable.sol\":2378:2395  _owner = newOwner */\n  swap1\n    /* \"@openzeppelin/contracts/access/Ownable.sol\":2362:2368  _owner */\n  dup3\n  swap1\n    /* \"@openzeppelin/contracts/access/Ownable.sol\":2410:2450  OwnershipTransferred(oldOwner, newOwner) */\n  0x8be0079c531659141344cd1fd0a4f28419497f9722a3daafe3b4186f6b6457e0\n  swap1\n    /* \"@openzeppelin/contracts/access/Ownable.sol\":2343:2359  address oldOwner */\n  0x00\n  swap1\n    /* \"@openzeppelin/contracts/access/Ownable.sol\":2410:2450  OwnershipTransferred(oldOwner, newOwner) */\n  log3\n    /* \"@openzeppelin/contracts/access/Ownable.sol\":2333:2457  {... */\n  pop\n    /* \"@openzeppelin/contracts/access/Ownable.sol\":2270:2457  function _transferOwnership(address newOwner) internal virtual {... */\n  pop\n  jump\t// out\n    /* \"@openzeppelin/contracts/token/ERC20/ERC20.sol\":8311:8700  function _mint(address account, uint256 amount) internal virtual {... */\ntag_26:\n  sub(shl(0xa0, 0x01), 0x01)\n    /* \"@openzeppelin/contracts/token/ERC20/ERC20.sol\":8394:8415  account != address(0) */\n  dup3\n  and\n    /* \"@openzeppelin/contracts/token/ERC20/ERC20.sol\":8386:8451  require(account != address(0), \"ERC20: mint to the zero address\") */\n  tag_34\n  jumpi\n  mload(0x40)\n  shl(0xe5, 0x461bcd)\n  dup2\n  mstore\n    /* \"#utility.yul\":2945:2947   */\n  0x20\n    /* \"@openzeppelin/contracts/token/ERC20/ERC20.sol\":8386:8451  require(account != address(0), \"ERC20: mint to the zero address\") */\n  0x04\n  dup3\n  add\n    /* \"#utility.yul\":2927:2948   */\n  mstore\n    /* \"#utility.yul\":2984:2986   */\n  0x1f\n    /* \"#utility.yul\":2964:2982   */\n  0x24\n  dup3\n  add\n    /* \"#utility.yul\":2957:2987   */\n  mstore\n    /* \"#utility.yul\":3023:3056   */\n  0x45524332303a206d696e7420746f20746865207a65726f206164647265737300\n    /* \"#utility.yul\":3003:3021   */\n  0x44\n  dup3\n  add\n    /* \"#utility.yul\":2996:3057   */\n  mstore\n    /* \"#utility.yul\":3074:3092   */\n  0x64\n  add\n    /* \"@openzeppelin/contracts/token/ERC20/ERC20.sol\":8386:8451  require(account != address(0), \"ERC20: mint to the zero address\") */\n  mload(0x40)\n  dup1\n  swap2\n  sub\n  swap1\n  revert\ntag_34:\n    /* \"@openzeppelin/contracts/token/ERC20/ERC20.sol\":8538:8544  amount */\n  dup1\n    /* \"@openzeppelin/contracts/token/ERC20/ERC20.sol\":8522:8534  _totalSupply */\n  0x02\n  0x00\n    /* \"@openzeppelin/contracts/token/ERC20/ERC20.sol\":8522:8544  _totalSupply += amount */\n  dup3\n  dup3\n  sload\n  tag_39\n  swap2\n  swap1\n  tag_40\n  jump\t// in\ntag_39:\n  swap1\n  swap2\n  sstore\n  pop\n  pop\n  sub(shl(0xa0, 0x01), 0x01)\n    /* \"@openzeppelin/contracts/token/ERC20/ERC20.sol\":8554:8572  _balances[account] */\n  dup3\n  and\n    /* \"@openzeppelin/contracts/token/ERC20/ERC20.sol\":8554:8563  _balances */\n  0x00\n    /* \"@openzeppelin/contracts/token/ERC20/ERC20.sol\":8554:8572  _balances[account] */\n  swap1\n  dup2\n  mstore\n  0x20\n  dup2\n  swap1\n  mstore\n  0x40\n  dup2\n  keccak256\n    /* \"@openzeppelin/contracts/token/ERC20/ERC20.sol\":8554:8582  _balances[account] += amount */\n  dup1\n  sload\n    /* \"@openzeppelin/contracts/token/ERC20/ERC20.sol\":8576:8582  amount */\n  dup4\n  swap3\n    /* \"@openzeppelin/contracts/token/ERC20/ERC20.sol\":8554:8563  _balances */\n  swap1\n    /* \"@openzeppelin/contracts/token/ERC20/ERC20.sol\":8554:8582  _balances[account] += amount */\n  tag_41\n  swap1\n    /* \"@openzeppelin/contracts/token/ERC20/ERC20.sol\":8576:8582  amount */\n  dup5\n  swap1\n    /* \"@openzeppelin/contracts/token/ERC20/ERC20.sol\":8554:8582  _balances[account] += amount */\n  tag_40\n  jump\t// in\ntag_41:\n  swap1\n  swap2\n  sstore\n  pop\n  pop\n    /* \"@openzeppelin/contracts/token/ERC20/ERC20.sol\":8597:8634  Transfer(address(0), account, amount) */\n  mload(0x40)\n    /* \"#utility.yul\":3382:3407   */\n  dup2\n  dup2\n  mstore\n  sub(shl(0xa0, 0x01), 0x01)\n    /* \"@openzeppelin/contracts/token/ERC20/ERC20.sol\":8597:8634  Transfer(address(0), account, amount) */\n  dup4\n  and\n  swap1\n    /* \"@openzeppelin/contracts/token/ERC20/ERC20.sol\":8614:8615  0 */\n  0x00\n  swap1\n    /* \"@openzeppelin/contracts/token/ERC20/ERC20.sol\":8597:8634  Transfer(address(0), account, amount) */\n  0xddf252ad1be2c89b69c2b068fc378daa952ba7f163c4a11628f55a4df523b3ef\n  swap1\n    /* \"#utility.yul\":3370:3372   */\n  0x20\n    /* \"#utility.yul\":3355:3373   */\n  add\n    /* \"@openzeppelin/contracts/token/ERC20/ERC20.sol\":8597:8634  Transfer(address(0), account, amount) */\n  mload(0x40)\n  dup1\n  swap2\n  sub\n  swap1\n  log3\n    /* \"@openzeppelin/contracts/token/ERC20/ERC20.sol\":8311:8700  function _mint(address account, uint256 amount) internal virtual {... */\n  pop\n  pop\n  jump\t// out\n    /* \"contracts/YNPresalePair.sol\":256:3063  contract YNPresalePair is ERC20, Ownable {... */\ntag_9:\n  dup3\n  dup1\n  sload\n  tag_48\n  swap1\n  tag_49\n  jump\t// in\ntag_48:\n  swap1\n  0x00\n  mstore\n  keccak256(0x00, 0x20)\n  swap1\n  0x1f\n  add\n  0x20\n  swap1\n  div\n  dup2\n  add\n  swap3\n  dup3\n  tag_51\n  jumpi\n  0x00\n  dup6\n  sstore\n  jump(tag_54)\ntag_51:\n  dup3\n  0x1f\n  lt\n  tag_52\n  jumpi\n  dup1\n  mload\n  not(0xff)\n  and\n  dup4\n  dup1\n  add\n  or\n  dup6\n  sstore\n  jump(tag_54)\ntag_52:\n  dup3\n  dup1\n  add\n  0x01\n  add\n  dup6\n  sstore\n  dup3\n  iszero\n  tag_54\n  jumpi\n  swap2\n  dup3\n  add\ntag_53:\n  dup3\n  dup2\n  gt\n  iszero\n  tag_54\n  jumpi\n  dup3\n  mload\n  dup3\n  sstore\n  swap2\n  0x20\n  add\n  swap2\n  swap1\n  0x01\n  add\n  swap1\n  jump(tag_53)\ntag_54:\n  pop\n  tag_55\n  swap3\n  swap2\n  pop\n  tag_56\n  jump\t// in\ntag_55:\n  pop\n  swap1\n  jump\t// out\ntag_56:\ntag_57:\n  dup1\n  dup3\n  gt\n  iszero\n  tag_55\n  jumpi\n  0x00\n  dup2\n  sstore\n  0x01\n  add\n  jump(tag_57)\n    /* \"#utility.yul\":14:550   */\ntag_3:\n    /* \"#utility.yul\":120:126   */\n  0x00\n    /* \"#utility.yul\":128:134   */\n  dup1\n    /* \"#utility.yul\":136:142   */\n  0x00\n    /* \"#utility.yul\":144:150   */\n  dup1\n    /* \"#utility.yul\":152:158   */\n  0x00\n    /* \"#utility.yul\":205:208   */\n  0xa0\n    /* \"#utility.yul\":193:202   */\n  dup7\n    /* \"#utility.yul\":184:191   */\n  dup9\n    /* \"#utility.yul\":180:203   */\n  sub\n    /* \"#utility.yul\":176:209   */\n  slt\n    /* \"#utility.yul\":173:226   */\n  iszero\n  tag_64\n  jumpi\n    /* \"#utility.yul\":222:223   */\n  0x00\n    /* \"#utility.yul\":219:220   */\n  dup1\n    /* \"#utility.yul\":212:224   */\n  revert\n    /* \"#utility.yul\":173:226   */\ntag_64:\n    /* \"#utility.yul\":248:264   */\n  dup6\n  mload\n  sub(shl(0xa0, 0x01), 0x01)\n    /* \"#utility.yul\":293:324   */\n  dup2\n  and\n    /* \"#utility.yul\":283:325   */\n  dup2\n  eq\n    /* \"#utility.yul\":273:343   */\n  tag_65\n  jumpi\n    /* \"#utility.yul\":339:340   */\n  0x00\n    /* \"#utility.yul\":336:337   */\n  dup1\n    /* \"#utility.yul\":329:341   */\n  revert\n    /* \"#utility.yul\":273:343   */\ntag_65:\n    /* \"#utility.yul\":407:409   */\n  0x20\n    /* \"#utility.yul\":392:410   */\n  dup8\n  add\n    /* \"#utility.yul\":386:411   */\n  mload\n    /* \"#utility.yul\":451:453   */\n  0x40\n    /* \"#utility.yul\":436:454   */\n  dup9\n  add\n    /* \"#utility.yul\":430:455   */\n  mload\n    /* \"#utility.yul\":495:497   */\n  0x60\n    /* \"#utility.yul\":480:498   */\n  dup10\n  add\n    /* \"#utility.yul\":474:499   */\n  mload\n    /* \"#utility.yul\":539:542   */\n  0x80\n    /* \"#utility.yul\":524:543   */\n  swap1\n  swap10\n  add\n    /* \"#utility.yul\":518:544   */\n  mload\n    /* \"#utility.yul\":362:367   */\n  swap3\n  swap11\n    /* \"#utility.yul\":386:411   */\n  swap2\n  swap10\n  pop\n    /* \"#utility.yul\":430:455   */\n  swap8\n    /* \"#utility.yul\":474:499   */\n  swap7\n  pop\n    /* \"#utility.yul\":518:544   */\n  swap1\n  swap5\n  pop\n    /* \"#utility.yul\":14:550   */\n  swap3\n  pop\n  pop\n  pop\n  jump\t// out\n    /* \"#utility.yul\":555:828   */\ntag_20:\n    /* \"#utility.yul\":623:629   */\n  0x00\n    /* \"#utility.yul\":676:678   */\n  0x20\n    /* \"#utility.yul\":664:673   */\n  dup3\n    /* \"#utility.yul\":655:662   */\n  dup5\n    /* \"#utility.yul\":651:674   */\n  sub\n    /* \"#utility.yul\":647:679   */\n  slt\n    /* \"#utility.yul\":644:696   */\n  iszero\n  tag_67\n  jumpi\n    /* \"#utility.yul\":692:693   */\n  0x00\n    /* \"#utility.yul\":689:690   */\n  dup1\n    /* \"#utility.yul\":682:694   */\n  revert\n    /* \"#utility.yul\":644:696   */\ntag_67:\n    /* \"#utility.yul\":724:733   */\n  dup2\n    /* \"#utility.yul\":718:734   */\n  mload\n    /* \"#utility.yul\":774:778   */\n  0xff\n    /* \"#utility.yul\":767:772   */\n  dup2\n    /* \"#utility.yul\":763:779   */\n  and\n    /* \"#utility.yul\":756:761   */\n  dup2\n    /* \"#utility.yul\":753:780   */\n  eq\n    /* \"#utility.yul\":743:798   */\n  tag_68\n  jumpi\n    /* \"#utility.yul\":794:795   */\n  0x00\n    /* \"#utility.yul\":791:792   */\n  dup1\n    /* \"#utility.yul\":784:796   */\n  revert\n    /* \"#utility.yul\":743:798   */\ntag_68:\n    /* \"#utility.yul\":817:822   */\n  swap4\n    /* \"#utility.yul\":555:828   */\n  swap3\n  pop\n  pop\n  pop\n  jump\t// out\n    /* \"#utility.yul\":833:960   */\ntag_59:\n    /* \"#utility.yul\":894:904   */\n  0x4e487b71\n    /* \"#utility.yul\":889:892   */\n  0xe0\n    /* \"#utility.yul\":885:905   */\n  shl\n    /* \"#utility.yul\":882:883   */\n  0x00\n    /* \"#utility.yul\":875:906   */\n  mstore\n    /* \"#utility.yul\":925:929   */\n  0x11\n    /* \"#utility.yul\":922:923   */\n  0x04\n    /* \"#utility.yul\":915:930   */\n  mstore\n    /* \"#utility.yul\":949:953   */\n  0x24\n    /* \"#utility.yul\":946:947   */\n  0x00\n    /* \"#utility.yul\":939:954   */\n  revert\n    /* \"#utility.yul\":965:1387   */\ntag_60:\n    /* \"#utility.yul\":1054:1055   */\n  0x01\n    /* \"#utility.yul\":1097:1102   */\n  dup2\n    /* \"#utility.yul\":1054:1055   */\n  dup2\n    /* \"#utility.yul\":1111:1381   */\ntag_71:\n    /* \"#utility.yul\":1132:1139   */\n  dup1\n    /* \"#utility.yul\":1122:1130   */\n  dup6\n    /* \"#utility.yul\":1119:1140   */\n  gt\n    /* \"#utility.yul\":1111:1381   */\n  iszero\n  tag_73\n  jumpi\n    /* \"#utility.yul\":1191:1195   */\n  dup2\n    /* \"#utility.yul\":1187:1188   */\n  0x00\n    /* \"#utility.yul\":1183:1189   */\n  not\n    /* \"#utility.yul\":1179:1196   */\n  div\n    /* \"#utility.yul\":1173:1177   */\n  dup3\n    /* \"#utility.yul\":1170:1197   */\n  gt\n    /* \"#utility.yul\":1167:1220   */\n  iszero\n  tag_75\n  jumpi\n    /* \"#utility.yul\":1200:1218   */\n  tag_75\n  tag_59\n  jump\t// in\ntag_75:\n    /* \"#utility.yul\":1250:1257   */\n  dup1\n    /* \"#utility.yul\":1240:1248   */\n  dup6\n    /* \"#utility.yul\":1236:1258   */\n  and\n    /* \"#utility.yul\":1233:1288   */\n  iszero\n  tag_76\n  jumpi\n    /* \"#utility.yul\":1270:1286   */\n  swap2\n  dup2\n  mul\n  swap2\n    /* \"#utility.yul\":1233:1288   */\ntag_76:\n    /* \"#utility.yul\":1349:1371   */\n  swap4\n  dup5\n  shr\n  swap4\n    /* \"#utility.yul\":1309:1324   */\n  swap1\n  dup1\n  mul\n  swap1\n    /* \"#utility.yul\":1111:1381   */\n  jump(tag_71)\ntag_73:\n    /* \"#utility.yul\":1115:1118   */\n  pop\n    /* \"#utility.yul\":965:1387   */\n  swap3\n  pop\n  swap3\n  swap1\n  pop\n  jump\t// out\n    /* \"#utility.yul\":1392:2198   */\ntag_61:\n    /* \"#utility.yul\":1441:1446   */\n  0x00\n    /* \"#utility.yul\":1471:1479   */\n  dup3\n    /* \"#utility.yul\":1461:1541   */\n  tag_78\n  jumpi\n  pop\n    /* \"#utility.yul\":1512:1513   */\n  0x01\n    /* \"#utility.yul\":1526:1531   */\n  jump(tag_77)\n    /* \"#utility.yul\":1461:1541   */\ntag_78:\n    /* \"#utility.yul\":1560:1564   */\n  dup2\n    /* \"#utility.yul\":1550:1626   */\n  tag_79\n  jumpi\n  pop\n    /* \"#utility.yul\":1597:1598   */\n  0x00\n    /* \"#utility.yul\":1611:1616   */\n  jump(tag_77)\n    /* \"#utility.yul\":1550:1626   */\ntag_79:\n    /* \"#utility.yul\":1642:1646   */\n  dup2\n    /* \"#utility.yul\":1660:1661   */\n  0x01\n    /* \"#utility.yul\":1655:1714   */\n  dup2\n  eq\n  tag_81\n  jumpi\n    /* \"#utility.yul\":1728:1729   */\n  0x02\n    /* \"#utility.yul\":1723:1853   */\n  dup2\n  eq\n  tag_82\n  jumpi\n    /* \"#utility.yul\":1635:1853   */\n  jump(tag_80)\n    /* \"#utility.yul\":1655:1714   */\ntag_81:\n    /* \"#utility.yul\":1685:1686   */\n  0x01\n    /* \"#utility.yul\":1676:1686   */\n  swap2\n  pop\n    /* \"#utility.yul\":1699:1704   */\n  pop\n  jump(tag_77)\n    /* \"#utility.yul\":1723:1853   */\ntag_82:\n    /* \"#utility.yul\":1760:1763   */\n  0xff\n    /* \"#utility.yul\":1750:1758   */\n  dup5\n    /* \"#utility.yul\":1747:1764   */\n  gt\n    /* \"#utility.yul\":1744:1787   */\n  iszero\n  tag_84\n  jumpi\n    /* \"#utility.yul\":1767:1785   */\n  tag_84\n  tag_59\n  jump\t// in\ntag_84:\n  pop\n  pop\n    /* \"#utility.yul\":1823:1824   */\n  0x01\n    /* \"#utility.yul\":1809:1825   */\n  dup3\n  shl\n    /* \"#utility.yul\":1838:1843   */\n  jump(tag_77)\n    /* \"#utility.yul\":1635:1853   */\ntag_80:\n  pop\n    /* \"#utility.yul\":1937:1939   */\n  0x20\n    /* \"#utility.yul\":1927:1935   */\n  dup4\n    /* \"#utility.yul\":1924:1940   */\n  lt\n    /* \"#utility.yul\":1918:1921   */\n  0x0133\n    /* \"#utility.yul\":1912:1916   */\n  dup4\n    /* \"#utility.yul\":1909:1922   */\n  lt\n    /* \"#utility.yul\":1905:1941   */\n  and\n    /* \"#utility.yul\":1899:1901   */\n  0x4e\n    /* \"#utility.yul\":1889:1897   */\n  dup5\n    /* \"#utility.yul\":1886:1902   */\n  lt\n    /* \"#utility.yul\":1881:1883   */\n  0x0b\n    /* \"#utility.yul\":1875:1879   */\n  dup5\n    /* \"#utility.yul\":1872:1884   */\n  lt\n    /* \"#utility.yul\":1868:1903   */\n  and\n    /* \"#utility.yul\":1865:1942   */\n  or\n    /* \"#utility.yul\":1862:2021   */\n  iszero\n  tag_85\n  jumpi\n  pop\n    /* \"#utility.yul\":1974:1993   */\n  dup2\n  dup2\n  exp\n    /* \"#utility.yul\":2006:2011   */\n  jump(tag_77)\n    /* \"#utility.yul\":1862:2021   */\ntag_85:\n    /* \"#utility.yul\":2053:2087   */\n  tag_86\n    /* \"#utility.yul\":2078:2086   */\n  dup4\n    /* \"#utility.yul\":2072:2076   */\n  dup4\n    /* \"#utility.yul\":2053:2087   */\n  tag_60\n  jump\t// in\ntag_86:\n    /* \"#utility.yul\":2123:2129   */\n  dup1\n    /* \"#utility.yul\":2119:2120   */\n  0x00\n    /* \"#utility.yul\":2115:2121   */\n  not\n    /* \"#utility.yul\":2111:2130   */\n  div\n    /* \"#utility.yul\":2102:2109   */\n  dup3\n    /* \"#utility.yul\":2099:2131   */\n  gt\n    /* \"#utility.yul\":2096:2154   */\n  iszero\n  tag_88\n  jumpi\n    /* \"#utility.yul\":2134:2152   */\n  tag_88\n  tag_59\n  jump\t// in\ntag_88:\n    /* \"#utility.yul\":2172:2192   */\n  mul\n  swap1\n  pop\n    /* \"#utility.yul\":1392:2198   */\ntag_77:\n  swap3\n  swap2\n  pop\n  pop\n  jump\t// out\n    /* \"#utility.yul\":2203:2343   */\ntag_23:\n    /* \"#utility.yul\":2261:2266   */\n  0x00\n    /* \"#utility.yul\":2290:2337   */\n  tag_68\n    /* \"#utility.yul\":2331:2335   */\n  0xff\n    /* \"#utility.yul\":2321:2329   */\n  dup5\n    /* \"#utility.yul\":2317:2336   */\n  and\n    /* \"#utility.yul\":2311:2315   */\n  dup4\n    /* \"#utility.yul\":2290:2337   */\n  tag_61\n  jump\t// in\n    /* \"#utility.yul\":2348:2516   */\ntag_25:\n    /* \"#utility.yul\":2388:2395   */\n  0x00\n    /* \"#utility.yul\":2454:2455   */\n  dup2\n    /* \"#utility.yul\":2450:2451   */\n  0x00\n    /* \"#utility.yul\":2446:2452   */\n  not\n    /* \"#utility.yul\":2442:2456   */\n  div\n    /* \"#utility.yul\":2439:2440   */\n  dup4\n    /* \"#utility.yul\":2436:2457   */\n  gt\n    /* \"#utility.yul\":2431:2432   */\n  dup3\n    /* \"#utility.yul\":2424:2433   */\n  iszero\n    /* \"#utility.yul\":2417:2434   */\n  iszero\n    /* \"#utility.yul\":2413:2458   */\n  and\n    /* \"#utility.yul\":2410:2481   */\n  iszero\n  tag_93\n  jumpi\n    /* \"#utility.yul\":2461:2479   */\n  tag_93\n  tag_59\n  jump\t// in\ntag_93:\n  pop\n    /* \"#utility.yul\":2501:2510   */\n  mul\n  swap1\n    /* \"#utility.yul\":2348:2516   */\n  jump\t// out\n    /* \"#utility.yul\":2521:2738   */\ntag_28:\n    /* \"#utility.yul\":2561:2562   */\n  0x00\n    /* \"#utility.yul\":2587:2588   */\n  dup3\n    /* \"#utility.yul\":2577:2709   */\n  tag_95\n  jumpi\n    /* \"#utility.yul\":2631:2641   */\n  0x4e487b71\n    /* \"#utility.yul\":2626:2629   */\n  0xe0\n    /* \"#utility.yul\":2622:2642   */\n  shl\n    /* \"#utility.yul\":2619:2620   */\n  0x00\n    /* \"#utility.yul\":2612:2643   */\n  mstore\n    /* \"#utility.yul\":2666:2670   */\n  0x12\n    /* \"#utility.yul\":2663:2664   */\n  0x04\n    /* \"#utility.yul\":2656:2671   */\n  mstore\n    /* \"#utility.yul\":2694:2698   */\n  0x24\n    /* \"#utility.yul\":2691:2692   */\n  0x00\n    /* \"#utility.yul\":2684:2699   */\n  revert\n    /* \"#utility.yul\":2577:2709   */\ntag_95:\n  pop\n    /* \"#utility.yul\":2723:2732   */\n  div\n  swap1\n    /* \"#utility.yul\":2521:2738   */\n  jump\t// out\n    /* \"#utility.yul\":3103:3231   */\ntag_40:\n    /* \"#utility.yul\":3143:3146   */\n  0x00\n    /* \"#utility.yul\":3174:3175   */\n  dup3\n    /* \"#utility.yul\":3170:3176   */\n  not\n    /* \"#utility.yul\":3167:3168   */\n  dup3\n    /* \"#utility.yul\":3164:3177   */\n  gt\n    /* \"#utility.yul\":3161:3200   */\n  iszero\n  tag_99\n  jumpi\n    /* \"#utility.yul\":3180:3198   */\n  tag_99\n  tag_59\n  jump\t// in\ntag_99:\n  pop\n    /* \"#utility.yul\":3216:3225   */\n  add\n  swap1\n    /* \"#utility.yul\":3103:3231   */\n  jump\t// out\n    /* \"#utility.yul\":3418:3798   */\ntag_49:\n    /* \"#utility.yul\":3497:3498   */\n  0x01\n    /* \"#utility.yul\":3493:3505   */\n  dup2\n  dup2\n  shr\n  swap1\n    /* \"#utility.yul\":3540:3552   */\n  dup3\n  and\n  dup1\n    /* \"#utility.yul\":3561:3622   */\n  tag_102\n  jumpi\n    /* \"#utility.yul\":3615:3619   */\n  0x7f\n    /* \"#utility.yul\":3607:3613   */\n  dup3\n    /* \"#utility.yul\":3603:3620   */\n  and\n    /* \"#utility.yul\":3593:3620   */\n  swap2\n  pop\n    /* \"#utility.yul\":3561:3622   */\ntag_102:\n    /* \"#utility.yul\":3668:3670   */\n  0x20\n    /* \"#utility.yul\":3660:3666   */\n  dup3\n    /* \"#utility.yul\":3657:3671   */\n  lt\n    /* \"#utility.yul\":3637:3655   */\n  dup2\n    /* \"#utility.yul\":3634:3672   */\n  sub\n    /* \"#utility.yul\":3631:3792   */\n  tag_103\n  jumpi\n    /* \"#utility.yul\":3714:3724   */\n  0x4e487b71\n    /* \"#utility.yul\":3709:3712   */\n  0xe0\n    /* \"#utility.yul\":3705:3725   */\n  shl\n    /* \"#utility.yul\":3702:3703   */\n  0x00\n    /* \"#utility.yul\":3695:3726   */\n  mstore\n    /* \"#utility.yul\":3749:3753   */\n  0x22\n    /* \"#utility.yul\":3746:3747   */\n  0x04\n    /* \"#utility.yul\":3739:3754   */\n  mstore\n    /* \"#utility.yul\":3777:3781   */\n  0x24\n    /* \"#utility.yul\":3774:3775   */\n  0x00\n    /* \"#utility.yul\":3767:3782   */\n  revert\n    /* \"#utility.yul\":3631:3792   */\ntag_103:\n  pop\n    /* \"#utility.yul\":3418:3798   */\n  swap2\n  swap1\n  pop\n  jump\t// out\ntag_62:\n    /* \"contracts/YNPresalePair.sol\":256:3063  contract YNPresalePair is ERC20, Ownable {... */\n  dataSize(sub_0)\n  dup1\n  dataOffset(sub_0)\n  0x00\n  codecopy\n  0x00\n  return\nstop\n\nsub_0: assembly {\n        /* \"contracts/YNPresalePair.sol\":256:3063  contract YNPresalePair is ERC20, Ownable {... */\n      mstore(0x40, 0x80)\n      jumpi(tag_1, lt(calldatasize, 0x04))\n      shr(0xe0, calldataload(0x00))\n      dup1\n      0x715018a6\n      gt\n      tag_20\n      jumpi\n      dup1\n      0xa457c2d7\n      gt\n      tag_21\n      jumpi\n      dup1\n      0xa457c2d7\n      eq\n      tag_15\n      jumpi\n      dup1\n      0xa6f2ae3a\n      eq\n      tag_16\n      jumpi\n      dup1\n      0xa9059cbb\n      eq\n      tag_17\n      jumpi\n      dup1\n      0xdd62ed3e\n      eq\n      tag_18\n      jumpi\n      dup1\n      0xf2fde38b\n      eq\n      tag_19\n      jumpi\n      0x00\n      dup1\n      revert\n    tag_21:\n      dup1\n      0x715018a6\n      eq\n      tag_11\n      jumpi\n      dup1\n      0x715994e3\n      eq\n      tag_12\n      jumpi\n      dup1\n      0x8da5cb5b\n      eq\n      tag_13\n      jumpi\n      dup1\n      0x95d89b41\n      eq\n      tag_14\n      jumpi\n      0x00\n      dup1\n      revert\n    tag_20:\n      dup1\n      0x23b872dd\n      gt\n      tag_22\n      jumpi\n      dup1\n      0x23b872dd\n      eq\n      tag_6\n      jumpi\n      dup1\n      0x313ce567\n      eq\n      tag_7\n      jumpi\n      dup1\n      0x39509351\n      eq\n      tag_8\n      jumpi\n      dup1\n      0x4664ffea\n      eq\n      tag_9\n      jumpi\n      dup1\n      0x70a08231\n      eq\n      tag_10\n      jumpi\n      0x00\n      dup1\n      revert\n    tag_22:\n      dup1\n      0x0510a5b3\n      eq\n      tag_2\n      jumpi\n      dup1\n      0x06fdde03\n      eq\n      tag_3\n      jumpi\n      dup1\n      0x095ea7b3\n      eq\n      tag_4\n      jumpi\n      dup1\n      0x18160ddd\n      eq\n      tag_5\n      jumpi\n    tag_1:\n      0x00\n      dup1\n      revert\n        /* \"contracts/YNPresalePair.sol\":2888:3060  function transferBalanceToUser(address user,uint256 money) public onlyOwner {... */\n    tag_2:\n      callvalue\n      dup1\n      iszero\n      tag_23\n      jumpi\n      0x00\n      dup1\n      revert\n    tag_23:\n      pop\n      tag_24\n      tag_25\n      calldatasize\n      0x04\n      tag_26\n      jump\t// in\n    tag_25:\n      tag_27\n      jump\t// in\n    tag_24:\n      stop\n        /* \"@openzeppelin/contracts/token/ERC20/ERC20.sol\":2141:2239  function name() public view virtual override returns (string memory) {... */\n    tag_3:\n      callvalue\n      dup1\n      iszero\n      tag_28\n      jumpi\n      0x00\n      dup1\n      revert\n    tag_28:\n      pop\n      tag_29\n      tag_30\n      jump\t// in\n    tag_29:\n      mload(0x40)\n      tag_31\n      swap2\n      swap1\n      tag_32\n      jump\t// in\n    tag_31:\n      mload(0x40)\n      dup1\n      swap2\n      sub\n      swap1\n      return\n        /* \"@openzeppelin/contracts/token/ERC20/ERC20.sol\":4238:4404  function approve(address spender, uint256 amount) public virtual override returns (bool) {... */\n    tag_4:\n      callvalue\n      dup1\n      iszero\n      tag_33\n      jumpi\n      0x00\n      dup1\n      revert\n    tag_33:\n      pop\n      tag_34\n      tag_35\n      calldatasize\n      0x04\n      tag_26\n      jump\t// in\n    tag_35:\n      tag_36\n      jump\t// in\n    tag_34:\n      mload(0x40)\n        /* \"#utility.yul\":1218:1232   */\n      swap1\n      iszero\n        /* \"#utility.yul\":1211:1233   */\n      iszero\n        /* \"#utility.yul\":1193:1234   */\n      dup2\n      mstore\n        /* \"#utility.yul\":1181:1183   */\n      0x20\n        /* \"#utility.yul\":1166:1184   */\n      add\n        /* \"@openzeppelin/contracts/token/ERC20/ERC20.sol\":4238:4404  function approve(address spender, uint256 amount) public virtual override returns (bool) {... */\n      tag_31\n        /* \"#utility.yul\":1053:1240   */\n      jump\n        /* \"@openzeppelin/contracts/token/ERC20/ERC20.sol\":3229:3335  function totalSupply() public view virtual override returns (uint256) {... */\n    tag_5:\n      callvalue\n      dup1\n      iszero\n      tag_39\n      jumpi\n      0x00\n      dup1\n      revert\n    tag_39:\n      pop\n        /* \"@openzeppelin/contracts/token/ERC20/ERC20.sol\":3316:3328  _totalSupply */\n      sload(0x02)\n        /* \"@openzeppelin/contracts/token/ERC20/ERC20.sol\":3229:3335  function totalSupply() public view virtual override returns (uint256) {... */\n    tag_40:\n      mload(0x40)\n        /* \"#utility.yul\":1391:1416   */\n      swap1\n      dup2\n      mstore\n        /* \"#utility.yul\":1379:1381   */\n      0x20\n        /* \"#utility.yul\":1364:1382   */\n      add\n        /* \"@openzeppelin/contracts/token/ERC20/ERC20.sol\":3229:3335  function totalSupply() public view virtual override returns (uint256) {... */\n      tag_31\n        /* \"#utility.yul\":1245:1422   */\n      jump\n        /* \"@openzeppelin/contracts/token/ERC20/ERC20.sol\":4871:5349  function transferFrom(... */\n    tag_6:\n      callvalue\n      dup1\n      iszero\n      tag_44\n      jumpi\n      0x00\n      dup1\n      revert\n    tag_44:\n      pop\n      tag_34\n      tag_46\n      calldatasize\n      0x04\n      tag_47\n      jump\t// in\n    tag_46:\n      tag_48\n      jump\t// in\n        /* \"contracts/YNPresalePair.sol\":869:968  function decimals() public view virtual override returns (uint8) {... */\n    tag_7:\n      callvalue\n      dup1\n      iszero\n      tag_50\n      jumpi\n      0x00\n      dup1\n      revert\n    tag_50:\n      pop\n        /* \"contracts/YNPresalePair.sol\":952:960  _decimal */\n      sload(0x0b)\n        /* \"contracts/YNPresalePair.sol\":869:968  function decimals() public view virtual override returns (uint8) {... */\n      mload(0x40)\n        /* \"contracts/YNPresalePair.sol\":952:960  _decimal */\n      0xff\n      swap1\n      swap2\n      and\n        /* \"#utility.yul\":1902:1938   */\n      dup2\n      mstore\n        /* \"#utility.yul\":1890:1892   */\n      0x20\n        /* \"#utility.yul\":1875:1893   */\n      add\n        /* \"contracts/YNPresalePair.sol\":869:968  function decimals() public view virtual override returns (uint8) {... */\n      tag_31\n        /* \"#utility.yul\":1760:1944   */\n      jump\n        /* \"@openzeppelin/contracts/token/ERC20/ERC20.sol\":5744:5956  function increaseAllowance(address spender, uint256 addedValue) public virtual returns (bool) {... */\n    tag_8:\n      callvalue\n      dup1\n      iszero\n      tag_55\n      jumpi\n      0x00\n      dup1\n      revert\n    tag_55:\n      pop\n      tag_34\n      tag_57\n      calldatasize\n      0x04\n      tag_26\n      jump\t// in\n    tag_57:\n      tag_58\n      jump\t// in\n        /* \"contracts/YNPresalePair.sol\":976:1101  function transferTokenToUser(address user,uint256 money) public onlyOwner {... */\n    tag_9:\n      callvalue\n      dup1\n      iszero\n      tag_60\n      jumpi\n      0x00\n      dup1\n      revert\n    tag_60:\n      pop\n      tag_24\n      tag_62\n      calldatasize\n      0x04\n      tag_26\n      jump\t// in\n    tag_62:\n      tag_63\n      jump\t// in\n        /* \"@openzeppelin/contracts/token/ERC20/ERC20.sol\":3393:3518  function balanceOf(address account) public view virtual override returns (uint256) {... */\n    tag_10:\n      callvalue\n      dup1\n      iszero\n      tag_64\n      jumpi\n      0x00\n      dup1\n      revert\n    tag_64:\n      pop\n      tag_40\n      tag_66\n      calldatasize\n      0x04\n      tag_67\n      jump\t// in\n    tag_66:\n      sub(shl(0xa0, 0x01), 0x01)\n        /* \"@openzeppelin/contracts/token/ERC20/ERC20.sol\":3493:3511  _balances[account] */\n      and\n        /* \"@openzeppelin/contracts/token/ERC20/ERC20.sol\":3467:3474  uint256 */\n      0x00\n        /* \"@openzeppelin/contracts/token/ERC20/ERC20.sol\":3493:3511  _balances[account] */\n      swap1\n      dup2\n      mstore\n      0x20\n      dup2\n      swap1\n      mstore\n      0x40\n      swap1\n      keccak256\n      sload\n      swap1\n        /* \"@openzeppelin/contracts/token/ERC20/ERC20.sol\":3393:3518  function balanceOf(address account) public view virtual override returns (uint256) {... */\n      jump\n        /* \"@openzeppelin/contracts/access/Ownable.sol\":1668:1769  function renounceOwnership() public virtual onlyOwner {... */\n    tag_11:\n      callvalue\n      dup1\n      iszero\n      tag_70\n      jumpi\n      0x00\n      dup1\n      revert\n    tag_70:\n      pop\n      tag_24\n      tag_72\n      jump\t// in\n        /* \"contracts/YNPresalePair.sol\":2714:2876  function transferBalanceToYuki(uint256 money) public onlyOwner {... */\n    tag_12:\n      callvalue\n      dup1\n      iszero\n      tag_73\n      jumpi\n      0x00\n      dup1\n      revert\n    tag_73:\n      pop\n      tag_24\n      tag_75\n      calldatasize\n      0x04\n      tag_76\n      jump\t// in\n    tag_75:\n      tag_77\n      jump\t// in\n        /* \"@openzeppelin/contracts/access/Ownable.sol\":1036:1121  function owner() public view virtual returns (address) {... */\n    tag_13:\n      callvalue\n      dup1\n      iszero\n      tag_78\n      jumpi\n      0x00\n      dup1\n      revert\n    tag_78:\n      pop\n        /* \"@openzeppelin/contracts/access/Ownable.sol\":1108:1114  _owner */\n      sload(0x05)\n        /* \"@openzeppelin/contracts/access/Ownable.sol\":1036:1121  function owner() public view virtual returns (address) {... */\n      mload(0x40)\n      sub(shl(0xa0, 0x01), 0x01)\n        /* \"@openzeppelin/contracts/access/Ownable.sol\":1108:1114  _owner */\n      swap1\n      swap2\n      and\n        /* \"#utility.yul\":2471:2522   */\n      dup2\n      mstore\n        /* \"#utility.yul\":2459:2461   */\n      0x20\n        /* \"#utility.yul\":2444:2462   */\n      add\n        /* \"@openzeppelin/contracts/access/Ownable.sol\":1036:1121  function owner() public view virtual returns (address) {... */\n      tag_31\n        /* \"#utility.yul\":2325:2528   */\n      jump\n        /* \"@openzeppelin/contracts/token/ERC20/ERC20.sol\":2352:2454  function symbol() public view virtual override returns (string memory) {... */\n    tag_14:\n      callvalue\n      dup1\n      iszero\n      tag_83\n      jumpi\n      0x00\n      dup1\n      revert\n    tag_83:\n      pop\n      tag_29\n      tag_85\n      jump\t// in\n        /* \"@openzeppelin/contracts/token/ERC20/ERC20.sol\":6443:6848  function decreaseAllowance(address spender, uint256 subtractedValue) public virtual returns (bool) {... */\n    tag_15:\n      callvalue\n      dup1\n      iszero\n      tag_87\n      jumpi\n      0x00\n      dup1\n      revert\n    tag_87:\n      pop\n      tag_34\n      tag_89\n      calldatasize\n      0x04\n      tag_26\n      jump\t// in\n    tag_89:\n      tag_90\n      jump\t// in\n        /* \"contracts/YNPresalePair.sol\":1333:1930  function buy() external payable{... */\n    tag_16:\n      tag_24\n      tag_93\n      jump\t// in\n        /* \"contracts/YNPresalePair.sol\":1938:2706  function transfer(address recipient, uint256 amount) public virtual override returns (bool) {        ... */\n    tag_17:\n      callvalue\n      dup1\n      iszero\n      tag_94\n      jumpi\n      0x00\n      dup1\n      revert\n    tag_94:\n      pop\n      tag_34\n      tag_96\n      calldatasize\n      0x04\n      tag_26\n      jump\t// in\n    tag_96:\n      tag_97\n      jump\t// in\n        /* \"@openzeppelin/contracts/token/ERC20/ERC20.sol\":3951:4100  function allowance(address owner, address spender) public view virtual override returns (uint256) {... */\n    tag_18:\n      callvalue\n      dup1\n      iszero\n      tag_99\n      jumpi\n      0x00\n      dup1\n      revert\n    tag_99:\n      pop\n      tag_40\n      tag_101\n      calldatasize\n      0x04\n      tag_102\n      jump\t// in\n    tag_101:\n      sub(shl(0xa0, 0x01), 0x01)\n        /* \"@openzeppelin/contracts/token/ERC20/ERC20.sol\":4066:4084  _allowances[owner] */\n      swap2\n      dup3\n      and\n        /* \"@openzeppelin/contracts/token/ERC20/ERC20.sol\":4040:4047  uint256 */\n      0x00\n        /* \"@openzeppelin/contracts/token/ERC20/ERC20.sol\":4066:4084  _allowances[owner] */\n      swap1\n      dup2\n      mstore\n        /* \"@openzeppelin/contracts/token/ERC20/ERC20.sol\":4066:4077  _allowances */\n      0x01\n        /* \"@openzeppelin/contracts/token/ERC20/ERC20.sol\":4066:4084  _allowances[owner] */\n      0x20\n      swap1\n      dup2\n      mstore\n      0x40\n      dup1\n      dup4\n      keccak256\n        /* \"@openzeppelin/contracts/token/ERC20/ERC20.sol\":4066:4093  _allowances[owner][spender] */\n      swap4\n      swap1\n      swap5\n      and\n      dup3\n      mstore\n      swap2\n      swap1\n      swap2\n      mstore\n      keccak256\n      sload\n      swap1\n        /* \"@openzeppelin/contracts/token/ERC20/ERC20.sol\":3951:4100  function allowance(address owner, address spender) public view virtual override returns (uint256) {... */\n      jump\n        /* \"@openzeppelin/contracts/access/Ownable.sol\":1918:2116  function transferOwnership(address newOwner) public virtual onlyOwner {... */\n    tag_19:\n      callvalue\n      dup1\n      iszero\n      tag_105\n      jumpi\n      0x00\n      dup1\n      revert\n    tag_105:\n      pop\n      tag_24\n      tag_107\n      calldatasize\n      0x04\n      tag_67\n      jump\t// in\n    tag_107:\n      tag_108\n      jump\t// in\n        /* \"contracts/YNPresalePair.sol\":2888:3060  function transferBalanceToUser(address user,uint256 money) public onlyOwner {... */\n    tag_27:\n        /* \"@openzeppelin/contracts/access/Ownable.sol\":1108:1114  _owner */\n      and(sub(shl(0xa0, 0x01), 0x01), sload(0x05))\n        /* \"@openzeppelin/contracts/utils/Context.sol\":719:729  msg.sender */\n      caller\n        /* \"@openzeppelin/contracts/access/Ownable.sol\":1248:1271  owner() == _msgSender() */\n      eq\n        /* \"@openzeppelin/contracts/access/Ownable.sol\":1240:1308  require(owner() == _msgSender(), \"Ownable: caller is not the owner\") */\n      tag_113\n      jumpi\n      mload(0x40)\n      shl(0xe5, 0x461bcd)\n      dup2\n      mstore\n      0x04\n      add\n      tag_114\n      swap1\n      tag_115\n      jump\t// in\n    tag_114:\n      mload(0x40)\n      dup1\n      swap2\n      sub\n      swap1\n      revert\n    tag_113:\n        /* \"contracts/YNPresalePair.sol\":2990:3011  address(this).balance */\n      selfbalance\n        /* \"contracts/YNPresalePair.sol\":2983:2988  money */\n      dup2\n        /* \"contracts/YNPresalePair.sol\":2983:3011  money<=address(this).balance */\n      gt\n      iszero\n        /* \"contracts/YNPresalePair.sol\":2975:3012  require(money<=address(this).balance) */\n      tag_117\n      jumpi\n      0x00\n      dup1\n      revert\n    tag_117:\n        /* \"contracts/YNPresalePair.sol\":3023:3052  payable(user).transfer(money) */\n      mload(0x40)\n      sub(shl(0xa0, 0x01), 0x01)\n        /* \"contracts/YNPresalePair.sol\":3023:3045  payable(user).transfer */\n      dup4\n      and\n      swap1\n        /* \"contracts/YNPresalePair.sol\":3023:3052  payable(user).transfer(money) */\n      dup3\n      iszero\n      0x08fc\n      mul\n      swap1\n        /* \"contracts/YNPresalePair.sol\":3046:3051  money */\n      dup4\n      swap1\n        /* \"contracts/YNPresalePair.sol\":3023:3052  payable(user).transfer(money) */\n      0x00\n      dup2\n      dup2\n      dup2\n        /* \"contracts/YNPresalePair.sol\":3046:3051  money */\n      dup6\n        /* \"contracts/YNPresalePair.sol\":3023:3045  payable(user).transfer */\n      dup9\n        /* \"contracts/YNPresalePair.sol\":3023:3052  payable(user).transfer(money) */\n      dup9\n      call\n      swap4\n      pop\n      pop\n      pop\n      pop\n      iszero\n      dup1\n      iszero\n      tag_119\n      jumpi\n      returndatasize\n      0x00\n      dup1\n      returndatacopy\n      revert(0x00, returndatasize)\n    tag_119:\n      pop\n        /* \"contracts/YNPresalePair.sol\":2888:3060  function transferBalanceToUser(address user,uint256 money) public onlyOwner {... */\n      pop\n      pop\n      jump\t// out\n        /* \"@openzeppelin/contracts/token/ERC20/ERC20.sol\":2141:2239  function name() public view virtual override returns (string memory) {... */\n    tag_30:\n        /* \"@openzeppelin/contracts/token/ERC20/ERC20.sol\":2195:2208  string memory */\n      0x60\n        /* \"@openzeppelin/contracts/token/ERC20/ERC20.sol\":2227:2232  _name */\n      0x03\n        /* \"@openzeppelin/contracts/token/ERC20/ERC20.sol\":2220:2232  return _name */\n      dup1\n      sload\n      tag_121\n      swap1\n      tag_122\n      jump\t// in\n    tag_121:\n      dup1\n      0x1f\n      add\n      0x20\n      dup1\n      swap2\n      div\n      mul\n      0x20\n      add\n      mload(0x40)\n      swap1\n      dup2\n      add\n      0x40\n      mstore\n      dup1\n      swap3\n      swap2\n      swap1\n      dup2\n      dup2\n      mstore\n      0x20\n      add\n      dup3\n      dup1\n      sload\n      tag_123\n      swap1\n      tag_122\n      jump\t// in\n    tag_123:\n      dup1\n      iszero\n      tag_124\n      jumpi\n      dup1\n      0x1f\n      lt\n      tag_125\n      jumpi\n      0x0100\n      dup1\n      dup4\n      sload\n      div\n      mul\n      dup4\n      mstore\n      swap2\n      0x20\n      add\n      swap2\n      jump(tag_124)\n    tag_125:\n      dup3\n      add\n      swap2\n      swap1\n      0x00\n      mstore\n      keccak256(0x00, 0x20)\n      swap1\n    tag_126:\n      dup2\n      sload\n      dup2\n      mstore\n      swap1\n      0x01\n      add\n      swap1\n      0x20\n      add\n      dup1\n      dup4\n      gt\n      tag_126\n      jumpi\n      dup3\n      swap1\n      sub\n      0x1f\n      and\n      dup3\n      add\n      swap2\n    tag_124:\n      pop\n      pop\n      pop\n      pop\n      pop\n      swap1\n      pop\n        /* \"@openzeppelin/contracts/token/ERC20/ERC20.sol\":2141:2239  function name() public view virtual override returns (string memory) {... */\n      swap1\n      jump\t// out\n        /* \"@openzeppelin/contracts/token/ERC20/ERC20.sol\":4238:4404  function approve(address spender, uint256 amount) public virtual override returns (bool) {... */\n    tag_36:\n        /* \"@openzeppelin/contracts/token/ERC20/ERC20.sol\":4321:4325  bool */\n      0x00\n        /* \"@openzeppelin/contracts/token/ERC20/ERC20.sol\":4337:4376  _approve(_msgSender(), spender, amount) */\n      tag_128\n        /* \"@openzeppelin/contracts/utils/Context.sol\":719:729  msg.sender */\n      caller\n        /* \"@openzeppelin/contracts/token/ERC20/ERC20.sol\":4360:4367  spender */\n      dup5\n        /* \"@openzeppelin/contracts/token/ERC20/ERC20.sol\":4369:4375  amount */\n      dup5\n        /* \"@openzeppelin/contracts/token/ERC20/ERC20.sol\":4337:4345  _approve */\n      tag_130\n        /* \"@openzeppelin/contracts/token/ERC20/ERC20.sol\":4337:4376  _approve(_msgSender(), spender, amount) */\n      jump\t// in\n    tag_128:\n      pop\n        /* \"@openzeppelin/contracts/token/ERC20/ERC20.sol\":4393:4397  true */\n      0x01\n        /* \"@openzeppelin/contracts/token/ERC20/ERC20.sol\":4238:4404  function approve(address spender, uint256 amount) public virtual override returns (bool) {... */\n    tag_127:\n      swap3\n      swap2\n      pop\n      pop\n      jump\t// out\n        /* \"@openzeppelin/contracts/token/ERC20/ERC20.sol\":4871:5349  function transferFrom(... */\n    tag_48:\n        /* \"@openzeppelin/contracts/token/ERC20/ERC20.sol\":5007:5011  bool */\n      0x00\n        /* \"@openzeppelin/contracts/token/ERC20/ERC20.sol\":5023:5059  _transfer(sender, recipient, amount) */\n      tag_133\n        /* \"@openzeppelin/contracts/token/ERC20/ERC20.sol\":5033:5039  sender */\n      dup5\n        /* \"@openzeppelin/contracts/token/ERC20/ERC20.sol\":5041:5050  recipient */\n      dup5\n        /* \"@openzeppelin/contracts/token/ERC20/ERC20.sol\":5052:5058  amount */\n      dup5\n        /* \"@openzeppelin/contracts/token/ERC20/ERC20.sol\":5023:5032  _transfer */\n      tag_134\n        /* \"@openzeppelin/contracts/token/ERC20/ERC20.sol\":5023:5059  _transfer(sender, recipient, amount) */\n      jump\t// in\n    tag_133:\n      sub(shl(0xa0, 0x01), 0x01)\n        /* \"@openzeppelin/contracts/token/ERC20/ERC20.sol\":5097:5116  _allowances[sender] */\n      dup5\n      and\n        /* \"@openzeppelin/contracts/token/ERC20/ERC20.sol\":5070:5094  uint256 currentAllowance */\n      0x00\n        /* \"@openzeppelin/contracts/token/ERC20/ERC20.sol\":5097:5116  _allowances[sender] */\n      swap1\n      dup2\n      mstore\n        /* \"@openzeppelin/contracts/token/ERC20/ERC20.sol\":5097:5108  _allowances */\n      0x01\n        /* \"@openzeppelin/contracts/token/ERC20/ERC20.sol\":5097:5116  _allowances[sender] */\n      0x20\n      swap1\n      dup2\n      mstore\n      0x40\n      dup1\n      dup4\n      keccak256\n        /* \"@openzeppelin/contracts/utils/Context.sol\":719:729  msg.sender */\n      caller\n        /* \"@openzeppelin/contracts/token/ERC20/ERC20.sol\":5097:5130  _allowances[sender][_msgSender()] */\n      dup5\n      mstore\n      swap1\n      swap2\n      mstore\n      swap1\n      keccak256\n      sload\n        /* \"@openzeppelin/contracts/token/ERC20/ERC20.sol\":5148:5174  currentAllowance >= amount */\n      dup3\n      dup2\n      lt\n      iszero\n        /* \"@openzeppelin/contracts/token/ERC20/ERC20.sol\":5140:5219  require(currentAllowance >= amount, \"ERC20: transfer amount exceeds allowance\") */\n      tag_136\n      jumpi\n      mload(0x40)\n      shl(0xe5, 0x461bcd)\n      dup2\n      mstore\n        /* \"#utility.yul\":3746:3748   */\n      0x20\n        /* \"@openzeppelin/contracts/token/ERC20/ERC20.sol\":5140:5219  require(currentAllowance >= amount, \"ERC20: transfer amount exceeds allowance\") */\n      0x04\n      dup3\n      add\n        /* \"#utility.yul\":3728:3749   */\n      mstore\n        /* \"#utility.yul\":3785:3787   */\n      0x28\n        /* \"#utility.yul\":3765:3783   */\n      0x24\n      dup3\n      add\n        /* \"#utility.yul\":3758:3788   */\n      mstore\n        /* \"#utility.yul\":3824:3858   */\n      0x45524332303a207472616e7366657220616d6f756e7420657863656564732061\n        /* \"#utility.yul\":3804:3822   */\n      0x44\n      dup3\n      add\n        /* \"#utility.yul\":3797:3859   */\n      mstore\n      shl(0xc0, 0x6c6c6f77616e6365)\n        /* \"#utility.yul\":3875:3893   */\n      0x64\n      dup3\n      add\n        /* \"#utility.yul\":3868:3906   */\n      mstore\n        /* \"#utility.yul\":3923:3942   */\n      0x84\n      add\n        /* \"@openzeppelin/contracts/token/ERC20/ERC20.sol\":5140:5219  require(currentAllowance >= amount, \"ERC20: transfer amount exceeds allowance\") */\n      tag_114\n        /* \"#utility.yul\":3544:3948   */\n      jump\n        /* \"@openzeppelin/contracts/token/ERC20/ERC20.sol\":5140:5219  require(currentAllowance >= amount, \"ERC20: transfer amount exceeds allowance\") */\n    tag_136:\n        /* \"@openzeppelin/contracts/token/ERC20/ERC20.sol\":5253:5310  _approve(sender, _msgSender(), currentAllowance - amount) */\n      tag_139\n        /* \"@openzeppelin/contracts/token/ERC20/ERC20.sol\":5262:5268  sender */\n      dup6\n        /* \"@openzeppelin/contracts/utils/Context.sol\":719:729  msg.sender */\n      caller\n        /* \"@openzeppelin/contracts/token/ERC20/ERC20.sol\":5303:5309  amount */\n      dup6\n        /* \"@openzeppelin/contracts/token/ERC20/ERC20.sol\":5284:5300  currentAllowance */\n      dup5\n        /* \"@openzeppelin/contracts/token/ERC20/ERC20.sol\":5284:5309  currentAllowance - amount */\n      sub\n        /* \"@openzeppelin/contracts/token/ERC20/ERC20.sol\":5253:5261  _approve */\n      tag_130\n        /* \"@openzeppelin/contracts/token/ERC20/ERC20.sol\":5253:5310  _approve(sender, _msgSender(), currentAllowance - amount) */\n      jump\t// in\n    tag_139:\n      pop\n        /* \"@openzeppelin/contracts/token/ERC20/ERC20.sol\":5338:5342  true */\n      0x01\n      swap5\n        /* \"@openzeppelin/contracts/token/ERC20/ERC20.sol\":4871:5349  function transferFrom(... */\n      swap4\n      pop\n      pop\n      pop\n      pop\n      jump\t// out\n        /* \"@openzeppelin/contracts/token/ERC20/ERC20.sol\":5744:5956  function increaseAllowance(address spender, uint256 addedValue) public virtual returns (bool) {... */\n    tag_58:\n        /* \"@openzeppelin/contracts/utils/Context.sol\":719:729  msg.sender */\n      caller\n        /* \"@openzeppelin/contracts/token/ERC20/ERC20.sol\":5832:5836  bool */\n      0x00\n        /* \"@openzeppelin/contracts/token/ERC20/ERC20.sol\":5880:5905  _allowances[_msgSender()] */\n      dup2\n      dup2\n      mstore\n        /* \"@openzeppelin/contracts/token/ERC20/ERC20.sol\":5880:5891  _allowances */\n      0x01\n        /* \"@openzeppelin/contracts/token/ERC20/ERC20.sol\":5880:5905  _allowances[_msgSender()] */\n      0x20\n      swap1\n      dup2\n      mstore\n      0x40\n      dup1\n      dup4\n      keccak256\n      sub(shl(0xa0, 0x01), 0x01)\n        /* \"@openzeppelin/contracts/token/ERC20/ERC20.sol\":5880:5914  _allowances[_msgSender()][spender] */\n      dup8\n      and\n      dup5\n      mstore\n      swap1\n      swap2\n      mstore\n      dup2\n      keccak256\n      sload\n        /* \"@openzeppelin/contracts/token/ERC20/ERC20.sol\":5832:5836  bool */\n      swap1\n      swap2\n        /* \"@openzeppelin/contracts/token/ERC20/ERC20.sol\":5848:5928  _approve(_msgSender(), spender, _allowances[_msgSender()][spender] + addedValue) */\n      tag_128\n      swap2\n        /* \"@openzeppelin/contracts/token/ERC20/ERC20.sol\":5871:5878  spender */\n      dup6\n      swap1\n        /* \"@openzeppelin/contracts/token/ERC20/ERC20.sol\":5880:5927  _allowances[_msgSender()][spender] + addedValue */\n      tag_146\n      swap1\n        /* \"@openzeppelin/contracts/token/ERC20/ERC20.sol\":5917:5927  addedValue */\n      dup7\n      swap1\n        /* \"@openzeppelin/contracts/token/ERC20/ERC20.sol\":5880:5927  _allowances[_msgSender()][spender] + addedValue */\n      tag_147\n      jump\t// in\n    tag_146:\n        /* \"@openzeppelin/contracts/token/ERC20/ERC20.sol\":5848:5856  _approve */\n      tag_130\n        /* \"@openzeppelin/contracts/token/ERC20/ERC20.sol\":5848:5928  _approve(_msgSender(), spender, _allowances[_msgSender()][spender] + addedValue) */\n      jump\t// in\n        /* \"contracts/YNPresalePair.sol\":976:1101  function transferTokenToUser(address user,uint256 money) public onlyOwner {... */\n    tag_63:\n        /* \"@openzeppelin/contracts/access/Ownable.sol\":1108:1114  _owner */\n      and(sub(shl(0xa0, 0x01), 0x01), sload(0x05))\n        /* \"@openzeppelin/contracts/utils/Context.sol\":719:729  msg.sender */\n      caller\n        /* \"@openzeppelin/contracts/access/Ownable.sol\":1248:1271  owner() == _msgSender() */\n      eq\n        /* \"@openzeppelin/contracts/access/Ownable.sol\":1240:1308  require(owner() == _msgSender(), \"Ownable: caller is not the owner\") */\n      tag_151\n      jumpi\n      mload(0x40)\n      shl(0xe5, 0x461bcd)\n      dup2\n      mstore\n      0x04\n      add\n      tag_114\n      swap1\n      tag_115\n      jump\t// in\n    tag_151:\n        /* \"contracts/YNPresalePair.sol\":1061:1093  _transferTokenToUser(user,money) */\n      tag_154\n        /* \"contracts/YNPresalePair.sol\":1082:1086  user */\n      dup3\n        /* \"contracts/YNPresalePair.sol\":1087:1092  money */\n      dup3\n        /* \"contracts/YNPresalePair.sol\":1061:1081  _transferTokenToUser */\n      tag_155\n        /* \"contracts/YNPresalePair.sol\":1061:1093  _transferTokenToUser(user,money) */\n      jump\t// in\n    tag_154:\n        /* \"contracts/YNPresalePair.sol\":976:1101  function transferTokenToUser(address user,uint256 money) public onlyOwner {... */\n      pop\n      pop\n      jump\t// out\n        /* \"@openzeppelin/contracts/access/Ownable.sol\":1668:1769  function renounceOwnership() public virtual onlyOwner {... */\n    tag_72:\n        /* \"@openzeppelin/contracts/access/Ownable.sol\":1108:1114  _owner */\n      and(sub(shl(0xa0, 0x01), 0x01), sload(0x05))\n        /* \"@openzeppelin/contracts/utils/Context.sol\":719:729  msg.sender */\n      caller\n        /* \"@openzeppelin/contracts/access/Ownable.sol\":1248:1271  owner() == _msgSender() */\n      eq\n        /* \"@openzeppelin/contracts/access/Ownable.sol\":1240:1308  require(owner() == _msgSender(), \"Ownable: caller is not the owner\") */\n      tag_160\n      jumpi\n      mload(0x40)\n      shl(0xe5, 0x461bcd)\n      dup2\n      mstore\n      0x04\n      add\n      tag_114\n      swap1\n      tag_115\n      jump\t// in\n    tag_160:\n        /* \"@openzeppelin/contracts/access/Ownable.sol\":1732:1762  _transferOwnership(address(0)) */\n      tag_163\n        /* \"@openzeppelin/contracts/access/Ownable.sol\":1759:1760  0 */\n      0x00\n        /* \"@openzeppelin/contracts/access/Ownable.sol\":1732:1750  _transferOwnership */\n      tag_164\n        /* \"@openzeppelin/contracts/access/Ownable.sol\":1732:1762  _transferOwnership(address(0)) */\n      jump\t// in\n    tag_163:\n        /* \"@openzeppelin/contracts/access/Ownable.sol\":1668:1769  function renounceOwnership() public virtual onlyOwner {... */\n      jump\t// out\n        /* \"contracts/YNPresalePair.sol\":2714:2876  function transferBalanceToYuki(uint256 money) public onlyOwner {... */\n    tag_77:\n        /* \"@openzeppelin/contracts/access/Ownable.sol\":1108:1114  _owner */\n      and(sub(shl(0xa0, 0x01), 0x01), sload(0x05))\n        /* \"@openzeppelin/contracts/utils/Context.sol\":719:729  msg.sender */\n      caller\n        /* \"@openzeppelin/contracts/access/Ownable.sol\":1248:1271  owner() == _msgSender() */\n      eq\n        /* \"@openzeppelin/contracts/access/Ownable.sol\":1240:1308  require(owner() == _msgSender(), \"Ownable: caller is not the owner\") */\n      tag_168\n      jumpi\n      mload(0x40)\n      shl(0xe5, 0x461bcd)\n      dup2\n      mstore\n      0x04\n      add\n      tag_114\n      swap1\n      tag_115\n      jump\t// in\n    tag_168:\n        /* \"contracts/YNPresalePair.sol\":2803:2824  address(this).balance */\n      selfbalance\n        /* \"contracts/YNPresalePair.sol\":2796:2801  money */\n      dup2\n        /* \"contracts/YNPresalePair.sol\":2796:2824  money<=address(this).balance */\n      gt\n      iszero\n        /* \"contracts/YNPresalePair.sol\":2788:2825  require(money<=address(this).balance) */\n      tag_171\n      jumpi\n      0x00\n      dup1\n      revert\n    tag_171:\n        /* \"@openzeppelin/contracts/access/Ownable.sol\":1108:1114  _owner */\n      sload(0x05)\n        /* \"contracts/YNPresalePair.sol\":2836:2868  payable(owner()).transfer(money) */\n      mload(0x40)\n      sub(shl(0xa0, 0x01), 0x01)\n        /* \"@openzeppelin/contracts/access/Ownable.sol\":1108:1114  _owner */\n      swap1\n      swap2\n      and\n      swap1\n        /* \"contracts/YNPresalePair.sol\":2836:2868  payable(owner()).transfer(money) */\n      dup3\n      iszero\n      0x08fc\n      mul\n      swap1\n        /* \"contracts/YNPresalePair.sol\":2862:2867  money */\n      dup4\n      swap1\n        /* \"contracts/YNPresalePair.sol\":2836:2868  payable(owner()).transfer(money) */\n      0x00\n      dup2\n      dup2\n      dup2\n        /* \"contracts/YNPresalePair.sol\":2862:2867  money */\n      dup6\n        /* \"@openzeppelin/contracts/access/Ownable.sol\":1108:1114  _owner */\n      dup9\n        /* \"contracts/YNPresalePair.sol\":2836:2868  payable(owner()).transfer(money) */\n      dup9\n      call\n      swap4\n      pop\n      pop\n      pop\n      pop\n      iszero\n      dup1\n      iszero\n      tag_154\n      jumpi\n      returndatasize\n      0x00\n      dup1\n      returndatacopy\n      revert(0x00, returndatasize)\n        /* \"@openzeppelin/contracts/token/ERC20/ERC20.sol\":2352:2454  function symbol() public view virtual override returns (string memory) {... */\n    tag_85:\n        /* \"@openzeppelin/contracts/token/ERC20/ERC20.sol\":2408:2421  string memory */\n      0x60\n        /* \"@openzeppelin/contracts/token/ERC20/ERC20.sol\":2440:2447  _symbol */\n      0x04\n        /* \"@openzeppelin/contracts/token/ERC20/ERC20.sol\":2433:2447  return _symbol */\n      dup1\n      sload\n      tag_121\n      swap1\n      tag_122\n      jump\t// in\n        /* \"@openzeppelin/contracts/token/ERC20/ERC20.sol\":6443:6848  function decreaseAllowance(address spender, uint256 subtractedValue) public virtual returns (bool) {... */\n    tag_90:\n        /* \"@openzeppelin/contracts/utils/Context.sol\":719:729  msg.sender */\n      caller\n        /* \"@openzeppelin/contracts/token/ERC20/ERC20.sol\":6536:6540  bool */\n      0x00\n        /* \"@openzeppelin/contracts/token/ERC20/ERC20.sol\":6579:6604  _allowances[_msgSender()] */\n      swap1\n      dup2\n      mstore\n        /* \"@openzeppelin/contracts/token/ERC20/ERC20.sol\":6579:6590  _allowances */\n      0x01\n        /* \"@openzeppelin/contracts/token/ERC20/ERC20.sol\":6579:6604  _allowances[_msgSender()] */\n      0x20\n      swap1\n      dup2\n      mstore\n      0x40\n      dup1\n      dup4\n      keccak256\n      sub(shl(0xa0, 0x01), 0x01)\n        /* \"@openzeppelin/contracts/token/ERC20/ERC20.sol\":6579:6613  _allowances[_msgSender()][spender] */\n      dup7\n      and\n      dup5\n      mstore\n      swap1\n      swap2\n      mstore\n      dup2\n      keccak256\n      sload\n        /* \"@openzeppelin/contracts/token/ERC20/ERC20.sol\":6631:6666  currentAllowance >= subtractedValue */\n      dup3\n      dup2\n      lt\n      iszero\n        /* \"@openzeppelin/contracts/token/ERC20/ERC20.sol\":6623:6708  require(currentAllowance >= subtractedValue, \"ERC20: decreased allowance below zero\") */\n      tag_184\n      jumpi\n      mload(0x40)\n      shl(0xe5, 0x461bcd)\n      dup2\n      mstore\n        /* \"#utility.yul\":4420:4422   */\n      0x20\n        /* \"@openzeppelin/contracts/token/ERC20/ERC20.sol\":6623:6708  require(currentAllowance >= subtractedValue, \"ERC20: decreased allowance below zero\") */\n      0x04\n      dup3\n      add\n        /* \"#utility.yul\":4402:4423   */\n      mstore\n        /* \"#utility.yul\":4459:4461   */\n      0x25\n        /* \"#utility.yul\":4439:4457   */\n      0x24\n      dup3\n      add\n        /* \"#utility.yul\":4432:4462   */\n      mstore\n        /* \"#utility.yul\":4498:4532   */\n      0x45524332303a2064656372656173656420616c6c6f77616e63652062656c6f77\n        /* \"#utility.yul\":4478:4496   */\n      0x44\n      dup3\n      add\n        /* \"#utility.yul\":4471:4533   */\n      mstore\n      shl(0xd8, 0x207a65726f)\n        /* \"#utility.yul\":4549:4567   */\n      0x64\n      dup3\n      add\n        /* \"#utility.yul\":4542:4577   */\n      mstore\n        /* \"#utility.yul\":4594:4613   */\n      0x84\n      add\n        /* \"@openzeppelin/contracts/token/ERC20/ERC20.sol\":6623:6708  require(currentAllowance >= subtractedValue, \"ERC20: decreased allowance below zero\") */\n      tag_114\n        /* \"#utility.yul\":4218:4619   */\n      jump\n        /* \"@openzeppelin/contracts/token/ERC20/ERC20.sol\":6623:6708  require(currentAllowance >= subtractedValue, \"ERC20: decreased allowance below zero\") */\n    tag_184:\n        /* \"@openzeppelin/contracts/token/ERC20/ERC20.sol\":6742:6809  _approve(_msgSender(), spender, currentAllowance - subtractedValue) */\n      tag_187\n        /* \"@openzeppelin/contracts/utils/Context.sol\":719:729  msg.sender */\n      caller\n        /* \"@openzeppelin/contracts/token/ERC20/ERC20.sol\":6765:6772  spender */\n      dup6\n        /* \"@openzeppelin/contracts/token/ERC20/ERC20.sol\":6793:6808  subtractedValue */\n      dup6\n        /* \"@openzeppelin/contracts/token/ERC20/ERC20.sol\":6774:6790  currentAllowance */\n      dup5\n        /* \"@openzeppelin/contracts/token/ERC20/ERC20.sol\":6774:6808  currentAllowance - subtractedValue */\n      sub\n        /* \"@openzeppelin/contracts/token/ERC20/ERC20.sol\":6742:6750  _approve */\n      tag_130\n        /* \"@openzeppelin/contracts/token/ERC20/ERC20.sol\":6742:6809  _approve(_msgSender(), spender, currentAllowance - subtractedValue) */\n      jump\t// in\n    tag_187:\n      pop\n        /* \"@openzeppelin/contracts/token/ERC20/ERC20.sol\":6837:6841  true */\n      0x01\n      swap4\n        /* \"@openzeppelin/contracts/token/ERC20/ERC20.sol\":6443:6848  function decreaseAllowance(address spender, uint256 subtractedValue) public virtual returns (bool) {... */\n      swap3\n      pop\n      pop\n      pop\n      jump\t// out\n        /* \"contracts/YNPresalePair.sol\":1333:1930  function buy() external payable{... */\n    tag_93:\n        /* \"contracts/YNPresalePair.sol\":1546:1553  _buyFee */\n      sload(0x06)\n        /* \"contracts/YNPresalePair.sol\":1532:1540  _decimal */\n      sload(0x0b)\n        /* \"contracts/YNPresalePair.sol\":1422:1426  this */\n      address\n      swap2\n        /* \"contracts/YNPresalePair.sol\":1468:1477  msg.value */\n      callvalue\n      swap2\n        /* \"contracts/YNPresalePair.sol\":1393:1406  YERC20 yerc20 */\n      0x00\n      swap2\n        /* \"contracts/YNPresalePair.sol\":1514:1554  val.mul(1 * 10 ** _decimal).div(_buyFee) */\n      tag_190\n      swap2\n        /* \"contracts/YNPresalePair.sol\":1514:1541  val.mul(1 * 10 ** _decimal) */\n      tag_191\n      swap1\n        /* \"contracts/YNPresalePair.sol\":1526:1540  10 ** _decimal */\n      tag_192\n      swap1\n        /* \"contracts/YNPresalePair.sol\":1532:1540  _decimal */\n      0xff\n      and\n        /* \"contracts/YNPresalePair.sol\":1526:1528  10 */\n      0x0a\n        /* \"contracts/YNPresalePair.sol\":1526:1540  10 ** _decimal */\n      tag_193\n      jump\t// in\n    tag_192:\n        /* \"contracts/YNPresalePair.sol\":1522:1540  1 * 10 ** _decimal */\n      tag_194\n      swap1\n        /* \"contracts/YNPresalePair.sol\":1522:1523  1 */\n      0x01\n        /* \"contracts/YNPresalePair.sol\":1522:1540  1 * 10 ** _decimal */\n      tag_195\n      jump\t// in\n    tag_194:\n        /* \"contracts/YNPresalePair.sol\":1514:1517  val */\n      dup6\n      swap1\n        /* \"contracts/YNPresalePair.sol\":1514:1521  val.mul */\n      tag_196\n        /* \"contracts/YNPresalePair.sol\":1514:1541  val.mul(1 * 10 ** _decimal) */\n      jump\t// in\n    tag_191:\n        /* \"contracts/YNPresalePair.sol\":1514:1545  val.mul(1 * 10 ** _decimal).div */\n      swap1\n      tag_197\n        /* \"contracts/YNPresalePair.sol\":1514:1554  val.mul(1 * 10 ** _decimal).div(_buyFee) */\n      jump\t// in\n    tag_190:\n        /* \"contracts/YNPresalePair.sol\":1497:1554  uint256 tokenGet=val.mul(1 * 10 ** _decimal).div(_buyFee) */\n      swap1\n      pop\n        /* \"contracts/YNPresalePair.sol\":1580:1587  _maxBuy */\n      sload(0x09)\n        /* \"contracts/YNPresalePair.sol\":1568:1576  tokenGet */\n      dup2\n        /* \"contracts/YNPresalePair.sol\":1568:1587  tokenGet <= _maxBuy */\n      gt\n        /* \"contracts/YNPresalePair.sol\":1565:1923  if(tokenGet <= _maxBuy){... */\n      tag_198\n      jumpi\n        /* \"contracts/YNPresalePair.sol\":1616:1647  yerc20.balanceOf(address(this)) */\n      mload(0x40)\n      shl(0xe0, 0x70a08231)\n      dup2\n      mstore\n        /* \"contracts/YNPresalePair.sol\":1641:1645  this */\n      address\n        /* \"contracts/YNPresalePair.sol\":1616:1647  yerc20.balanceOf(address(this)) */\n      0x04\n      dup3\n      add\n        /* \"#utility.yul\":2471:2522   */\n      mstore\n      sub(shl(0xa0, 0x01), 0x01)\n        /* \"contracts/YNPresalePair.sol\":1616:1632  yerc20.balanceOf */\n      dup5\n      and\n      swap1\n      0x70a08231\n      swap1\n        /* \"#utility.yul\":2444:2462   */\n      0x24\n      add\n        /* \"contracts/YNPresalePair.sol\":1616:1647  yerc20.balanceOf(address(this)) */\n      0x20\n      mload(0x40)\n      dup1\n      dup4\n      sub\n      dup2\n      dup7\n      gas\n      staticcall\n      iszero\n      dup1\n      iszero\n      tag_201\n      jumpi\n      returndatasize\n      0x00\n      dup1\n      returndatacopy\n      revert(0x00, returndatasize)\n    tag_201:\n      pop\n      pop\n      pop\n      pop\n      mload(0x40)\n      returndatasize\n      not(0x1f)\n      0x1f\n      dup3\n      add\n      and\n      dup3\n      add\n      dup1\n      0x40\n      mstore\n      pop\n      dup2\n      add\n      swap1\n      tag_202\n      swap2\n      swap1\n      tag_203\n      jump\t// in\n    tag_202:\n        /* \"contracts/YNPresalePair.sol\":1606:1614  tokenGet */\n      dup2\n        /* \"contracts/YNPresalePair.sol\":1606:1647  tokenGet<=yerc20.balanceOf(address(this)) */\n      gt\n        /* \"contracts/YNPresalePair.sol\":1603:1810  if(tokenGet<=yerc20.balanceOf(address(this))){... */\n      tag_204\n      jumpi\n        /* \"contracts/YNPresalePair.sol\":1667:1708  _transferTokenToUser(msg.sender,tokenGet) */\n      tag_119\n        /* \"contracts/YNPresalePair.sol\":1688:1698  msg.sender */\n      caller\n        /* \"contracts/YNPresalePair.sol\":1699:1707  tokenGet */\n      dup3\n        /* \"contracts/YNPresalePair.sol\":1667:1687  _transferTokenToUser */\n      tag_155\n        /* \"contracts/YNPresalePair.sol\":1667:1708  _transferTokenToUser(msg.sender,tokenGet) */\n      jump\t// in\n        /* \"contracts/YNPresalePair.sol\":1603:1810  if(tokenGet<=yerc20.balanceOf(address(this))){... */\n    tag_204:\n        /* \"contracts/YNPresalePair.sol\":1761:1794  payable(msg.sender).transfer(val) */\n      mload(0x40)\n        /* \"contracts/YNPresalePair.sol\":1769:1779  msg.sender */\n      caller\n      swap1\n        /* \"contracts/YNPresalePair.sol\":1761:1794  payable(msg.sender).transfer(val) */\n      dup4\n      iszero\n      0x08fc\n      mul\n      swap1\n        /* \"contracts/YNPresalePair.sol\":1790:1793  val */\n      dup5\n      swap1\n        /* \"contracts/YNPresalePair.sol\":1761:1794  payable(msg.sender).transfer(val) */\n      0x00\n      dup2\n      dup2\n      dup2\n        /* \"contracts/YNPresalePair.sol\":1790:1793  val */\n      dup6\n        /* \"contracts/YNPresalePair.sol\":1769:1779  msg.sender */\n      dup9\n        /* \"contracts/YNPresalePair.sol\":1761:1794  payable(msg.sender).transfer(val) */\n      dup9\n      call\n      swap4\n      pop\n      pop\n      pop\n      pop\n      iszero\n      dup1\n      iszero\n      tag_208\n      jumpi\n      returndatasize\n      0x00\n      dup1\n      returndatacopy\n      revert(0x00, returndatasize)\n    tag_208:\n      pop\n        /* \"contracts/YNPresalePair.sol\":3023:3052  payable(user).transfer(money) */\n      pop\n        /* \"contracts/YNPresalePair.sol\":2888:3060  function transferBalanceToUser(address user,uint256 money) public onlyOwner {... */\n      pop\n      pop\n      jump\t// out\n        /* \"contracts/YNPresalePair.sol\":1565:1923  if(tokenGet <= _maxBuy){... */\n    tag_198:\n        /* \"contracts/YNPresalePair.sol\":1863:1870  _maxBuy */\n      sload(0x09)\n        /* \"contracts/YNPresalePair.sol\":1858:1861  val */\n      dup3\n        /* \"contracts/YNPresalePair.sol\":1858:1870  val<=_maxBuy */\n      gt\n      iszero\n        /* \"contracts/YNPresalePair.sol\":1850:1911  require(val<=_maxBuy,\"YNPresale: AMOUNT SALE AMOUNT EXCEED.\") */\n      tag_119\n      jumpi\n      mload(0x40)\n      shl(0xe5, 0x461bcd)\n      dup2\n      mstore\n        /* \"#utility.yul\":6571:6573   */\n      0x20\n        /* \"contracts/YNPresalePair.sol\":1850:1911  require(val<=_maxBuy,\"YNPresale: AMOUNT SALE AMOUNT EXCEED.\") */\n      0x04\n      dup3\n      add\n        /* \"#utility.yul\":6553:6574   */\n      mstore\n        /* \"#utility.yul\":6610:6612   */\n      0x25\n        /* \"#utility.yul\":6590:6608   */\n      0x24\n      dup3\n      add\n        /* \"#utility.yul\":6583:6613   */\n      mstore\n        /* \"#utility.yul\":6649:6683   */\n      0x594e50726573616c653a20414d4f554e542053414c4520414d4f554e54204558\n        /* \"#utility.yul\":6629:6647   */\n      0x44\n      dup3\n      add\n        /* \"#utility.yul\":6622:6684   */\n      mstore\n      shl(0xd9, 0x21a2a2a217)\n        /* \"#utility.yul\":6700:6718   */\n      0x64\n      dup3\n      add\n        /* \"#utility.yul\":6693:6728   */\n      mstore\n        /* \"#utility.yul\":6745:6764   */\n      0x84\n      add\n        /* \"contracts/YNPresalePair.sol\":1850:1911  require(val<=_maxBuy,\"YNPresale: AMOUNT SALE AMOUNT EXCEED.\") */\n      tag_114\n        /* \"#utility.yul\":6369:6770   */\n      jump\n        /* \"contracts/YNPresalePair.sol\":1938:2706  function transfer(address recipient, uint256 amount) public virtual override returns (bool) {        ... */\n    tag_97:\n        /* \"contracts/YNPresalePair.sol\":2024:2028  bool */\n      0x00\n        /* \"contracts/YNPresalePair.sol\":2049:2057  bool ret */\n      dup1\n        /* \"contracts/YNPresalePair.sol\":2059:2092  super.transfer(recipient, amount) */\n      tag_214\n        /* \"contracts/YNPresalePair.sol\":2074:2083  recipient */\n      dup5\n        /* \"contracts/YNPresalePair.sol\":2085:2091  amount */\n      dup5\n        /* \"contracts/YNPresalePair.sol\":2059:2073  super.transfer */\n      tag_215\n        /* \"contracts/YNPresalePair.sol\":2059:2092  super.transfer(recipient, amount) */\n      jump\t// in\n    tag_214:\n        /* \"contracts/YNPresalePair.sol\":2049:2092  bool ret= super.transfer(recipient, amount) */\n      swap1\n      pop\n        /* \"contracts/YNPresalePair.sol\":2125:2131  amount */\n      dup3\n        /* \"contracts/YNPresalePair.sol\":2174:2178  this */\n      address\n      sub(shl(0xa0, 0x01), 0x01)\n        /* \"contracts/YNPresalePair.sol\":2155:2179  recipient==address(this) */\n      dup7\n      and\n      sub\n        /* \"contracts/YNPresalePair.sol\":2152:2658  if(recipient==address(this)){... */\n      tag_216\n      jumpi\n        /* \"contracts/YNPresalePair.sol\":2244:2252  _decimal */\n      sload(0x0b)\n        /* \"contracts/YNPresalePair.sol\":2195:2211  uint256 tokenGet */\n      0x00\n      swap1\n        /* \"contracts/YNPresalePair.sol\":2212:2253  val.mul(_saleFee).div(1 * 10 ** _decimal) */\n      tag_217\n      swap1\n        /* \"contracts/YNPresalePair.sol\":2238:2252  10 ** _decimal */\n      tag_218\n      swap1\n        /* \"contracts/YNPresalePair.sol\":2244:2252  _decimal */\n      0xff\n      and\n        /* \"contracts/YNPresalePair.sol\":2238:2240  10 */\n      0x0a\n        /* \"contracts/YNPresalePair.sol\":2238:2252  10 ** _decimal */\n      tag_193\n      jump\t// in\n    tag_218:\n        /* \"contracts/YNPresalePair.sol\":2234:2252  1 * 10 ** _decimal */\n      tag_219\n      swap1\n        /* \"contracts/YNPresalePair.sol\":2234:2235  1 */\n      0x01\n        /* \"contracts/YNPresalePair.sol\":2234:2252  1 * 10 ** _decimal */\n      tag_195\n      jump\t// in\n    tag_219:\n        /* \"contracts/YNPresalePair.sol\":2220:2228  _saleFee */\n      sload(0x07)\n        /* \"contracts/YNPresalePair.sol\":2212:2229  val.mul(_saleFee) */\n      tag_191\n      swap1\n        /* \"contracts/YNPresalePair.sol\":2212:2215  val */\n      dup6\n      swap1\n        /* \"contracts/YNPresalePair.sol\":2212:2219  val.mul */\n      tag_196\n        /* \"contracts/YNPresalePair.sol\":2212:2229  val.mul(_saleFee) */\n      jump\t// in\n        /* \"contracts/YNPresalePair.sol\":2212:2253  val.mul(_saleFee).div(1 * 10 ** _decimal) */\n    tag_217:\n        /* \"contracts/YNPresalePair.sol\":2195:2253  uint256 tokenGet=val.mul(_saleFee).div(1 * 10 ** _decimal) */\n      swap1\n      pop\n        /* \"contracts/YNPresalePair.sol\":2278:2286  _maxSale */\n      sload(0x0a)\n        /* \"contracts/YNPresalePair.sol\":2271:2274  val */\n      dup3\n        /* \"contracts/YNPresalePair.sol\":2271:2286  val <= _maxSale */\n      gt\n        /* \"contracts/YNPresalePair.sol\":2268:2647  if(val <= _maxSale){... */\n      tag_221\n      jumpi\n        /* \"contracts/YNPresalePair.sol\":2319:2340  address(this).balance */\n      selfbalance\n        /* \"contracts/YNPresalePair.sol\":2309:2317  tokenGet */\n      dup2\n        /* \"contracts/YNPresalePair.sol\":2309:2340  tokenGet<=address(this).balance */\n      gt\n        /* \"contracts/YNPresalePair.sol\":2306:2520  if(tokenGet<=address(this).balance){... */\n      tag_222\n      jumpi\n        /* \"contracts/YNPresalePair.sol\":2364:2402  payable(msg.sender).transfer(tokenGet) */\n      mload(0x40)\n        /* \"contracts/YNPresalePair.sol\":2372:2382  msg.sender */\n      caller\n      swap1\n        /* \"contracts/YNPresalePair.sol\":2364:2402  payable(msg.sender).transfer(tokenGet) */\n      dup3\n      iszero\n      0x08fc\n      mul\n      swap1\n        /* \"contracts/YNPresalePair.sol\":2393:2401  tokenGet */\n      dup4\n      swap1\n        /* \"contracts/YNPresalePair.sol\":2364:2402  payable(msg.sender).transfer(tokenGet) */\n      0x00\n      dup2\n      dup2\n      dup2\n        /* \"contracts/YNPresalePair.sol\":2393:2401  tokenGet */\n      dup6\n        /* \"contracts/YNPresalePair.sol\":2372:2382  msg.sender */\n      dup9\n        /* \"contracts/YNPresalePair.sol\":2364:2402  payable(msg.sender).transfer(tokenGet) */\n      dup9\n      call\n      swap4\n      pop\n      pop\n      pop\n      pop\n      iszero\n      dup1\n      iszero\n      tag_224\n      jumpi\n      returndatasize\n      0x00\n      dup1\n      returndatacopy\n      revert(0x00, returndatasize)\n    tag_224:\n      pop\n        /* \"contracts/YNPresalePair.sol\":2268:2647  if(val <= _maxSale){... */\n      jump(tag_229)\n        /* \"contracts/YNPresalePair.sol\":2306:2520  if(tokenGet<=address(this).balance){... */\n    tag_222:\n        /* \"contracts/YNPresalePair.sol\":2467:2500  payable(msg.sender).transfer(val) */\n      mload(0x40)\n        /* \"contracts/YNPresalePair.sol\":2475:2485  msg.sender */\n      caller\n      swap1\n        /* \"contracts/YNPresalePair.sol\":2467:2500  payable(msg.sender).transfer(val) */\n      dup4\n      iszero\n      0x08fc\n      mul\n      swap1\n        /* \"contracts/YNPresalePair.sol\":2496:2499  val */\n      dup5\n      swap1\n        /* \"contracts/YNPresalePair.sol\":2467:2500  payable(msg.sender).transfer(val) */\n      0x00\n      dup2\n      dup2\n      dup2\n        /* \"contracts/YNPresalePair.sol\":2496:2499  val */\n      dup6\n        /* \"contracts/YNPresalePair.sol\":2475:2485  msg.sender */\n      dup9\n        /* \"contracts/YNPresalePair.sol\":2467:2500  payable(msg.sender).transfer(val) */\n      dup9\n      call\n      swap4\n      pop\n      pop\n      pop\n      pop\n      iszero\n      dup1\n      iszero\n      tag_224\n      jumpi\n      returndatasize\n      0x00\n      dup1\n      returndatacopy\n      revert(0x00, returndatasize)\n        /* \"contracts/YNPresalePair.sol\":2268:2647  if(val <= _maxSale){... */\n    tag_221:\n        /* \"contracts/YNPresalePair.sol\":2585:2593  _maxSale */\n      sload(0x0a)\n        /* \"contracts/YNPresalePair.sol\":2580:2583  val */\n      dup3\n        /* \"contracts/YNPresalePair.sol\":2580:2593  val<=_maxSale */\n      gt\n      iszero\n        /* \"contracts/YNPresalePair.sol\":2572:2631  require(val<=_maxSale,\"YNPresale: MAX SALE AMOUNT EXCEED.\") */\n      tag_229\n      jumpi\n      mload(0x40)\n      shl(0xe5, 0x461bcd)\n      dup2\n      mstore\n        /* \"#utility.yul\":6977:6979   */\n      0x20\n        /* \"contracts/YNPresalePair.sol\":2572:2631  require(val<=_maxSale,\"YNPresale: MAX SALE AMOUNT EXCEED.\") */\n      0x04\n      dup3\n      add\n        /* \"#utility.yul\":6959:6980   */\n      mstore\n        /* \"#utility.yul\":7016:7018   */\n      0x22\n        /* \"#utility.yul\":6996:7014   */\n      0x24\n      dup3\n      add\n        /* \"#utility.yul\":6989:7019   */\n      mstore\n        /* \"#utility.yul\":7055:7089   */\n      0x594e50726573616c653a204d41582053414c4520414d4f554e54204558434545\n        /* \"#utility.yul\":7035:7053   */\n      0x44\n      dup3\n      add\n        /* \"#utility.yul\":7028:7090   */\n      mstore\n      shl(0xf1, 0x2217)\n        /* \"#utility.yul\":7106:7124   */\n      0x64\n      dup3\n      add\n        /* \"#utility.yul\":7099:7131   */\n      mstore\n        /* \"#utility.yul\":7148:7167   */\n      0x84\n      add\n        /* \"contracts/YNPresalePair.sol\":2572:2631  require(val<=_maxSale,\"YNPresale: MAX SALE AMOUNT EXCEED.\") */\n      tag_114\n        /* \"#utility.yul\":6775:7173   */\n      jump\n        /* \"contracts/YNPresalePair.sol\":2572:2631  require(val<=_maxSale,\"YNPresale: MAX SALE AMOUNT EXCEED.\") */\n    tag_229:\n        /* \"contracts/YNPresalePair.sol\":2180:2658  {... */\n      pop\n        /* \"contracts/YNPresalePair.sol\":2152:2658  if(recipient==address(this)){... */\n    tag_216:\n      pop\n        /* \"contracts/YNPresalePair.sol\":2695:2698  ret */\n      swap4\n        /* \"contracts/YNPresalePair.sol\":1938:2706  function transfer(address recipient, uint256 amount) public virtual override returns (bool) {        ... */\n      swap3\n      pop\n      pop\n      pop\n      jump\t// out\n        /* \"@openzeppelin/contracts/access/Ownable.sol\":1918:2116  function transferOwnership(address newOwner) public virtual onlyOwner {... */\n    tag_108:\n        /* \"@openzeppelin/contracts/access/Ownable.sol\":1108:1114  _owner */\n      and(sub(shl(0xa0, 0x01), 0x01), sload(0x05))\n        /* \"@openzeppelin/contracts/utils/Context.sol\":719:729  msg.sender */\n      caller\n        /* \"@openzeppelin/contracts/access/Ownable.sol\":1248:1271  owner() == _msgSender() */\n      eq\n        /* \"@openzeppelin/contracts/access/Ownable.sol\":1240:1308  require(owner() == _msgSender(), \"Ownable: caller is not the owner\") */\n      tag_236\n      jumpi\n      mload(0x40)\n      shl(0xe5, 0x461bcd)\n      dup2\n      mstore\n      0x04\n      add\n      tag_114\n      swap1\n      tag_115\n      jump\t// in\n    tag_236:\n      sub(shl(0xa0, 0x01), 0x01)\n        /* \"@openzeppelin/contracts/access/Ownable.sol\":2006:2028  newOwner != address(0) */\n      dup2\n      and\n        /* \"@openzeppelin/contracts/access/Ownable.sol\":1998:2071  require(newOwner != address(0), \"Ownable: new owner is the zero address\") */\n      tag_239\n      jumpi\n      mload(0x40)\n      shl(0xe5, 0x461bcd)\n      dup2\n      mstore\n        /* \"#utility.yul\":7380:7382   */\n      0x20\n        /* \"@openzeppelin/contracts/access/Ownable.sol\":1998:2071  require(newOwner != address(0), \"Ownable: new owner is the zero address\") */\n      0x04\n      dup3\n      add\n        /* \"#utility.yul\":7362:7383   */\n      mstore\n        /* \"#utility.yul\":7419:7421   */\n      0x26\n        /* \"#utility.yul\":7399:7417   */\n      0x24\n      dup3\n      add\n        /* \"#utility.yul\":7392:7422   */\n      mstore\n        /* \"#utility.yul\":7458:7492   */\n      0x4f776e61626c653a206e6577206f776e657220697320746865207a65726f2061\n        /* \"#utility.yul\":7438:7456   */\n      0x44\n      dup3\n      add\n        /* \"#utility.yul\":7431:7493   */\n      mstore\n      shl(0xd0, 0x646472657373)\n        /* \"#utility.yul\":7509:7527   */\n      0x64\n      dup3\n      add\n        /* \"#utility.yul\":7502:7538   */\n      mstore\n        /* \"#utility.yul\":7555:7574   */\n      0x84\n      add\n        /* \"@openzeppelin/contracts/access/Ownable.sol\":1998:2071  require(newOwner != address(0), \"Ownable: new owner is the zero address\") */\n      tag_114\n        /* \"#utility.yul\":7178:7580   */\n      jump\n        /* \"@openzeppelin/contracts/access/Ownable.sol\":1998:2071  require(newOwner != address(0), \"Ownable: new owner is the zero address\") */\n    tag_239:\n        /* \"@openzeppelin/contracts/access/Ownable.sol\":2081:2109  _transferOwnership(newOwner) */\n      tag_242\n        /* \"@openzeppelin/contracts/access/Ownable.sol\":2100:2108  newOwner */\n      dup2\n        /* \"@openzeppelin/contracts/access/Ownable.sol\":2081:2099  _transferOwnership */\n      tag_164\n        /* \"@openzeppelin/contracts/access/Ownable.sol\":2081:2109  _transferOwnership(newOwner) */\n      jump\t// in\n    tag_242:\n        /* \"@openzeppelin/contracts/access/Ownable.sol\":1918:2116  function transferOwnership(address newOwner) public virtual onlyOwner {... */\n      pop\n      jump\t// out\n        /* \"@openzeppelin/contracts/token/ERC20/ERC20.sol\":10019:10389  function _approve(... */\n    tag_130:\n      sub(shl(0xa0, 0x01), 0x01)\n        /* \"@openzeppelin/contracts/token/ERC20/ERC20.sol\":10150:10169  owner != address(0) */\n      dup4\n      and\n        /* \"@openzeppelin/contracts/token/ERC20/ERC20.sol\":10142:10210  require(owner != address(0), \"ERC20: approve from the zero address\") */\n      tag_245\n      jumpi\n      mload(0x40)\n      shl(0xe5, 0x461bcd)\n      dup2\n      mstore\n        /* \"#utility.yul\":7787:7789   */\n      0x20\n        /* \"@openzeppelin/contracts/token/ERC20/ERC20.sol\":10142:10210  require(owner != address(0), \"ERC20: approve from the zero address\") */\n      0x04\n      dup3\n      add\n        /* \"#utility.yul\":7769:7790   */\n      mstore\n        /* \"#utility.yul\":7826:7828   */\n      0x24\n        /* \"#utility.yul\":7806:7824   */\n      dup1\n      dup3\n      add\n        /* \"#utility.yul\":7799:7829   */\n      mstore\n        /* \"#utility.yul\":7865:7899   */\n      0x45524332303a20617070726f76652066726f6d20746865207a65726f20616464\n        /* \"#utility.yul\":7845:7863   */\n      0x44\n      dup3\n      add\n        /* \"#utility.yul\":7838:7900   */\n      mstore\n      shl(0xe0, 0x72657373)\n        /* \"#utility.yul\":7916:7934   */\n      0x64\n      dup3\n      add\n        /* \"#utility.yul\":7909:7943   */\n      mstore\n        /* \"#utility.yul\":7960:7979   */\n      0x84\n      add\n        /* \"@openzeppelin/contracts/token/ERC20/ERC20.sol\":10142:10210  require(owner != address(0), \"ERC20: approve from the zero address\") */\n      tag_114\n        /* \"#utility.yul\":7585:7985   */\n      jump\n        /* \"@openzeppelin/contracts/token/ERC20/ERC20.sol\":10142:10210  require(owner != address(0), \"ERC20: approve from the zero address\") */\n    tag_245:\n      sub(shl(0xa0, 0x01), 0x01)\n        /* \"@openzeppelin/contracts/token/ERC20/ERC20.sol\":10228:10249  spender != address(0) */\n      dup3\n      and\n        /* \"@openzeppelin/contracts/token/ERC20/ERC20.sol\":10220:10288  require(spender != address(0), \"ERC20: approve to the zero address\") */\n      tag_248\n      jumpi\n      mload(0x40)\n      shl(0xe5, 0x461bcd)\n      dup2\n      mstore\n        /* \"#utility.yul\":8192:8194   */\n      0x20\n        /* \"@openzeppelin/contracts/token/ERC20/ERC20.sol\":10220:10288  require(spender != address(0), \"ERC20: approve to the zero address\") */\n      0x04\n      dup3\n      add\n        /* \"#utility.yul\":8174:8195   */\n      mstore\n        /* \"#utility.yul\":8231:8233   */\n      0x22\n        /* \"#utility.yul\":8211:8229   */\n      0x24\n      dup3\n      add\n        /* \"#utility.yul\":8204:8234   */\n      mstore\n        /* \"#utility.yul\":8270:8304   */\n      0x45524332303a20617070726f766520746f20746865207a65726f206164647265\n        /* \"#utility.yul\":8250:8268   */\n      0x44\n      dup3\n      add\n        /* \"#utility.yul\":8243:8305   */\n      mstore\n      shl(0xf0, 0x7373)\n        /* \"#utility.yul\":8321:8339   */\n      0x64\n      dup3\n      add\n        /* \"#utility.yul\":8314:8346   */\n      mstore\n        /* \"#utility.yul\":8363:8382   */\n      0x84\n      add\n        /* \"@openzeppelin/contracts/token/ERC20/ERC20.sol\":10220:10288  require(spender != address(0), \"ERC20: approve to the zero address\") */\n      tag_114\n        /* \"#utility.yul\":7990:8388   */\n      jump\n        /* \"@openzeppelin/contracts/token/ERC20/ERC20.sol\":10220:10288  require(spender != address(0), \"ERC20: approve to the zero address\") */\n    tag_248:\n      sub(shl(0xa0, 0x01), 0x01)\n        /* \"@openzeppelin/contracts/token/ERC20/ERC20.sol\":10299:10317  _allowances[owner] */\n      dup4\n      dup2\n      and\n      0x00\n      dup2\n      dup2\n      mstore\n        /* \"@openzeppelin/contracts/token/ERC20/ERC20.sol\":10299:10310  _allowances */\n      0x01\n        /* \"@openzeppelin/contracts/token/ERC20/ERC20.sol\":10299:10317  _allowances[owner] */\n      0x20\n      swap1\n      dup2\n      mstore\n      0x40\n      dup1\n      dup4\n      keccak256\n        /* \"@openzeppelin/contracts/token/ERC20/ERC20.sol\":10299:10326  _allowances[owner][spender] */\n      swap5\n      dup8\n      and\n      dup1\n      dup5\n      mstore\n      swap5\n      dup3\n      mstore\n      swap2\n      dup3\n      swap1\n      keccak256\n        /* \"@openzeppelin/contracts/token/ERC20/ERC20.sol\":10299:10335  _allowances[owner][spender] = amount */\n      dup6\n      swap1\n      sstore\n        /* \"@openzeppelin/contracts/token/ERC20/ERC20.sol\":10350:10382  Approval(owner, spender, amount) */\n      swap1\n      mload\n        /* \"#utility.yul\":1391:1416   */\n      dup5\n      dup2\n      mstore\n        /* \"@openzeppelin/contracts/token/ERC20/ERC20.sol\":10350:10382  Approval(owner, spender, amount) */\n      0x8c5be1e5ebec7d5bd14f71427d1e84f3dd0314c0f7b2291e5b200ac8c7c3b925\n      swap2\n        /* \"#utility.yul\":1364:1382   */\n      add\n        /* \"@openzeppelin/contracts/token/ERC20/ERC20.sol\":10350:10382  Approval(owner, spender, amount) */\n      mload(0x40)\n      dup1\n      swap2\n      sub\n      swap1\n      log3\n        /* \"@openzeppelin/contracts/token/ERC20/ERC20.sol\":10019:10389  function _approve(... */\n      pop\n      pop\n      pop\n      jump\t// out\n        /* \"@openzeppelin/contracts/token/ERC20/ERC20.sol\":7322:8035  function _transfer(... */\n    tag_134:\n      sub(shl(0xa0, 0x01), 0x01)\n        /* \"@openzeppelin/contracts/token/ERC20/ERC20.sol\":7457:7477  sender != address(0) */\n      dup4\n      and\n        /* \"@openzeppelin/contracts/token/ERC20/ERC20.sol\":7449:7519  require(sender != address(0), \"ERC20: transfer from the zero address\") */\n      tag_253\n      jumpi\n      mload(0x40)\n      shl(0xe5, 0x461bcd)\n      dup2\n      mstore\n        /* \"#utility.yul\":8595:8597   */\n      0x20\n        /* \"@openzeppelin/contracts/token/ERC20/ERC20.sol\":7449:7519  require(sender != address(0), \"ERC20: transfer from the zero address\") */\n      0x04\n      dup3\n      add\n        /* \"#utility.yul\":8577:8598   */\n      mstore\n        /* \"#utility.yul\":8634:8636   */\n      0x25\n        /* \"#utility.yul\":8614:8632   */\n      0x24\n      dup3\n      add\n        /* \"#utility.yul\":8607:8637   */\n      mstore\n        /* \"#utility.yul\":8673:8707   */\n      0x45524332303a207472616e736665722066726f6d20746865207a65726f206164\n        /* \"#utility.yul\":8653:8671   */\n      0x44\n      dup3\n      add\n        /* \"#utility.yul\":8646:8708   */\n      mstore\n      shl(0xd8, 0x6472657373)\n        /* \"#utility.yul\":8724:8742   */\n      0x64\n      dup3\n      add\n        /* \"#utility.yul\":8717:8752   */\n      mstore\n        /* \"#utility.yul\":8769:8788   */\n      0x84\n      add\n        /* \"@openzeppelin/contracts/token/ERC20/ERC20.sol\":7449:7519  require(sender != address(0), \"ERC20: transfer from the zero address\") */\n      tag_114\n        /* \"#utility.yul\":8393:8794   */\n      jump\n        /* \"@openzeppelin/contracts/token/ERC20/ERC20.sol\":7449:7519  require(sender != address(0), \"ERC20: transfer from the zero address\") */\n    tag_253:\n      sub(shl(0xa0, 0x01), 0x01)\n        /* \"@openzeppelin/contracts/token/ERC20/ERC20.sol\":7537:7560  recipient != address(0) */\n      dup3\n      and\n        /* \"@openzeppelin/contracts/token/ERC20/ERC20.sol\":7529:7600  require(recipient != address(0), \"ERC20: transfer to the zero address\") */\n      tag_256\n      jumpi\n      mload(0x40)\n      shl(0xe5, 0x461bcd)\n      dup2\n      mstore\n        /* \"#utility.yul\":9001:9003   */\n      0x20\n        /* \"@openzeppelin/contracts/token/ERC20/ERC20.sol\":7529:7600  require(recipient != address(0), \"ERC20: transfer to the zero address\") */\n      0x04\n      dup3\n      add\n        /* \"#utility.yul\":8983:9004   */\n      mstore\n        /* \"#utility.yul\":9040:9042   */\n      0x23\n        /* \"#utility.yul\":9020:9038   */\n      0x24\n      dup3\n      add\n        /* \"#utility.yul\":9013:9043   */\n      mstore\n        /* \"#utility.yul\":9079:9113   */\n      0x45524332303a207472616e7366657220746f20746865207a65726f2061646472\n        /* \"#utility.yul\":9059:9077   */\n      0x44\n      dup3\n      add\n        /* \"#utility.yul\":9052:9114   */\n      mstore\n      shl(0xe8, 0x657373)\n        /* \"#utility.yul\":9130:9148   */\n      0x64\n      dup3\n      add\n        /* \"#utility.yul\":9123:9156   */\n      mstore\n        /* \"#utility.yul\":9173:9192   */\n      0x84\n      add\n        /* \"@openzeppelin/contracts/token/ERC20/ERC20.sol\":7529:7600  require(recipient != address(0), \"ERC20: transfer to the zero address\") */\n      tag_114\n        /* \"#utility.yul\":8799:9198   */\n      jump\n        /* \"@openzeppelin/contracts/token/ERC20/ERC20.sol\":7529:7600  require(recipient != address(0), \"ERC20: transfer to the zero address\") */\n    tag_256:\n      sub(shl(0xa0, 0x01), 0x01)\n        /* \"@openzeppelin/contracts/token/ERC20/ERC20.sol\":7693:7710  _balances[sender] */\n      dup4\n      and\n        /* \"@openzeppelin/contracts/token/ERC20/ERC20.sol\":7669:7690  uint256 senderBalance */\n      0x00\n        /* \"@openzeppelin/contracts/token/ERC20/ERC20.sol\":7693:7710  _balances[sender] */\n      swap1\n      dup2\n      mstore\n      0x20\n      dup2\n      swap1\n      mstore\n      0x40\n      swap1\n      keccak256\n      sload\n        /* \"@openzeppelin/contracts/token/ERC20/ERC20.sol\":7728:7751  senderBalance >= amount */\n      dup2\n      dup2\n      lt\n      iszero\n        /* \"@openzeppelin/contracts/token/ERC20/ERC20.sol\":7720:7794  require(senderBalance >= amount, \"ERC20: transfer amount exceeds balance\") */\n      tag_261\n      jumpi\n      mload(0x40)\n      shl(0xe5, 0x461bcd)\n      dup2\n      mstore\n        /* \"#utility.yul\":9405:9407   */\n      0x20\n        /* \"@openzeppelin/contracts/token/ERC20/ERC20.sol\":7720:7794  require(senderBalance >= amount, \"ERC20: transfer amount exceeds balance\") */\n      0x04\n      dup3\n      add\n        /* \"#utility.yul\":9387:9408   */\n      mstore\n        /* \"#utility.yul\":9444:9446   */\n      0x26\n        /* \"#utility.yul\":9424:9442   */\n      0x24\n      dup3\n      add\n        /* \"#utility.yul\":9417:9447   */\n      mstore\n        /* \"#utility.yul\":9483:9517   */\n      0x45524332303a207472616e7366657220616d6f756e7420657863656564732062\n        /* \"#utility.yul\":9463:9481   */\n      0x44\n      dup3\n      add\n        /* \"#utility.yul\":9456:9518   */\n      mstore\n      shl(0xd0, 0x616c616e6365)\n        /* \"#utility.yul\":9534:9552   */\n      0x64\n      dup3\n      add\n        /* \"#utility.yul\":9527:9563   */\n      mstore\n        /* \"#utility.yul\":9580:9599   */\n      0x84\n      add\n        /* \"@openzeppelin/contracts/token/ERC20/ERC20.sol\":7720:7794  require(senderBalance >= amount, \"ERC20: transfer amount exceeds balance\") */\n      tag_114\n        /* \"#utility.yul\":9203:9605   */\n      jump\n        /* \"@openzeppelin/contracts/token/ERC20/ERC20.sol\":7720:7794  require(senderBalance >= amount, \"ERC20: transfer amount exceeds balance\") */\n    tag_261:\n      sub(shl(0xa0, 0x01), 0x01)\n        /* \"@openzeppelin/contracts/token/ERC20/ERC20.sol\":7828:7845  _balances[sender] */\n      dup1\n      dup6\n      and\n        /* \"@openzeppelin/contracts/token/ERC20/ERC20.sol\":7828:7837  _balances */\n      0x00\n        /* \"@openzeppelin/contracts/token/ERC20/ERC20.sol\":7828:7845  _balances[sender] */\n      swap1\n      dup2\n      mstore\n      0x20\n      dup2\n      swap1\n      mstore\n      0x40\n      dup1\n      dup3\n      keccak256\n        /* \"@openzeppelin/contracts/token/ERC20/ERC20.sol\":7848:7870  senderBalance - amount */\n      dup6\n      dup6\n      sub\n        /* \"@openzeppelin/contracts/token/ERC20/ERC20.sol\":7828:7870  _balances[sender] = senderBalance - amount */\n      swap1\n      sstore\n        /* \"@openzeppelin/contracts/token/ERC20/ERC20.sol\":7890:7910  _balances[recipient] */\n      swap2\n      dup6\n      and\n      dup2\n      mstore\n      swap1\n      dup2\n      keccak256\n        /* \"@openzeppelin/contracts/token/ERC20/ERC20.sol\":7890:7920  _balances[recipient] += amount */\n      dup1\n      sload\n        /* \"@openzeppelin/contracts/token/ERC20/ERC20.sol\":7864:7870  amount */\n      dup5\n      swap3\n        /* \"@openzeppelin/contracts/token/ERC20/ERC20.sol\":7828:7837  _balances */\n      swap1\n        /* \"@openzeppelin/contracts/token/ERC20/ERC20.sol\":7890:7920  _balances[recipient] += amount */\n      tag_264\n      swap1\n        /* \"@openzeppelin/contracts/token/ERC20/ERC20.sol\":7864:7870  amount */\n      dup5\n      swap1\n        /* \"@openzeppelin/contracts/token/ERC20/ERC20.sol\":7890:7920  _balances[recipient] += amount */\n      tag_147\n      jump\t// in\n    tag_264:\n      swap3\n      pop\n      pop\n      dup2\n      swap1\n      sstore\n      pop\n        /* \"@openzeppelin/contracts/token/ERC20/ERC20.sol\":7953:7962  recipient */\n      dup3\n      sub(shl(0xa0, 0x01), 0x01)\n        /* \"@openzeppelin/contracts/token/ERC20/ERC20.sol\":7936:7971  Transfer(sender, recipient, amount) */\n      and\n        /* \"@openzeppelin/contracts/token/ERC20/ERC20.sol\":7945:7951  sender */\n      dup5\n      sub(shl(0xa0, 0x01), 0x01)\n        /* \"@openzeppelin/contracts/token/ERC20/ERC20.sol\":7936:7971  Transfer(sender, recipient, amount) */\n      and\n      0xddf252ad1be2c89b69c2b068fc378daa952ba7f163c4a11628f55a4df523b3ef\n        /* \"@openzeppelin/contracts/token/ERC20/ERC20.sol\":7964:7970  amount */\n      dup5\n        /* \"@openzeppelin/contracts/token/ERC20/ERC20.sol\":7936:7971  Transfer(sender, recipient, amount) */\n      mload(0x40)\n      tag_265\n      swap2\n        /* \"#utility.yul\":1391:1416   */\n      dup2\n      mstore\n        /* \"#utility.yul\":1379:1381   */\n      0x20\n        /* \"#utility.yul\":1364:1382   */\n      add\n      swap1\n        /* \"#utility.yul\":1245:1422   */\n      jump\n        /* \"@openzeppelin/contracts/token/ERC20/ERC20.sol\":7936:7971  Transfer(sender, recipient, amount) */\n    tag_265:\n      mload(0x40)\n      dup1\n      swap2\n      sub\n      swap1\n      log3\n        /* \"@openzeppelin/contracts/token/ERC20/ERC20.sol\":7439:8035  {... */\n      pop\n        /* \"@openzeppelin/contracts/token/ERC20/ERC20.sol\":7322:8035  function _transfer(... */\n      pop\n      pop\n      pop\n      jump\t// out\n        /* \"contracts/YNPresalePair.sol\":1109:1325  function _transferTokenToUser(address user,uint256 money) private {... */\n    tag_155:\n        /* \"contracts/YNPresalePair.sol\":1247:1278  yerc20.balanceOf(address(this)) */\n      mload(0x40)\n      shl(0xe0, 0x70a08231)\n      dup2\n      mstore\n        /* \"contracts/YNPresalePair.sol\":1215:1219  this */\n      address\n        /* \"contracts/YNPresalePair.sol\":1247:1278  yerc20.balanceOf(address(this)) */\n      0x04\n      dup3\n      add\n        /* \"#utility.yul\":2471:2522   */\n      dup2\n      swap1\n      mstore\n        /* \"contracts/YNPresalePair.sol\":1215:1219  this */\n      swap1\n      dup2\n      swap1\n        /* \"contracts/YNPresalePair.sol\":1247:1263  yerc20.balanceOf */\n      0x70a08231\n      swap1\n        /* \"#utility.yul\":2444:2462   */\n      0x24\n      add\n        /* \"contracts/YNPresalePair.sol\":1247:1278  yerc20.balanceOf(address(this)) */\n      0x20\n      mload(0x40)\n      dup1\n      dup4\n      sub\n      dup2\n      dup7\n      gas\n      staticcall\n      iszero\n      dup1\n      iszero\n      tag_271\n      jumpi\n      returndatasize\n      0x00\n      dup1\n      returndatacopy\n      revert(0x00, returndatasize)\n    tag_271:\n      pop\n      pop\n      pop\n      pop\n      mload(0x40)\n      returndatasize\n      not(0x1f)\n      0x1f\n      dup3\n      add\n      and\n      dup3\n      add\n      dup1\n      0x40\n      mstore\n      pop\n      dup2\n      add\n      swap1\n      tag_272\n      swap2\n      swap1\n      tag_203\n      jump\t// in\n    tag_272:\n        /* \"contracts/YNPresalePair.sol\":1240:1245  money */\n      dup3\n        /* \"contracts/YNPresalePair.sol\":1240:1278  money<=yerc20.balanceOf(address(this)) */\n      gt\n      iszero\n        /* \"contracts/YNPresalePair.sol\":1232:1279  require(money<=yerc20.balanceOf(address(this))) */\n      tag_273\n      jumpi\n      0x00\n      dup1\n      revert\n    tag_273:\n        /* \"contracts/YNPresalePair.sol\":1290:1317  yerc20.transfer(user,money) */\n      mload(0x40)\n      shl(0xe0, 0xa9059cbb)\n      dup2\n      mstore\n      sub(shl(0xa0, 0x01), 0x01)\n        /* \"#utility.yul\":9802:9834   */\n      dup5\n      dup2\n      and\n        /* \"contracts/YNPresalePair.sol\":1290:1317  yerc20.transfer(user,money) */\n      0x04\n      dup4\n      add\n        /* \"#utility.yul\":9784:9835   */\n      mstore\n        /* \"#utility.yul\":9851:9869   */\n      0x24\n      dup3\n      add\n        /* \"#utility.yul\":9844:9878   */\n      dup5\n      swap1\n      mstore\n        /* \"contracts/YNPresalePair.sol\":1290:1305  yerc20.transfer */\n      dup3\n      and\n      swap1\n      0xa9059cbb\n      swap1\n        /* \"#utility.yul\":9757:9775   */\n      0x44\n      add\n        /* \"contracts/YNPresalePair.sol\":1290:1317  yerc20.transfer(user,money) */\n      0x20\n      mload(0x40)\n      dup1\n      dup4\n      sub\n      dup2\n      0x00\n      dup8\n      gas\n      call\n      iszero\n      dup1\n      iszero\n      tag_277\n      jumpi\n      returndatasize\n      0x00\n      dup1\n      returndatacopy\n      revert(0x00, returndatasize)\n    tag_277:\n      pop\n      pop\n      pop\n      pop\n      mload(0x40)\n      returndatasize\n      not(0x1f)\n      0x1f\n      dup3\n      add\n      and\n      dup3\n      add\n      dup1\n      0x40\n      mstore\n      pop\n      dup2\n      add\n      swap1\n      tag_208\n      swap2\n      swap1\n      tag_279\n      jump\t// in\n        /* \"@openzeppelin/contracts/access/Ownable.sol\":2270:2457  function _transferOwnership(address newOwner) internal virtual {... */\n    tag_164:\n        /* \"@openzeppelin/contracts/access/Ownable.sol\":2362:2368  _owner */\n      0x05\n      dup1\n      sload\n      sub(shl(0xa0, 0x01), 0x01)\n        /* \"@openzeppelin/contracts/access/Ownable.sol\":2378:2395  _owner = newOwner */\n      dup4\n      dup2\n      and\n      not(sub(shl(0xa0, 0x01), 0x01))\n      dup4\n      and\n      dup2\n      or\n      swap1\n      swap4\n      sstore\n        /* \"@openzeppelin/contracts/access/Ownable.sol\":2410:2450  OwnershipTransferred(oldOwner, newOwner) */\n      mload(0x40)\n        /* \"@openzeppelin/contracts/access/Ownable.sol\":2362:2368  _owner */\n      swap2\n      and\n      swap2\n        /* \"@openzeppelin/contracts/access/Ownable.sol\":2378:2395  _owner = newOwner */\n      swap1\n        /* \"@openzeppelin/contracts/access/Ownable.sol\":2362:2368  _owner */\n      dup3\n      swap1\n        /* \"@openzeppelin/contracts/access/Ownable.sol\":2410:2450  OwnershipTransferred(oldOwner, newOwner) */\n      0x8be0079c531659141344cd1fd0a4f28419497f9722a3daafe3b4186f6b6457e0\n      swap1\n        /* \"@openzeppelin/contracts/access/Ownable.sol\":2343:2359  address oldOwner */\n      0x00\n      swap1\n        /* \"@openzeppelin/contracts/access/Ownable.sol\":2410:2450  OwnershipTransferred(oldOwner, newOwner) */\n      log3\n        /* \"@openzeppelin/contracts/access/Ownable.sol\":2333:2457  {... */\n      pop\n        /* \"@openzeppelin/contracts/access/Ownable.sol\":2270:2457  function _transferOwnership(address newOwner) internal virtual {... */\n      pop\n      jump\t// out\n        /* \"@openzeppelin/contracts/utils/math/SafeMath.sol\":3451:3547  function mul(uint256 a, uint256 b) internal pure returns (uint256) {... */\n    tag_196:\n        /* \"@openzeppelin/contracts/utils/math/SafeMath.sol\":3509:3516  uint256 */\n      0x00\n        /* \"@openzeppelin/contracts/utils/math/SafeMath.sol\":3535:3540  a * b */\n      tag_282\n        /* \"@openzeppelin/contracts/utils/math/SafeMath.sol\":3539:3540  b */\n      dup3\n        /* \"@openzeppelin/contracts/utils/math/SafeMath.sol\":3535:3536  a */\n      dup5\n        /* \"@openzeppelin/contracts/utils/math/SafeMath.sol\":3535:3540  a * b */\n      tag_195\n      jump\t// in\n    tag_282:\n        /* \"@openzeppelin/contracts/utils/math/SafeMath.sol\":3528:3540  return a * b */\n      swap4\n        /* \"@openzeppelin/contracts/utils/math/SafeMath.sol\":3451:3547  function mul(uint256 a, uint256 b) internal pure returns (uint256) {... */\n      swap3\n      pop\n      pop\n      pop\n      jump\t// out\n        /* \"@openzeppelin/contracts/utils/math/SafeMath.sol\":3836:3932  function div(uint256 a, uint256 b) internal pure returns (uint256) {... */\n    tag_197:\n        /* \"@openzeppelin/contracts/utils/math/SafeMath.sol\":3894:3901  uint256 */\n      0x00\n        /* \"@openzeppelin/contracts/utils/math/SafeMath.sol\":3920:3925  a / b */\n      tag_282\n        /* \"@openzeppelin/contracts/utils/math/SafeMath.sol\":3924:3925  b */\n      dup3\n        /* \"@openzeppelin/contracts/utils/math/SafeMath.sol\":3920:3921  a */\n      dup5\n        /* \"@openzeppelin/contracts/utils/math/SafeMath.sol\":3920:3925  a / b */\n      tag_285\n      jump\t// in\n        /* \"@openzeppelin/contracts/token/ERC20/ERC20.sol\":3721:3893  function transfer(address recipient, uint256 amount) public virtual override returns (bool) {... */\n    tag_215:\n        /* \"@openzeppelin/contracts/token/ERC20/ERC20.sol\":3807:3811  bool */\n      0x00\n        /* \"@openzeppelin/contracts/token/ERC20/ERC20.sol\":3823:3865  _transfer(_msgSender(), recipient, amount) */\n      tag_128\n        /* \"@openzeppelin/contracts/utils/Context.sol\":719:729  msg.sender */\n      caller\n        /* \"@openzeppelin/contracts/token/ERC20/ERC20.sol\":3847:3856  recipient */\n      dup5\n        /* \"@openzeppelin/contracts/token/ERC20/ERC20.sol\":3858:3864  amount */\n      dup5\n        /* \"@openzeppelin/contracts/token/ERC20/ERC20.sol\":3823:3832  _transfer */\n      tag_134\n        /* \"@openzeppelin/contracts/token/ERC20/ERC20.sol\":3823:3865  _transfer(_msgSender(), recipient, amount) */\n      jump\t// in\n        /* \"#utility.yul\":14:187   */\n    tag_291:\n        /* \"#utility.yul\":82:102   */\n      dup1\n      calldataload\n      sub(shl(0xa0, 0x01), 0x01)\n        /* \"#utility.yul\":131:162   */\n      dup2\n      and\n        /* \"#utility.yul\":121:163   */\n      dup2\n      eq\n        /* \"#utility.yul\":111:181   */\n      tag_297\n      jumpi\n        /* \"#utility.yul\":177:178   */\n      0x00\n        /* \"#utility.yul\":174:175   */\n      dup1\n        /* \"#utility.yul\":167:179   */\n      revert\n        /* \"#utility.yul\":111:181   */\n    tag_297:\n        /* \"#utility.yul\":14:187   */\n      swap2\n      swap1\n      pop\n      jump\t// out\n        /* \"#utility.yul\":192:446   */\n    tag_26:\n        /* \"#utility.yul\":260:266   */\n      0x00\n        /* \"#utility.yul\":268:274   */\n      dup1\n        /* \"#utility.yul\":321:323   */\n      0x40\n        /* \"#utility.yul\":309:318   */\n      dup4\n        /* \"#utility.yul\":300:307   */\n      dup6\n        /* \"#utility.yul\":296:319   */\n      sub\n        /* \"#utility.yul\":292:324   */\n      slt\n        /* \"#utility.yul\":289:341   */\n      iszero\n      tag_299\n      jumpi\n        /* \"#utility.yul\":337:338   */\n      0x00\n        /* \"#utility.yul\":334:335   */\n      dup1\n        /* \"#utility.yul\":327:339   */\n      revert\n        /* \"#utility.yul\":289:341   */\n    tag_299:\n        /* \"#utility.yul\":360:389   */\n      tag_300\n        /* \"#utility.yul\":379:388   */\n      dup4\n        /* \"#utility.yul\":360:389   */\n      tag_291\n      jump\t// in\n    tag_300:\n        /* \"#utility.yul\":350:389   */\n      swap5\n        /* \"#utility.yul\":436:438   */\n      0x20\n        /* \"#utility.yul\":421:439   */\n      swap4\n      swap1\n      swap4\n      add\n        /* \"#utility.yul\":408:440   */\n      calldataload\n      swap4\n      pop\n      pop\n      pop\n        /* \"#utility.yul\":192:446   */\n      jump\t// out\n        /* \"#utility.yul\":451:1048   */\n    tag_32:\n        /* \"#utility.yul\":563:567   */\n      0x00\n        /* \"#utility.yul\":592:594   */\n      0x20\n        /* \"#utility.yul\":621:623   */\n      dup1\n        /* \"#utility.yul\":610:619   */\n      dup4\n        /* \"#utility.yul\":603:624   */\n      mstore\n        /* \"#utility.yul\":653:659   */\n      dup4\n        /* \"#utility.yul\":647:660   */\n      mload\n        /* \"#utility.yul\":696:702   */\n      dup1\n        /* \"#utility.yul\":691:693   */\n      dup3\n        /* \"#utility.yul\":680:689   */\n      dup6\n        /* \"#utility.yul\":676:694   */\n      add\n        /* \"#utility.yul\":669:703   */\n      mstore\n        /* \"#utility.yul\":721:722   */\n      0x00\n        /* \"#utility.yul\":731:871   */\n    tag_302:\n        /* \"#utility.yul\":745:751   */\n      dup2\n        /* \"#utility.yul\":742:743   */\n      dup2\n        /* \"#utility.yul\":739:752   */\n      lt\n        /* \"#utility.yul\":731:871   */\n      iszero\n      tag_304\n      jumpi\n        /* \"#utility.yul\":840:854   */\n      dup6\n      dup2\n      add\n        /* \"#utility.yul\":836:859   */\n      dup4\n      add\n        /* \"#utility.yul\":830:860   */\n      mload\n        /* \"#utility.yul\":806:823   */\n      dup6\n      dup3\n      add\n        /* \"#utility.yul\":825:827   */\n      0x40\n        /* \"#utility.yul\":802:828   */\n      add\n        /* \"#utility.yul\":795:861   */\n      mstore\n        /* \"#utility.yul\":760:770   */\n      dup3\n      add\n        /* \"#utility.yul\":731:871   */\n      jump(tag_302)\n    tag_304:\n        /* \"#utility.yul\":889:895   */\n      dup2\n        /* \"#utility.yul\":886:887   */\n      dup2\n        /* \"#utility.yul\":883:896   */\n      gt\n        /* \"#utility.yul\":880:971   */\n      iszero\n      tag_305\n      jumpi\n        /* \"#utility.yul\":959:960   */\n      0x00\n        /* \"#utility.yul\":954:956   */\n      0x40\n        /* \"#utility.yul\":945:951   */\n      dup4\n        /* \"#utility.yul\":934:943   */\n      dup8\n        /* \"#utility.yul\":930:952   */\n      add\n        /* \"#utility.yul\":926:957   */\n      add\n        /* \"#utility.yul\":919:961   */\n      mstore\n        /* \"#utility.yul\":880:971   */\n    tag_305:\n      pop\n        /* \"#utility.yul\":1032:1034   */\n      0x1f\n        /* \"#utility.yul\":1011:1026   */\n      add\n      not(0x1f)\n        /* \"#utility.yul\":1007:1036   */\n      and\n        /* \"#utility.yul\":992:1037   */\n      swap3\n      swap1\n      swap3\n      add\n        /* \"#utility.yul\":1039:1041   */\n      0x40\n        /* \"#utility.yul\":988:1042   */\n      add\n      swap4\n        /* \"#utility.yul\":451:1048   */\n      swap3\n      pop\n      pop\n      pop\n      jump\t// out\n        /* \"#utility.yul\":1427:1755   */\n    tag_47:\n        /* \"#utility.yul\":1504:1510   */\n      0x00\n        /* \"#utility.yul\":1512:1518   */\n      dup1\n        /* \"#utility.yul\":1520:1526   */\n      0x00\n        /* \"#utility.yul\":1573:1575   */\n      0x60\n        /* \"#utility.yul\":1561:1570   */\n      dup5\n        /* \"#utility.yul\":1552:1559   */\n      dup7\n        /* \"#utility.yul\":1548:1571   */\n      sub\n        /* \"#utility.yul\":1544:1576   */\n      slt\n        /* \"#utility.yul\":1541:1593   */\n      iszero\n      tag_309\n      jumpi\n        /* \"#utility.yul\":1589:1590   */\n      0x00\n        /* \"#utility.yul\":1586:1587   */\n      dup1\n        /* \"#utility.yul\":1579:1591   */\n      revert\n        /* \"#utility.yul\":1541:1593   */\n    tag_309:\n        /* \"#utility.yul\":1612:1641   */\n      tag_310\n        /* \"#utility.yul\":1631:1640   */\n      dup5\n        /* \"#utility.yul\":1612:1641   */\n      tag_291\n      jump\t// in\n    tag_310:\n        /* \"#utility.yul\":1602:1641   */\n      swap3\n      pop\n        /* \"#utility.yul\":1660:1698   */\n      tag_311\n        /* \"#utility.yul\":1694:1696   */\n      0x20\n        /* \"#utility.yul\":1683:1692   */\n      dup6\n        /* \"#utility.yul\":1679:1697   */\n      add\n        /* \"#utility.yul\":1660:1698   */\n      tag_291\n      jump\t// in\n    tag_311:\n        /* \"#utility.yul\":1650:1698   */\n      swap2\n      pop\n        /* \"#utility.yul\":1745:1747   */\n      0x40\n        /* \"#utility.yul\":1734:1743   */\n      dup5\n        /* \"#utility.yul\":1730:1748   */\n      add\n        /* \"#utility.yul\":1717:1749   */\n      calldataload\n        /* \"#utility.yul\":1707:1749   */\n      swap1\n      pop\n        /* \"#utility.yul\":1427:1755   */\n      swap3\n      pop\n      swap3\n      pop\n      swap3\n      jump\t// out\n        /* \"#utility.yul\":1949:2135   */\n    tag_67:\n        /* \"#utility.yul\":2008:2014   */\n      0x00\n        /* \"#utility.yul\":2061:2063   */\n      0x20\n        /* \"#utility.yul\":2049:2058   */\n      dup3\n        /* \"#utility.yul\":2040:2047   */\n      dup5\n        /* \"#utility.yul\":2036:2059   */\n      sub\n        /* \"#utility.yul\":2032:2064   */\n      slt\n        /* \"#utility.yul\":2029:2081   */\n      iszero\n      tag_314\n      jumpi\n        /* \"#utility.yul\":2077:2078   */\n      0x00\n        /* \"#utility.yul\":2074:2075   */\n      dup1\n        /* \"#utility.yul\":2067:2079   */\n      revert\n        /* \"#utility.yul\":2029:2081   */\n    tag_314:\n        /* \"#utility.yul\":2100:2129   */\n      tag_282\n        /* \"#utility.yul\":2119:2128   */\n      dup3\n        /* \"#utility.yul\":2100:2129   */\n      tag_291\n      jump\t// in\n        /* \"#utility.yul\":2140:2320   */\n    tag_76:\n        /* \"#utility.yul\":2199:2205   */\n      0x00\n        /* \"#utility.yul\":2252:2254   */\n      0x20\n        /* \"#utility.yul\":2240:2249   */\n      dup3\n        /* \"#utility.yul\":2231:2238   */\n      dup5\n        /* \"#utility.yul\":2227:2250   */\n      sub\n        /* \"#utility.yul\":2223:2255   */\n      slt\n        /* \"#utility.yul\":2220:2272   */\n      iszero\n      tag_317\n      jumpi\n        /* \"#utility.yul\":2268:2269   */\n      0x00\n        /* \"#utility.yul\":2265:2266   */\n      dup1\n        /* \"#utility.yul\":2258:2270   */\n      revert\n        /* \"#utility.yul\":2220:2272   */\n    tag_317:\n      pop\n        /* \"#utility.yul\":2291:2314   */\n      calldataload\n      swap2\n        /* \"#utility.yul\":2140:2320   */\n      swap1\n      pop\n      jump\t// out\n        /* \"#utility.yul\":2533:2793   */\n    tag_102:\n        /* \"#utility.yul\":2601:2607   */\n      0x00\n        /* \"#utility.yul\":2609:2615   */\n      dup1\n        /* \"#utility.yul\":2662:2664   */\n      0x40\n        /* \"#utility.yul\":2650:2659   */\n      dup4\n        /* \"#utility.yul\":2641:2648   */\n      dup6\n        /* \"#utility.yul\":2637:2660   */\n      sub\n        /* \"#utility.yul\":2633:2665   */\n      slt\n        /* \"#utility.yul\":2630:2682   */\n      iszero\n      tag_320\n      jumpi\n        /* \"#utility.yul\":2678:2679   */\n      0x00\n        /* \"#utility.yul\":2675:2676   */\n      dup1\n        /* \"#utility.yul\":2668:2680   */\n      revert\n        /* \"#utility.yul\":2630:2682   */\n    tag_320:\n        /* \"#utility.yul\":2701:2730   */\n      tag_321\n        /* \"#utility.yul\":2720:2729   */\n      dup4\n        /* \"#utility.yul\":2701:2730   */\n      tag_291\n      jump\t// in\n    tag_321:\n        /* \"#utility.yul\":2691:2730   */\n      swap2\n      pop\n        /* \"#utility.yul\":2749:2787   */\n      tag_322\n        /* \"#utility.yul\":2783:2785   */\n      0x20\n        /* \"#utility.yul\":2772:2781   */\n      dup5\n        /* \"#utility.yul\":2768:2786   */\n      add\n        /* \"#utility.yul\":2749:2787   */\n      tag_291\n      jump\t// in\n    tag_322:\n        /* \"#utility.yul\":2739:2787   */\n      swap1\n      pop\n        /* \"#utility.yul\":2533:2793   */\n      swap3\n      pop\n      swap3\n      swap1\n      pop\n      jump\t// out\n        /* \"#utility.yul\":2798:3154   */\n    tag_115:\n        /* \"#utility.yul\":3000:3002   */\n      0x20\n        /* \"#utility.yul\":2982:3003   */\n      dup1\n      dup3\n      mstore\n        /* \"#utility.yul\":3019:3037   */\n      dup2\n      dup2\n      add\n        /* \"#utility.yul\":3012:3042   */\n      mstore\n        /* \"#utility.yul\":3078:3112   */\n      0x4f776e61626c653a2063616c6c6572206973206e6f7420746865206f776e6572\n        /* \"#utility.yul\":3073:3075   */\n      0x40\n        /* \"#utility.yul\":3058:3076   */\n      dup3\n      add\n        /* \"#utility.yul\":3051:3113   */\n      mstore\n        /* \"#utility.yul\":3145:3147   */\n      0x60\n        /* \"#utility.yul\":3130:3148   */\n      add\n      swap1\n        /* \"#utility.yul\":2798:3154   */\n      jump\t// out\n        /* \"#utility.yul\":3159:3539   */\n    tag_122:\n        /* \"#utility.yul\":3238:3239   */\n      0x01\n        /* \"#utility.yul\":3234:3246   */\n      dup2\n      dup2\n      shr\n      swap1\n        /* \"#utility.yul\":3281:3293   */\n      dup3\n      and\n      dup1\n        /* \"#utility.yul\":3302:3363   */\n      tag_325\n      jumpi\n        /* \"#utility.yul\":3356:3360   */\n      0x7f\n        /* \"#utility.yul\":3348:3354   */\n      dup3\n        /* \"#utility.yul\":3344:3361   */\n      and\n        /* \"#utility.yul\":3334:3361   */\n      swap2\n      pop\n        /* \"#utility.yul\":3302:3363   */\n    tag_325:\n        /* \"#utility.yul\":3409:3411   */\n      0x20\n        /* \"#utility.yul\":3401:3407   */\n      dup3\n        /* \"#utility.yul\":3398:3412   */\n      lt\n        /* \"#utility.yul\":3378:3396   */\n      dup2\n        /* \"#utility.yul\":3375:3413   */\n      sub\n        /* \"#utility.yul\":3372:3533   */\n      tag_326\n      jumpi\n        /* \"#utility.yul\":3455:3465   */\n      0x4e487b71\n        /* \"#utility.yul\":3450:3453   */\n      0xe0\n        /* \"#utility.yul\":3446:3466   */\n      shl\n        /* \"#utility.yul\":3443:3444   */\n      0x00\n        /* \"#utility.yul\":3436:3467   */\n      mstore\n        /* \"#utility.yul\":3490:3494   */\n      0x22\n        /* \"#utility.yul\":3487:3488   */\n      0x04\n        /* \"#utility.yul\":3480:3495   */\n      mstore\n        /* \"#utility.yul\":3518:3522   */\n      0x24\n        /* \"#utility.yul\":3515:3516   */\n      0x00\n        /* \"#utility.yul\":3508:3523   */\n      revert\n        /* \"#utility.yul\":3372:3533   */\n    tag_326:\n      pop\n        /* \"#utility.yul\":3159:3539   */\n      swap2\n      swap1\n      pop\n      jump\t// out\n        /* \"#utility.yul\":3953:4080   */\n    tag_292:\n        /* \"#utility.yul\":4014:4024   */\n      0x4e487b71\n        /* \"#utility.yul\":4009:4012   */\n      0xe0\n        /* \"#utility.yul\":4005:4025   */\n      shl\n        /* \"#utility.yul\":4002:4003   */\n      0x00\n        /* \"#utility.yul\":3995:4026   */\n      mstore\n        /* \"#utility.yul\":4045:4049   */\n      0x11\n        /* \"#utility.yul\":4042:4043   */\n      0x04\n        /* \"#utility.yul\":4035:4050   */\n      mstore\n        /* \"#utility.yul\":4069:4073   */\n      0x24\n        /* \"#utility.yul\":4066:4067   */\n      0x00\n        /* \"#utility.yul\":4059:4074   */\n      revert\n        /* \"#utility.yul\":4085:4213   */\n    tag_147:\n        /* \"#utility.yul\":4125:4128   */\n      0x00\n        /* \"#utility.yul\":4156:4157   */\n      dup3\n        /* \"#utility.yul\":4152:4158   */\n      not\n        /* \"#utility.yul\":4149:4150   */\n      dup3\n        /* \"#utility.yul\":4146:4159   */\n      gt\n        /* \"#utility.yul\":4143:4182   */\n      iszero\n      tag_331\n      jumpi\n        /* \"#utility.yul\":4162:4180   */\n      tag_331\n      tag_292\n      jump\t// in\n    tag_331:\n      pop\n        /* \"#utility.yul\":4198:4207   */\n      add\n      swap1\n        /* \"#utility.yul\":4085:4213   */\n      jump\t// out\n        /* \"#utility.yul\":4624:5046   */\n    tag_293:\n        /* \"#utility.yul\":4713:4714   */\n      0x01\n        /* \"#utility.yul\":4756:4761   */\n      dup2\n        /* \"#utility.yul\":4713:4714   */\n      dup2\n        /* \"#utility.yul\":4770:5040   */\n    tag_334:\n        /* \"#utility.yul\":4791:4798   */\n      dup1\n        /* \"#utility.yul\":4781:4789   */\n      dup6\n        /* \"#utility.yul\":4778:4799   */\n      gt\n        /* \"#utility.yul\":4770:5040   */\n      iszero\n      tag_336\n      jumpi\n        /* \"#utility.yul\":4850:4854   */\n      dup2\n        /* \"#utility.yul\":4846:4847   */\n      0x00\n        /* \"#utility.yul\":4842:4848   */\n      not\n        /* \"#utility.yul\":4838:4855   */\n      div\n        /* \"#utility.yul\":4832:4836   */\n      dup3\n        /* \"#utility.yul\":4829:4856   */\n      gt\n        /* \"#utility.yul\":4826:4879   */\n      iszero\n      tag_338\n      jumpi\n        /* \"#utility.yul\":4859:4877   */\n      tag_338\n      tag_292\n      jump\t// in\n    tag_338:\n        /* \"#utility.yul\":4909:4916   */\n      dup1\n        /* \"#utility.yul\":4899:4907   */\n      dup6\n        /* \"#utility.yul\":4895:4917   */\n      and\n        /* \"#utility.yul\":4892:4947   */\n      iszero\n      tag_339\n      jumpi\n        /* \"#utility.yul\":4929:4945   */\n      swap2\n      dup2\n      mul\n      swap2\n        /* \"#utility.yul\":4892:4947   */\n    tag_339:\n        /* \"#utility.yul\":5008:5030   */\n      swap4\n      dup5\n      shr\n      swap4\n        /* \"#utility.yul\":4968:4983   */\n      swap1\n      dup1\n      mul\n      swap1\n        /* \"#utility.yul\":4770:5040   */\n      jump(tag_334)\n    tag_336:\n        /* \"#utility.yul\":4774:4777   */\n      pop\n        /* \"#utility.yul\":4624:5046   */\n      swap3\n      pop\n      swap3\n      swap1\n      pop\n      jump\t// out\n        /* \"#utility.yul\":5051:5857   */\n    tag_294:\n        /* \"#utility.yul\":5100:5105   */\n      0x00\n        /* \"#utility.yul\":5130:5138   */\n      dup3\n        /* \"#utility.yul\":5120:5200   */\n      tag_341\n      jumpi\n      pop\n        /* \"#utility.yul\":5171:5172   */\n      0x01\n        /* \"#utility.yul\":5185:5190   */\n      jump(tag_127)\n        /* \"#utility.yul\":5120:5200   */\n    tag_341:\n        /* \"#utility.yul\":5219:5223   */\n      dup2\n        /* \"#utility.yul\":5209:5285   */\n      tag_342\n      jumpi\n      pop\n        /* \"#utility.yul\":5256:5257   */\n      0x00\n        /* \"#utility.yul\":5270:5275   */\n      jump(tag_127)\n        /* \"#utility.yul\":5209:5285   */\n    tag_342:\n        /* \"#utility.yul\":5301:5305   */\n      dup2\n        /* \"#utility.yul\":5319:5320   */\n      0x01\n        /* \"#utility.yul\":5314:5373   */\n      dup2\n      eq\n      tag_344\n      jumpi\n        /* \"#utility.yul\":5387:5388   */\n      0x02\n        /* \"#utility.yul\":5382:5512   */\n      dup2\n      eq\n      tag_345\n      jumpi\n        /* \"#utility.yul\":5294:5512   */\n      jump(tag_343)\n        /* \"#utility.yul\":5314:5373   */\n    tag_344:\n        /* \"#utility.yul\":5344:5345   */\n      0x01\n        /* \"#utility.yul\":5335:5345   */\n      swap2\n      pop\n        /* \"#utility.yul\":5358:5363   */\n      pop\n      jump(tag_127)\n        /* \"#utility.yul\":5382:5512   */\n    tag_345:\n        /* \"#utility.yul\":5419:5422   */\n      0xff\n        /* \"#utility.yul\":5409:5417   */\n      dup5\n        /* \"#utility.yul\":5406:5423   */\n      gt\n        /* \"#utility.yul\":5403:5446   */\n      iszero\n      tag_347\n      jumpi\n        /* \"#utility.yul\":5426:5444   */\n      tag_347\n      tag_292\n      jump\t// in\n    tag_347:\n      pop\n      pop\n        /* \"#utility.yul\":5482:5483   */\n      0x01\n        /* \"#utility.yul\":5468:5484   */\n      dup3\n      shl\n        /* \"#utility.yul\":5497:5502   */\n      jump(tag_127)\n        /* \"#utility.yul\":5294:5512   */\n    tag_343:\n      pop\n        /* \"#utility.yul\":5596:5598   */\n      0x20\n        /* \"#utility.yul\":5586:5594   */\n      dup4\n        /* \"#utility.yul\":5583:5599   */\n      lt\n        /* \"#utility.yul\":5577:5580   */\n      0x0133\n        /* \"#utility.yul\":5571:5575   */\n      dup4\n        /* \"#utility.yul\":5568:5581   */\n      lt\n        /* \"#utility.yul\":5564:5600   */\n      and\n        /* \"#utility.yul\":5558:5560   */\n      0x4e\n        /* \"#utility.yul\":5548:5556   */\n      dup5\n        /* \"#utility.yul\":5545:5561   */\n      lt\n        /* \"#utility.yul\":5540:5542   */\n      0x0b\n        /* \"#utility.yul\":5534:5538   */\n      dup5\n        /* \"#utility.yul\":5531:5543   */\n      lt\n        /* \"#utility.yul\":5527:5562   */\n      and\n        /* \"#utility.yul\":5524:5601   */\n      or\n        /* \"#utility.yul\":5521:5680   */\n      iszero\n      tag_348\n      jumpi\n      pop\n        /* \"#utility.yul\":5633:5652   */\n      dup2\n      dup2\n      exp\n        /* \"#utility.yul\":5665:5670   */\n      jump(tag_127)\n        /* \"#utility.yul\":5521:5680   */\n    tag_348:\n        /* \"#utility.yul\":5712:5746   */\n      tag_349\n        /* \"#utility.yul\":5737:5745   */\n      dup4\n        /* \"#utility.yul\":5731:5735   */\n      dup4\n        /* \"#utility.yul\":5712:5746   */\n      tag_293\n      jump\t// in\n    tag_349:\n        /* \"#utility.yul\":5782:5788   */\n      dup1\n        /* \"#utility.yul\":5778:5779   */\n      0x00\n        /* \"#utility.yul\":5774:5780   */\n      not\n        /* \"#utility.yul\":5770:5789   */\n      div\n        /* \"#utility.yul\":5761:5768   */\n      dup3\n        /* \"#utility.yul\":5758:5790   */\n      gt\n        /* \"#utility.yul\":5755:5813   */\n      iszero\n      tag_351\n      jumpi\n        /* \"#utility.yul\":5793:5811   */\n      tag_351\n      tag_292\n      jump\t// in\n    tag_351:\n        /* \"#utility.yul\":5831:5851   */\n      mul\n      swap4\n        /* \"#utility.yul\":5051:5857   */\n      swap3\n      pop\n      pop\n      pop\n      jump\t// out\n        /* \"#utility.yul\":5862:6002   */\n    tag_193:\n        /* \"#utility.yul\":5920:5925   */\n      0x00\n        /* \"#utility.yul\":5949:5996   */\n      tag_282\n        /* \"#utility.yul\":5990:5994   */\n      0xff\n        /* \"#utility.yul\":5980:5988   */\n      dup5\n        /* \"#utility.yul\":5976:5995   */\n      and\n        /* \"#utility.yul\":5970:5974   */\n      dup4\n        /* \"#utility.yul\":5949:5996   */\n      tag_294\n      jump\t// in\n        /* \"#utility.yul\":6007:6175   */\n    tag_195:\n        /* \"#utility.yul\":6047:6054   */\n      0x00\n        /* \"#utility.yul\":6113:6114   */\n      dup2\n        /* \"#utility.yul\":6109:6110   */\n      0x00\n        /* \"#utility.yul\":6105:6111   */\n      not\n        /* \"#utility.yul\":6101:6115   */\n      div\n        /* \"#utility.yul\":6098:6099   */\n      dup4\n        /* \"#utility.yul\":6095:6116   */\n      gt\n        /* \"#utility.yul\":6090:6091   */\n      dup3\n        /* \"#utility.yul\":6083:6092   */\n      iszero\n        /* \"#utility.yul\":6076:6093   */\n      iszero\n        /* \"#utility.yul\":6072:6117   */\n      and\n        /* \"#utility.yul\":6069:6140   */\n      iszero\n      tag_356\n      jumpi\n        /* \"#utility.yul\":6120:6138   */\n      tag_356\n      tag_292\n      jump\t// in\n    tag_356:\n      pop\n        /* \"#utility.yul\":6160:6169   */\n      mul\n      swap1\n        /* \"#utility.yul\":6007:6175   */\n      jump\t// out\n        /* \"#utility.yul\":6180:6364   */\n    tag_203:\n        /* \"#utility.yul\":6250:6256   */\n      0x00\n        /* \"#utility.yul\":6303:6305   */\n      0x20\n        /* \"#utility.yul\":6291:6300   */\n      dup3\n        /* \"#utility.yul\":6282:6289   */\n      dup5\n        /* \"#utility.yul\":6278:6301   */\n      sub\n        /* \"#utility.yul\":6274:6306   */\n      slt\n        /* \"#utility.yul\":6271:6323   */\n      iszero\n      tag_358\n      jumpi\n        /* \"#utility.yul\":6319:6320   */\n      0x00\n        /* \"#utility.yul\":6316:6317   */\n      dup1\n        /* \"#utility.yul\":6309:6321   */\n      revert\n        /* \"#utility.yul\":6271:6323   */\n    tag_358:\n      pop\n        /* \"#utility.yul\":6342:6358   */\n      mload\n      swap2\n        /* \"#utility.yul\":6180:6364   */\n      swap1\n      pop\n      jump\t// out\n        /* \"#utility.yul\":9889:10166   */\n    tag_279:\n        /* \"#utility.yul\":9956:9962   */\n      0x00\n        /* \"#utility.yul\":10009:10011   */\n      0x20\n        /* \"#utility.yul\":9997:10006   */\n      dup3\n        /* \"#utility.yul\":9988:9995   */\n      dup5\n        /* \"#utility.yul\":9984:10007   */\n      sub\n        /* \"#utility.yul\":9980:10012   */\n      slt\n        /* \"#utility.yul\":9977:10029   */\n      iszero\n      tag_369\n      jumpi\n        /* \"#utility.yul\":10025:10026   */\n      0x00\n        /* \"#utility.yul\":10022:10023   */\n      dup1\n        /* \"#utility.yul\":10015:10027   */\n      revert\n        /* \"#utility.yul\":9977:10029   */\n    tag_369:\n        /* \"#utility.yul\":10057:10066   */\n      dup2\n        /* \"#utility.yul\":10051:10067   */\n      mload\n        /* \"#utility.yul\":10110:10115   */\n      dup1\n        /* \"#utility.yul\":10103:10116   */\n      iszero\n        /* \"#utility.yul\":10096:10117   */\n      iszero\n        /* \"#utility.yul\":10089:10094   */\n      dup2\n        /* \"#utility.yul\":10086:10118   */\n      eq\n        /* \"#utility.yul\":10076:10136   */\n      tag_282\n      jumpi\n        /* \"#utility.yul\":10132:10133   */\n      0x00\n        /* \"#utility.yul\":10129:10130   */\n      dup1\n        /* \"#utility.yul\":10122:10134   */\n      revert\n        /* \"#utility.yul\":10171:10388   */\n    tag_285:\n        /* \"#utility.yul\":10211:10212   */\n      0x00\n        /* \"#utility.yul\":10237:10238   */\n      dup3\n        /* \"#utility.yul\":10227:10359   */\n      tag_372\n      jumpi\n        /* \"#utility.yul\":10281:10291   */\n      0x4e487b71\n        /* \"#utility.yul\":10276:10279   */\n      0xe0\n        /* \"#utility.yul\":10272:10292   */\n      shl\n        /* \"#utility.yul\":10269:10270   */\n      0x00\n        /* \"#utility.yul\":10262:10293   */\n      mstore\n        /* \"#utility.yul\":10316:10320   */\n      0x12\n        /* \"#utility.yul\":10313:10314   */\n      0x04\n        /* \"#utility.yul\":10306:10321   */\n      mstore\n        /* \"#utility.yul\":10344:10348   */\n      0x24\n        /* \"#utility.yul\":10341:10342   */\n      0x00\n        /* \"#utility.yul\":10334:10349   */\n      revert\n        /* \"#utility.yul\":10227:10359   */\n    tag_372:\n      pop\n        /* \"#utility.yul\":10373:10382   */\n      div\n      swap1\n        /* \"#utility.yul\":10171:10388   */\n      jump\t// out\n\n    auxdata: 0xa2646970667358221220d6dc4075610ac417feab9892b7ce92037624a6a06a49936c28cd0dcba0d6706e64736f6c634300080d0033\n}\n",
				"bytecode": {
					"linkReferences": {},
					"object": "6080604052600060068190556007819055670de0b6b3a76400006008556009819055600a55600b805460ff191660121790553480156200003e57600080fd5b50604051620017f6380380620017f68339810160408190526200006191620003a6565b60408051808201825260118152702cbab5b490283932b9b0b632902830b4b960791b602080830191825283518085019094526006845265594e2d50507360d01b908401528151919291620000b89160039162000300565b508051620000ce90600490602084019062000300565b505050620000eb620000e5620001c260201b60201c565b620001c6565b846001600160a01b031663313ce5676040518163ffffffff1660e01b8152600401602060405180830381865afa1580156200012a573d6000803e3d6000fd5b505050506040513d601f19601f82011682018060405250810190620001509190620003fd565b600b805460ff191660ff929092169182179055620001899033906200017790600a6200053e565b6200018390876200054f565b62000218565b8260085462000199919062000571565b600655600854620001ac90849062000571565b600755600991909155600a5550620005eb915050565b3390565b600580546001600160a01b038381166001600160a01b0319831681179093556040519116919082907f8be0079c531659141344cd1fd0a4f28419497f9722a3daafe3b4186f6b6457e090600090a35050565b6001600160a01b038216620002735760405162461bcd60e51b815260206004820152601f60248201527f45524332303a206d696e7420746f20746865207a65726f206164647265737300604482015260640160405180910390fd5b806002600082825462000287919062000594565b90915550506001600160a01b03821660009081526020819052604081208054839290620002b690849062000594565b90915550506040518181526001600160a01b038316906000907fddf252ad1be2c89b69c2b068fc378daa952ba7f163c4a11628f55a4df523b3ef9060200160405180910390a35050565b8280546200030e90620005af565b90600052602060002090601f0160209004810192826200033257600085556200037d565b82601f106200034d57805160ff19168380011785556200037d565b828001600101855582156200037d579182015b828111156200037d57825182559160200191906001019062000360565b506200038b9291506200038f565b5090565b5b808211156200038b576000815560010162000390565b600080600080600060a08688031215620003bf57600080fd5b85516001600160a01b0381168114620003d757600080fd5b602087015160408801516060890151608090990151929a91995097965090945092505050565b6000602082840312156200041057600080fd5b815160ff811681146200042257600080fd5b9392505050565b634e487b7160e01b600052601160045260246000fd5b600181815b808511156200048057816000190482111562000464576200046462000429565b808516156200047257918102915b93841c939080029062000444565b509250929050565b600082620004995750600162000538565b81620004a85750600062000538565b8160018114620004c15760028114620004cc57620004ec565b600191505062000538565b60ff841115620004e057620004e062000429565b50506001821b62000538565b5060208310610133831016604e8410600b841016171562000511575081810a62000538565b6200051d83836200043f565b806000190482111562000534576200053462000429565b0290505b92915050565b60006200042260ff84168362000488565b60008160001904831182151516156200056c576200056c62000429565b500290565b6000826200058f57634e487b7160e01b600052601260045260246000fd5b500490565b60008219821115620005aa57620005aa62000429565b500190565b600181811c90821680620005c457607f821691505b602082108103620005e557634e487b7160e01b600052602260045260246000fd5b50919050565b6111fb80620005fb6000396000f3fe6080604052600436106101095760003560e01c8063715018a611610095578063a457c2d711610064578063a457c2d7146102d4578063a6f2ae3a146102f4578063a9059cbb146102fc578063dd62ed3e1461031c578063f2fde38b1461036257600080fd5b8063715018a614610262578063715994e3146102775780638da5cb5b1461029757806395d89b41146102bf57600080fd5b806323b872dd116100dc57806323b872dd146101aa578063313ce567146101ca57806339509351146101ec5780634664ffea1461020c57806370a082311461022c57600080fd5b80630510a5b31461010e57806306fdde0314610130578063095ea7b31461015b57806318160ddd1461018b575b600080fd5b34801561011a57600080fd5b5061012e610129366004610e97565b610382565b005b34801561013c57600080fd5b506101456103fd565b6040516101529190610ec1565b60405180910390f35b34801561016757600080fd5b5061017b610176366004610e97565b61048f565b6040519015158152602001610152565b34801561019757600080fd5b506002545b604051908152602001610152565b3480156101b657600080fd5b5061017b6101c5366004610f16565b6104a6565b3480156101d657600080fd5b50600b5460405160ff9091168152602001610152565b3480156101f857600080fd5b5061017b610207366004610e97565b610550565b34801561021857600080fd5b5061012e610227366004610e97565b61058c565b34801561023857600080fd5b5061019c610247366004610f52565b6001600160a01b031660009081526020819052604090205490565b34801561026e57600080fd5b5061012e6105c4565b34801561028357600080fd5b5061012e610292366004610f6d565b6105fa565b3480156102a357600080fd5b506005546040516001600160a01b039091168152602001610152565b3480156102cb57600080fd5b5061014561066b565b3480156102e057600080fd5b5061017b6102ef366004610e97565b61067a565b61012e610713565b34801561030857600080fd5b5061017b610317366004610e97565b610864565b34801561032857600080fd5b5061019c610337366004610f86565b6001600160a01b03918216600090815260016020908152604080832093909416825291909152205490565b34801561036e57600080fd5b5061012e61037d366004610f52565b61098e565b6005546001600160a01b031633146103b55760405162461bcd60e51b81526004016103ac90610fb9565b60405180910390fd5b478111156103c257600080fd5b6040516001600160a01b0383169082156108fc029083906000818181858888f193505050501580156103f8573d6000803e3d6000fd5b505050565b60606003805461040c90610fee565b80601f016020809104026020016040519081016040528092919081815260200182805461043890610fee565b80156104855780601f1061045a57610100808354040283529160200191610485565b820191906000526020600020905b81548152906001019060200180831161046857829003601f168201915b5050505050905090565b600061049c338484610a29565b5060015b92915050565b60006104b3848484610b4d565b6001600160a01b0384166000908152600160209081526040808320338452909152902054828110156105385760405162461bcd60e51b815260206004820152602860248201527f45524332303a207472616e7366657220616d6f756e74206578636565647320616044820152676c6c6f77616e636560c01b60648201526084016103ac565b6105458533858403610a29565b506001949350505050565b3360008181526001602090815260408083206001600160a01b0387168452909152812054909161049c91859061058790869061103e565b610a29565b6005546001600160a01b031633146105b65760405162461bcd60e51b81526004016103ac90610fb9565b6105c08282610d1c565b5050565b6005546001600160a01b031633146105ee5760405162461bcd60e51b81526004016103ac90610fb9565b6105f86000610dfd565b565b6005546001600160a01b031633146106245760405162461bcd60e51b81526004016103ac90610fb9565b4781111561063157600080fd5b6005546040516001600160a01b039091169082156108fc029083906000818181858888f193505050501580156105c0573d6000803e3d6000fd5b60606004805461040c90610fee565b3360009081526001602090815260408083206001600160a01b0386168452909152812054828110156106fc5760405162461bcd60e51b815260206004820152602560248201527f45524332303a2064656372656173656420616c6c6f77616e63652062656c6f77604482015264207a65726f60d81b60648201526084016103ac565b6107093385858403610a29565b5060019392505050565b600654600b543091349160009161074e91610748906107369060ff16600a61113a565b610741906001611149565b8590610e4f565b90610e62565b90506009548111610804576040516370a0823160e01b81523060048201526001600160a01b038416906370a0823190602401602060405180830381865afa15801561079d573d6000803e3d6000fd5b505050506040513d601f19601f820116820180604052508101906107c19190611168565b81116107d1576103f83382610d1c565b604051339083156108fc029084906000818181858888f193505050501580156107fe573d6000803e3d6000fd5b50505050565b6009548211156103f85760405162461bcd60e51b815260206004820152602560248201527f594e50726573616c653a20414d4f554e542053414c4520414d4f554e5420455860448201526421a2a2a21760d91b60648201526084016103ac565b6000806108718484610e6e565b905082306001600160a01b0386160361098657600b546000906108b59061089c9060ff16600a61113a565b6108a7906001611149565b600754610748908590610e4f565b9050600a548211610927574781116108fa57604051339082156108fc029083906000818181858888f193505050501580156108f4573d6000803e3d6000fd5b50610984565b604051339083156108fc029084906000818181858888f193505050501580156108f4573d6000803e3d6000fd5b600a548211156109845760405162461bcd60e51b815260206004820152602260248201527f594e50726573616c653a204d41582053414c4520414d4f554e54204558434545604482015261221760f11b60648201526084016103ac565b505b509392505050565b6005546001600160a01b031633146109b85760405162461bcd60e51b81526004016103ac90610fb9565b6001600160a01b038116610a1d5760405162461bcd60e51b815260206004820152602660248201527f4f776e61626c653a206e6577206f776e657220697320746865207a65726f206160448201526564647265737360d01b60648201526084016103ac565b610a2681610dfd565b50565b6001600160a01b038316610a8b5760405162461bcd60e51b8152602060048201526024808201527f45524332303a20617070726f76652066726f6d20746865207a65726f206164646044820152637265737360e01b60648201526084016103ac565b6001600160a01b038216610aec5760405162461bcd60e51b815260206004820152602260248201527f45524332303a20617070726f766520746f20746865207a65726f206164647265604482015261737360f01b60648201526084016103ac565b6001600160a01b0383811660008181526001602090815260408083209487168084529482529182902085905590518481527f8c5be1e5ebec7d5bd14f71427d1e84f3dd0314c0f7b2291e5b200ac8c7c3b925910160405180910390a3505050565b6001600160a01b038316610bb15760405162461bcd60e51b815260206004820152602560248201527f45524332303a207472616e736665722066726f6d20746865207a65726f206164604482015264647265737360d81b60648201526084016103ac565b6001600160a01b038216610c135760405162461bcd60e51b815260206004820152602360248201527f45524332303a207472616e7366657220746f20746865207a65726f206164647260448201526265737360e81b60648201526084016103ac565b6001600160a01b03831660009081526020819052604090205481811015610c8b5760405162461bcd60e51b815260206004820152602660248201527f45524332303a207472616e7366657220616d6f756e7420657863656564732062604482015265616c616e636560d01b60648201526084016103ac565b6001600160a01b03808516600090815260208190526040808220858503905591851681529081208054849290610cc290849061103e565b92505081905550826001600160a01b0316846001600160a01b03167fddf252ad1be2c89b69c2b068fc378daa952ba7f163c4a11628f55a4df523b3ef84604051610d0e91815260200190565b60405180910390a350505050565b6040516370a0823160e01b815230600482018190529081906370a0823190602401602060405180830381865afa158015610d5a573d6000803e3d6000fd5b505050506040513d601f19601f82011682018060405250810190610d7e9190611168565b821115610d8a57600080fd5b60405163a9059cbb60e01b81526001600160a01b0384811660048301526024820184905282169063a9059cbb906044016020604051808303816000875af1158015610dd9573d6000803e3d6000fd5b505050506040513d601f19601f820116820180604052508101906107fe9190611181565b600580546001600160a01b038381166001600160a01b0319831681179093556040519116919082907f8be0079c531659141344cd1fd0a4f28419497f9722a3daafe3b4186f6b6457e090600090a35050565b6000610e5b8284611149565b9392505050565b6000610e5b82846111a3565b600061049c338484610b4d565b80356001600160a01b0381168114610e9257600080fd5b919050565b60008060408385031215610eaa57600080fd5b610eb383610e7b565b946020939093013593505050565b600060208083528351808285015260005b81811015610eee57858101830151858201604001528201610ed2565b81811115610f00576000604083870101525b50601f01601f1916929092016040019392505050565b600080600060608486031215610f2b57600080fd5b610f3484610e7b565b9250610f4260208501610e7b565b9150604084013590509250925092565b600060208284031215610f6457600080fd5b610e5b82610e7b565b600060208284031215610f7f57600080fd5b5035919050565b60008060408385031215610f9957600080fd5b610fa283610e7b565b9150610fb060208401610e7b565b90509250929050565b6020808252818101527f4f776e61626c653a2063616c6c6572206973206e6f7420746865206f776e6572604082015260600190565b600181811c9082168061100257607f821691505b60208210810361102257634e487b7160e01b600052602260045260246000fd5b50919050565b634e487b7160e01b600052601160045260246000fd5b6000821982111561105157611051611028565b500190565b600181815b8085111561109157816000190482111561107757611077611028565b8085161561108457918102915b93841c939080029061105b565b509250929050565b6000826110a8575060016104a0565b816110b5575060006104a0565b81600181146110cb57600281146110d5576110f1565b60019150506104a0565b60ff8411156110e6576110e6611028565b50506001821b6104a0565b5060208310610133831016604e8410600b8410161715611114575081810a6104a0565b61111e8383611056565b806000190482111561113257611132611028565b029392505050565b6000610e5b60ff841683611099565b600081600019048311821515161561116357611163611028565b500290565b60006020828403121561117a57600080fd5b5051919050565b60006020828403121561119357600080fd5b81518015158114610e5b57600080fd5b6000826111c057634e487b7160e01b600052601260045260246000fd5b50049056fea2646970667358221220d6dc4075610ac417feab9892b7ce92037624a6a06a49936c28cd0dcba0d6706e64736f6c634300080d0033",
					"opcodes": "PUSH1 0x80 PUSH1 0x40 MSTORE PUSH1 0x0 PUSH1 0x6 DUP2 SWAP1 SSTORE PUSH1 0x7 DUP2 SWAP1 SSTORE PUSH8 0xDE0B6B3A7640000 PUSH1 0x8 SSTORE PUSH1 0x9 DUP2 SWAP1 SSTORE PUSH1 0xA SSTORE PUSH1 0xB DUP1 SLOAD PUSH1 0xFF NOT AND PUSH1 0x12 OR SWAP1 SSTORE CALLVALUE DUP1 ISZERO PUSH3 0x3E JUMPI PUSH1 0x0 DUP1 REVERT JUMPDEST POP PUSH1 0x40 MLOAD PUSH3 0x17F6 CODESIZE SUB DUP1 PUSH3 0x17F6 DUP4 CODECOPY DUP2 ADD PUSH1 0x40 DUP2 SWAP1 MSTORE PUSH3 0x61 SWAP2 PUSH3 0x3A6 JUMP JUMPDEST PUSH1 0x40 DUP1 MLOAD DUP1 DUP3 ADD DUP3 MSTORE PUSH1 0x11 DUP2 MSTORE PUSH17 0x2CBAB5B490283932B9B0B632902830B4B9 PUSH1 0x79 SHL PUSH1 0x20 DUP1 DUP4 ADD SWAP2 DUP3 MSTORE DUP4 MLOAD DUP1 DUP6 ADD SWAP1 SWAP5 MSTORE PUSH1 0x6 DUP5 MSTORE PUSH6 0x594E2D505073 PUSH1 0xD0 SHL SWAP1 DUP5 ADD MSTORE DUP2 MLOAD SWAP2 SWAP3 SWAP2 PUSH3 0xB8 SWAP2 PUSH1 0x3 SWAP2 PUSH3 0x300 JUMP JUMPDEST POP DUP1 MLOAD PUSH3 0xCE SWAP1 PUSH1 0x4 SWAP1 PUSH1 0x20 DUP5 ADD SWAP1 PUSH3 0x300 JUMP JUMPDEST POP POP POP PUSH3 0xEB PUSH3 0xE5 PUSH3 0x1C2 PUSH1 0x20 SHL PUSH1 0x20 SHR JUMP JUMPDEST PUSH3 0x1C6 JUMP JUMPDEST DUP5 PUSH1 0x1 PUSH1 0x1 PUSH1 0xA0 SHL SUB AND PUSH4 0x313CE567 PUSH1 0x40 MLOAD DUP2 PUSH4 0xFFFFFFFF AND PUSH1 0xE0 SHL DUP2 MSTORE PUSH1 0x4 ADD PUSH1 0x20 PUSH1 0x40 MLOAD DUP1 DUP4 SUB DUP2 DUP7 GAS STATICCALL ISZERO DUP1 ISZERO PUSH3 0x12A JUMPI RETURNDATASIZE PUSH1 0x0 DUP1 RETURNDATACOPY RETURNDATASIZE PUSH1 0x0 REVERT JUMPDEST POP POP POP POP PUSH1 0x40 MLOAD RETURNDATASIZE PUSH1 0x1F NOT PUSH1 0x1F DUP3 ADD AND DUP3 ADD DUP1 PUSH1 0x40 MSTORE POP DUP2 ADD SWAP1 PUSH3 0x150 SWAP2 SWAP1 PUSH3 0x3FD JUMP JUMPDEST PUSH1 0xB DUP1 SLOAD PUSH1 0xFF NOT AND PUSH1 0xFF SWAP3 SWAP1 SWAP3 AND SWAP2 DUP3 OR SWAP1 SSTORE PUSH3 0x189 SWAP1 CALLER SWAP1 PUSH3 0x177 SWAP1 PUSH1 0xA PUSH3 0x53E JUMP JUMPDEST PUSH3 0x183 SWAP1 DUP8 PUSH3 0x54F JUMP JUMPDEST PUSH3 0x218 JUMP JUMPDEST DUP3 PUSH1 0x8 SLOAD PUSH3 0x199 SWAP2 SWAP1 PUSH3 0x571 JUMP JUMPDEST PUSH1 0x6 SSTORE PUSH1 0x8 SLOAD PUSH3 0x1AC SWAP1 DUP5 SWAP1 PUSH3 0x571 JUMP JUMPDEST PUSH1 0x7 SSTORE PUSH1 0x9 SWAP2 SWAP1 SWAP2 SSTORE PUSH1 0xA SSTORE POP PUSH3 0x5EB SWAP2 POP POP JUMP JUMPDEST CALLER SWAP1 JUMP JUMPDEST PUSH1 0x5 DUP1 SLOAD PUSH1 0x1 PUSH1 0x1 PUSH1 0xA0 SHL SUB DUP4 DUP2 AND PUSH1 0x1 PUSH1 0x1 PUSH1 0xA0 SHL SUB NOT DUP4 AND DUP2 OR SWAP1 SWAP4 SSTORE PUSH1 0x40 MLOAD SWAP2 AND SWAP2 SWAP1 DUP3 SWAP1 PUSH32 0x8BE0079C531659141344CD1FD0A4F28419497F9722A3DAAFE3B4186F6B6457E0 SWAP1 PUSH1 0x0 SWAP1 LOG3 POP POP JUMP JUMPDEST PUSH1 0x1 PUSH1 0x1 PUSH1 0xA0 SHL SUB DUP3 AND PUSH3 0x273 JUMPI PUSH1 0x40 MLOAD PUSH3 0x461BCD PUSH1 0xE5 SHL DUP2 MSTORE PUSH1 0x20 PUSH1 0x4 DUP3 ADD MSTORE PUSH1 0x1F PUSH1 0x24 DUP3 ADD MSTORE PUSH32 0x45524332303A206D696E7420746F20746865207A65726F206164647265737300 PUSH1 0x44 DUP3 ADD MSTORE PUSH1 0x64 ADD PUSH1 0x40 MLOAD DUP1 SWAP2 SUB SWAP1 REVERT JUMPDEST DUP1 PUSH1 0x2 PUSH1 0x0 DUP3 DUP3 SLOAD PUSH3 0x287 SWAP2 SWAP1 PUSH3 0x594 JUMP JUMPDEST SWAP1 SWAP2 SSTORE POP POP PUSH1 0x1 PUSH1 0x1 PUSH1 0xA0 SHL SUB DUP3 AND PUSH1 0x0 SWAP1 DUP2 MSTORE PUSH1 0x20 DUP2 SWAP1 MSTORE PUSH1 0x40 DUP2 KECCAK256 DUP1 SLOAD DUP4 SWAP3 SWAP1 PUSH3 0x2B6 SWAP1 DUP5 SWAP1 PUSH3 0x594 JUMP JUMPDEST SWAP1 SWAP2 SSTORE POP POP PUSH1 0x40 MLOAD DUP2 DUP2 MSTORE PUSH1 0x1 PUSH1 0x1 PUSH1 0xA0 SHL SUB DUP4 AND SWAP1 PUSH1 0x0 SWAP1 PUSH32 0xDDF252AD1BE2C89B69C2B068FC378DAA952BA7F163C4A11628F55A4DF523B3EF SWAP1 PUSH1 0x20 ADD PUSH1 0x40 MLOAD DUP1 SWAP2 SUB SWAP1 LOG3 POP POP JUMP JUMPDEST DUP3 DUP1 SLOAD PUSH3 0x30E SWAP1 PUSH3 0x5AF JUMP JUMPDEST SWAP1 PUSH1 0x0 MSTORE PUSH1 0x20 PUSH1 0x0 KECCAK256 SWAP1 PUSH1 0x1F ADD PUSH1 0x20 SWAP1 DIV DUP2 ADD SWAP3 DUP3 PUSH3 0x332 JUMPI PUSH1 0x0 DUP6 SSTORE PUSH3 0x37D JUMP JUMPDEST DUP3 PUSH1 0x1F LT PUSH3 0x34D JUMPI DUP1 MLOAD PUSH1 0xFF NOT AND DUP4 DUP1 ADD OR DUP6 SSTORE PUSH3 0x37D JUMP JUMPDEST DUP3 DUP1 ADD PUSH1 0x1 ADD DUP6 SSTORE DUP3 ISZERO PUSH3 0x37D JUMPI SWAP2 DUP3 ADD JUMPDEST DUP3 DUP2 GT ISZERO PUSH3 0x37D JUMPI DUP3 MLOAD DUP3 SSTORE SWAP2 PUSH1 0x20 ADD SWAP2 SWAP1 PUSH1 0x1 ADD SWAP1 PUSH3 0x360 JUMP JUMPDEST POP PUSH3 0x38B SWAP3 SWAP2 POP PUSH3 0x38F JUMP JUMPDEST POP SWAP1 JUMP JUMPDEST JUMPDEST DUP1 DUP3 GT ISZERO PUSH3 0x38B JUMPI PUSH1 0x0 DUP2 SSTORE PUSH1 0x1 ADD PUSH3 0x390 JUMP JUMPDEST PUSH1 0x0 DUP1 PUSH1 0x0 DUP1 PUSH1 0x0 PUSH1 0xA0 DUP7 DUP9 SUB SLT ISZERO PUSH3 0x3BF JUMPI PUSH1 0x0 DUP1 REVERT JUMPDEST DUP6 MLOAD PUSH1 0x1 PUSH1 0x1 PUSH1 0xA0 SHL SUB DUP2 AND DUP2 EQ PUSH3 0x3D7 JUMPI PUSH1 0x0 DUP1 REVERT JUMPDEST PUSH1 0x20 DUP8 ADD MLOAD PUSH1 0x40 DUP9 ADD MLOAD PUSH1 0x60 DUP10 ADD MLOAD PUSH1 0x80 SWAP1 SWAP10 ADD MLOAD SWAP3 SWAP11 SWAP2 SWAP10 POP SWAP8 SWAP7 POP SWAP1 SWAP5 POP SWAP3 POP POP POP JUMP JUMPDEST PUSH1 0x0 PUSH1 0x20 DUP3 DUP5 SUB SLT ISZERO PUSH3 0x410 JUMPI PUSH1 0x0 DUP1 REVERT JUMPDEST DUP2 MLOAD PUSH1 0xFF DUP2 AND DUP2 EQ PUSH3 0x422 JUMPI PUSH1 0x0 DUP1 REVERT JUMPDEST SWAP4 SWAP3 POP POP POP JUMP JUMPDEST PUSH4 0x4E487B71 PUSH1 0xE0 SHL PUSH1 0x0 MSTORE PUSH1 0x11 PUSH1 0x4 MSTORE PUSH1 0x24 PUSH1 0x0 REVERT JUMPDEST PUSH1 0x1 DUP2 DUP2 JUMPDEST DUP1 DUP6 GT ISZERO PUSH3 0x480 JUMPI DUP2 PUSH1 0x0 NOT DIV DUP3 GT ISZERO PUSH3 0x464 JUMPI PUSH3 0x464 PUSH3 0x429 JUMP JUMPDEST DUP1 DUP6 AND ISZERO PUSH3 0x472 JUMPI SWAP2 DUP2 MUL SWAP2 JUMPDEST SWAP4 DUP5 SHR SWAP4 SWAP1 DUP1 MUL SWAP1 PUSH3 0x444 JUMP JUMPDEST POP SWAP3 POP SWAP3 SWAP1 POP JUMP JUMPDEST PUSH1 0x0 DUP3 PUSH3 0x499 JUMPI POP PUSH1 0x1 PUSH3 0x538 JUMP JUMPDEST DUP2 PUSH3 0x4A8 JUMPI POP PUSH1 0x0 PUSH3 0x538 JUMP JUMPDEST DUP2 PUSH1 0x1 DUP2 EQ PUSH3 0x4C1 JUMPI PUSH1 0x2 DUP2 EQ PUSH3 0x4CC JUMPI PUSH3 0x4EC JUMP JUMPDEST PUSH1 0x1 SWAP2 POP POP PUSH3 0x538 JUMP JUMPDEST PUSH1 0xFF DUP5 GT ISZERO PUSH3 0x4E0 JUMPI PUSH3 0x4E0 PUSH3 0x429 JUMP JUMPDEST POP POP PUSH1 0x1 DUP3 SHL PUSH3 0x538 JUMP JUMPDEST POP PUSH1 0x20 DUP4 LT PUSH2 0x133 DUP4 LT AND PUSH1 0x4E DUP5 LT PUSH1 0xB DUP5 LT AND OR ISZERO PUSH3 0x511 JUMPI POP DUP2 DUP2 EXP PUSH3 0x538 JUMP JUMPDEST PUSH3 0x51D DUP4 DUP4 PUSH3 0x43F JUMP JUMPDEST DUP1 PUSH1 0x0 NOT DIV DUP3 GT ISZERO PUSH3 0x534 JUMPI PUSH3 0x534 PUSH3 0x429 JUMP JUMPDEST MUL SWAP1 POP JUMPDEST SWAP3 SWAP2 POP POP JUMP JUMPDEST PUSH1 0x0 PUSH3 0x422 PUSH1 0xFF DUP5 AND DUP4 PUSH3 0x488 JUMP JUMPDEST PUSH1 0x0 DUP2 PUSH1 0x0 NOT DIV DUP4 GT DUP3 ISZERO ISZERO AND ISZERO PUSH3 0x56C JUMPI PUSH3 0x56C PUSH3 0x429 JUMP JUMPDEST POP MUL SWAP1 JUMP JUMPDEST PUSH1 0x0 DUP3 PUSH3 0x58F JUMPI PUSH4 0x4E487B71 PUSH1 0xE0 SHL PUSH1 0x0 MSTORE PUSH1 0x12 PUSH1 0x4 MSTORE PUSH1 0x24 PUSH1 0x0 REVERT JUMPDEST POP DIV SWAP1 JUMP JUMPDEST PUSH1 0x0 DUP3 NOT DUP3 GT ISZERO PUSH3 0x5AA JUMPI PUSH3 0x5AA PUSH3 0x429 JUMP JUMPDEST POP ADD SWAP1 JUMP JUMPDEST PUSH1 0x1 DUP2 DUP2 SHR SWAP1 DUP3 AND DUP1 PUSH3 0x5C4 JUMPI PUSH1 0x7F DUP3 AND SWAP2 POP JUMPDEST PUSH1 0x20 DUP3 LT DUP2 SUB PUSH3 0x5E5 JUMPI PUSH4 0x4E487B71 PUSH1 0xE0 SHL PUSH1 0x0 MSTORE PUSH1 0x22 PUSH1 0x4 MSTORE PUSH1 0x24 PUSH1 0x0 REVERT JUMPDEST POP SWAP2 SWAP1 POP JUMP JUMPDEST PUSH2 0x11FB DUP1 PUSH3 0x5FB PUSH1 0x0 CODECOPY PUSH1 0x0 RETURN INVALID PUSH1 0x80 PUSH1 0x40 MSTORE PUSH1 0x4 CALLDATASIZE LT PUSH2 0x109 JUMPI PUSH1 0x0 CALLDATALOAD PUSH1 0xE0 SHR DUP1 PUSH4 0x715018A6 GT PUSH2 0x95 JUMPI DUP1 PUSH4 0xA457C2D7 GT PUSH2 0x64 JUMPI DUP1 PUSH4 0xA457C2D7 EQ PUSH2 0x2D4 JUMPI DUP1 PUSH4 0xA6F2AE3A EQ PUSH2 0x2F4 JUMPI DUP1 PUSH4 0xA9059CBB EQ PUSH2 0x2FC JUMPI DUP1 PUSH4 0xDD62ED3E EQ PUSH2 0x31C JUMPI DUP1 PUSH4 0xF2FDE38B EQ PUSH2 0x362 JUMPI PUSH1 0x0 DUP1 REVERT JUMPDEST DUP1 PUSH4 0x715018A6 EQ PUSH2 0x262 JUMPI DUP1 PUSH4 0x715994E3 EQ PUSH2 0x277 JUMPI DUP1 PUSH4 0x8DA5CB5B EQ PUSH2 0x297 JUMPI DUP1 PUSH4 0x95D89B41 EQ PUSH2 0x2BF JUMPI PUSH1 0x0 DUP1 REVERT JUMPDEST DUP1 PUSH4 0x23B872DD GT PUSH2 0xDC JUMPI DUP1 PUSH4 0x23B872DD EQ PUSH2 0x1AA JUMPI DUP1 PUSH4 0x313CE567 EQ PUSH2 0x1CA JUMPI DUP1 PUSH4 0x39509351 EQ PUSH2 0x1EC JUMPI DUP1 PUSH4 0x4664FFEA EQ PUSH2 0x20C JUMPI DUP1 PUSH4 0x70A08231 EQ PUSH2 0x22C JUMPI PUSH1 0x0 DUP1 REVERT JUMPDEST DUP1 PUSH4 0x510A5B3 EQ PUSH2 0x10E JUMPI DUP1 PUSH4 0x6FDDE03 EQ PUSH2 0x130 JUMPI DUP1 PUSH4 0x95EA7B3 EQ PUSH2 0x15B JUMPI DUP1 PUSH4 0x18160DDD EQ PUSH2 0x18B JUMPI JUMPDEST PUSH1 0x0 DUP1 REVERT JUMPDEST CALLVALUE DUP1 ISZERO PUSH2 0x11A JUMPI PUSH1 0x0 DUP1 REVERT JUMPDEST POP PUSH2 0x12E PUSH2 0x129 CALLDATASIZE PUSH1 0x4 PUSH2 0xE97 JUMP JUMPDEST PUSH2 0x382 JUMP JUMPDEST STOP JUMPDEST CALLVALUE DUP1 ISZERO PUSH2 0x13C JUMPI PUSH1 0x0 DUP1 REVERT JUMPDEST POP PUSH2 0x145 PUSH2 0x3FD JUMP JUMPDEST PUSH1 0x40 MLOAD PUSH2 0x152 SWAP2 SWAP1 PUSH2 0xEC1 JUMP JUMPDEST PUSH1 0x40 MLOAD DUP1 SWAP2 SUB SWAP1 RETURN JUMPDEST CALLVALUE DUP1 ISZERO PUSH2 0x167 JUMPI PUSH1 0x0 DUP1 REVERT JUMPDEST POP PUSH2 0x17B PUSH2 0x176 CALLDATASIZE PUSH1 0x4 PUSH2 0xE97 JUMP JUMPDEST PUSH2 0x48F JUMP JUMPDEST PUSH1 0x40 MLOAD SWAP1 ISZERO ISZERO DUP2 MSTORE PUSH1 0x20 ADD PUSH2 0x152 JUMP JUMPDEST CALLVALUE DUP1 ISZERO PUSH2 0x197 JUMPI PUSH1 0x0 DUP1 REVERT JUMPDEST POP PUSH1 0x2 SLOAD JUMPDEST PUSH1 0x40 MLOAD SWAP1 DUP2 MSTORE PUSH1 0x20 ADD PUSH2 0x152 JUMP JUMPDEST CALLVALUE DUP1 ISZERO PUSH2 0x1B6 JUMPI PUSH1 0x0 DUP1 REVERT JUMPDEST POP PUSH2 0x17B PUSH2 0x1C5 CALLDATASIZE PUSH1 0x4 PUSH2 0xF16 JUMP JUMPDEST PUSH2 0x4A6 JUMP JUMPDEST CALLVALUE DUP1 ISZERO PUSH2 0x1D6 JUMPI PUSH1 0x0 DUP1 REVERT JUMPDEST POP PUSH1 0xB SLOAD PUSH1 0x40 MLOAD PUSH1 0xFF SWAP1 SWAP2 AND DUP2 MSTORE PUSH1 0x20 ADD PUSH2 0x152 JUMP JUMPDEST CALLVALUE DUP1 ISZERO PUSH2 0x1F8 JUMPI PUSH1 0x0 DUP1 REVERT JUMPDEST POP PUSH2 0x17B PUSH2 0x207 CALLDATASIZE PUSH1 0x4 PUSH2 0xE97 JUMP JUMPDEST PUSH2 0x550 JUMP JUMPDEST CALLVALUE DUP1 ISZERO PUSH2 0x218 JUMPI PUSH1 0x0 DUP1 REVERT JUMPDEST POP PUSH2 0x12E PUSH2 0x227 CALLDATASIZE PUSH1 0x4 PUSH2 0xE97 JUMP JUMPDEST PUSH2 0x58C JUMP JUMPDEST CALLVALUE DUP1 ISZERO PUSH2 0x238 JUMPI PUSH1 0x0 DUP1 REVERT JUMPDEST POP PUSH2 0x19C PUSH2 0x247 CALLDATASIZE PUSH1 0x4 PUSH2 0xF52 JUMP JUMPDEST PUSH1 0x1 PUSH1 0x1 PUSH1 0xA0 SHL SUB AND PUSH1 0x0 SWAP1 DUP2 MSTORE PUSH1 0x20 DUP2 SWAP1 MSTORE PUSH1 0x40 SWAP1 KECCAK256 SLOAD SWAP1 JUMP JUMPDEST CALLVALUE DUP1 ISZERO PUSH2 0x26E JUMPI PUSH1 0x0 DUP1 REVERT JUMPDEST POP PUSH2 0x12E PUSH2 0x5C4 JUMP JUMPDEST CALLVALUE DUP1 ISZERO PUSH2 0x283 JUMPI PUSH1 0x0 DUP1 REVERT JUMPDEST POP PUSH2 0x12E PUSH2 0x292 CALLDATASIZE PUSH1 0x4 PUSH2 0xF6D JUMP JUMPDEST PUSH2 0x5FA JUMP JUMPDEST CALLVALUE DUP1 ISZERO PUSH2 0x2A3 JUMPI PUSH1 0x0 DUP1 REVERT JUMPDEST POP PUSH1 0x5 SLOAD PUSH1 0x40 MLOAD PUSH1 0x1 PUSH1 0x1 PUSH1 0xA0 SHL SUB SWAP1 SWAP2 AND DUP2 MSTORE PUSH1 0x20 ADD PUSH2 0x152 JUMP JUMPDEST CALLVALUE DUP1 ISZERO PUSH2 0x2CB JUMPI PUSH1 0x0 DUP1 REVERT JUMPDEST POP PUSH2 0x145 PUSH2 0x66B JUMP JUMPDEST CALLVALUE DUP1 ISZERO PUSH2 0x2E0 JUMPI PUSH1 0x0 DUP1 REVERT JUMPDEST POP PUSH2 0x17B PUSH2 0x2EF CALLDATASIZE PUSH1 0x4 PUSH2 0xE97 JUMP JUMPDEST PUSH2 0x67A JUMP JUMPDEST PUSH2 0x12E PUSH2 0x713 JUMP JUMPDEST CALLVALUE DUP1 ISZERO PUSH2 0x308 JUMPI PUSH1 0x0 DUP1 REVERT JUMPDEST POP PUSH2 0x17B PUSH2 0x317 CALLDATASIZE PUSH1 0x4 PUSH2 0xE97 JUMP JUMPDEST PUSH2 0x864 JUMP JUMPDEST CALLVALUE DUP1 ISZERO PUSH2 0x328 JUMPI PUSH1 0x0 DUP1 REVERT JUMPDEST POP PUSH2 0x19C PUSH2 0x337 CALLDATASIZE PUSH1 0x4 PUSH2 0xF86 JUMP JUMPDEST PUSH1 0x1 PUSH1 0x1 PUSH1 0xA0 SHL SUB SWAP2 DUP3 AND PUSH1 0x0 SWAP1 DUP2 MSTORE PUSH1 0x1 PUSH1 0x20 SWAP1 DUP2 MSTORE PUSH1 0x40 DUP1 DUP4 KECCAK256 SWAP4 SWAP1 SWAP5 AND DUP3 MSTORE SWAP2 SWAP1 SWAP2 MSTORE KECCAK256 SLOAD SWAP1 JUMP JUMPDEST CALLVALUE DUP1 ISZERO PUSH2 0x36E JUMPI PUSH1 0x0 DUP1 REVERT JUMPDEST POP PUSH2 0x12E PUSH2 0x37D CALLDATASIZE PUSH1 0x4 PUSH2 0xF52 JUMP JUMPDEST PUSH2 0x98E JUMP JUMPDEST PUSH1 0x5 SLOAD PUSH1 0x1 PUSH1 0x1 PUSH1 0xA0 SHL SUB AND CALLER EQ PUSH2 0x3B5 JUMPI PUSH1 0x40 MLOAD PUSH3 0x461BCD PUSH1 0xE5 SHL DUP2 MSTORE PUSH1 0x4 ADD PUSH2 0x3AC SWAP1 PUSH2 0xFB9 JUMP JUMPDEST PUSH1 0x40 MLOAD DUP1 SWAP2 SUB SWAP1 REVERT JUMPDEST SELFBALANCE DUP2 GT ISZERO PUSH2 0x3C2 JUMPI PUSH1 0x0 DUP1 REVERT JUMPDEST PUSH1 0x40 MLOAD PUSH1 0x1 PUSH1 0x1 PUSH1 0xA0 SHL SUB DUP4 AND SWAP1 DUP3 ISZERO PUSH2 0x8FC MUL SWAP1 DUP4 SWAP1 PUSH1 0x0 DUP2 DUP2 DUP2 DUP6 DUP9 DUP9 CALL SWAP4 POP POP POP POP ISZERO DUP1 ISZERO PUSH2 0x3F8 JUMPI RETURNDATASIZE PUSH1 0x0 DUP1 RETURNDATACOPY RETURNDATASIZE PUSH1 0x0 REVERT JUMPDEST POP POP POP JUMP JUMPDEST PUSH1 0x60 PUSH1 0x3 DUP1 SLOAD PUSH2 0x40C SWAP1 PUSH2 0xFEE JUMP JUMPDEST DUP1 PUSH1 0x1F ADD PUSH1 0x20 DUP1 SWAP2 DIV MUL PUSH1 0x20 ADD PUSH1 0x40 MLOAD SWAP1 DUP2 ADD PUSH1 0x40 MSTORE DUP1 SWAP3 SWAP2 SWAP1 DUP2 DUP2 MSTORE PUSH1 0x20 ADD DUP3 DUP1 SLOAD PUSH2 0x438 SWAP1 PUSH2 0xFEE JUMP JUMPDEST DUP1 ISZERO PUSH2 0x485 JUMPI DUP1 PUSH1 0x1F LT PUSH2 0x45A JUMPI PUSH2 0x100 DUP1 DUP4 SLOAD DIV MUL DUP4 MSTORE SWAP2 PUSH1 0x20 ADD SWAP2 PUSH2 0x485 JUMP JUMPDEST DUP3 ADD SWAP2 SWAP1 PUSH1 0x0 MSTORE PUSH1 0x20 PUSH1 0x0 KECCAK256 SWAP1 JUMPDEST DUP2 SLOAD DUP2 MSTORE SWAP1 PUSH1 0x1 ADD SWAP1 PUSH1 0x20 ADD DUP1 DUP4 GT PUSH2 0x468 JUMPI DUP3 SWAP1 SUB PUSH1 0x1F AND DUP3 ADD SWAP2 JUMPDEST POP POP POP POP POP SWAP1 POP SWAP1 JUMP JUMPDEST PUSH1 0x0 PUSH2 0x49C CALLER DUP5 DUP5 PUSH2 0xA29 JUMP JUMPDEST POP PUSH1 0x1 JUMPDEST SWAP3 SWAP2 POP POP JUMP JUMPDEST PUSH1 0x0 PUSH2 0x4B3 DUP5 DUP5 DUP5 PUSH2 0xB4D JUMP JUMPDEST PUSH1 0x1 PUSH1 0x1 PUSH1 0xA0 SHL SUB DUP5 AND PUSH1 0x0 SWAP1 DUP2 MSTORE PUSH1 0x1 PUSH1 0x20 SWAP1 DUP2 MSTORE PUSH1 0x40 DUP1 DUP4 KECCAK256 CALLER DUP5 MSTORE SWAP1 SWAP2 MSTORE SWAP1 KECCAK256 SLOAD DUP3 DUP2 LT ISZERO PUSH2 0x538 JUMPI PUSH1 0x40 MLOAD PUSH3 0x461BCD PUSH1 0xE5 SHL DUP2 MSTORE PUSH1 0x20 PUSH1 0x4 DUP3 ADD MSTORE PUSH1 0x28 PUSH1 0x24 DUP3 ADD MSTORE PUSH32 0x45524332303A207472616E7366657220616D6F756E7420657863656564732061 PUSH1 0x44 DUP3 ADD MSTORE PUSH8 0x6C6C6F77616E6365 PUSH1 0xC0 SHL PUSH1 0x64 DUP3 ADD MSTORE PUSH1 0x84 ADD PUSH2 0x3AC JUMP JUMPDEST PUSH2 0x545 DUP6 CALLER DUP6 DUP5 SUB PUSH2 0xA29 JUMP JUMPDEST POP PUSH1 0x1 SWAP5 SWAP4 POP POP POP POP JUMP JUMPDEST CALLER PUSH1 0x0 DUP2 DUP2 MSTORE PUSH1 0x1 PUSH1 0x20 SWAP1 DUP2 MSTORE PUSH1 0x40 DUP1 DUP4 KECCAK256 PUSH1 0x1 PUSH1 0x1 PUSH1 0xA0 SHL SUB DUP8 AND DUP5 MSTORE SWAP1 SWAP2 MSTORE DUP2 KECCAK256 SLOAD SWAP1 SWAP2 PUSH2 0x49C SWAP2 DUP6 SWAP1 PUSH2 0x587 SWAP1 DUP7 SWAP1 PUSH2 0x103E JUMP JUMPDEST PUSH2 0xA29 JUMP JUMPDEST PUSH1 0x5 SLOAD PUSH1 0x1 PUSH1 0x1 PUSH1 0xA0 SHL SUB AND CALLER EQ PUSH2 0x5B6 JUMPI PUSH1 0x40 MLOAD PUSH3 0x461BCD PUSH1 0xE5 SHL DUP2 MSTORE PUSH1 0x4 ADD PUSH2 0x3AC SWAP1 PUSH2 0xFB9 JUMP JUMPDEST PUSH2 0x5C0 DUP3 DUP3 PUSH2 0xD1C JUMP JUMPDEST POP POP JUMP JUMPDEST PUSH1 0x5 SLOAD PUSH1 0x1 PUSH1 0x1 PUSH1 0xA0 SHL SUB AND CALLER EQ PUSH2 0x5EE JUMPI PUSH1 0x40 MLOAD PUSH3 0x461BCD PUSH1 0xE5 SHL DUP2 MSTORE PUSH1 0x4 ADD PUSH2 0x3AC SWAP1 PUSH2 0xFB9 JUMP JUMPDEST PUSH2 0x5F8 PUSH1 0x0 PUSH2 0xDFD JUMP JUMPDEST JUMP JUMPDEST PUSH1 0x5 SLOAD PUSH1 0x1 PUSH1 0x1 PUSH1 0xA0 SHL SUB AND CALLER EQ PUSH2 0x624 JUMPI PUSH1 0x40 MLOAD PUSH3 0x461BCD PUSH1 0xE5 SHL DUP2 MSTORE PUSH1 0x4 ADD PUSH2 0x3AC SWAP1 PUSH2 0xFB9 JUMP JUMPDEST SELFBALANCE DUP2 GT ISZERO PUSH2 0x631 JUMPI PUSH1 0x0 DUP1 REVERT JUMPDEST PUSH1 0x5 SLOAD PUSH1 0x40 MLOAD PUSH1 0x1 PUSH1 0x1 PUSH1 0xA0 SHL SUB SWAP1 SWAP2 AND SWAP1 DUP3 ISZERO PUSH2 0x8FC MUL SWAP1 DUP4 SWAP1 PUSH1 0x0 DUP2 DUP2 DUP2 DUP6 DUP9 DUP9 CALL SWAP4 POP POP POP POP ISZERO DUP1 ISZERO PUSH2 0x5C0 JUMPI RETURNDATASIZE PUSH1 0x0 DUP1 RETURNDATACOPY RETURNDATASIZE PUSH1 0x0 REVERT JUMPDEST PUSH1 0x60 PUSH1 0x4 DUP1 SLOAD PUSH2 0x40C SWAP1 PUSH2 0xFEE JUMP JUMPDEST CALLER PUSH1 0x0 SWAP1 DUP2 MSTORE PUSH1 0x1 PUSH1 0x20 SWAP1 DUP2 MSTORE PUSH1 0x40 DUP1 DUP4 KECCAK256 PUSH1 0x1 PUSH1 0x1 PUSH1 0xA0 SHL SUB DUP7 AND DUP5 MSTORE SWAP1 SWAP2 MSTORE DUP2 KECCAK256 SLOAD DUP3 DUP2 LT ISZERO PUSH2 0x6FC JUMPI PUSH1 0x40 MLOAD PUSH3 0x461BCD PUSH1 0xE5 SHL DUP2 MSTORE PUSH1 0x20 PUSH1 0x4 DUP3 ADD MSTORE PUSH1 0x25 PUSH1 0x24 DUP3 ADD MSTORE PUSH32 0x45524332303A2064656372656173656420616C6C6F77616E63652062656C6F77 PUSH1 0x44 DUP3 ADD MSTORE PUSH5 0x207A65726F PUSH1 0xD8 SHL PUSH1 0x64 DUP3 ADD MSTORE PUSH1 0x84 ADD PUSH2 0x3AC JUMP JUMPDEST PUSH2 0x709 CALLER DUP6 DUP6 DUP5 SUB PUSH2 0xA29 JUMP JUMPDEST POP PUSH1 0x1 SWAP4 SWAP3 POP POP POP JUMP JUMPDEST PUSH1 0x6 SLOAD PUSH1 0xB SLOAD ADDRESS SWAP2 CALLVALUE SWAP2 PUSH1 0x0 SWAP2 PUSH2 0x74E SWAP2 PUSH2 0x748 SWAP1 PUSH2 0x736 SWAP1 PUSH1 0xFF AND PUSH1 0xA PUSH2 0x113A JUMP JUMPDEST PUSH2 0x741 SWAP1 PUSH1 0x1 PUSH2 0x1149 JUMP JUMPDEST DUP6 SWAP1 PUSH2 0xE4F JUMP JUMPDEST SWAP1 PUSH2 0xE62 JUMP JUMPDEST SWAP1 POP PUSH1 0x9 SLOAD DUP2 GT PUSH2 0x804 JUMPI PUSH1 0x40 MLOAD PUSH4 0x70A08231 PUSH1 0xE0 SHL DUP2 MSTORE ADDRESS PUSH1 0x4 DUP3 ADD MSTORE PUSH1 0x1 PUSH1 0x1 PUSH1 0xA0 SHL SUB DUP5 AND SWAP1 PUSH4 0x70A08231 SWAP1 PUSH1 0x24 ADD PUSH1 0x20 PUSH1 0x40 MLOAD DUP1 DUP4 SUB DUP2 DUP7 GAS STATICCALL ISZERO DUP1 ISZERO PUSH2 0x79D JUMPI RETURNDATASIZE PUSH1 0x0 DUP1 RETURNDATACOPY RETURNDATASIZE PUSH1 0x0 REVERT JUMPDEST POP POP POP POP PUSH1 0x40 MLOAD RETURNDATASIZE PUSH1 0x1F NOT PUSH1 0x1F DUP3 ADD AND DUP3 ADD DUP1 PUSH1 0x40 MSTORE POP DUP2 ADD SWAP1 PUSH2 0x7C1 SWAP2 SWAP1 PUSH2 0x1168 JUMP JUMPDEST DUP2 GT PUSH2 0x7D1 JUMPI PUSH2 0x3F8 CALLER DUP3 PUSH2 0xD1C JUMP JUMPDEST PUSH1 0x40 MLOAD CALLER SWAP1 DUP4 ISZERO PUSH2 0x8FC MUL SWAP1 DUP5 SWAP1 PUSH1 0x0 DUP2 DUP2 DUP2 DUP6 DUP9 DUP9 CALL SWAP4 POP POP POP POP ISZERO DUP1 ISZERO PUSH2 0x7FE JUMPI RETURNDATASIZE PUSH1 0x0 DUP1 RETURNDATACOPY RETURNDATASIZE PUSH1 0x0 REVERT JUMPDEST POP POP POP POP JUMP JUMPDEST PUSH1 0x9 SLOAD DUP3 GT ISZERO PUSH2 0x3F8 JUMPI PUSH1 0x40 MLOAD PUSH3 0x461BCD PUSH1 0xE5 SHL DUP2 MSTORE PUSH1 0x20 PUSH1 0x4 DUP3 ADD MSTORE PUSH1 0x25 PUSH1 0x24 DUP3 ADD MSTORE PUSH32 0x594E50726573616C653A20414D4F554E542053414C4520414D4F554E54204558 PUSH1 0x44 DUP3 ADD MSTORE PUSH5 0x21A2A2A217 PUSH1 0xD9 SHL PUSH1 0x64 DUP3 ADD MSTORE PUSH1 0x84 ADD PUSH2 0x3AC JUMP JUMPDEST PUSH1 0x0 DUP1 PUSH2 0x871 DUP5 DUP5 PUSH2 0xE6E JUMP JUMPDEST SWAP1 POP DUP3 ADDRESS PUSH1 0x1 PUSH1 0x1 PUSH1 0xA0 SHL SUB DUP7 AND SUB PUSH2 0x986 JUMPI PUSH1 0xB SLOAD PUSH1 0x0 SWAP1 PUSH2 0x8B5 SWAP1 PUSH2 0x89C SWAP1 PUSH1 0xFF AND PUSH1 0xA PUSH2 0x113A JUMP JUMPDEST PUSH2 0x8A7 SWAP1 PUSH1 0x1 PUSH2 0x1149 JUMP JUMPDEST PUSH1 0x7 SLOAD PUSH2 0x748 SWAP1 DUP6 SWAP1 PUSH2 0xE4F JUMP JUMPDEST SWAP1 POP PUSH1 0xA SLOAD DUP3 GT PUSH2 0x927 JUMPI SELFBALANCE DUP2 GT PUSH2 0x8FA JUMPI PUSH1 0x40 MLOAD CALLER SWAP1 DUP3 ISZERO PUSH2 0x8FC MUL SWAP1 DUP4 SWAP1 PUSH1 0x0 DUP2 DUP2 DUP2 DUP6 DUP9 DUP9 CALL SWAP4 POP POP POP POP ISZERO DUP1 ISZERO PUSH2 0x8F4 JUMPI RETURNDATASIZE PUSH1 0x0 DUP1 RETURNDATACOPY RETURNDATASIZE PUSH1 0x0 REVERT JUMPDEST POP PUSH2 0x984 JUMP JUMPDEST PUSH1 0x40 MLOAD CALLER SWAP1 DUP4 ISZERO PUSH2 0x8FC MUL SWAP1 DUP5 SWAP1 PUSH1 0x0 DUP2 DUP2 DUP2 DUP6 DUP9 DUP9 CALL SWAP4 POP POP POP POP ISZERO DUP1 ISZERO PUSH2 0x8F4 JUMPI RETURNDATASIZE PUSH1 0x0 DUP1 RETURNDATACOPY RETURNDATASIZE PUSH1 0x0 REVERT JUMPDEST PUSH1 0xA SLOAD DUP3 GT ISZERO PUSH2 0x984 JUMPI PUSH1 0x40 MLOAD PUSH3 0x461BCD PUSH1 0xE5 SHL DUP2 MSTORE PUSH1 0x20 PUSH1 0x4 DUP3 ADD MSTORE PUSH1 0x22 PUSH1 0x24 DUP3 ADD MSTORE PUSH32 0x594E50726573616C653A204D41582053414C4520414D4F554E54204558434545 PUSH1 0x44 DUP3 ADD MSTORE PUSH2 0x2217 PUSH1 0xF1 SHL PUSH1 0x64 DUP3 ADD MSTORE PUSH1 0x84 ADD PUSH2 0x3AC JUMP JUMPDEST POP JUMPDEST POP SWAP4 SWAP3 POP POP POP JUMP JUMPDEST PUSH1 0x5 SLOAD PUSH1 0x1 PUSH1 0x1 PUSH1 0xA0 SHL SUB AND CALLER EQ PUSH2 0x9B8 JUMPI PUSH1 0x40 MLOAD PUSH3 0x461BCD PUSH1 0xE5 SHL DUP2 MSTORE PUSH1 0x4 ADD PUSH2 0x3AC SWAP1 PUSH2 0xFB9 JUMP JUMPDEST PUSH1 0x1 PUSH1 0x1 PUSH1 0xA0 SHL SUB DUP2 AND PUSH2 0xA1D JUMPI PUSH1 0x40 MLOAD PUSH3 0x461BCD PUSH1 0xE5 SHL DUP2 MSTORE PUSH1 0x20 PUSH1 0x4 DUP3 ADD MSTORE PUSH1 0x26 PUSH1 0x24 DUP3 ADD MSTORE PUSH32 0x4F776E61626C653A206E6577206F776E657220697320746865207A65726F2061 PUSH1 0x44 DUP3 ADD MSTORE PUSH6 0x646472657373 PUSH1 0xD0 SHL PUSH1 0x64 DUP3 ADD MSTORE PUSH1 0x84 ADD PUSH2 0x3AC JUMP JUMPDEST PUSH2 0xA26 DUP2 PUSH2 0xDFD JUMP JUMPDEST POP JUMP JUMPDEST PUSH1 0x1 PUSH1 0x1 PUSH1 0xA0 SHL SUB DUP4 AND PUSH2 0xA8B JUMPI PUSH1 0x40 MLOAD PUSH3 0x461BCD PUSH1 0xE5 SHL DUP2 MSTORE PUSH1 0x20 PUSH1 0x4 DUP3 ADD MSTORE PUSH1 0x24 DUP1 DUP3 ADD MSTORE PUSH32 0x45524332303A20617070726F76652066726F6D20746865207A65726F20616464 PUSH1 0x44 DUP3 ADD MSTORE PUSH4 0x72657373 PUSH1 0xE0 SHL PUSH1 0x64 DUP3 ADD MSTORE PUSH1 0x84 ADD PUSH2 0x3AC JUMP JUMPDEST PUSH1 0x1 PUSH1 0x1 PUSH1 0xA0 SHL SUB DUP3 AND PUSH2 0xAEC JUMPI PUSH1 0x40 MLOAD PUSH3 0x461BCD PUSH1 0xE5 SHL DUP2 MSTORE PUSH1 0x20 PUSH1 0x4 DUP3 ADD MSTORE PUSH1 0x22 PUSH1 0x24 DUP3 ADD MSTORE PUSH32 0x45524332303A20617070726F766520746F20746865207A65726F206164647265 PUSH1 0x44 DUP3 ADD MSTORE PUSH2 0x7373 PUSH1 0xF0 SHL PUSH1 0x64 DUP3 ADD MSTORE PUSH1 0x84 ADD PUSH2 0x3AC JUMP JUMPDEST PUSH1 0x1 PUSH1 0x1 PUSH1 0xA0 SHL SUB DUP4 DUP2 AND PUSH1 0x0 DUP2 DUP2 MSTORE PUSH1 0x1 PUSH1 0x20 SWAP1 DUP2 MSTORE PUSH1 0x40 DUP1 DUP4 KECCAK256 SWAP5 DUP8 AND DUP1 DUP5 MSTORE SWAP5 DUP3 MSTORE SWAP2 DUP3 SWAP1 KECCAK256 DUP6 SWAP1 SSTORE SWAP1 MLOAD DUP5 DUP2 MSTORE PUSH32 0x8C5BE1E5EBEC7D5BD14F71427D1E84F3DD0314C0F7B2291E5B200AC8C7C3B925 SWAP2 ADD PUSH1 0x40 MLOAD DUP1 SWAP2 SUB SWAP1 LOG3 POP POP POP JUMP JUMPDEST PUSH1 0x1 PUSH1 0x1 PUSH1 0xA0 SHL SUB DUP4 AND PUSH2 0xBB1 JUMPI PUSH1 0x40 MLOAD PUSH3 0x461BCD PUSH1 0xE5 SHL DUP2 MSTORE PUSH1 0x20 PUSH1 0x4 DUP3 ADD MSTORE PUSH1 0x25 PUSH1 0x24 DUP3 ADD MSTORE PUSH32 0x45524332303A207472616E736665722066726F6D20746865207A65726F206164 PUSH1 0x44 DUP3 ADD MSTORE PUSH5 0x6472657373 PUSH1 0xD8 SHL PUSH1 0x64 DUP3 ADD MSTORE PUSH1 0x84 ADD PUSH2 0x3AC JUMP JUMPDEST PUSH1 0x1 PUSH1 0x1 PUSH1 0xA0 SHL SUB DUP3 AND PUSH2 0xC13 JUMPI PUSH1 0x40 MLOAD PUSH3 0x461BCD PUSH1 0xE5 SHL DUP2 MSTORE PUSH1 0x20 PUSH1 0x4 DUP3 ADD MSTORE PUSH1 0x23 PUSH1 0x24 DUP3 ADD MSTORE PUSH32 0x45524332303A207472616E7366657220746F20746865207A65726F2061646472 PUSH1 0x44 DUP3 ADD MSTORE PUSH3 0x657373 PUSH1 0xE8 SHL PUSH1 0x64 DUP3 ADD MSTORE PUSH1 0x84 ADD PUSH2 0x3AC JUMP JUMPDEST PUSH1 0x1 PUSH1 0x1 PUSH1 0xA0 SHL SUB DUP4 AND PUSH1 0x0 SWAP1 DUP2 MSTORE PUSH1 0x20 DUP2 SWAP1 MSTORE PUSH1 0x40 SWAP1 KECCAK256 SLOAD DUP2 DUP2 LT ISZERO PUSH2 0xC8B JUMPI PUSH1 0x40 MLOAD PUSH3 0x461BCD PUSH1 0xE5 SHL DUP2 MSTORE PUSH1 0x20 PUSH1 0x4 DUP3 ADD MSTORE PUSH1 0x26 PUSH1 0x24 DUP3 ADD MSTORE PUSH32 0x45524332303A207472616E7366657220616D6F756E7420657863656564732062 PUSH1 0x44 DUP3 ADD MSTORE PUSH6 0x616C616E6365 PUSH1 0xD0 SHL PUSH1 0x64 DUP3 ADD MSTORE PUSH1 0x84 ADD PUSH2 0x3AC JUMP JUMPDEST PUSH1 0x1 PUSH1 0x1 PUSH1 0xA0 SHL SUB DUP1 DUP6 AND PUSH1 0x0 SWAP1 DUP2 MSTORE PUSH1 0x20 DUP2 SWAP1 MSTORE PUSH1 0x40 DUP1 DUP3 KECCAK256 DUP6 DUP6 SUB SWAP1 SSTORE SWAP2 DUP6 AND DUP2 MSTORE SWAP1 DUP2 KECCAK256 DUP1 SLOAD DUP5 SWAP3 SWAP1 PUSH2 0xCC2 SWAP1 DUP5 SWAP1 PUSH2 0x103E JUMP JUMPDEST SWAP3 POP POP DUP2 SWAP1 SSTORE POP DUP3 PUSH1 0x1 PUSH1 0x1 PUSH1 0xA0 SHL SUB AND DUP5 PUSH1 0x1 PUSH1 0x1 PUSH1 0xA0 SHL SUB AND PUSH32 0xDDF252AD1BE2C89B69C2B068FC378DAA952BA7F163C4A11628F55A4DF523B3EF DUP5 PUSH1 0x40 MLOAD PUSH2 0xD0E SWAP2 DUP2 MSTORE PUSH1 0x20 ADD SWAP1 JUMP JUMPDEST PUSH1 0x40 MLOAD DUP1 SWAP2 SUB SWAP1 LOG3 POP POP POP POP JUMP JUMPDEST PUSH1 0x40 MLOAD PUSH4 0x70A08231 PUSH1 0xE0 SHL DUP2 MSTORE ADDRESS PUSH1 0x4 DUP3 ADD DUP2 SWAP1 MSTORE SWAP1 DUP2 SWAP1 PUSH4 0x70A08231 SWAP1 PUSH1 0x24 ADD PUSH1 0x20 PUSH1 0x40 MLOAD DUP1 DUP4 SUB DUP2 DUP7 GAS STATICCALL ISZERO DUP1 ISZERO PUSH2 0xD5A JUMPI RETURNDATASIZE PUSH1 0x0 DUP1 RETURNDATACOPY RETURNDATASIZE PUSH1 0x0 REVERT JUMPDEST POP POP POP POP PUSH1 0x40 MLOAD RETURNDATASIZE PUSH1 0x1F NOT PUSH1 0x1F DUP3 ADD AND DUP3 ADD DUP1 PUSH1 0x40 MSTORE POP DUP2 ADD SWAP1 PUSH2 0xD7E SWAP2 SWAP1 PUSH2 0x1168 JUMP JUMPDEST DUP3 GT ISZERO PUSH2 0xD8A JUMPI PUSH1 0x0 DUP1 REVERT JUMPDEST PUSH1 0x40 MLOAD PUSH4 0xA9059CBB PUSH1 0xE0 SHL DUP2 MSTORE PUSH1 0x1 PUSH1 0x1 PUSH1 0xA0 SHL SUB DUP5 DUP2 AND PUSH1 0x4 DUP4 ADD MSTORE PUSH1 0x24 DUP3 ADD DUP5 SWAP1 MSTORE DUP3 AND SWAP1 PUSH4 0xA9059CBB SWAP1 PUSH1 0x44 ADD PUSH1 0x20 PUSH1 0x40 MLOAD DUP1 DUP4 SUB DUP2 PUSH1 0x0 DUP8 GAS CALL ISZERO DUP1 ISZERO PUSH2 0xDD9 JUMPI RETURNDATASIZE PUSH1 0x0 DUP1 RETURNDATACOPY RETURNDATASIZE PUSH1 0x0 REVERT JUMPDEST POP POP POP POP PUSH1 0x40 MLOAD RETURNDATASIZE PUSH1 0x1F NOT PUSH1 0x1F DUP3 ADD AND DUP3 ADD DUP1 PUSH1 0x40 MSTORE POP DUP2 ADD SWAP1 PUSH2 0x7FE SWAP2 SWAP1 PUSH2 0x1181 JUMP JUMPDEST PUSH1 0x5 DUP1 SLOAD PUSH1 0x1 PUSH1 0x1 PUSH1 0xA0 SHL SUB DUP4 DUP2 AND PUSH1 0x1 PUSH1 0x1 PUSH1 0xA0 SHL SUB NOT DUP4 AND DUP2 OR SWAP1 SWAP4 SSTORE PUSH1 0x40 MLOAD SWAP2 AND SWAP2 SWAP1 DUP3 SWAP1 PUSH32 0x8BE0079C531659141344CD1FD0A4F28419497F9722A3DAAFE3B4186F6B6457E0 SWAP1 PUSH1 0x0 SWAP1 LOG3 POP POP JUMP JUMPDEST PUSH1 0x0 PUSH2 0xE5B DUP3 DUP5 PUSH2 0x1149 JUMP JUMPDEST SWAP4 SWAP3 POP POP POP JUMP JUMPDEST PUSH1 0x0 PUSH2 0xE5B DUP3 DUP5 PUSH2 0x11A3 JUMP JUMPDEST PUSH1 0x0 PUSH2 0x49C CALLER DUP5 DUP5 PUSH2 0xB4D JUMP JUMPDEST DUP1 CALLDATALOAD PUSH1 0x1 PUSH1 0x1 PUSH1 0xA0 SHL SUB DUP2 AND DUP2 EQ PUSH2 0xE92 JUMPI PUSH1 0x0 DUP1 REVERT JUMPDEST SWAP2 SWAP1 POP JUMP JUMPDEST PUSH1 0x0 DUP1 PUSH1 0x40 DUP4 DUP6 SUB SLT ISZERO PUSH2 0xEAA JUMPI PUSH1 0x0 DUP1 REVERT JUMPDEST PUSH2 0xEB3 DUP4 PUSH2 0xE7B JUMP JUMPDEST SWAP5 PUSH1 0x20 SWAP4 SWAP1 SWAP4 ADD CALLDATALOAD SWAP4 POP POP POP JUMP JUMPDEST PUSH1 0x0 PUSH1 0x20 DUP1 DUP4 MSTORE DUP4 MLOAD DUP1 DUP3 DUP6 ADD MSTORE PUSH1 0x0 JUMPDEST DUP2 DUP2 LT ISZERO PUSH2 0xEEE JUMPI DUP6 DUP2 ADD DUP4 ADD MLOAD DUP6 DUP3 ADD PUSH1 0x40 ADD MSTORE DUP3 ADD PUSH2 0xED2 JUMP JUMPDEST DUP2 DUP2 GT ISZERO PUSH2 0xF00 JUMPI PUSH1 0x0 PUSH1 0x40 DUP4 DUP8 ADD ADD MSTORE JUMPDEST POP PUSH1 0x1F ADD PUSH1 0x1F NOT AND SWAP3 SWAP1 SWAP3 ADD PUSH1 0x40 ADD SWAP4 SWAP3 POP POP POP JUMP JUMPDEST PUSH1 0x0 DUP1 PUSH1 0x0 PUSH1 0x60 DUP5 DUP7 SUB SLT ISZERO PUSH2 0xF2B JUMPI PUSH1 0x0 DUP1 REVERT JUMPDEST PUSH2 0xF34 DUP5 PUSH2 0xE7B JUMP JUMPDEST SWAP3 POP PUSH2 0xF42 PUSH1 0x20 DUP6 ADD PUSH2 0xE7B JUMP JUMPDEST SWAP2 POP PUSH1 0x40 DUP5 ADD CALLDATALOAD SWAP1 POP SWAP3 POP SWAP3 POP SWAP3 JUMP JUMPDEST PUSH1 0x0 PUSH1 0x20 DUP3 DUP5 SUB SLT ISZERO PUSH2 0xF64 JUMPI PUSH1 0x0 DUP1 REVERT JUMPDEST PUSH2 0xE5B DUP3 PUSH2 0xE7B JUMP JUMPDEST PUSH1 0x0 PUSH1 0x20 DUP3 DUP5 SUB SLT ISZERO PUSH2 0xF7F JUMPI PUSH1 0x0 DUP1 REVERT JUMPDEST POP CALLDATALOAD SWAP2 SWAP1 POP JUMP JUMPDEST PUSH1 0x0 DUP1 PUSH1 0x40 DUP4 DUP6 SUB SLT ISZERO PUSH2 0xF99 JUMPI PUSH1 0x0 DUP1 REVERT JUMPDEST PUSH2 0xFA2 DUP4 PUSH2 0xE7B JUMP JUMPDEST SWAP2 POP PUSH2 0xFB0 PUSH1 0x20 DUP5 ADD PUSH2 0xE7B JUMP JUMPDEST SWAP1 POP SWAP3 POP SWAP3 SWAP1 POP JUMP JUMPDEST PUSH1 0x20 DUP1 DUP3 MSTORE DUP2 DUP2 ADD MSTORE PUSH32 0x4F776E61626C653A2063616C6C6572206973206E6F7420746865206F776E6572 PUSH1 0x40 DUP3 ADD MSTORE PUSH1 0x60 ADD SWAP1 JUMP JUMPDEST PUSH1 0x1 DUP2 DUP2 SHR SWAP1 DUP3 AND DUP1 PUSH2 0x1002 JUMPI PUSH1 0x7F DUP3 AND SWAP2 POP JUMPDEST PUSH1 0x20 DUP3 LT DUP2 SUB PUSH2 0x1022 JUMPI PUSH4 0x4E487B71 PUSH1 0xE0 SHL PUSH1 0x0 MSTORE PUSH1 0x22 PUSH1 0x4 MSTORE PUSH1 0x24 PUSH1 0x0 REVERT JUMPDEST POP SWAP2 SWAP1 POP JUMP JUMPDEST PUSH4 0x4E487B71 PUSH1 0xE0 SHL PUSH1 0x0 MSTORE PUSH1 0x11 PUSH1 0x4 MSTORE PUSH1 0x24 PUSH1 0x0 REVERT JUMPDEST PUSH1 0x0 DUP3 NOT DUP3 GT ISZERO PUSH2 0x1051 JUMPI PUSH2 0x1051 PUSH2 0x1028 JUMP JUMPDEST POP ADD SWAP1 JUMP JUMPDEST PUSH1 0x1 DUP2 DUP2 JUMPDEST DUP1 DUP6 GT ISZERO PUSH2 0x1091 JUMPI DUP2 PUSH1 0x0 NOT DIV DUP3 GT ISZERO PUSH2 0x1077 JUMPI PUSH2 0x1077 PUSH2 0x1028 JUMP JUMPDEST DUP1 DUP6 AND ISZERO PUSH2 0x1084 JUMPI SWAP2 DUP2 MUL SWAP2 JUMPDEST SWAP4 DUP5 SHR SWAP4 SWAP1 DUP1 MUL SWAP1 PUSH2 0x105B JUMP JUMPDEST POP SWAP3 POP SWAP3 SWAP1 POP JUMP JUMPDEST PUSH1 0x0 DUP3 PUSH2 0x10A8 JUMPI POP PUSH1 0x1 PUSH2 0x4A0 JUMP JUMPDEST DUP2 PUSH2 0x10B5 JUMPI POP PUSH1 0x0 PUSH2 0x4A0 JUMP JUMPDEST DUP2 PUSH1 0x1 DUP2 EQ PUSH2 0x10CB JUMPI PUSH1 0x2 DUP2 EQ PUSH2 0x10D5 JUMPI PUSH2 0x10F1 JUMP JUMPDEST PUSH1 0x1 SWAP2 POP POP PUSH2 0x4A0 JUMP JUMPDEST PUSH1 0xFF DUP5 GT ISZERO PUSH2 0x10E6 JUMPI PUSH2 0x10E6 PUSH2 0x1028 JUMP JUMPDEST POP POP PUSH1 0x1 DUP3 SHL PUSH2 0x4A0 JUMP JUMPDEST POP PUSH1 0x20 DUP4 LT PUSH2 0x133 DUP4 LT AND PUSH1 0x4E DUP5 LT PUSH1 0xB DUP5 LT AND OR ISZERO PUSH2 0x1114 JUMPI POP DUP2 DUP2 EXP PUSH2 0x4A0 JUMP JUMPDEST PUSH2 0x111E DUP4 DUP4 PUSH2 0x1056 JUMP JUMPDEST DUP1 PUSH1 0x0 NOT DIV DUP3 GT ISZERO PUSH2 0x1132 JUMPI PUSH2 0x1132 PUSH2 0x1028 JUMP JUMPDEST MUL SWAP4 SWAP3 POP POP POP JUMP JUMPDEST PUSH1 0x0 PUSH2 0xE5B PUSH1 0xFF DUP5 AND DUP4 PUSH2 0x1099 JUMP JUMPDEST PUSH1 0x0 DUP2 PUSH1 0x0 NOT DIV DUP4 GT DUP3 ISZERO ISZERO AND ISZERO PUSH2 0x1163 JUMPI PUSH2 0x1163 PUSH2 0x1028 JUMP JUMPDEST POP MUL SWAP1 JUMP JUMPDEST PUSH1 0x0 PUSH1 0x20 DUP3 DUP5 SUB SLT ISZERO PUSH2 0x117A JUMPI PUSH1 0x0 DUP1 REVERT JUMPDEST POP MLOAD SWAP2 SWAP1 POP JUMP JUMPDEST PUSH1 0x0 PUSH1 0x20 DUP3 DUP5 SUB SLT ISZERO PUSH2 0x1193 JUMPI PUSH1 0x0 DUP1 REVERT JUMPDEST DUP2 MLOAD DUP1 ISZERO ISZERO DUP2 EQ PUSH2 0xE5B JUMPI PUSH1 0x0 DUP1 REVERT JUMPDEST PUSH1 0x0 DUP3 PUSH2 0x11C0 JUMPI PUSH4 0x4E487B71 PUSH1 0xE0 SHL PUSH1 0x0 MSTORE PUSH1 0x12 PUSH1 0x4 MSTORE PUSH1 0x24 PUSH1 0x0 REVERT JUMPDEST POP DIV SWAP1 JUMP INVALID LOG2 PUSH5 0x6970667358 0x22 SLT KECCAK256 0xD6 0xDC BLOCKHASH PUSH22 0x610AC417FEAB9892B7CE92037624A6A06A49936C28CD 0xD 0xCB LOG0 0xD6 PUSH17 0x6E64736F6C634300080D00330000000000 "
				},
				"gasEstimates": {
					"creation": {
						"codeDepositCost": "920600",
						"executionCost": "infinite",
						"totalCost": "infinite"
					},
					"external": {
						"allowance(address,address)": "infinite",
						"approve(address,uint256)": "24665",
						"balanceOf(address)": "2651",
						"buy()": "infinite",
						"decimals()": "2334",
						"decreaseAllowance(address,uint256)": "26910",
						"increaseAllowance(address,uint256)": "27002",
						"name()": "infinite",
						"owner()": "2368",
						"renounceOwnership()": "28140",
						"symbol()": "infinite",
						"totalSupply()": "2371",
						"transfer(address,uint256)": "infinite",
						"transferBalanceToUser(address,uint256)": "infinite",
						"transferBalanceToYuki(uint256)": "infinite",
						"transferFrom(address,address,uint256)": "infinite",
						"transferOwnership(address)": "28422",
						"transferTokenToUser(address,uint256)": "infinite"
					},
					"internal": {
						"_transferTokenToUser(address,uint256)": "infinite"
					}
				},
				"methodIdentifiers": {
					"allowance(address,address)": "dd62ed3e",
					"approve(address,uint256)": "095ea7b3",
					"balanceOf(address)": "70a08231",
					"buy()": "a6f2ae3a",
					"decimals()": "313ce567",
					"decreaseAllowance(address,uint256)": "a457c2d7",
					"increaseAllowance(address,uint256)": "39509351",
					"name()": "06fdde03",
					"owner()": "8da5cb5b",
					"renounceOwnership()": "715018a6",
					"symbol()": "95d89b41",
					"totalSupply()": "18160ddd",
					"transfer(address,uint256)": "a9059cbb",
					"transferBalanceToUser(address,uint256)": "0510a5b3",
					"transferBalanceToYuki(uint256)": "715994e3",
					"transferFrom(address,address,uint256)": "23b872dd",
					"transferOwnership(address)": "f2fde38b",
					"transferTokenToUser(address,uint256)": "4664ffea"
				}
			},
			"storageLayout": {
				"storage": [
					{
						"astId": 120,
						"contract": "contracts/YNPresalePair.sol:YNPresalePair",
						"label": "_balances",
						"offset": 0,
						"slot": "0",
						"type": "t_mapping(t_address,t_uint256)"
					},
					{
						"astId": 126,
						"contract": "contracts/YNPresalePair.sol:YNPresalePair",
						"label": "_allowances",
						"offset": 0,
						"slot": "1",
						"type": "t_mapping(t_address,t_mapping(t_address,t_uint256))"
					},
					{
						"astId": 128,
						"contract": "contracts/YNPresalePair.sol:YNPresalePair",
						"label": "_totalSupply",
						"offset": 0,
						"slot": "2",
						"type": "t_uint256"
					},
					{
						"astId": 130,
						"contract": "contracts/YNPresalePair.sol:YNPresalePair",
						"label": "_name",
						"offset": 0,
						"slot": "3",
						"type": "t_string_storage"
					},
					{
						"astId": 132,
						"contract": "contracts/YNPresalePair.sol:YNPresalePair",
						"label": "_symbol",
						"offset": 0,
						"slot": "4",
						"type": "t_string_storage"
					},
					{
						"astId": 7,
						"contract": "contracts/YNPresalePair.sol:YNPresalePair",
						"label": "_owner",
						"offset": 0,
						"slot": "5",
						"type": "t_address"
					},
					{
						"astId": 1204,
						"contract": "contracts/YNPresalePair.sol:YNPresalePair",
						"label": "_buyFee",
						"offset": 0,
						"slot": "6",
						"type": "t_uint256"
					},
					{
						"astId": 1207,
						"contract": "contracts/YNPresalePair.sol:YNPresalePair",
						"label": "_saleFee",
						"offset": 0,
						"slot": "7",
						"type": "t_uint256"
					},
					{
						"astId": 1214,
						"contract": "contracts/YNPresalePair.sol:YNPresalePair",
						"label": "ETH",
						"offset": 0,
						"slot": "8",
						"type": "t_uint256"
					},
					{
						"astId": 1217,
						"contract": "contracts/YNPresalePair.sol:YNPresalePair",
						"label": "_maxBuy",
						"offset": 0,
						"slot": "9",
						"type": "t_uint256"
					},
					{
						"astId": 1220,
						"contract": "contracts/YNPresalePair.sol:YNPresalePair",
						"label": "_maxSale",
						"offset": 0,
						"slot": "10",
						"type": "t_uint256"
					},
					{
						"astId": 1223,
						"contract": "contracts/YNPresalePair.sol:YNPresalePair",
						"label": "_decimal",
						"offset": 0,
						"slot": "11",
						"type": "t_uint8"
					}
				],
				"types": {
					"t_address": {
						"encoding": "inplace",
						"label": "address",
						"numberOfBytes": "20"
					},
					"t_mapping(t_address,t_mapping(t_address,t_uint256))": {
						"encoding": "mapping",
						"key": "t_address",
						"label": "mapping(address => mapping(address => uint256))",
						"numberOfBytes": "32",
						"value": "t_mapping(t_address,t_uint256)"
					},
					"t_mapping(t_address,t_uint256)": {
						"encoding": "mapping",
						"key": "t_address",
						"label": "mapping(address => uint256)",
						"numberOfBytes": "32",
						"value": "t_uint256"
					},
					"t_string_storage": {
						"encoding": "bytes",
						"label": "string",
						"numberOfBytes": "32"
					},
					"t_uint256": {
						"encoding": "inplace",
						"label": "uint256",
						"numberOfBytes": "32"
					},
					"t_uint8": {
						"encoding": "inplace",
						"label": "uint8",
						"numberOfBytes": "1"
					}
				}
			},
			"userdoc": {
				"kind": "user",
				"methods": {},
				"version": 1
			}
		}
	}
}