{
	"contracts/YNPresalePair.sol": {
		"YNPresalePair": {
			"abi": [
				{
					"inputs": [
						{
							"internalType": "uint256",
							"name": "maxAmount",
							"type": "uint256"
						},
						{
							"internalType": "uint256",
							"name": "amountPerETH",
							"type": "uint256"
						}
					],
					"stateMutability": "nonpayable",
					"type": "constructor"
				},
				{
					"anonymous": false,
					"inputs": [
						{
							"indexed": true,
							"internalType": "address",
							"name": "owner",
							"type": "address"
						},
						{
							"indexed": true,
							"internalType": "address",
							"name": "spender",
							"type": "address"
						},
						{
							"indexed": false,
							"internalType": "uint256",
							"name": "value",
							"type": "uint256"
						}
					],
					"name": "Approval",
					"type": "event"
				},
				{
					"anonymous": false,
					"inputs": [
						{
							"indexed": true,
							"internalType": "address",
							"name": "previousOwner",
							"type": "address"
						},
						{
							"indexed": true,
							"internalType": "address",
							"name": "newOwner",
							"type": "address"
						}
					],
					"name": "OwnershipTransferred",
					"type": "event"
				},
				{
					"anonymous": false,
					"inputs": [
						{
							"indexed": true,
							"internalType": "address",
							"name": "from",
							"type": "address"
						},
						{
							"indexed": true,
							"internalType": "address",
							"name": "to",
							"type": "address"
						},
						{
							"indexed": false,
							"internalType": "uint256",
							"name": "value",
							"type": "uint256"
						}
					],
					"name": "Transfer",
					"type": "event"
				},
				{
					"inputs": [
						{
							"internalType": "address",
							"name": "owner",
							"type": "address"
						},
						{
							"internalType": "address",
							"name": "spender",
							"type": "address"
						}
					],
					"name": "allowance",
					"outputs": [
						{
							"internalType": "uint256",
							"name": "",
							"type": "uint256"
						}
					],
					"stateMutability": "view",
					"type": "function"
				},
				{
					"inputs": [
						{
							"internalType": "address",
							"name": "spender",
							"type": "address"
						},
						{
							"internalType": "uint256",
							"name": "amount",
							"type": "uint256"
						}
					],
					"name": "approve",
					"outputs": [
						{
							"internalType": "bool",
							"name": "",
							"type": "bool"
						}
					],
					"stateMutability": "nonpayable",
					"type": "function"
				},
				{
					"inputs": [
						{
							"internalType": "address",
							"name": "account",
							"type": "address"
						}
					],
					"name": "balanceOf",
					"outputs": [
						{
							"internalType": "uint256",
							"name": "",
							"type": "uint256"
						}
					],
					"stateMutability": "view",
					"type": "function"
				},
				{
					"inputs": [],
					"name": "buy",
					"outputs": [],
					"stateMutability": "payable",
					"type": "function"
				},
				{
					"inputs": [],
					"name": "decimals",
					"outputs": [
						{
							"internalType": "uint8",
							"name": "",
							"type": "uint8"
						}
					],
					"stateMutability": "view",
					"type": "function"
				},
				{
					"inputs": [
						{
							"internalType": "address",
							"name": "spender",
							"type": "address"
						},
						{
							"internalType": "uint256",
							"name": "subtractedValue",
							"type": "uint256"
						}
					],
					"name": "decreaseAllowance",
					"outputs": [
						{
							"internalType": "bool",
							"name": "",
							"type": "bool"
						}
					],
					"stateMutability": "nonpayable",
					"type": "function"
				},
				{
					"inputs": [
						{
							"internalType": "address",
							"name": "spender",
							"type": "address"
						},
						{
							"internalType": "uint256",
							"name": "addedValue",
							"type": "uint256"
						}
					],
					"name": "increaseAllowance",
					"outputs": [
						{
							"internalType": "bool",
							"name": "",
							"type": "bool"
						}
					],
					"stateMutability": "nonpayable",
					"type": "function"
				},
				{
					"inputs": [],
					"name": "name",
					"outputs": [
						{
							"internalType": "string",
							"name": "",
							"type": "string"
						}
					],
					"stateMutability": "view",
					"type": "function"
				},
				{
					"inputs": [],
					"name": "owner",
					"outputs": [
						{
							"internalType": "address",
							"name": "",
							"type": "address"
						}
					],
					"stateMutability": "view",
					"type": "function"
				},
				{
					"inputs": [],
					"name": "renounceOwnership",
					"outputs": [],
					"stateMutability": "nonpayable",
					"type": "function"
				},
				{
					"inputs": [],
					"name": "symbol",
					"outputs": [
						{
							"internalType": "string",
							"name": "",
							"type": "string"
						}
					],
					"stateMutability": "view",
					"type": "function"
				},
				{
					"inputs": [],
					"name": "totalSupply",
					"outputs": [
						{
							"internalType": "uint256",
							"name": "",
							"type": "uint256"
						}
					],
					"stateMutability": "view",
					"type": "function"
				},
				{
					"inputs": [
						{
							"internalType": "address",
							"name": "recipient",
							"type": "address"
						},
						{
							"internalType": "uint256",
							"name": "amount",
							"type": "uint256"
						}
					],
					"name": "transfer",
					"outputs": [
						{
							"internalType": "bool",
							"name": "",
							"type": "bool"
						}
					],
					"stateMutability": "nonpayable",
					"type": "function"
				},
				{
					"inputs": [
						{
							"internalType": "address",
							"name": "sender",
							"type": "address"
						},
						{
							"internalType": "address",
							"name": "recipient",
							"type": "address"
						},
						{
							"internalType": "uint256",
							"name": "amount",
							"type": "uint256"
						}
					],
					"name": "transferFrom",
					"outputs": [
						{
							"internalType": "bool",
							"name": "",
							"type": "bool"
						}
					],
					"stateMutability": "nonpayable",
					"type": "function"
				},
				{
					"inputs": [
						{
							"internalType": "address",
							"name": "newOwner",
							"type": "address"
						}
					],
					"name": "transferOwnership",
					"outputs": [],
					"stateMutability": "nonpayable",
					"type": "function"
				},
				{
					"inputs": [
						{
							"internalType": "address",
							"name": "user",
							"type": "address"
						},
						{
							"internalType": "uint256",
							"name": "money",
							"type": "uint256"
						}
					],
					"name": "transferTokenToUser",
					"outputs": [],
					"stateMutability": "nonpayable",
					"type": "function"
				}
			],
			"devdoc": {
				"kind": "dev",
				"methods": {
					"allowance(address,address)": {
						"details": "See {IERC20-allowance}."
					},
					"approve(address,uint256)": {
						"details": "See {IERC20-approve}. Requirements: - `spender` cannot be the zero address."
					},
					"balanceOf(address)": {
						"details": "See {IERC20-balanceOf}."
					},
					"decimals()": {
						"details": "Returns the number of decimals used to get its user representation. For example, if `decimals` equals `2`, a balance of `505` tokens should be displayed to a user as `5.05` (`505 / 10 ** 2`). Tokens usually opt for a value of 18, imitating the relationship between Ether and Wei. This is the value {ERC20} uses, unless this function is overridden; NOTE: This information is only used for _display_ purposes: it in no way affects any of the arithmetic of the contract, including {IERC20-balanceOf} and {IERC20-transfer}."
					},
					"decreaseAllowance(address,uint256)": {
						"details": "Atomically decreases the allowance granted to `spender` by the caller. This is an alternative to {approve} that can be used as a mitigation for problems described in {IERC20-approve}. Emits an {Approval} event indicating the updated allowance. Requirements: - `spender` cannot be the zero address. - `spender` must have allowance for the caller of at least `subtractedValue`."
					},
					"increaseAllowance(address,uint256)": {
						"details": "Atomically increases the allowance granted to `spender` by the caller. This is an alternative to {approve} that can be used as a mitigation for problems described in {IERC20-approve}. Emits an {Approval} event indicating the updated allowance. Requirements: - `spender` cannot be the zero address."
					},
					"name()": {
						"details": "Returns the name of the token."
					},
					"owner()": {
						"details": "Returns the address of the current owner."
					},
					"renounceOwnership()": {
						"details": "Leaves the contract without owner. It will not be possible to call `onlyOwner` functions anymore. Can only be called by the current owner. NOTE: Renouncing ownership will leave the contract without an owner, thereby removing any functionality that is only available to the owner."
					},
					"symbol()": {
						"details": "Returns the symbol of the token, usually a shorter version of the name."
					},
					"totalSupply()": {
						"details": "See {IERC20-totalSupply}."
					},
					"transfer(address,uint256)": {
						"details": "See {IERC20-transfer}. Requirements: - `recipient` cannot be the zero address. - the caller must have a balance of at least `amount`."
					},
					"transferFrom(address,address,uint256)": {
						"details": "See {IERC20-transferFrom}. Emits an {Approval} event indicating the updated allowance. This is not required by the EIP. See the note at the beginning of {ERC20}. Requirements: - `sender` and `recipient` cannot be the zero address. - `sender` must have a balance of at least `amount`. - the caller must have allowance for ``sender``'s tokens of at least `amount`."
					},
					"transferOwnership(address)": {
						"details": "Transfers ownership of the contract to a new account (`newOwner`). Can only be called by the current owner."
					}
				},
				"version": 1
			},
			"evm": {
				"assembly": "    /* \"contracts/YNPresalePair.sol\":256:2465  contract YNPresalePair is ERC20, Ownable {... */\n  mstore(0x40, 0x80)\n    /* \"contracts/YNPresalePair.sol\":357:358  0 */\n  0x00\n    /* \"contracts/YNPresalePair.sol\":341:358  uint256 _buyFee=0 */\n  0x06\n  sstore\n    /* \"contracts/YNPresalePair.sol\":382:383  0 */\n  0x00\n    /* \"contracts/YNPresalePair.sol\":365:383  uint256 _saleFee=0 */\n  0x07\n  sstore\n    /* \"contracts/YNPresalePair.sol\":402:414  1 * 10 ** 18 */\n  0x0de0b6b3a7640000\n    /* \"contracts/YNPresalePair.sol\":390:414  uint256 ETH=1 * 10 ** 18 */\n  0x08\n  sstore\n    /* \"contracts/YNPresalePair.sol\":438:450  1 * 10 ** 18 */\n  0x0de0b6b3a7640000\n    /* \"contracts/YNPresalePair.sol\":423:450  uint256 maxBuy=1 * 10 ** 18 */\n  0x09\n  sstore\n    /* \"contracts/YNPresalePair.sol\":473:485  1 * 10 ** 18 */\n  0x0de0b6b3a7640000\n    /* \"contracts/YNPresalePair.sol\":457:485  uint256 maxSale=1 * 10 ** 18 */\n  0x0a\n  sstore\n    /* \"contracts/YNPresalePair.sol\":494:724  constructor(uint256 maxAmount,uint256 amountPerETH) ERC20(\"Yuki Presale Pair\", \"YN-PPs\") {... */\n  callvalue\n  dup1\n  iszero\n  tag_1\n  jumpi\n  0x00\n  dup1\n  revert\ntag_1:\n  pop\n  mload(0x40)\n  sub(codesize, bytecodeSize)\n  dup1\n  bytecodeSize\n  dup4\n  codecopy\n  dup2\n  add\n  0x40\n  dup2\n  swap1\n  mstore\n  tag_2\n  swap2\n  tag_3\n  jump\t// in\ntag_2:\n    /* \"@openzeppelin/contracts/token/ERC20/ERC20.sol\":1963:2076  constructor(string memory name_, string memory symbol_) {... */\n  0x40\n  dup1\n  mload\n  dup1\n  dup3\n  add\n  dup3\n  mstore\n  0x11\n  dup2\n  mstore\n  shl(0x79, 0x2cbab5b490283932b9b0b632902830b4b9)\n  0x20\n  dup1\n  dup4\n  add\n  swap2\n  dup3\n  mstore\n  dup4\n  mload\n  dup1\n  dup6\n  add\n  swap1\n  swap5\n  mstore\n  0x06\n  dup5\n  mstore\n  shl(0xd0, 0x594e2d505073)\n  swap1\n  dup5\n  add\n  mstore\n    /* \"@openzeppelin/contracts/token/ERC20/ERC20.sol\":2029:2042  _name = name_ */\n  dup2\n  mload\n    /* \"@openzeppelin/contracts/token/ERC20/ERC20.sol\":1963:2076  constructor(string memory name_, string memory symbol_) {... */\n  swap2\n  swap3\n  swap2\n    /* \"@openzeppelin/contracts/token/ERC20/ERC20.sol\":2029:2042  _name = name_ */\n  tag_8\n  swap2\n    /* \"@openzeppelin/contracts/token/ERC20/ERC20.sol\":2029:2034  _name */\n  0x03\n  swap2\n    /* \"@openzeppelin/contracts/token/ERC20/ERC20.sol\":2029:2042  _name = name_ */\n  tag_9\n  jump\t// in\ntag_8:\n  pop\n    /* \"@openzeppelin/contracts/token/ERC20/ERC20.sol\":2052:2069  _symbol = symbol_ */\n  dup1\n  mload\n  tag_10\n  swap1\n    /* \"@openzeppelin/contracts/token/ERC20/ERC20.sol\":2052:2059  _symbol */\n  0x04\n  swap1\n    /* \"@openzeppelin/contracts/token/ERC20/ERC20.sol\":2052:2069  _symbol = symbol_ */\n  0x20\n  dup5\n  add\n  swap1\n  tag_9\n  jump\t// in\ntag_10:\n  pop\n    /* \"@openzeppelin/contracts/token/ERC20/ERC20.sol\":1963:2076  constructor(string memory name_, string memory symbol_) {... */\n  pop\n  pop\n    /* \"@openzeppelin/contracts/access/Ownable.sol\":921:953  _transferOwnership(_msgSender()) */\n  tag_12\n    /* \"@openzeppelin/contracts/access/Ownable.sol\":940:952  _msgSender() */\n  tag_13\n    /* \"@openzeppelin/contracts/access/Ownable.sol\":940:950  _msgSender */\n  shl(0x20, tag_14)\n    /* \"@openzeppelin/contracts/access/Ownable.sol\":940:952  _msgSender() */\n  0x20\n  shr\n  jump\t// in\ntag_13:\n    /* \"@openzeppelin/contracts/access/Ownable.sol\":921:939  _transferOwnership */\n  tag_15\n    /* \"@openzeppelin/contracts/access/Ownable.sol\":921:953  _transferOwnership(_msgSender()) */\n  jump\t// in\ntag_12:\n    /* \"contracts/YNPresalePair.sol\":594:641  _mint(msg.sender, maxAmount * 10 ** decimals()) */\n  tag_17\n    /* \"contracts/YNPresalePair.sol\":600:610  msg.sender */\n  caller\n    /* \"contracts/YNPresalePair.sol\":624:640  10 ** decimals() */\n  tag_20\n    /* \"@openzeppelin/contracts/token/ERC20/ERC20.sol\":3160:3162  18 */\n  0x12\n    /* \"contracts/YNPresalePair.sol\":624:626  10 */\n  0x0a\n    /* \"contracts/YNPresalePair.sol\":624:640  10 ** decimals() */\n  tag_21\n  jump\t// in\ntag_20:\n    /* \"contracts/YNPresalePair.sol\":612:640  maxAmount * 10 ** decimals() */\n  tag_22\n  swap1\n    /* \"contracts/YNPresalePair.sol\":612:621  maxAmount */\n  dup6\n    /* \"contracts/YNPresalePair.sol\":612:640  maxAmount * 10 ** decimals() */\n  tag_23\n  jump\t// in\ntag_22:\n    /* \"contracts/YNPresalePair.sol\":594:599  _mint */\n  tag_24\n    /* \"contracts/YNPresalePair.sol\":594:641  _mint(msg.sender, maxAmount * 10 ** decimals()) */\n  jump\t// in\ntag_17:\n    /* \"contracts/YNPresalePair.sol\":666:678  amountPerETH */\n  dup1\n    /* \"contracts/YNPresalePair.sol\":660:663  ETH */\n  sload(0x08)\n    /* \"contracts/YNPresalePair.sol\":660:678  ETH / amountPerETH */\n  tag_25\n  swap2\n  swap1\n  tag_26\n  jump\t// in\ntag_25:\n    /* \"contracts/YNPresalePair.sol\":652:659  _buyFee */\n  0x06\n    /* \"contracts/YNPresalePair.sol\":652:678  _buyFee=ETH / amountPerETH */\n  sstore\n    /* \"contracts/YNPresalePair.sol\":698:701  ETH */\n  sload(0x08)\n    /* \"contracts/YNPresalePair.sol\":698:716  ETH / amountPerETH */\n  tag_27\n  swap1\n    /* \"contracts/YNPresalePair.sol\":704:716  amountPerETH */\n  dup3\n  swap1\n    /* \"contracts/YNPresalePair.sol\":698:716  ETH / amountPerETH */\n  tag_26\n  jump\t// in\ntag_27:\n    /* \"contracts/YNPresalePair.sol\":689:697  _saleFee */\n  0x07\n    /* \"contracts/YNPresalePair.sol\":689:716  _saleFee=ETH / amountPerETH */\n  sstore\n  pop\n    /* \"contracts/YNPresalePair.sol\":256:2465  contract YNPresalePair is ERC20, Ownable {... */\n  tag_61\n  swap1\n  pop\n  jump\n    /* \"@openzeppelin/contracts/utils/Context.sol\":640:736  function _msgSender() internal view virtual returns (address) {... */\ntag_14:\n    /* \"@openzeppelin/contracts/utils/Context.sol\":719:729  msg.sender */\n  caller\n  swap1\n    /* \"@openzeppelin/contracts/utils/Context.sol\":640:736  function _msgSender() internal view virtual returns (address) {... */\n  jump\t// out\n    /* \"@openzeppelin/contracts/access/Ownable.sol\":2270:2457  function _transferOwnership(address newOwner) internal virtual {... */\ntag_15:\n    /* \"@openzeppelin/contracts/access/Ownable.sol\":2362:2368  _owner */\n  0x05\n  dup1\n  sload\n  sub(shl(0xa0, 0x01), 0x01)\n    /* \"@openzeppelin/contracts/access/Ownable.sol\":2378:2395  _owner = newOwner */\n  dup4\n  dup2\n  and\n  not(sub(shl(0xa0, 0x01), 0x01))\n  dup4\n  and\n  dup2\n  or\n  swap1\n  swap4\n  sstore\n    /* \"@openzeppelin/contracts/access/Ownable.sol\":2410:2450  OwnershipTransferred(oldOwner, newOwner) */\n  mload(0x40)\n    /* \"@openzeppelin/contracts/access/Ownable.sol\":2362:2368  _owner */\n  swap2\n  and\n  swap2\n    /* \"@openzeppelin/contracts/access/Ownable.sol\":2378:2395  _owner = newOwner */\n  swap1\n    /* \"@openzeppelin/contracts/access/Ownable.sol\":2362:2368  _owner */\n  dup3\n  swap1\n    /* \"@openzeppelin/contracts/access/Ownable.sol\":2410:2450  OwnershipTransferred(oldOwner, newOwner) */\n  0x8be0079c531659141344cd1fd0a4f28419497f9722a3daafe3b4186f6b6457e0\n  swap1\n    /* \"@openzeppelin/contracts/access/Ownable.sol\":2343:2359  address oldOwner */\n  0x00\n  swap1\n    /* \"@openzeppelin/contracts/access/Ownable.sol\":2410:2450  OwnershipTransferred(oldOwner, newOwner) */\n  log3\n    /* \"@openzeppelin/contracts/access/Ownable.sol\":2333:2457  {... */\n  pop\n    /* \"@openzeppelin/contracts/access/Ownable.sol\":2270:2457  function _transferOwnership(address newOwner) internal virtual {... */\n  pop\n  jump\t// out\n    /* \"@openzeppelin/contracts/token/ERC20/ERC20.sol\":8311:8700  function _mint(address account, uint256 amount) internal virtual {... */\ntag_24:\n  sub(shl(0xa0, 0x01), 0x01)\n    /* \"@openzeppelin/contracts/token/ERC20/ERC20.sol\":8394:8415  account != address(0) */\n  dup3\n  and\n    /* \"@openzeppelin/contracts/token/ERC20/ERC20.sol\":8386:8451  require(account != address(0), \"ERC20: mint to the zero address\") */\n  tag_33\n  jumpi\n  mload(0x40)\n  shl(0xe5, 0x461bcd)\n  dup2\n  mstore\n    /* \"#utility.yul\":2376:2378   */\n  0x20\n    /* \"@openzeppelin/contracts/token/ERC20/ERC20.sol\":8386:8451  require(account != address(0), \"ERC20: mint to the zero address\") */\n  0x04\n  dup3\n  add\n    /* \"#utility.yul\":2358:2379   */\n  mstore\n    /* \"#utility.yul\":2415:2417   */\n  0x1f\n    /* \"#utility.yul\":2395:2413   */\n  0x24\n  dup3\n  add\n    /* \"#utility.yul\":2388:2418   */\n  mstore\n    /* \"#utility.yul\":2454:2487   */\n  0x45524332303a206d696e7420746f20746865207a65726f206164647265737300\n    /* \"#utility.yul\":2434:2452   */\n  0x44\n  dup3\n  add\n    /* \"#utility.yul\":2427:2488   */\n  mstore\n    /* \"#utility.yul\":2505:2523   */\n  0x64\n  add\n    /* \"@openzeppelin/contracts/token/ERC20/ERC20.sol\":8386:8451  require(account != address(0), \"ERC20: mint to the zero address\") */\n  mload(0x40)\n  dup1\n  swap2\n  sub\n  swap1\n  revert\ntag_33:\n    /* \"@openzeppelin/contracts/token/ERC20/ERC20.sol\":8538:8544  amount */\n  dup1\n    /* \"@openzeppelin/contracts/token/ERC20/ERC20.sol\":8522:8534  _totalSupply */\n  0x02\n  0x00\n    /* \"@openzeppelin/contracts/token/ERC20/ERC20.sol\":8522:8544  _totalSupply += amount */\n  dup3\n  dup3\n  sload\n  tag_38\n  swap2\n  swap1\n  tag_39\n  jump\t// in\ntag_38:\n  swap1\n  swap2\n  sstore\n  pop\n  pop\n  sub(shl(0xa0, 0x01), 0x01)\n    /* \"@openzeppelin/contracts/token/ERC20/ERC20.sol\":8554:8572  _balances[account] */\n  dup3\n  and\n    /* \"@openzeppelin/contracts/token/ERC20/ERC20.sol\":8554:8563  _balances */\n  0x00\n    /* \"@openzeppelin/contracts/token/ERC20/ERC20.sol\":8554:8572  _balances[account] */\n  swap1\n  dup2\n  mstore\n  0x20\n  dup2\n  swap1\n  mstore\n  0x40\n  dup2\n  keccak256\n    /* \"@openzeppelin/contracts/token/ERC20/ERC20.sol\":8554:8582  _balances[account] += amount */\n  dup1\n  sload\n    /* \"@openzeppelin/contracts/token/ERC20/ERC20.sol\":8576:8582  amount */\n  dup4\n  swap3\n    /* \"@openzeppelin/contracts/token/ERC20/ERC20.sol\":8554:8563  _balances */\n  swap1\n    /* \"@openzeppelin/contracts/token/ERC20/ERC20.sol\":8554:8582  _balances[account] += amount */\n  tag_40\n  swap1\n    /* \"@openzeppelin/contracts/token/ERC20/ERC20.sol\":8576:8582  amount */\n  dup5\n  swap1\n    /* \"@openzeppelin/contracts/token/ERC20/ERC20.sol\":8554:8582  _balances[account] += amount */\n  tag_39\n  jump\t// in\ntag_40:\n  swap1\n  swap2\n  sstore\n  pop\n  pop\n    /* \"@openzeppelin/contracts/token/ERC20/ERC20.sol\":8597:8634  Transfer(address(0), account, amount) */\n  mload(0x40)\n    /* \"#utility.yul\":2813:2838   */\n  dup2\n  dup2\n  mstore\n  sub(shl(0xa0, 0x01), 0x01)\n    /* \"@openzeppelin/contracts/token/ERC20/ERC20.sol\":8597:8634  Transfer(address(0), account, amount) */\n  dup4\n  and\n  swap1\n    /* \"@openzeppelin/contracts/token/ERC20/ERC20.sol\":8614:8615  0 */\n  0x00\n  swap1\n    /* \"@openzeppelin/contracts/token/ERC20/ERC20.sol\":8597:8634  Transfer(address(0), account, amount) */\n  0xddf252ad1be2c89b69c2b068fc378daa952ba7f163c4a11628f55a4df523b3ef\n  swap1\n    /* \"#utility.yul\":2801:2803   */\n  0x20\n    /* \"#utility.yul\":2786:2804   */\n  add\n    /* \"@openzeppelin/contracts/token/ERC20/ERC20.sol\":8597:8634  Transfer(address(0), account, amount) */\n  mload(0x40)\n  dup1\n  swap2\n  sub\n  swap1\n  log3\n    /* \"@openzeppelin/contracts/token/ERC20/ERC20.sol\":8311:8700  function _mint(address account, uint256 amount) internal virtual {... */\n  pop\n  pop\n  jump\t// out\n    /* \"contracts/YNPresalePair.sol\":256:2465  contract YNPresalePair is ERC20, Ownable {... */\ntag_9:\n  dup3\n  dup1\n  sload\n  tag_47\n  swap1\n  tag_48\n  jump\t// in\ntag_47:\n  swap1\n  0x00\n  mstore\n  keccak256(0x00, 0x20)\n  swap1\n  0x1f\n  add\n  0x20\n  swap1\n  div\n  dup2\n  add\n  swap3\n  dup3\n  tag_50\n  jumpi\n  0x00\n  dup6\n  sstore\n  jump(tag_53)\ntag_50:\n  dup3\n  0x1f\n  lt\n  tag_51\n  jumpi\n  dup1\n  mload\n  not(0xff)\n  and\n  dup4\n  dup1\n  add\n  or\n  dup6\n  sstore\n  jump(tag_53)\ntag_51:\n  dup3\n  dup1\n  add\n  0x01\n  add\n  dup6\n  sstore\n  dup3\n  iszero\n  tag_53\n  jumpi\n  swap2\n  dup3\n  add\ntag_52:\n  dup3\n  dup2\n  gt\n  iszero\n  tag_53\n  jumpi\n  dup3\n  mload\n  dup3\n  sstore\n  swap2\n  0x20\n  add\n  swap2\n  swap1\n  0x01\n  add\n  swap1\n  jump(tag_52)\ntag_53:\n  pop\n  tag_54\n  swap3\n  swap2\n  pop\n  tag_55\n  jump\t// in\ntag_54:\n  pop\n  swap1\n  jump\t// out\ntag_55:\ntag_56:\n  dup1\n  dup3\n  gt\n  iszero\n  tag_54\n  jumpi\n  0x00\n  dup2\n  sstore\n  0x01\n  add\n  jump(tag_56)\n    /* \"#utility.yul\":14:259   */\ntag_3:\n    /* \"#utility.yul\":93:99   */\n  0x00\n    /* \"#utility.yul\":101:107   */\n  dup1\n    /* \"#utility.yul\":154:156   */\n  0x40\n    /* \"#utility.yul\":142:151   */\n  dup4\n    /* \"#utility.yul\":133:140   */\n  dup6\n    /* \"#utility.yul\":129:152   */\n  sub\n    /* \"#utility.yul\":125:157   */\n  slt\n    /* \"#utility.yul\":122:174   */\n  iszero\n  tag_63\n  jumpi\n    /* \"#utility.yul\":170:171   */\n  0x00\n    /* \"#utility.yul\":167:168   */\n  dup1\n    /* \"#utility.yul\":160:172   */\n  revert\n    /* \"#utility.yul\":122:174   */\ntag_63:\n  pop\n  pop\n    /* \"#utility.yul\":193:209   */\n  dup1\n  mload\n    /* \"#utility.yul\":249:251   */\n  0x20\n    /* \"#utility.yul\":234:252   */\n  swap1\n  swap2\n  add\n    /* \"#utility.yul\":228:253   */\n  mload\n    /* \"#utility.yul\":193:209   */\n  swap1\n  swap3\n    /* \"#utility.yul\":228:253   */\n  swap1\n  swap2\n  pop\n    /* \"#utility.yul\":14:259   */\n  jump\t// out\n    /* \"#utility.yul\":264:391   */\ntag_58:\n    /* \"#utility.yul\":325:335   */\n  0x4e487b71\n    /* \"#utility.yul\":320:323   */\n  0xe0\n    /* \"#utility.yul\":316:336   */\n  shl\n    /* \"#utility.yul\":313:314   */\n  0x00\n    /* \"#utility.yul\":306:337   */\n  mstore\n    /* \"#utility.yul\":356:360   */\n  0x11\n    /* \"#utility.yul\":353:354   */\n  0x04\n    /* \"#utility.yul\":346:361   */\n  mstore\n    /* \"#utility.yul\":380:384   */\n  0x24\n    /* \"#utility.yul\":377:378   */\n  0x00\n    /* \"#utility.yul\":370:385   */\n  revert\n    /* \"#utility.yul\":396:818   */\ntag_59:\n    /* \"#utility.yul\":485:486   */\n  0x01\n    /* \"#utility.yul\":528:533   */\n  dup2\n    /* \"#utility.yul\":485:486   */\n  dup2\n    /* \"#utility.yul\":542:812   */\ntag_66:\n    /* \"#utility.yul\":563:570   */\n  dup1\n    /* \"#utility.yul\":553:561   */\n  dup6\n    /* \"#utility.yul\":550:571   */\n  gt\n    /* \"#utility.yul\":542:812   */\n  iszero\n  tag_68\n  jumpi\n    /* \"#utility.yul\":622:626   */\n  dup2\n    /* \"#utility.yul\":618:619   */\n  0x00\n    /* \"#utility.yul\":614:620   */\n  not\n    /* \"#utility.yul\":610:627   */\n  div\n    /* \"#utility.yul\":604:608   */\n  dup3\n    /* \"#utility.yul\":601:628   */\n  gt\n    /* \"#utility.yul\":598:651   */\n  iszero\n  tag_70\n  jumpi\n    /* \"#utility.yul\":631:649   */\n  tag_70\n  tag_58\n  jump\t// in\ntag_70:\n    /* \"#utility.yul\":681:688   */\n  dup1\n    /* \"#utility.yul\":671:679   */\n  dup6\n    /* \"#utility.yul\":667:689   */\n  and\n    /* \"#utility.yul\":664:719   */\n  iszero\n  tag_71\n  jumpi\n    /* \"#utility.yul\":701:717   */\n  swap2\n  dup2\n  mul\n  swap2\n    /* \"#utility.yul\":664:719   */\ntag_71:\n    /* \"#utility.yul\":780:802   */\n  swap4\n  dup5\n  shr\n  swap4\n    /* \"#utility.yul\":740:755   */\n  swap1\n  dup1\n  mul\n  swap1\n    /* \"#utility.yul\":542:812   */\n  jump(tag_66)\ntag_68:\n    /* \"#utility.yul\":546:549   */\n  pop\n    /* \"#utility.yul\":396:818   */\n  swap3\n  pop\n  swap3\n  swap1\n  pop\n  jump\t// out\n    /* \"#utility.yul\":823:1629   */\ntag_60:\n    /* \"#utility.yul\":872:877   */\n  0x00\n    /* \"#utility.yul\":902:910   */\n  dup3\n    /* \"#utility.yul\":892:972   */\n  tag_73\n  jumpi\n  pop\n    /* \"#utility.yul\":943:944   */\n  0x01\n    /* \"#utility.yul\":957:962   */\n  jump(tag_72)\n    /* \"#utility.yul\":892:972   */\ntag_73:\n    /* \"#utility.yul\":991:995   */\n  dup2\n    /* \"#utility.yul\":981:1057   */\n  tag_74\n  jumpi\n  pop\n    /* \"#utility.yul\":1028:1029   */\n  0x00\n    /* \"#utility.yul\":1042:1047   */\n  jump(tag_72)\n    /* \"#utility.yul\":981:1057   */\ntag_74:\n    /* \"#utility.yul\":1073:1077   */\n  dup2\n    /* \"#utility.yul\":1091:1092   */\n  0x01\n    /* \"#utility.yul\":1086:1145   */\n  dup2\n  eq\n  tag_76\n  jumpi\n    /* \"#utility.yul\":1159:1160   */\n  0x02\n    /* \"#utility.yul\":1154:1284   */\n  dup2\n  eq\n  tag_77\n  jumpi\n    /* \"#utility.yul\":1066:1284   */\n  jump(tag_75)\n    /* \"#utility.yul\":1086:1145   */\ntag_76:\n    /* \"#utility.yul\":1116:1117   */\n  0x01\n    /* \"#utility.yul\":1107:1117   */\n  swap2\n  pop\n    /* \"#utility.yul\":1130:1135   */\n  pop\n  jump(tag_72)\n    /* \"#utility.yul\":1154:1284   */\ntag_77:\n    /* \"#utility.yul\":1191:1194   */\n  0xff\n    /* \"#utility.yul\":1181:1189   */\n  dup5\n    /* \"#utility.yul\":1178:1195   */\n  gt\n    /* \"#utility.yul\":1175:1218   */\n  iszero\n  tag_79\n  jumpi\n    /* \"#utility.yul\":1198:1216   */\n  tag_79\n  tag_58\n  jump\t// in\ntag_79:\n  pop\n  pop\n    /* \"#utility.yul\":1254:1255   */\n  0x01\n    /* \"#utility.yul\":1240:1256   */\n  dup3\n  shl\n    /* \"#utility.yul\":1269:1274   */\n  jump(tag_72)\n    /* \"#utility.yul\":1066:1284   */\ntag_75:\n  pop\n    /* \"#utility.yul\":1368:1370   */\n  0x20\n    /* \"#utility.yul\":1358:1366   */\n  dup4\n    /* \"#utility.yul\":1355:1371   */\n  lt\n    /* \"#utility.yul\":1349:1352   */\n  0x0133\n    /* \"#utility.yul\":1343:1347   */\n  dup4\n    /* \"#utility.yul\":1340:1353   */\n  lt\n    /* \"#utility.yul\":1336:1372   */\n  and\n    /* \"#utility.yul\":1330:1332   */\n  0x4e\n    /* \"#utility.yul\":1320:1328   */\n  dup5\n    /* \"#utility.yul\":1317:1333   */\n  lt\n    /* \"#utility.yul\":1312:1314   */\n  0x0b\n    /* \"#utility.yul\":1306:1310   */\n  dup5\n    /* \"#utility.yul\":1303:1315   */\n  lt\n    /* \"#utility.yul\":1299:1334   */\n  and\n    /* \"#utility.yul\":1296:1373   */\n  or\n    /* \"#utility.yul\":1293:1452   */\n  iszero\n  tag_80\n  jumpi\n  pop\n    /* \"#utility.yul\":1405:1424   */\n  dup2\n  dup2\n  exp\n    /* \"#utility.yul\":1437:1442   */\n  jump(tag_72)\n    /* \"#utility.yul\":1293:1452   */\ntag_80:\n    /* \"#utility.yul\":1484:1518   */\n  tag_81\n    /* \"#utility.yul\":1509:1517   */\n  dup4\n    /* \"#utility.yul\":1503:1507   */\n  dup4\n    /* \"#utility.yul\":1484:1518   */\n  tag_59\n  jump\t// in\ntag_81:\n    /* \"#utility.yul\":1554:1560   */\n  dup1\n    /* \"#utility.yul\":1550:1551   */\n  0x00\n    /* \"#utility.yul\":1546:1552   */\n  not\n    /* \"#utility.yul\":1542:1561   */\n  div\n    /* \"#utility.yul\":1533:1540   */\n  dup3\n    /* \"#utility.yul\":1530:1562   */\n  gt\n    /* \"#utility.yul\":1527:1585   */\n  iszero\n  tag_83\n  jumpi\n    /* \"#utility.yul\":1565:1583   */\n  tag_83\n  tag_58\n  jump\t// in\ntag_83:\n    /* \"#utility.yul\":1603:1623   */\n  mul\n  swap1\n  pop\n    /* \"#utility.yul\":823:1629   */\ntag_72:\n  swap3\n  swap2\n  pop\n  pop\n  jump\t// out\n    /* \"#utility.yul\":1634:1774   */\ntag_21:\n    /* \"#utility.yul\":1692:1697   */\n  0x00\n    /* \"#utility.yul\":1721:1768   */\n  tag_85\n    /* \"#utility.yul\":1762:1766   */\n  0xff\n    /* \"#utility.yul\":1752:1760   */\n  dup5\n    /* \"#utility.yul\":1748:1767   */\n  and\n    /* \"#utility.yul\":1742:1746   */\n  dup4\n    /* \"#utility.yul\":1721:1768   */\n  tag_60\n  jump\t// in\ntag_85:\n    /* \"#utility.yul\":1712:1768   */\n  swap4\n    /* \"#utility.yul\":1634:1774   */\n  swap3\n  pop\n  pop\n  pop\n  jump\t// out\n    /* \"#utility.yul\":1779:1947   */\ntag_23:\n    /* \"#utility.yul\":1819:1826   */\n  0x00\n    /* \"#utility.yul\":1885:1886   */\n  dup2\n    /* \"#utility.yul\":1881:1882   */\n  0x00\n    /* \"#utility.yul\":1877:1883   */\n  not\n    /* \"#utility.yul\":1873:1887   */\n  div\n    /* \"#utility.yul\":1870:1871   */\n  dup4\n    /* \"#utility.yul\":1867:1888   */\n  gt\n    /* \"#utility.yul\":1862:1863   */\n  dup3\n    /* \"#utility.yul\":1855:1864   */\n  iszero\n    /* \"#utility.yul\":1848:1865   */\n  iszero\n    /* \"#utility.yul\":1844:1889   */\n  and\n    /* \"#utility.yul\":1841:1912   */\n  iszero\n  tag_88\n  jumpi\n    /* \"#utility.yul\":1892:1910   */\n  tag_88\n  tag_58\n  jump\t// in\ntag_88:\n  pop\n    /* \"#utility.yul\":1932:1941   */\n  mul\n  swap1\n    /* \"#utility.yul\":1779:1947   */\n  jump\t// out\n    /* \"#utility.yul\":1952:2169   */\ntag_26:\n    /* \"#utility.yul\":1992:1993   */\n  0x00\n    /* \"#utility.yul\":2018:2019   */\n  dup3\n    /* \"#utility.yul\":2008:2140   */\n  tag_90\n  jumpi\n    /* \"#utility.yul\":2062:2072   */\n  0x4e487b71\n    /* \"#utility.yul\":2057:2060   */\n  0xe0\n    /* \"#utility.yul\":2053:2073   */\n  shl\n    /* \"#utility.yul\":2050:2051   */\n  0x00\n    /* \"#utility.yul\":2043:2074   */\n  mstore\n    /* \"#utility.yul\":2097:2101   */\n  0x12\n    /* \"#utility.yul\":2094:2095   */\n  0x04\n    /* \"#utility.yul\":2087:2102   */\n  mstore\n    /* \"#utility.yul\":2125:2129   */\n  0x24\n    /* \"#utility.yul\":2122:2123   */\n  0x00\n    /* \"#utility.yul\":2115:2130   */\n  revert\n    /* \"#utility.yul\":2008:2140   */\ntag_90:\n  pop\n    /* \"#utility.yul\":2154:2163   */\n  div\n  swap1\n    /* \"#utility.yul\":1952:2169   */\n  jump\t// out\n    /* \"#utility.yul\":2534:2662   */\ntag_39:\n    /* \"#utility.yul\":2574:2577   */\n  0x00\n    /* \"#utility.yul\":2605:2606   */\n  dup3\n    /* \"#utility.yul\":2601:2607   */\n  not\n    /* \"#utility.yul\":2598:2599   */\n  dup3\n    /* \"#utility.yul\":2595:2608   */\n  gt\n    /* \"#utility.yul\":2592:2631   */\n  iszero\n  tag_94\n  jumpi\n    /* \"#utility.yul\":2611:2629   */\n  tag_94\n  tag_58\n  jump\t// in\ntag_94:\n  pop\n    /* \"#utility.yul\":2647:2656   */\n  add\n  swap1\n    /* \"#utility.yul\":2534:2662   */\n  jump\t// out\n    /* \"#utility.yul\":2849:3229   */\ntag_48:\n    /* \"#utility.yul\":2928:2929   */\n  0x01\n    /* \"#utility.yul\":2924:2936   */\n  dup2\n  dup2\n  shr\n  swap1\n    /* \"#utility.yul\":2971:2983   */\n  dup3\n  and\n  dup1\n    /* \"#utility.yul\":2992:3053   */\n  tag_97\n  jumpi\n    /* \"#utility.yul\":3046:3050   */\n  0x7f\n    /* \"#utility.yul\":3038:3044   */\n  dup3\n    /* \"#utility.yul\":3034:3051   */\n  and\n    /* \"#utility.yul\":3024:3051   */\n  swap2\n  pop\n    /* \"#utility.yul\":2992:3053   */\ntag_97:\n    /* \"#utility.yul\":3099:3101   */\n  0x20\n    /* \"#utility.yul\":3091:3097   */\n  dup3\n    /* \"#utility.yul\":3088:3102   */\n  lt\n    /* \"#utility.yul\":3068:3086   */\n  dup2\n    /* \"#utility.yul\":3065:3103   */\n  sub\n    /* \"#utility.yul\":3062:3223   */\n  tag_98\n  jumpi\n    /* \"#utility.yul\":3145:3155   */\n  0x4e487b71\n    /* \"#utility.yul\":3140:3143   */\n  0xe0\n    /* \"#utility.yul\":3136:3156   */\n  shl\n    /* \"#utility.yul\":3133:3134   */\n  0x00\n    /* \"#utility.yul\":3126:3157   */\n  mstore\n    /* \"#utility.yul\":3180:3184   */\n  0x22\n    /* \"#utility.yul\":3177:3178   */\n  0x04\n    /* \"#utility.yul\":3170:3185   */\n  mstore\n    /* \"#utility.yul\":3208:3212   */\n  0x24\n    /* \"#utility.yul\":3205:3206   */\n  0x00\n    /* \"#utility.yul\":3198:3213   */\n  revert\n    /* \"#utility.yul\":3062:3223   */\ntag_98:\n  pop\n    /* \"#utility.yul\":2849:3229   */\n  swap2\n  swap1\n  pop\n  jump\t// out\ntag_61:\n    /* \"contracts/YNPresalePair.sol\":256:2465  contract YNPresalePair is ERC20, Ownable {... */\n  dataSize(sub_0)\n  dup1\n  dataOffset(sub_0)\n  0x00\n  codecopy\n  0x00\n  return\nstop\n\nsub_0: assembly {\n        /* \"contracts/YNPresalePair.sol\":256:2465  contract YNPresalePair is ERC20, Ownable {... */\n      mstore(0x40, 0x80)\n      jumpi(tag_1, lt(calldatasize, 0x04))\n      shr(0xe0, calldataload(0x00))\n      dup1\n      0x715018a6\n      gt\n      tag_18\n      jumpi\n      dup1\n      0xa6f2ae3a\n      gt\n      tag_19\n      jumpi\n      dup1\n      0xa6f2ae3a\n      eq\n      tag_14\n      jumpi\n      dup1\n      0xa9059cbb\n      eq\n      tag_15\n      jumpi\n      dup1\n      0xdd62ed3e\n      eq\n      tag_16\n      jumpi\n      dup1\n      0xf2fde38b\n      eq\n      tag_17\n      jumpi\n      0x00\n      dup1\n      revert\n    tag_19:\n      dup1\n      0x715018a6\n      eq\n      tag_10\n      jumpi\n      dup1\n      0x8da5cb5b\n      eq\n      tag_11\n      jumpi\n      dup1\n      0x95d89b41\n      eq\n      tag_12\n      jumpi\n      dup1\n      0xa457c2d7\n      eq\n      tag_13\n      jumpi\n      0x00\n      dup1\n      revert\n    tag_18:\n      dup1\n      0x313ce567\n      gt\n      tag_20\n      jumpi\n      dup1\n      0x313ce567\n      eq\n      tag_6\n      jumpi\n      dup1\n      0x39509351\n      eq\n      tag_7\n      jumpi\n      dup1\n      0x4664ffea\n      eq\n      tag_8\n      jumpi\n      dup1\n      0x70a08231\n      eq\n      tag_9\n      jumpi\n      0x00\n      dup1\n      revert\n    tag_20:\n      dup1\n      0x06fdde03\n      eq\n      tag_2\n      jumpi\n      dup1\n      0x095ea7b3\n      eq\n      tag_3\n      jumpi\n      dup1\n      0x18160ddd\n      eq\n      tag_4\n      jumpi\n      dup1\n      0x23b872dd\n      eq\n      tag_5\n      jumpi\n    tag_1:\n      0x00\n      dup1\n      revert\n        /* \"@openzeppelin/contracts/token/ERC20/ERC20.sol\":2141:2239  function name() public view virtual override returns (string memory) {... */\n    tag_2:\n      callvalue\n      dup1\n      iszero\n      tag_21\n      jumpi\n      0x00\n      dup1\n      revert\n    tag_21:\n      pop\n      tag_22\n      tag_23\n      jump\t// in\n    tag_22:\n      mload(0x40)\n      tag_24\n      swap2\n      swap1\n      tag_25\n      jump\t// in\n    tag_24:\n      mload(0x40)\n      dup1\n      swap2\n      sub\n      swap1\n      return\n        /* \"@openzeppelin/contracts/token/ERC20/ERC20.sol\":4238:4404  function approve(address spender, uint256 amount) public virtual override returns (bool) {... */\n    tag_3:\n      callvalue\n      dup1\n      iszero\n      tag_26\n      jumpi\n      0x00\n      dup1\n      revert\n    tag_26:\n      pop\n      tag_27\n      tag_28\n      calldatasize\n      0x04\n      tag_29\n      jump\t// in\n    tag_28:\n      tag_30\n      jump\t// in\n    tag_27:\n      mload(0x40)\n        /* \"#utility.yul\":1218:1232   */\n      swap1\n      iszero\n        /* \"#utility.yul\":1211:1233   */\n      iszero\n        /* \"#utility.yul\":1193:1234   */\n      dup2\n      mstore\n        /* \"#utility.yul\":1181:1183   */\n      0x20\n        /* \"#utility.yul\":1166:1184   */\n      add\n        /* \"@openzeppelin/contracts/token/ERC20/ERC20.sol\":4238:4404  function approve(address spender, uint256 amount) public virtual override returns (bool) {... */\n      tag_24\n        /* \"#utility.yul\":1053:1240   */\n      jump\n        /* \"@openzeppelin/contracts/token/ERC20/ERC20.sol\":3229:3335  function totalSupply() public view virtual override returns (uint256) {... */\n    tag_4:\n      callvalue\n      dup1\n      iszero\n      tag_33\n      jumpi\n      0x00\n      dup1\n      revert\n    tag_33:\n      pop\n        /* \"@openzeppelin/contracts/token/ERC20/ERC20.sol\":3316:3328  _totalSupply */\n      sload(0x02)\n        /* \"@openzeppelin/contracts/token/ERC20/ERC20.sol\":3229:3335  function totalSupply() public view virtual override returns (uint256) {... */\n    tag_34:\n      mload(0x40)\n        /* \"#utility.yul\":1391:1416   */\n      swap1\n      dup2\n      mstore\n        /* \"#utility.yul\":1379:1381   */\n      0x20\n        /* \"#utility.yul\":1364:1382   */\n      add\n        /* \"@openzeppelin/contracts/token/ERC20/ERC20.sol\":3229:3335  function totalSupply() public view virtual override returns (uint256) {... */\n      tag_24\n        /* \"#utility.yul\":1245:1422   */\n      jump\n        /* \"@openzeppelin/contracts/token/ERC20/ERC20.sol\":4871:5349  function transferFrom(... */\n    tag_5:\n      callvalue\n      dup1\n      iszero\n      tag_38\n      jumpi\n      0x00\n      dup1\n      revert\n    tag_38:\n      pop\n      tag_27\n      tag_40\n      calldatasize\n      0x04\n      tag_41\n      jump\t// in\n    tag_40:\n      tag_42\n      jump\t// in\n        /* \"@openzeppelin/contracts/token/ERC20/ERC20.sol\":3078:3169  function decimals() public view virtual override returns (uint8) {... */\n    tag_6:\n      callvalue\n      dup1\n      iszero\n      tag_44\n      jumpi\n      0x00\n      dup1\n      revert\n    tag_44:\n      pop\n      mload(0x40)\n        /* \"@openzeppelin/contracts/token/ERC20/ERC20.sol\":3160:3162  18 */\n      0x12\n        /* \"#utility.yul\":1902:1938   */\n      dup2\n      mstore\n        /* \"#utility.yul\":1890:1892   */\n      0x20\n        /* \"#utility.yul\":1875:1893   */\n      add\n        /* \"@openzeppelin/contracts/token/ERC20/ERC20.sol\":3078:3169  function decimals() public view virtual override returns (uint8) {... */\n      tag_24\n        /* \"#utility.yul\":1760:1944   */\n      jump\n        /* \"@openzeppelin/contracts/token/ERC20/ERC20.sol\":5744:5956  function increaseAllowance(address spender, uint256 addedValue) public virtual returns (bool) {... */\n    tag_7:\n      callvalue\n      dup1\n      iszero\n      tag_49\n      jumpi\n      0x00\n      dup1\n      revert\n    tag_49:\n      pop\n      tag_27\n      tag_51\n      calldatasize\n      0x04\n      tag_29\n      jump\t// in\n    tag_51:\n      tag_52\n      jump\t// in\n        /* \"contracts/YNPresalePair.sol\":732:857  function transferTokenToUser(address user,uint256 money) public onlyOwner {... */\n    tag_8:\n      callvalue\n      dup1\n      iszero\n      tag_54\n      jumpi\n      0x00\n      dup1\n      revert\n    tag_54:\n      pop\n      tag_55\n      tag_56\n      calldatasize\n      0x04\n      tag_29\n      jump\t// in\n    tag_56:\n      tag_57\n      jump\t// in\n    tag_55:\n      stop\n        /* \"@openzeppelin/contracts/token/ERC20/ERC20.sol\":3393:3518  function balanceOf(address account) public view virtual override returns (uint256) {... */\n    tag_9:\n      callvalue\n      dup1\n      iszero\n      tag_58\n      jumpi\n      0x00\n      dup1\n      revert\n    tag_58:\n      pop\n      tag_34\n      tag_60\n      calldatasize\n      0x04\n      tag_61\n      jump\t// in\n    tag_60:\n      sub(shl(0xa0, 0x01), 0x01)\n        /* \"@openzeppelin/contracts/token/ERC20/ERC20.sol\":3493:3511  _balances[account] */\n      and\n        /* \"@openzeppelin/contracts/token/ERC20/ERC20.sol\":3467:3474  uint256 */\n      0x00\n        /* \"@openzeppelin/contracts/token/ERC20/ERC20.sol\":3493:3511  _balances[account] */\n      swap1\n      dup2\n      mstore\n      0x20\n      dup2\n      swap1\n      mstore\n      0x40\n      swap1\n      keccak256\n      sload\n      swap1\n        /* \"@openzeppelin/contracts/token/ERC20/ERC20.sol\":3393:3518  function balanceOf(address account) public view virtual override returns (uint256) {... */\n      jump\n        /* \"@openzeppelin/contracts/access/Ownable.sol\":1668:1769  function renounceOwnership() public virtual onlyOwner {... */\n    tag_10:\n      callvalue\n      dup1\n      iszero\n      tag_64\n      jumpi\n      0x00\n      dup1\n      revert\n    tag_64:\n      pop\n      tag_55\n      tag_66\n      jump\t// in\n        /* \"@openzeppelin/contracts/access/Ownable.sol\":1036:1121  function owner() public view virtual returns (address) {... */\n    tag_11:\n      callvalue\n      dup1\n      iszero\n      tag_67\n      jumpi\n      0x00\n      dup1\n      revert\n    tag_67:\n      pop\n        /* \"@openzeppelin/contracts/access/Ownable.sol\":1108:1114  _owner */\n      sload(0x05)\n        /* \"@openzeppelin/contracts/access/Ownable.sol\":1036:1121  function owner() public view virtual returns (address) {... */\n      mload(0x40)\n      sub(shl(0xa0, 0x01), 0x01)\n        /* \"@openzeppelin/contracts/access/Ownable.sol\":1108:1114  _owner */\n      swap1\n      swap2\n      and\n        /* \"#utility.yul\":2286:2337   */\n      dup2\n      mstore\n        /* \"#utility.yul\":2274:2276   */\n      0x20\n        /* \"#utility.yul\":2259:2277   */\n      add\n        /* \"@openzeppelin/contracts/access/Ownable.sol\":1036:1121  function owner() public view virtual returns (address) {... */\n      tag_24\n        /* \"#utility.yul\":2140:2343   */\n      jump\n        /* \"@openzeppelin/contracts/token/ERC20/ERC20.sol\":2352:2454  function symbol() public view virtual override returns (string memory) {... */\n    tag_12:\n      callvalue\n      dup1\n      iszero\n      tag_72\n      jumpi\n      0x00\n      dup1\n      revert\n    tag_72:\n      pop\n      tag_22\n      tag_74\n      jump\t// in\n        /* \"@openzeppelin/contracts/token/ERC20/ERC20.sol\":6443:6848  function decreaseAllowance(address spender, uint256 subtractedValue) public virtual returns (bool) {... */\n    tag_13:\n      callvalue\n      dup1\n      iszero\n      tag_76\n      jumpi\n      0x00\n      dup1\n      revert\n    tag_76:\n      pop\n      tag_27\n      tag_78\n      calldatasize\n      0x04\n      tag_29\n      jump\t// in\n    tag_78:\n      tag_79\n      jump\t// in\n        /* \"contracts/YNPresalePair.sol\":1089:1686  function buy() external payable{... */\n    tag_14:\n      tag_55\n      tag_82\n      jump\t// in\n        /* \"contracts/YNPresalePair.sol\":1694:2462  function transfer(address recipient, uint256 amount) public virtual override returns (bool) {        ... */\n    tag_15:\n      callvalue\n      dup1\n      iszero\n      tag_83\n      jumpi\n      0x00\n      dup1\n      revert\n    tag_83:\n      pop\n      tag_27\n      tag_85\n      calldatasize\n      0x04\n      tag_29\n      jump\t// in\n    tag_85:\n      tag_86\n      jump\t// in\n        /* \"@openzeppelin/contracts/token/ERC20/ERC20.sol\":3951:4100  function allowance(address owner, address spender) public view virtual override returns (uint256) {... */\n    tag_16:\n      callvalue\n      dup1\n      iszero\n      tag_88\n      jumpi\n      0x00\n      dup1\n      revert\n    tag_88:\n      pop\n      tag_34\n      tag_90\n      calldatasize\n      0x04\n      tag_91\n      jump\t// in\n    tag_90:\n      sub(shl(0xa0, 0x01), 0x01)\n        /* \"@openzeppelin/contracts/token/ERC20/ERC20.sol\":4066:4084  _allowances[owner] */\n      swap2\n      dup3\n      and\n        /* \"@openzeppelin/contracts/token/ERC20/ERC20.sol\":4040:4047  uint256 */\n      0x00\n        /* \"@openzeppelin/contracts/token/ERC20/ERC20.sol\":4066:4084  _allowances[owner] */\n      swap1\n      dup2\n      mstore\n        /* \"@openzeppelin/contracts/token/ERC20/ERC20.sol\":4066:4077  _allowances */\n      0x01\n        /* \"@openzeppelin/contracts/token/ERC20/ERC20.sol\":4066:4084  _allowances[owner] */\n      0x20\n      swap1\n      dup2\n      mstore\n      0x40\n      dup1\n      dup4\n      keccak256\n        /* \"@openzeppelin/contracts/token/ERC20/ERC20.sol\":4066:4093  _allowances[owner][spender] */\n      swap4\n      swap1\n      swap5\n      and\n      dup3\n      mstore\n      swap2\n      swap1\n      swap2\n      mstore\n      keccak256\n      sload\n      swap1\n        /* \"@openzeppelin/contracts/token/ERC20/ERC20.sol\":3951:4100  function allowance(address owner, address spender) public view virtual override returns (uint256) {... */\n      jump\n        /* \"@openzeppelin/contracts/access/Ownable.sol\":1918:2116  function transferOwnership(address newOwner) public virtual onlyOwner {... */\n    tag_17:\n      callvalue\n      dup1\n      iszero\n      tag_94\n      jumpi\n      0x00\n      dup1\n      revert\n    tag_94:\n      pop\n      tag_55\n      tag_96\n      calldatasize\n      0x04\n      tag_61\n      jump\t// in\n    tag_96:\n      tag_97\n      jump\t// in\n        /* \"@openzeppelin/contracts/token/ERC20/ERC20.sol\":2141:2239  function name() public view virtual override returns (string memory) {... */\n    tag_23:\n        /* \"@openzeppelin/contracts/token/ERC20/ERC20.sol\":2195:2208  string memory */\n      0x60\n        /* \"@openzeppelin/contracts/token/ERC20/ERC20.sol\":2227:2232  _name */\n      0x03\n        /* \"@openzeppelin/contracts/token/ERC20/ERC20.sol\":2220:2232  return _name */\n      dup1\n      sload\n      tag_99\n      swap1\n      tag_100\n      jump\t// in\n    tag_99:\n      dup1\n      0x1f\n      add\n      0x20\n      dup1\n      swap2\n      div\n      mul\n      0x20\n      add\n      mload(0x40)\n      swap1\n      dup2\n      add\n      0x40\n      mstore\n      dup1\n      swap3\n      swap2\n      swap1\n      dup2\n      dup2\n      mstore\n      0x20\n      add\n      dup3\n      dup1\n      sload\n      tag_101\n      swap1\n      tag_100\n      jump\t// in\n    tag_101:\n      dup1\n      iszero\n      tag_102\n      jumpi\n      dup1\n      0x1f\n      lt\n      tag_103\n      jumpi\n      0x0100\n      dup1\n      dup4\n      sload\n      div\n      mul\n      dup4\n      mstore\n      swap2\n      0x20\n      add\n      swap2\n      jump(tag_102)\n    tag_103:\n      dup3\n      add\n      swap2\n      swap1\n      0x00\n      mstore\n      keccak256(0x00, 0x20)\n      swap1\n    tag_104:\n      dup2\n      sload\n      dup2\n      mstore\n      swap1\n      0x01\n      add\n      swap1\n      0x20\n      add\n      dup1\n      dup4\n      gt\n      tag_104\n      jumpi\n      dup3\n      swap1\n      sub\n      0x1f\n      and\n      dup3\n      add\n      swap2\n    tag_102:\n      pop\n      pop\n      pop\n      pop\n      pop\n      swap1\n      pop\n        /* \"@openzeppelin/contracts/token/ERC20/ERC20.sol\":2141:2239  function name() public view virtual override returns (string memory) {... */\n      swap1\n      jump\t// out\n        /* \"@openzeppelin/contracts/token/ERC20/ERC20.sol\":4238:4404  function approve(address spender, uint256 amount) public virtual override returns (bool) {... */\n    tag_30:\n        /* \"@openzeppelin/contracts/token/ERC20/ERC20.sol\":4321:4325  bool */\n      0x00\n        /* \"@openzeppelin/contracts/token/ERC20/ERC20.sol\":4337:4376  _approve(_msgSender(), spender, amount) */\n      tag_106\n        /* \"@openzeppelin/contracts/utils/Context.sol\":719:729  msg.sender */\n      caller\n        /* \"@openzeppelin/contracts/token/ERC20/ERC20.sol\":4360:4367  spender */\n      dup5\n        /* \"@openzeppelin/contracts/token/ERC20/ERC20.sol\":4369:4375  amount */\n      dup5\n        /* \"@openzeppelin/contracts/token/ERC20/ERC20.sol\":4337:4345  _approve */\n      tag_109\n        /* \"@openzeppelin/contracts/token/ERC20/ERC20.sol\":4337:4376  _approve(_msgSender(), spender, amount) */\n      jump\t// in\n    tag_106:\n      pop\n        /* \"@openzeppelin/contracts/token/ERC20/ERC20.sol\":4393:4397  true */\n      0x01\n        /* \"@openzeppelin/contracts/token/ERC20/ERC20.sol\":4238:4404  function approve(address spender, uint256 amount) public virtual override returns (bool) {... */\n    tag_105:\n      swap3\n      swap2\n      pop\n      pop\n      jump\t// out\n        /* \"@openzeppelin/contracts/token/ERC20/ERC20.sol\":4871:5349  function transferFrom(... */\n    tag_42:\n        /* \"@openzeppelin/contracts/token/ERC20/ERC20.sol\":5007:5011  bool */\n      0x00\n        /* \"@openzeppelin/contracts/token/ERC20/ERC20.sol\":5023:5059  _transfer(sender, recipient, amount) */\n      tag_112\n        /* \"@openzeppelin/contracts/token/ERC20/ERC20.sol\":5033:5039  sender */\n      dup5\n        /* \"@openzeppelin/contracts/token/ERC20/ERC20.sol\":5041:5050  recipient */\n      dup5\n        /* \"@openzeppelin/contracts/token/ERC20/ERC20.sol\":5052:5058  amount */\n      dup5\n        /* \"@openzeppelin/contracts/token/ERC20/ERC20.sol\":5023:5032  _transfer */\n      tag_113\n        /* \"@openzeppelin/contracts/token/ERC20/ERC20.sol\":5023:5059  _transfer(sender, recipient, amount) */\n      jump\t// in\n    tag_112:\n      sub(shl(0xa0, 0x01), 0x01)\n        /* \"@openzeppelin/contracts/token/ERC20/ERC20.sol\":5097:5116  _allowances[sender] */\n      dup5\n      and\n        /* \"@openzeppelin/contracts/token/ERC20/ERC20.sol\":5070:5094  uint256 currentAllowance */\n      0x00\n        /* \"@openzeppelin/contracts/token/ERC20/ERC20.sol\":5097:5116  _allowances[sender] */\n      swap1\n      dup2\n      mstore\n        /* \"@openzeppelin/contracts/token/ERC20/ERC20.sol\":5097:5108  _allowances */\n      0x01\n        /* \"@openzeppelin/contracts/token/ERC20/ERC20.sol\":5097:5116  _allowances[sender] */\n      0x20\n      swap1\n      dup2\n      mstore\n      0x40\n      dup1\n      dup4\n      keccak256\n        /* \"@openzeppelin/contracts/utils/Context.sol\":719:729  msg.sender */\n      caller\n        /* \"@openzeppelin/contracts/token/ERC20/ERC20.sol\":5097:5130  _allowances[sender][_msgSender()] */\n      dup5\n      mstore\n      swap1\n      swap2\n      mstore\n      swap1\n      keccak256\n      sload\n        /* \"@openzeppelin/contracts/token/ERC20/ERC20.sol\":5148:5174  currentAllowance >= amount */\n      dup3\n      dup2\n      lt\n      iszero\n        /* \"@openzeppelin/contracts/token/ERC20/ERC20.sol\":5140:5219  require(currentAllowance >= amount, \"ERC20: transfer amount exceeds allowance\") */\n      tag_115\n      jumpi\n      mload(0x40)\n      shl(0xe5, 0x461bcd)\n      dup2\n      mstore\n        /* \"#utility.yul\":3200:3202   */\n      0x20\n        /* \"@openzeppelin/contracts/token/ERC20/ERC20.sol\":5140:5219  require(currentAllowance >= amount, \"ERC20: transfer amount exceeds allowance\") */\n      0x04\n      dup3\n      add\n        /* \"#utility.yul\":3182:3203   */\n      mstore\n        /* \"#utility.yul\":3239:3241   */\n      0x28\n        /* \"#utility.yul\":3219:3237   */\n      0x24\n      dup3\n      add\n        /* \"#utility.yul\":3212:3242   */\n      mstore\n        /* \"#utility.yul\":3278:3312   */\n      0x45524332303a207472616e7366657220616d6f756e7420657863656564732061\n        /* \"#utility.yul\":3258:3276   */\n      0x44\n      dup3\n      add\n        /* \"#utility.yul\":3251:3313   */\n      mstore\n      shl(0xc0, 0x6c6c6f77616e6365)\n        /* \"#utility.yul\":3329:3347   */\n      0x64\n      dup3\n      add\n        /* \"#utility.yul\":3322:3360   */\n      mstore\n        /* \"#utility.yul\":3377:3396   */\n      0x84\n      add\n        /* \"@openzeppelin/contracts/token/ERC20/ERC20.sol\":5140:5219  require(currentAllowance >= amount, \"ERC20: transfer amount exceeds allowance\") */\n    tag_116:\n      mload(0x40)\n      dup1\n      swap2\n      sub\n      swap1\n      revert\n    tag_115:\n        /* \"@openzeppelin/contracts/token/ERC20/ERC20.sol\":5253:5310  _approve(sender, _msgSender(), currentAllowance - amount) */\n      tag_118\n        /* \"@openzeppelin/contracts/token/ERC20/ERC20.sol\":5262:5268  sender */\n      dup6\n        /* \"@openzeppelin/contracts/utils/Context.sol\":719:729  msg.sender */\n      caller\n        /* \"@openzeppelin/contracts/token/ERC20/ERC20.sol\":5303:5309  amount */\n      dup6\n        /* \"@openzeppelin/contracts/token/ERC20/ERC20.sol\":5284:5300  currentAllowance */\n      dup5\n        /* \"@openzeppelin/contracts/token/ERC20/ERC20.sol\":5284:5309  currentAllowance - amount */\n      sub\n        /* \"@openzeppelin/contracts/token/ERC20/ERC20.sol\":5253:5261  _approve */\n      tag_109\n        /* \"@openzeppelin/contracts/token/ERC20/ERC20.sol\":5253:5310  _approve(sender, _msgSender(), currentAllowance - amount) */\n      jump\t// in\n    tag_118:\n      pop\n        /* \"@openzeppelin/contracts/token/ERC20/ERC20.sol\":5338:5342  true */\n      0x01\n      swap5\n        /* \"@openzeppelin/contracts/token/ERC20/ERC20.sol\":4871:5349  function transferFrom(... */\n      swap4\n      pop\n      pop\n      pop\n      pop\n      jump\t// out\n        /* \"@openzeppelin/contracts/token/ERC20/ERC20.sol\":5744:5956  function increaseAllowance(address spender, uint256 addedValue) public virtual returns (bool) {... */\n    tag_52:\n        /* \"@openzeppelin/contracts/utils/Context.sol\":719:729  msg.sender */\n      caller\n        /* \"@openzeppelin/contracts/token/ERC20/ERC20.sol\":5832:5836  bool */\n      0x00\n        /* \"@openzeppelin/contracts/token/ERC20/ERC20.sol\":5880:5905  _allowances[_msgSender()] */\n      dup2\n      dup2\n      mstore\n        /* \"@openzeppelin/contracts/token/ERC20/ERC20.sol\":5880:5891  _allowances */\n      0x01\n        /* \"@openzeppelin/contracts/token/ERC20/ERC20.sol\":5880:5905  _allowances[_msgSender()] */\n      0x20\n      swap1\n      dup2\n      mstore\n      0x40\n      dup1\n      dup4\n      keccak256\n      sub(shl(0xa0, 0x01), 0x01)\n        /* \"@openzeppelin/contracts/token/ERC20/ERC20.sol\":5880:5914  _allowances[_msgSender()][spender] */\n      dup8\n      and\n      dup5\n      mstore\n      swap1\n      swap2\n      mstore\n      dup2\n      keccak256\n      sload\n        /* \"@openzeppelin/contracts/token/ERC20/ERC20.sol\":5832:5836  bool */\n      swap1\n      swap2\n        /* \"@openzeppelin/contracts/token/ERC20/ERC20.sol\":5848:5928  _approve(_msgSender(), spender, _allowances[_msgSender()][spender] + addedValue) */\n      tag_106\n      swap2\n        /* \"@openzeppelin/contracts/token/ERC20/ERC20.sol\":5871:5878  spender */\n      dup6\n      swap1\n        /* \"@openzeppelin/contracts/token/ERC20/ERC20.sol\":5880:5927  _allowances[_msgSender()][spender] + addedValue */\n      tag_125\n      swap1\n        /* \"@openzeppelin/contracts/token/ERC20/ERC20.sol\":5917:5927  addedValue */\n      dup7\n      swap1\n        /* \"@openzeppelin/contracts/token/ERC20/ERC20.sol\":5880:5927  _allowances[_msgSender()][spender] + addedValue */\n      tag_126\n      jump\t// in\n    tag_125:\n        /* \"@openzeppelin/contracts/token/ERC20/ERC20.sol\":5848:5856  _approve */\n      tag_109\n        /* \"@openzeppelin/contracts/token/ERC20/ERC20.sol\":5848:5928  _approve(_msgSender(), spender, _allowances[_msgSender()][spender] + addedValue) */\n      jump\t// in\n        /* \"contracts/YNPresalePair.sol\":732:857  function transferTokenToUser(address user,uint256 money) public onlyOwner {... */\n    tag_57:\n        /* \"@openzeppelin/contracts/access/Ownable.sol\":1108:1114  _owner */\n      and(sub(shl(0xa0, 0x01), 0x01), sload(0x05))\n        /* \"@openzeppelin/contracts/utils/Context.sol\":719:729  msg.sender */\n      caller\n        /* \"@openzeppelin/contracts/access/Ownable.sol\":1248:1271  owner() == _msgSender() */\n      eq\n        /* \"@openzeppelin/contracts/access/Ownable.sol\":1240:1308  require(owner() == _msgSender(), \"Ownable: caller is not the owner\") */\n      tag_130\n      jumpi\n      mload(0x40)\n      shl(0xe5, 0x461bcd)\n      dup2\n      mstore\n      0x04\n      add\n      tag_116\n      swap1\n      tag_132\n      jump\t// in\n    tag_130:\n        /* \"contracts/YNPresalePair.sol\":817:849  _transferTokenToUser(user,money) */\n      tag_134\n        /* \"contracts/YNPresalePair.sol\":838:842  user */\n      dup3\n        /* \"contracts/YNPresalePair.sol\":843:848  money */\n      dup3\n        /* \"contracts/YNPresalePair.sol\":817:837  _transferTokenToUser */\n      tag_135\n        /* \"contracts/YNPresalePair.sol\":817:849  _transferTokenToUser(user,money) */\n      jump\t// in\n    tag_134:\n        /* \"contracts/YNPresalePair.sol\":732:857  function transferTokenToUser(address user,uint256 money) public onlyOwner {... */\n      pop\n      pop\n      jump\t// out\n        /* \"@openzeppelin/contracts/access/Ownable.sol\":1668:1769  function renounceOwnership() public virtual onlyOwner {... */\n    tag_66:\n        /* \"@openzeppelin/contracts/access/Ownable.sol\":1108:1114  _owner */\n      and(sub(shl(0xa0, 0x01), 0x01), sload(0x05))\n        /* \"@openzeppelin/contracts/utils/Context.sol\":719:729  msg.sender */\n      caller\n        /* \"@openzeppelin/contracts/access/Ownable.sol\":1248:1271  owner() == _msgSender() */\n      eq\n        /* \"@openzeppelin/contracts/access/Ownable.sol\":1240:1308  require(owner() == _msgSender(), \"Ownable: caller is not the owner\") */\n      tag_140\n      jumpi\n      mload(0x40)\n      shl(0xe5, 0x461bcd)\n      dup2\n      mstore\n      0x04\n      add\n      tag_116\n      swap1\n      tag_132\n      jump\t// in\n    tag_140:\n        /* \"@openzeppelin/contracts/access/Ownable.sol\":1732:1762  _transferOwnership(address(0)) */\n      tag_143\n        /* \"@openzeppelin/contracts/access/Ownable.sol\":1759:1760  0 */\n      0x00\n        /* \"@openzeppelin/contracts/access/Ownable.sol\":1732:1750  _transferOwnership */\n      tag_144\n        /* \"@openzeppelin/contracts/access/Ownable.sol\":1732:1762  _transferOwnership(address(0)) */\n      jump\t// in\n    tag_143:\n        /* \"@openzeppelin/contracts/access/Ownable.sol\":1668:1769  function renounceOwnership() public virtual onlyOwner {... */\n      jump\t// out\n        /* \"@openzeppelin/contracts/token/ERC20/ERC20.sol\":2352:2454  function symbol() public view virtual override returns (string memory) {... */\n    tag_74:\n        /* \"@openzeppelin/contracts/token/ERC20/ERC20.sol\":2408:2421  string memory */\n      0x60\n        /* \"@openzeppelin/contracts/token/ERC20/ERC20.sol\":2440:2447  _symbol */\n      0x04\n        /* \"@openzeppelin/contracts/token/ERC20/ERC20.sol\":2433:2447  return _symbol */\n      dup1\n      sload\n      tag_99\n      swap1\n      tag_100\n      jump\t// in\n        /* \"@openzeppelin/contracts/token/ERC20/ERC20.sol\":6443:6848  function decreaseAllowance(address spender, uint256 subtractedValue) public virtual returns (bool) {... */\n    tag_79:\n        /* \"@openzeppelin/contracts/utils/Context.sol\":719:729  msg.sender */\n      caller\n        /* \"@openzeppelin/contracts/token/ERC20/ERC20.sol\":6536:6540  bool */\n      0x00\n        /* \"@openzeppelin/contracts/token/ERC20/ERC20.sol\":6579:6604  _allowances[_msgSender()] */\n      swap1\n      dup2\n      mstore\n        /* \"@openzeppelin/contracts/token/ERC20/ERC20.sol\":6579:6590  _allowances */\n      0x01\n        /* \"@openzeppelin/contracts/token/ERC20/ERC20.sol\":6579:6604  _allowances[_msgSender()] */\n      0x20\n      swap1\n      dup2\n      mstore\n      0x40\n      dup1\n      dup4\n      keccak256\n      sub(shl(0xa0, 0x01), 0x01)\n        /* \"@openzeppelin/contracts/token/ERC20/ERC20.sol\":6579:6613  _allowances[_msgSender()][spender] */\n      dup7\n      and\n      dup5\n      mstore\n      swap1\n      swap2\n      mstore\n      dup2\n      keccak256\n      sload\n        /* \"@openzeppelin/contracts/token/ERC20/ERC20.sol\":6631:6666  currentAllowance >= subtractedValue */\n      dup3\n      dup2\n      lt\n      iszero\n        /* \"@openzeppelin/contracts/token/ERC20/ERC20.sol\":6623:6708  require(currentAllowance >= subtractedValue, \"ERC20: decreased allowance below zero\") */\n      tag_154\n      jumpi\n      mload(0x40)\n      shl(0xe5, 0x461bcd)\n      dup2\n      mstore\n        /* \"#utility.yul\":4235:4237   */\n      0x20\n        /* \"@openzeppelin/contracts/token/ERC20/ERC20.sol\":6623:6708  require(currentAllowance >= subtractedValue, \"ERC20: decreased allowance below zero\") */\n      0x04\n      dup3\n      add\n        /* \"#utility.yul\":4217:4238   */\n      mstore\n        /* \"#utility.yul\":4274:4276   */\n      0x25\n        /* \"#utility.yul\":4254:4272   */\n      0x24\n      dup3\n      add\n        /* \"#utility.yul\":4247:4277   */\n      mstore\n        /* \"#utility.yul\":4313:4347   */\n      0x45524332303a2064656372656173656420616c6c6f77616e63652062656c6f77\n        /* \"#utility.yul\":4293:4311   */\n      0x44\n      dup3\n      add\n        /* \"#utility.yul\":4286:4348   */\n      mstore\n      shl(0xd8, 0x207a65726f)\n        /* \"#utility.yul\":4364:4382   */\n      0x64\n      dup3\n      add\n        /* \"#utility.yul\":4357:4392   */\n      mstore\n        /* \"#utility.yul\":4409:4428   */\n      0x84\n      add\n        /* \"@openzeppelin/contracts/token/ERC20/ERC20.sol\":6623:6708  require(currentAllowance >= subtractedValue, \"ERC20: decreased allowance below zero\") */\n      tag_116\n        /* \"#utility.yul\":4033:4434   */\n      jump\n        /* \"@openzeppelin/contracts/token/ERC20/ERC20.sol\":6623:6708  require(currentAllowance >= subtractedValue, \"ERC20: decreased allowance below zero\") */\n    tag_154:\n        /* \"@openzeppelin/contracts/token/ERC20/ERC20.sol\":6742:6809  _approve(_msgSender(), spender, currentAllowance - subtractedValue) */\n      tag_157\n        /* \"@openzeppelin/contracts/utils/Context.sol\":719:729  msg.sender */\n      caller\n        /* \"@openzeppelin/contracts/token/ERC20/ERC20.sol\":6765:6772  spender */\n      dup6\n        /* \"@openzeppelin/contracts/token/ERC20/ERC20.sol\":6793:6808  subtractedValue */\n      dup6\n        /* \"@openzeppelin/contracts/token/ERC20/ERC20.sol\":6774:6790  currentAllowance */\n      dup5\n        /* \"@openzeppelin/contracts/token/ERC20/ERC20.sol\":6774:6808  currentAllowance - subtractedValue */\n      sub\n        /* \"@openzeppelin/contracts/token/ERC20/ERC20.sol\":6742:6750  _approve */\n      tag_109\n        /* \"@openzeppelin/contracts/token/ERC20/ERC20.sol\":6742:6809  _approve(_msgSender(), spender, currentAllowance - subtractedValue) */\n      jump\t// in\n    tag_157:\n      pop\n        /* \"@openzeppelin/contracts/token/ERC20/ERC20.sol\":6837:6841  true */\n      0x01\n      swap4\n        /* \"@openzeppelin/contracts/token/ERC20/ERC20.sol\":6443:6848  function decreaseAllowance(address spender, uint256 subtractedValue) public virtual returns (bool) {... */\n      swap3\n      pop\n      pop\n      pop\n      jump\t// out\n        /* \"contracts/YNPresalePair.sol\":1089:1686  function buy() external payable{... */\n    tag_82:\n        /* \"contracts/YNPresalePair.sol\":1304:1311  _buyFee */\n      sload(0x06)\n        /* \"contracts/YNPresalePair.sol\":1178:1182  this */\n      address\n      swap1\n        /* \"contracts/YNPresalePair.sol\":1224:1233  msg.value */\n      callvalue\n      swap1\n        /* \"contracts/YNPresalePair.sol\":1149:1162  YERC20 yerc20 */\n      0x00\n      swap1\n        /* \"contracts/YNPresalePair.sol\":1270:1312  val.mul(1 * 10 ** decimals()).div(_buyFee) */\n      tag_160\n      swap1\n        /* \"contracts/YNPresalePair.sol\":1270:1299  val.mul(1 * 10 ** decimals()) */\n      tag_161\n        /* \"contracts/YNPresalePair.sol\":1282:1298  10 ** decimals() */\n      tag_163\n        /* \"@openzeppelin/contracts/token/ERC20/ERC20.sol\":3160:3162  18 */\n      0x12\n        /* \"contracts/YNPresalePair.sol\":1282:1284  10 */\n      0x0a\n        /* \"contracts/YNPresalePair.sol\":1282:1298  10 ** decimals() */\n      tag_164\n      jump\t// in\n    tag_163:\n        /* \"contracts/YNPresalePair.sol\":1278:1298  1 * 10 ** decimals() */\n      tag_165\n      swap1\n        /* \"contracts/YNPresalePair.sol\":1278:1279  1 */\n      0x01\n        /* \"contracts/YNPresalePair.sol\":1278:1298  1 * 10 ** decimals() */\n      tag_166\n      jump\t// in\n    tag_165:\n        /* \"contracts/YNPresalePair.sol\":1270:1273  val */\n      dup6\n      swap1\n        /* \"contracts/YNPresalePair.sol\":1270:1277  val.mul */\n      tag_167\n        /* \"contracts/YNPresalePair.sol\":1270:1299  val.mul(1 * 10 ** decimals()) */\n      jump\t// in\n    tag_161:\n        /* \"contracts/YNPresalePair.sol\":1270:1303  val.mul(1 * 10 ** decimals()).div */\n      swap1\n      tag_168\n        /* \"contracts/YNPresalePair.sol\":1270:1312  val.mul(1 * 10 ** decimals()).div(_buyFee) */\n      jump\t// in\n    tag_160:\n        /* \"contracts/YNPresalePair.sol\":1253:1312  uint256 tokenGet=val.mul(1 * 10 ** decimals()).div(_buyFee) */\n      swap1\n      pop\n        /* \"contracts/YNPresalePair.sol\":1338:1344  maxBuy */\n      sload(0x09)\n        /* \"contracts/YNPresalePair.sol\":1326:1334  tokenGet */\n      dup2\n        /* \"contracts/YNPresalePair.sol\":1326:1344  tokenGet <= maxBuy */\n      gt\n        /* \"contracts/YNPresalePair.sol\":1323:1679  if(tokenGet <= maxBuy){... */\n      tag_169\n      jumpi\n        /* \"contracts/YNPresalePair.sol\":1373:1404  yerc20.balanceOf(address(this)) */\n      mload(0x40)\n      shl(0xe0, 0x70a08231)\n      dup2\n      mstore\n        /* \"contracts/YNPresalePair.sol\":1398:1402  this */\n      address\n        /* \"contracts/YNPresalePair.sol\":1373:1404  yerc20.balanceOf(address(this)) */\n      0x04\n      dup3\n      add\n        /* \"#utility.yul\":2286:2337   */\n      mstore\n      sub(shl(0xa0, 0x01), 0x01)\n        /* \"contracts/YNPresalePair.sol\":1373:1389  yerc20.balanceOf */\n      dup5\n      and\n      swap1\n      0x70a08231\n      swap1\n        /* \"#utility.yul\":2259:2277   */\n      0x24\n      add\n        /* \"contracts/YNPresalePair.sol\":1373:1404  yerc20.balanceOf(address(this)) */\n      0x20\n      mload(0x40)\n      dup1\n      dup4\n      sub\n      dup2\n      dup7\n      gas\n      staticcall\n      iszero\n      dup1\n      iszero\n      tag_172\n      jumpi\n      returndatasize\n      0x00\n      dup1\n      returndatacopy\n      revert(0x00, returndatasize)\n    tag_172:\n      pop\n      pop\n      pop\n      pop\n      mload(0x40)\n      returndatasize\n      not(0x1f)\n      0x1f\n      dup3\n      add\n      and\n      dup3\n      add\n      dup1\n      0x40\n      mstore\n      pop\n      dup2\n      add\n      swap1\n      tag_173\n      swap2\n      swap1\n      tag_174\n      jump\t// in\n    tag_173:\n        /* \"contracts/YNPresalePair.sol\":1363:1371  tokenGet */\n      dup2\n        /* \"contracts/YNPresalePair.sol\":1363:1404  tokenGet<=yerc20.balanceOf(address(this)) */\n      gt\n        /* \"contracts/YNPresalePair.sol\":1360:1566  if(tokenGet<=yerc20.balanceOf(address(this))){... */\n      tag_175\n      jumpi\n        /* \"contracts/YNPresalePair.sol\":1424:1464  transferTokenToUser(msg.sender,tokenGet) */\n      tag_176\n        /* \"contracts/YNPresalePair.sol\":1444:1454  msg.sender */\n      caller\n        /* \"contracts/YNPresalePair.sol\":1455:1463  tokenGet */\n      dup3\n        /* \"contracts/YNPresalePair.sol\":1424:1443  transferTokenToUser */\n      tag_57\n        /* \"contracts/YNPresalePair.sol\":1424:1464  transferTokenToUser(msg.sender,tokenGet) */\n      jump\t// in\n    tag_176:\n        /* \"contracts/YNPresalePair.sol\":1120:1686  {... */\n      pop\n      pop\n      pop\n        /* \"contracts/YNPresalePair.sol\":1089:1686  function buy() external payable{... */\n      jump\t// out\n        /* \"contracts/YNPresalePair.sol\":1360:1566  if(tokenGet<=yerc20.balanceOf(address(this))){... */\n    tag_175:\n        /* \"contracts/YNPresalePair.sol\":1517:1550  payable(msg.sender).transfer(val) */\n      mload(0x40)\n        /* \"contracts/YNPresalePair.sol\":1525:1535  msg.sender */\n      caller\n      swap1\n        /* \"contracts/YNPresalePair.sol\":1517:1550  payable(msg.sender).transfer(val) */\n      dup4\n      iszero\n      0x08fc\n      mul\n      swap1\n        /* \"contracts/YNPresalePair.sol\":1546:1549  val */\n      dup5\n      swap1\n        /* \"contracts/YNPresalePair.sol\":1517:1550  payable(msg.sender).transfer(val) */\n      0x00\n      dup2\n      dup2\n      dup2\n        /* \"contracts/YNPresalePair.sol\":1546:1549  val */\n      dup6\n        /* \"contracts/YNPresalePair.sol\":1525:1535  msg.sender */\n      dup9\n        /* \"contracts/YNPresalePair.sol\":1517:1550  payable(msg.sender).transfer(val) */\n      dup9\n      call\n      swap4\n      pop\n      pop\n      pop\n      pop\n      iszero\n      dup1\n      iszero\n      tag_179\n      jumpi\n      returndatasize\n      0x00\n      dup1\n      returndatacopy\n      revert(0x00, returndatasize)\n    tag_179:\n      pop\n        /* \"contracts/YNPresalePair.sol\":1120:1686  {... */\n      pop\n      pop\n      pop\n        /* \"contracts/YNPresalePair.sol\":1089:1686  function buy() external payable{... */\n      jump\t// out\n        /* \"contracts/YNPresalePair.sol\":1323:1679  if(tokenGet <= maxBuy){... */\n    tag_169:\n        /* \"contracts/YNPresalePair.sol\":1619:1626  maxSale */\n      sload(0x0a)\n        /* \"contracts/YNPresalePair.sol\":1614:1617  val */\n      dup3\n        /* \"contracts/YNPresalePair.sol\":1614:1626  val<=maxSale */\n      gt\n      iszero\n        /* \"contracts/YNPresalePair.sol\":1606:1667  require(val<=maxSale,\"YNPresale: AMOUNT SALE AMOUNT EXCEED.\") */\n      tag_176\n      jumpi\n      mload(0x40)\n      shl(0xe5, 0x461bcd)\n      dup2\n      mstore\n        /* \"#utility.yul\":6386:6388   */\n      0x20\n        /* \"contracts/YNPresalePair.sol\":1606:1667  require(val<=maxSale,\"YNPresale: AMOUNT SALE AMOUNT EXCEED.\") */\n      0x04\n      dup3\n      add\n        /* \"#utility.yul\":6368:6389   */\n      mstore\n        /* \"#utility.yul\":6425:6427   */\n      0x25\n        /* \"#utility.yul\":6405:6423   */\n      0x24\n      dup3\n      add\n        /* \"#utility.yul\":6398:6428   */\n      mstore\n        /* \"#utility.yul\":6464:6498   */\n      0x594e50726573616c653a20414d4f554e542053414c4520414d4f554e54204558\n        /* \"#utility.yul\":6444:6462   */\n      0x44\n      dup3\n      add\n        /* \"#utility.yul\":6437:6499   */\n      mstore\n      shl(0xd9, 0x21a2a2a217)\n        /* \"#utility.yul\":6515:6533   */\n      0x64\n      dup3\n      add\n        /* \"#utility.yul\":6508:6543   */\n      mstore\n        /* \"#utility.yul\":6560:6579   */\n      0x84\n      add\n        /* \"contracts/YNPresalePair.sol\":1606:1667  require(val<=maxSale,\"YNPresale: AMOUNT SALE AMOUNT EXCEED.\") */\n      tag_116\n        /* \"#utility.yul\":6184:6585   */\n      jump\n        /* \"contracts/YNPresalePair.sol\":1694:2462  function transfer(address recipient, uint256 amount) public virtual override returns (bool) {        ... */\n    tag_86:\n        /* \"contracts/YNPresalePair.sol\":1780:1784  bool */\n      0x00\n        /* \"contracts/YNPresalePair.sol\":1805:1813  bool ret */\n      dup1\n        /* \"contracts/YNPresalePair.sol\":1815:1848  super.transfer(recipient, amount) */\n      tag_185\n        /* \"contracts/YNPresalePair.sol\":1830:1839  recipient */\n      dup5\n        /* \"contracts/YNPresalePair.sol\":1841:1847  amount */\n      dup5\n        /* \"contracts/YNPresalePair.sol\":1815:1829  super.transfer */\n      tag_186\n        /* \"contracts/YNPresalePair.sol\":1815:1848  super.transfer(recipient, amount) */\n      jump\t// in\n    tag_185:\n        /* \"contracts/YNPresalePair.sol\":1805:1848  bool ret= super.transfer(recipient, amount) */\n      swap1\n      pop\n        /* \"contracts/YNPresalePair.sol\":1881:1887  amount */\n      dup3\n        /* \"contracts/YNPresalePair.sol\":1930:1934  this */\n      address\n      sub(shl(0xa0, 0x01), 0x01)\n        /* \"contracts/YNPresalePair.sol\":1911:1935  recipient==address(this) */\n      dup7\n      and\n      sub\n        /* \"contracts/YNPresalePair.sol\":1908:2414  if(recipient==address(this)){... */\n      tag_187\n      jumpi\n        /* \"contracts/YNPresalePair.sol\":1951:1967  uint256 tokenGet */\n      0x00\n        /* \"contracts/YNPresalePair.sol\":1968:2011  val.mul(_saleFee).div(1 * 10 ** decimals()) */\n      tag_188\n        /* \"contracts/YNPresalePair.sol\":1994:2010  10 ** decimals() */\n      tag_190\n        /* \"@openzeppelin/contracts/token/ERC20/ERC20.sol\":3160:3162  18 */\n      0x12\n        /* \"contracts/YNPresalePair.sol\":1994:1996  10 */\n      0x0a\n        /* \"contracts/YNPresalePair.sol\":1994:2010  10 ** decimals() */\n      tag_164\n      jump\t// in\n    tag_190:\n        /* \"contracts/YNPresalePair.sol\":1990:2010  1 * 10 ** decimals() */\n      tag_191\n      swap1\n        /* \"contracts/YNPresalePair.sol\":1990:1991  1 */\n      0x01\n        /* \"contracts/YNPresalePair.sol\":1990:2010  1 * 10 ** decimals() */\n      tag_166\n      jump\t// in\n    tag_191:\n        /* \"contracts/YNPresalePair.sol\":1976:1984  _saleFee */\n      sload(0x07)\n        /* \"contracts/YNPresalePair.sol\":1968:1985  val.mul(_saleFee) */\n      tag_161\n      swap1\n        /* \"contracts/YNPresalePair.sol\":1968:1971  val */\n      dup6\n      swap1\n        /* \"contracts/YNPresalePair.sol\":1968:1975  val.mul */\n      tag_167\n        /* \"contracts/YNPresalePair.sol\":1968:1985  val.mul(_saleFee) */\n      jump\t// in\n        /* \"contracts/YNPresalePair.sol\":1968:2011  val.mul(_saleFee).div(1 * 10 ** decimals()) */\n    tag_188:\n        /* \"contracts/YNPresalePair.sol\":1951:2011  uint256 tokenGet=val.mul(_saleFee).div(1 * 10 ** decimals()) */\n      swap1\n      pop\n        /* \"contracts/YNPresalePair.sol\":2036:2043  maxSale */\n      sload(0x0a)\n        /* \"contracts/YNPresalePair.sol\":2029:2032  val */\n      dup3\n        /* \"contracts/YNPresalePair.sol\":2029:2043  val <= maxSale */\n      gt\n        /* \"contracts/YNPresalePair.sol\":2026:2403  if(val <= maxSale){... */\n      tag_193\n      jumpi\n        /* \"contracts/YNPresalePair.sol\":2076:2097  address(this).balance */\n      selfbalance\n        /* \"contracts/YNPresalePair.sol\":2066:2074  tokenGet */\n      dup2\n        /* \"contracts/YNPresalePair.sol\":2066:2097  tokenGet<=address(this).balance */\n      gt\n        /* \"contracts/YNPresalePair.sol\":2063:2277  if(tokenGet<=address(this).balance){... */\n      tag_194\n      jumpi\n        /* \"contracts/YNPresalePair.sol\":2121:2159  payable(msg.sender).transfer(tokenGet) */\n      mload(0x40)\n        /* \"contracts/YNPresalePair.sol\":2129:2139  msg.sender */\n      caller\n      swap1\n        /* \"contracts/YNPresalePair.sol\":2121:2159  payable(msg.sender).transfer(tokenGet) */\n      dup3\n      iszero\n      0x08fc\n      mul\n      swap1\n        /* \"contracts/YNPresalePair.sol\":2150:2158  tokenGet */\n      dup4\n      swap1\n        /* \"contracts/YNPresalePair.sol\":2121:2159  payable(msg.sender).transfer(tokenGet) */\n      0x00\n      dup2\n      dup2\n      dup2\n        /* \"contracts/YNPresalePair.sol\":2150:2158  tokenGet */\n      dup6\n        /* \"contracts/YNPresalePair.sol\":2129:2139  msg.sender */\n      dup9\n        /* \"contracts/YNPresalePair.sol\":2121:2159  payable(msg.sender).transfer(tokenGet) */\n      dup9\n      call\n      swap4\n      pop\n      pop\n      pop\n      pop\n      iszero\n      dup1\n      iszero\n      tag_196\n      jumpi\n      returndatasize\n      0x00\n      dup1\n      returndatacopy\n      revert(0x00, returndatasize)\n    tag_196:\n      pop\n        /* \"contracts/YNPresalePair.sol\":2026:2403  if(val <= maxSale){... */\n      jump(tag_201)\n        /* \"contracts/YNPresalePair.sol\":2063:2277  if(tokenGet<=address(this).balance){... */\n    tag_194:\n        /* \"contracts/YNPresalePair.sol\":2224:2257  payable(msg.sender).transfer(val) */\n      mload(0x40)\n        /* \"contracts/YNPresalePair.sol\":2232:2242  msg.sender */\n      caller\n      swap1\n        /* \"contracts/YNPresalePair.sol\":2224:2257  payable(msg.sender).transfer(val) */\n      dup4\n      iszero\n      0x08fc\n      mul\n      swap1\n        /* \"contracts/YNPresalePair.sol\":2253:2256  val */\n      dup5\n      swap1\n        /* \"contracts/YNPresalePair.sol\":2224:2257  payable(msg.sender).transfer(val) */\n      0x00\n      dup2\n      dup2\n      dup2\n        /* \"contracts/YNPresalePair.sol\":2253:2256  val */\n      dup6\n        /* \"contracts/YNPresalePair.sol\":2232:2242  msg.sender */\n      dup9\n        /* \"contracts/YNPresalePair.sol\":2224:2257  payable(msg.sender).transfer(val) */\n      dup9\n      call\n      swap4\n      pop\n      pop\n      pop\n      pop\n      iszero\n      dup1\n      iszero\n      tag_196\n      jumpi\n      returndatasize\n      0x00\n      dup1\n      returndatacopy\n      revert(0x00, returndatasize)\n        /* \"contracts/YNPresalePair.sol\":2026:2403  if(val <= maxSale){... */\n    tag_193:\n        /* \"contracts/YNPresalePair.sol\":2342:2349  maxSale */\n      sload(0x0a)\n        /* \"contracts/YNPresalePair.sol\":2337:2340  val */\n      dup3\n        /* \"contracts/YNPresalePair.sol\":2337:2349  val<=maxSale */\n      gt\n      iszero\n        /* \"contracts/YNPresalePair.sol\":2329:2387  require(val<=maxSale,\"YNPresale: MAX SALE AMOUNT EXCEED.\") */\n      tag_201\n      jumpi\n      mload(0x40)\n      shl(0xe5, 0x461bcd)\n      dup2\n      mstore\n        /* \"#utility.yul\":6792:6794   */\n      0x20\n        /* \"contracts/YNPresalePair.sol\":2329:2387  require(val<=maxSale,\"YNPresale: MAX SALE AMOUNT EXCEED.\") */\n      0x04\n      dup3\n      add\n        /* \"#utility.yul\":6774:6795   */\n      mstore\n        /* \"#utility.yul\":6831:6833   */\n      0x22\n        /* \"#utility.yul\":6811:6829   */\n      0x24\n      dup3\n      add\n        /* \"#utility.yul\":6804:6834   */\n      mstore\n        /* \"#utility.yul\":6870:6904   */\n      0x594e50726573616c653a204d41582053414c4520414d4f554e54204558434545\n        /* \"#utility.yul\":6850:6868   */\n      0x44\n      dup3\n      add\n        /* \"#utility.yul\":6843:6905   */\n      mstore\n      shl(0xf1, 0x2217)\n        /* \"#utility.yul\":6921:6939   */\n      0x64\n      dup3\n      add\n        /* \"#utility.yul\":6914:6946   */\n      mstore\n        /* \"#utility.yul\":6963:6982   */\n      0x84\n      add\n        /* \"contracts/YNPresalePair.sol\":2329:2387  require(val<=maxSale,\"YNPresale: MAX SALE AMOUNT EXCEED.\") */\n      tag_116\n        /* \"#utility.yul\":6590:6988   */\n      jump\n        /* \"contracts/YNPresalePair.sol\":2329:2387  require(val<=maxSale,\"YNPresale: MAX SALE AMOUNT EXCEED.\") */\n    tag_201:\n        /* \"contracts/YNPresalePair.sol\":1936:2414  {... */\n      pop\n        /* \"contracts/YNPresalePair.sol\":1908:2414  if(recipient==address(this)){... */\n    tag_187:\n      pop\n        /* \"contracts/YNPresalePair.sol\":2451:2454  ret */\n      swap4\n        /* \"contracts/YNPresalePair.sol\":1694:2462  function transfer(address recipient, uint256 amount) public virtual override returns (bool) {        ... */\n      swap3\n      pop\n      pop\n      pop\n      jump\t// out\n        /* \"@openzeppelin/contracts/access/Ownable.sol\":1918:2116  function transferOwnership(address newOwner) public virtual onlyOwner {... */\n    tag_97:\n        /* \"@openzeppelin/contracts/access/Ownable.sol\":1108:1114  _owner */\n      and(sub(shl(0xa0, 0x01), 0x01), sload(0x05))\n        /* \"@openzeppelin/contracts/utils/Context.sol\":719:729  msg.sender */\n      caller\n        /* \"@openzeppelin/contracts/access/Ownable.sol\":1248:1271  owner() == _msgSender() */\n      eq\n        /* \"@openzeppelin/contracts/access/Ownable.sol\":1240:1308  require(owner() == _msgSender(), \"Ownable: caller is not the owner\") */\n      tag_208\n      jumpi\n      mload(0x40)\n      shl(0xe5, 0x461bcd)\n      dup2\n      mstore\n      0x04\n      add\n      tag_116\n      swap1\n      tag_132\n      jump\t// in\n    tag_208:\n      sub(shl(0xa0, 0x01), 0x01)\n        /* \"@openzeppelin/contracts/access/Ownable.sol\":2006:2028  newOwner != address(0) */\n      dup2\n      and\n        /* \"@openzeppelin/contracts/access/Ownable.sol\":1998:2071  require(newOwner != address(0), \"Ownable: new owner is the zero address\") */\n      tag_211\n      jumpi\n      mload(0x40)\n      shl(0xe5, 0x461bcd)\n      dup2\n      mstore\n        /* \"#utility.yul\":7195:7197   */\n      0x20\n        /* \"@openzeppelin/contracts/access/Ownable.sol\":1998:2071  require(newOwner != address(0), \"Ownable: new owner is the zero address\") */\n      0x04\n      dup3\n      add\n        /* \"#utility.yul\":7177:7198   */\n      mstore\n        /* \"#utility.yul\":7234:7236   */\n      0x26\n        /* \"#utility.yul\":7214:7232   */\n      0x24\n      dup3\n      add\n        /* \"#utility.yul\":7207:7237   */\n      mstore\n        /* \"#utility.yul\":7273:7307   */\n      0x4f776e61626c653a206e6577206f776e657220697320746865207a65726f2061\n        /* \"#utility.yul\":7253:7271   */\n      0x44\n      dup3\n      add\n        /* \"#utility.yul\":7246:7308   */\n      mstore\n      shl(0xd0, 0x646472657373)\n        /* \"#utility.yul\":7324:7342   */\n      0x64\n      dup3\n      add\n        /* \"#utility.yul\":7317:7353   */\n      mstore\n        /* \"#utility.yul\":7370:7389   */\n      0x84\n      add\n        /* \"@openzeppelin/contracts/access/Ownable.sol\":1998:2071  require(newOwner != address(0), \"Ownable: new owner is the zero address\") */\n      tag_116\n        /* \"#utility.yul\":6993:7395   */\n      jump\n        /* \"@openzeppelin/contracts/access/Ownable.sol\":1998:2071  require(newOwner != address(0), \"Ownable: new owner is the zero address\") */\n    tag_211:\n        /* \"@openzeppelin/contracts/access/Ownable.sol\":2081:2109  _transferOwnership(newOwner) */\n      tag_214\n        /* \"@openzeppelin/contracts/access/Ownable.sol\":2100:2108  newOwner */\n      dup2\n        /* \"@openzeppelin/contracts/access/Ownable.sol\":2081:2099  _transferOwnership */\n      tag_144\n        /* \"@openzeppelin/contracts/access/Ownable.sol\":2081:2109  _transferOwnership(newOwner) */\n      jump\t// in\n    tag_214:\n        /* \"@openzeppelin/contracts/access/Ownable.sol\":1918:2116  function transferOwnership(address newOwner) public virtual onlyOwner {... */\n      pop\n      jump\t// out\n        /* \"@openzeppelin/contracts/token/ERC20/ERC20.sol\":10019:10389  function _approve(... */\n    tag_109:\n      sub(shl(0xa0, 0x01), 0x01)\n        /* \"@openzeppelin/contracts/token/ERC20/ERC20.sol\":10150:10169  owner != address(0) */\n      dup4\n      and\n        /* \"@openzeppelin/contracts/token/ERC20/ERC20.sol\":10142:10210  require(owner != address(0), \"ERC20: approve from the zero address\") */\n      tag_217\n      jumpi\n      mload(0x40)\n      shl(0xe5, 0x461bcd)\n      dup2\n      mstore\n        /* \"#utility.yul\":7602:7604   */\n      0x20\n        /* \"@openzeppelin/contracts/token/ERC20/ERC20.sol\":10142:10210  require(owner != address(0), \"ERC20: approve from the zero address\") */\n      0x04\n      dup3\n      add\n        /* \"#utility.yul\":7584:7605   */\n      mstore\n        /* \"#utility.yul\":7641:7643   */\n      0x24\n        /* \"#utility.yul\":7621:7639   */\n      dup1\n      dup3\n      add\n        /* \"#utility.yul\":7614:7644   */\n      mstore\n        /* \"#utility.yul\":7680:7714   */\n      0x45524332303a20617070726f76652066726f6d20746865207a65726f20616464\n        /* \"#utility.yul\":7660:7678   */\n      0x44\n      dup3\n      add\n        /* \"#utility.yul\":7653:7715   */\n      mstore\n      shl(0xe0, 0x72657373)\n        /* \"#utility.yul\":7731:7749   */\n      0x64\n      dup3\n      add\n        /* \"#utility.yul\":7724:7758   */\n      mstore\n        /* \"#utility.yul\":7775:7794   */\n      0x84\n      add\n        /* \"@openzeppelin/contracts/token/ERC20/ERC20.sol\":10142:10210  require(owner != address(0), \"ERC20: approve from the zero address\") */\n      tag_116\n        /* \"#utility.yul\":7400:7800   */\n      jump\n        /* \"@openzeppelin/contracts/token/ERC20/ERC20.sol\":10142:10210  require(owner != address(0), \"ERC20: approve from the zero address\") */\n    tag_217:\n      sub(shl(0xa0, 0x01), 0x01)\n        /* \"@openzeppelin/contracts/token/ERC20/ERC20.sol\":10228:10249  spender != address(0) */\n      dup3\n      and\n        /* \"@openzeppelin/contracts/token/ERC20/ERC20.sol\":10220:10288  require(spender != address(0), \"ERC20: approve to the zero address\") */\n      tag_220\n      jumpi\n      mload(0x40)\n      shl(0xe5, 0x461bcd)\n      dup2\n      mstore\n        /* \"#utility.yul\":8007:8009   */\n      0x20\n        /* \"@openzeppelin/contracts/token/ERC20/ERC20.sol\":10220:10288  require(spender != address(0), \"ERC20: approve to the zero address\") */\n      0x04\n      dup3\n      add\n        /* \"#utility.yul\":7989:8010   */\n      mstore\n        /* \"#utility.yul\":8046:8048   */\n      0x22\n        /* \"#utility.yul\":8026:8044   */\n      0x24\n      dup3\n      add\n        /* \"#utility.yul\":8019:8049   */\n      mstore\n        /* \"#utility.yul\":8085:8119   */\n      0x45524332303a20617070726f766520746f20746865207a65726f206164647265\n        /* \"#utility.yul\":8065:8083   */\n      0x44\n      dup3\n      add\n        /* \"#utility.yul\":8058:8120   */\n      mstore\n      shl(0xf0, 0x7373)\n        /* \"#utility.yul\":8136:8154   */\n      0x64\n      dup3\n      add\n        /* \"#utility.yul\":8129:8161   */\n      mstore\n        /* \"#utility.yul\":8178:8197   */\n      0x84\n      add\n        /* \"@openzeppelin/contracts/token/ERC20/ERC20.sol\":10220:10288  require(spender != address(0), \"ERC20: approve to the zero address\") */\n      tag_116\n        /* \"#utility.yul\":7805:8203   */\n      jump\n        /* \"@openzeppelin/contracts/token/ERC20/ERC20.sol\":10220:10288  require(spender != address(0), \"ERC20: approve to the zero address\") */\n    tag_220:\n      sub(shl(0xa0, 0x01), 0x01)\n        /* \"@openzeppelin/contracts/token/ERC20/ERC20.sol\":10299:10317  _allowances[owner] */\n      dup4\n      dup2\n      and\n      0x00\n      dup2\n      dup2\n      mstore\n        /* \"@openzeppelin/contracts/token/ERC20/ERC20.sol\":10299:10310  _allowances */\n      0x01\n        /* \"@openzeppelin/contracts/token/ERC20/ERC20.sol\":10299:10317  _allowances[owner] */\n      0x20\n      swap1\n      dup2\n      mstore\n      0x40\n      dup1\n      dup4\n      keccak256\n        /* \"@openzeppelin/contracts/token/ERC20/ERC20.sol\":10299:10326  _allowances[owner][spender] */\n      swap5\n      dup8\n      and\n      dup1\n      dup5\n      mstore\n      swap5\n      dup3\n      mstore\n      swap2\n      dup3\n      swap1\n      keccak256\n        /* \"@openzeppelin/contracts/token/ERC20/ERC20.sol\":10299:10335  _allowances[owner][spender] = amount */\n      dup6\n      swap1\n      sstore\n        /* \"@openzeppelin/contracts/token/ERC20/ERC20.sol\":10350:10382  Approval(owner, spender, amount) */\n      swap1\n      mload\n        /* \"#utility.yul\":1391:1416   */\n      dup5\n      dup2\n      mstore\n        /* \"@openzeppelin/contracts/token/ERC20/ERC20.sol\":10350:10382  Approval(owner, spender, amount) */\n      0x8c5be1e5ebec7d5bd14f71427d1e84f3dd0314c0f7b2291e5b200ac8c7c3b925\n      swap2\n        /* \"#utility.yul\":1364:1382   */\n      add\n        /* \"@openzeppelin/contracts/token/ERC20/ERC20.sol\":10350:10382  Approval(owner, spender, amount) */\n      mload(0x40)\n      dup1\n      swap2\n      sub\n      swap1\n      log3\n        /* \"@openzeppelin/contracts/token/ERC20/ERC20.sol\":10019:10389  function _approve(... */\n      pop\n      pop\n      pop\n      jump\t// out\n        /* \"@openzeppelin/contracts/token/ERC20/ERC20.sol\":7322:8035  function _transfer(... */\n    tag_113:\n      sub(shl(0xa0, 0x01), 0x01)\n        /* \"@openzeppelin/contracts/token/ERC20/ERC20.sol\":7457:7477  sender != address(0) */\n      dup4\n      and\n        /* \"@openzeppelin/contracts/token/ERC20/ERC20.sol\":7449:7519  require(sender != address(0), \"ERC20: transfer from the zero address\") */\n      tag_225\n      jumpi\n      mload(0x40)\n      shl(0xe5, 0x461bcd)\n      dup2\n      mstore\n        /* \"#utility.yul\":8410:8412   */\n      0x20\n        /* \"@openzeppelin/contracts/token/ERC20/ERC20.sol\":7449:7519  require(sender != address(0), \"ERC20: transfer from the zero address\") */\n      0x04\n      dup3\n      add\n        /* \"#utility.yul\":8392:8413   */\n      mstore\n        /* \"#utility.yul\":8449:8451   */\n      0x25\n        /* \"#utility.yul\":8429:8447   */\n      0x24\n      dup3\n      add\n        /* \"#utility.yul\":8422:8452   */\n      mstore\n        /* \"#utility.yul\":8488:8522   */\n      0x45524332303a207472616e736665722066726f6d20746865207a65726f206164\n        /* \"#utility.yul\":8468:8486   */\n      0x44\n      dup3\n      add\n        /* \"#utility.yul\":8461:8523   */\n      mstore\n      shl(0xd8, 0x6472657373)\n        /* \"#utility.yul\":8539:8557   */\n      0x64\n      dup3\n      add\n        /* \"#utility.yul\":8532:8567   */\n      mstore\n        /* \"#utility.yul\":8584:8603   */\n      0x84\n      add\n        /* \"@openzeppelin/contracts/token/ERC20/ERC20.sol\":7449:7519  require(sender != address(0), \"ERC20: transfer from the zero address\") */\n      tag_116\n        /* \"#utility.yul\":8208:8609   */\n      jump\n        /* \"@openzeppelin/contracts/token/ERC20/ERC20.sol\":7449:7519  require(sender != address(0), \"ERC20: transfer from the zero address\") */\n    tag_225:\n      sub(shl(0xa0, 0x01), 0x01)\n        /* \"@openzeppelin/contracts/token/ERC20/ERC20.sol\":7537:7560  recipient != address(0) */\n      dup3\n      and\n        /* \"@openzeppelin/contracts/token/ERC20/ERC20.sol\":7529:7600  require(recipient != address(0), \"ERC20: transfer to the zero address\") */\n      tag_228\n      jumpi\n      mload(0x40)\n      shl(0xe5, 0x461bcd)\n      dup2\n      mstore\n        /* \"#utility.yul\":8816:8818   */\n      0x20\n        /* \"@openzeppelin/contracts/token/ERC20/ERC20.sol\":7529:7600  require(recipient != address(0), \"ERC20: transfer to the zero address\") */\n      0x04\n      dup3\n      add\n        /* \"#utility.yul\":8798:8819   */\n      mstore\n        /* \"#utility.yul\":8855:8857   */\n      0x23\n        /* \"#utility.yul\":8835:8853   */\n      0x24\n      dup3\n      add\n        /* \"#utility.yul\":8828:8858   */\n      mstore\n        /* \"#utility.yul\":8894:8928   */\n      0x45524332303a207472616e7366657220746f20746865207a65726f2061646472\n        /* \"#utility.yul\":8874:8892   */\n      0x44\n      dup3\n      add\n        /* \"#utility.yul\":8867:8929   */\n      mstore\n      shl(0xe8, 0x657373)\n        /* \"#utility.yul\":8945:8963   */\n      0x64\n      dup3\n      add\n        /* \"#utility.yul\":8938:8971   */\n      mstore\n        /* \"#utility.yul\":8988:9007   */\n      0x84\n      add\n        /* \"@openzeppelin/contracts/token/ERC20/ERC20.sol\":7529:7600  require(recipient != address(0), \"ERC20: transfer to the zero address\") */\n      tag_116\n        /* \"#utility.yul\":8614:9013   */\n      jump\n        /* \"@openzeppelin/contracts/token/ERC20/ERC20.sol\":7529:7600  require(recipient != address(0), \"ERC20: transfer to the zero address\") */\n    tag_228:\n      sub(shl(0xa0, 0x01), 0x01)\n        /* \"@openzeppelin/contracts/token/ERC20/ERC20.sol\":7693:7710  _balances[sender] */\n      dup4\n      and\n        /* \"@openzeppelin/contracts/token/ERC20/ERC20.sol\":7669:7690  uint256 senderBalance */\n      0x00\n        /* \"@openzeppelin/contracts/token/ERC20/ERC20.sol\":7693:7710  _balances[sender] */\n      swap1\n      dup2\n      mstore\n      0x20\n      dup2\n      swap1\n      mstore\n      0x40\n      swap1\n      keccak256\n      sload\n        /* \"@openzeppelin/contracts/token/ERC20/ERC20.sol\":7728:7751  senderBalance >= amount */\n      dup2\n      dup2\n      lt\n      iszero\n        /* \"@openzeppelin/contracts/token/ERC20/ERC20.sol\":7720:7794  require(senderBalance >= amount, \"ERC20: transfer amount exceeds balance\") */\n      tag_233\n      jumpi\n      mload(0x40)\n      shl(0xe5, 0x461bcd)\n      dup2\n      mstore\n        /* \"#utility.yul\":9220:9222   */\n      0x20\n        /* \"@openzeppelin/contracts/token/ERC20/ERC20.sol\":7720:7794  require(senderBalance >= amount, \"ERC20: transfer amount exceeds balance\") */\n      0x04\n      dup3\n      add\n        /* \"#utility.yul\":9202:9223   */\n      mstore\n        /* \"#utility.yul\":9259:9261   */\n      0x26\n        /* \"#utility.yul\":9239:9257   */\n      0x24\n      dup3\n      add\n        /* \"#utility.yul\":9232:9262   */\n      mstore\n        /* \"#utility.yul\":9298:9332   */\n      0x45524332303a207472616e7366657220616d6f756e7420657863656564732062\n        /* \"#utility.yul\":9278:9296   */\n      0x44\n      dup3\n      add\n        /* \"#utility.yul\":9271:9333   */\n      mstore\n      shl(0xd0, 0x616c616e6365)\n        /* \"#utility.yul\":9349:9367   */\n      0x64\n      dup3\n      add\n        /* \"#utility.yul\":9342:9378   */\n      mstore\n        /* \"#utility.yul\":9395:9414   */\n      0x84\n      add\n        /* \"@openzeppelin/contracts/token/ERC20/ERC20.sol\":7720:7794  require(senderBalance >= amount, \"ERC20: transfer amount exceeds balance\") */\n      tag_116\n        /* \"#utility.yul\":9018:9420   */\n      jump\n        /* \"@openzeppelin/contracts/token/ERC20/ERC20.sol\":7720:7794  require(senderBalance >= amount, \"ERC20: transfer amount exceeds balance\") */\n    tag_233:\n      sub(shl(0xa0, 0x01), 0x01)\n        /* \"@openzeppelin/contracts/token/ERC20/ERC20.sol\":7828:7845  _balances[sender] */\n      dup1\n      dup6\n      and\n        /* \"@openzeppelin/contracts/token/ERC20/ERC20.sol\":7828:7837  _balances */\n      0x00\n        /* \"@openzeppelin/contracts/token/ERC20/ERC20.sol\":7828:7845  _balances[sender] */\n      swap1\n      dup2\n      mstore\n      0x20\n      dup2\n      swap1\n      mstore\n      0x40\n      dup1\n      dup3\n      keccak256\n        /* \"@openzeppelin/contracts/token/ERC20/ERC20.sol\":7848:7870  senderBalance - amount */\n      dup6\n      dup6\n      sub\n        /* \"@openzeppelin/contracts/token/ERC20/ERC20.sol\":7828:7870  _balances[sender] = senderBalance - amount */\n      swap1\n      sstore\n        /* \"@openzeppelin/contracts/token/ERC20/ERC20.sol\":7890:7910  _balances[recipient] */\n      swap2\n      dup6\n      and\n      dup2\n      mstore\n      swap1\n      dup2\n      keccak256\n        /* \"@openzeppelin/contracts/token/ERC20/ERC20.sol\":7890:7920  _balances[recipient] += amount */\n      dup1\n      sload\n        /* \"@openzeppelin/contracts/token/ERC20/ERC20.sol\":7864:7870  amount */\n      dup5\n      swap3\n        /* \"@openzeppelin/contracts/token/ERC20/ERC20.sol\":7828:7837  _balances */\n      swap1\n        /* \"@openzeppelin/contracts/token/ERC20/ERC20.sol\":7890:7920  _balances[recipient] += amount */\n      tag_236\n      swap1\n        /* \"@openzeppelin/contracts/token/ERC20/ERC20.sol\":7864:7870  amount */\n      dup5\n      swap1\n        /* \"@openzeppelin/contracts/token/ERC20/ERC20.sol\":7890:7920  _balances[recipient] += amount */\n      tag_126\n      jump\t// in\n    tag_236:\n      swap3\n      pop\n      pop\n      dup2\n      swap1\n      sstore\n      pop\n        /* \"@openzeppelin/contracts/token/ERC20/ERC20.sol\":7953:7962  recipient */\n      dup3\n      sub(shl(0xa0, 0x01), 0x01)\n        /* \"@openzeppelin/contracts/token/ERC20/ERC20.sol\":7936:7971  Transfer(sender, recipient, amount) */\n      and\n        /* \"@openzeppelin/contracts/token/ERC20/ERC20.sol\":7945:7951  sender */\n      dup5\n      sub(shl(0xa0, 0x01), 0x01)\n        /* \"@openzeppelin/contracts/token/ERC20/ERC20.sol\":7936:7971  Transfer(sender, recipient, amount) */\n      and\n      0xddf252ad1be2c89b69c2b068fc378daa952ba7f163c4a11628f55a4df523b3ef\n        /* \"@openzeppelin/contracts/token/ERC20/ERC20.sol\":7964:7970  amount */\n      dup5\n        /* \"@openzeppelin/contracts/token/ERC20/ERC20.sol\":7936:7971  Transfer(sender, recipient, amount) */\n      mload(0x40)\n      tag_237\n      swap2\n        /* \"#utility.yul\":1391:1416   */\n      dup2\n      mstore\n        /* \"#utility.yul\":1379:1381   */\n      0x20\n        /* \"#utility.yul\":1364:1382   */\n      add\n      swap1\n        /* \"#utility.yul\":1245:1422   */\n      jump\n        /* \"@openzeppelin/contracts/token/ERC20/ERC20.sol\":7936:7971  Transfer(sender, recipient, amount) */\n    tag_237:\n      mload(0x40)\n      dup1\n      swap2\n      sub\n      swap1\n      log3\n        /* \"@openzeppelin/contracts/token/ERC20/ERC20.sol\":7439:8035  {... */\n      pop\n        /* \"@openzeppelin/contracts/token/ERC20/ERC20.sol\":7322:8035  function _transfer(... */\n      pop\n      pop\n      pop\n      jump\t// out\n        /* \"contracts/YNPresalePair.sol\":865:1081  function _transferTokenToUser(address user,uint256 money) private {... */\n    tag_135:\n        /* \"contracts/YNPresalePair.sol\":1003:1034  yerc20.balanceOf(address(this)) */\n      mload(0x40)\n      shl(0xe0, 0x70a08231)\n      dup2\n      mstore\n        /* \"contracts/YNPresalePair.sol\":971:975  this */\n      address\n        /* \"contracts/YNPresalePair.sol\":1003:1034  yerc20.balanceOf(address(this)) */\n      0x04\n      dup3\n      add\n        /* \"#utility.yul\":2286:2337   */\n      dup2\n      swap1\n      mstore\n        /* \"contracts/YNPresalePair.sol\":971:975  this */\n      swap1\n      dup2\n      swap1\n        /* \"contracts/YNPresalePair.sol\":1003:1019  yerc20.balanceOf */\n      0x70a08231\n      swap1\n        /* \"#utility.yul\":2259:2277   */\n      0x24\n      add\n        /* \"contracts/YNPresalePair.sol\":1003:1034  yerc20.balanceOf(address(this)) */\n      0x20\n      mload(0x40)\n      dup1\n      dup4\n      sub\n      dup2\n      dup7\n      gas\n      staticcall\n      iszero\n      dup1\n      iszero\n      tag_243\n      jumpi\n      returndatasize\n      0x00\n      dup1\n      returndatacopy\n      revert(0x00, returndatasize)\n    tag_243:\n      pop\n      pop\n      pop\n      pop\n      mload(0x40)\n      returndatasize\n      not(0x1f)\n      0x1f\n      dup3\n      add\n      and\n      dup3\n      add\n      dup1\n      0x40\n      mstore\n      pop\n      dup2\n      add\n      swap1\n      tag_244\n      swap2\n      swap1\n      tag_174\n      jump\t// in\n    tag_244:\n        /* \"contracts/YNPresalePair.sol\":996:1001  money */\n      dup3\n        /* \"contracts/YNPresalePair.sol\":996:1034  money<=yerc20.balanceOf(address(this)) */\n      gt\n      iszero\n        /* \"contracts/YNPresalePair.sol\":988:1035  require(money<=yerc20.balanceOf(address(this))) */\n      tag_245\n      jumpi\n      0x00\n      dup1\n      revert\n    tag_245:\n        /* \"contracts/YNPresalePair.sol\":1046:1073  yerc20.transfer(user,money) */\n      mload(0x40)\n      shl(0xe0, 0xa9059cbb)\n      dup2\n      mstore\n      sub(shl(0xa0, 0x01), 0x01)\n        /* \"#utility.yul\":9617:9649   */\n      dup5\n      dup2\n      and\n        /* \"contracts/YNPresalePair.sol\":1046:1073  yerc20.transfer(user,money) */\n      0x04\n      dup4\n      add\n        /* \"#utility.yul\":9599:9650   */\n      mstore\n        /* \"#utility.yul\":9666:9684   */\n      0x24\n      dup3\n      add\n        /* \"#utility.yul\":9659:9693   */\n      dup5\n      swap1\n      mstore\n        /* \"contracts/YNPresalePair.sol\":1046:1061  yerc20.transfer */\n      dup3\n      and\n      swap1\n      0xa9059cbb\n      swap1\n        /* \"#utility.yul\":9572:9590   */\n      0x44\n      add\n        /* \"contracts/YNPresalePair.sol\":1046:1073  yerc20.transfer(user,money) */\n      0x20\n      mload(0x40)\n      dup1\n      dup4\n      sub\n      dup2\n      0x00\n      dup8\n      gas\n      call\n      iszero\n      dup1\n      iszero\n      tag_249\n      jumpi\n      returndatasize\n      0x00\n      dup1\n      returndatacopy\n      revert(0x00, returndatasize)\n    tag_249:\n      pop\n      pop\n      pop\n      pop\n      mload(0x40)\n      returndatasize\n      not(0x1f)\n      0x1f\n      dup3\n      add\n      and\n      dup3\n      add\n      dup1\n      0x40\n      mstore\n      pop\n      dup2\n      add\n      swap1\n      tag_179\n      swap2\n      swap1\n      tag_251\n      jump\t// in\n        /* \"@openzeppelin/contracts/access/Ownable.sol\":2270:2457  function _transferOwnership(address newOwner) internal virtual {... */\n    tag_144:\n        /* \"@openzeppelin/contracts/access/Ownable.sol\":2362:2368  _owner */\n      0x05\n      dup1\n      sload\n      sub(shl(0xa0, 0x01), 0x01)\n        /* \"@openzeppelin/contracts/access/Ownable.sol\":2378:2395  _owner = newOwner */\n      dup4\n      dup2\n      and\n      not(sub(shl(0xa0, 0x01), 0x01))\n      dup4\n      and\n      dup2\n      or\n      swap1\n      swap4\n      sstore\n        /* \"@openzeppelin/contracts/access/Ownable.sol\":2410:2450  OwnershipTransferred(oldOwner, newOwner) */\n      mload(0x40)\n        /* \"@openzeppelin/contracts/access/Ownable.sol\":2362:2368  _owner */\n      swap2\n      and\n      swap2\n        /* \"@openzeppelin/contracts/access/Ownable.sol\":2378:2395  _owner = newOwner */\n      swap1\n        /* \"@openzeppelin/contracts/access/Ownable.sol\":2362:2368  _owner */\n      dup3\n      swap1\n        /* \"@openzeppelin/contracts/access/Ownable.sol\":2410:2450  OwnershipTransferred(oldOwner, newOwner) */\n      0x8be0079c531659141344cd1fd0a4f28419497f9722a3daafe3b4186f6b6457e0\n      swap1\n        /* \"@openzeppelin/contracts/access/Ownable.sol\":2343:2359  address oldOwner */\n      0x00\n      swap1\n        /* \"@openzeppelin/contracts/access/Ownable.sol\":2410:2450  OwnershipTransferred(oldOwner, newOwner) */\n      log3\n        /* \"@openzeppelin/contracts/access/Ownable.sol\":2333:2457  {... */\n      pop\n        /* \"@openzeppelin/contracts/access/Ownable.sol\":2270:2457  function _transferOwnership(address newOwner) internal virtual {... */\n      pop\n      jump\t// out\n        /* \"@openzeppelin/contracts/utils/math/SafeMath.sol\":3451:3547  function mul(uint256 a, uint256 b) internal pure returns (uint256) {... */\n    tag_167:\n        /* \"@openzeppelin/contracts/utils/math/SafeMath.sol\":3509:3516  uint256 */\n      0x00\n        /* \"@openzeppelin/contracts/utils/math/SafeMath.sol\":3535:3540  a * b */\n      tag_254\n        /* \"@openzeppelin/contracts/utils/math/SafeMath.sol\":3539:3540  b */\n      dup3\n        /* \"@openzeppelin/contracts/utils/math/SafeMath.sol\":3535:3536  a */\n      dup5\n        /* \"@openzeppelin/contracts/utils/math/SafeMath.sol\":3535:3540  a * b */\n      tag_166\n      jump\t// in\n    tag_254:\n        /* \"@openzeppelin/contracts/utils/math/SafeMath.sol\":3528:3540  return a * b */\n      swap4\n        /* \"@openzeppelin/contracts/utils/math/SafeMath.sol\":3451:3547  function mul(uint256 a, uint256 b) internal pure returns (uint256) {... */\n      swap3\n      pop\n      pop\n      pop\n      jump\t// out\n        /* \"@openzeppelin/contracts/utils/math/SafeMath.sol\":3836:3932  function div(uint256 a, uint256 b) internal pure returns (uint256) {... */\n    tag_168:\n        /* \"@openzeppelin/contracts/utils/math/SafeMath.sol\":3894:3901  uint256 */\n      0x00\n        /* \"@openzeppelin/contracts/utils/math/SafeMath.sol\":3920:3925  a / b */\n      tag_254\n        /* \"@openzeppelin/contracts/utils/math/SafeMath.sol\":3924:3925  b */\n      dup3\n        /* \"@openzeppelin/contracts/utils/math/SafeMath.sol\":3920:3921  a */\n      dup5\n        /* \"@openzeppelin/contracts/utils/math/SafeMath.sol\":3920:3925  a / b */\n      tag_257\n      jump\t// in\n        /* \"@openzeppelin/contracts/token/ERC20/ERC20.sol\":3721:3893  function transfer(address recipient, uint256 amount) public virtual override returns (bool) {... */\n    tag_186:\n        /* \"@openzeppelin/contracts/token/ERC20/ERC20.sol\":3807:3811  bool */\n      0x00\n        /* \"@openzeppelin/contracts/token/ERC20/ERC20.sol\":3823:3865  _transfer(_msgSender(), recipient, amount) */\n      tag_106\n        /* \"@openzeppelin/contracts/utils/Context.sol\":719:729  msg.sender */\n      caller\n        /* \"@openzeppelin/contracts/token/ERC20/ERC20.sol\":3847:3856  recipient */\n      dup5\n        /* \"@openzeppelin/contracts/token/ERC20/ERC20.sol\":3858:3864  amount */\n      dup5\n        /* \"@openzeppelin/contracts/token/ERC20/ERC20.sol\":3823:3832  _transfer */\n      tag_113\n        /* \"@openzeppelin/contracts/token/ERC20/ERC20.sol\":3823:3865  _transfer(_msgSender(), recipient, amount) */\n      jump\t// in\n        /* \"#utility.yul\":14:611   */\n    tag_25:\n        /* \"#utility.yul\":126:130   */\n      0x00\n        /* \"#utility.yul\":155:157   */\n      0x20\n        /* \"#utility.yul\":184:186   */\n      dup1\n        /* \"#utility.yul\":173:182   */\n      dup4\n        /* \"#utility.yul\":166:187   */\n      mstore\n        /* \"#utility.yul\":216:222   */\n      dup4\n        /* \"#utility.yul\":210:223   */\n      mload\n        /* \"#utility.yul\":259:265   */\n      dup1\n        /* \"#utility.yul\":254:256   */\n      dup3\n        /* \"#utility.yul\":243:252   */\n      dup6\n        /* \"#utility.yul\":239:257   */\n      add\n        /* \"#utility.yul\":232:266   */\n      mstore\n        /* \"#utility.yul\":284:285   */\n      0x00\n        /* \"#utility.yul\":294:434   */\n    tag_269:\n        /* \"#utility.yul\":308:314   */\n      dup2\n        /* \"#utility.yul\":305:306   */\n      dup2\n        /* \"#utility.yul\":302:315   */\n      lt\n        /* \"#utility.yul\":294:434   */\n      iszero\n      tag_271\n      jumpi\n        /* \"#utility.yul\":403:417   */\n      dup6\n      dup2\n      add\n        /* \"#utility.yul\":399:422   */\n      dup4\n      add\n        /* \"#utility.yul\":393:423   */\n      mload\n        /* \"#utility.yul\":369:386   */\n      dup6\n      dup3\n      add\n        /* \"#utility.yul\":388:390   */\n      0x40\n        /* \"#utility.yul\":365:391   */\n      add\n        /* \"#utility.yul\":358:424   */\n      mstore\n        /* \"#utility.yul\":323:333   */\n      dup3\n      add\n        /* \"#utility.yul\":294:434   */\n      jump(tag_269)\n    tag_271:\n        /* \"#utility.yul\":452:458   */\n      dup2\n        /* \"#utility.yul\":449:450   */\n      dup2\n        /* \"#utility.yul\":446:459   */\n      gt\n        /* \"#utility.yul\":443:534   */\n      iszero\n      tag_272\n      jumpi\n        /* \"#utility.yul\":522:523   */\n      0x00\n        /* \"#utility.yul\":517:519   */\n      0x40\n        /* \"#utility.yul\":508:514   */\n      dup4\n        /* \"#utility.yul\":497:506   */\n      dup8\n        /* \"#utility.yul\":493:515   */\n      add\n        /* \"#utility.yul\":489:520   */\n      add\n        /* \"#utility.yul\":482:524   */\n      mstore\n        /* \"#utility.yul\":443:534   */\n    tag_272:\n      pop\n        /* \"#utility.yul\":595:597   */\n      0x1f\n        /* \"#utility.yul\":574:589   */\n      add\n      not(0x1f)\n        /* \"#utility.yul\":570:599   */\n      and\n        /* \"#utility.yul\":555:600   */\n      swap3\n      swap1\n      swap3\n      add\n        /* \"#utility.yul\":602:604   */\n      0x40\n        /* \"#utility.yul\":551:605   */\n      add\n      swap4\n        /* \"#utility.yul\":14:611   */\n      swap3\n      pop\n      pop\n      pop\n      jump\t// out\n        /* \"#utility.yul\":616:789   */\n    tag_263:\n        /* \"#utility.yul\":684:704   */\n      dup1\n      calldataload\n      sub(shl(0xa0, 0x01), 0x01)\n        /* \"#utility.yul\":733:764   */\n      dup2\n      and\n        /* \"#utility.yul\":723:765   */\n      dup2\n      eq\n        /* \"#utility.yul\":713:783   */\n      tag_274\n      jumpi\n        /* \"#utility.yul\":779:780   */\n      0x00\n        /* \"#utility.yul\":776:777   */\n      dup1\n        /* \"#utility.yul\":769:781   */\n      revert\n        /* \"#utility.yul\":713:783   */\n    tag_274:\n        /* \"#utility.yul\":616:789   */\n      swap2\n      swap1\n      pop\n      jump\t// out\n        /* \"#utility.yul\":794:1048   */\n    tag_29:\n        /* \"#utility.yul\":862:868   */\n      0x00\n        /* \"#utility.yul\":870:876   */\n      dup1\n        /* \"#utility.yul\":923:925   */\n      0x40\n        /* \"#utility.yul\":911:920   */\n      dup4\n        /* \"#utility.yul\":902:909   */\n      dup6\n        /* \"#utility.yul\":898:921   */\n      sub\n        /* \"#utility.yul\":894:926   */\n      slt\n        /* \"#utility.yul\":891:943   */\n      iszero\n      tag_276\n      jumpi\n        /* \"#utility.yul\":939:940   */\n      0x00\n        /* \"#utility.yul\":936:937   */\n      dup1\n        /* \"#utility.yul\":929:941   */\n      revert\n        /* \"#utility.yul\":891:943   */\n    tag_276:\n        /* \"#utility.yul\":962:991   */\n      tag_277\n        /* \"#utility.yul\":981:990   */\n      dup4\n        /* \"#utility.yul\":962:991   */\n      tag_263\n      jump\t// in\n    tag_277:\n        /* \"#utility.yul\":952:991   */\n      swap5\n        /* \"#utility.yul\":1038:1040   */\n      0x20\n        /* \"#utility.yul\":1023:1041   */\n      swap4\n      swap1\n      swap4\n      add\n        /* \"#utility.yul\":1010:1042   */\n      calldataload\n      swap4\n      pop\n      pop\n      pop\n        /* \"#utility.yul\":794:1048   */\n      jump\t// out\n        /* \"#utility.yul\":1427:1755   */\n    tag_41:\n        /* \"#utility.yul\":1504:1510   */\n      0x00\n        /* \"#utility.yul\":1512:1518   */\n      dup1\n        /* \"#utility.yul\":1520:1526   */\n      0x00\n        /* \"#utility.yul\":1573:1575   */\n      0x60\n        /* \"#utility.yul\":1561:1570   */\n      dup5\n        /* \"#utility.yul\":1552:1559   */\n      dup7\n        /* \"#utility.yul\":1548:1571   */\n      sub\n        /* \"#utility.yul\":1544:1576   */\n      slt\n        /* \"#utility.yul\":1541:1593   */\n      iszero\n      tag_281\n      jumpi\n        /* \"#utility.yul\":1589:1590   */\n      0x00\n        /* \"#utility.yul\":1586:1587   */\n      dup1\n        /* \"#utility.yul\":1579:1591   */\n      revert\n        /* \"#utility.yul\":1541:1593   */\n    tag_281:\n        /* \"#utility.yul\":1612:1641   */\n      tag_282\n        /* \"#utility.yul\":1631:1640   */\n      dup5\n        /* \"#utility.yul\":1612:1641   */\n      tag_263\n      jump\t// in\n    tag_282:\n        /* \"#utility.yul\":1602:1641   */\n      swap3\n      pop\n        /* \"#utility.yul\":1660:1698   */\n      tag_283\n        /* \"#utility.yul\":1694:1696   */\n      0x20\n        /* \"#utility.yul\":1683:1692   */\n      dup6\n        /* \"#utility.yul\":1679:1697   */\n      add\n        /* \"#utility.yul\":1660:1698   */\n      tag_263\n      jump\t// in\n    tag_283:\n        /* \"#utility.yul\":1650:1698   */\n      swap2\n      pop\n        /* \"#utility.yul\":1745:1747   */\n      0x40\n        /* \"#utility.yul\":1734:1743   */\n      dup5\n        /* \"#utility.yul\":1730:1748   */\n      add\n        /* \"#utility.yul\":1717:1749   */\n      calldataload\n        /* \"#utility.yul\":1707:1749   */\n      swap1\n      pop\n        /* \"#utility.yul\":1427:1755   */\n      swap3\n      pop\n      swap3\n      pop\n      swap3\n      jump\t// out\n        /* \"#utility.yul\":1949:2135   */\n    tag_61:\n        /* \"#utility.yul\":2008:2014   */\n      0x00\n        /* \"#utility.yul\":2061:2063   */\n      0x20\n        /* \"#utility.yul\":2049:2058   */\n      dup3\n        /* \"#utility.yul\":2040:2047   */\n      dup5\n        /* \"#utility.yul\":2036:2059   */\n      sub\n        /* \"#utility.yul\":2032:2064   */\n      slt\n        /* \"#utility.yul\":2029:2081   */\n      iszero\n      tag_286\n      jumpi\n        /* \"#utility.yul\":2077:2078   */\n      0x00\n        /* \"#utility.yul\":2074:2075   */\n      dup1\n        /* \"#utility.yul\":2067:2079   */\n      revert\n        /* \"#utility.yul\":2029:2081   */\n    tag_286:\n        /* \"#utility.yul\":2100:2129   */\n      tag_254\n        /* \"#utility.yul\":2119:2128   */\n      dup3\n        /* \"#utility.yul\":2100:2129   */\n      tag_263\n      jump\t// in\n        /* \"#utility.yul\":2348:2608   */\n    tag_91:\n        /* \"#utility.yul\":2416:2422   */\n      0x00\n        /* \"#utility.yul\":2424:2430   */\n      dup1\n        /* \"#utility.yul\":2477:2479   */\n      0x40\n        /* \"#utility.yul\":2465:2474   */\n      dup4\n        /* \"#utility.yul\":2456:2463   */\n      dup6\n        /* \"#utility.yul\":2452:2475   */\n      sub\n        /* \"#utility.yul\":2448:2480   */\n      slt\n        /* \"#utility.yul\":2445:2497   */\n      iszero\n      tag_290\n      jumpi\n        /* \"#utility.yul\":2493:2494   */\n      0x00\n        /* \"#utility.yul\":2490:2491   */\n      dup1\n        /* \"#utility.yul\":2483:2495   */\n      revert\n        /* \"#utility.yul\":2445:2497   */\n    tag_290:\n        /* \"#utility.yul\":2516:2545   */\n      tag_291\n        /* \"#utility.yul\":2535:2544   */\n      dup4\n        /* \"#utility.yul\":2516:2545   */\n      tag_263\n      jump\t// in\n    tag_291:\n        /* \"#utility.yul\":2506:2545   */\n      swap2\n      pop\n        /* \"#utility.yul\":2564:2602   */\n      tag_292\n        /* \"#utility.yul\":2598:2600   */\n      0x20\n        /* \"#utility.yul\":2587:2596   */\n      dup5\n        /* \"#utility.yul\":2583:2601   */\n      add\n        /* \"#utility.yul\":2564:2602   */\n      tag_263\n      jump\t// in\n    tag_292:\n        /* \"#utility.yul\":2554:2602   */\n      swap1\n      pop\n        /* \"#utility.yul\":2348:2608   */\n      swap3\n      pop\n      swap3\n      swap1\n      pop\n      jump\t// out\n        /* \"#utility.yul\":2613:2993   */\n    tag_100:\n        /* \"#utility.yul\":2692:2693   */\n      0x01\n        /* \"#utility.yul\":2688:2700   */\n      dup2\n      dup2\n      shr\n      swap1\n        /* \"#utility.yul\":2735:2747   */\n      dup3\n      and\n      dup1\n        /* \"#utility.yul\":2756:2817   */\n      tag_294\n      jumpi\n        /* \"#utility.yul\":2810:2814   */\n      0x7f\n        /* \"#utility.yul\":2802:2808   */\n      dup3\n        /* \"#utility.yul\":2798:2815   */\n      and\n        /* \"#utility.yul\":2788:2815   */\n      swap2\n      pop\n        /* \"#utility.yul\":2756:2817   */\n    tag_294:\n        /* \"#utility.yul\":2863:2865   */\n      0x20\n        /* \"#utility.yul\":2855:2861   */\n      dup3\n        /* \"#utility.yul\":2852:2866   */\n      lt\n        /* \"#utility.yul\":2832:2850   */\n      dup2\n        /* \"#utility.yul\":2829:2867   */\n      sub\n        /* \"#utility.yul\":2826:2987   */\n      tag_295\n      jumpi\n        /* \"#utility.yul\":2909:2919   */\n      0x4e487b71\n        /* \"#utility.yul\":2904:2907   */\n      0xe0\n        /* \"#utility.yul\":2900:2920   */\n      shl\n        /* \"#utility.yul\":2897:2898   */\n      0x00\n        /* \"#utility.yul\":2890:2921   */\n      mstore\n        /* \"#utility.yul\":2944:2948   */\n      0x22\n        /* \"#utility.yul\":2941:2942   */\n      0x04\n        /* \"#utility.yul\":2934:2949   */\n      mstore\n        /* \"#utility.yul\":2972:2976   */\n      0x24\n        /* \"#utility.yul\":2969:2970   */\n      0x00\n        /* \"#utility.yul\":2962:2977   */\n      revert\n        /* \"#utility.yul\":2826:2987   */\n    tag_295:\n      pop\n        /* \"#utility.yul\":2613:2993   */\n      swap2\n      swap1\n      pop\n      jump\t// out\n        /* \"#utility.yul\":3407:3534   */\n    tag_264:\n        /* \"#utility.yul\":3468:3478   */\n      0x4e487b71\n        /* \"#utility.yul\":3463:3466   */\n      0xe0\n        /* \"#utility.yul\":3459:3479   */\n      shl\n        /* \"#utility.yul\":3456:3457   */\n      0x00\n        /* \"#utility.yul\":3449:3480   */\n      mstore\n        /* \"#utility.yul\":3499:3503   */\n      0x11\n        /* \"#utility.yul\":3496:3497   */\n      0x04\n        /* \"#utility.yul\":3489:3504   */\n      mstore\n        /* \"#utility.yul\":3523:3527   */\n      0x24\n        /* \"#utility.yul\":3520:3521   */\n      0x00\n        /* \"#utility.yul\":3513:3528   */\n      revert\n        /* \"#utility.yul\":3539:3667   */\n    tag_126:\n        /* \"#utility.yul\":3579:3582   */\n      0x00\n        /* \"#utility.yul\":3610:3611   */\n      dup3\n        /* \"#utility.yul\":3606:3612   */\n      not\n        /* \"#utility.yul\":3603:3604   */\n      dup3\n        /* \"#utility.yul\":3600:3613   */\n      gt\n        /* \"#utility.yul\":3597:3636   */\n      iszero\n      tag_300\n      jumpi\n        /* \"#utility.yul\":3616:3634   */\n      tag_300\n      tag_264\n      jump\t// in\n    tag_300:\n      pop\n        /* \"#utility.yul\":3652:3661   */\n      add\n      swap1\n        /* \"#utility.yul\":3539:3667   */\n      jump\t// out\n        /* \"#utility.yul\":3672:4028   */\n    tag_132:\n        /* \"#utility.yul\":3874:3876   */\n      0x20\n        /* \"#utility.yul\":3856:3877   */\n      dup1\n      dup3\n      mstore\n        /* \"#utility.yul\":3893:3911   */\n      dup2\n      dup2\n      add\n        /* \"#utility.yul\":3886:3916   */\n      mstore\n        /* \"#utility.yul\":3952:3986   */\n      0x4f776e61626c653a2063616c6c6572206973206e6f7420746865206f776e6572\n        /* \"#utility.yul\":3947:3949   */\n      0x40\n        /* \"#utility.yul\":3932:3950   */\n      dup3\n      add\n        /* \"#utility.yul\":3925:3987   */\n      mstore\n        /* \"#utility.yul\":4019:4021   */\n      0x60\n        /* \"#utility.yul\":4004:4022   */\n      add\n      swap1\n        /* \"#utility.yul\":3672:4028   */\n      jump\t// out\n        /* \"#utility.yul\":4439:4861   */\n    tag_265:\n        /* \"#utility.yul\":4528:4529   */\n      0x01\n        /* \"#utility.yul\":4571:4576   */\n      dup2\n        /* \"#utility.yul\":4528:4529   */\n      dup2\n        /* \"#utility.yul\":4585:4855   */\n    tag_304:\n        /* \"#utility.yul\":4606:4613   */\n      dup1\n        /* \"#utility.yul\":4596:4604   */\n      dup6\n        /* \"#utility.yul\":4593:4614   */\n      gt\n        /* \"#utility.yul\":4585:4855   */\n      iszero\n      tag_306\n      jumpi\n        /* \"#utility.yul\":4665:4669   */\n      dup2\n        /* \"#utility.yul\":4661:4662   */\n      0x00\n        /* \"#utility.yul\":4657:4663   */\n      not\n        /* \"#utility.yul\":4653:4670   */\n      div\n        /* \"#utility.yul\":4647:4651   */\n      dup3\n        /* \"#utility.yul\":4644:4671   */\n      gt\n        /* \"#utility.yul\":4641:4694   */\n      iszero\n      tag_308\n      jumpi\n        /* \"#utility.yul\":4674:4692   */\n      tag_308\n      tag_264\n      jump\t// in\n    tag_308:\n        /* \"#utility.yul\":4724:4731   */\n      dup1\n        /* \"#utility.yul\":4714:4722   */\n      dup6\n        /* \"#utility.yul\":4710:4732   */\n      and\n        /* \"#utility.yul\":4707:4762   */\n      iszero\n      tag_309\n      jumpi\n        /* \"#utility.yul\":4744:4760   */\n      swap2\n      dup2\n      mul\n      swap2\n        /* \"#utility.yul\":4707:4762   */\n    tag_309:\n        /* \"#utility.yul\":4823:4845   */\n      swap4\n      dup5\n      shr\n      swap4\n        /* \"#utility.yul\":4783:4798   */\n      swap1\n      dup1\n      mul\n      swap1\n        /* \"#utility.yul\":4585:4855   */\n      jump(tag_304)\n    tag_306:\n        /* \"#utility.yul\":4589:4592   */\n      pop\n        /* \"#utility.yul\":4439:4861   */\n      swap3\n      pop\n      swap3\n      swap1\n      pop\n      jump\t// out\n        /* \"#utility.yul\":4866:5672   */\n    tag_266:\n        /* \"#utility.yul\":4915:4920   */\n      0x00\n        /* \"#utility.yul\":4945:4953   */\n      dup3\n        /* \"#utility.yul\":4935:5015   */\n      tag_311\n      jumpi\n      pop\n        /* \"#utility.yul\":4986:4987   */\n      0x01\n        /* \"#utility.yul\":5000:5005   */\n      jump(tag_105)\n        /* \"#utility.yul\":4935:5015   */\n    tag_311:\n        /* \"#utility.yul\":5034:5038   */\n      dup2\n        /* \"#utility.yul\":5024:5100   */\n      tag_312\n      jumpi\n      pop\n        /* \"#utility.yul\":5071:5072   */\n      0x00\n        /* \"#utility.yul\":5085:5090   */\n      jump(tag_105)\n        /* \"#utility.yul\":5024:5100   */\n    tag_312:\n        /* \"#utility.yul\":5116:5120   */\n      dup2\n        /* \"#utility.yul\":5134:5135   */\n      0x01\n        /* \"#utility.yul\":5129:5188   */\n      dup2\n      eq\n      tag_314\n      jumpi\n        /* \"#utility.yul\":5202:5203   */\n      0x02\n        /* \"#utility.yul\":5197:5327   */\n      dup2\n      eq\n      tag_315\n      jumpi\n        /* \"#utility.yul\":5109:5327   */\n      jump(tag_313)\n        /* \"#utility.yul\":5129:5188   */\n    tag_314:\n        /* \"#utility.yul\":5159:5160   */\n      0x01\n        /* \"#utility.yul\":5150:5160   */\n      swap2\n      pop\n        /* \"#utility.yul\":5173:5178   */\n      pop\n      jump(tag_105)\n        /* \"#utility.yul\":5197:5327   */\n    tag_315:\n        /* \"#utility.yul\":5234:5237   */\n      0xff\n        /* \"#utility.yul\":5224:5232   */\n      dup5\n        /* \"#utility.yul\":5221:5238   */\n      gt\n        /* \"#utility.yul\":5218:5261   */\n      iszero\n      tag_317\n      jumpi\n        /* \"#utility.yul\":5241:5259   */\n      tag_317\n      tag_264\n      jump\t// in\n    tag_317:\n      pop\n      pop\n        /* \"#utility.yul\":5297:5298   */\n      0x01\n        /* \"#utility.yul\":5283:5299   */\n      dup3\n      shl\n        /* \"#utility.yul\":5312:5317   */\n      jump(tag_105)\n        /* \"#utility.yul\":5109:5327   */\n    tag_313:\n      pop\n        /* \"#utility.yul\":5411:5413   */\n      0x20\n        /* \"#utility.yul\":5401:5409   */\n      dup4\n        /* \"#utility.yul\":5398:5414   */\n      lt\n        /* \"#utility.yul\":5392:5395   */\n      0x0133\n        /* \"#utility.yul\":5386:5390   */\n      dup4\n        /* \"#utility.yul\":5383:5396   */\n      lt\n        /* \"#utility.yul\":5379:5415   */\n      and\n        /* \"#utility.yul\":5373:5375   */\n      0x4e\n        /* \"#utility.yul\":5363:5371   */\n      dup5\n        /* \"#utility.yul\":5360:5376   */\n      lt\n        /* \"#utility.yul\":5355:5357   */\n      0x0b\n        /* \"#utility.yul\":5349:5353   */\n      dup5\n        /* \"#utility.yul\":5346:5358   */\n      lt\n        /* \"#utility.yul\":5342:5377   */\n      and\n        /* \"#utility.yul\":5339:5416   */\n      or\n        /* \"#utility.yul\":5336:5495   */\n      iszero\n      tag_318\n      jumpi\n      pop\n        /* \"#utility.yul\":5448:5467   */\n      dup2\n      dup2\n      exp\n        /* \"#utility.yul\":5480:5485   */\n      jump(tag_105)\n        /* \"#utility.yul\":5336:5495   */\n    tag_318:\n        /* \"#utility.yul\":5527:5561   */\n      tag_319\n        /* \"#utility.yul\":5552:5560   */\n      dup4\n        /* \"#utility.yul\":5546:5550   */\n      dup4\n        /* \"#utility.yul\":5527:5561   */\n      tag_265\n      jump\t// in\n    tag_319:\n        /* \"#utility.yul\":5597:5603   */\n      dup1\n        /* \"#utility.yul\":5593:5594   */\n      0x00\n        /* \"#utility.yul\":5589:5595   */\n      not\n        /* \"#utility.yul\":5585:5604   */\n      div\n        /* \"#utility.yul\":5576:5583   */\n      dup3\n        /* \"#utility.yul\":5573:5605   */\n      gt\n        /* \"#utility.yul\":5570:5628   */\n      iszero\n      tag_321\n      jumpi\n        /* \"#utility.yul\":5608:5626   */\n      tag_321\n      tag_264\n      jump\t// in\n    tag_321:\n        /* \"#utility.yul\":5646:5666   */\n      mul\n      swap4\n        /* \"#utility.yul\":4866:5672   */\n      swap3\n      pop\n      pop\n      pop\n      jump\t// out\n        /* \"#utility.yul\":5677:5817   */\n    tag_164:\n        /* \"#utility.yul\":5735:5740   */\n      0x00\n        /* \"#utility.yul\":5764:5811   */\n      tag_254\n        /* \"#utility.yul\":5805:5809   */\n      0xff\n        /* \"#utility.yul\":5795:5803   */\n      dup5\n        /* \"#utility.yul\":5791:5810   */\n      and\n        /* \"#utility.yul\":5785:5789   */\n      dup4\n        /* \"#utility.yul\":5764:5811   */\n      tag_266\n      jump\t// in\n        /* \"#utility.yul\":5822:5990   */\n    tag_166:\n        /* \"#utility.yul\":5862:5869   */\n      0x00\n        /* \"#utility.yul\":5928:5929   */\n      dup2\n        /* \"#utility.yul\":5924:5925   */\n      0x00\n        /* \"#utility.yul\":5920:5926   */\n      not\n        /* \"#utility.yul\":5916:5930   */\n      div\n        /* \"#utility.yul\":5913:5914   */\n      dup4\n        /* \"#utility.yul\":5910:5931   */\n      gt\n        /* \"#utility.yul\":5905:5906   */\n      dup3\n        /* \"#utility.yul\":5898:5907   */\n      iszero\n        /* \"#utility.yul\":5891:5908   */\n      iszero\n        /* \"#utility.yul\":5887:5932   */\n      and\n        /* \"#utility.yul\":5884:5955   */\n      iszero\n      tag_326\n      jumpi\n        /* \"#utility.yul\":5935:5953   */\n      tag_326\n      tag_264\n      jump\t// in\n    tag_326:\n      pop\n        /* \"#utility.yul\":5975:5984   */\n      mul\n      swap1\n        /* \"#utility.yul\":5822:5990   */\n      jump\t// out\n        /* \"#utility.yul\":5995:6179   */\n    tag_174:\n        /* \"#utility.yul\":6065:6071   */\n      0x00\n        /* \"#utility.yul\":6118:6120   */\n      0x20\n        /* \"#utility.yul\":6106:6115   */\n      dup3\n        /* \"#utility.yul\":6097:6104   */\n      dup5\n        /* \"#utility.yul\":6093:6116   */\n      sub\n        /* \"#utility.yul\":6089:6121   */\n      slt\n        /* \"#utility.yul\":6086:6138   */\n      iszero\n      tag_328\n      jumpi\n        /* \"#utility.yul\":6134:6135   */\n      0x00\n        /* \"#utility.yul\":6131:6132   */\n      dup1\n        /* \"#utility.yul\":6124:6136   */\n      revert\n        /* \"#utility.yul\":6086:6138   */\n    tag_328:\n      pop\n        /* \"#utility.yul\":6157:6173   */\n      mload\n      swap2\n        /* \"#utility.yul\":5995:6179   */\n      swap1\n      pop\n      jump\t// out\n        /* \"#utility.yul\":9704:9981   */\n    tag_251:\n        /* \"#utility.yul\":9771:9777   */\n      0x00\n        /* \"#utility.yul\":9824:9826   */\n      0x20\n        /* \"#utility.yul\":9812:9821   */\n      dup3\n        /* \"#utility.yul\":9803:9810   */\n      dup5\n        /* \"#utility.yul\":9799:9822   */\n      sub\n        /* \"#utility.yul\":9795:9827   */\n      slt\n        /* \"#utility.yul\":9792:9844   */\n      iszero\n      tag_339\n      jumpi\n        /* \"#utility.yul\":9840:9841   */\n      0x00\n        /* \"#utility.yul\":9837:9838   */\n      dup1\n        /* \"#utility.yul\":9830:9842   */\n      revert\n        /* \"#utility.yul\":9792:9844   */\n    tag_339:\n        /* \"#utility.yul\":9872:9881   */\n      dup2\n        /* \"#utility.yul\":9866:9882   */\n      mload\n        /* \"#utility.yul\":9925:9930   */\n      dup1\n        /* \"#utility.yul\":9918:9931   */\n      iszero\n        /* \"#utility.yul\":9911:9932   */\n      iszero\n        /* \"#utility.yul\":9904:9909   */\n      dup2\n        /* \"#utility.yul\":9901:9933   */\n      eq\n        /* \"#utility.yul\":9891:9951   */\n      tag_254\n      jumpi\n        /* \"#utility.yul\":9947:9948   */\n      0x00\n        /* \"#utility.yul\":9944:9945   */\n      dup1\n        /* \"#utility.yul\":9937:9949   */\n      revert\n        /* \"#utility.yul\":9986:10203   */\n    tag_257:\n        /* \"#utility.yul\":10026:10027   */\n      0x00\n        /* \"#utility.yul\":10052:10053   */\n      dup3\n        /* \"#utility.yul\":10042:10174   */\n      tag_342\n      jumpi\n        /* \"#utility.yul\":10096:10106   */\n      0x4e487b71\n        /* \"#utility.yul\":10091:10094   */\n      0xe0\n        /* \"#utility.yul\":10087:10107   */\n      shl\n        /* \"#utility.yul\":10084:10085   */\n      0x00\n        /* \"#utility.yul\":10077:10108   */\n      mstore\n        /* \"#utility.yul\":10131:10135   */\n      0x12\n        /* \"#utility.yul\":10128:10129   */\n      0x04\n        /* \"#utility.yul\":10121:10136   */\n      mstore\n        /* \"#utility.yul\":10159:10163   */\n      0x24\n        /* \"#utility.yul\":10156:10157   */\n      0x00\n        /* \"#utility.yul\":10149:10164   */\n      revert\n        /* \"#utility.yul\":10042:10174   */\n    tag_342:\n      pop\n        /* \"#utility.yul\":10188:10197   */\n      div\n      swap1\n        /* \"#utility.yul\":9986:10203   */\n      jump\t// out\n\n    auxdata: 0xa26469706673582212205cbaa4f369dcaa1c957255297c8bf63bd6e19b1537c929b36033ec26faa3dc2964736f6c634300080d0033\n}\n",
				"bytecode": {
					"linkReferences": {},
					"object": "608060405260006006556000600755670de0b6b3a7640000600855670de0b6b3a7640000600955670de0b6b3a7640000600a553480156200003f57600080fd5b50604051620015b9380380620015b9833981016040819052620000629162000324565b60408051808201825260118152702cbab5b490283932b9b0b632902830b4b960791b602080830191825283518085019094526006845265594e2d50507360d01b908401528151919291620000b9916003916200027e565b508051620000cf9060049060208401906200027e565b505050620000ec620000e66200014060201b60201c565b62000144565b6200011133620000ff6012600a6200045e565b6200010b908562000476565b62000196565b8060085462000121919062000498565b6006556008546200013490829062000498565b60075550620005129050565b3390565b600580546001600160a01b038381166001600160a01b0319831681179093556040519116919082907f8be0079c531659141344cd1fd0a4f28419497f9722a3daafe3b4186f6b6457e090600090a35050565b6001600160a01b038216620001f15760405162461bcd60e51b815260206004820152601f60248201527f45524332303a206d696e7420746f20746865207a65726f206164647265737300604482015260640160405180910390fd5b8060026000828254620002059190620004bb565b90915550506001600160a01b0382166000908152602081905260408120805483929062000234908490620004bb565b90915550506040518181526001600160a01b038316906000907fddf252ad1be2c89b69c2b068fc378daa952ba7f163c4a11628f55a4df523b3ef9060200160405180910390a35050565b8280546200028c90620004d6565b90600052602060002090601f016020900481019282620002b05760008555620002fb565b82601f10620002cb57805160ff1916838001178555620002fb565b82800160010185558215620002fb579182015b82811115620002fb578251825591602001919060010190620002de565b50620003099291506200030d565b5090565b5b808211156200030957600081556001016200030e565b600080604083850312156200033857600080fd5b505080516020909101519092909150565b634e487b7160e01b600052601160045260246000fd5b600181815b80851115620003a057816000190482111562000384576200038462000349565b808516156200039257918102915b93841c939080029062000364565b509250929050565b600082620003b95750600162000458565b81620003c85750600062000458565b8160018114620003e15760028114620003ec576200040c565b600191505062000458565b60ff84111562000400576200040062000349565b50506001821b62000458565b5060208310610133831016604e8410600b841016171562000431575081810a62000458565b6200043d83836200035f565b806000190482111562000454576200045462000349565b0290505b92915050565b60006200046f60ff841683620003a8565b9392505050565b600081600019048311821515161562000493576200049362000349565b500290565b600082620004b657634e487b7160e01b600052601260045260246000fd5b500490565b60008219821115620004d157620004d162000349565b500190565b600181811c90821680620004eb57607f821691505b6020821081036200050c57634e487b7160e01b600052602260045260246000fd5b50919050565b61109780620005226000396000f3fe6080604052600436106100f35760003560e01c8063715018a61161008a578063a6f2ae3a11610059578063a6f2ae3a14610298578063a9059cbb146102a0578063dd62ed3e146102c0578063f2fde38b1461030657600080fd5b8063715018a6146102265780638da5cb5b1461023b57806395d89b4114610263578063a457c2d71461027857600080fd5b8063313ce567116100c6578063313ce5671461019257806339509351146101ae5780634664ffea146101ce57806370a08231146101f057600080fd5b806306fdde03146100f8578063095ea7b31461012357806318160ddd1461015357806323b872dd14610172575b600080fd5b34801561010457600080fd5b5061010d610326565b60405161011a9190610d30565b60405180910390f35b34801561012f57600080fd5b5061014361013e366004610da1565b6103b8565b604051901515815260200161011a565b34801561015f57600080fd5b506002545b60405190815260200161011a565b34801561017e57600080fd5b5061014361018d366004610dcb565b6103cf565b34801561019e57600080fd5b506040516012815260200161011a565b3480156101ba57600080fd5b506101436101c9366004610da1565b61047e565b3480156101da57600080fd5b506101ee6101e9366004610da1565b6104ba565b005b3480156101fc57600080fd5b5061016461020b366004610e07565b6001600160a01b031660009081526020819052604090205490565b34801561023257600080fd5b506101ee6104f2565b34801561024757600080fd5b506005546040516001600160a01b03909116815260200161011a565b34801561026f57600080fd5b5061010d610528565b34801561028457600080fd5b50610143610293366004610da1565b610537565b6101ee6105d0565b3480156102ac57600080fd5b506101436102bb366004610da1565b610720565b3480156102cc57600080fd5b506101646102db366004610e22565b6001600160a01b03918216600090815260016020908152604080832093909416825291909152205490565b34801561031257600080fd5b506101ee610321366004610e07565b610843565b60606003805461033590610e55565b80601f016020809104026020016040519081016040528092919081815260200182805461036190610e55565b80156103ae5780601f10610383576101008083540402835291602001916103ae565b820191906000526020600020905b81548152906001019060200180831161039157829003601f168201915b5050505050905090565b60006103c53384846108de565b5060015b92915050565b60006103dc848484610a02565b6001600160a01b0384166000908152600160209081526040808320338452909152902054828110156104665760405162461bcd60e51b815260206004820152602860248201527f45524332303a207472616e7366657220616d6f756e74206578636565647320616044820152676c6c6f77616e636560c01b60648201526084015b60405180910390fd5b61047385338584036108de565b506001949350505050565b3360008181526001602090815260408083206001600160a01b038716845290915281205490916103c59185906104b5908690610ea5565b6108de565b6005546001600160a01b031633146104e45760405162461bcd60e51b815260040161045d90610ebd565b6104ee8282610bd1565b5050565b6005546001600160a01b0316331461051c5760405162461bcd60e51b815260040161045d90610ebd565b6105266000610cb2565b565b60606004805461033590610e55565b3360009081526001602090815260408083206001600160a01b0386168452909152812054828110156105b95760405162461bcd60e51b815260206004820152602560248201527f45524332303a2064656372656173656420616c6c6f77616e63652062656c6f77604482015264207a65726f60d81b606482015260840161045d565b6105c633858584036108de565b5060019392505050565b60065430903490600090610605906105ff6105ed6012600a610fd6565b6105f8906001610fe5565b8590610d04565b90610d17565b905060095481116106c0576040516370a0823160e01b81523060048201526001600160a01b038416906370a0823190602401602060405180830381865afa158015610654573d6000803e3d6000fd5b505050506040513d601f19601f820116820180604052508101906106789190611004565b811161068d5761068833826104ba565b505050565b604051339083156108fc029084906000818181858888f193505050501580156106ba573d6000803e3d6000fd5b50505050565b600a548211156106885760405162461bcd60e51b815260206004820152602560248201527f594e50726573616c653a20414d4f554e542053414c4520414d4f554e5420455860448201526421a2a2a21760d91b606482015260840161045d565b60008061072d8484610d23565b905082306001600160a01b0386160361083b57600061076a6107516012600a610fd6565b61075c906001610fe5565b6007546105ff908590610d04565b9050600a5482116107dc574781116107af57604051339082156108fc029083906000818181858888f193505050501580156107a9573d6000803e3d6000fd5b50610839565b604051339083156108fc029084906000818181858888f193505050501580156107a9573d6000803e3d6000fd5b600a548211156108395760405162461bcd60e51b815260206004820152602260248201527f594e50726573616c653a204d41582053414c4520414d4f554e54204558434545604482015261221760f11b606482015260840161045d565b505b509392505050565b6005546001600160a01b0316331461086d5760405162461bcd60e51b815260040161045d90610ebd565b6001600160a01b0381166108d25760405162461bcd60e51b815260206004820152602660248201527f4f776e61626c653a206e6577206f776e657220697320746865207a65726f206160448201526564647265737360d01b606482015260840161045d565b6108db81610cb2565b50565b6001600160a01b0383166109405760405162461bcd60e51b8152602060048201526024808201527f45524332303a20617070726f76652066726f6d20746865207a65726f206164646044820152637265737360e01b606482015260840161045d565b6001600160a01b0382166109a15760405162461bcd60e51b815260206004820152602260248201527f45524332303a20617070726f766520746f20746865207a65726f206164647265604482015261737360f01b606482015260840161045d565b6001600160a01b0383811660008181526001602090815260408083209487168084529482529182902085905590518481527f8c5be1e5ebec7d5bd14f71427d1e84f3dd0314c0f7b2291e5b200ac8c7c3b925910160405180910390a3505050565b6001600160a01b038316610a665760405162461bcd60e51b815260206004820152602560248201527f45524332303a207472616e736665722066726f6d20746865207a65726f206164604482015264647265737360d81b606482015260840161045d565b6001600160a01b038216610ac85760405162461bcd60e51b815260206004820152602360248201527f45524332303a207472616e7366657220746f20746865207a65726f206164647260448201526265737360e81b606482015260840161045d565b6001600160a01b03831660009081526020819052604090205481811015610b405760405162461bcd60e51b815260206004820152602660248201527f45524332303a207472616e7366657220616d6f756e7420657863656564732062604482015265616c616e636560d01b606482015260840161045d565b6001600160a01b03808516600090815260208190526040808220858503905591851681529081208054849290610b77908490610ea5565b92505081905550826001600160a01b0316846001600160a01b03167fddf252ad1be2c89b69c2b068fc378daa952ba7f163c4a11628f55a4df523b3ef84604051610bc391815260200190565b60405180910390a350505050565b6040516370a0823160e01b815230600482018190529081906370a0823190602401602060405180830381865afa158015610c0f573d6000803e3d6000fd5b505050506040513d601f19601f82011682018060405250810190610c339190611004565b821115610c3f57600080fd5b60405163a9059cbb60e01b81526001600160a01b0384811660048301526024820184905282169063a9059cbb906044016020604051808303816000875af1158015610c8e573d6000803e3d6000fd5b505050506040513d601f19601f820116820180604052508101906106ba919061101d565b600580546001600160a01b038381166001600160a01b0319831681179093556040519116919082907f8be0079c531659141344cd1fd0a4f28419497f9722a3daafe3b4186f6b6457e090600090a35050565b6000610d108284610fe5565b9392505050565b6000610d10828461103f565b60006103c5338484610a02565b600060208083528351808285015260005b81811015610d5d57858101830151858201604001528201610d41565b81811115610d6f576000604083870101525b50601f01601f1916929092016040019392505050565b80356001600160a01b0381168114610d9c57600080fd5b919050565b60008060408385031215610db457600080fd5b610dbd83610d85565b946020939093013593505050565b600080600060608486031215610de057600080fd5b610de984610d85565b9250610df760208501610d85565b9150604084013590509250925092565b600060208284031215610e1957600080fd5b610d1082610d85565b60008060408385031215610e3557600080fd5b610e3e83610d85565b9150610e4c60208401610d85565b90509250929050565b600181811c90821680610e6957607f821691505b602082108103610e8957634e487b7160e01b600052602260045260246000fd5b50919050565b634e487b7160e01b600052601160045260246000fd5b60008219821115610eb857610eb8610e8f565b500190565b6020808252818101527f4f776e61626c653a2063616c6c6572206973206e6f7420746865206f776e6572604082015260600190565b600181815b80851115610f2d578160001904821115610f1357610f13610e8f565b80851615610f2057918102915b93841c9390800290610ef7565b509250929050565b600082610f44575060016103c9565b81610f51575060006103c9565b8160018114610f675760028114610f7157610f8d565b60019150506103c9565b60ff841115610f8257610f82610e8f565b50506001821b6103c9565b5060208310610133831016604e8410600b8410161715610fb0575081810a6103c9565b610fba8383610ef2565b8060001904821115610fce57610fce610e8f565b029392505050565b6000610d1060ff841683610f35565b6000816000190483118215151615610fff57610fff610e8f565b500290565b60006020828403121561101657600080fd5b5051919050565b60006020828403121561102f57600080fd5b81518015158114610d1057600080fd5b60008261105c57634e487b7160e01b600052601260045260246000fd5b50049056fea26469706673582212205cbaa4f369dcaa1c957255297c8bf63bd6e19b1537c929b36033ec26faa3dc2964736f6c634300080d0033",
					"opcodes": "PUSH1 0x80 PUSH1 0x40 MSTORE PUSH1 0x0 PUSH1 0x6 SSTORE PUSH1 0x0 PUSH1 0x7 SSTORE PUSH8 0xDE0B6B3A7640000 PUSH1 0x8 SSTORE PUSH8 0xDE0B6B3A7640000 PUSH1 0x9 SSTORE PUSH8 0xDE0B6B3A7640000 PUSH1 0xA SSTORE CALLVALUE DUP1 ISZERO PUSH3 0x3F JUMPI PUSH1 0x0 DUP1 REVERT JUMPDEST POP PUSH1 0x40 MLOAD PUSH3 0x15B9 CODESIZE SUB DUP1 PUSH3 0x15B9 DUP4 CODECOPY DUP2 ADD PUSH1 0x40 DUP2 SWAP1 MSTORE PUSH3 0x62 SWAP2 PUSH3 0x324 JUMP JUMPDEST PUSH1 0x40 DUP1 MLOAD DUP1 DUP3 ADD DUP3 MSTORE PUSH1 0x11 DUP2 MSTORE PUSH17 0x2CBAB5B490283932B9B0B632902830B4B9 PUSH1 0x79 SHL PUSH1 0x20 DUP1 DUP4 ADD SWAP2 DUP3 MSTORE DUP4 MLOAD DUP1 DUP6 ADD SWAP1 SWAP5 MSTORE PUSH1 0x6 DUP5 MSTORE PUSH6 0x594E2D505073 PUSH1 0xD0 SHL SWAP1 DUP5 ADD MSTORE DUP2 MLOAD SWAP2 SWAP3 SWAP2 PUSH3 0xB9 SWAP2 PUSH1 0x3 SWAP2 PUSH3 0x27E JUMP JUMPDEST POP DUP1 MLOAD PUSH3 0xCF SWAP1 PUSH1 0x4 SWAP1 PUSH1 0x20 DUP5 ADD SWAP1 PUSH3 0x27E JUMP JUMPDEST POP POP POP PUSH3 0xEC PUSH3 0xE6 PUSH3 0x140 PUSH1 0x20 SHL PUSH1 0x20 SHR JUMP JUMPDEST PUSH3 0x144 JUMP JUMPDEST PUSH3 0x111 CALLER PUSH3 0xFF PUSH1 0x12 PUSH1 0xA PUSH3 0x45E JUMP JUMPDEST PUSH3 0x10B SWAP1 DUP6 PUSH3 0x476 JUMP JUMPDEST PUSH3 0x196 JUMP JUMPDEST DUP1 PUSH1 0x8 SLOAD PUSH3 0x121 SWAP2 SWAP1 PUSH3 0x498 JUMP JUMPDEST PUSH1 0x6 SSTORE PUSH1 0x8 SLOAD PUSH3 0x134 SWAP1 DUP3 SWAP1 PUSH3 0x498 JUMP JUMPDEST PUSH1 0x7 SSTORE POP PUSH3 0x512 SWAP1 POP JUMP JUMPDEST CALLER SWAP1 JUMP JUMPDEST PUSH1 0x5 DUP1 SLOAD PUSH1 0x1 PUSH1 0x1 PUSH1 0xA0 SHL SUB DUP4 DUP2 AND PUSH1 0x1 PUSH1 0x1 PUSH1 0xA0 SHL SUB NOT DUP4 AND DUP2 OR SWAP1 SWAP4 SSTORE PUSH1 0x40 MLOAD SWAP2 AND SWAP2 SWAP1 DUP3 SWAP1 PUSH32 0x8BE0079C531659141344CD1FD0A4F28419497F9722A3DAAFE3B4186F6B6457E0 SWAP1 PUSH1 0x0 SWAP1 LOG3 POP POP JUMP JUMPDEST PUSH1 0x1 PUSH1 0x1 PUSH1 0xA0 SHL SUB DUP3 AND PUSH3 0x1F1 JUMPI PUSH1 0x40 MLOAD PUSH3 0x461BCD PUSH1 0xE5 SHL DUP2 MSTORE PUSH1 0x20 PUSH1 0x4 DUP3 ADD MSTORE PUSH1 0x1F PUSH1 0x24 DUP3 ADD MSTORE PUSH32 0x45524332303A206D696E7420746F20746865207A65726F206164647265737300 PUSH1 0x44 DUP3 ADD MSTORE PUSH1 0x64 ADD PUSH1 0x40 MLOAD DUP1 SWAP2 SUB SWAP1 REVERT JUMPDEST DUP1 PUSH1 0x2 PUSH1 0x0 DUP3 DUP3 SLOAD PUSH3 0x205 SWAP2 SWAP1 PUSH3 0x4BB JUMP JUMPDEST SWAP1 SWAP2 SSTORE POP POP PUSH1 0x1 PUSH1 0x1 PUSH1 0xA0 SHL SUB DUP3 AND PUSH1 0x0 SWAP1 DUP2 MSTORE PUSH1 0x20 DUP2 SWAP1 MSTORE PUSH1 0x40 DUP2 KECCAK256 DUP1 SLOAD DUP4 SWAP3 SWAP1 PUSH3 0x234 SWAP1 DUP5 SWAP1 PUSH3 0x4BB JUMP JUMPDEST SWAP1 SWAP2 SSTORE POP POP PUSH1 0x40 MLOAD DUP2 DUP2 MSTORE PUSH1 0x1 PUSH1 0x1 PUSH1 0xA0 SHL SUB DUP4 AND SWAP1 PUSH1 0x0 SWAP1 PUSH32 0xDDF252AD1BE2C89B69C2B068FC378DAA952BA7F163C4A11628F55A4DF523B3EF SWAP1 PUSH1 0x20 ADD PUSH1 0x40 MLOAD DUP1 SWAP2 SUB SWAP1 LOG3 POP POP JUMP JUMPDEST DUP3 DUP1 SLOAD PUSH3 0x28C SWAP1 PUSH3 0x4D6 JUMP JUMPDEST SWAP1 PUSH1 0x0 MSTORE PUSH1 0x20 PUSH1 0x0 KECCAK256 SWAP1 PUSH1 0x1F ADD PUSH1 0x20 SWAP1 DIV DUP2 ADD SWAP3 DUP3 PUSH3 0x2B0 JUMPI PUSH1 0x0 DUP6 SSTORE PUSH3 0x2FB JUMP JUMPDEST DUP3 PUSH1 0x1F LT PUSH3 0x2CB JUMPI DUP1 MLOAD PUSH1 0xFF NOT AND DUP4 DUP1 ADD OR DUP6 SSTORE PUSH3 0x2FB JUMP JUMPDEST DUP3 DUP1 ADD PUSH1 0x1 ADD DUP6 SSTORE DUP3 ISZERO PUSH3 0x2FB JUMPI SWAP2 DUP3 ADD JUMPDEST DUP3 DUP2 GT ISZERO PUSH3 0x2FB JUMPI DUP3 MLOAD DUP3 SSTORE SWAP2 PUSH1 0x20 ADD SWAP2 SWAP1 PUSH1 0x1 ADD SWAP1 PUSH3 0x2DE JUMP JUMPDEST POP PUSH3 0x309 SWAP3 SWAP2 POP PUSH3 0x30D JUMP JUMPDEST POP SWAP1 JUMP JUMPDEST JUMPDEST DUP1 DUP3 GT ISZERO PUSH3 0x309 JUMPI PUSH1 0x0 DUP2 SSTORE PUSH1 0x1 ADD PUSH3 0x30E JUMP JUMPDEST PUSH1 0x0 DUP1 PUSH1 0x40 DUP4 DUP6 SUB SLT ISZERO PUSH3 0x338 JUMPI PUSH1 0x0 DUP1 REVERT JUMPDEST POP POP DUP1 MLOAD PUSH1 0x20 SWAP1 SWAP2 ADD MLOAD SWAP1 SWAP3 SWAP1 SWAP2 POP JUMP JUMPDEST PUSH4 0x4E487B71 PUSH1 0xE0 SHL PUSH1 0x0 MSTORE PUSH1 0x11 PUSH1 0x4 MSTORE PUSH1 0x24 PUSH1 0x0 REVERT JUMPDEST PUSH1 0x1 DUP2 DUP2 JUMPDEST DUP1 DUP6 GT ISZERO PUSH3 0x3A0 JUMPI DUP2 PUSH1 0x0 NOT DIV DUP3 GT ISZERO PUSH3 0x384 JUMPI PUSH3 0x384 PUSH3 0x349 JUMP JUMPDEST DUP1 DUP6 AND ISZERO PUSH3 0x392 JUMPI SWAP2 DUP2 MUL SWAP2 JUMPDEST SWAP4 DUP5 SHR SWAP4 SWAP1 DUP1 MUL SWAP1 PUSH3 0x364 JUMP JUMPDEST POP SWAP3 POP SWAP3 SWAP1 POP JUMP JUMPDEST PUSH1 0x0 DUP3 PUSH3 0x3B9 JUMPI POP PUSH1 0x1 PUSH3 0x458 JUMP JUMPDEST DUP2 PUSH3 0x3C8 JUMPI POP PUSH1 0x0 PUSH3 0x458 JUMP JUMPDEST DUP2 PUSH1 0x1 DUP2 EQ PUSH3 0x3E1 JUMPI PUSH1 0x2 DUP2 EQ PUSH3 0x3EC JUMPI PUSH3 0x40C JUMP JUMPDEST PUSH1 0x1 SWAP2 POP POP PUSH3 0x458 JUMP JUMPDEST PUSH1 0xFF DUP5 GT ISZERO PUSH3 0x400 JUMPI PUSH3 0x400 PUSH3 0x349 JUMP JUMPDEST POP POP PUSH1 0x1 DUP3 SHL PUSH3 0x458 JUMP JUMPDEST POP PUSH1 0x20 DUP4 LT PUSH2 0x133 DUP4 LT AND PUSH1 0x4E DUP5 LT PUSH1 0xB DUP5 LT AND OR ISZERO PUSH3 0x431 JUMPI POP DUP2 DUP2 EXP PUSH3 0x458 JUMP JUMPDEST PUSH3 0x43D DUP4 DUP4 PUSH3 0x35F JUMP JUMPDEST DUP1 PUSH1 0x0 NOT DIV DUP3 GT ISZERO PUSH3 0x454 JUMPI PUSH3 0x454 PUSH3 0x349 JUMP JUMPDEST MUL SWAP1 POP JUMPDEST SWAP3 SWAP2 POP POP JUMP JUMPDEST PUSH1 0x0 PUSH3 0x46F PUSH1 0xFF DUP5 AND DUP4 PUSH3 0x3A8 JUMP JUMPDEST SWAP4 SWAP3 POP POP POP JUMP JUMPDEST PUSH1 0x0 DUP2 PUSH1 0x0 NOT DIV DUP4 GT DUP3 ISZERO ISZERO AND ISZERO PUSH3 0x493 JUMPI PUSH3 0x493 PUSH3 0x349 JUMP JUMPDEST POP MUL SWAP1 JUMP JUMPDEST PUSH1 0x0 DUP3 PUSH3 0x4B6 JUMPI PUSH4 0x4E487B71 PUSH1 0xE0 SHL PUSH1 0x0 MSTORE PUSH1 0x12 PUSH1 0x4 MSTORE PUSH1 0x24 PUSH1 0x0 REVERT JUMPDEST POP DIV SWAP1 JUMP JUMPDEST PUSH1 0x0 DUP3 NOT DUP3 GT ISZERO PUSH3 0x4D1 JUMPI PUSH3 0x4D1 PUSH3 0x349 JUMP JUMPDEST POP ADD SWAP1 JUMP JUMPDEST PUSH1 0x1 DUP2 DUP2 SHR SWAP1 DUP3 AND DUP1 PUSH3 0x4EB JUMPI PUSH1 0x7F DUP3 AND SWAP2 POP JUMPDEST PUSH1 0x20 DUP3 LT DUP2 SUB PUSH3 0x50C JUMPI PUSH4 0x4E487B71 PUSH1 0xE0 SHL PUSH1 0x0 MSTORE PUSH1 0x22 PUSH1 0x4 MSTORE PUSH1 0x24 PUSH1 0x0 REVERT JUMPDEST POP SWAP2 SWAP1 POP JUMP JUMPDEST PUSH2 0x1097 DUP1 PUSH3 0x522 PUSH1 0x0 CODECOPY PUSH1 0x0 RETURN INVALID PUSH1 0x80 PUSH1 0x40 MSTORE PUSH1 0x4 CALLDATASIZE LT PUSH2 0xF3 JUMPI PUSH1 0x0 CALLDATALOAD PUSH1 0xE0 SHR DUP1 PUSH4 0x715018A6 GT PUSH2 0x8A JUMPI DUP1 PUSH4 0xA6F2AE3A GT PUSH2 0x59 JUMPI DUP1 PUSH4 0xA6F2AE3A EQ PUSH2 0x298 JUMPI DUP1 PUSH4 0xA9059CBB EQ PUSH2 0x2A0 JUMPI DUP1 PUSH4 0xDD62ED3E EQ PUSH2 0x2C0 JUMPI DUP1 PUSH4 0xF2FDE38B EQ PUSH2 0x306 JUMPI PUSH1 0x0 DUP1 REVERT JUMPDEST DUP1 PUSH4 0x715018A6 EQ PUSH2 0x226 JUMPI DUP1 PUSH4 0x8DA5CB5B EQ PUSH2 0x23B JUMPI DUP1 PUSH4 0x95D89B41 EQ PUSH2 0x263 JUMPI DUP1 PUSH4 0xA457C2D7 EQ PUSH2 0x278 JUMPI PUSH1 0x0 DUP1 REVERT JUMPDEST DUP1 PUSH4 0x313CE567 GT PUSH2 0xC6 JUMPI DUP1 PUSH4 0x313CE567 EQ PUSH2 0x192 JUMPI DUP1 PUSH4 0x39509351 EQ PUSH2 0x1AE JUMPI DUP1 PUSH4 0x4664FFEA EQ PUSH2 0x1CE JUMPI DUP1 PUSH4 0x70A08231 EQ PUSH2 0x1F0 JUMPI PUSH1 0x0 DUP1 REVERT JUMPDEST DUP1 PUSH4 0x6FDDE03 EQ PUSH2 0xF8 JUMPI DUP1 PUSH4 0x95EA7B3 EQ PUSH2 0x123 JUMPI DUP1 PUSH4 0x18160DDD EQ PUSH2 0x153 JUMPI DUP1 PUSH4 0x23B872DD EQ PUSH2 0x172 JUMPI JUMPDEST PUSH1 0x0 DUP1 REVERT JUMPDEST CALLVALUE DUP1 ISZERO PUSH2 0x104 JUMPI PUSH1 0x0 DUP1 REVERT JUMPDEST POP PUSH2 0x10D PUSH2 0x326 JUMP JUMPDEST PUSH1 0x40 MLOAD PUSH2 0x11A SWAP2 SWAP1 PUSH2 0xD30 JUMP JUMPDEST PUSH1 0x40 MLOAD DUP1 SWAP2 SUB SWAP1 RETURN JUMPDEST CALLVALUE DUP1 ISZERO PUSH2 0x12F JUMPI PUSH1 0x0 DUP1 REVERT JUMPDEST POP PUSH2 0x143 PUSH2 0x13E CALLDATASIZE PUSH1 0x4 PUSH2 0xDA1 JUMP JUMPDEST PUSH2 0x3B8 JUMP JUMPDEST PUSH1 0x40 MLOAD SWAP1 ISZERO ISZERO DUP2 MSTORE PUSH1 0x20 ADD PUSH2 0x11A JUMP JUMPDEST CALLVALUE DUP1 ISZERO PUSH2 0x15F JUMPI PUSH1 0x0 DUP1 REVERT JUMPDEST POP PUSH1 0x2 SLOAD JUMPDEST PUSH1 0x40 MLOAD SWAP1 DUP2 MSTORE PUSH1 0x20 ADD PUSH2 0x11A JUMP JUMPDEST CALLVALUE DUP1 ISZERO PUSH2 0x17E JUMPI PUSH1 0x0 DUP1 REVERT JUMPDEST POP PUSH2 0x143 PUSH2 0x18D CALLDATASIZE PUSH1 0x4 PUSH2 0xDCB JUMP JUMPDEST PUSH2 0x3CF JUMP JUMPDEST CALLVALUE DUP1 ISZERO PUSH2 0x19E JUMPI PUSH1 0x0 DUP1 REVERT JUMPDEST POP PUSH1 0x40 MLOAD PUSH1 0x12 DUP2 MSTORE PUSH1 0x20 ADD PUSH2 0x11A JUMP JUMPDEST CALLVALUE DUP1 ISZERO PUSH2 0x1BA JUMPI PUSH1 0x0 DUP1 REVERT JUMPDEST POP PUSH2 0x143 PUSH2 0x1C9 CALLDATASIZE PUSH1 0x4 PUSH2 0xDA1 JUMP JUMPDEST PUSH2 0x47E JUMP JUMPDEST CALLVALUE DUP1 ISZERO PUSH2 0x1DA JUMPI PUSH1 0x0 DUP1 REVERT JUMPDEST POP PUSH2 0x1EE PUSH2 0x1E9 CALLDATASIZE PUSH1 0x4 PUSH2 0xDA1 JUMP JUMPDEST PUSH2 0x4BA JUMP JUMPDEST STOP JUMPDEST CALLVALUE DUP1 ISZERO PUSH2 0x1FC JUMPI PUSH1 0x0 DUP1 REVERT JUMPDEST POP PUSH2 0x164 PUSH2 0x20B CALLDATASIZE PUSH1 0x4 PUSH2 0xE07 JUMP JUMPDEST PUSH1 0x1 PUSH1 0x1 PUSH1 0xA0 SHL SUB AND PUSH1 0x0 SWAP1 DUP2 MSTORE PUSH1 0x20 DUP2 SWAP1 MSTORE PUSH1 0x40 SWAP1 KECCAK256 SLOAD SWAP1 JUMP JUMPDEST CALLVALUE DUP1 ISZERO PUSH2 0x232 JUMPI PUSH1 0x0 DUP1 REVERT JUMPDEST POP PUSH2 0x1EE PUSH2 0x4F2 JUMP JUMPDEST CALLVALUE DUP1 ISZERO PUSH2 0x247 JUMPI PUSH1 0x0 DUP1 REVERT JUMPDEST POP PUSH1 0x5 SLOAD PUSH1 0x40 MLOAD PUSH1 0x1 PUSH1 0x1 PUSH1 0xA0 SHL SUB SWAP1 SWAP2 AND DUP2 MSTORE PUSH1 0x20 ADD PUSH2 0x11A JUMP JUMPDEST CALLVALUE DUP1 ISZERO PUSH2 0x26F JUMPI PUSH1 0x0 DUP1 REVERT JUMPDEST POP PUSH2 0x10D PUSH2 0x528 JUMP JUMPDEST CALLVALUE DUP1 ISZERO PUSH2 0x284 JUMPI PUSH1 0x0 DUP1 REVERT JUMPDEST POP PUSH2 0x143 PUSH2 0x293 CALLDATASIZE PUSH1 0x4 PUSH2 0xDA1 JUMP JUMPDEST PUSH2 0x537 JUMP JUMPDEST PUSH2 0x1EE PUSH2 0x5D0 JUMP JUMPDEST CALLVALUE DUP1 ISZERO PUSH2 0x2AC JUMPI PUSH1 0x0 DUP1 REVERT JUMPDEST POP PUSH2 0x143 PUSH2 0x2BB CALLDATASIZE PUSH1 0x4 PUSH2 0xDA1 JUMP JUMPDEST PUSH2 0x720 JUMP JUMPDEST CALLVALUE DUP1 ISZERO PUSH2 0x2CC JUMPI PUSH1 0x0 DUP1 REVERT JUMPDEST POP PUSH2 0x164 PUSH2 0x2DB CALLDATASIZE PUSH1 0x4 PUSH2 0xE22 JUMP JUMPDEST PUSH1 0x1 PUSH1 0x1 PUSH1 0xA0 SHL SUB SWAP2 DUP3 AND PUSH1 0x0 SWAP1 DUP2 MSTORE PUSH1 0x1 PUSH1 0x20 SWAP1 DUP2 MSTORE PUSH1 0x40 DUP1 DUP4 KECCAK256 SWAP4 SWAP1 SWAP5 AND DUP3 MSTORE SWAP2 SWAP1 SWAP2 MSTORE KECCAK256 SLOAD SWAP1 JUMP JUMPDEST CALLVALUE DUP1 ISZERO PUSH2 0x312 JUMPI PUSH1 0x0 DUP1 REVERT JUMPDEST POP PUSH2 0x1EE PUSH2 0x321 CALLDATASIZE PUSH1 0x4 PUSH2 0xE07 JUMP JUMPDEST PUSH2 0x843 JUMP JUMPDEST PUSH1 0x60 PUSH1 0x3 DUP1 SLOAD PUSH2 0x335 SWAP1 PUSH2 0xE55 JUMP JUMPDEST DUP1 PUSH1 0x1F ADD PUSH1 0x20 DUP1 SWAP2 DIV MUL PUSH1 0x20 ADD PUSH1 0x40 MLOAD SWAP1 DUP2 ADD PUSH1 0x40 MSTORE DUP1 SWAP3 SWAP2 SWAP1 DUP2 DUP2 MSTORE PUSH1 0x20 ADD DUP3 DUP1 SLOAD PUSH2 0x361 SWAP1 PUSH2 0xE55 JUMP JUMPDEST DUP1 ISZERO PUSH2 0x3AE JUMPI DUP1 PUSH1 0x1F LT PUSH2 0x383 JUMPI PUSH2 0x100 DUP1 DUP4 SLOAD DIV MUL DUP4 MSTORE SWAP2 PUSH1 0x20 ADD SWAP2 PUSH2 0x3AE JUMP JUMPDEST DUP3 ADD SWAP2 SWAP1 PUSH1 0x0 MSTORE PUSH1 0x20 PUSH1 0x0 KECCAK256 SWAP1 JUMPDEST DUP2 SLOAD DUP2 MSTORE SWAP1 PUSH1 0x1 ADD SWAP1 PUSH1 0x20 ADD DUP1 DUP4 GT PUSH2 0x391 JUMPI DUP3 SWAP1 SUB PUSH1 0x1F AND DUP3 ADD SWAP2 JUMPDEST POP POP POP POP POP SWAP1 POP SWAP1 JUMP JUMPDEST PUSH1 0x0 PUSH2 0x3C5 CALLER DUP5 DUP5 PUSH2 0x8DE JUMP JUMPDEST POP PUSH1 0x1 JUMPDEST SWAP3 SWAP2 POP POP JUMP JUMPDEST PUSH1 0x0 PUSH2 0x3DC DUP5 DUP5 DUP5 PUSH2 0xA02 JUMP JUMPDEST PUSH1 0x1 PUSH1 0x1 PUSH1 0xA0 SHL SUB DUP5 AND PUSH1 0x0 SWAP1 DUP2 MSTORE PUSH1 0x1 PUSH1 0x20 SWAP1 DUP2 MSTORE PUSH1 0x40 DUP1 DUP4 KECCAK256 CALLER DUP5 MSTORE SWAP1 SWAP2 MSTORE SWAP1 KECCAK256 SLOAD DUP3 DUP2 LT ISZERO PUSH2 0x466 JUMPI PUSH1 0x40 MLOAD PUSH3 0x461BCD PUSH1 0xE5 SHL DUP2 MSTORE PUSH1 0x20 PUSH1 0x4 DUP3 ADD MSTORE PUSH1 0x28 PUSH1 0x24 DUP3 ADD MSTORE PUSH32 0x45524332303A207472616E7366657220616D6F756E7420657863656564732061 PUSH1 0x44 DUP3 ADD MSTORE PUSH8 0x6C6C6F77616E6365 PUSH1 0xC0 SHL PUSH1 0x64 DUP3 ADD MSTORE PUSH1 0x84 ADD JUMPDEST PUSH1 0x40 MLOAD DUP1 SWAP2 SUB SWAP1 REVERT JUMPDEST PUSH2 0x473 DUP6 CALLER DUP6 DUP5 SUB PUSH2 0x8DE JUMP JUMPDEST POP PUSH1 0x1 SWAP5 SWAP4 POP POP POP POP JUMP JUMPDEST CALLER PUSH1 0x0 DUP2 DUP2 MSTORE PUSH1 0x1 PUSH1 0x20 SWAP1 DUP2 MSTORE PUSH1 0x40 DUP1 DUP4 KECCAK256 PUSH1 0x1 PUSH1 0x1 PUSH1 0xA0 SHL SUB DUP8 AND DUP5 MSTORE SWAP1 SWAP2 MSTORE DUP2 KECCAK256 SLOAD SWAP1 SWAP2 PUSH2 0x3C5 SWAP2 DUP6 SWAP1 PUSH2 0x4B5 SWAP1 DUP7 SWAP1 PUSH2 0xEA5 JUMP JUMPDEST PUSH2 0x8DE JUMP JUMPDEST PUSH1 0x5 SLOAD PUSH1 0x1 PUSH1 0x1 PUSH1 0xA0 SHL SUB AND CALLER EQ PUSH2 0x4E4 JUMPI PUSH1 0x40 MLOAD PUSH3 0x461BCD PUSH1 0xE5 SHL DUP2 MSTORE PUSH1 0x4 ADD PUSH2 0x45D SWAP1 PUSH2 0xEBD JUMP JUMPDEST PUSH2 0x4EE DUP3 DUP3 PUSH2 0xBD1 JUMP JUMPDEST POP POP JUMP JUMPDEST PUSH1 0x5 SLOAD PUSH1 0x1 PUSH1 0x1 PUSH1 0xA0 SHL SUB AND CALLER EQ PUSH2 0x51C JUMPI PUSH1 0x40 MLOAD PUSH3 0x461BCD PUSH1 0xE5 SHL DUP2 MSTORE PUSH1 0x4 ADD PUSH2 0x45D SWAP1 PUSH2 0xEBD JUMP JUMPDEST PUSH2 0x526 PUSH1 0x0 PUSH2 0xCB2 JUMP JUMPDEST JUMP JUMPDEST PUSH1 0x60 PUSH1 0x4 DUP1 SLOAD PUSH2 0x335 SWAP1 PUSH2 0xE55 JUMP JUMPDEST CALLER PUSH1 0x0 SWAP1 DUP2 MSTORE PUSH1 0x1 PUSH1 0x20 SWAP1 DUP2 MSTORE PUSH1 0x40 DUP1 DUP4 KECCAK256 PUSH1 0x1 PUSH1 0x1 PUSH1 0xA0 SHL SUB DUP7 AND DUP5 MSTORE SWAP1 SWAP2 MSTORE DUP2 KECCAK256 SLOAD DUP3 DUP2 LT ISZERO PUSH2 0x5B9 JUMPI PUSH1 0x40 MLOAD PUSH3 0x461BCD PUSH1 0xE5 SHL DUP2 MSTORE PUSH1 0x20 PUSH1 0x4 DUP3 ADD MSTORE PUSH1 0x25 PUSH1 0x24 DUP3 ADD MSTORE PUSH32 0x45524332303A2064656372656173656420616C6C6F77616E63652062656C6F77 PUSH1 0x44 DUP3 ADD MSTORE PUSH5 0x207A65726F PUSH1 0xD8 SHL PUSH1 0x64 DUP3 ADD MSTORE PUSH1 0x84 ADD PUSH2 0x45D JUMP JUMPDEST PUSH2 0x5C6 CALLER DUP6 DUP6 DUP5 SUB PUSH2 0x8DE JUMP JUMPDEST POP PUSH1 0x1 SWAP4 SWAP3 POP POP POP JUMP JUMPDEST PUSH1 0x6 SLOAD ADDRESS SWAP1 CALLVALUE SWAP1 PUSH1 0x0 SWAP1 PUSH2 0x605 SWAP1 PUSH2 0x5FF PUSH2 0x5ED PUSH1 0x12 PUSH1 0xA PUSH2 0xFD6 JUMP JUMPDEST PUSH2 0x5F8 SWAP1 PUSH1 0x1 PUSH2 0xFE5 JUMP JUMPDEST DUP6 SWAP1 PUSH2 0xD04 JUMP JUMPDEST SWAP1 PUSH2 0xD17 JUMP JUMPDEST SWAP1 POP PUSH1 0x9 SLOAD DUP2 GT PUSH2 0x6C0 JUMPI PUSH1 0x40 MLOAD PUSH4 0x70A08231 PUSH1 0xE0 SHL DUP2 MSTORE ADDRESS PUSH1 0x4 DUP3 ADD MSTORE PUSH1 0x1 PUSH1 0x1 PUSH1 0xA0 SHL SUB DUP5 AND SWAP1 PUSH4 0x70A08231 SWAP1 PUSH1 0x24 ADD PUSH1 0x20 PUSH1 0x40 MLOAD DUP1 DUP4 SUB DUP2 DUP7 GAS STATICCALL ISZERO DUP1 ISZERO PUSH2 0x654 JUMPI RETURNDATASIZE PUSH1 0x0 DUP1 RETURNDATACOPY RETURNDATASIZE PUSH1 0x0 REVERT JUMPDEST POP POP POP POP PUSH1 0x40 MLOAD RETURNDATASIZE PUSH1 0x1F NOT PUSH1 0x1F DUP3 ADD AND DUP3 ADD DUP1 PUSH1 0x40 MSTORE POP DUP2 ADD SWAP1 PUSH2 0x678 SWAP2 SWAP1 PUSH2 0x1004 JUMP JUMPDEST DUP2 GT PUSH2 0x68D JUMPI PUSH2 0x688 CALLER DUP3 PUSH2 0x4BA JUMP JUMPDEST POP POP POP JUMP JUMPDEST PUSH1 0x40 MLOAD CALLER SWAP1 DUP4 ISZERO PUSH2 0x8FC MUL SWAP1 DUP5 SWAP1 PUSH1 0x0 DUP2 DUP2 DUP2 DUP6 DUP9 DUP9 CALL SWAP4 POP POP POP POP ISZERO DUP1 ISZERO PUSH2 0x6BA JUMPI RETURNDATASIZE PUSH1 0x0 DUP1 RETURNDATACOPY RETURNDATASIZE PUSH1 0x0 REVERT JUMPDEST POP POP POP POP JUMP JUMPDEST PUSH1 0xA SLOAD DUP3 GT ISZERO PUSH2 0x688 JUMPI PUSH1 0x40 MLOAD PUSH3 0x461BCD PUSH1 0xE5 SHL DUP2 MSTORE PUSH1 0x20 PUSH1 0x4 DUP3 ADD MSTORE PUSH1 0x25 PUSH1 0x24 DUP3 ADD MSTORE PUSH32 0x594E50726573616C653A20414D4F554E542053414C4520414D4F554E54204558 PUSH1 0x44 DUP3 ADD MSTORE PUSH5 0x21A2A2A217 PUSH1 0xD9 SHL PUSH1 0x64 DUP3 ADD MSTORE PUSH1 0x84 ADD PUSH2 0x45D JUMP JUMPDEST PUSH1 0x0 DUP1 PUSH2 0x72D DUP5 DUP5 PUSH2 0xD23 JUMP JUMPDEST SWAP1 POP DUP3 ADDRESS PUSH1 0x1 PUSH1 0x1 PUSH1 0xA0 SHL SUB DUP7 AND SUB PUSH2 0x83B JUMPI PUSH1 0x0 PUSH2 0x76A PUSH2 0x751 PUSH1 0x12 PUSH1 0xA PUSH2 0xFD6 JUMP JUMPDEST PUSH2 0x75C SWAP1 PUSH1 0x1 PUSH2 0xFE5 JUMP JUMPDEST PUSH1 0x7 SLOAD PUSH2 0x5FF SWAP1 DUP6 SWAP1 PUSH2 0xD04 JUMP JUMPDEST SWAP1 POP PUSH1 0xA SLOAD DUP3 GT PUSH2 0x7DC JUMPI SELFBALANCE DUP2 GT PUSH2 0x7AF JUMPI PUSH1 0x40 MLOAD CALLER SWAP1 DUP3 ISZERO PUSH2 0x8FC MUL SWAP1 DUP4 SWAP1 PUSH1 0x0 DUP2 DUP2 DUP2 DUP6 DUP9 DUP9 CALL SWAP4 POP POP POP POP ISZERO DUP1 ISZERO PUSH2 0x7A9 JUMPI RETURNDATASIZE PUSH1 0x0 DUP1 RETURNDATACOPY RETURNDATASIZE PUSH1 0x0 REVERT JUMPDEST POP PUSH2 0x839 JUMP JUMPDEST PUSH1 0x40 MLOAD CALLER SWAP1 DUP4 ISZERO PUSH2 0x8FC MUL SWAP1 DUP5 SWAP1 PUSH1 0x0 DUP2 DUP2 DUP2 DUP6 DUP9 DUP9 CALL SWAP4 POP POP POP POP ISZERO DUP1 ISZERO PUSH2 0x7A9 JUMPI RETURNDATASIZE PUSH1 0x0 DUP1 RETURNDATACOPY RETURNDATASIZE PUSH1 0x0 REVERT JUMPDEST PUSH1 0xA SLOAD DUP3 GT ISZERO PUSH2 0x839 JUMPI PUSH1 0x40 MLOAD PUSH3 0x461BCD PUSH1 0xE5 SHL DUP2 MSTORE PUSH1 0x20 PUSH1 0x4 DUP3 ADD MSTORE PUSH1 0x22 PUSH1 0x24 DUP3 ADD MSTORE PUSH32 0x594E50726573616C653A204D41582053414C4520414D4F554E54204558434545 PUSH1 0x44 DUP3 ADD MSTORE PUSH2 0x2217 PUSH1 0xF1 SHL PUSH1 0x64 DUP3 ADD MSTORE PUSH1 0x84 ADD PUSH2 0x45D JUMP JUMPDEST POP JUMPDEST POP SWAP4 SWAP3 POP POP POP JUMP JUMPDEST PUSH1 0x5 SLOAD PUSH1 0x1 PUSH1 0x1 PUSH1 0xA0 SHL SUB AND CALLER EQ PUSH2 0x86D JUMPI PUSH1 0x40 MLOAD PUSH3 0x461BCD PUSH1 0xE5 SHL DUP2 MSTORE PUSH1 0x4 ADD PUSH2 0x45D SWAP1 PUSH2 0xEBD JUMP JUMPDEST PUSH1 0x1 PUSH1 0x1 PUSH1 0xA0 SHL SUB DUP2 AND PUSH2 0x8D2 JUMPI PUSH1 0x40 MLOAD PUSH3 0x461BCD PUSH1 0xE5 SHL DUP2 MSTORE PUSH1 0x20 PUSH1 0x4 DUP3 ADD MSTORE PUSH1 0x26 PUSH1 0x24 DUP3 ADD MSTORE PUSH32 0x4F776E61626C653A206E6577206F776E657220697320746865207A65726F2061 PUSH1 0x44 DUP3 ADD MSTORE PUSH6 0x646472657373 PUSH1 0xD0 SHL PUSH1 0x64 DUP3 ADD MSTORE PUSH1 0x84 ADD PUSH2 0x45D JUMP JUMPDEST PUSH2 0x8DB DUP2 PUSH2 0xCB2 JUMP JUMPDEST POP JUMP JUMPDEST PUSH1 0x1 PUSH1 0x1 PUSH1 0xA0 SHL SUB DUP4 AND PUSH2 0x940 JUMPI PUSH1 0x40 MLOAD PUSH3 0x461BCD PUSH1 0xE5 SHL DUP2 MSTORE PUSH1 0x20 PUSH1 0x4 DUP3 ADD MSTORE PUSH1 0x24 DUP1 DUP3 ADD MSTORE PUSH32 0x45524332303A20617070726F76652066726F6D20746865207A65726F20616464 PUSH1 0x44 DUP3 ADD MSTORE PUSH4 0x72657373 PUSH1 0xE0 SHL PUSH1 0x64 DUP3 ADD MSTORE PUSH1 0x84 ADD PUSH2 0x45D JUMP JUMPDEST PUSH1 0x1 PUSH1 0x1 PUSH1 0xA0 SHL SUB DUP3 AND PUSH2 0x9A1 JUMPI PUSH1 0x40 MLOAD PUSH3 0x461BCD PUSH1 0xE5 SHL DUP2 MSTORE PUSH1 0x20 PUSH1 0x4 DUP3 ADD MSTORE PUSH1 0x22 PUSH1 0x24 DUP3 ADD MSTORE PUSH32 0x45524332303A20617070726F766520746F20746865207A65726F206164647265 PUSH1 0x44 DUP3 ADD MSTORE PUSH2 0x7373 PUSH1 0xF0 SHL PUSH1 0x64 DUP3 ADD MSTORE PUSH1 0x84 ADD PUSH2 0x45D JUMP JUMPDEST PUSH1 0x1 PUSH1 0x1 PUSH1 0xA0 SHL SUB DUP4 DUP2 AND PUSH1 0x0 DUP2 DUP2 MSTORE PUSH1 0x1 PUSH1 0x20 SWAP1 DUP2 MSTORE PUSH1 0x40 DUP1 DUP4 KECCAK256 SWAP5 DUP8 AND DUP1 DUP5 MSTORE SWAP5 DUP3 MSTORE SWAP2 DUP3 SWAP1 KECCAK256 DUP6 SWAP1 SSTORE SWAP1 MLOAD DUP5 DUP2 MSTORE PUSH32 0x8C5BE1E5EBEC7D5BD14F71427D1E84F3DD0314C0F7B2291E5B200AC8C7C3B925 SWAP2 ADD PUSH1 0x40 MLOAD DUP1 SWAP2 SUB SWAP1 LOG3 POP POP POP JUMP JUMPDEST PUSH1 0x1 PUSH1 0x1 PUSH1 0xA0 SHL SUB DUP4 AND PUSH2 0xA66 JUMPI PUSH1 0x40 MLOAD PUSH3 0x461BCD PUSH1 0xE5 SHL DUP2 MSTORE PUSH1 0x20 PUSH1 0x4 DUP3 ADD MSTORE PUSH1 0x25 PUSH1 0x24 DUP3 ADD MSTORE PUSH32 0x45524332303A207472616E736665722066726F6D20746865207A65726F206164 PUSH1 0x44 DUP3 ADD MSTORE PUSH5 0x6472657373 PUSH1 0xD8 SHL PUSH1 0x64 DUP3 ADD MSTORE PUSH1 0x84 ADD PUSH2 0x45D JUMP JUMPDEST PUSH1 0x1 PUSH1 0x1 PUSH1 0xA0 SHL SUB DUP3 AND PUSH2 0xAC8 JUMPI PUSH1 0x40 MLOAD PUSH3 0x461BCD PUSH1 0xE5 SHL DUP2 MSTORE PUSH1 0x20 PUSH1 0x4 DUP3 ADD MSTORE PUSH1 0x23 PUSH1 0x24 DUP3 ADD MSTORE PUSH32 0x45524332303A207472616E7366657220746F20746865207A65726F2061646472 PUSH1 0x44 DUP3 ADD MSTORE PUSH3 0x657373 PUSH1 0xE8 SHL PUSH1 0x64 DUP3 ADD MSTORE PUSH1 0x84 ADD PUSH2 0x45D JUMP JUMPDEST PUSH1 0x1 PUSH1 0x1 PUSH1 0xA0 SHL SUB DUP4 AND PUSH1 0x0 SWAP1 DUP2 MSTORE PUSH1 0x20 DUP2 SWAP1 MSTORE PUSH1 0x40 SWAP1 KECCAK256 SLOAD DUP2 DUP2 LT ISZERO PUSH2 0xB40 JUMPI PUSH1 0x40 MLOAD PUSH3 0x461BCD PUSH1 0xE5 SHL DUP2 MSTORE PUSH1 0x20 PUSH1 0x4 DUP3 ADD MSTORE PUSH1 0x26 PUSH1 0x24 DUP3 ADD MSTORE PUSH32 0x45524332303A207472616E7366657220616D6F756E7420657863656564732062 PUSH1 0x44 DUP3 ADD MSTORE PUSH6 0x616C616E6365 PUSH1 0xD0 SHL PUSH1 0x64 DUP3 ADD MSTORE PUSH1 0x84 ADD PUSH2 0x45D JUMP JUMPDEST PUSH1 0x1 PUSH1 0x1 PUSH1 0xA0 SHL SUB DUP1 DUP6 AND PUSH1 0x0 SWAP1 DUP2 MSTORE PUSH1 0x20 DUP2 SWAP1 MSTORE PUSH1 0x40 DUP1 DUP3 KECCAK256 DUP6 DUP6 SUB SWAP1 SSTORE SWAP2 DUP6 AND DUP2 MSTORE SWAP1 DUP2 KECCAK256 DUP1 SLOAD DUP5 SWAP3 SWAP1 PUSH2 0xB77 SWAP1 DUP5 SWAP1 PUSH2 0xEA5 JUMP JUMPDEST SWAP3 POP POP DUP2 SWAP1 SSTORE POP DUP3 PUSH1 0x1 PUSH1 0x1 PUSH1 0xA0 SHL SUB AND DUP5 PUSH1 0x1 PUSH1 0x1 PUSH1 0xA0 SHL SUB AND PUSH32 0xDDF252AD1BE2C89B69C2B068FC378DAA952BA7F163C4A11628F55A4DF523B3EF DUP5 PUSH1 0x40 MLOAD PUSH2 0xBC3 SWAP2 DUP2 MSTORE PUSH1 0x20 ADD SWAP1 JUMP JUMPDEST PUSH1 0x40 MLOAD DUP1 SWAP2 SUB SWAP1 LOG3 POP POP POP POP JUMP JUMPDEST PUSH1 0x40 MLOAD PUSH4 0x70A08231 PUSH1 0xE0 SHL DUP2 MSTORE ADDRESS PUSH1 0x4 DUP3 ADD DUP2 SWAP1 MSTORE SWAP1 DUP2 SWAP1 PUSH4 0x70A08231 SWAP1 PUSH1 0x24 ADD PUSH1 0x20 PUSH1 0x40 MLOAD DUP1 DUP4 SUB DUP2 DUP7 GAS STATICCALL ISZERO DUP1 ISZERO PUSH2 0xC0F JUMPI RETURNDATASIZE PUSH1 0x0 DUP1 RETURNDATACOPY RETURNDATASIZE PUSH1 0x0 REVERT JUMPDEST POP POP POP POP PUSH1 0x40 MLOAD RETURNDATASIZE PUSH1 0x1F NOT PUSH1 0x1F DUP3 ADD AND DUP3 ADD DUP1 PUSH1 0x40 MSTORE POP DUP2 ADD SWAP1 PUSH2 0xC33 SWAP2 SWAP1 PUSH2 0x1004 JUMP JUMPDEST DUP3 GT ISZERO PUSH2 0xC3F JUMPI PUSH1 0x0 DUP1 REVERT JUMPDEST PUSH1 0x40 MLOAD PUSH4 0xA9059CBB PUSH1 0xE0 SHL DUP2 MSTORE PUSH1 0x1 PUSH1 0x1 PUSH1 0xA0 SHL SUB DUP5 DUP2 AND PUSH1 0x4 DUP4 ADD MSTORE PUSH1 0x24 DUP3 ADD DUP5 SWAP1 MSTORE DUP3 AND SWAP1 PUSH4 0xA9059CBB SWAP1 PUSH1 0x44 ADD PUSH1 0x20 PUSH1 0x40 MLOAD DUP1 DUP4 SUB DUP2 PUSH1 0x0 DUP8 GAS CALL ISZERO DUP1 ISZERO PUSH2 0xC8E JUMPI RETURNDATASIZE PUSH1 0x0 DUP1 RETURNDATACOPY RETURNDATASIZE PUSH1 0x0 REVERT JUMPDEST POP POP POP POP PUSH1 0x40 MLOAD RETURNDATASIZE PUSH1 0x1F NOT PUSH1 0x1F DUP3 ADD AND DUP3 ADD DUP1 PUSH1 0x40 MSTORE POP DUP2 ADD SWAP1 PUSH2 0x6BA SWAP2 SWAP1 PUSH2 0x101D JUMP JUMPDEST PUSH1 0x5 DUP1 SLOAD PUSH1 0x1 PUSH1 0x1 PUSH1 0xA0 SHL SUB DUP4 DUP2 AND PUSH1 0x1 PUSH1 0x1 PUSH1 0xA0 SHL SUB NOT DUP4 AND DUP2 OR SWAP1 SWAP4 SSTORE PUSH1 0x40 MLOAD SWAP2 AND SWAP2 SWAP1 DUP3 SWAP1 PUSH32 0x8BE0079C531659141344CD1FD0A4F28419497F9722A3DAAFE3B4186F6B6457E0 SWAP1 PUSH1 0x0 SWAP1 LOG3 POP POP JUMP JUMPDEST PUSH1 0x0 PUSH2 0xD10 DUP3 DUP5 PUSH2 0xFE5 JUMP JUMPDEST SWAP4 SWAP3 POP POP POP JUMP JUMPDEST PUSH1 0x0 PUSH2 0xD10 DUP3 DUP5 PUSH2 0x103F JUMP JUMPDEST PUSH1 0x0 PUSH2 0x3C5 CALLER DUP5 DUP5 PUSH2 0xA02 JUMP JUMPDEST PUSH1 0x0 PUSH1 0x20 DUP1 DUP4 MSTORE DUP4 MLOAD DUP1 DUP3 DUP6 ADD MSTORE PUSH1 0x0 JUMPDEST DUP2 DUP2 LT ISZERO PUSH2 0xD5D JUMPI DUP6 DUP2 ADD DUP4 ADD MLOAD DUP6 DUP3 ADD PUSH1 0x40 ADD MSTORE DUP3 ADD PUSH2 0xD41 JUMP JUMPDEST DUP2 DUP2 GT ISZERO PUSH2 0xD6F JUMPI PUSH1 0x0 PUSH1 0x40 DUP4 DUP8 ADD ADD MSTORE JUMPDEST POP PUSH1 0x1F ADD PUSH1 0x1F NOT AND SWAP3 SWAP1 SWAP3 ADD PUSH1 0x40 ADD SWAP4 SWAP3 POP POP POP JUMP JUMPDEST DUP1 CALLDATALOAD PUSH1 0x1 PUSH1 0x1 PUSH1 0xA0 SHL SUB DUP2 AND DUP2 EQ PUSH2 0xD9C JUMPI PUSH1 0x0 DUP1 REVERT JUMPDEST SWAP2 SWAP1 POP JUMP JUMPDEST PUSH1 0x0 DUP1 PUSH1 0x40 DUP4 DUP6 SUB SLT ISZERO PUSH2 0xDB4 JUMPI PUSH1 0x0 DUP1 REVERT JUMPDEST PUSH2 0xDBD DUP4 PUSH2 0xD85 JUMP JUMPDEST SWAP5 PUSH1 0x20 SWAP4 SWAP1 SWAP4 ADD CALLDATALOAD SWAP4 POP POP POP JUMP JUMPDEST PUSH1 0x0 DUP1 PUSH1 0x0 PUSH1 0x60 DUP5 DUP7 SUB SLT ISZERO PUSH2 0xDE0 JUMPI PUSH1 0x0 DUP1 REVERT JUMPDEST PUSH2 0xDE9 DUP5 PUSH2 0xD85 JUMP JUMPDEST SWAP3 POP PUSH2 0xDF7 PUSH1 0x20 DUP6 ADD PUSH2 0xD85 JUMP JUMPDEST SWAP2 POP PUSH1 0x40 DUP5 ADD CALLDATALOAD SWAP1 POP SWAP3 POP SWAP3 POP SWAP3 JUMP JUMPDEST PUSH1 0x0 PUSH1 0x20 DUP3 DUP5 SUB SLT ISZERO PUSH2 0xE19 JUMPI PUSH1 0x0 DUP1 REVERT JUMPDEST PUSH2 0xD10 DUP3 PUSH2 0xD85 JUMP JUMPDEST PUSH1 0x0 DUP1 PUSH1 0x40 DUP4 DUP6 SUB SLT ISZERO PUSH2 0xE35 JUMPI PUSH1 0x0 DUP1 REVERT JUMPDEST PUSH2 0xE3E DUP4 PUSH2 0xD85 JUMP JUMPDEST SWAP2 POP PUSH2 0xE4C PUSH1 0x20 DUP5 ADD PUSH2 0xD85 JUMP JUMPDEST SWAP1 POP SWAP3 POP SWAP3 SWAP1 POP JUMP JUMPDEST PUSH1 0x1 DUP2 DUP2 SHR SWAP1 DUP3 AND DUP1 PUSH2 0xE69 JUMPI PUSH1 0x7F DUP3 AND SWAP2 POP JUMPDEST PUSH1 0x20 DUP3 LT DUP2 SUB PUSH2 0xE89 JUMPI PUSH4 0x4E487B71 PUSH1 0xE0 SHL PUSH1 0x0 MSTORE PUSH1 0x22 PUSH1 0x4 MSTORE PUSH1 0x24 PUSH1 0x0 REVERT JUMPDEST POP SWAP2 SWAP1 POP JUMP JUMPDEST PUSH4 0x4E487B71 PUSH1 0xE0 SHL PUSH1 0x0 MSTORE PUSH1 0x11 PUSH1 0x4 MSTORE PUSH1 0x24 PUSH1 0x0 REVERT JUMPDEST PUSH1 0x0 DUP3 NOT DUP3 GT ISZERO PUSH2 0xEB8 JUMPI PUSH2 0xEB8 PUSH2 0xE8F JUMP JUMPDEST POP ADD SWAP1 JUMP JUMPDEST PUSH1 0x20 DUP1 DUP3 MSTORE DUP2 DUP2 ADD MSTORE PUSH32 0x4F776E61626C653A2063616C6C6572206973206E6F7420746865206F776E6572 PUSH1 0x40 DUP3 ADD MSTORE PUSH1 0x60 ADD SWAP1 JUMP JUMPDEST PUSH1 0x1 DUP2 DUP2 JUMPDEST DUP1 DUP6 GT ISZERO PUSH2 0xF2D JUMPI DUP2 PUSH1 0x0 NOT DIV DUP3 GT ISZERO PUSH2 0xF13 JUMPI PUSH2 0xF13 PUSH2 0xE8F JUMP JUMPDEST DUP1 DUP6 AND ISZERO PUSH2 0xF20 JUMPI SWAP2 DUP2 MUL SWAP2 JUMPDEST SWAP4 DUP5 SHR SWAP4 SWAP1 DUP1 MUL SWAP1 PUSH2 0xEF7 JUMP JUMPDEST POP SWAP3 POP SWAP3 SWAP1 POP JUMP JUMPDEST PUSH1 0x0 DUP3 PUSH2 0xF44 JUMPI POP PUSH1 0x1 PUSH2 0x3C9 JUMP JUMPDEST DUP2 PUSH2 0xF51 JUMPI POP PUSH1 0x0 PUSH2 0x3C9 JUMP JUMPDEST DUP2 PUSH1 0x1 DUP2 EQ PUSH2 0xF67 JUMPI PUSH1 0x2 DUP2 EQ PUSH2 0xF71 JUMPI PUSH2 0xF8D JUMP JUMPDEST PUSH1 0x1 SWAP2 POP POP PUSH2 0x3C9 JUMP JUMPDEST PUSH1 0xFF DUP5 GT ISZERO PUSH2 0xF82 JUMPI PUSH2 0xF82 PUSH2 0xE8F JUMP JUMPDEST POP POP PUSH1 0x1 DUP3 SHL PUSH2 0x3C9 JUMP JUMPDEST POP PUSH1 0x20 DUP4 LT PUSH2 0x133 DUP4 LT AND PUSH1 0x4E DUP5 LT PUSH1 0xB DUP5 LT AND OR ISZERO PUSH2 0xFB0 JUMPI POP DUP2 DUP2 EXP PUSH2 0x3C9 JUMP JUMPDEST PUSH2 0xFBA DUP4 DUP4 PUSH2 0xEF2 JUMP JUMPDEST DUP1 PUSH1 0x0 NOT DIV DUP3 GT ISZERO PUSH2 0xFCE JUMPI PUSH2 0xFCE PUSH2 0xE8F JUMP JUMPDEST MUL SWAP4 SWAP3 POP POP POP JUMP JUMPDEST PUSH1 0x0 PUSH2 0xD10 PUSH1 0xFF DUP5 AND DUP4 PUSH2 0xF35 JUMP JUMPDEST PUSH1 0x0 DUP2 PUSH1 0x0 NOT DIV DUP4 GT DUP3 ISZERO ISZERO AND ISZERO PUSH2 0xFFF JUMPI PUSH2 0xFFF PUSH2 0xE8F JUMP JUMPDEST POP MUL SWAP1 JUMP JUMPDEST PUSH1 0x0 PUSH1 0x20 DUP3 DUP5 SUB SLT ISZERO PUSH2 0x1016 JUMPI PUSH1 0x0 DUP1 REVERT JUMPDEST POP MLOAD SWAP2 SWAP1 POP JUMP JUMPDEST PUSH1 0x0 PUSH1 0x20 DUP3 DUP5 SUB SLT ISZERO PUSH2 0x102F JUMPI PUSH1 0x0 DUP1 REVERT JUMPDEST DUP2 MLOAD DUP1 ISZERO ISZERO DUP2 EQ PUSH2 0xD10 JUMPI PUSH1 0x0 DUP1 REVERT JUMPDEST PUSH1 0x0 DUP3 PUSH2 0x105C JUMPI PUSH4 0x4E487B71 PUSH1 0xE0 SHL PUSH1 0x0 MSTORE PUSH1 0x12 PUSH1 0x4 MSTORE PUSH1 0x24 PUSH1 0x0 REVERT JUMPDEST POP DIV SWAP1 JUMP INVALID LOG2 PUSH5 0x6970667358 0x22 SLT KECCAK256 0x5C 0xBA LOG4 RETURN PUSH10 0xDCAA1C957255297C8BF6 EXTCODESIZE 0xD6 0xE1 SWAP12 ISZERO CALLDATACOPY 0xC9 0x29 0xB3 PUSH1 0x33 0xEC 0x26 STATICCALL LOG3 0xDC 0x29 PUSH5 0x736F6C6343 STOP ADDMOD 0xD STOP CALLER "
				},
				"gasEstimates": {
					"creation": {
						"codeDepositCost": "849400",
						"executionCost": "infinite",
						"totalCost": "infinite"
					},
					"external": {
						"allowance(address,address)": "infinite",
						"approve(address,uint256)": "24643",
						"balanceOf(address)": "2629",
						"buy()": "infinite",
						"decimals()": "200",
						"decreaseAllowance(address,uint256)": "26977",
						"increaseAllowance(address,uint256)": "26980",
						"name()": "infinite",
						"owner()": "2346",
						"renounceOwnership()": "28140",
						"symbol()": "infinite",
						"totalSupply()": "2349",
						"transfer(address,uint256)": "infinite",
						"transferFrom(address,address,uint256)": "infinite",
						"transferOwnership(address)": "28400",
						"transferTokenToUser(address,uint256)": "infinite"
					},
					"internal": {
						"_transferTokenToUser(address,uint256)": "infinite"
					}
				},
				"methodIdentifiers": {
					"allowance(address,address)": "dd62ed3e",
					"approve(address,uint256)": "095ea7b3",
					"balanceOf(address)": "70a08231",
					"buy()": "a6f2ae3a",
					"decimals()": "313ce567",
					"decreaseAllowance(address,uint256)": "a457c2d7",
					"increaseAllowance(address,uint256)": "39509351",
					"name()": "06fdde03",
					"owner()": "8da5cb5b",
					"renounceOwnership()": "715018a6",
					"symbol()": "95d89b41",
					"totalSupply()": "18160ddd",
					"transfer(address,uint256)": "a9059cbb",
					"transferFrom(address,address,uint256)": "23b872dd",
					"transferOwnership(address)": "f2fde38b",
					"transferTokenToUser(address,uint256)": "4664ffea"
				}
			},
			"storageLayout": {
				"storage": [
					{
						"astId": 120,
						"contract": "contracts/YNPresalePair.sol:YNPresalePair",
						"label": "_balances",
						"offset": 0,
						"slot": "0",
						"type": "t_mapping(t_address,t_uint256)"
					},
					{
						"astId": 126,
						"contract": "contracts/YNPresalePair.sol:YNPresalePair",
						"label": "_allowances",
						"offset": 0,
						"slot": "1",
						"type": "t_mapping(t_address,t_mapping(t_address,t_uint256))"
					},
					{
						"astId": 128,
						"contract": "contracts/YNPresalePair.sol:YNPresalePair",
						"label": "_totalSupply",
						"offset": 0,
						"slot": "2",
						"type": "t_uint256"
					},
					{
						"astId": 130,
						"contract": "contracts/YNPresalePair.sol:YNPresalePair",
						"label": "_name",
						"offset": 0,
						"slot": "3",
						"type": "t_string_storage"
					},
					{
						"astId": 132,
						"contract": "contracts/YNPresalePair.sol:YNPresalePair",
						"label": "_symbol",
						"offset": 0,
						"slot": "4",
						"type": "t_string_storage"
					},
					{
						"astId": 7,
						"contract": "contracts/YNPresalePair.sol:YNPresalePair",
						"label": "_owner",
						"offset": 0,
						"slot": "5",
						"type": "t_address"
					},
					{
						"astId": 1204,
						"contract": "contracts/YNPresalePair.sol:YNPresalePair",
						"label": "_buyFee",
						"offset": 0,
						"slot": "6",
						"type": "t_uint256"
					},
					{
						"astId": 1207,
						"contract": "contracts/YNPresalePair.sol:YNPresalePair",
						"label": "_saleFee",
						"offset": 0,
						"slot": "7",
						"type": "t_uint256"
					},
					{
						"astId": 1214,
						"contract": "contracts/YNPresalePair.sol:YNPresalePair",
						"label": "ETH",
						"offset": 0,
						"slot": "8",
						"type": "t_uint256"
					},
					{
						"astId": 1221,
						"contract": "contracts/YNPresalePair.sol:YNPresalePair",
						"label": "maxBuy",
						"offset": 0,
						"slot": "9",
						"type": "t_uint256"
					},
					{
						"astId": 1228,
						"contract": "contracts/YNPresalePair.sol:YNPresalePair",
						"label": "maxSale",
						"offset": 0,
						"slot": "10",
						"type": "t_uint256"
					}
				],
				"types": {
					"t_address": {
						"encoding": "inplace",
						"label": "address",
						"numberOfBytes": "20"
					},
					"t_mapping(t_address,t_mapping(t_address,t_uint256))": {
						"encoding": "mapping",
						"key": "t_address",
						"label": "mapping(address => mapping(address => uint256))",
						"numberOfBytes": "32",
						"value": "t_mapping(t_address,t_uint256)"
					},
					"t_mapping(t_address,t_uint256)": {
						"encoding": "mapping",
						"key": "t_address",
						"label": "mapping(address => uint256)",
						"numberOfBytes": "32",
						"value": "t_uint256"
					},
					"t_string_storage": {
						"encoding": "bytes",
						"label": "string",
						"numberOfBytes": "32"
					},
					"t_uint256": {
						"encoding": "inplace",
						"label": "uint256",
						"numberOfBytes": "32"
					}
				}
			},
			"userdoc": {
				"kind": "user",
				"methods": {},
				"version": 1
			}
		}
	}
}