{
	"data": {
		"bytecode": {
			"linkReferences": {},
			"object": "608060405234801561001057600080fd5b50610b79806100206000396000f3fe608060405234801561001057600080fd5b506004361061002b5760003560e01c80636912afce14610030575b600080fd5b61004a600480360381019061004591906106e0565b610060565b6040516100579190610813565b60405180910390f35b60008061007461006f8461014d565b61023a565b905060008363ffffffff16141561011e57600167ffffffffffffffff8111156100a05761009f610aa4565b5b6040519080825280601f01601f1916602001820160405280156100d25781602001600182028036833780820191505090505b509050608060f81b816000815181106100ee576100ed610a75565b5b60200101907effffffffffffffffffffffffffffffffffffffffffffffffffffffffffffff1916908160001a9053505b600061013261012c8661023a565b83610424565b805190602001209050606081901b60601c9250505092915050565b60608060ff8363ffffffff161161018b5760008390508060405160200161017491906107f8565b604051602081830303815290604052915050610231565b61ffff8363ffffffff1610156101c8576000839050806040516020016101b191906107a7565b604051602081830303815290604052915050610230565b62ffffff8363ffffffff161015610206576000839050806040516020016101ef91906107c2565b60405160208183030381529060405291505061022f565b60008390508060405160200161021c91906107dd565b6040516020818303038152906040529150505b5b5b80915050919050565b6060600182511480156102915750607f60f81b8260008151811061026157610260610a75565b5b602001015160f81c60f81b7effffffffffffffffffffffffffffffffffffffffffffffffffffffffffffff191611155b1561029e5781905061041f565b6037825111610418576000600183516102b79190610884565b67ffffffffffffffff8111156102d0576102cf610aa4565b5b6040519080825280601f01601f1916602001820160405280156103025781602001600182028036833780820191505090505b50905060005b83518110156103975783818151811061032457610323610a75565b5b602001015160f81c60f81b60f81c60f81b826001836103439190610884565b8151811061035457610353610a75565b5b60200101907effffffffffffffffffffffffffffffffffffffffffffffffffffffffffffff1916908160001a9053506001816103909190610884565b9050610308565b506103ae835160806103a991906108da565b61014d565b6000815181106103c1576103c0610a75565b5b602001015160f81c60f81b816000815181106103e0576103df610a75565b5b60200101907effffffffffffffffffffffffffffffffffffffffffffffffffffffffffffff1916908160001a9053508091505061041f565b6060809150505b919050565b606060008251845161043691906108da565b905060018161044591906108da565b905060008163ffffffff1667ffffffffffffffff81111561046957610468610aa4565b5b6040519080825280601f01601f19166020018201604052801561049b5781602001600182028036833780820191505090505b5090506000805b8651821015610531578682815181106104be576104bd610a75565b5b602001015160f81c60f81b60f81c60f81b836001846104dd9190610884565b815181106104ee576104ed610a75565b5b60200101907effffffffffffffffffffffffffffffffffffffffffffffffffffffffffffff1916908160001a90535060018261052a9190610884565b91506104a2565b5b85518110156105cc5785818151811061054e5761054d610a75565b5b602001015160f81c60f81b60f81c60f81b836001848461056e9190610884565b6105789190610884565b8151811061058957610588610a75565b5b60200101907effffffffffffffffffffffffffffffffffffffffffffffffffffffffffffff1916908160001a9053506001816105c59190610884565b9050610532565b6105ed60018560c06105de91906108da565b6105e89190610914565b61014d565b600081518110610600576105ff610a75565b5b602001015160f81c60f81b8360008151811061061f5761061e610a75565b5b60200101907effffffffffffffffffffffffffffffffffffffffffffffffffffffffffffff1916908160001a9053508294505050505092915050565b600061066e61066984610853565b61082e565b90508281526020810184848401111561068a57610689610ad8565b5b6106958482856109be565b509392505050565b600082601f8301126106b2576106b1610ad3565b5b81356106c284826020860161065b565b91505092915050565b6000813590506106da81610b2c565b92915050565b600080604083850312156106f7576106f6610ae2565b5b600083013567ffffffffffffffff81111561071557610714610add565b5b6107218582860161069d565b9250506020610732858286016106cb565b9150509250929050565b61074581610948565b82525050565b61075c6107578261095a565b6109fe565b82525050565b61077361076e82610988565b610a10565b82525050565b61078a610785826109a1565b610a22565b82525050565b6107a161079c826109b1565b610a34565b82525050565b60006107b3828461074b565b60028201915081905092915050565b60006107ce8284610762565b60038201915081905092915050565b60006107e98284610779565b60048201915081905092915050565b60006108048284610790565b60018201915081905092915050565b6000602082019050610828600083018461073c565b92915050565b6000610838610849565b905061084482826109cd565b919050565b6000604051905090565b600067ffffffffffffffff82111561086e5761086d610aa4565b5b61087782610ae7565b9050602081019050919050565b600061088f82610997565b915061089a83610997565b9250827fffffffffffffffffffffffffffffffffffffffffffffffffffffffffffffffff038211156108cf576108ce610a46565b5b828201905092915050565b60006108e5826109a1565b91506108f0836109a1565b92508263ffffffff0382111561090957610908610a46565b5b828201905092915050565b600061091f826109a1565b915061092a836109a1565b92508282101561093d5761093c610a46565b5b828203905092915050565b600061095382610968565b9050919050565b600061ffff82169050919050565b600073ffffffffffffffffffffffffffffffffffffffff82169050919050565b600062ffffff82169050919050565b6000819050919050565b600063ffffffff82169050919050565b600060ff82169050919050565b82818337600083830152505050565b6109d682610ae7565b810181811067ffffffffffffffff821117156109f5576109f4610aa4565b5b80604052505050565b6000610a0982610b12565b9050919050565b6000610a1b82610b05565b9050919050565b6000610a2d82610af8565b9050919050565b6000610a3f82610b1f565b9050919050565b7f4e487b7100000000000000000000000000000000000000000000000000000000600052601160045260246000fd5b7f4e487b7100000000000000000000000000000000000000000000000000000000600052603260045260246000fd5b7f4e487b7100000000000000000000000000000000000000000000000000000000600052604160045260246000fd5b600080fd5b600080fd5b600080fd5b600080fd5b6000601f19601f8301169050919050565b60008160e01b9050919050565b60008160e81b9050919050565b60008160f01b9050919050565b60008160f81b9050919050565b610b35816109a1565b8114610b4057600080fd5b5056fea2646970667358221220a05fba05c31999a719851950a8eb314a049535672436d7ed1b6988199e6dc39264736f6c63430008070033",
			"opcodes": "PUSH1 0x80 PUSH1 0x40 MSTORE CALLVALUE DUP1 ISZERO PUSH2 0x10 JUMPI PUSH1 0x0 DUP1 REVERT JUMPDEST POP PUSH2 0xB79 DUP1 PUSH2 0x20 PUSH1 0x0 CODECOPY PUSH1 0x0 RETURN INVALID PUSH1 0x80 PUSH1 0x40 MSTORE CALLVALUE DUP1 ISZERO PUSH2 0x10 JUMPI PUSH1 0x0 DUP1 REVERT JUMPDEST POP PUSH1 0x4 CALLDATASIZE LT PUSH2 0x2B JUMPI PUSH1 0x0 CALLDATALOAD PUSH1 0xE0 SHR DUP1 PUSH4 0x6912AFCE EQ PUSH2 0x30 JUMPI JUMPDEST PUSH1 0x0 DUP1 REVERT JUMPDEST PUSH2 0x4A PUSH1 0x4 DUP1 CALLDATASIZE SUB DUP2 ADD SWAP1 PUSH2 0x45 SWAP2 SWAP1 PUSH2 0x6E0 JUMP JUMPDEST PUSH2 0x60 JUMP JUMPDEST PUSH1 0x40 MLOAD PUSH2 0x57 SWAP2 SWAP1 PUSH2 0x813 JUMP JUMPDEST PUSH1 0x40 MLOAD DUP1 SWAP2 SUB SWAP1 RETURN JUMPDEST PUSH1 0x0 DUP1 PUSH2 0x74 PUSH2 0x6F DUP5 PUSH2 0x14D JUMP JUMPDEST PUSH2 0x23A JUMP JUMPDEST SWAP1 POP PUSH1 0x0 DUP4 PUSH4 0xFFFFFFFF AND EQ ISZERO PUSH2 0x11E JUMPI PUSH1 0x1 PUSH8 0xFFFFFFFFFFFFFFFF DUP2 GT ISZERO PUSH2 0xA0 JUMPI PUSH2 0x9F PUSH2 0xAA4 JUMP JUMPDEST JUMPDEST PUSH1 0x40 MLOAD SWAP1 DUP1 DUP3 MSTORE DUP1 PUSH1 0x1F ADD PUSH1 0x1F NOT AND PUSH1 0x20 ADD DUP3 ADD PUSH1 0x40 MSTORE DUP1 ISZERO PUSH2 0xD2 JUMPI DUP2 PUSH1 0x20 ADD PUSH1 0x1 DUP3 MUL DUP1 CALLDATASIZE DUP4 CALLDATACOPY DUP1 DUP3 ADD SWAP2 POP POP SWAP1 POP JUMPDEST POP SWAP1 POP PUSH1 0x80 PUSH1 0xF8 SHL DUP2 PUSH1 0x0 DUP2 MLOAD DUP2 LT PUSH2 0xEE JUMPI PUSH2 0xED PUSH2 0xA75 JUMP JUMPDEST JUMPDEST PUSH1 0x20 ADD ADD SWAP1 PUSH31 0xFFFFFFFFFFFFFFFFFFFFFFFFFFFFFFFFFFFFFFFFFFFFFFFFFFFFFFFFFFFFFF NOT AND SWAP1 DUP2 PUSH1 0x0 BYTE SWAP1 MSTORE8 POP JUMPDEST PUSH1 0x0 PUSH2 0x132 PUSH2 0x12C DUP7 PUSH2 0x23A JUMP JUMPDEST DUP4 PUSH2 0x424 JUMP JUMPDEST DUP1 MLOAD SWAP1 PUSH1 0x20 ADD KECCAK256 SWAP1 POP PUSH1 0x60 DUP2 SWAP1 SHL PUSH1 0x60 SHR SWAP3 POP POP POP SWAP3 SWAP2 POP POP JUMP JUMPDEST PUSH1 0x60 DUP1 PUSH1 0xFF DUP4 PUSH4 0xFFFFFFFF AND GT PUSH2 0x18B JUMPI PUSH1 0x0 DUP4 SWAP1 POP DUP1 PUSH1 0x40 MLOAD PUSH1 0x20 ADD PUSH2 0x174 SWAP2 SWAP1 PUSH2 0x7F8 JUMP JUMPDEST PUSH1 0x40 MLOAD PUSH1 0x20 DUP2 DUP4 SUB SUB DUP2 MSTORE SWAP1 PUSH1 0x40 MSTORE SWAP2 POP POP PUSH2 0x231 JUMP JUMPDEST PUSH2 0xFFFF DUP4 PUSH4 0xFFFFFFFF AND LT ISZERO PUSH2 0x1C8 JUMPI PUSH1 0x0 DUP4 SWAP1 POP DUP1 PUSH1 0x40 MLOAD PUSH1 0x20 ADD PUSH2 0x1B1 SWAP2 SWAP1 PUSH2 0x7A7 JUMP JUMPDEST PUSH1 0x40 MLOAD PUSH1 0x20 DUP2 DUP4 SUB SUB DUP2 MSTORE SWAP1 PUSH1 0x40 MSTORE SWAP2 POP POP PUSH2 0x230 JUMP JUMPDEST PUSH3 0xFFFFFF DUP4 PUSH4 0xFFFFFFFF AND LT ISZERO PUSH2 0x206 JUMPI PUSH1 0x0 DUP4 SWAP1 POP DUP1 PUSH1 0x40 MLOAD PUSH1 0x20 ADD PUSH2 0x1EF SWAP2 SWAP1 PUSH2 0x7C2 JUMP JUMPDEST PUSH1 0x40 MLOAD PUSH1 0x20 DUP2 DUP4 SUB SUB DUP2 MSTORE SWAP1 PUSH1 0x40 MSTORE SWAP2 POP POP PUSH2 0x22F JUMP JUMPDEST PUSH1 0x0 DUP4 SWAP1 POP DUP1 PUSH1 0x40 MLOAD PUSH1 0x20 ADD PUSH2 0x21C SWAP2 SWAP1 PUSH2 0x7DD JUMP JUMPDEST PUSH1 0x40 MLOAD PUSH1 0x20 DUP2 DUP4 SUB SUB DUP2 MSTORE SWAP1 PUSH1 0x40 MSTORE SWAP2 POP POP JUMPDEST JUMPDEST JUMPDEST DUP1 SWAP2 POP POP SWAP2 SWAP1 POP JUMP JUMPDEST PUSH1 0x60 PUSH1 0x1 DUP3 MLOAD EQ DUP1 ISZERO PUSH2 0x291 JUMPI POP PUSH1 0x7F PUSH1 0xF8 SHL DUP3 PUSH1 0x0 DUP2 MLOAD DUP2 LT PUSH2 0x261 JUMPI PUSH2 0x260 PUSH2 0xA75 JUMP JUMPDEST JUMPDEST PUSH1 0x20 ADD ADD MLOAD PUSH1 0xF8 SHR PUSH1 0xF8 SHL PUSH31 0xFFFFFFFFFFFFFFFFFFFFFFFFFFFFFFFFFFFFFFFFFFFFFFFFFFFFFFFFFFFFFF NOT AND GT ISZERO JUMPDEST ISZERO PUSH2 0x29E JUMPI DUP2 SWAP1 POP PUSH2 0x41F JUMP JUMPDEST PUSH1 0x37 DUP3 MLOAD GT PUSH2 0x418 JUMPI PUSH1 0x0 PUSH1 0x1 DUP4 MLOAD PUSH2 0x2B7 SWAP2 SWAP1 PUSH2 0x884 JUMP JUMPDEST PUSH8 0xFFFFFFFFFFFFFFFF DUP2 GT ISZERO PUSH2 0x2D0 JUMPI PUSH2 0x2CF PUSH2 0xAA4 JUMP JUMPDEST JUMPDEST PUSH1 0x40 MLOAD SWAP1 DUP1 DUP3 MSTORE DUP1 PUSH1 0x1F ADD PUSH1 0x1F NOT AND PUSH1 0x20 ADD DUP3 ADD PUSH1 0x40 MSTORE DUP1 ISZERO PUSH2 0x302 JUMPI DUP2 PUSH1 0x20 ADD PUSH1 0x1 DUP3 MUL DUP1 CALLDATASIZE DUP4 CALLDATACOPY DUP1 DUP3 ADD SWAP2 POP POP SWAP1 POP JUMPDEST POP SWAP1 POP PUSH1 0x0 JUMPDEST DUP4 MLOAD DUP2 LT ISZERO PUSH2 0x397 JUMPI DUP4 DUP2 DUP2 MLOAD DUP2 LT PUSH2 0x324 JUMPI PUSH2 0x323 PUSH2 0xA75 JUMP JUMPDEST JUMPDEST PUSH1 0x20 ADD ADD MLOAD PUSH1 0xF8 SHR PUSH1 0xF8 SHL PUSH1 0xF8 SHR PUSH1 0xF8 SHL DUP3 PUSH1 0x1 DUP4 PUSH2 0x343 SWAP2 SWAP1 PUSH2 0x884 JUMP JUMPDEST DUP2 MLOAD DUP2 LT PUSH2 0x354 JUMPI PUSH2 0x353 PUSH2 0xA75 JUMP JUMPDEST JUMPDEST PUSH1 0x20 ADD ADD SWAP1 PUSH31 0xFFFFFFFFFFFFFFFFFFFFFFFFFFFFFFFFFFFFFFFFFFFFFFFFFFFFFFFFFFFFFF NOT AND SWAP1 DUP2 PUSH1 0x0 BYTE SWAP1 MSTORE8 POP PUSH1 0x1 DUP2 PUSH2 0x390 SWAP2 SWAP1 PUSH2 0x884 JUMP JUMPDEST SWAP1 POP PUSH2 0x308 JUMP JUMPDEST POP PUSH2 0x3AE DUP4 MLOAD PUSH1 0x80 PUSH2 0x3A9 SWAP2 SWAP1 PUSH2 0x8DA JUMP JUMPDEST PUSH2 0x14D JUMP JUMPDEST PUSH1 0x0 DUP2 MLOAD DUP2 LT PUSH2 0x3C1 JUMPI PUSH2 0x3C0 PUSH2 0xA75 JUMP JUMPDEST JUMPDEST PUSH1 0x20 ADD ADD MLOAD PUSH1 0xF8 SHR PUSH1 0xF8 SHL DUP2 PUSH1 0x0 DUP2 MLOAD DUP2 LT PUSH2 0x3E0 JUMPI PUSH2 0x3DF PUSH2 0xA75 JUMP JUMPDEST JUMPDEST PUSH1 0x20 ADD ADD SWAP1 PUSH31 0xFFFFFFFFFFFFFFFFFFFFFFFFFFFFFFFFFFFFFFFFFFFFFFFFFFFFFFFFFFFFFF NOT AND SWAP1 DUP2 PUSH1 0x0 BYTE SWAP1 MSTORE8 POP DUP1 SWAP2 POP POP PUSH2 0x41F JUMP JUMPDEST PUSH1 0x60 DUP1 SWAP2 POP POP JUMPDEST SWAP2 SWAP1 POP JUMP JUMPDEST PUSH1 0x60 PUSH1 0x0 DUP3 MLOAD DUP5 MLOAD PUSH2 0x436 SWAP2 SWAP1 PUSH2 0x8DA JUMP JUMPDEST SWAP1 POP PUSH1 0x1 DUP2 PUSH2 0x445 SWAP2 SWAP1 PUSH2 0x8DA JUMP JUMPDEST SWAP1 POP PUSH1 0x0 DUP2 PUSH4 0xFFFFFFFF AND PUSH8 0xFFFFFFFFFFFFFFFF DUP2 GT ISZERO PUSH2 0x469 JUMPI PUSH2 0x468 PUSH2 0xAA4 JUMP JUMPDEST JUMPDEST PUSH1 0x40 MLOAD SWAP1 DUP1 DUP3 MSTORE DUP1 PUSH1 0x1F ADD PUSH1 0x1F NOT AND PUSH1 0x20 ADD DUP3 ADD PUSH1 0x40 MSTORE DUP1 ISZERO PUSH2 0x49B JUMPI DUP2 PUSH1 0x20 ADD PUSH1 0x1 DUP3 MUL DUP1 CALLDATASIZE DUP4 CALLDATACOPY DUP1 DUP3 ADD SWAP2 POP POP SWAP1 POP JUMPDEST POP SWAP1 POP PUSH1 0x0 DUP1 JUMPDEST DUP7 MLOAD DUP3 LT ISZERO PUSH2 0x531 JUMPI DUP7 DUP3 DUP2 MLOAD DUP2 LT PUSH2 0x4BE JUMPI PUSH2 0x4BD PUSH2 0xA75 JUMP JUMPDEST JUMPDEST PUSH1 0x20 ADD ADD MLOAD PUSH1 0xF8 SHR PUSH1 0xF8 SHL PUSH1 0xF8 SHR PUSH1 0xF8 SHL DUP4 PUSH1 0x1 DUP5 PUSH2 0x4DD SWAP2 SWAP1 PUSH2 0x884 JUMP JUMPDEST DUP2 MLOAD DUP2 LT PUSH2 0x4EE JUMPI PUSH2 0x4ED PUSH2 0xA75 JUMP JUMPDEST JUMPDEST PUSH1 0x20 ADD ADD SWAP1 PUSH31 0xFFFFFFFFFFFFFFFFFFFFFFFFFFFFFFFFFFFFFFFFFFFFFFFFFFFFFFFFFFFFFF NOT AND SWAP1 DUP2 PUSH1 0x0 BYTE SWAP1 MSTORE8 POP PUSH1 0x1 DUP3 PUSH2 0x52A SWAP2 SWAP1 PUSH2 0x884 JUMP JUMPDEST SWAP2 POP PUSH2 0x4A2 JUMP JUMPDEST JUMPDEST DUP6 MLOAD DUP2 LT ISZERO PUSH2 0x5CC JUMPI DUP6 DUP2 DUP2 MLOAD DUP2 LT PUSH2 0x54E JUMPI PUSH2 0x54D PUSH2 0xA75 JUMP JUMPDEST JUMPDEST PUSH1 0x20 ADD ADD MLOAD PUSH1 0xF8 SHR PUSH1 0xF8 SHL PUSH1 0xF8 SHR PUSH1 0xF8 SHL DUP4 PUSH1 0x1 DUP5 DUP5 PUSH2 0x56E SWAP2 SWAP1 PUSH2 0x884 JUMP JUMPDEST PUSH2 0x578 SWAP2 SWAP1 PUSH2 0x884 JUMP JUMPDEST DUP2 MLOAD DUP2 LT PUSH2 0x589 JUMPI PUSH2 0x588 PUSH2 0xA75 JUMP JUMPDEST JUMPDEST PUSH1 0x20 ADD ADD SWAP1 PUSH31 0xFFFFFFFFFFFFFFFFFFFFFFFFFFFFFFFFFFFFFFFFFFFFFFFFFFFFFFFFFFFFFF NOT AND SWAP1 DUP2 PUSH1 0x0 BYTE SWAP1 MSTORE8 POP PUSH1 0x1 DUP2 PUSH2 0x5C5 SWAP2 SWAP1 PUSH2 0x884 JUMP JUMPDEST SWAP1 POP PUSH2 0x532 JUMP JUMPDEST PUSH2 0x5ED PUSH1 0x1 DUP6 PUSH1 0xC0 PUSH2 0x5DE SWAP2 SWAP1 PUSH2 0x8DA JUMP JUMPDEST PUSH2 0x5E8 SWAP2 SWAP1 PUSH2 0x914 JUMP JUMPDEST PUSH2 0x14D JUMP JUMPDEST PUSH1 0x0 DUP2 MLOAD DUP2 LT PUSH2 0x600 JUMPI PUSH2 0x5FF PUSH2 0xA75 JUMP JUMPDEST JUMPDEST PUSH1 0x20 ADD ADD MLOAD PUSH1 0xF8 SHR PUSH1 0xF8 SHL DUP4 PUSH1 0x0 DUP2 MLOAD DUP2 LT PUSH2 0x61F JUMPI PUSH2 0x61E PUSH2 0xA75 JUMP JUMPDEST JUMPDEST PUSH1 0x20 ADD ADD SWAP1 PUSH31 0xFFFFFFFFFFFFFFFFFFFFFFFFFFFFFFFFFFFFFFFFFFFFFFFFFFFFFFFFFFFFFF NOT AND SWAP1 DUP2 PUSH1 0x0 BYTE SWAP1 MSTORE8 POP DUP3 SWAP5 POP POP POP POP POP SWAP3 SWAP2 POP POP JUMP JUMPDEST PUSH1 0x0 PUSH2 0x66E PUSH2 0x669 DUP5 PUSH2 0x853 JUMP JUMPDEST PUSH2 0x82E JUMP JUMPDEST SWAP1 POP DUP3 DUP2 MSTORE PUSH1 0x20 DUP2 ADD DUP5 DUP5 DUP5 ADD GT ISZERO PUSH2 0x68A JUMPI PUSH2 0x689 PUSH2 0xAD8 JUMP JUMPDEST JUMPDEST PUSH2 0x695 DUP5 DUP3 DUP6 PUSH2 0x9BE JUMP JUMPDEST POP SWAP4 SWAP3 POP POP POP JUMP JUMPDEST PUSH1 0x0 DUP3 PUSH1 0x1F DUP4 ADD SLT PUSH2 0x6B2 JUMPI PUSH2 0x6B1 PUSH2 0xAD3 JUMP JUMPDEST JUMPDEST DUP2 CALLDATALOAD PUSH2 0x6C2 DUP5 DUP3 PUSH1 0x20 DUP7 ADD PUSH2 0x65B JUMP JUMPDEST SWAP2 POP POP SWAP3 SWAP2 POP POP JUMP JUMPDEST PUSH1 0x0 DUP2 CALLDATALOAD SWAP1 POP PUSH2 0x6DA DUP2 PUSH2 0xB2C JUMP JUMPDEST SWAP3 SWAP2 POP POP JUMP JUMPDEST PUSH1 0x0 DUP1 PUSH1 0x40 DUP4 DUP6 SUB SLT ISZERO PUSH2 0x6F7 JUMPI PUSH2 0x6F6 PUSH2 0xAE2 JUMP JUMPDEST JUMPDEST PUSH1 0x0 DUP4 ADD CALLDATALOAD PUSH8 0xFFFFFFFFFFFFFFFF DUP2 GT ISZERO PUSH2 0x715 JUMPI PUSH2 0x714 PUSH2 0xADD JUMP JUMPDEST JUMPDEST PUSH2 0x721 DUP6 DUP3 DUP7 ADD PUSH2 0x69D JUMP JUMPDEST SWAP3 POP POP PUSH1 0x20 PUSH2 0x732 DUP6 DUP3 DUP7 ADD PUSH2 0x6CB JUMP JUMPDEST SWAP2 POP POP SWAP3 POP SWAP3 SWAP1 POP JUMP JUMPDEST PUSH2 0x745 DUP2 PUSH2 0x948 JUMP JUMPDEST DUP3 MSTORE POP POP JUMP JUMPDEST PUSH2 0x75C PUSH2 0x757 DUP3 PUSH2 0x95A JUMP JUMPDEST PUSH2 0x9FE JUMP JUMPDEST DUP3 MSTORE POP POP JUMP JUMPDEST PUSH2 0x773 PUSH2 0x76E DUP3 PUSH2 0x988 JUMP JUMPDEST PUSH2 0xA10 JUMP JUMPDEST DUP3 MSTORE POP POP JUMP JUMPDEST PUSH2 0x78A PUSH2 0x785 DUP3 PUSH2 0x9A1 JUMP JUMPDEST PUSH2 0xA22 JUMP JUMPDEST DUP3 MSTORE POP POP JUMP JUMPDEST PUSH2 0x7A1 PUSH2 0x79C DUP3 PUSH2 0x9B1 JUMP JUMPDEST PUSH2 0xA34 JUMP JUMPDEST DUP3 MSTORE POP POP JUMP JUMPDEST PUSH1 0x0 PUSH2 0x7B3 DUP3 DUP5 PUSH2 0x74B JUMP JUMPDEST PUSH1 0x2 DUP3 ADD SWAP2 POP DUP2 SWAP1 POP SWAP3 SWAP2 POP POP JUMP JUMPDEST PUSH1 0x0 PUSH2 0x7CE DUP3 DUP5 PUSH2 0x762 JUMP JUMPDEST PUSH1 0x3 DUP3 ADD SWAP2 POP DUP2 SWAP1 POP SWAP3 SWAP2 POP POP JUMP JUMPDEST PUSH1 0x0 PUSH2 0x7E9 DUP3 DUP5 PUSH2 0x779 JUMP JUMPDEST PUSH1 0x4 DUP3 ADD SWAP2 POP DUP2 SWAP1 POP SWAP3 SWAP2 POP POP JUMP JUMPDEST PUSH1 0x0 PUSH2 0x804 DUP3 DUP5 PUSH2 0x790 JUMP JUMPDEST PUSH1 0x1 DUP3 ADD SWAP2 POP DUP2 SWAP1 POP SWAP3 SWAP2 POP POP JUMP JUMPDEST PUSH1 0x0 PUSH1 0x20 DUP3 ADD SWAP1 POP PUSH2 0x828 PUSH1 0x0 DUP4 ADD DUP5 PUSH2 0x73C JUMP JUMPDEST SWAP3 SWAP2 POP POP JUMP JUMPDEST PUSH1 0x0 PUSH2 0x838 PUSH2 0x849 JUMP JUMPDEST SWAP1 POP PUSH2 0x844 DUP3 DUP3 PUSH2 0x9CD JUMP JUMPDEST SWAP2 SWAP1 POP JUMP JUMPDEST PUSH1 0x0 PUSH1 0x40 MLOAD SWAP1 POP SWAP1 JUMP JUMPDEST PUSH1 0x0 PUSH8 0xFFFFFFFFFFFFFFFF DUP3 GT ISZERO PUSH2 0x86E JUMPI PUSH2 0x86D PUSH2 0xAA4 JUMP JUMPDEST JUMPDEST PUSH2 0x877 DUP3 PUSH2 0xAE7 JUMP JUMPDEST SWAP1 POP PUSH1 0x20 DUP2 ADD SWAP1 POP SWAP2 SWAP1 POP JUMP JUMPDEST PUSH1 0x0 PUSH2 0x88F DUP3 PUSH2 0x997 JUMP JUMPDEST SWAP2 POP PUSH2 0x89A DUP4 PUSH2 0x997 JUMP JUMPDEST SWAP3 POP DUP3 PUSH32 0xFFFFFFFFFFFFFFFFFFFFFFFFFFFFFFFFFFFFFFFFFFFFFFFFFFFFFFFFFFFFFFFF SUB DUP3 GT ISZERO PUSH2 0x8CF JUMPI PUSH2 0x8CE PUSH2 0xA46 JUMP JUMPDEST JUMPDEST DUP3 DUP3 ADD SWAP1 POP SWAP3 SWAP2 POP POP JUMP JUMPDEST PUSH1 0x0 PUSH2 0x8E5 DUP3 PUSH2 0x9A1 JUMP JUMPDEST SWAP2 POP PUSH2 0x8F0 DUP4 PUSH2 0x9A1 JUMP JUMPDEST SWAP3 POP DUP3 PUSH4 0xFFFFFFFF SUB DUP3 GT ISZERO PUSH2 0x909 JUMPI PUSH2 0x908 PUSH2 0xA46 JUMP JUMPDEST JUMPDEST DUP3 DUP3 ADD SWAP1 POP SWAP3 SWAP2 POP POP JUMP JUMPDEST PUSH1 0x0 PUSH2 0x91F DUP3 PUSH2 0x9A1 JUMP JUMPDEST SWAP2 POP PUSH2 0x92A DUP4 PUSH2 0x9A1 JUMP JUMPDEST SWAP3 POP DUP3 DUP3 LT ISZERO PUSH2 0x93D JUMPI PUSH2 0x93C PUSH2 0xA46 JUMP JUMPDEST JUMPDEST DUP3 DUP3 SUB SWAP1 POP SWAP3 SWAP2 POP POP JUMP JUMPDEST PUSH1 0x0 PUSH2 0x953 DUP3 PUSH2 0x968 JUMP JUMPDEST SWAP1 POP SWAP2 SWAP1 POP JUMP JUMPDEST PUSH1 0x0 PUSH2 0xFFFF DUP3 AND SWAP1 POP SWAP2 SWAP1 POP JUMP JUMPDEST PUSH1 0x0 PUSH20 0xFFFFFFFFFFFFFFFFFFFFFFFFFFFFFFFFFFFFFFFF DUP3 AND SWAP1 POP SWAP2 SWAP1 POP JUMP JUMPDEST PUSH1 0x0 PUSH3 0xFFFFFF DUP3 AND SWAP1 POP SWAP2 SWAP1 POP JUMP JUMPDEST PUSH1 0x0 DUP2 SWAP1 POP SWAP2 SWAP1 POP JUMP JUMPDEST PUSH1 0x0 PUSH4 0xFFFFFFFF DUP3 AND SWAP1 POP SWAP2 SWAP1 POP JUMP JUMPDEST PUSH1 0x0 PUSH1 0xFF DUP3 AND SWAP1 POP SWAP2 SWAP1 POP JUMP JUMPDEST DUP3 DUP2 DUP4 CALLDATACOPY PUSH1 0x0 DUP4 DUP4 ADD MSTORE POP POP POP JUMP JUMPDEST PUSH2 0x9D6 DUP3 PUSH2 0xAE7 JUMP JUMPDEST DUP2 ADD DUP2 DUP2 LT PUSH8 0xFFFFFFFFFFFFFFFF DUP3 GT OR ISZERO PUSH2 0x9F5 JUMPI PUSH2 0x9F4 PUSH2 0xAA4 JUMP JUMPDEST JUMPDEST DUP1 PUSH1 0x40 MSTORE POP POP POP JUMP JUMPDEST PUSH1 0x0 PUSH2 0xA09 DUP3 PUSH2 0xB12 JUMP JUMPDEST SWAP1 POP SWAP2 SWAP1 POP JUMP JUMPDEST PUSH1 0x0 PUSH2 0xA1B DUP3 PUSH2 0xB05 JUMP JUMPDEST SWAP1 POP SWAP2 SWAP1 POP JUMP JUMPDEST PUSH1 0x0 PUSH2 0xA2D DUP3 PUSH2 0xAF8 JUMP JUMPDEST SWAP1 POP SWAP2 SWAP1 POP JUMP JUMPDEST PUSH1 0x0 PUSH2 0xA3F DUP3 PUSH2 0xB1F JUMP JUMPDEST SWAP1 POP SWAP2 SWAP1 POP JUMP JUMPDEST PUSH32 0x4E487B7100000000000000000000000000000000000000000000000000000000 PUSH1 0x0 MSTORE PUSH1 0x11 PUSH1 0x4 MSTORE PUSH1 0x24 PUSH1 0x0 REVERT JUMPDEST PUSH32 0x4E487B7100000000000000000000000000000000000000000000000000000000 PUSH1 0x0 MSTORE PUSH1 0x32 PUSH1 0x4 MSTORE PUSH1 0x24 PUSH1 0x0 REVERT JUMPDEST PUSH32 0x4E487B7100000000000000000000000000000000000000000000000000000000 PUSH1 0x0 MSTORE PUSH1 0x41 PUSH1 0x4 MSTORE PUSH1 0x24 PUSH1 0x0 REVERT JUMPDEST PUSH1 0x0 DUP1 REVERT JUMPDEST PUSH1 0x0 DUP1 REVERT JUMPDEST PUSH1 0x0 DUP1 REVERT JUMPDEST PUSH1 0x0 DUP1 REVERT JUMPDEST PUSH1 0x0 PUSH1 0x1F NOT PUSH1 0x1F DUP4 ADD AND SWAP1 POP SWAP2 SWAP1 POP JUMP JUMPDEST PUSH1 0x0 DUP2 PUSH1 0xE0 SHL SWAP1 POP SWAP2 SWAP1 POP JUMP JUMPDEST PUSH1 0x0 DUP2 PUSH1 0xE8 SHL SWAP1 POP SWAP2 SWAP1 POP JUMP JUMPDEST PUSH1 0x0 DUP2 PUSH1 0xF0 SHL SWAP1 POP SWAP2 SWAP1 POP JUMP JUMPDEST PUSH1 0x0 DUP2 PUSH1 0xF8 SHL SWAP1 POP SWAP2 SWAP1 POP JUMP JUMPDEST PUSH2 0xB35 DUP2 PUSH2 0x9A1 JUMP JUMPDEST DUP2 EQ PUSH2 0xB40 JUMPI PUSH1 0x0 DUP1 REVERT JUMPDEST POP JUMP INVALID LOG2 PUSH5 0x6970667358 0x22 SLT KECCAK256 LOG0 0x5F 0xBA SDIV 0xC3 NOT SWAP10 0xA7 NOT DUP6 NOT POP 0xA8 0xEB BALANCE 0x4A DIV SWAP6 CALLDATALOAD PUSH8 0x2436D7ED1B698819 SWAP15 PUSH14 0xC39264736F6C6343000807003300 "
		},
		"gasEstimates": {
			"creation": {
				"codeDepositCost": "587400",
				"executionCost": "619",
				"totalCost": "588019"
			},
			"external": {
				"CalculateContractAddress(bytes,uint32)": "infinite"
			},
			"internal": {
				"RLPForBytes(bytes memory)": "infinite",
				"RLPForContract(bytes memory,bytes memory)": "infinite",
				"Uint32ToBytes(uint32)": "infinite"
			}
		},
		"methodIdentifiers": {
			"CalculateContractAddress(bytes,uint32)": "6912afce"
		}
	},
	"abi": [
		{
			"inputs": [
				{
					"internalType": "bytes",
					"name": "addr",
					"type": "bytes"
				},
				{
					"internalType": "uint32",
					"name": "nonce",
					"type": "uint32"
				}
			],
			"name": "CalculateContractAddress",
			"outputs": [
				{
					"internalType": "address",
					"name": "",
					"type": "address"
				}
			],
			"stateMutability": "pure",
			"type": "function"
		}
	]
}