{
	"data": {
		"bytecode": {
			"linkReferences": {},
			"object": "608060405234801561001057600080fd5b5061036e806100206000396000f3fe608060405234801561001057600080fd5b506004361061002b5760003560e01c806329e99f0714610030575b600080fd5b61004a600480360381019061004591906101a7565b610060565b60405161005791906101df565b60405180910390f35b6000806103e89050600061008582670de0b6b3a764000061015090919063ffffffff16565b905060006103e89050828510610143576100a8838661016690919063ffffffff16565b945060006100d36103e86100c5858961017c90919063ffffffff16565b61015090919063ffffffff16565b905081861161010357677ce66c50e284000081116100f7578094505050505061014b565b8594505050505061014b565b6000610118838861016690919063ffffffff16565b9050677ce66c50e2840000811161013657809550505050505061014b565b869550505050505061014b565b600093505050505b919050565b6000818361015e91906101fa565b905092915050565b600081836101749190610285565b905092915050565b6000818361018a919061022b565b905092915050565b6000813590506101a181610321565b92915050565b6000602082840312156101b957600080fd5b60006101c784828501610192565b91505092915050565b6101d9816102b9565b82525050565b60006020820190506101f460008301846101d0565b92915050565b6000610205826102b9565b9150610210836102b9565b9250826102205761021f6102f2565b5b828204905092915050565b6000610236826102b9565b9150610241836102b9565b9250817fffffffffffffffffffffffffffffffffffffffffffffffffffffffffffffffff048311821515161561027a576102796102c3565b5b828202905092915050565b6000610290826102b9565b915061029b836102b9565b9250828210156102ae576102ad6102c3565b5b828203905092915050565b6000819050919050565b7f4e487b7100000000000000000000000000000000000000000000000000000000600052601160045260246000fd5b7f4e487b7100000000000000000000000000000000000000000000000000000000600052601260045260246000fd5b61032a816102b9565b811461033557600080fd5b5056fea26469706673582212200f77eef3f7ebd70aa386f92205688efd5732706ceba55b58985127848cd9e8cd64736f6c63430008040033",
			"opcodes": "PUSH1 0x80 PUSH1 0x40 MSTORE CALLVALUE DUP1 ISZERO PUSH2 0x10 JUMPI PUSH1 0x0 DUP1 REVERT JUMPDEST POP PUSH2 0x36E DUP1 PUSH2 0x20 PUSH1 0x0 CODECOPY PUSH1 0x0 RETURN INVALID PUSH1 0x80 PUSH1 0x40 MSTORE CALLVALUE DUP1 ISZERO PUSH2 0x10 JUMPI PUSH1 0x0 DUP1 REVERT JUMPDEST POP PUSH1 0x4 CALLDATASIZE LT PUSH2 0x2B JUMPI PUSH1 0x0 CALLDATALOAD PUSH1 0xE0 SHR DUP1 PUSH4 0x29E99F07 EQ PUSH2 0x30 JUMPI JUMPDEST PUSH1 0x0 DUP1 REVERT JUMPDEST PUSH2 0x4A PUSH1 0x4 DUP1 CALLDATASIZE SUB DUP2 ADD SWAP1 PUSH2 0x45 SWAP2 SWAP1 PUSH2 0x1A7 JUMP JUMPDEST PUSH2 0x60 JUMP JUMPDEST PUSH1 0x40 MLOAD PUSH2 0x57 SWAP2 SWAP1 PUSH2 0x1DF JUMP JUMPDEST PUSH1 0x40 MLOAD DUP1 SWAP2 SUB SWAP1 RETURN JUMPDEST PUSH1 0x0 DUP1 PUSH2 0x3E8 SWAP1 POP PUSH1 0x0 PUSH2 0x85 DUP3 PUSH8 0xDE0B6B3A7640000 PUSH2 0x150 SWAP1 SWAP2 SWAP1 PUSH4 0xFFFFFFFF AND JUMP JUMPDEST SWAP1 POP PUSH1 0x0 PUSH2 0x3E8 SWAP1 POP DUP3 DUP6 LT PUSH2 0x143 JUMPI PUSH2 0xA8 DUP4 DUP7 PUSH2 0x166 SWAP1 SWAP2 SWAP1 PUSH4 0xFFFFFFFF AND JUMP JUMPDEST SWAP5 POP PUSH1 0x0 PUSH2 0xD3 PUSH2 0x3E8 PUSH2 0xC5 DUP6 DUP10 PUSH2 0x17C SWAP1 SWAP2 SWAP1 PUSH4 0xFFFFFFFF AND JUMP JUMPDEST PUSH2 0x150 SWAP1 SWAP2 SWAP1 PUSH4 0xFFFFFFFF AND JUMP JUMPDEST SWAP1 POP DUP2 DUP7 GT PUSH2 0x103 JUMPI PUSH8 0x7CE66C50E2840000 DUP2 GT PUSH2 0xF7 JUMPI DUP1 SWAP5 POP POP POP POP POP PUSH2 0x14B JUMP JUMPDEST DUP6 SWAP5 POP POP POP POP POP PUSH2 0x14B JUMP JUMPDEST PUSH1 0x0 PUSH2 0x118 DUP4 DUP9 PUSH2 0x166 SWAP1 SWAP2 SWAP1 PUSH4 0xFFFFFFFF AND JUMP JUMPDEST SWAP1 POP PUSH8 0x7CE66C50E2840000 DUP2 GT PUSH2 0x136 JUMPI DUP1 SWAP6 POP POP POP POP POP POP PUSH2 0x14B JUMP JUMPDEST DUP7 SWAP6 POP POP POP POP POP POP PUSH2 0x14B JUMP JUMPDEST PUSH1 0x0 SWAP4 POP POP POP POP JUMPDEST SWAP2 SWAP1 POP JUMP JUMPDEST PUSH1 0x0 DUP2 DUP4 PUSH2 0x15E SWAP2 SWAP1 PUSH2 0x1FA JUMP JUMPDEST SWAP1 POP SWAP3 SWAP2 POP POP JUMP JUMPDEST PUSH1 0x0 DUP2 DUP4 PUSH2 0x174 SWAP2 SWAP1 PUSH2 0x285 JUMP JUMPDEST SWAP1 POP SWAP3 SWAP2 POP POP JUMP JUMPDEST PUSH1 0x0 DUP2 DUP4 PUSH2 0x18A SWAP2 SWAP1 PUSH2 0x22B JUMP JUMPDEST SWAP1 POP SWAP3 SWAP2 POP POP JUMP JUMPDEST PUSH1 0x0 DUP2 CALLDATALOAD SWAP1 POP PUSH2 0x1A1 DUP2 PUSH2 0x321 JUMP JUMPDEST SWAP3 SWAP2 POP POP JUMP JUMPDEST PUSH1 0x0 PUSH1 0x20 DUP3 DUP5 SUB SLT ISZERO PUSH2 0x1B9 JUMPI PUSH1 0x0 DUP1 REVERT JUMPDEST PUSH1 0x0 PUSH2 0x1C7 DUP5 DUP3 DUP6 ADD PUSH2 0x192 JUMP JUMPDEST SWAP2 POP POP SWAP3 SWAP2 POP POP JUMP JUMPDEST PUSH2 0x1D9 DUP2 PUSH2 0x2B9 JUMP JUMPDEST DUP3 MSTORE POP POP JUMP JUMPDEST PUSH1 0x0 PUSH1 0x20 DUP3 ADD SWAP1 POP PUSH2 0x1F4 PUSH1 0x0 DUP4 ADD DUP5 PUSH2 0x1D0 JUMP JUMPDEST SWAP3 SWAP2 POP POP JUMP JUMPDEST PUSH1 0x0 PUSH2 0x205 DUP3 PUSH2 0x2B9 JUMP JUMPDEST SWAP2 POP PUSH2 0x210 DUP4 PUSH2 0x2B9 JUMP JUMPDEST SWAP3 POP DUP3 PUSH2 0x220 JUMPI PUSH2 0x21F PUSH2 0x2F2 JUMP JUMPDEST JUMPDEST DUP3 DUP3 DIV SWAP1 POP SWAP3 SWAP2 POP POP JUMP JUMPDEST PUSH1 0x0 PUSH2 0x236 DUP3 PUSH2 0x2B9 JUMP JUMPDEST SWAP2 POP PUSH2 0x241 DUP4 PUSH2 0x2B9 JUMP JUMPDEST SWAP3 POP DUP2 PUSH32 0xFFFFFFFFFFFFFFFFFFFFFFFFFFFFFFFFFFFFFFFFFFFFFFFFFFFFFFFFFFFFFFFF DIV DUP4 GT DUP3 ISZERO ISZERO AND ISZERO PUSH2 0x27A JUMPI PUSH2 0x279 PUSH2 0x2C3 JUMP JUMPDEST JUMPDEST DUP3 DUP3 MUL SWAP1 POP SWAP3 SWAP2 POP POP JUMP JUMPDEST PUSH1 0x0 PUSH2 0x290 DUP3 PUSH2 0x2B9 JUMP JUMPDEST SWAP2 POP PUSH2 0x29B DUP4 PUSH2 0x2B9 JUMP JUMPDEST SWAP3 POP DUP3 DUP3 LT ISZERO PUSH2 0x2AE JUMPI PUSH2 0x2AD PUSH2 0x2C3 JUMP JUMPDEST JUMPDEST DUP3 DUP3 SUB SWAP1 POP SWAP3 SWAP2 POP POP JUMP JUMPDEST PUSH1 0x0 DUP2 SWAP1 POP SWAP2 SWAP1 POP JUMP JUMPDEST PUSH32 0x4E487B7100000000000000000000000000000000000000000000000000000000 PUSH1 0x0 MSTORE PUSH1 0x11 PUSH1 0x4 MSTORE PUSH1 0x24 PUSH1 0x0 REVERT JUMPDEST PUSH32 0x4E487B7100000000000000000000000000000000000000000000000000000000 PUSH1 0x0 MSTORE PUSH1 0x12 PUSH1 0x4 MSTORE PUSH1 0x24 PUSH1 0x0 REVERT JUMPDEST PUSH2 0x32A DUP2 PUSH2 0x2B9 JUMP JUMPDEST DUP2 EQ PUSH2 0x335 JUMPI PUSH1 0x0 DUP1 REVERT JUMPDEST POP JUMP INVALID LOG2 PUSH5 0x6970667358 0x22 SLT KECCAK256 0xF PUSH24 0xEEF3F7EBD70AA386F92205688EFD5732706CEBA55B589851 0x27 DUP5 DUP13 0xD9 0xE8 0xCD PUSH5 0x736F6C6343 STOP ADDMOD DIV STOP CALLER "
		},
		"gasEstimates": {
			"creation": {
				"codeDepositCost": "175600",
				"executionCost": "220",
				"totalCost": "175820"
			},
			"external": {
				"test(uint256)": "infinite"
			}
		},
		"methodIdentifiers": {
			"test(uint256)": "29e99f07"
		}
	},
	"abi": [
		{
			"inputs": [
				{
					"internalType": "uint256",
					"name": "val",
					"type": "uint256"
				}
			],
			"name": "test",
			"outputs": [
				{
					"internalType": "uint256",
					"name": "",
					"type": "uint256"
				}
			],
			"stateMutability": "view",
			"type": "function"
		}
	]
}